:07000000020CD402000632DD
:0F000B00021263E4FFEFC3941250030F80F72239
:03001B00020DDDF6
:100023000214618C698D6AEF702990157093F563E2
:10003300901560E493F564901571E493F565E4938A
:10004300F56690156BE493F567901571E493F56885
:10005300020430EF6401600302011AE56A45697026
:100063002690157093F563901560E493F5649015ED
:1000730071E493F565E493F56690156BE493F56786
:10008300901571E493F568E56A64014569702690FB
:10009300157093F563901560E493F564901571E41E
:1000A30093F565E493F56690156EE493F567901503
:1000B30071E493F568E56A640245697026901570EA
:1000C30093F563901560E493F564901571E493F5EB
:1000D30065E493F56690156BE493F567901571E409
:1000E30093F568E56A64034569600302043090157B
:1000F3007093F563901560E493F564901571E49340
:10010300F565E493F56690156BE493F567901571C7
:10011300E493F568020430EF64027063E56A4569AD
:10012300702990157093F563901560E493F56490CE
:100133001571E493F565E493F56690156BE493F517
:1001430067901571E493F568020430E56A6401452C
:1001530069600302043090157093F563901560E4B1
:1001630093F564901571E493F565E493F566901542
:100173006EE493F567901571E493F568020430EF2C
:10018300640360030202FEE56A45697026901570F8
:1001930093F563901560E493F564901571E493F51A
:1001A30065E493F56690156BE493F567901571E438
:1001B30093F568E56A64014569702690157093F5B7
:1001C30063901560E493F564901571E493F565E429
:1001D30093F56690156EE493F567901571E493F5C6
:1001E30068E56A64024569702690157093F563901B
:1001F3001560E493F564901571E493F565E493F564
:100203006690156BE493F567901571E493F568E5D3
:100213006A64034569702690157093F563901560C1
:10022300E493F564901571E493F565E493F56690B2
:10023300156BE493F567901571E493F568E56A64CB
:10024300044569702690157093F563901560E493E7
:10025300F564901571E493F565E493F56690156B79
:10026300E493F567901571E493F568E56A640545D1
:1002730069702690157093F563901560E493F564A7
:10028300901571E493F565E493F56690156BE4932B
:10029300F567901571E493F568E56A64064569703E
:1002A3002690157093F563901560E493F5649015AB
:1002B30071E493F565E493F56690156BE493F56744
:1002C300901571E493F568E56A6407456960030274
:1002D300043090157093F563901560E493F5649082
:1002E3001571E493F565E493F56690156BE493F566
:1002F30067901571E493F568020430EFB40411902C
:100303001570E493F563901561E493F5640204308A
:10031300EFB40511901570E493F563901561E493C0
:10032300F564020430EFB40611901570E493F5639D
:10033300901561E493F564020430EFB4071190154E
:1003430070E493F563901561E493F564020430EF70
:10035300B40811901570E493F563901561E493F577
:1003630064020430EFB40911901570E493F56390BF
:100373001561E493F564020430EFB40A119015702B
:10038300E493F563901561E493F564020430EFB4EC
:100393000B11901570E493F563901561E493F56484
:1003A300020430EFB40C10901570E493F5639015CC
:1003B30061E493F5648076EFB40D10901570E493C7
:1003C300F563901561E493F5648062EFB40E1090C9
:1003D3001570E493F563901561E493F564804EEF33
:1003E300B40F10901570E493F563901561E493F5E1
:1003F30064803AEFB41010901570E493F563901590
:1004030061E493F5648026EFB41110901570E493C2
:10041300F563901561E493F5648012EFB4130E90C5
:100423001570E493F563901561E493F564C3E5698E
:1004330094004035E56A940AE5699400502B9015C1
:1004430071E493F565E493F566901576E493F567A7
:10045300AE69AF6A7C007D0A1209AA745F2DF5822A
:1004630074153CF583E493F568C3E56A940AE5697A
:1004730094004047E56A9464E5699400503D901503
:1004830071E493F565E493F566AE69AF6A7C007D2C
:100493000A1209AA74762FF58274153EF583E49344
:1004A300F567AE69AF6A7C007D0A1209AA745F2DF5
:1004B300F58274153CF583E493F568C3E56A9464A7
:1004C300E56994004069E56A94E8E5699403505F3F
:1004D300901571E493F565AE69AF6A7C007D641293
:1004E30009AA745F2FF58274153EF583E493F566CC
:1004F300AE69AF6A7C007D641209AA7E007F0ACFD1
:10050300CDCFCECCCE1209AA74762FF58274153EC8
:10051300F583E493F567AE69AF6A7C007D0A12093F
:10052300AA745F2DF58274153CF583E493F568C3D3
:10053300E56A94E8E569940350030205C8E56A9403
:1005430010E5699427507EAE69AF6A7C037DE8129B
:1005530009AA745F2FF58274153EF583E493F5655C
:10056300AE69AF6A7C037DE81209AA7E007F64CF7F
:10057300CDCFCECCCE1209AA745F2FF58274153E6F
:10058300F583E493F566AE69AF6A7C007D64120976
:10059300AA7E007F0ACFCDCFCECCCE1209AA747625
:1005A3002FF58274153EF583E493F567AE69AF6A60
:1005B3007C007D0A1209AA745F2DF58274153CF53F
:1005C30083E493F568C3E56A9410E56994275003BF
:1005D300020691AE69AF6AE4FCFD7BA07A867901DD
:1005E300F8D3120ACD5003020691AE69AF6A7C2795
:1005F3007D101209AA745F2FF58274153EF583E40A
:1006030093F564AE69AF6A7C277D101209AA7E0355
:100613007FE8CFCDCFCECCCE1209AA745F2FF5825F
:1006230074153EF583E493F565AE69AF6A7C037D8B
:10063300E81209AA7E007F64CFCDCFCECCCE1209BB
:10064300AA745F2FF58274153EF583E493F566AEC5
:1006530069AF6A7C007D641209AA7E007F0ACFCD50
:10066300CFCECCCE1209AA74762FF58274153EF53F
:1006730083E493F567AE69AF6A7C007D0A1209AA29
:10068300745F2DF58274153CF583E493F5688566F4
:100693006E85656F856470856371AB67AD687F0137
:1006A300120C3B85666E85656F856470856371ABDF
:1006B30067AD687F02120C3B22120E29EFB40106CC
:1006C3007535050208261213298E598F5AE52E70A7
:1006D30023C3E5559525FDE5549524FC1209AAACE1
:1006E30059AD5A1209988E598F5A1215178E5B8F6E
:1006F3005C020826E52EB40127C3E5559525FDE5E3
:10070300549524FCAE59AF5A1209AAAC59AD5A12EA
:1007130009988E598F5A1215208E5B8F5C0208261A
:10072300E52EB40227C3E5559525FDE5549524FC34
:10073300AE59AF5A1209AAAC59AD5A1209988E593B
:100743008F5A1215298E5B8F5C020826E52EB4039F
:1007530027C3E5559525FDE5549524FCAE59AF5ABD
:100763001209AAAC59AD5A1209988E598F5A12150B
:10077300328E5B8F5C020826E52EB40427C3E55551
:100783009525FDE5549524FCAE59AF5A1209AAAC40
:1007930059AD5A1209988E598F5A12153B8E5B8F99
:1007A3005C020826E52EB40526C3E5559525FDE52F
:1007B300549524FCAE59AF5A1209AAAC59AD5A123A
:1007C30009988E598F5A1215448E5B8F5C8054E5BD
:1007D3002EB40626C3E5559525FDE5549524FCAEB8
:1007E30059AF5A1209AAAC59AD5A1209988E598FAA
:1007F3005A12154D8E5B8F5C8029E52EB40724C3F6
:10080300E5559525FDE5549524FCAE59AF5A1209DB
:10081300AAAC59AD5A1209988E598F5A1215568E91
:100823005B8F5CAE5BAF5C221212CB1212AA121169
:10083300C4120EBE1213DC1213F012150E12123D67
:10084300121380E4FFFE121195E4FFFE121166E419
:10085300FF12139AE4F536C2A8FF121288EF644E12
:1008630070257F01121288EFB4451C7F0212128893
:10087300EFB457137F03121288EFB45A0A7F04129E
:100883001288EF64A560267D4EE4FF1212EB7D45CE
:100893007F011212EB7D577F021212EB7D5A7F0309
:1008A3001212EB7DA57F041212EB120B9B120EBEEC
:1008B3007F121212888F357F131212888F507F1484
:1008C3001212888F2E7F151211ED8E248F257F171C
:1008D3001211ED8E548F557F191211ED8E4C8F4DE1
:1008E3007F1B1211ED8E408F417F1D1211ED8E2F54
:1008F3008F307F1F1211ED8E268F277F211211ED6E
:100903008E388F397F231211ED8E318F327F25126E
:1009130011ED8E4A8F4B7F271211ED8E478F487F43
:10092300291212888F4F7F2A1212888F567F2B121B
:1009330012888F517F2D1212888F527F2E121288A8
:100943008F537F321211ED8F3DE54F2477F534E459
:100953003407F533D2AF7537011210CCE4F535E522
:100963003514601514601714601914601B14601D8E
:10097300240570EB1206BC80E6120E7480E112119E
:100983000480DC12113580D7120AF480D2120D6074
:1009930080CD80CB22EF8DF0A4A8F0CF8CF0A428DB
:1009A300CE8DF0A42EFE22BC000BBE0029EF8DF0ED
:1009B30084FFADF022E4CCF875F008EF2FFFEE339F
:1009C300FEEC33FCEE9DEC984005FCEE9DFE0FD54E
:1009D300F0E9E4CEFD22EDF8F5F0EE8420D21CFE22
:1009E300ADF075F008EF2FFFED33FD40079850068B
:1009F300D5F0F222C398FD0FD5F0EA2275F0087501
:100A03008200EF2FFFEE33FECD33CDCC33CCC58246
:100A130033C5829BED9AEC99E58298400CF582EE02
:100A23009BFEED9AFDEC99FC0FD5F0D6E4CEFBE4EA
:100A3300CDFAE4CCF9A88222B800C1B90059BA00B2
:100A43002DEC8BF084CFCECDFCE5F0CBF97818EF0D
:100A53002FFFEE33FEED33FDEC33FCEB33FB10D70E
:100A630003994004EB99FB0FD8E5E4F9FA227818CF
:100A7300EF2FFFEE33FEED33FDEC33FCC933C9102A
:100A8300D7059BE99A4007EC9BFCE99AF90FD8E05C
:100A9300E4C9FAE4CCFB2275F010EF2FFFEE33FE2E
:100AA300ED33FDCC33CCC833C810D7079BEC9AE8A1
:100AB30099400AED9BFDEC9AFCE899F80FD5F0DA22
:100AC300E4CDFBE4CCFAE4C8F922EB9FF5F0EA9E0F
:100AD30042F0E99D42F0EC6480C864809845F022BE
:100AE300EB9FF5F0EA9E42F0E99D42F0E89C45F069
:100AF30022120B9B120EBE7F121212888F357F13A8
:100B03001212888F507F141212888F2E7F151211A4
:100B1300ED8E248F257F171211ED8E548F557F197B
:100B23001211ED8E4C8F4D7F1B1211ED8E408F41B4
:100B33007F211211ED8E2F8F307F231211ED8E2620
:100B43008F277F1D1211ED8E388F397F1F1211ED04
:100B53008E318F327F251211ED8E4A8F4B7F2712F4
:100B630011ED8E478F487F291211ED8F4F7F2A1287
:100B730011ED8F567F2B1211ED8F517F2C1211ED3A
:100B83008F4E7F2D1211ED8F527F2E1211ED8F5349
:100B93007F321211ED8F3D22E5A0541FF5597D05DB
:100BA3007F121212EBE4FD7F131212EBE4FD7F14AC
:100BB3001212EBE4FDFC7F15121404E4FDFC7F1715
:100BC300121404E4FDFC7F19121404E4FDFC7F1BE2
:100BD300121404E4FDFC7F1D121404E4FDFC7F1FCA
:100BE300121404E4FDFC7F21121404E4FDFC7F23B2
:100BF300121404E4FDFC7F251214047D887C137F0A
:100C0300271214047DDE7F291212EB7D017F2A1245
:100C130012EB7D017F2B1212EB7D037F2C1212EB63
:100C23007D0C7F2D1212EBE4FD7F2E1212EB7D3231
:100C33007C007F32121404227C06A907AA71E9649E
:100C4300017044D292EC603D7E08C290EE6017EAD8
:100C530030E702D29112000ED29012000EC290C25F
:100C630091EA25E0FA1E1CECB40502AA70ECB40468
:100C730002AA6FECB40302AA6EECB40202AA03EC5C
:100C8300B40102AA05C292E964027044D295EC60F1
:100C93003D7E08C293EE6017EA30E702D294120059
:100CA3000ED29312000EC293C294EA25E0FA1E1CE0
:100CB300ECB40502AA70ECB40402AA6FECB403020C
:100CC300AA6EECB40202AA03ECB40102AA05C2950F
:100CD30022787FE4F6D8FD758171020D1B02082B83
:100CE300E493A3F8E493A34003F68001F208DFF44E
:100CF3008029E493A3F85407240CC8C333C4540FC6
:100D03004420C8834004F456800146F6DFE4800B98
:100D130001020408102040809013B1E47E01936027
:100D2300BCA3FF543F30E509541FFEE493A36001C5
:100D33000ECF54C025E060A840B8E493A3FAE4932F
:100D4300A3F8E493A3C8C582C8CAC583CAF0A3C8DD
:100D5300C582C8CAC583CADFE9DEE780BEE4F559A8
:100D6300F55AF55BF55CF55DF55EE4FDFCFF1200FD
:100D7300267F131212888F22EFFD7C00E4FF1200FE
:100D830026E4FDED70E4120E298F5DE55D30E0058C
:100D93007562018003E4F562E55D5402B4010575F3
:100DA3005F018003E4F55FE55D5404B401057560FC
:100DB300018003E4F560E55D5408B4010575610144
:100DC30080C1E4F56180BC80A1809F809D809B8071
:100DD30099809780958093809122C0E0C0D075D090
:100DE30000C000C28E781506780DE66001167815EE
:100DF300E654077002D2007815E664107019F6788D
:100E03000EE6600116780FE66001167810E66001C1
:100E1300167811E6600116758D0B758BDCD28ED0BA
:100E230000D0D0D0E032E4FE20B20DEF70070E0404
:100E33004401FF80035306FE20B30FEF70094306FE
:100E430002EE4402FF80035306FD20860FEF700974
:100E5300430604EE4404FF80035306FB20870FEF91
:100E63007009430608EE4408FF80035306F7AF06F4
:100E730022120E29EFB401057535058039121329A5
:100E8300AB07AA06C3E5559525FDE5549524FC1249
:100E930009AAAD03AC02120998AA06AB07C3E54140
:100EA300954DFDE540954CFC1209AAAC02AD031229
:100EB30009988E598F5AAE59AF5A2290157EE493F2
:100EC300F559E493F55AE493F55BE493F55CE49305
:100ED300F55DE493F55E855C6E855B6F855A708581
:100EE3005971AB5DAD5E7F01120C3B855C6E855B1A
:100EF3006F855A70855971AB5DAD5E7F02120C3BF5
:100F030022AE07E4781AF6D2A718F67819E6C39446
:100F130008501CD2A61214C908E6FF25E0F630A734
:100F230004E64401F6C2A61214C978190680DCEE61
:100F330024FF92A7D2A61214C9C2A6D2A71214C91B
:100F4300781AE6FF22AE07750801E47817F67817DA
:100F5300E6C39408501DEE30E704D2A58002C2A573
:100F6300D2A41214B1C2A41214B1EE25E0FE781774
:100F73000680DBD2A5D2A41214B130A503E4F50890
:100F8300C2A41214B122AE07750901E47817F678EA
:100F930017E6C39408501DEE30E704D2978002C2CF
:100FA30097D2961214BDC2961214BDEE25E0FE78B8
:100FB300170680DBD297D2961214BD309703E4F55F
:100FC30009C2961214BD22AE07750A01E47819F618
:100FD3007819E6C39408501DEE30E704D2A78002C7
:100FE300C2A7D2A61214C9C2A61214C9EE25E0FEE6
:100FF30078190680DBD2A7D2A61214C930A703E45E
:10100300F50AC2A61214C922AE07750B01E47817BC
:10101300F67817E6C39408501DEE30E704D2A1809A
:1010230002C2A1D2A01214D5C2A01214D5EE25E09B
:10103300FE78170680DBD2A1D2A01214D530A1030B
:10104300E4F50BC2A01214D522AE07750C01E478A7
:1010530017F67817E6C39408501DEE30E704D2A3C1
:101063008002C2A3D2A21214E1C2A21214E1EE259D
:10107300E0FE78170680DBD2A3D2A21214E130A3DC
:1010830003E4F50CC2A21214E122E47818F6D2A507
:1010930018F67817E6C39408501CD2A41214B108AA
:1010A300E6FF25E0F630A504E64401F6C2A41214D7
:1010B300B178170680DCD2A5D2A41214B1C2A4D28F
:1010C300A51214B17818E6FF227D02E4FF12130A79
:1010D300AD537F0312130AAD527F0412130AAD4EB0
:1010E3007F0512130AAD517F0612130AAD567F070F
:1010F30012130AAD4F7F0812130AE4FDFF12130AFD
:1011030022120E29EFB4010575350580201213292B
:10111300AB07AA06C3E5329539FDE5319538FC12D4
:1011230009AAAC02AD031209988E598F5AAE59AF72
:101133005A22120E29EFB4010575350580201213CA
:1011430029AB07AA06C3E5279530FDE526952FFCB5
:101153001209AAAC02AD031209988E598F5AAE59DF
:10116300AF5A22AD07AC06ED7802C333CE33CED8E7
:10117300F9FDAC06FBAA047D00FC7C0012143D7F44
:101183009812100BAF0312100B7F0012100B1214E6
:10119300F822AD07AC06ED7802C333CE33CED8F9CF
:1011A300FDAC06FBAA047D00FC7C0012144F7F9863
:1011B30012104CAF0312104C7F0012104C12150387
:1011C30022D292D295C293C291C290C29412000EBF
:1011D30012000E12000E12000EE4FFFEC3EE940185
:1011E30050070FEF70010E80F3228F59E55904FF6A
:1011F300121288755A008F5BE55B755B00F55AAF79
:1012030059121288EF255BF55BE4355AF55AFEAFA8
:101213005B22AE0712142BAF06120FCAE4FF120FA4
:1012230004EF7B00FA7F01120F04EFFBE4AF05121A
:101233000FCA1214EDAE02AF0322D2A61214C9D202
:10124300A71214C91214C91214C91214C9C2A7E4EB
:10125300FFFEC3EE940150070FEF70010E80F322DF
:10126300C0E0C0D075D000C000C28C781606E6542A
:10127300077003855899758C0B758ADCD28CD00066
:10128300D0D0D0E032AD071214717FA0120F48AF57
:1012930005120F481213C77FA1120F4812108DAE0B
:1012A30007121481AF0622D2A41214B11214B11280
:1012B30014B11214B1C2A5E4FFFEC3EE94015007AA
:1012C3000FEF70010E80F3227593FFE4F594F5910F
:1012D3007592FFF5957596FF75B1FF75B2FF758031
:1012E300FFF590F5A0F5B022AC071214717FA012A0
:1012F3000F48AF04120F48AF05120F481214817F35
:10130300647E0012134822AC071214917FD0120F8F
:1013130089AF04120F89AF05120F891214A17F64DC
:101323007E0012136422E47817F608F612123D7D4C
:101333008C7F901214187D8C7F911212157817E60A
:10134300FE08E6FF22D3EF9400EE94004012E4FD82
:10135300EDC394FF50030D80F7EF1F70011E80E56E
:1013630022D3EF9400EE94004012E4FDEDC394FF0A
:1013730050030D80F7EF1F70011E80E52243985044
:1013830053C8F043C83075CDFF75CCD075CBFF750E
:10139300CADCD2ACD2CA22EF600AAFA0EF4420F578
:1013A300A0F5A022AFA0EF54DFF5A0F5A022080D11
:1013B3000000000000000000013600C108C101C1A7
:1013C30009C10700D2A51214B1D2A41214B1C2A547
:1013D3001214B1C2A41214B122C28C758911758C76
:1013E3000B758ADCE47815F6D2A9D28C22C28E75ED
:1013F3008911758D0B758BDCE47816F6D2ABD28E22
:10140300228F5A8C5B8D5C055A1212EBE55BFDAFA4
:101413005A1212EB22AE0712142BAF06120FCAAFE9
:1014230005120FCA1214ED22D2A71214C9D2A612A2
:1014330014C9C2A71214C9C2A622D2A11214D5D2AA
:10144300A01214D5C2A11214D5C2A022D2A3121481
:10145300E1D2A21214E1C2A31214E1C2A222309972
:1014630002C299309807C29885993CD20832D2A516
:101473001214B1C2A51214B1C2A41214B122C2A58E
:101483001214B1D2A41214B1D2A51214B122D2975C
:101493001214BDC2971214BDC2961214BD22C29774
:1014A3001214BDD2961214BDD2971214BD22E4FFBA
:1014B300EFC3941250030F80F722E4FFEFC394129B
:1014C30050030F80F722E4FFEFC3941250030F8001
:1014D300F722E4FFEFC3941250030F80F722E4FFD7
:1014E300EFC3941250030F80F722D2A61214C9D26D
:1014F300A71214C922D2A01214D5D2A11214D52234
:10150300D2A21214E1D2A31214E122D2B2C289D21E
:1015130088D2A8228E5D8F5EAE5FAF60228E5D8F14
:101523005EAE5FAF60228E5D8F5EAE5FAF60228E78
:101533005D8F5EAE5FAF60228E5D8F5EAE5FAF602C
:10154300228E5D8F5EAE5FAF60228E5D8F5EAE5F7B
:10155300AF60228E5D8F5EAE5FAF6022FC60DAF219
:1015630066B6BEE4FEF6EE3E9C7A9E8E6ECE00EC30
:101573001C027CFD61DBF367B7BFE5FFF7EF3F9D1F
:0A1583007B9F8F6FCF01ED1D037DEC
:00000001FF
