:070000000255FE020006326A
:10000B00025B06125DFCC2A2125E03C296025E0385
:03001B000257F297
:10002300025DBFE4F564F565F566F56BF56CAD6CE3
:10003300AC6BAF66122380E5347003020BAE12572C
:10004300848F64E56430E0057567018003E4F56738
:10005300E56430E1057568018003E4F568E5643023
:10006300E2057569018003E4F569E56430E305752C
:100073006A018003E4F56AE567B401050566E4F502
:1000830065E566D394134005E4F566F534E569B494
:100093000108056CE56C7002056BE56AB40108E5BF
:1000A3006C156C7002156BE566C394045003020172
:1000B30043E566D3940B40030201437881E6706DF8
:1000C3007604125552E55525E0248CF8A60608A6B9
:1000D30007E555C39408500405558064799BE77878
:1000E3009926FF19E71836FEEF1826FFEE1836FE9D
:1000F300EF1826FFEE1836FEEF1826FFEE1836FE31
:10010300EF1826FFEE1836FEEF1826FFEE1836FE20
:10011300EF1826FFEE1836FEEF7803CEC313CE1387
:10012300D8F9799FF7EE19F7E4F5558013E55525CE
:10013300E0248CF8E6FE08E6FF789EA60608A607EC
:10014300E56664017047E539FD7C00AF66122380E4
:10015300E56C2539F539E4F56BF56CE539C39404A1
:100163004007E4F539F56BF56CE56864016003025B
:10017300003AAD397F12125C2FE4FDFC7F16122387
:10018300807FC47E09125CA7056502003AE56664B8
:1001930002703FE539C394024005056602003AE563
:1001A3005AFD7C00AF66122380E56C255AF55AE4AC
:1001B300F56BF56CE55AC394024007E4F55AF56B09
:1001C300F56CE5686401600302003AAD5A7F1302DF
:1001D300038EE5666403703CE5396005056602003D
:1001E3003AE56C2530F530E4F56BF56CE530C394F6
:1001F300064007E4F530F56BF56CE530FD7C00AFA8
:1002030066122380E5686401600302003AAD307F23
:100213001402038EE566640460030202E5E53960B7
:1002230005056602003A789EE6FC08E6FDAF661215
:100233002380E5686401600302003A78A0760385B1
:100243005323855424AE53AF54FC7D18123B647D75
:100253000A123B76789EE6FC08E6FDC3EF9DEE9C12
:10026300401BE508B40109C3EF9DF529EE9C8049C5
:10027300789EE6FC08E62FF529EE3C803CE508AEC7
:1002830053AF547C007D18B4011C123B647D0A12E9
:100293003B76C3789FE69FF52918E69EF5287547B8
:1002A30001434401801D123B647D0A123B76789E14
:1002B300E6FC08E62FF529EE3CF528E4F547534420
:1002C300FEF543AD447F32125C2FAD29AC287F1677
:1002D300125D7DAD24AC237F3C125D7D125CA302D5
:1002E30006D3E56664056003020394E539600505FA
:1002F3006602003A789EE6FC08E6FDAF66122380AC
:10030300E5686401600302003AE547B4010F789F92
:10031300E62529F56018E63528F55F800EC3789F3A
:10032300E69529F56018E69528F55FAD60AC5F7F2B
:1003330018125D7DE5602529FFE55F3528FEC3EFD3
:1003430094CAEE94C84014EF2436FDEE3437FC1201
:100353003B768E578F584344108020E5602529FF54
:10036300E55F3528FEC374CA9FFD74C89EFC123B2B
:10037300768E578F585344EF754300AD58AC577F73
:1003830034125D7D125CA3AD447F32125C2F0206F2
:10039300D3E56664067059E53964016005056602B4
:1003A300003AE508B401057547018003E4F5477891
:1003B3009EE6FC08E6FDAF66122380E568640160F3
:1003C3000302003A789EE6F54C08E6F54DFDAC4C89
:1003D3007F1A125D7D125CA3E547B40106E5444430
:1003E300028004E54454FDFD7F32125C2F0206D3E4
:1003F300E566640760030204A3E53964016005054B
:100403006602003A789EE6FC08E6FDAF661223809A
:10041300E5686401600302003A789EE6F54508E664
:10042300F546FDAC457F1C125D7DE547B40130E523
:1004330046254DFFE545354CFED3EF94E4EE944459
:100443004009EF241CFDEE34BB8044E546254DFFF7
:10045300E545354CFEC374E49FFD74449E8030C370
:10046300E546954DFFE545954CFED3EF94E4EE94B8
:10047300444009EF241CFDEE34BB8013C3E54695CD
:100483004DFFE545954CFEC374E49FFD74449EFC0B
:10049300123B768E3E8F3FAD3FAC3E7F360205ABBF
:1004A300E56664087059E539640260050566020073
:1004B3003AE508B401057547018003E4F547789EE2
:1004C300E6FC08E6FDAF66122380E568640160037D
:1004D30002003A789EE6F53C08E6F53DFDAC3C7F2C
:1004E3001E125D7D125CA3E547B40106E544440496
:1004F3008004E54454FBFD7F32125C2F0206D3E5F2
:1005030066640960030205B1E539640260050566A6
:1005130002003A789EE6FC08E6FDAF66122380E50A
:10052300686401600302003A789EE6F53508E6F553
:1005330036FDAC357F20125D7DE547B4012EE536EF
:10054300253DFFE535353CFED3EF9400EE947D4029
:1005530008E42FFDEE34838041E536253DFFE53584
:10056300353CFEC3E49FFD747D9E802EC3E5369526
:100573003DFFE535953CFED3EF9400EE947D4008B6
:10058300E42FFDEE34838012C3E536953DFFE53558
:10059300953CFEC3E49FFD747D9EFC123B768E2E3C
:1005A3008F2FAD2FAC2E7F38125D7D0206D3E5660B
:1005B300640A706DE53964036005056602003AE577
:1005C30008B401057547018003E4F547789EE6FC0E
:1005D30008E6FDAF66122380E5686401600302004C
:1005E3003A7F32FE125CA7789EE6F53108E6F532D3
:1005F300FDAC317F22125D7D125CA3E547B4010699
:10060300E54444088004E54454F7FD7F32125C2F2F
:100613000565E4FDFC7F161223807FA87E61020B33
:1006230096E566640B60030206E4E539640360053E
:10063300056602003A789EE6FC08E6FDAF661223E3
:1006430080E5686401600302003A789EE6F52A08B3
:10065300E6F52BFDAC2A7F24125D7D125CA3E547F2
:10066300B4012EE52B2532FFE52A3531FED3EF9475
:1006730000EE94194008E42FFDEE34E78041E52BAA
:100683002532FFE52A3531FEC3E49FFD74199E80B0
:100693002EC3E52B9532FFE52A9531FED3EF940067
:1006A300EE94194008E42FFDEE34E78012C3E52BE6
:1006B3009532FFE52A9531FEC3E49FFD74199EFC34
:1006C300123B768E258F26AD26AC257F3A125D7DB3
:1006D3000565E4FDFC7F161223807FC47E09020BAF
:1006E30096E566640C7068AE6BAF6CFC7D0A123BDA
:1006F30064EF254BF54BEE354AF54AE4F56BF56CA3
:10070300AD4BAC4AAF66122380E56964016009E52D
:100713006A6401600302003AD3E54B940FE54A94FF
:10072300274009E4F56BF56CF54AF54BE568640180
:10073300600302003AAD4BAC4A7F26125D7D05652E
:10074300E4FDFC7F161223807FC47E09020B96E52D
:1007530066640D7068AE6BAF6CFC7D0A123B64EF90
:100763002549F549EE3548F548E4F56BF56CAD4997
:10077300AC48AF66122380E56964016009E56A64E9
:1007830001600302003AD3E549940FE548942740FA
:1007930009E4F56BF56CF548F549E5686401600318
:1007A30002003AAD49AC487F28125D7D0565E4FD42
:1007B300FC7F161223807FC47E09020B96E56664D4
:1007C3000E6003020856C3E56C94C8E56B940040C1
:1007D30020E55270057552998040E552540F700C14
:1007E300E55224F054F04409F55280021552E48096
:1007F30029E56C6401456B7025E552C3949A400565
:10080300E4F5528015E552540FFFBF090AE552245F
:100813001054F0F55280020552E4F56BF56CE425B3
:1008230052FDE43420FCAF66122380E56864016066
:100833000302003AAD527F06125C4DAD527F2A127D
:100843005C2F0565E4FDFC7F161223807FC47E09BF
:10085300020B96E566640F60030208E9C3E56C9436
:10086300C8E56B94004022E561D39401500575619E
:1008730012803CE561540F700CE56124F054F044A0
:1008830009F561800215618026E56C6401456B7092
:1008930023E561B412057561018014E561540FFF0E
:1008A300BF090AE561241054F0F56180020561E493
:1008B300F56BF56CE561FD7C00AF66122380E5689E
:1008C3006401600302003AAD617F05125C4DAD61C6
:1008D3007F2B125C2F0565E4FDFC7F161223807FBE
:1008E300C47E09020B96E56664106003020A77C3AF
:1008F300E56C94C8E56B9400500302099EE55BB474
:100903000111E561B4020CE55254037006755B29CD
:10091300020A41E55BB40112E561B4020DE55254EC
:10092300036007755B28E4020A41E55B64017030EC
:10093300E56164016023E5616403601DE5616405AD
:100943006017E56164076011E5616408600BE561A8
:1009530064106005E561B41207755B31E4020A4176
:10096300E55BB4011EE56164046011E56164066042
:100973000BE56164096005E561B41107755B30E45B
:10098300020A41E55B540F700CE55B24F054F0441C
:1009930009F55B8002155BE4020A41E56C640145DD
:1009A3006B6003020A45E561B40212E55254037019
:1009B3000CE55BB42907755B01E4020A41E561B408
:1009C3000211E5525403600BE55BB42806755B0125
:1009D300E4806BE56164016023E5616403601DE508
:1009E3006164056017E56164076011E5616408608F
:1009F3000BE56164106005E561B4120BE55BB4318E
:100A030006755B01E48037E56164046011E56164A8
:100A130006600BE56164096005E561B4110BE55BF4
:100A2300B43006755B01E48015E55B540FFFBF0925
:100A33000AE55B241054F0F55B8002055BE4F56B7B
:100A4300F56CE55BFD7C00AF66122380E56864010D
:100A5300600302003AAD5B7F04125C4DAD5B7F2CFB
:100A6300125C2F0565E4FDFC7F161223807FFA7E5E
:100A730000020B96E56664116003020B08C3E56C84
:100A830094C8E56B94004020E55C7005755C238099
:100A93003EE55C540F700CE55C24F054F04409F51A
:100AA3005C8002155CE48027E56C6401456B702370
:100AB300E55CB42305E4F55C8015E55C540FFFBFEA
:100AC300090AE55C241054F0F55C8002055CE4F54A
:100AD3006BF56CE55CFD7C00AF66122380E5686412
:100AE30001600302003AAD5C7F02125C4DAD5C7F96
:100AF3002E125C2F0565E4FDFC7F161223807FFA1E
:100B03007E00020B96E56664126003020B9CC3E54C
:100B13006C94C8E56B94004020E55D7005755D59E4
:100B2300803EE55D540F700CE55D24F054F04409FC
:100B3300F55D8002155DE48027E56C6401456B700B
:100B430023E55DB45905E4F55D8015E55D540FFFBC
:100B5300BF090AE55D241054F0F55D8002055DE4EC
:100B6300F56BF56CE55DFD7C00AF66122380E568EF
:100B73006401600302003AAD5D7F01125C4DAD5D1F
:100B83007F2F125C2F0565E4FDFC7F161223807F07
:100B9300FA7E00125CA702003AE566C39413500381
:100BA30002003AE4F566F53402003A02568A8E6C86
:100BB3008F6D856C6E856D6FE4F509E508640170D2
:100BC30066D3E56F9455E56E9404AC6CAD6D50310E
:100BD300E4123AAA7BA47A70795D7840123A08A8A5
:100BE30004A905AA06AB07E4FFFE7DA07C431239E6
:100BF30010123AE38E6E8F6F750A01E4F508021442
:100C03000EE4123AAA7BA47A70795D7840123A080E
:100C1300E4FBFA79A078C3123914123AE38E6E8F8B
:100C23006FE4F50A02140EAC6CAD6DE4123AAA7BC4
:100C3300A47A70795D7840123A08E4FBFA79A078D7
:100C430043123914123AE38E6E8F6FD3E56D948697
:100C5300E56C9404401FE56D24B4FFE56C34FBFEA2
:100C6300900007E0FD7C00123B76C3E56F9FF56FB4
:100C7300E56E9EF56ED3E56D94C4E56C9409401F53
:100C8300E56D246EFFE56C34F6FE900008E0FD7C14
:100C930000123B76C3E56F9FF56FE56E9EF56ED34D
:100CA300E56D9484E56C9412401FE56D24A4FFE583
:100CB3006C34EDFE900007E0FD7C00123B76C3E54B
:100CC3006F9FF56FE56E9EF56ED3E56D9402E56C4F
:100CD3009417401FE56D241CFFE56C34E9FE90007A
:100CE30009E0FD7C00123B76C3E56F9FF56FE56E6F
:100CF3009EF56ED3E56D9472E56C941F401FE56D10
:100D030024ACFFE56C34E0FE900009E0FD7C0012AA
:100D13003B76C3E56F9FF56FE56E9EF56ED3E56D8C
:100D23009430E56C942A401FE56D2402FFE56C3492
:100D3300D6FE900009E0FD7C00123B76C3E56F9F71
:100D4300F56FE56E9EF56ED3E56D9426E56C9434F0
:100D5300401FE56D240CFFE56C34CCFE90000AE0E7
:100D6300FD7C00123B76C3E56F9FF56FE56E9EF544
:100D73006ED3E56D948CE56C943C401FE56D247E49
:100D8300FFE56C34C3FE90000AE0FD7C00123B7665
:100D9300C3E56F9FF56FE56E9EF56ED3E56D94AC7D
:100DA300E56C943F401EE56D2486FFE56C34C0FE80
:100DB30090000AE0FD7C00123B76EF256FF56FEEA5
:100DC300356EF56ED3E56D9430E56C9443401FE5C5
:100DD3006D2402FFE56C34BDFE900009E0FD7C004C
:100DE300123B76C3E56F9FF56FE56E9EF56ED3E517
:100DF3006D9450E56C944B401EE56D24BAFFE56C91
:100E030034B4FE90000AE0FD7C00123B76EF256FC0
:100E1300F56FEE356EF56ED3E56D94E8E56C944EA3
:100E2300401FE56D244AFFE56C34B1FE900009E0F4
:100E3300FD7C00123B76C3E56F9FF56FE56E9EF573
:100E43006ED3E56D948CE56C945A401FE56D24B028
:100E5300FFE56C34A5FE90000AE0FD7C00123B76B2
:100E6300C3E56F9FF56FE56E9EF56ED3E56D940454
:100E7300E56C9460401EE56D2424FFE56C34A0FE10
:100E830090000BE0FD7C00123B76EF256FF56FEED3
:100E9300356EF56ED3E56D9470E56C9467401FE590
:100EA3006D24B8FFE56C3498FE90000AE0FD7C00E9
:100EB300123B76C3E56F9FF56FE56E9EF56ED3E546
:100EC3006D9478E56C946E401EE56D24B0FFE56C7F
:100ED3003491FE90000BE0FD7C00123B76EF256F12
:100EE300F56FEE356EF56ED3E56D9436E56C94745F
:100EF300401FE56D24FCFFE56C348BFE90000AE097
:100F0300FD7C00123B76C3E56F9FF56FE56E9EF5A2
:100F13006EAE6CAF6DE4FCFD7B907A83F9F8C3127F
:100F23003BD9502BE56D2498FFE56C347CFEE4340B
:100F3300FFFDE434FFFCC00790000AE0FBE4FAF88D
:100F4300D0071258AAEF256FF56FEE356EF56EAE2A
:100F53006CAF6DE4FCFD7BB07A86F9F8C3123BD924
:100F6300502CE56D2478FFE56C3479FEE434FFFD05
:100F7300E434FFFCC007900009E0FBE4FAF8D00773
:100F83001258AAC3E56F9FF56FE56E9EF56EAE6CC2
:100F9300AF6DE4FCFD7B807A8EF9F8C3123BD95028
:100FA3002BE56D24A8FFE56C3471FEE434FFFDE40A
:100FB30034FFFCC00790000BE0FBE4FAF8D0071203
:100FC30058AAEF256FF56FEE356EF56EAE6CAF6D0B
:100FD300E4FCFD7B447A93F9F8C3123BD9502CE52A
:100FE3006D24EEFFE56C346CFEE434FFFDE434FF66
:100FF300FCC00790000BE0FBE4FAF8D0071258AAF4
:10100300C3E56F9FF56FE56E9EF56EAE6CAF6DE455
:10101300FCFD7B987A9EF9F8C3123BD9502BE56D02
:10102300249AFFE56C3461FEE434FFFDE434FFFCF5
:10103300C00790000BE0FBE4FAF8D0071258AAEFC0
:10104300256FF56FEE356EF56EAE6CAF6DE4FCFD9E
:101053007BF07AA0F9F8C3123BD9502CE56D2442FA
:10106300FFE56C345FFEE434FFFDE434FFFCC007AE
:1010730090000BE0FBE4FAF8D0071258AAC3E56F1F
:101083009FF56FE56E9EF56EAE6CAF6DE4FCFD7B78
:10109300047AA6F9F8C3123BD9502BE56D242EFF31
:1010A300E56C345AFEE434FFFDE434FFFCC00790E2
:1010B300000BE0FBE4FAF8D0071258AAEF256FF50E
:1010C3006FEE356EF56EAE6CAF6DE4FCFD7BD47ADE
:1010D300ADF9F8C3123BD9502CE56D245EFFE56CE6
:1010E3003452FEE434FFFDE434FFFCC00790000BF0
:1010F300E0FBE4FAF8D0071258AAC3E56F9FF56F37
:10110300E56E9EF56EAE6CAF6DE4FCFD7B547ABA72
:10111300F9F8C3123BD9502BE56D24DEFFE56C349F
:1011230045FEE434FFFDE434FFFCC00790000AE011
:10113300FBE4FAF8D0071258AAEF256FF56FEE35E6
:101143006EF56EAE6CAF6DE4FCFD7B767AC0F9F89C
:10115300C3123BD9502CE56D249EFFE56C343FFE52
:10116300E434FFFDE434FFFCC007900007E0FBE438
:10117300FAF8D0071258AAC3E56F9FF56FE56E9E84
:10118300F56EAE6CAF6DE4FCFD7B507AC3F9F8C32A
:10119300123BD9502BE56D24C4FFE56C343CFEE4CF
:1011A30034FFFDE434FFFCC007900007E0FBE4FAE2
:1011B300F8D0071258AAEF256FF56FEE356EF56E6E
:1011C300AE6CAF6DE4FCFD7B947ACAF9F8C3123BB5
:1011D300D9502CE56D2494FFE56C3435FEE434FFDF
:1011E300FDE434FFFCC00790000BE0FBE4FAF8D009
:1011F300071258AAC3E56F9FF56FE56E9EF56EAEB5
:101203006CAF6DE4FCFD7B507ACDF9F8C3123BD98A
:10121300502BE56D24D8FFE56C3432FEE434FFFD3A
:10122300E434FFFCC00790000BE0FBE4FAF8D007BE
:101233001258AAEF256FF56FEE356EF56EAE6CAFF3
:101243006DE4FCFD7B387AD1F9F8C3123BD9502CFD
:10125300E56D24F0FFE56C342EFEE434FFFDE43449
:10126300FFFCC00790000BE0FBE4FAF8D00712582C
:10127300AAC3E56F9FF56FE56E9EF56EAE6CAF6D1D
:10128300E4FCFD7BB07AD6F9F8C3123BD9502BE5C9
:101293006D2478FFE56C3429FEE434FFFDE434FF6C
:1012A300FCC00790000BE0FBE4FAF8D0071258AA41
:1012B300EF256FF56FEE356EF56EAE6CAF6DE4FC3A
:1012C300FD7B307AE3F9F8C3123BD9502BE56D244B
:1012D300F8FFE56C341CFEE434FFFDE434FFFCC08E
:1012E3000790000BE0FBE4FAF8D0071258AAEF25A9
:1012F3006FF56FEE356EF56EAE6CAF6DE4FCFD7B96
:101303008C7AE6F9F8C3123BD9502CE56D2488FF9B
:10131300E56C3419FEE434FFFDE434FFFCC00790B0
:101323000009E0FBE4FAF8D0071258AAC3E56F9F5F
:10133300F56FE56E9EF56EAE6CAF6DE4FCFD7B9CC8
:101343007AEAF9F8C3123BD9502BE56D248CFFE5FB
:101353006C3415FEE434FFFDE434FFFCC007900059
:101363000BE0FBE4FAF8D0071258AAEF256FF56FEC
:10137300EE356EF56EAE6CAF6DE4FCFD7B347AF347
:10138300F9F8C3123BD9502CE56D24F4FFE56C3416
:101393000CFEE434FFFDE434FFFCC00790000BE0D7
:1013A300FBE4FAF8D0071258AAC3E56F9FF56FE57F
:1013B3006E9EF56EAE6CAF6DE4FCFD7BFC7AF3F9CB
:1013C300F8C3123BD9502BE56D242CFFE56C340C8C
:1013D300FEE434FFFDE434FFFCC00790000AE0FBA9
:1013E300E4FAF8D0071258AAEF256FF56FEE356EC1
:1013F300F56EAE6CAF6DE4FCFD7BB07AFA7909F85B
:10140300C3123BD95005E4F56EF56FAE6EAF6F2294
:101413008E6C8F6DE4F509E508640160030214CD59
:10142300D3E56D94E0E56C9402501F7C007D0A12B5
:101433003B647D17123B76C374409FF56F74019E26
:10144300F56E750A01E4F508801DAE6CAF6D7C0086
:101453007D0A123B647D17123B76EF24C0F56FEED5
:1014630034FEF56EE4F50AD3E56D94F8E56C940269
:101473004022E50A701EE56D2426FFE56C34FDFE6F
:1014830090001BE0FD7C00123B76EF256FF56FEEBD
:10149300356EF56ED3E56D94D0E56C940750030279
:1014A3001BEBE50A6003021BEBE56D2462FFE56CB1
:1014B30034F8FE90001DE0FD7C00123B76EF256FB3
:1014C300F56FEE356EF56E021BEBAC6CAD6DE41291
:1014D3003AAA7BE17A7A79147840123A08E4FBFA63
:1014E30079A07843123914123AE38E6E8F6FD3E5E5
:1014F3006D94F8E56C9402401FE56D2426FFE56CBE
:1015030034FDFE90001BE0FD7C00123B76C3E56FCB
:101513009FF56FE56E9EF56ED3E56D94D0E56C9403
:1015230007401FE56D2462FFE56C34F8FE90001D53
:10153300E0FD7C00123B76C3E56F9FF56FE56E9E81
:10154300F56ED3E56D9460E56C940C401EE56D2457
:10155300B2FFE56C34F3FE90001DE0FD7C00123B0E
:1015630076EF256FF56FEE356EF56ED3E56D94DE90
:10157300E56C940D401FE56D2454FFE56C34F2FED9
:1015830090001DE0FD7C00123B76C3E56F9FF56F75
:10159300E56E9EF56ED3E56D94F2E56C9412401EF4
:1015A300E56D2440FFE56C34EDFE90001CE0FD7C0E
:1015B30000123B76EF256FF56FEE356EF56ED3E5D2
:1015C3006D9444E56C941B401EE56D240CFFE56CA3
:1015D30034E5FE90001DE0FD7C00123B76EF256FA5
:1015E300F56FEE356EF56ED3E56D947FE56C94245F
:1015F300401FE56D24FCFFE56C34DBFE90001EE02C
:10160300FD7C00123B76C3E56F9FF56FE56E9EF59B
:101613006ED3E56D94B4E56C9428401FE56D248882
:10162300FFE56C34D7FE90001DE0FD7C00123B7695
:10163300C3E56F9FF56FE56E9EF56ED3E56D94FC84
:10164300E56C9430401FE56D242CFFE56C34CFFE30
:1016530090001EE0FD7C00123B76C3E56F9FF56FA3
:10166300E56E9EF56ED3E56D94AAE56C9437401F45
:10167300E56D2488FFE56C34C8FE90001FE0FD7C17
:1016830000123B76C3E56F9FF56FE56E9EF56ED353
:10169300E56D94A0E56C9441401FE56D2492FFE550
:1016A3006C34BEFE90001FE0FD7C00123B76C3E568
:1016B3006F9FF56FE56E9EF56ED3E56D944AE56C0D
:1016C3009447401EE56D24E8FFE56C34B8FE9000B6
:1016D3001FE0FD7C00123B76EF256FF56FEE356E54
:1016E300F56ED3E56D94FAE56C944B401FE56D24DC
:1016F30038FFE56C34B4FE90001EE0FD7C00123B25
:1017030076C3E56F9FF56FE56E9EF56ED3E56D9439
:10171300CAE56C9453401FE56D2468FFE56C34AC57
:10172300FE90001FE0FD7C00123B76C3E56F9FF542
:101733006FE56E9EF56ED3E56D9488E56C94594024
:101743001EE56D24C8FFE56C34A6FE90001EE0FD87
:101753007C00123B76EF256FF56FEE356EF56ED399
:10176300E56D9406E56C9463401FE56D242CFFE55D
:101773006C349DFE90001FE0FD7C00123B76C3E5B8
:101783006F9FF56FE56E9EF56ED3E56D94ECE56C9A
:101793009468401EE56D2450FFE56C3497FE90007D
:1017A3001EE0FD7C00123B76EF256FF56FEE356E84
:1017B300F56ED3E56D9458E56C9470401EE56D2489
:1017C300ACFFE56C3490FE90001FE0FD7C00123B03
:1017D30076EF256FF56FEE356EF56ED3E56D945CA0
:1017E300E56C9476401FE56D2408FFE56C348AFEB2
:1017F30090001FE0FD7C00123B76C3E56F9FF56F01
:10180300E56E9EF56ED3E56D9476E56C947A401E95
:10181300E56D24EEFFE56C3485FE90001DE0FD7C54
:1018230000123B76EF256FF56FEE356EF56EAE6CFD
:10183300AF6DE4FCFD7B9E7A84F9F8C3123BD9506B
:101843002BE56D2494FFE56C347BFEE434FFFDE46B
:1018530034FFFCC00790001FE0FBE4FAF8D0071246
:1018630058AAEF256FF56FEE356EF56EAE6CAF6D62
:10187300E4FCFD7B6E7A8CF9F8C3123BD9502BE55F
:101883006D24C4FFE56C3473FEE434FFFDE434FFE0
:10189300FCC00790001EE0FBE4FAF8D0071258AA38
:1018A300EF256FF56FEE356EF56EAE6CAF6DE4FC44
:1018B300FD7BBA7A90F9F8C3123BD9502BE56D241E
:1018C30078FFE56C346FFEE434FFFDE434FFFCC0C5
:1018D3000790001FE0FBE4FAF8D0071258AAEF259F
:1018E3006FF56FEE356EF56EAE6CAF6DE4FCFD7BA0
:1018F300EE7A98F9F8C3123BD9502BE56D2444FFD7
:10190300E56C3467FEE434FFFDE434FFFCC007906C
:10191300001FE0FBE4FAF8D0071258AAEF256FF591
:101923006FEE356EF56EAE6CAF6DE4FCFD7B667AE3
:101933009EF9F8C3123BD9502BE56D24CCFFE56C1F
:101943003461FEE434FFFDE434FFFCC00790001F64
:10195300E0FBE4FAF8D0071258AAEF256FF56FEE13
:10196300356EF56EAE6CAF6DE4FCFD7BA67AA4F923
:10197300F8C3123BD9502BE56D24F0FFE56C345BC3
:10198300FEE434FFFDE434FFFCC00790001FE0FBDE
:10199300E4FAF8D0071258AAEF256FF56FEE356E0B
:1019A300F56EAE6CAF6DE4FCFD7BBA7AA9F9F8C3B2
:1019B300123BD9502BE56D2478FFE56C3456FEE4D9
:1019C30034FFFDE434FFFCC00790001FE0FBE4FAA2
:1019D300F8D0071258AAEF256FF56FEE356EF56E46
:1019E300AE6CAF6DE4FCFD7B967AAFF9F8C3123BA6
:1019F300D9502AE4256DFFE56C3451FEE434FFFD34
:101A0300E434FFFCC00790001EE0FBE4FAF8D007C3
:101A13001258AAEF256FF56FEE356EF56EAE6CAF0B
:101A23006DE4FCFD7B3A7AB6F9F8C3123BD9502B2F
:101A3300E56D24F8FFE56C3449FEE434FFFDE4343E
:101A4300FFFCC00790001EE0FBE4FAF8D007125831
:101A5300AAEF256FF56FEE356EF56EAE6CAF6DE4E4
:101A6300FCFD7B7A7ABCF9F8C3123BD9502BE56DA8
:101A730024B8FFE56C3443FEE434FFFDE434FFFC9B
:101A8300C00790001DE0FBE4FAF8D0071258AAEF54
:101A9300256FF56FEE356EF56EAE6CAF6DE4FCFD44
:101AA3007BDA7AC5F9F8C3123BD9502BE56D24587C
:101AB300FFE56C343AFEE434FFFDE434FFFCC00779
:101AC30090001CE0FBE4FAF8D0071258AAEF256F48
:101AD300F56FEE356EF56EAE6CAF6DE4FCFD7B46D7
:101AE3007ACDF9F8C3123BD9502BE56D24ECFFE511
:101AF3006C3432FEE434FFFDE434FFFCC007900095
:101B03001CE0FBE4FAF8D0071258AAEF256FF56F33
:101B1300EE356EF56EAE6CAF6DE4FCFD7B2E7AD1C7
:101B2300F9F8C3123BD9502BE56D2404FFE56C345F
:101B33002FFEE434FFFDE434FFFCC00790001EE0F9
:101B4300FBE4FAF8D0071258AAEF256FF56FEE35CC
:101B53006EF56EAE6CAF6DE4FCFD7B0A7AD7F9F8D7
:101B6300C3123BD9502BE56D2428FFE56C3429FEC5
:101B7300E434FFFDE434FFFCC00790001CE0FBE409
:101B8300FAF8D0071258AAEF256FF56FEE356EF508
:101B93006EAE6CAF6DE4FCFD7B1E7ADCF9F8C3120C
:101BA3003BD9502BE56D2414FFE56C3424FEE4345B
:101BB300FFFDE434FFFCC00790001DE0FBE4FAF8EE
:101BC300D0071258AAEF256FF56FEE356EF56EAE9E
:101BD3006CAF6DE4FCFD7B487AEEF9F8C3123BD998
:101BE300500674FFF56EF56FAE6EAF6F22E4F56CC1
:101BF300F56DF56EF56FF570F5718C728D73E50803
:101C030064016003021DC1C3E573940AE572940085
:101C1300503F905E72E493F56CF56DF56EE539B463
:101C2300030A905E75E493F56E021DDCE509640119
:101C33006005E539B4020D905E72E493F56F905E32
:101C430075021E15905E75E493F56F905E7C021E1F
:101C530015C3E573940AE5729400403FE5739464F9
:101C6300E57294005035905E72E493F56CF56DF572
:101C73006EE5396403700C905E7593F56E905E7C2F
:101C8300021E94E50964016006E53964027006905A
:101C93005E75021E94905E75021ECDC3E573946457
:101CA300E57294004038E57394E8E5729403502E8E
:101CB300905E72E493F56CF56D905E75E493F56E4A
:101CC300E53964037003021F2FE509640170030201
:101CD3001F92E53964026003021FEA021F92C3E503
:101CE3007394E8E5729403404FE5739410E572949E
:101CF300275045905E72E493F56C905E75E493F51E
:101D03006DAE72AF737C037DE8123B7674602FF582
:101D130082745E3EF583E493F56EE53964037003E4
:101D2300022085E509640170030220F6E5396402A7
:101D3300600302215B0220F6C3E5739410E57294FD
:101D430027500302236BAE72AF73E4FCFD7BA07AD2
:101D5300867901F8D3123BD9500302236B905E7549
:101D6300E493F56CAE72AF737C277D10123B7674EF
:101D7300602FF582745E3EF583E493F56DAE72AF2A
:101D8300737C277D10123B767E037FE8CFCDCFCEC9
:101D9300CCCE123B7674602FF582745E3EF583E4FD
:101DA30093F56EE53964037003022085E509640148
:101DB3006006E539640270030220F602215BC3E585
:101DC30073940AE57294005055905E72E493F56C37
:101DD300F56DF56EE539B40313905E7CE493F56F0E
:101DE300905E60E493F570E573022368E50964018E
:101DF3006005E539B40211905E72E493F56FF570F6
:101E0300E573905E60022368905E72E493F56F90D1
:101E13005E7CE493F570E573905E60022368C3E52E
:101E230073940AE57294005003021F03E5739464EC
:101E3300E57294004003021F03905E72E493F56C15
:101E4300F56DF56EE53964037038905E7C93F56F3C
:101E5300AE72AF737C007D0A123B7674602FF582FD
:101E6300745E3EF583E493F570AE72AF737C007DD0
:101E73000A123B7674602DF582745E3CF583E402AE
:101E83002368E50964016006E53964027039905EF0
:101E930072E493F56FAE72AF737C007D0A123B76EA
:101EA30074602FF582745E3EF583E493F570AE7231
:101EB300AF737C007D0A123B7674602DF582745EED
:101EC3003CF583E4022368905E72E493F56FAE728F
:101ED300AF737C007D0A123B76747C2FF582745EAF
:101EE3003EF583E493F570AE72AF737C007D0A1206
:101EF3003B7674602DF582745E3CF583E4022368BF
:101F0300C3E5739464E57294005003022042E573C1
:101F130094E8E57294034003022042905E72E493D6
:101F2300F56CF56DF56EE53964037057AE72AF73FA
:101F3300FC7D64123B76747C2FF582745E3EF583E0
:101F4300E493F56FAE72AF737C007D64123B767ED3
:101F5300007F0ACFCDCFCECCCE123B7674602FF567
:101F630082745E3EF583E493F570AE72AF737C00CA
:101F73007D0A123B7674602DF582745E3CF583E432
:101F8300022368E50964016006E53964027058AE0E
:101F930072AF737C007D64123B7674602FF582749C
:101FA3005E3EF583E493F56FAE72AF737C007D64A0
:101FB300123B767E007F0ACFCDCFCECCCE123B76BE
:101FC30074602FF582745E3EF583E493F570AE7210
:101FD300AF737C007D0A123B7674602DF582745ECC
:101FE3003CF583E4022368AE72AF737C007D641218
:101FF3003B7674602FF582745E3EF583E493F56F50
:10200300AE72AF737C007D64123B767E007F0ACF95
:10201300CDCFCECCCE123B76747C2FF582745E3E50
:10202300F583E493F570AE72AF737C007D0A123BC7
:102033007674602DF582745E3CF583E4022368C3F5
:10204300E57394E8E572940350030221C0E57394A9
:1020530010E572942740030221C0905E72E493F569
:102063006CF56DAE72AF737C037DE8123B767460E2
:102073002FF582745E3EF583E493F56EE5396403D0
:102083007065AE72AF737C037DE8123B767E007F92
:1020930064CFCDCFCECCCE123B76747C2FF5827439
:1020A3005E3EF583E493F56FAE72AF737C007D649F
:1020B300123B767E007F0ACFCDCFCECCCE123B76BD
:1020C30074602FF582745E3EF583E493F570AE720F
:1020D300AF737C007D0A123B7674602DF582745ECB
:1020E3003CF583E4022368E50964016006E539648D
:1020F300027065AE72AF737C037DE8123B767E009F
:102103007F64CFCDCFCECCCE123B7674602FF582D9
:10211300745E3EF583E493F56FAE72AF737C007D1E
:1021230064123B767E007F0ACFCDCFCECCCE123B5E
:102133007674602FF582745E3EF583E493F570AE9A
:1021430072AF737C007D0A123B7674602DF5827446
:102153005E3CF583E4022368AE72AF737C037DE8D3
:10216300123B767E007F64CFCDCFCECCCE123B76B2
:1021730074602FF582745E3EF583E493F56FAE725F
:10218300AF737C007D64123B767E007F0ACFCDCF98
:10219300CECCCE123B76747C2FF582745E3EF583F3
:1021A300E493F570AE72AF737C007D0A123B7674D4
:1021B300602DF582745E3CF583E4022368C3E57306
:1021C3009410E5729427500302236BAE72AF73E44D
:1021D300FCFD7BA07A867901F8D3123BD950030228
:1021E300236B905E72E493F56CAE72AF737C277DC4
:1021F30010123B7674602FF582745E3EF583E49390
:10220300F56DAE72AF737C277D10123B767E037F34
:10221300E8CFCDCFCECCCE123B7674602FF582744F
:102223005E3EF583E493F56EE53964037065AE7243
:10223300AF737C037DE8123B767E007F64CFCDCF06
:10224300CECCCE123B76747C2FF582745E3EF58342
:10225300E493F56FAE72AF737C007D64123B767EC0
:10226300007F0ACFCDCFCECCCE123B7674602FF554
:1022730082745E3EF583E493F570AE72AF737C00B7
:102283007D0A123B7674602DF582745E3CF583E41F
:10229300022368E50964016006E53964027064AEEF
:1022A30072AF737C037DE8123B767E007F64CFCDF3
:1022B300CFCECCCE123B7674602FF582745E3EF5A2
:1022C30083E493F56FAE72AF737C007D64123B764B
:1022D3007E007F0ACFCDCFCECCCE123B7674602F5B
:1022E300F582745E3EF583E493F570AE72AF737C52
:1022F300007D0A123B7674602DF582745E3CF58393
:10230300E48062AE72AF737C037DE8123B767E009D
:102313007F64CFCDCFCECCCE123B7674602FF582C7
:10232300745E3EF583E493F56FAE72AF737C007D0C
:1023330064123B767E007F0ACFCDCFCECCCE123B4C
:1023430076747C2FF582745E3EF583E493F570AE6C
:1023530072AF737C007D0A123B7674602DF5827434
:102363005E3CF583E493F571856F7C856E7D856DA9
:102373007E856C7FAB70AD717F010253D28C6D8D06
:102383006E8F6FAF6EAE6DE56F7028905E7193FFC9
:10239300F570905E60E493F571905E72E493F5726C
:1023A300905E65E493F573905E6EE493F5748F75B8
:1023B300022A50E56F64016003022460EF4E70222D
:1023C300905E7193F570905E61E493F571905E7227
:1023D300E493F572F573905E77E493F574A3E49355
:1023E300F575EF64014E7029905E7193F570905E00
:1023F30061E493F571905E72E493F572905E79E413
:1024030093F573905E77E493F574905E6DE493F5C2
:1024130075EF64024E701F905E7193F570905E616C
:10242300E493F571905E72E493F572F573F574902D
:102433005E76E493F575EF64034E6003022A5090D1
:102443005E7193F570905E61E493F571905E72E452
:1024530093F572F573F574905E6A02294BE56F6428
:10246300027049EF4E701E905E7193F570905E623C
:10247300E493F571905E72E493F572F573F57490DD
:102483005E6C02294BEF64014E6003022A50905E9A
:102493007193F570905E62E493F571905E72E493CC
:1024A300F572F573F574905E6F02294BE56F640363
:1024B30060030225A6EF4E701B905E7193F570903A
:1024C3005E63E493F571905E72E493F572F5737550
:1024D3007474F575EF64014E7024905E7193F5701A
:1024E300905E63E493F571905E72E493F572F57315
:1024F300905E7BE493F574905E72E493F575EF64FC
:10250300024E7024905E7193F570905E63E493F5D0
:1025130071905E72E493F572F573905E77E493F5D0
:1025230074905E72E493F575EF64034E7024905ECD
:102533007193F570905E63E493F571905E72E4932A
:10254300F572F573905E6EE493F574905E72E493A6
:10255300F575EF64044E7024905E7193F570905E90
:1025630063E493F571905E72E493F572F573905E94
:1025730079E493F574905E72E493F575EF64054E18
:102583006003022A50905E7193F570905E63E4934A
:10259300F571905E72E493F572F57375746DF5756C
:1025A300022A50E56FC39404500302294FE56FD309
:1025B300940D400302294F856D77856E78E56FB4DE
:1025C3000405905E77803AE56FB40505905E7780E9
:1025D30041E56FB40605905E798026E56FB4070583
:1025E300905E79802DE56FB40805905E768012E5E4
:1025F3006FB40905905E768019E56FB40A0C905E9E
:102603006AE493F57075715C8039E56FB40B0C90D7
:102613005E6AE493F57075716D8028E56FB40C10F4
:10262300905E6AE493F570905E74E493F5718013A1
:10263300E56FB40D11905E6AE493F570905E70E4FB
:1026430093F571E4F576C3E57794004040E578941B
:102653000AE57794005036905E72E493F572F57351
:10266300E5767009E5097005905E7C8004905E60F4
:10267300E493F574AE77AF787C007D0A123B7674F1
:10268300602DF582745E3CF583E493F575C3E578BC
:10269300940AE57794004060E5789464E5779400C4
:1026A3005056905E72E493F572F573E5767017E514
:1026B300097013AE77AF78FC7D0A123B76747C2FDA
:1026C300F582745E8012AE77AF787C007D0A123B90
:1026D3007674602FF582745E3EF583E493F574AEF1
:1026E30077AF787C007D0A123B7674602DF5827497
:1026F3005E3CF583E493F575C3E5789464E57794DC
:1027030000500302279DE57894E8E577940340039E
:1027130002279D905E72E493F572AE77AF787C00EA
:102723007D64123B7674602FF582745E3EF583E41C
:1027330093F573E5767024E5097020AE77AF78FCE6
:102743007D64123B767E007F0ACFCDCFCECCCE12F6
:102753003B76747C2FF582745E801FAE77AF787CF6
:10276300007D64123B767E007F0ACFCDCFCECCCEE8
:10277300123B7674602FF582745E3EF583E493F525
:1027830074AE77AF787C007D0A123B7674602DF5CA
:1027930082745E3CF583E493F575C3E57894E8E5CC
:1027A300779403500302285EE5789410E577942725
:1027B300400302285EAE77AF787C037DE8123B7658
:1027C30074602FF582745E3EF583E493F572AE7701
:1027D300AF787C037DE8123B767E007F64CFCDCF5C
:1027E300CECCCE123B7674602FF582745E3EF583B9
:1027F300E493F573E5767024E5097020AE77AF783E
:10280300FC7D64123B767E007F0ACFCDCFCECCCE4B
:10281300123B76747C2FF582745E801FAE77AF789F
:102823007C007D64123B767E007F0ACFCDCFCECC79
:10283300CE123B7674602FF582745E3EF583E4938B
:10284300F574AE77AF787C007D0A123B7674602D09
:10285300F582745E3CF583E493F575C3E5789410D3
:10286300E57794275003022A50AE77AF78E4FCFD56
:102873007BA07A867901F8D3123BD95003022A5000
:10288300AE77AF787C277D10123B7674602FF5828C
:10289300745E3EF583E493F571AE77AF787C277D64
:1028A30010123B767E037FE8CFCDCFCECCCE123B4A
:1028B3007674602FF582745E3EF583E493F572AE11
:1028C30077AF787C037DE8123B767E007F64CFCDC3
:1028D300CFCECCCE123B7674602FF582745E3EF57C
:1028E30083E493F573E5767024E5097020AE77AF42
:1028F30078FC7D64123B767E007F0ACFCDCFCECCB1
:10290300CE123B76747C2FF582745E801FAE77AF58
:10291300787C007D64123B767E007F0ACFCDCFCEDC
:10292300CCCE123B7674602FF582745E3EF583E461
:1029330093F574AE77AF787C007D0A123B767460B2
:102943002DF582745E3CF583E4022A34E56FC3946B
:102953000E5009E56F94144003022A39E56FB40E53
:102963000575706E802EE56FB40F0C905E73E49363
:10297300F570905E608031E56FB4100C905E6DE48D
:1029830093F57075716E8024E56FB4110C905E70D1
:10299300E493F570905E79800FE56FB4120E905E4C
:1029A30073E493F570905E61E493F571856D7785BB
:1029B3006E78E578540FFDE577C4F854F0C868F5F0
:1029C30077E578C4540F48F578540FFCE577C4F8DD
:1029D30054F0C868F577E578C4540F48F578540F78
:1029E300FBE577C4F854F0C868F577E578C4540F6D
:1029F30048F578540FFF7576017023905E7293FE4D
:102A0300F572EB70088E73EC905E608008EB905E5D
:102A13006093F573EC93F574ED93F575800FEF9078
:102A23005E6093F572EB93F573EC93F574ED905E42
:102A33006093F5758017E56FC394164010E4F57045
:102A4300F571F57275736E75747975756B85737C35
:102A530085727D85717E85707FAB74AD757F010254
:102A630053D28E6C8F6D856C70856D71E4F509E5BD
:102A73000864016003022DF4D3E56D94C2E56C9400
:102A830002AC6CAD6D5030E4123AAA7B7B7A1479B8
:102A93000E7840123A08A804A905AA06AB07E4FF7A
:102AA300FE7DA07C43123910123AE38E6E8F6F7550
:102AB3000A01E4F5088026E4123AAA7BCD7ACC79A0
:102AC3000C7840123A08E4FBFA79A078C31239145F
:102AD300123AE38E6E8F6FE4F50A750801D3E56F42
:102AE300946EE56E94004022E50A701EE56F249C07
:102AF300FFE56E34FFFE900043E0FD7C00123B7661
:102B0300EF256FF56FEE356EF56ED3E56F94B5E592
:102B13006E94014022E50A701EE56F245CFFE56EAA
:102B230034FEFE900046E0FD7C00123B76EF256FFD
:102B3300F56FEE356EF56ED3E56F9458E56E94023E
:102B43004022E50A701EE56F24DAFFE56E34FDFED0
:102B5300900045E0FD7C00123B76EF256FF56FEEAC
:102B6300356EF56ED3E56F94DEE56E94024022E593
:102B73000A701EE56F243AFFE56E34FDFE900044B3
:102B8300E0FD7C00123B76EF256FF56FEE356EF5B9
:102B93006ED3E56F94C0E56E94034022E50A701E80
:102BA300E56F244AFFE56E34FCFE900045E0FD7CB2
:102BB30000123B76EF256FF56FEE356EF56ED3E5BC
:102BC3006F947EE56E94044022E50A701EE56F243F
:102BD300B4FFE56E34FBFE900044E0FD7C00123B45
:102BE30076EF256FF56FEE356EF56ED3E56F944690
:102BF300E56E94054022E50A701EE56F24ECFFE5BF
:102C03006E34FAFE900044E0FD7C00123B76EF2523
:102C13006FF56FEE356EF56ED3E56F9404E56E9444
:102C2300064022E50A701EE56F2410FFE56E34FAB4
:102C3300FE900043E0FD7C00123B76EF256FF56FBD
:102C4300EE356EF56ED3E56F94F4E56E940640228F
:102C5300E50A701EE56F242AFFE56E34F9FE900045
:102C630044E0FD7C00123B76EF256FF56FEE356E89
:102C7300F56ED3E56F9476E56E94074022E50A700E
:102C83001EE56F2494FFE56E34F8FE900044E0FDEA
:102C93007C00123B76EF256FF56FEE356EF56ED344
:102CA300E56F9448E56E94084022E50A701EE56FCF
:102CB30024C2FFE56E34F7FE900043E0FD7C001272
:102CC3003B76EF256FF56FEE356EF56ED3E56F94BA
:102CD300DEE56E94084022E50A701EE56F242CFFA2
:102CE300E56E34F7FE900043E0FD7C00123B76EF87
:102CF300256FF56FEE356EF56ED3E56F94F6E56EE1
:102D030094094022E50A701EE56F2428FFE56E341E
:102D1300F6FE900043E0FD7C00123B76EF256FF555
:102D23006FEE356EF56ED3E56F94A0E56E940A40B1
:102D330022E50A701EE56F2488FFE56E34F5FE90E8
:102D43000043E0FD7C00123B76EF256FF56FEE3517
:102D53006EF56ED3E56F944AE56E940B4022E50A57
:102D6300701EE56F24DEFFE56E34F4FE900043E051
:102D7300FD7C00123B76EF256FF56FEE356EF56E39
:102D8300D3E56F949AE56E940B4022E50A701EE535
:102D93006F2484FFE56E34F4FE900043E0FD7C0075
:102DA300123B76EF256FF56FEE356EF56ED3E56F5B
:102DB3009426E56E940C4022E50A701EE56F24E428
:102DC300FFE56E34F3FE900043E0FD7C00123B769A
:102DD300EF256FF56FEE356EF56ED3E56F94A0E5D5
:102DE3006E940F5003022FD0756E13756F7E022FF2
:102DF300D085706E85716FAC70AD71E4123AAA7BA9
:102E0300CD7ACC790C7840123A08E4FBFA79A078B1
:102E130043123914123AE38E6E8F6FD3E56F9454D5
:102E2300E56E9401401FE56F24B6FFE56E34FEFEA8
:102E3300900045E0FD7C00123B76C3E56F9FF56F84
:102E4300E56E9EF56ED3E56F943AE56E9402401FEE
:102E5300E56F24D0FFE56E34FDFE900044E0FD7C79
:102E630000123B76C3E56F9FF56FE56E9EF56ED35B
:102E7300E56F94ACE56E9403401FE56F2472FFE5A4
:102E83006E34FCFE900044E0FD7C00123B76C3E50B
:102E93006F9FF56FE56E9EF56ED3E56F9414E56E47
:102EA3009405401FE56F240AFFE56E34FBFE900096
:102EB30044E0FD7C00123B76C3E56F9FF56FE56E42
:102EC3009EF56ED3E56F94B8E56E9406401FE56FEB
:102ED300245CFFE56E34F9FE900044E0FD7C0012B3
:102EE3003B76C3E56F9FF56FE56E9EF56ED3E56F99
:102EF300947AE56E9408401CE56F249AFFE56E34DE
:102F0300F7FE7C007D1C123B76C3E56F9FF56FE5F2
:102F13006E9EF56ED3E56F9432E56E940A401FE51D
:102F23006F24ECFFE56E34F5FE900045E0FD7C0078
:102F3300123B76C3E56F9FF56FE56E9EF56ED3E5A5
:102F43006F94A4E56E940B401FE56F2470FFE56E4C
:102F530034F4FE900045E0FD7C00123B76C3E56F40
:102F63009FF56FE56E9EF56ED3E56F94B7E56E94AE
:102F73000D401FE56F24AEFFE56E34F2FE90004571
:102F8300E0FD7C00123B76C3E56F9FF56FE56E9E17
:102F9300F56ED3E56F9490E56E940F401FE56F24B3
:102FA300E2FFE56E34F0FE900046E0FD7C00123B4C
:102FB30076C3E56F9FF56FE56E9EF56ED3E56F946F
:102FC30088E56E94134006756E17756F6FAE6EAF1E
:102FD3006F228E668F67E4F509E5086401600302DA
:102FE300313ED3E567948AE5669401AC66AD6750DC
:102FF30030E4123AAA7BD77AA379B0783F123A0821
:10300300A804A905AA06AB07E4FFFE7DA07C431232
:103013003910123AE38E688F69750A01E4F5088066
:1030230026E4123AAA7BD77AA379B0783F123A08FA
:10303300E4FBFA79A078C3123914123AE38E688F4D
:1030430069E4F50A75080185686A85696BD3E569E2
:103053009428E56894004022E50A701EE569242857
:10306300FFE43568FE90004DE0FD7C00123B76C323
:10307300E56B9FF56BE56A9EF56AD3E56994B6E562
:103083006894034023E50A701FE569244AFFE56855
:1030930034FCFE90004CE0FD7C00123B76C3E56BF4
:1030A3009FF56BE56A9EF56AD3E569949EE568949E
:1030B300074023E50A701FE5692462FFE56834F8D9
:1030C300FE90004CE0FD7C00123B76C3E56B9FF560
:1030D3006BE56A9EF56AD3E5699428E568940A402E
:1030E30023E50A701FE56924D8FFE56834F5FE90EF
:1030F300004CE0FD7C00123B76C3E56B9FF56BE56E
:103103006A9EF56AD3E5699480E568940C500302DE
:10311300346DE50A600302346DE5692480FFE568D8
:1031230034F3FE90004CE0FD7C00123B76C3E56B6C
:103133009FF56BE56A9EF56A02346DAC66AD67E494
:10314300123AAA7BD77AA379B0783F123A08E4FB04
:10315300FA79A07843123914123AE38E688F69859D
:10316300686A85696BC3E5699414E5689405401D35
:10317300E42569FFE56834FBFE90004EE0FD7C002A
:10318300123B76EF256BF56BEE356AF56AC3E5699D
:103193009498E5689408401EE5692468FFE568345F
:1031A300F7FE900050E0FD7C00123B76EF256BF5B7
:1031B3006BEE356AF56AC3E56994B2E568940C4031
:1031C3001EE569244EFFE56834F3FE90004EE0FDF2
:1031D3007C00123B76EF256BF56BEE356AF56AC31F
:1031E300E5699404E5689410401EE56924FCFFE555
:1031F3006834EFFE90004EE0FD7C00123B76EF2535
:103203006BF56BEE356AF56AC3E5699488E56894F6
:1032130013401EE5692478FFE56834ECFE90005006
:10322300E0FD7C00123B76EF256BF56BEE356AF51E
:103233006AC3E56994A8E5689416401EE5692458B5
:10324300FFE56834E9FE900050E0FD7C00123B7618
:10325300EF256BF56BEE356AF56AC3E568941940A3
:103263001DE42569FFE56834E7FE90004FE0FD7C2F
:1032730000123B76EF256BF56BEE356AF56AC3E515
:103283006994A2E568941C401EE569245EFFE56825
:1032930034E3FE90004EE0FD7C00123B76EF256B9D
:1032A300F56BEE356AF56AC3E569940EE568941F1C
:1032B300401EE56924F2FFE56834E0FE90004EE02D
:1032C300FD7C00123B76EF256BF56BEE356AF56AF4
:1032D300C3E56994FCE5689421401EE5692404FF75
:1032E300E56834DEFE90004EE0FD7C00123B76EF95
:1032F300256BF56BEE356AF56AC3E56994EAE56813
:103303009424401EE5692416FFE56834DBFE900033
:103313004FE0FD7C00123B76EF256BF56BEE356AD3
:10332300F56AC3E56994ACE5689426401EE5692413
:1033330054FFE56834D9FE900051E0FD7C00123B58
:1033430076EF256BF56BEE356AF56AC3E569940490
:10335300E5689429401EE56924FCFFE56834D6FE40
:10336300900050E0FD7C00123B76EF256BF56BEE91
:10337300356AF56AC3E56994F4E5689429401EE566
:1033830069240CFFE56834D6FE900051E0FD7C0013
:10339300123B76EF256BF56BEE356AF56AC3E5698B
:1033A3009488E568942C401EE5692478FFE5683429
:1033B300D3FE90004FE0FD7C00123B76EF256BF5CA
:1033C3006BEE356AF56AC3E5699418E568942E4097
:1033D3001EE56924E8FFE56834D1FE900051E0FD65
:1033E3007C00123B76EF256BF56BEE356AF56AC30D
:1033F300E56994DAE568942F401EE5692426FFE524
:103403006834D0FE900051E0FD7C00123B76EF253E
:103413006BF56BEE356AF56AC3E56994CEE568949E
:1034230031401EE5692432FFE56834CEFE90004C3E
:10343300E0FD7C00123B76EF256BF56BEE356AF50C
:103443006AC3E5699458E5689434401EE56924A885
:10345300FFE56834CBFE90004CE0FD7C00123B7628
:10346300EF256BF56BEE356AF56AAE6AAF6B228EAC
:103473006C8F6DE4F509E50864017066D3E56D941E
:10348300B5E56C9403AC6CAD6D5031E4123AAA7B94
:10349300A47A70793D7840123A08A804A905AA06CF
:1034A300AB07E4FFFE7DA07C43123910123AE38E92
:1034B3006E8F6F750A01E4F508023908E4123AAA1F
:1034C3007BA47A70793D7840123A08E4FBFA79A03C
:1034D30078C3123914123AE38E6E8F6FE4F50A0241
:1034E3003908AC6CAD6DE4123AAA7BA47A70793DCD
:1034F3007840123A08E4FBFA79A07843123914129F
:103503003AE38E6E8F6FD3E56D941AE56C940440A5
:103513001FE56D2418FFE56C34FCFE900011E0FDFF
:103523007C00123B76C3E56F9FF56FE56E9EF56EEB
:10353300D3E56D94F1E56C9409401FE56D241EFFFE
:10354300E56C34F6FE900011E0FD7C00123B76C37F
:10355300E56F9FF56FE56E9EF56ED3E56D9406E519
:103563006C9411401FE56D2402FFE56C34EFFE906F
:103573000012E0FD7C00123B76C3E56F9FF56FE51B
:103583006E9EF56ED3E56D9446E56C941E401EE485
:10359300256DFFE56C34E2FE900013E0FD7C001224
:1035A3003B76C3E56F9FF56FE56E9EF56ED3E56DD4
:1035B300949AE56C9429401FE56D2452FFE56C3421
:1035C300D6FE900013E0FD7C00123B76C3E56F9FAF
:1035D300F56FE56E9EF56ED3E56D94F2E56C942B75
:1035E300401EE56D2440FFE56C34D4FE900013E0EB
:1035F300FD7C00123B76EF256FF56FEE356EF56EB1
:10360300D3E56D9448E56C943A401FE56D2462FF61
:10361300E56C34C6FE900013E0FD7C00123B76C3DC
:10362300E56F9FF56FE56E9EF56ED3E56D943CE512
:103633006C943C401EE56D24D8FFE56C34C3FE90CA
:103643000012E0FD7C00123B76EF256FF56FEE353F
:103653006EF56ED3E56D94D4E56C9444401FE56D2F
:103663002440FFE56C34BBFE900014E0FD7C0012A7
:103673003B76C3E56F9FF56FE56E9EF56ED3E56D03
:1036830094BCE56C9448401EE56D2458FFE56C340A
:10369300B7FE900012E0FD7C00123B76EF256FF53C
:1036A3006FEE356EF56ED3E56D948CE56C945040FA
:1036B3001FE56D2488FFE56C34AFFE900013E0FD39
:1036C3007C00123B76C3E56F9FF56FE56E9EF56E4A
:1036D300D3E56D945CE56C9458401EE56D24B8FF0A
:1036E300E56C34A7FE900012E0FD7C00123B76EF00
:1036F300256FF56FEE356EF56ED3E56D9438E56C99
:10370300945E401FE56D24DCFFE56C34A1FE900060
:1037130012E0FD7C00123B76C3E56F9FF56FE56E0B
:103723009EF56ED3E56D94D0E56C9466401EE56D11
:103733002444FFE56C3499FE900014E0FD7C0012F4
:103743003B76EF256FF56FEE356EF56ED3E56D9431
:1037530054E56C946A401FE56D2424FFE56C3496B0
:10376300FE900013E0FD7C00123B76C3E56F9FF5EE
:103773006FE56E9EF56ED3E56D94B4E56C9473407E
:103783001FE56D2460FFE56C348CFE900013E0FDB3
:103793007C00123B76C3E56F9FF56FE56E9EF56E79
:1037A300D3E56D94DCE56C947D401FE56D2438FF13
:1037B300E56C3482FE900013E0FD7C00123B76C37F
:1037C300E56F9FF56FE56E9EF56EAE6CAF6DE4FC35
:1037D300FD7BA07A87F9F8C3123BD9502CE56D2401
:1037E30074FFE56C3478FEE434FFFDE434FFFCC081
:1037F30007900012E0FBE4FAF8D0071258AAC3E5D9
:103803006F9FF56FE56E9EF56EAE6CAF6DE4FCFDDC
:103813007BB47A8CF9F8C3123BD9502CE56D246044
:10382300FFE56C3473FEE434FFFDE434FFFCC007B2
:10383300900013E0FBE4FAF8D0071258AAC3E56F2F
:103843009FF56FE56E9EF56EAE6CAF6DE4FCFD7B90
:10385300DC7A96F9F8C3123BD9502CE56D2438FF76
:10386300E56C3469FEE434FFFDE434FFFCC00790EB
:103873000013E0FBE4FAF8D0071258AAC3E56F9FE0
:10388300F56FE56E9EF56EAE6CAF6DE4FCFD7B8C63
:103893007A9BF9F8C3123BD9502CE56D2488FFE5D8
:1038A3006C3464FEE434FFFDE434FFFCC007900095
:1038B30012E0FBE4FAF8D0071258AAC3E56F9FF5AC
:1038C3006FE56E9EF56EAE6CAF6DE4FCFD7B2C7AFE
:1038D300ABF9F8C3123BD9502CE56D24E8FFE56C36
:1038E3003454FEE434FFFDE434FFFCC007900011C0
:1038F300E0FBE4FAF8D0071258AAC3E56F9FF56F0F
:10390300E56E9EF56EAE6EAF6F22023B4FE86480AC
:10391300F8E933E83360110460F0ED33EC337009F8
:10392300E8FCE9FDEAFEEBFF220460DED3EB9FEA4D
:103933009EE99DE8C2E78CF0C2F795F0400CE8CC15
:10394300F8E9CDF9EACEFAEBCFFB123B1A85D0F0BA
:103953005804700320D5B3E80470075002B2D502AF
:103963003B5992D5EC0460F7E4CCC0E0C398F8600F
:103973003B94186008400DD0E0FB023B31E4FBFAB6
:10398300C9FC8028E830E406E4C9FBE4CAFCE8305B
:10399300E305E4C9CACBFCE854076010F8C3E91394
:1039A300F9EA13FAEB13FBEC13FCD8F130F52FC350
:1039B300E49CFCEF9BFFEE9AFEED99FDD0E0FBEF5C
:1039C3004E4D4C701222DB03023B56EC2CFCEF33C2
:1039D300FFEE33FEED33FDED30E7EB023B31EF2B32
:1039E300FFEE3AFEED39FDD0E0FB50130BBB0003B5
:1039F300023B59ED13FDEE13FEEF13FFEC13FC0234
:103A03003B31023B59EC5D046005E8590470030245
:103A13003B4F123B1A580460F6EC4860F2EC70041A
:103A2300FDFEFF22C860DB2481C85009C3986002F1
:103A33005006023B569850CAF582E9294B4A700555
:103A4300AB82023B4575F0007C1A7880C3EF9BEE96
:103A53009AED99400DC3EF9BFFEE9AFEED99FDE8B9
:103A630042F0DC23ACF0D0E0FFD0E0FED0E0FDABD1
:103A73008220E7101BEB60BAEC2CFCEF33FFEE3334
:103A8300FEED33FD023B31E803F830E705C0F07586
:103A9300F000EF2FFFEE33FEED33FD40B830E7C209
:103AA30080AA75F020800E75F010800575F0087DF2
:103AB300007E007F003392D530D503123BCBEC332D
:103AC3004010EF33FFEE33FEED33FDEC33FCD5F066
:103AD300ED22E5F0247EA2D513CC92E7CDCEFF22D2
:103AE300EDD2E7CD33EC3392D524814006E4FFFEDB
:103AF300FDFC22FCE4CFCECDCC24E0501174FF803A
:103B0300EDC3CC13CCCD13CDCE13CECF13CF0470D6
:103B1300F030D5DE023BCBE9D2E7C933E833F89284
:103B2300D5EDD2E7CD33EC33FC5002B2D522EC30E5
:103B3300E7100FBF000C0EBE00080DBD00040BEB19
:103B43006014A2D5EB13FCED92E7FD2274FFFCFD9C
:103B5300FEFF22E480F8A2D574FF13FC7D80E4808D
:103B6300EFEF8DF0A4A8F0CF8CF0A428CE8DF0A4B5
:103B73002EFE22BC000BBE0029EF8DF084FFADF0BA
:103B830022E4CCF875F008EF2FFFEE33FEEC33FCA4
:103B9300EE9DEC984005FCEE9DFE0FD5F0E9E4CEDA
:103BA300FD22EDF8F5F0EE8420D21CFEADF075F0A9
:103BB30008EF2FFFED33FD4007985006D5F0F222B2
:103BC300C398FD0FD5F0EA22C3E49FFFE49EFEE411
:103BD3009DFDE49CFC22EB9FF5F0EA9E42F0E99DFB
:103BE30042F0EC6480C864809845F02275F0087553
:103BF3008200EF2FFFEE33FECD33CDCC33CCC58225
:103C030033C5829BED9AEC99E58298400CF582EEE0
:103C13009BFEED9AFDEC99FC0FD5F0D6E4CEFBE4C8
:103C2300CDFAE4CCF9A88222B800C1B90059BA0090
:103C33002DEC8BF084CFCECDFCE5F0CBF97818EFEB
:103C43002FFFEE33FEED33FDEC33FCEB33FB10D7EC
:103C530003994004EB99FB0FD8E5E4F9FA227818AD
:103C6300EF2FFFEE33FEED33FDEC33FCC933C91008
:103C7300D7059BE99A4007EC9BFCE99AF90FD8E03A
:103C8300E4C9FAE4CCFB2275F010EF2FFFEE33FE0C
:103C9300ED33FDCC33CCC833C810D7079BEC9AE87F
:103CA30099400AED9BFDEC9AFCE899F80FD5F0DA00
:103CB300E4CDFBE4CCFAE4C8F9228E6C8F6DE50801
:103CC30064017049D3E56D9468E56C94005034AC9D
:103CD3006CAD6DE4123AAA7B487AE1790A78401216
:103CE3003A08A804A905AA06AB07E4FFFEFD7C4237
:103CF300123910123AE38E6E8F6F750A01E4F508DC
:103D0300024007E4F50AF56EF56F024007AC6CADAF
:103D13006DE4123AAA7BCD7ACC794C7840123A08FA
:103D2300E4FBFAF97842123914123AE3AB07AA0614
:103D33008A6E8B6FC3EB9432EA9400401DEB24CE62
:103D4300FFEA34FFFE900031E0FD7C00123B76C3B6
:103D5300E56F9FF56FE56E9EF56EC3EB946DEA9488
:103D630000401DEB2493FFEA34FFFE900030E0FD9A
:103D73007C00123B76C3E56F9FF56FE56E9EF56E93
:103D8300C3EB94AEEA9400401DEB2452FFEA34FFE8
:103D9300FE900032E0FD7C00123B76C3E56F9FF599
:103DA3006FE56E9EF56EC3EB94F8EA9400401DEB4D
:103DB3002408FFEA34FFFE900033E0FD7C00123B51
:103DC30076C3E56F9FF56FE56E9EF56EC3EB947159
:103DD300EA9401401DEB248FFFEA34FEFE90003489
:103DE300E0FD7C00123B76C3E56F9FF56FE56E9EA9
:103DF300F56EC3EB94C8EA9401401DEB2438FFEA47
:103E030034FEFE900035E0FD7C00123B76C3E56F87
:103E13009FF56FE56E9EF56EC3EB944FEA940240F7
:103E23001DEB24B1FFEA34FDFE900036E0FD7C007B
:103E3300123B76C3E56F9FF56FE56E9EF56EC3EBA0
:103E4300941CEA9403401DEB24E4FFEA34FCFE9047
:103E53000036E0FD7C00123B76C3E56F9FF56FE50E
:103E63006E9EF56EC3EB94F2EA9403401DEB240EB1
:103E7300FFEA34FCFE900038E0FD7C00123B76C381
:103E8300E56F9FF56FE56E9EF56EC3EB9426EA949E
:103E930005401DEB24DAFFEA34FAFE900036E0FD1C
:103EA3007C00123B76C3E56F9FF56FE56E9EF56E62
:103EB300C3EB9484EA9406401DEB247CFFEA34F9B7
:103EC300FE90003AE0FD7C00123B76C3E56F9FF560
:103ED3006FE56E9EF56EC3EB946DEA9408401DEB9F
:103EE3002493FFEA34F7FE900038E0FD7C00123B98
:103EF30076C3E56F9FF56FE56E9EF56EC3EB946D2C
:103F0300EA9409401DEB2493FFEA34F6FE90003A4D
:103F1300E0FD7C00123B76C3E56F9FF56FE56E9E77
:103F2300F56EC3EB9441EA940B401DEB24BFFFEA0B
:103F330034F4FE900039E0FD7C00123B76C3E56F5C
:103F43009FF56FE56E9EF56EC3EB94C9EA940C4042
:103F53001DEB2437FFEA34F3FE90003DE0FD7C00C7
:103F6300123B76C3E56F9FF56FE56E9EF56EC3EB6F
:103F73009485EA940E401DEB247BFFEA34F1FE9016
:103F8300003EE0FD7C00123B76C3E56F9FF56FE5D5
:103F93006E9EF56EC3EB941CEA9411401DEB24E472
:103FA300FFEA34EEFE90003EE0FD7C00123B76C358
:103FB300E56F9FF56FE56E9EF56EC3EB94D6EA94BD
:103FC30013401CEB242AFFEA34ECFE90003EE0FD94
:103FD3007C00123B76EF256FF56FEE356EF56EC301
:103FE300EB94B2EA9414401CEB244EFFEA34EBFE4C
:103FF30090003EE0FD7C00123B76EF256FF56FEEFF
:10400300356EF56EAE6EAF6F228E6C8F6DE5086404
:10401300017049D3E56F9467E56E94005034AC6C3E
:10402300AD6DE4123AAA7B487AE1790A7840123AF4
:1040330008A804A905AA06AB07E4FFFEFD7C42120B
:104043003910123AE38E6E8F6F750A01E4F5080298
:104053004355E4F50AF56EF56F024355AC6CAD6D4F
:10406300E4123AAA7B717A3D794A7840123A08E41D
:10407300FBFAF97842123914123AE3AB07AA068A1B
:104083006E8B6FC3EB9445EA9400401DEB24C5FF90
:10409300EA34FFFE900021E0FD7C00123B76C3E58D
:1040A3006F9FF56FE56E9EF56EC3EB946DEA94001A
:1040B300401DEB2493FFEA34FFFE900022E0FD7CD9
:1040C30000123B76C3E56F9FF56FE56E9EF56EC3F9
:1040D300EB9499EA9400401DEB2467FFEA34FFFE5A
:1040E300900023E0FD7C00123B76C3E56F9FF56FE4
:1040F300E56E9EF56EC3EB94C7EA9400401DEB2476
:1041030039FFEA34FFFE900024E0FD7C00123B7689
:10411300C3E56F9FF56FE56E9EF56EC3EB9411EAF1
:104123009401401DEB24F0FFEA34FEFE900025E0ED
:10413300FD7C00123B76C3E56F9FF56FE56E9EF540
:104143006EC3EB947BEA9401401DEB2486FFEA34B3
:10415300FEFE900023E0FD7C00123B76C3E56F9FDB
:10416300F56FE56E9EF56EC3EA9402401DEB2401E4
:10417300FFEA34FEFE900026E0FD7C00123B76C38E
:10418300E56F9FF56FE56E9EF56EC3EB94A1EA9420
:1041930002401DEB2460FFEA34FDFE900027E0FDA2
:1041A3007C00123B76C3E56F9FF56FE56E9EF56E5F
:1041B300C3EB9460EA9403401DEB24A1FFEA34FCB3
:1041C300FE900028E0FD7C00123B76C3E56F9FF56F
:1041D3006FE56E9EF56EC3EB944AEA9404401DEBC3
:1041E30024B7FFEA34FBFE900029E0FD7C00123B7C
:1041F30076C3E56F9FF56FE56E9EF56EC3EB946234
:10420300EA9405401DEB249FFFEA34FAFE90002A4E
:10421300E0FD7C00123B76C3E56F9FF56FE56E9E74
:10422300F56EC3EB94A9EA9406401DEB2458FFEA0C
:1042330034F9FE90002BE0FD7C00123B76C3E56F62
:104243009FF56FE56E9EF56EC3EB94B0EA9407405D
:104253001DEB2451FFEA34F8FE90002DE0FD7C00B5
:10426300123B76C3E56F9FF56FE56E9EF56EC3EB6C
:1042730094E6EA9408401DEB241BFFEA34F7FE9012
:10428300002CE0FD7C00123B76C3E56F9FF56FE5E4
:104293006E9EF56EC3EB9426EA940A401DEB24DB75
:1042A300FFEA34F5FE90002DE0FD7C00123B76C35F
:1042B300E56F9FF56FE56E9EF56EC3EB949BEA94F5
:1042C3000B401DEB2466FFEA34F4FE90002EE0FD64
:1042D3007C00123B76C3E56F9FF56FE56E9EF56E2E
:1042E300C3EB9448EA940D401DEB241DFFEA34F31D
:1042F300FE90002EE0FD7C00123B76C3E56F9FF538
:104303006FE56E9EF56EC3EB9403EA940F401DEBCD
:1043130024FEFFEA34F0FE90002EE0FD7C00123B09
:1043230076C3E56F9FF56FE56E9EF56EC3EB94560E
:10433300EA9411401DEB24ABFFEA34EEFE90002F0C
:10434300E0FD7C00123B76C3E56F9FF56FE56E9E43
:10435300F56EAE6EAF6F22125784BF0111752C0438
:1043630078A0E67003024684E4F52C02468478A024
:10437300E660068523538524547888E6704F7608D3
:10438300124689E55525E0248CF8A60608A607E51C
:1043930055C394045004055580337993E7789126E7
:1043A300FF19E71836FEEF1826FFEE1836FEEF1852
:1043B30026FFEE1836FEEF7802CEC313CE13D8F9DC
:1043C300F5548E53E4F55578A0E66001167881E63E
:1043D300600302461376081255528E648F65E530EA
:1043E3007046124B808E688F691214138E668F6726
:1043F300AC66AD67E4123AAA7B337A3379437842E9
:10440300123A08123AE38E688F69AE66AF677C0092
:104413007D26123B76EF24A3F56BE43EF56AE55A5D
:104423006003024613024608E530640170587D1E9E
:10443300124B828E688F691234728E668F67AC66F8
:10444300AD67E4123AAA7B337A3379DB7841123AC7
:1044530008123AE38E688F69AC66AD67E4123AAA34
:104463007B337A3379AB7841123A08E4FBFA792348
:104473007843123914123AE38E6A8F6BE55A60035C
:10448300024613024608E53064027045124B808EE3
:10449300688F69122A658E668F67AC66AD67E41212
:1044A3003AAAE4FBFA79F07840123A08123AE38E1A
:1044B300688F69AE66AF677C007D06123B76EF249A
:1044C300A3F56BE43EF56AE55A6003024613024620
:1044D30008E5306403705CAE53AF54FC7D24124B8B
:1044E300878E688F69120BB18E668F67AC66AD6776
:1044F300E4123AAA7B667A6679E27841123A0812A4
:104503003AE38E688F69AC66AD67E4123AAAE4FBBE
:10451300FA79B47841123A08E4FBFA792378431222
:104523003914123AE38E6A8F6BE55A60030246131D
:10453300024608E53064047064750901E554AE531E
:104543007802C333CE33CED8F9FF7C00124B8A8E68
:10455300688F6912400C8E668F67AC66AD67E41294
:104563003AAA7B337A3379637842123A08123AE3F0
:104573008E688F69AC66AD67E4123AAAE4FBFA79F8
:10458300327842123A08E4FBFA7923784312391459
:10459300123AE38E6A8F6BE55A70758068E5306472
:1045A30005706D750901E554AE537802C333CE33FC
:1045B300CED8F9FF7C00124B8A8E688F69123CBDFE
:1045C3008E668F67AC66AD67E4123AAA7B337A33A3
:1045D30079637842123A08123AE38E688F69AC66BF
:1045E300AD67E4123AAAE4FBFA79327842123A0848
:1045F300E4FBFA79237843123914123AE38E6A8F73
:104603006BE55A700BAF67AE661254998E668F676F
:104613007882E67007125713788276087880E670FE
:10462300267620AD67AC667F01121BF0D3E5679554
:104633004BE566954A400EE5679549E56695485012
:1046430004D2B48002C2B47885E67018208407AF20
:1046530069AE68125B83208507AF6BAE6A125AD4CA
:10466300788576107884E67018200109856799D2D9
:10467300017601800AE566F599C2017884763BD21A
:1046830099AE66AF6722D2A59000007F017E00122B
:104693005CA730A503A380FAC2A5C3E5829410E505
:1046A3008394704006E4FAFB024921C37410958297
:1046B300FD74709583FCE4123AAA7B337A33799BB9
:1046C3007841123A08123AE3AA06AB07D3EB94797E
:1046D300EA94005003024921EB2488FFEA34FFFEE9
:1046E3007C007D0C123B76C3EB9FFBEA9EFAD3EB77
:1046F30094FCEA94005003024921EB2405FFEA34B9
:10470300FFFE7C007D14123B76EF2BFBEE3AFAD3CF
:10471300EB9419EA94015003024921EB24E8FFEAE0
:1047230034FEFE7C007D12123B76C3EB9FFBEA9EB8
:10473300FAD3EB9491EA94015003024921EB2470DC
:10474300FFEA34FEFE7C007D1C123B76EF2BFBEE72
:104753003AFAD3EB941DEA94025003024921EB2465
:10476300E4FFEA34FDFE7C007D0F123B76EF2BFB6A
:10477300EE3AFAD3EB9481EA94025003024921EB17
:104783002480FFEA34FDC4F854F0C868FEEFC45433
:104793000F482BFBEE3AFAD3EB94DBEA9402500377
:1047A300024921EB2426FFEA34FDFE7C007D0B1237
:1047B3003B76EF2BFBEE3AFAD3EB945DEA9403508E
:1047C30003024921EB24A4FFEA34FCFEEF7803CE75
:1047D300C313CE13D8F92BFBEE3AFAD3EB94ADEA1D
:1047E30094035003024921EB2454FFEA34FCFE7C7A
:1047F300007D0E123B76EF2BFBEE3AFAD3EB94F3EC
:10480300EA94035003024921EB240EFFEA34FCFE31
:104813007C007D0A123B76EF2BFBEE3AFAD3EB9446
:1048230011EA94045003024921EB24F0FFEA34FB1C
:10483300FE7C007D0E123B76C3EB9FFBEA9EFAD310
:10484300EB9439EA94045003024921EB24C8FFEAAC
:1048530034FBFE7C007D05123B76EF2BFBEE3AFA30
:10486300D3EB949DEA94045003024921EB2464FFA3
:10487300EA34FBFE7C007D09123B76EF2BFBEE3A1C
:10488300FAD3EB94F7EA94045003024921EB240A88
:10489300FFEA34FBFE7C007D0A123B76EF2BFBEE36
:1048A3003AFAD3EB9451EA94054073EB24B0FFEA50
:1048B30034FAFE7C007D06123B76EF2BFBEE3AFAD0
:1048C300D3EB94D3EA94054055EB242EFFEA34FA54
:1048D300FEEF7803CEC313CE13D8F92BFBEE3AFACF
:1048E300D3EB9405EA94064035EB24FCFFEA34F954
:1048F300FEEF7802CEC313CE13D8F92BFBEE3AFAB0
:10490300D3EB94BEEA94064015EB2448FFEA34F94E
:10491300FE7C007D0A123B76EF2BFBEE3AFAAF03E7
:10492300AE0222C28CAF89EF4401F589F589758CFB
:10493300DCE4F58AC28D75E50775E64675E6B9AF21
:10494300E2EF4408F5E2F5E275E50675E64675E63D
:10495300B9D28CA28DB340FBC28DC28C75E50775AD
:10496300E64675E6B9AFE2EF4403F5E2F5E275E535
:104973000675E64675E6B975E50775E64675E6B963
:10498300AFE2EF54FBF5E2F5E275E50675E6467531
:10499300E6B9125BABD296D2A2125C11125B321251
:1049A3005D9F125DAF125C6B125CBEE4FFFE125A98
:1049B300D4125CD8E4FFFE125B83E4FF125D35E49E
:1049C300F53AFF125BCDEF644E70227F01125BCD8F
:1049D300BF451A7F02125BCDBF57127F03125BCD17
:1049E300BF5A0A7F04125BCDEF64A560297D4EE4B4
:1049F300FF125C2F7D457F01125C2F7D577F0212D2
:104A03005C2F7D5A7F03125C2F7DA57F04125C2FE0
:104A130012585512514E125CD87F12125BCD8F394A
:104A23007F13125BCD8F5A7F14125BCD8F307F16AD
:104A3300125C878E288F297F18125C878E5F8F60A8
:104A43007F1A125C878E4C8F4D7F1C125C878E45BC
:104A53008F467F1E125C878E3C8F3D7F20125C87C2
:104A63008E358F367F22125C878E318F327F2412F0
:104A73005C878E2A8F2B7F26125C878E4A8F4B7F13
:104A830028125C878E488F497F2A125BCD8F527F15
:104A93002B125BCD8F617F2C125BCD8F5B7F2E1230
:104AA3005BCD8F5C7F2F125BCD8F5D7F30125BCD33
:104AB3008F567F32125BCD7543008F447F34125C77
:104AC300878E578F587F36125C878E3E8F3F7F3895
:104AD300125C878E2E8F2F7F3A125C878E258F264E
:104AE3007F3C125C878E238F24E42552F538E4340F
:104AF30020F537125855D2A9D28CD2ABD28ED2AF71
:104B0300753B0112568AE5397007E54430E027808A
:104B130022E539B40107E54430E11B8016E539B4D9
:104B23000207E54430E20F800AE539B40308E5449F
:104B330030E303754701E52C1460261460281460E4
:104B43002A14602C146031240570EBE539700DE5EF
:104B53004430E4057522018003E4F52212435A80B0
:104B6300D5124FEC80D0124D2080CB124E8680C6DA
:104B730075340112002680BE12522C80B97D18AE06
:104B830053AF54FC123B647D0A123B768E4F8F5019
:104B9300AF65AE64AB07AA06E547707CE5087065B0
:104BA300C3EB9529EA95284028EB9529FFEA952838
:104BB300FEC3EF9550EE954F400BEF9550FBEE95EE
:104BC3004FFA024CF0E5502529CFE54F3528024C2A
:104BD30076C3E5299BFFE5289AFEC3EF9550EE9532
:104BE3004FE55040112BFFE54F3AFEC3E5299FFBEC
:104BF300E5289E024C7C2529CFE54F3528CFC39B62
:104C0300FBEF9A8074E5292BFFE5283AFEE5502F48
:104C1300FBE54F3EFA024CF0E5087063C3EB9529C0
:104C2300EA95284035EB9529FFEA9528FEC3EF95D1
:104C330050EE954FE55040112BFFE54F3AFEE52925
:104C43002FFBE5283EFA024CF02529FFE54F3528D6
:104C5300FEEF2BFBEE3AFA024CF0C3E5299BFFE58E
:104C6300289AFEC3EF9550EE954FE5292550CFE5E1
:104C730028354FCFC39BFBEF9AFA750801806EC3AB
:104C8300EB9529EA9528402EEB9529FFEA9528FE16
:104C9300C3EF9550EE954F4013EB9550FDEA954FBA
:104CA300FCC3ED9529FBEC9528FA8041C3E5509FA1
:104CB300FBE54F9E8033C3E5299BFFE5289AFEC39E
:104CC300EF9550EE954F4012E5502BFFE54F3AFE1E
:104CD300C3E5299FFBE5289E800FE5292550CFE5F5
:104CE30028354FCFC39BFBEF9AFAE4F508E5227C06
:104CF300007D46AF03AE02B4010C123B76C3EB9FBB
:104D0300FBEA9EFA8009123B76EF2BFBEE3AFAE5BB
:104D13005EB4010474FFFAFBAE02AF0322125784A0
:104D2300BF0106752C04024E817881E66003024EB2
:104D33000E76101255528E648F65E547B40124E553
:104D430008B4011FD3E565953DE564953C400280B9
:104D530047C3E53D9565F565E53C9564F564E4F584
:104D6300088053E547B40106E50870028009E5476A
:104D73007013E508B4010EE53D2565F565E53C35A1
:104D830064F5648031E547702DE5087029C3E56556
:104D9300953DE564953C400EE565953DF565E56417
:104DA300953CF5648010C3E53D9565F565E53C9557
:104DB30064F564750801D3E5369480E535940CAC4D
:104DC3002EAD2FAE64AF65400F123B76EF2565F530
:104DD30065EE3564F564800E123B76C3E5659FF599
:104DE30065E5649EF564AC64AD65E4123AAA7BCDD7
:104DF3007ACC794C7840123A08123AE38E648F6584
:104E0300E55EB4010674FFF564F5657880E6702805
:104E1300AD65AC647F01121BF078807608D3E5653D
:104E2300954BE564954A400EE5659549E5649548DB
:104E33005004D2B48002C2B47885E6701820840787
:104E4300AF65AE64125B83208507AF65AE64125A0B
:104E5300D4788576027882E67007125713788276C3
:104E6300087884E67018200109856599D2017601D6
:104E7300800AE564F599C2017884763BD299AE64E1
:104E8300AF6522125784BF0106752C04024FE778E1
:104E930081E66003024F7476101255528E648F655B
:104EA300E547B40124E508B4011FC3E5659532E580
:104EB30064953140028047C3E5329565F565E53178
:104EC3009564F564E4F5088053E547B40106E50805
:104ED30070028009E5477013E508B4010EE5322539
:104EE30065F565E5313564F5648031E547702DE599
:104EF300087029C3E5659532E5649531400EE56593
:104F03009532F565E5649531F5648010C3E5329516
:104F130065F565E5319564F564750801D3E52B9472
:104F230000E52A9419AC25AD26AE64AF65400F1297
:104F33003B76EF2565F565EE3564F564800E123B2F
:104F430076C3E5659FF565E5649EF564AC64AD6580
:104F5300E4123AAA7BCD7ACC794C7840123A081203
:104F63003AE38E648F65E55EB4010674FFF564F57C
:104F7300657880E67028AD65AC647F01121BF0781C
:104F8300807610D3E565954BE564954A400EE5655B
:104F93009549E56495485004D2B48002C2B478853B
:104FA300E67018208407AF65AE64125B8320850723
:104FB300AF65AE64125AD4788576027882E67007BC
:104FC300125713788276087884E6701820010985D1
:104FD3006599D2017601800AE564F599C201788466
:104FE300763BD299AE64AF6522125784BF01067532
:104FF3002C040251497881E660030250D6761012E0
:1050030055528E648F65E547B40124E508B4011F4A
:10501300C3E565954DE564954C40028047C3E54D76
:105023009565F565E54C9564F564E4F5088053E50D
:1050330047B40106E50870028009E5477013E508E7
:10504300B4010EE54D2565F565E54C3564F56480E1
:1050530031E547702DE5087029C3E565954DE56495
:10506300954C400EE565954DF565E564954CF56405
:105073008010C3E54D9565F565E54C9564F564755C
:105083000801D3E54694E4E5459444AC3EAD3FAE18
:1050930064AF65400F123B76EF2565F565EE356429
:1050A300F564800E123B76C3E5659FF565E5649E66
:1050B300F564E55EB4010674FFF564F565AF65AEAE
:1050C30064122FD58E648F65E55A70071254998E3A
:1050D300648F657880E67028AD65AC647F01121B30
:1050E300F078807610D3E565954BE564954A400EDC
:1050F300E5659549E56495485004D2B48002C2B48D
:105103007885E67018208407AF65AE64125B832050
:105113008507AF65AE64125AD4788576027882E645
:105123007007125713788276087884E67018200186
:1051330009856599D2017601800AE564F599C20172
:105143007884763BD299AE64AF652212568AAD3924
:105153007F12125C2FE4FD7F13125C2FE4FD7F149A
:10516300125C2FE4FDFC7F16125D7D7D787C057F4C
:1051730018125D7DE4FDFC7F1A125D7D7D527C0378
:105183007F1C125D7DE4FDFC7F1E125D7D7D887CAE
:10519300137F20125D7D7D287C007F22125D7D7D43
:1051A300C87C007F24125D7DE4FDFC7F26125D7DBB
:1051B3007D887C137F28125D7D7D157F2A125C2FED
:1051C3007D017F2B125C2F7D017F2C125C2F7D04D0
:1051D3007F2D125C2F7D127F2E125C2F7D017F2F7E
:1051E300125C2F7D017F30125C2FE4FD7F32125C55
:1051F3002F7D017C007F34125D7D7D017C007F3635
:10520300125D7D7D017C007F38125D7D7D017C0018
:105213007F3A125D7DE4FDFC7F3C125D7D7D407C29
:10522300007F40125D7D02585512514E125CD87FAB
:1052330012125BCD8F397F13125BCD8F5A7F1412FD
:105243005BCD8F307F16125C878E288F297F1812D3
:105253005C878E5F8F607F1A125C878E4C8F4D7FC9
:105263001C125C878E458F467F22125C878E318F9E
:10527300327F24125C878E2A8F2B7F1E125C878ECF
:105283003C8F3D7F20125C878E358F367F26125CE4
:10529300878E4A8F4B7F28125C878E488F497F2ADF
:1052A300125C878F527F2B125BCD8F617F2C125B39
:1052B300CD8F5B7F2D125BCD8F517F2E125BCD8FF8
:1052C3005C7F2F125BCD8F5D7F30125BCD8F567F5E
:1052D30032125BCD7543008F447F34125C878E5747
:1052E3008F587F36125C878E3E8F3F7F38125C87E4
:1052F3008E2E8F2F7F3A125C878E258F267F3C124E
:105303005C878E238F2422014200014E00015E0040
:105313000980101004023B02141E0201A003024F75
:10532300000002570000023E0000022E000002258A
:105333000000022300000253000001521401610126
:10534300015B01015103015C12015D010156010181
:105353005500013401013A00C102C101C103010832
:1053630000010900010A004B001500243038404CAD
:10537300586878C8FA49000C002028303470A0C857
:10538300FF4A004007080A101820303840484C00F4
:105393000000102028303840606C80B4E1500020B9
:1053A300000A0E1314161B23262A343C4046506A67
:1053B3005000300A0D10121C20283437393B40426C
:1053C3005A84FA48004A002C2E32363A3E4D00A940
:1053D300057D01AA7FED64017069C291FEC292C28C
:1053E30090E4FC125E3DD292125E3DC2920CBC0868
:1053F300F20EBE02E8E4FEC292C290E4FCEA30E799
:1054030002D290125E3DD292125E3DC292C290EAE7
:1054130025E0FA0CBC08E6EE7004AA7E801ABE01F1
:1054230004AA7D8013BE0204AA7C800CBE0304AAD6
:10543300038005BE0402AA010EBE06BBD291125E12
:105443003DC291ED6402704DC295FEC294E4FCEA44
:1054530030E702D293125E3DD294125E3DC294C2F3
:1054630093EA25E0FA0CBC08E6EE7004AA7E801AE3
:10547300BE0104AA7D8013BE0204AA7C800CBE0375
:1054830004AA038005BE0402AA010EBE06BDD2957E
:10549300125E3DC295228E6C8F6DE5096401703BEF
:1054A300C3E56D9420E56C94004019E508700BE5A5
:1054B3006D24E0FDE56C34FF8044E56D2420FDE4BC
:1054C300356C803AE5087009C37420956DFDE4805E
:1054D3003BE56D2420FDE4356C8058C3E56D9440B5
:1054E300E56C9401401AE508700BE56D24C0FDE5F9
:1054F3006C34FE8009E56D2440FDE56C3401803396
:10550300E5087026C37440956DFD7401956CFCE449
:10551300123AAA7B667A6679E6783F123A08123A1B
:10552300E38E6E8F6F7508018020E56D2440FDE5E5
:105533006C3401FCE4123AAA7B667A6679E6783F1A
:10554300123A08123AE38E6E8F6FAE6EAF6F22126D
:105553005CF2EF60030255F9532D03E52DC394026A
:10556300404B750801E52D5403756D00F56E756E9E
:1055730000F56DE521256EF56EE4356DF56DE56E8F
:10558300AE6D7807C333CE33CED8F9F56E8E6DE5A5
:1055930033C313F533256EF56EE4356DF56D636E28
:1055A300FF636DFFC3E56D94F040488041E4F50867
:1055B300E52D5403756D00F56E756E00F56DE521EF
:1055C300256EF56EE4356DF56DE56EAE6D7807C34A
:1055D30033CE33CED8F9F56E8E6DE533C313F53381
:1055E300256EF56EE4356DF56DC394F04005755E7B
:1055F300018003E4F55EAE6DAF6E22787FE4F6D8EA
:10560300FD7581A0025645024926E493A3F8E4936D
:10561300A34003F68001F208DFF48029E493A3F8A2
:105623005407240CC8C333C4540F4420C883400414
:10563300F456800146F6DFE4800B010204081020D3
:10564300408090530AE47E019360BCA3FF543F3033
:10565300E509541FFEE493A360010ECF54C025E077
:1056630060A840B8E493A3FAE493A3F8E493A3C82F
:10567300C582C8CAC583CAF0A3C8C582C8CAC583C0
:10568300CADFE9DEE780BE20801EE4F539F52C751C
:105693004101208403754111208503754121E544AF
:1056A300640145437069806420811F753901752C3D
:1056B300017541022084037541122085037541223F
:1056C300E544640245437047804220821F753902D6
:1056D300752C0275410420840375411420850375DC
:1056E3004124E544640445437025802020832075CC
:1056F3003903752C037541082084037541182085EF
:1057030003754128E5446408454370037547012246
:10571300E4FF125BEFEF547FF5567F01125BEF8FCF
:105723005D7F02125BEF8F5C7F03125BEFEF540729
:10573300F5517F04125BEF8F5B7F05125BEF8F6187
:105743007F06125BEF8F52E561540364017031AD44
:10575300527F2A125C2FAD617F2B125C2FAD5B7FD2
:105763002C125C2FAD517F2D125C2FAD5C7F2E125E
:105773005C2FAD5D7F2F125C2FAD567F30125C2FF7
:105783002230B21030B30D30860A308707E4F54E6D
:10579300F542805820B213E54E7009754E01E5427B
:1057A30044018044E54254FE803E20B310E54E7030
:1057B30006E54244028024E54254FD802B208610F6
:1057C300E54E7006E54244048011E54254FB80181F
:1057D300208719E54E700DE5424408F542F5427500
:1057E3004E018008E54254F7F542F542AF4222C02C
:1057F300E0C0D075D000C000C007C28E788906789B
:1058030080E66001167881E66001167889E6FF5428
:105813000770087882E6600116D200EF640F7021EA
:105823007889F67884E66001167885E66001167853
:1058330086E66001167887E66001167888E66001DF
:1058430016758D0B758BDCD28ED007D000D0D0D0DF
:10585300E0327F03125BEF8F517D407F07125C4D77
:10586300E5514408FD7F03125C4DE55120E737AD58
:10587300527F06125C4DAD617F05125C4DAD5B7FBF
:1058830004125C4DE5514408FD7F03125C4DAD5C91
:105893007F02125C4DAD5D7F01125C4DE556448085
:1058A300FDE4FF125C4D22C2D5E830E70FB2D5E428
:1058B300C39BFBE49AFAE499F9E498F8EC30E71710
:1058C300B2D51258E0123C2BE4C39BFBE49AFAE4F2
:1058D30099F9E498F88003123C2B30D50DE4C39F6B
:1058E300FFE49EFEE49DFDE49CFC22AE07125D47AF
:1058F300AF06AE07750B01E47811F6EE30E704D27C
:10590300A08002C2A0D2A1125E44C2A1125E44EEE4
:1059130025E0FE781106E6C3940840DFD2A0D2A1A9
:10592300125E4430A003E4F50BC2A1025E44AE074D
:10593300E47812F6D2A018F6D2A1125E447812E6E9
:10594300FF25E0F630A004E64401F6C2A1125E444E
:10595300781106E6C3940840DFEE24FF92A0D2A19B
:10596300125E44C2A1D2A0125E447812E6FF22AEB8
:1059730007750C01E47810F6EE30E704D2A280023A
:10598300C2A2D2A3125E4BC2A3125E4BEE25E0FE6F
:10599300781006E6C3940840DFD2A2D2A3125E4B6E
:1059A30030A203E4F50CC2A3025E4BE47811F6D2F5
:1059B300A218F6D2A3125E4B7811E6FF25E0F6306B
:1059C300A204E64401F6C2A3125E4B781006E6C3B6
:1059D300940840DFD2A2D2A3125E4BC2A3D2A2127A
:1059E3005E4B7811E6FF22AE07750D01E47810F6E1
:1059F300EE30E704D2A28002C2A2D2A4125E52C247
:105A0300A4125E52EE25E0FE781006E6C394084029
:105A1300DFD2A2D2A4125E5230A203E4F50DC2A4D7
:105A2300025E52AE07750E01E47810F6EE30E7041D
:105A3300D2A28002C2A2D2A4125E59C2A4125E599B
:105A4300EE25E0FE781006E6C3940840DFD2A2D22A
:105A5300A4125E5930A203E4F50EC2A4025E59E417
:105A63007811F6D2A218F6D296125E037811E6FFE9
:105A730025E0F630A204E64401F6C296125E0378EE
:105A83001006E6C3940840DFD2A2D296125E03C288
:105A930096D2A2125E037811E6FF22AE07750F01BC
:105AA300E47810F6EE30E704D2A28002C2A2125DBF
:105AB300FEC296125E03EE25E0FE781006E6C3945E
:105AC3000840E1125DFC30A203E4F50FC296025ECA
:105AD30003AB07AA06E509700AFC7D0A123B76AA06
