:07000000024E7C02000632F3
:10000B0002537512566BC2A2125672C296025672E8
:03001B0002506729
:1000230002562EE4F55FF560F561F562F563F56858
:10003300F569AD69AC68AF611221D3E53270030293
:100043000A26124FF98F5FE55F30E0057564018082
:1000530003E4F564E55F30E1057565018003E4F5CC
:1000630065E55F30E2057566018003E4F566E55FEB
:1000730030E3057567018003E4F567E564B40105C2
:100083000561E4F560E561D394134005E4F561F59A
:1000930032E566B401080569E56970020568E5673C
:1000A300B40108E569156970021568E561640170BA
:1000B30047E537FD7C00AF611221D3E5692537F5AC
:1000C30037E4F568F569E537C394044007E4F53789
:1000D300F568F569E5656401600302003EAD377FAD
:1000E3001212549EE4FDFC7F161221D37FC47E09B5
:1000F300125516056002003EE5616402703FE53764
:10010300C394024005056102003EE555FD7C00AF46
:10011300611221D3E5692555F555E4F568F569E5DF
:1001230055C394024007E4F555F568F569E5656440
:1001330001600302003EAD557F130206F8E56164DA
:1001430003703FE5376005056102003EE569252E32
:10015300F52EE4F568F569E52EC394064007E4F54A
:100163002EF568F569E52EFD7C00AF611221D3E51C
:10017300656401600302003EE52EFD7C007F1402EE
:100183000670E56164047056E53760050561020099
:100193003E124DD08E4D8F4EE508B40105754501D5
:1001A3008003E4F545AD4EAC4DAF611221D3E56557
:1001B3006401600302003E854D26854E27E545B464
:1001C3000106E54244018004E54254FEFD7F3212FC
:1001D300549E125512AD27AC267F16020670E561B8
:1001E30064056003020298E5376005056102003E7D
:1001F300124DD08E4D8F4EAD4EAC4DAF611221D30B
:10020300E5656401600302003E854D5A854E5BAD92
:100213005BAC5A7F181255ECE54564017020E55B31
:100223002527FFE55A3526FED3EF94CAEE94C8403E
:1002330002801FE55B2527FFE55A35268032C3E59B
:100243005B9527FFE55A9526FED3EF94CAEE94C833
:100253004014EF2436FDEE3437FC1239C98E528F29
:1002630053434210801EC3E55B9527FFE55A95264D
:10027300FEC374CA9FFD74C89EFC1239C98E528F87
:10028300535342EFAD537F3312549E125512AD4276
:100293007F320206F8E56164067058E53764016051
:1002A30005056102003E124DD08E4D8F4EE508B418
:1002B30001057545018003E4F545AD4EAC4DAF61D5
:1002C3001221D3E5656401600302003E854D4A8532
:1002D3004E4BE545B40106E54244028004E5425431
:1002E300FDFD7F3212549E125512AD4BAC4A7F1A5C
:1002F300020670E561640760030203A6E537640143
:100303006005056102003E124DD08E4D8F4EAD4EFD
:10031300AC4DAF611221D3E5656401600302003E79
:10032300854D43854E44AD44AC437F1C1255ECE5EB
:1003330045B40130E544254BFFE543354AFED3EF91
:1003430094E4EE94444009EF241CFDEE34BB804456
:10035300E544254BFFE543354AFEC374E49FFD7432
:10036300449E8030C3E544954BFFE543954AFED355
:10037300EF94E4EE94444009EF241CFDEE34BB807B
:1003830013C3E544954BFFE543954AFEC374E49FCD
:10039300FD74449EFC1239C98E3C8F3DAD3D7F34C4
:1003A3000206F8E56164087058E5376402600505E4
:1003B3006102003E124DD08E4D8F4EE508B401050B
:1003C3007545018003E4F545AD4EAC4DAF61122197
:1003D300D3E5656401600302003E854D3A854E3BDB
:1003E300E545B40106E54244048004E54254FBFDBF
:1003F3007F3212549E125512AD3BAC3A7F1E020659
:1004030070E561640960030204B0E53764026005C6
:10041300056102003E124DD08E4D8F4EAD4EAC4D58
:10042300AF611221D3E5656401600302003E854D8F
:1004330033854E34AD34AC337F201255ECE545B4EF
:10044300012EE534253BFFE533353AFED3EF940027
:10045300EE947D4008E42FFDEE34838041E534259E
:100463003BFFE533353AFEC3E49FFD747D9E802E4A
:10047300C3E534953BFFE533953AFED3EF9400EEA5
:10048300947D4008E42FFDEE34838012C3E5349558
:100493003BFFE533953AFEC3E49FFD747D9EFC125A
:1004A30039C98E2C8F2DAD2D7F350206F8E5616499
:1004B3000A7058E53764036005056102003E124D7A
:1004C300D08E4D8F4EE508B401057545018003E4D8
:1004D300F545AD4EAC4DAF611221D3E565640160C6
:1004E3000302003E854D2F854E30E545B40106E5F8
:1004F3004244088004E54254F7FD7F3212549E12B1
:100503005512AD30AC2F7F22020670E561640B609B
:10051300030205BAE53764036005056102003E1274
:100523004DD08E4D8F4EAD4EAC4DAF611221D3E504
:10053300656401600302003E854D28854E29AD297F
:10054300AC287F231255ECE545B4012EE52925306F
:10055300FFE528352FFED3EF9400EE94194008E40D
:100563002FFDEE34E78041E5292530FFE528352FBF
:10057300FEC3E49FFD74199E802EC3E5299530FFC9
:10058300E528952FFED3EF9400EE94194008E42F4D
:10059300FDEE34E78012C3E5299530FFE528952F5A
:1005A300FEC3E49FFD74199EFC1239C98E238F2468
:1005B300AD247F360206F8E561640C7056AE68AF71
:1005C30069FC7D0A1239B7EF2549F549EE3548F53F
:1005D30048E4F568F569AD49AC48AF611221D3E54C
:1005E3006664016009E5676401600302003ED3E5C8
:1005F30049940FE54894274009E4F568F569F548FF
:10060300F549E5656401600302003EAD49AC487FEE
:1006130026805AE561640D705AAE68AF69FC7D0AA5
:100623001239B7EF2547F547EE3546F546E4F56849
:10063300F569AD47AC46AF611221D3E5666401604D
:1006430009E5676401600302003ED3E547940FE5C3
:100653004694274009E4F568F569F546F547E565ED
:100663006401600302003EAD47AC467F281255EC9F
:10067300020A00E561640E60030206FEC3E56994A5
:10068300C8E56894004020E5507005755099804096
:10069300E550540F700CE55024F054F04409F55024
:1006A30080021550E48029E569640145687025E5F9
:1006B30050C3949A4005E4F5508015E550540FFF5C
:1006C300BF090AE550241054F0F55080020550E4A8
:1006D300F568F569E42550FDE43420FCAF6112218F
:1006E300D3E5656401600302003EAD507F061254FA
:1006F300BCAD507F2A12549E020A00E561640F705C
:100703007CC3E56994C8E56894004022E55CD39412
:10071300015005755C12803CE55C540F700CE55C80
:1007230024F054F04409F55C8002155C8026E569E9
:10073300640145687023E55CB41205755C0180149F
:10074300E55C540FFFBF090AE55C241054F0F55C27
:100753008002055CE4F568F569E55CFD7C00AF614A
:100763001221D3E5656401600302003EAD5C7F05A1
:100773001254BCAD5C7F2B12549E020A00E56164E7
:10078300106003020900C3E56994C8E5689400504A
:1007930003020835E556B40111E55CB4020CE550DB
:1007A300540370067556290208D8E556B40112E5BC
:1007B3005CB4020DE55054036007755628E4020843
:1007C300D8E55664017030E55C64016023E55C6440
:1007D30003601DE55C64056017E55C64076011E573
:1007E3005C6408600BE55C64106005E55CB41207AB
:1007F300755631E40208D8E556B4011EE55C64047D
:100803006011E55C6406600BE55C64096005E55C0A
:10081300B41107755630E40208D8E556540F700C2E
:10082300E55624F054F04409F55680021556E402C7
:1008330008D8E5696401456860030208DCE55CB437
:100843000212E5505403700CE556B429077556019E
:10085300E40208D8E55CB40211E5505403600BE5EB
:1008630056B42806755601E4806BE55C6401602389
:10087300E55C6403601DE55C64056017E55C640783
:100883006011E55C6408600BE55C64106005E55C81
:10089300B4120BE556B43106755601E48037E55CB6
:1008A30064046011E55C6406600BE55C6409600543
:1008B300E55CB4110BE556B43006755601E48015BA
:1008C300E556540FFFBF090AE556241054F0F556B8
:1008D30080020556E4F568F569E556FD7C00AF61D5
:1008E3001221D3E5656401600302003EAD567F0427
:1008F3001254BCAD567F2C12549E020A00E561646B
:1009030011707AC3E56994C8E56894004020E557FF
:100913007005755723803EE557540F700CE5572437
:10092300F054F04409F55780021557E48027E56930
:10093300640145687023E557B42305E4F557801532
:10094300E557540FFFBF090AE557241054F0F55734
:1009530080020557E4F568F569E557FD7C00AF6152
:100963001221D3E5656401600302003EAD577F02A7
:100973001254BCAD577F2E12549E020A00E56164E7
:10098300126003020A14C3E56994C8E56894004041
:1009930020E5587005755859803EE558540F700C82
:1009A300E55824F054F04409F55880021558E480C2
:1009B30027E569640145687023E558B45905E4F5F2
:1009C300588015E558540FFFBF090AE55824105401
:1009D300F0F55880020558E4F568F569E558FD7CA3
:1009E30000AF611221D3E5656401600302003EADEF
:1009F300587F011254BCAD587F2F12549E0560E4FA
:100A0300FDFC7F161221D37FC47E09125516020006
:100A13003EE561C39414500302003EE4F561F532F0
:100A230002003E024F088E638F64856365856466AA
:100A3300E4F509E50864017055D3E5669455E56569
:100A43009404AC63AD645023E41238FD7BA47A7044
:100A5300795D784012385BA804A905AA06AB07E4C0
:100A6300FFFE7DA07C431237638019E41238FD7BBF
:100A7300A47A70795D784012385BE4FBFA79A07848
:100A8300C31237671239368E658F66021275AC63EF
:100A9300AD64E41238FD7BA47A70795D7840123836
:100AA3005BE4FBFA79A078431237671239368E6517
:100AB3008F66D3E5649486E5639404401FE564245C
:100AC300B4FFE56334FBFE900007E0FD7C001239C0
:100AD300C9C3E5669FF566E5659EF565D3E5649450
:100AE300C4E5639409401FE564246EFFE56334F6AF
:100AF300FE900008E0FD7C001239C9C3E5669FF54E
:100B030066E5659EF565D3E5649484E563941240D8
:100B13001FE56424A4FFE56334EDFE900007E0FDC8
:100B23007C001239C9C3E5669FF566E5659EF565E8
:100B3300D3E5649402E5639417401FE564241CFF26
:100B4300E56334E9FE900009E0FD7C001239C9C376
:100B5300E5669FF566E5659EF565D3E5649472E504
:100B630063941F401FE56424ACFFE56334E0FE900B
:100B73000009E0FD7C001239C9C3E5669FF566E50F
:100B8300659EF565D3E5649430E563942A401FE5DB
:100B9300642402FFE56334D6FE900009E0FD7C0087
:100BA3001239C9C3E5669FF566E5659EF565D3E52C
:100BB300649426E5639434401FE564240CFFE563E5
:100BC30034CCFE90000AE0FD7C001239C9C3E5660F
:100BD3009FF566E5659EF565D3E564948CE56394BE
:100BE3003C401FE564247EFFE56334C3FE90000AA6
:100BF300E0FD7C001239C9C3E5669FF566E5659E95
:100C0300F565D3E56494ACE563943F401EE5642445
:100C130086FFE56334C0FE90000AE0FD7C001239D4
:100C2300C9EF2566F566EE3565F565D3E564943061
:100C3300E5639443401FE5642402FFE56334BDFE8E
:100C4300900009E0FD7C001239C9C3E5669FF56693
:100C5300E5659EF565D3E5649450E563944B401ECA
:100C6300E56424BAFFE56334B4FE90000AE0FD7C3A
:100C7300001239C9EF2566F566EE3565F565D3E5EE
:100C83006494E8E563944E401FE564244AFFE563FA
:100C930034B1FE900009E0FD7C001239C9C3E5665A
:100CA3009FF566E5659EF565D3E564948CE56394ED
:100CB3005A401FE56424B0FFE56334A5FE90000AA3
:100CC300E0FD7C001239C9C3E5669FF566E5659EC4
:100CD300F565D3E5649404E5639460401EE56424FC
:100CE30024FFE56334A0FE90000BE0FD7C00123985
:100CF300C9EF2566F566EE3565F565D3E564947051
:100D0300E5639467401FE56424B8FFE5633498FE08
:100D130090000AE0FD7C001239C9C3E5669FF566C1
:100D2300E5659EF565D3E5649478E563946E401EAE
:100D3300E56424B0FFE5633491FE90000BE0FD7C95
:100D4300001239C9EF2566F566EE3565F565D3E51D
:100D5300649436E5639474401FE56424FCFFE56303
:100D6300348BFE90000AE0FD7C001239C9C3E566AE
:100D73009FF566E5659EF565AE63AF64E4FCFD7BB8
:100D8300907A83F9F8C3123A2C502BE5642498FF28
:100D9300E563347CFEE434FFFDE434FFFCC00790DC
:100DA300000AE0FBE4FAF8D007125119EF2566F5C3
:100DB30066EE3565F565AE63AF64E4FCFD7BB07A42
:100DC30086F9F8C3123A2C502CE5642478FFE563C6
:100DD3003479FEE434FFFDE434FFFCC007900009DE
:100DE300E0FBE4FAF8D007125119C3E5669FF566F4
:100DF300E5659EF565AE63AF64E4FCFD7B807A8EAA
:100E0300F9F8C3123A2C502BE56424A8FFE56334A8
:100E130071FEE434FFFDE434FFFCC00790000BE0F7
:100E2300FBE4FAF8D007125119EF2566F566EE35A3
:100E330065F565AE63AF64E4FCFD7B447A93F9F832
:100E4300C3123A2C502CE56424EEFFE563346CFEA8
:100E5300E434FFFDE434FFFCC00790000BE0FBE447
:100E6300FAF8D007125119C3E5669FF566E5659E4A
:100E7300F565AE63AF64E4FCFD7B987A9EF9F8C335
:100E8300123A2C502BE564249AFFE5633461FEE4A7
:100E930034FFFDE434FFFCC00790000BE0FBE4FAF1
:100EA300F8D007125119EF2566F566EE3565F5653D
:100EB300AE63AF64E4FCFD7BF07AA0F9F8C3123AA9
:100EC3002C502CE5642442FFE563345FFEE434FFD9
:100ED300FDE434FFFCC00790000BE0FBE4FAF8D01C
:100EE30007125119C3E5669FF566E5659EF565AE84
:100EF30063AF64E4FCFD7B047AA6F9F8C3123A2CD1
:100F0300502BE564242EFFE563345AFEE434FFFDE1
:100F1300E434FFFCC00790000BE0FBE4FAF8D007D1
:100F2300125119EF2566F566EE3565F565AE63AFCB
:100F330064E4FCFD7BD47AADF9F8C3123A2C502C4F
:100F4300E564245EFFE5633452FEE434FFFDE434DC
:100F5300FFFCC00790000BE0FBE4FAF8D007125146
:100F630019C3E5669FF566E5659EF565AE63AF64F7
:100F7300E4FCFD7B547ABAF9F8C3123A2C502BE502
:100F83006424DEFFE5633445FEE434FFFDE434FF0F
:100F9300FCC00790000AE0FBE4FAF8D007125119ED
:100FA300EF2566F566EE3565F565AE63AF64E4FC83
:100FB300FD7B767AC0F9F8C3123A2C502CE56424F1
:100FC3009EFFE563343FFEE434FFFDE434FFFCC0E1
:100FD30007900007E0FBE4FAF8D007125119C3E5C4
:100FE300669FF566E5659EF565AE63AF64E4FCFD5B
:100FF3007B507AC3F9F8C3123A2C502BE56424C40E
:10100300FFE563343CFEE434FFFDE434FFFCC0073A
:10101300900007E0FBE4FAF8D007125119EF2566B8
:10102300F566EE3565F565AE63AF64E4FCFD7B9470
:101033007ACAF9F8C3123A2C502CE5642494FFE5DC
:10104300633435FEE434FFFDE434FFFCC007900055
:101053000BE0FBE4FAF8D007125119C3E5669FF5DC
:1010630066E5659EF565AE63AF64E4FCFD7B507A8F
:10107300CDF9F8C3123A2C502BE56424D8FFE5636D
:101083003432FEE434FFFDE434FFFCC00790000B70
:10109300E0FBE4FAF8D007125119EF2566F566EE86
:1010A3003565F565AE63AF64E4FCFD7B387AD1F951
:1010B300F8C3123A2C502CE56424F0FFE563342E78
:1010C300FEE434FFFDE434FFFCC00790000BE0FBBB
:1010D300E4FAF8D007125119C3E5669FF566E56592
:1010E3009EF565AE63AF64E4FCFD7BB07AD6F9F898
:1010F300C3123A2C502BE5642478FFE5633429FEB0
:10110300E434FFFDE434FFFCC00790000BE0FBE494
:10111300FAF8D007125119EF2566F566EE3565F535
:1011230065AE63AF64E4FCFD7B307AE3F9F8C31288
:101133003A2C502BE56424F8FFE563341CFEE434B9
:10114300FFFDE434FFFCC00790000BE0FBE4FAF87A
:10115300D007125119EF2566F566EE3565F565AED4
:1011630063AF64E4FCFD7B8C7AE6F9F8C3123A2C96
:10117300502CE5642488FFE5633419FEE434FFFD55
:10118300E434FFFCC007900009E0FBE4FAF8D00761
:10119300125119C3E5669FF566E5659EF565AE6375
:1011A300AF64E4FCFD7B9C7AEAF9F8C3123A2C5055
:1011B3002BE564248CFFE5633415FEE434FFFDE482
:1011C30034FFFCC00790000BE0FBE4FAF8D00712F1
:1011D3005119EF2566F566EE3565F565AE63AF64C7
:1011E300E4FCFD7B347AF3F9F8C3123A2C502CE576
:1011F3006424F4FFE563340CFEE434FFFDE434FFC0
:10120300FCC00790000BE0FBE4FAF8D00712511979
:10121300C3E5669FF566E5659EF565AE63AF64E479
:10122300FCFD7BFC7AF3F9F8C3123A2C502BE564EE
:10123300242CFFE563340CFEE434FFFDE434FFFCAF
:10124300C00790000AE0FBE4FAF8D007125119EF47
:101253002566F566EE3565F565AE63AF64E4FCFDC2
:101263007BB07AFA7909F8C3123A2C5005E4F56594
:10127300F566AE65AF66228E638F64E4F509E50813
:1012830064016003021320D3E5649417E5639403B8
:10129300AC63AD64504AE41238FD7BE17A7A791489
:1012A300784012385BA804A905AA06AB07E4FFFE41
:1012B3007DA07C431237631239368E658F66C37403
:1012C300E79564FFE49563FE7C007D181239C9C37A
:1012D300E5669FF566E5659EF565E4F508021A3E49
:1012E300E41238FD7BE17A7A7914784012385BE4B2
:1012F300FBFA79A078C31237671239368E658F6689
:10130300E56424E7FFE43563FE7C007D181239C9E8
:10131300EF2566F566EE3565F565021A3EAC63ADFD
:1013230064E41238FD7BE17A7A7914784012385BF1
:10133300E4FBFA79A078431237671239368E658F4A
:1013430066D3E56494F8E5639402401FE5642426BC
:10135300FFE56334FDFE90001BE0FD7C001239C9FC
:10136300C3E5669FF566E5659EF565D3E56494D0B0
:10137300E5639407401FE5642462FFE56334F8FEE8
:1013830090001DE0FD7C001239C9C3E5669FF56638
:10139300E5659EF565D3E5649460E563940C401EB2
:1013A300E56424B2FFE56334F3FE90001DE0FD7CA9
:1013B300001239C9EF2566F566EE3565F565D3E5A7
:1013C3006494DEE563940D401FE5642454FFE563F4
:1013D30034F2FE90001DE0FD7C001239C9C3E566BE
:1013E3009FF566E5659EF565D3E56494F2E5639440
:1013F30012401EE5642440FFE56334EDFE90001CBB
:10140300E0FD7C001239C9EF2566F566EE3565F51A
:1014130065D3E5649444E563941B401EE564240CA2
:10142300FFE56334E5FE90001DE0FD7C001239C941
:10143300EF2566F566EE3565F565D3E564947FE5DE
:10144300639424401FE56424FCFFE56334DBFE90D2
:10145300001EE0FD7C001239C9C3E5669FF566E511
:10146300659EF565D3E56494B4E5639428401FE570
:10147300642488FFE56334D7FE90001DE0FD7C0003
:101483001239C9C3E5669FF566E5659EF565D3E543
:101493006494FCE5639430401FE564242CFFE5630A
:1014A30034CFFE90001EE0FD7C001239C9C3E5660F
:1014B3009FF566E5659EF565D3E56494AAE56394B7
:1014C30037401FE5642488FFE56334C8FE90001F9E
:1014D300E0FD7C001239C9C3E5669FF566E5659EAC
:1014E300F565D3E56494A0E5639441401FE5642466
:1014F30092FFE56334BEFE90001FE0FD7C001239CD
:10150300C9C3E5669FF566E5659EF565D3E5649415
:101513004AE5639447401EE56424E8FFE56334B875
:10152300FE90001FE0FD7C001239C9EF2566F566C9
:10153300EE3565F565D3E56494FAE563944B401F96
:10154300E5642438FFE56334B4FE90001EE0FD7CBF
:10155300001239C9C3E5669FF566E5659EF565D357
:10156300E56494CAE5639453401FE5642468FFE58A
:101573006334ACFE90001FE0FD7C001239C9C3E563
:10158300669FF566E5659EF565D3E5649488E56336
:101593009459401EE56424C8FFE56334A6FE900019
:1015A3001EE0FD7C001239C9EF2566F566EE356550
:1015B300F565D3E5649406E5639463401FE564240D
:1015C3002CFFE563349DFE90001FE0FD7C00123983
:1015D300C9C3E5669FF566E5659EF565D3E5649445
:1015E300ECE5639468401EE5642450FFE56334979B
:1015F300FE90001EE0FD7C001239C9EF2566F566FA
:10160300EE3565F565D3E5649458E5639470401E43
:10161300E56424ACFFE5633490FE90001FE0FD7C9D
:10162300001239C9EF2566F566EE3565F565D3E534
:1016330064945CE5639476401FE5642408FFE563E6
:10164300348AFE90001FE0FD7C001239C9C3E566B1
:101653009FF566E5659EF565D3E5649476E5639449
:101663007A401EE56424EEFFE5633485FE90001D99
:10167300E0FD7C001239C9EF2566F566EE3565F5A8
:1016830065AE63AF64E4FCFD7B9E7A84F9F8C31214
:101693003A2C502BE5642494FFE563347BFEE43459
:1016A300FFFDE434FFFCC00790001FE0FBE4FAF801
:1016B300D007125119EF2566F566EE3565F565AE6F
:1016C30063AF64E4FCFD7B6E7A8CF9F8C3123A2CA9
:1016D300502BE56424C4FFE5633473FEE434FFFD5B
:1016E300E434FFFCC00790001EE0FBE4FAF8D007E7
:1016F300125119EF2566F566EE3565F565AE63AFF4
:1017030064E4FCFD7BBA7A90F9F8C3123A2C502BAF
:10171300E5642478FFE563346FFEE434FFFDE434CD
:10172300FFFCC00790001FE0FBE4FAF8D00712515A
:1017330019EF2566F566EE3565F565AE63AF64E4CE
:10174300FCFD7BEE7A98F9F8C3123A2C502BE56432
:101753002444FFE5633467FEE434FFFDE434FFFC17
:10176300C00790001FE0FBE4FAF8D007125119EF0D
:101773002566F566EE3565F565AE63AF64E4FCFD9D
:101783007B667A9EF9F8C3123A2C502BE56424CC7D
:10179300FFE5633461FEE434FFFDE434FFFCC0077E
:1017A30090001FE0FBE4FAF8D007125119EF256609
:1017B300F566EE3565F565AE63AF64E4FCFD7BA6C7
:1017C3007AA4F9F8C3123A2C502BE56424F0FFE510
:1017D30063345BFEE434FFFDE434FFFCC007900098
:1017E3001FE0FBE4FAF8D007125119EF2566F566FE
:1017F300EE3565F565AE63AF64E4FCFD7BBA7AA9AB
:10180300F9F8C3123A2C502BE5642478FFE56334CE
:1018130056FEE434FFFDE434FFFCC00790001FE0F4
:10182300FBE4FAF8D007125119EF2566F566EE3599
:1018330065F565AE63AF64E4FCFD7B967AAFF9F8BA
:10184300C3123A2C502AE42564FFE5633451FEE4C5
:1018530034FFFDE434FFFCC00790001EE0FBE4FA14
:10186300F8D007125119EF2566F566EE3565F56573
:10187300AE63AF64E4FCFD7B3A7AB6F9F8C3123A7F
:101883002C502BE56424F8FFE5633449FEE434FF70
:10189300FDE434FFFCC00790001EE0FBE4FAF8D03F
:1018A30007125119EF2566F566EE3565F565AE63EA
:1018B300AF64E4FCFD7B7A7ABCF9F8C3123A2C508E
:1018C3002BE56424B8FFE5633443FEE434FFFDE411
:1018D30034FFFCC00790001DE0FBE4FAF8D00712C8
:1018E3005119EF2566F566EE3565F565AE63AF64B0
:1018F300E4FCFD7BDA7AC5F9F8C3123A2C502BE5E8
:10190300642458FFE563343AFEE434FFFDE434FF16
:10191300FCC00790001CE0FBE4FAF8D00712511951
:10192300EF2566F566EE3565F565AE63AF64E4FCF9
:10193300FD7B467ACDF9F8C3123A2C502BE564248B
:10194300ECFFE5633432FEE434FFFDE434FFFCC016
:101953000790001CE0FBE4FAF8D007125119EF25B9
:1019630066F566EE3565F565AE63AF64E4FCFD7B55
:101973002E7AD1F9F8C3123A2C502BE5642404FFD4
:10198300E563342FFEE434FFFDE434FFFCC007902D
:10199300001EE0FBE4FAF8D007125119EF2566F5B3
:1019A30066EE3565F565AE63AF64E4FCFD7B0A7AEC
:1019B300D7F9F8C3123A2C502BE5642428FFE563CA
:1019C3003429FEE434FFFDE434FFFCC00790001C1F
:1019D300E0FBE4FAF8D007125119EF2566F566EE3D
:1019E3003565F565AE63AF64E4FCFD7B1E7ADCF917
:1019F300F8C3123A2C502BE5642414FFE563342416
:101A0300FEE434FFFDE434FFFCC00790001DE0FB5F
:101A1300E4FAF8D007125119EF2566F566EE35653D
:101A2300F565AE63AF64E4FCFD7B487AEEF9F8C379
:101A3300123A2C500674FFF565F566AE65AF662263
:101A4300E4F563F564F565F566F567F5688C698D0E
:101A53006AE50864016003021C14C3E56A940AE59D
:101A6300699400503F9056E1E493F563F564F5659E
:101A7300E537B4030A9056E4E493F565021C2FE5B9
:101A83000964016005E537B4020D9056E1E493F56E
:101A9300669056E4021C689056E4E493F56690560B
:101AA300EB021C68C3E56A940AE5699400403FE5CC
:101AB3006A9464E569940050359056E1E493F563C4
:101AC300F564F565E5376403700C9056E493F565AA
:101AD3009056EB021CE7E50964016006E5376402F2
:101AE30070069056E4021CE79056E4021D20C3E5FD
:101AF3006A9464E56994004038E56A94E8E569947A
:101B030003502E9056E1E493F563F5649056E4E4B4
:101B130093F565E53764037003021D82E5096401EB
:101B23007003021DE5E53764026003021E3D021DDA
:101B3300E5C3E56A94E8E5699403404FE56A9410C8
:101B4300E569942750459056E1E493F5639056E494
:101B5300E493F564AE69AF6A7C037DE81239C97416
:101B6300CF2FF58274563EF583E493F565E537642C
:101B7300037003021ED8E50964017003021F49E5DF
:101B83003764026003021FAE021F49C3E56A941063
:101B9300E569942750030221BEAE69AF6AE4FCFDF8
:101BA3007BA07A867901F8D3123A2C50030221BE26
:101BB3009056E4E493F563AE69AF6A7C277D101217
:101BC30039C974CF2FF58274563EF583E493F564D7
:101BD300AE69AF6A7C277D101239C97E037FE8CFD7
:101BE300CDCFCECCCE1239C974CF2FF58274563EE9
:101BF300F583E493F565E53764037003021ED8E5C6
:101C03000964016006E53764027003021F49021F7D
:101C1300AEC3E56A940AE569940050559056E1E431
:101C230093F563F564F565E537B403139056EBE478
:101C330093F5669056CFE493F567E56A0221BBE519
:101C43000964016005E537B402119056E1E493F5A8
:101C530066F567E56A9056CF0221BB9056E1E4939F
:101C6300F5669056EBE493F567E56A9056CF02214B
:101C7300BBC3E56A940AE56994005003021D56E567
:101C83006A9464E56994004003021D569056E1E4AA
:101C930093F563F564F565E537640370389056EBA7
:101CA30093F566AE69AF6A7C007D0A1239C974CFB9
:101CB3002FF58274563EF583E493F567AE69AF6AF8
:101CC3007C007D0A1239C974CF2DF58274563CF518
:101CD30083E40221BBE50964016006E53764027011
:101CE300399056E1E493F566AE69AF6A7C007D0AEC
:101CF3001239C974CF2FF58274563EF583E493F5F8
:101D030067AE69AF6A7C007D0A1239C974CF2DF5BD
:101D13008274563CF583E40221BB9056E1E493F5CB
:101D230066AE69AF6A7C007D0A1239C974EB2FF580
:101D33008274563EF583E493F567AE69AF6A7C001F
:101D43007D0A1239C974CF2DF58274563CF583E4AC
:101D53000221BBC3E56A9464E56994005003021E43
:101D630095E56A94E8E56994034003021E9590564D
:101D7300E1E493F563F564F565E53764037057AE05
:101D830069AF6AFC7D641239C974EB2FF58274560E
:101D93003EF583E493F566AE69AF6A7C007D641219
:101DA30039C97E007F0ACFCDCFCECCCE1239C974CC
:101DB300CF2FF58274563EF583E493F567AE69AF92
:101DC3006A7C007D0A1239C974CF2DF58274563CA2
:101DD300F583E40221BBE50964016006E53764028B
:101DE3007058AE69AF6A7C007D641239C974CF2F15
:101DF300F58274563EF583E493F566AE69AF6A7C6B
:101E0300007D641239C97E007F0ACFCDCFCECCCE00
:101E13001239C974CF2FF58274563EF583E493F5D6
:101E230067AE69AF6A7C007D0A1239C974CF2DF59C
:101E33008274563CF583E40221BBAE69AF6A7C0031
:101E43007D641239C974CF2FF58274563EF583E44D
:101E530093F566AE69AF6A7C007D641239C97E0072
:101E63007F0ACFCDCFCECCCE1239C974EB2FF582FA
:101E730074563EF583E493F567AE69AF6A7C007DE3
:101E83000A1239C974CF2DF58274563CF583E402E6
:101E930021BBC3E56A94E8E5699403500302201368
:101EA300E56A9410E569942740030220139056E1F4
:101EB300E493F563F564AE69AF6A7C037DE8123998
:101EC300C974CF2FF58274563EF583E493F565E527
:101ED3003764037065AE69AF6A7C037DE81239C964
:101EE3007E007F64CFCDCFCECCCE1239C974EB2F19
:101EF300F58274563EF583E493F566AE69AF6A7C6A
:101F0300007D641239C97E007F0ACFCDCFCECCCEFF
:101F13001239C974CF2FF58274563EF583E493F5D5
:101F230067AE69AF6A7C007D0A1239C974CF2DF59B
:101F33008274563CF583E40221BBE5096401600623
:101F4300E53764027065AE69AF6A7C037DE81239D8
:101F5300C97E007F64CFCDCFCECCCE1239C974CF2A
:101F63002FF58274563EF583E493F566AE69AF6A46
:101F73007C007D641239C97E007F0ACFCDCFCECCE1
:101F8300CE1239C974CF2FF58274563EF583E4938C
:101F9300F567AE69AF6A7C007D0A1239C974CF2D2B
:101FA300F58274563CF583E40221BBAE69AF6A7CCB
:101FB300037DE81239C97E007F64CFCDCFCECCCE6E
:101FC3001239C974CF2FF58274563EF583E493F525
:101FD30066AE69AF6A7C007D641239C97E007F0AF0
:101FE300CFCDCFCECCCE1239C974EB2FF582745638
:101FF3003EF583E493F567AE69AF6A7C007D0A1210
:1020030039C974CF2DF58274563CF583E40221BBA4
:10201300C3E56A9410E569942750030221BEAE69B3
:10202300AF6AE4FCFD7BA07A867901F8D3123A2CDF
:1020330050030221BE9056E1E493F563AE69AF6AA3
:102043007C277D101239C974CF2FF58274563EF563
:1020530083E493F564AE69AF6A7C277D101239C9B6
:102063007E037FE8CFCDCFCECCCE1239C974CF2F2C
:10207300F58274563EF583E493F565E537640370A2
:1020830065AE69AF6A7C037DE81239C97E007F645F
:10209300CFCDCFCECCCE1239C974EB2FF582745687
:1020A3003EF583E493F566AE69AF6A7C007D641206
:1020B30039C97E007F0ACFCDCFCECCCE1239C974B9
:1020C300CF2FF58274563EF583E493F567AE69AF7F
:1020D3006A7C007D0A1239C974CF2DF58274563C8F
:1020E300F583E40221BBE50964016006E537640278
:1020F3007064AE69AF6A7C037DE81239C97E007FE4
:1021030064CFCDCFCECCCE1239C974CF2FF5827424
:10211300563EF583E493F566AE69AF6A7C007D6451
:102123001239C97E007F0ACFCDCFCECCCE1239C9AA
:1021330074CF2FF58274563EF583E493F567AE6949
:10214300AF6A7C007D0A1239C974CF2DF5827456AB
:102153003CF583E48062AE69AF6A7C037DE81239A3
:10216300C97E007F64CFCDCFCECCCE1239C974CF18
:102173002FF58274563EF583E493F566AE69AF6A34
:102183007C007D641239C97E007F0ACFCDCFCECCCF
:10219300CE1239C974EB2FF58274563EF583E4935E
:1021A300F567AE69AF6A7C007D0A1239C974CF2D19
:1021B300F58274563CF583E493F568856679856505
:1021C3007A85647B85637CAB67AD687F01024B9D39
:1021D3008C6A8D6B8F6CAF6BAE6AE56C7028905612
:1021E300E093FFF56D9056CFE493F56E9056E1E4DE
:1021F30093F56F9056D4E493F5709056DDE493F520
:10220300718F720228A3E56C640160030222B3EFAD
:102213004E70229056E093F56D9056D0E493F56E90
:102223009056E1E493F56FF5709056E6E493F571FB
:10223300A3E493F572EF64014E70299056E093F591
:102243006D9056D0E493F56E9056E1E493F56F905C
:1022530056E8E493F5709056E6E493F5719056DCF6
:10226300E493F572EF64024E701F9056E093F56DA0
:102273009056D0E493F56E9056E1E493F56FF570C4
:10228300F5719056E5E493F572EF64034E60030233
:1022930028A39056E093F56D9056D0E493F56E9095
:1022A30056E1E493F56FF570F5719056D902279EC8
:1022B300E56C64027049EF4E701E9056E093F56D25
:1022C3009056D1E493F56E9056E1E493F56FF57073
:1022D300F5719056DB02279EEF64014E60030228DE
:1022E300A39056E093F56D9056D1E493F56E905616
:1022F300E1E493F56FF570F5719056DE02279EE5E4
:102303006C640360030223F9EF4E701B9056E09355
:10231300F56D9056D2E493F56E9056E1E493F56F24
:10232300F570757174F572EF64014E70249056E088
:1023330093F56D9056D2E493F56E9056E1E493F5E0
:102343006FF5709056EAE493F5719056E1E493F5D6
:1023530072EF64024E70249056E093F56D9056D25E
:10236300E493F56E9056E1E493F56FF5709056E6BD
:10237300E493F5719056E1E493F572EF64034E70C4
:10238300249056E093F56D9056D2E493F56E9056F3
:10239300E1E493F56FF5709056DDE493F571905693
:1023A300E1E493F572EF64044E70249056E093F5E4
:1023B3006D9056D2E493F56E9056E1E493F56FF584
:1023C300709056E8E493F5719056E1E493F572EF5B
:1023D30064054E60030228A39056E093F56D905672
:1023E300D2E493F56E9056E1E493F56FF570757151
:1023F3006DF5720228A3E56CC3940450030227A26F
:10240300E56CD3940D40030227A2856A74856B752E
:10241300E56CB404059056E6803AE56CB405059086
:1024230056E68041E56CB406059056E88026E56CD7
:10243300B407059056E8802DE56CB408059056E581
:102443008012E56CB409059056E58019E56CB40A71
:102453000C9056D9E493F56D756E5C8039E56CB4D8
:102463000B0C9056D9E493F56D756E6D8028E56C71
:10247300B40C109056D9E493F56D9056E3E493F5BC
:102483006E8013E56CB40D119056D9E493F56D90FD
:1024930056DFE493F56EE4F573C3E57494004040AE
:1024A300E575940AE574940050369056E1E493F58B
:1024B3006FF570E5737009E50970059056EB8004BC
:1024C3009056CFE493F571AE74AF757C007D0A121C
:1024D30039C974CF2DF58274563CF583E493F572B4
:1024E300C3E575940AE57494004060E5759464E56A
:1024F30074940050569056E1E493F56FF570E573CC
:102503007017E5097013AE74AF75FC7D0A1239C9F3
:1025130074EB2FF58274568012AE74AF757C007D18
:102523000A1239C974CF2FF58274563EF583E493AA
:10253300F571AE74AF757C007D0A1239C974CF2D65
:10254300F58274563CF583E493F572C3E5759464A0
:10255300E574940050030225F0E57594E8E574945E
:102563000340030225F09056E1E493F56FAE74AF98
:10257300757C007D641239C974CF2FF58274563E81
:10258300F583E493F570E5737024E5097020AE7468
:10259300AF75FC7D641239C97E007F0ACFCDCFCEE3
:1025A300CCCE1239C974EB2FF5827456801FAE74EA
:1025B300AF757C007D641239C97E007F0ACFCDCF11
:1025C300CECCCE1239C974CF2FF58274563EF58323
:1025D300E493F571AE74AF757C007D0A1239C9744A
:1025E300CF2DF58274563CF583E493F572C3E575FC
:1025F30094E8E574940350030226B1E5759410E55D
:1026030074942740030226B1AE74AF757C037DE852
:102613001239C974CF2FF58274563EF583E493F5CE
:102623006FAE74AF757C037DE81239C97E007F6499
:10263300CFCDCFCECCCE1239C974CF2FF5827456FD
:102643003EF583E493F570E5737024E5097020AEDD
:1026530074AF75FC7D641239C97E007F0ACFCDCF7C
:10266300CECCCE1239C974EB2FF5827456801FAECF
:1026730074AF757C007D641239C97E007F0ACFCDAB
:10268300CFCECCCE1239C974CF2FF58274563EF516
:1026930083E493F571AE74AF757C007D0A1239C97A
:1026A30074CF2DF58274563CF583E493F572C3E53C
:1026B300759410E574942750030228A3AE74AF7584
:1026C300E4FCFD7BA07A867901F8D3123A2C5003FF
:1026D3000228A3AE74AF757C277D101239C974CF5D
:1026E3002FF58274563EF583E493F56EAE74AF75A1
:1026F3007C277D101239C97E037FE8CFCDCFCECCA6
:10270300CE1239C974CF2FF58274563EF583E49304
:10271300F56FAE74AF757C037DE81239C97E007F17
:1027230064CFCDCFCECCCE1239C974CF2FF58274FE
:10273300563EF583E493F570E5737024E509702044
:10274300AE74AF75FC7D641239C97E007F0ACFCDAC
:10275300CFCECCCE1239C974EB2FF5827456801FBD
:10276300AE74AF757C007D641239C97E007F0ACFD9
:10277300CDCFCECCCE1239C974CF2FF58274563E4D
:10278300F583E493F571AE74AF757C007D0A12395D
:10279300C974CF2DF58274563CF583E4022887E58E
:1027A3006CC3940E5009E56C9414400302288CE525
:1027B3006CB40E05756D6E802EE56CB40F0C9056DF
:1027C300E2E493F56D9056CF8031E56CB4100C9034
:1027D30056DCE493F56D756E6E8024E56CB4110CD4
:1027E3009056DFE493F56D9056E8800FE56CB412D4
:1027F3000E9056E2E493F56D9056D0E493F56E8512
:102803006A74856B75E575540FFDE574C4F854F06F
:10281300C868F574E575C4540F48F575540FFCE5A5
:1028230074C4F854F0C868F574E575C4540F48F5DA
:1028330075540FFBE574C4F854F0C868F574E57576
:10284300C4540F48F575540FFF75730170239056E8
:10285300E193FEF56FEB70088E70EC9056CF800815
:10286300EB9056CF93F570EC93F571ED93F5728081
:102873000FEF9056CF93F56FEB93F570EC93F571E3
:10288300ED9056CF93F5728017E56CC39416401004
:10289300E4F56DF56EF56F75706E75717975726B24
:1028A300857079856F7A856E7B856D7CAB71AD7232
:1028B3007F01024B9D8E638F64856367856468E443
:1028C300F509E50864016003022C47D3E56494C26B
:1028D300E5639402AC63AD645030E41238FD7B7B56
:1028E3007A14790E784012385BA804A905AA06ABBE
:1028F30007E4FFFE7DA07C431237631239368E65F1
:102903008F66750A01E4F5088026E41238FD7BCD55
:102913007ACC790C784012385BE4FBFA79A078C35F
:102923001237671239368E658F66E4F50A7508012A
:10293300D3E566946EE56594004022E50A701EE5D2
:1029430066249CFFE56534FFFE900043E0FD7C00B8
:102953001239C9EF2566F566EE3565F565D3E5668B
:1029630094B5E56594014022E50A701EE566245C92
:10297300FFE56534FEFE900046E0FD7C001239C998
:10298300EF2566F566EE3565F565D3E5669458E59E
:102993006594024022E50A701EE56624DAFFE565C8
:1029A30034FDFE900045E0FD7C001239C9EF256639
:1029B300F566EE3565F565D3E56694DEE565940267
:1029C3004022E50A701EE566243AFFE56534FDFE04
:1029D300900044E0FD7C001239C9EF2566F566EEF0
:1029E3003565F565D3E56694C0E56594034022E556
:1029F3000A701EE566244AFFE56534FCFE90004537
:102A0300E0FD7C001239C9EF2566F566EE3565F504
:102A130065D3E566947EE56594044022E50A701E5D
:102A2300E56624B4FFE56534FBFE900044E0FD7CDD
:102A3300001239C9EF2566F566EE3565F565D3E510
:102A4300669446E56594054022E50A701EE5662412
:102A5300ECFFE56534FAFE900044E0FD7C0012399A
:102A6300C9EF2566F566EE3565F565D3E56694042D
:102A7300E56594064022E50A701EE5662410FFE52D
:102A83006534FAFE900043E0FD7C001239C9EF255E
:102A930066F566EE3565F565D3E56694F4E565940C
:102AA300064022E50A701EE566242AFFE56534F92F
:102AB300FE900044E0FD7C001239C9EF2566F566FF
:102AC300EE3565F565D3E5669476E56594074022B2
:102AD300E50A701EE5662494FFE56534F8FE900070
:102AE30044E0FD7C001239C9EF2566F566EE3565D5
:102AF300F565D3E5669448E56594084022E50A70D8
:102B03001EE56624C2FFE56534F7FE900043E0FD51
:102B13007C001239C9EF2566F566EE3565F565D398
:102B2300E56694DEE56594084022E50A701EE566D5
:102B3300242CFFE56534F7FE900043E0FD7C001292
:102B430039C9EF2566F566EE3565F565D3E5669417
:102B5300F6E56594094022E50A701EE5662428FF20
:102B6300E56534F6FE900043E0FD7C001239C9EFC1
:102B73002566F566EE3565F565D3E56694A0E565EE
:102B8300940A4022E50A701EE5662488FFE5653451
:102B9300F5FE900043E0FD7C001239C9EF2566F590
:102BA30066EE3565F565D3E566944AE565940B40B5
:102BB30022E50A701EE56624DEFFE56534F4FE9027
:102BC3000043E0FD7C001239C9EF2566F566EE355A
:102BD30065F565D3E566949AE565940B4022E50AAD
:102BE300701EE5662484FFE56534F4FE900043E03F
:102BF300FD7C001239C9EF2566F566EE3565F5658E
:102C0300D3E5669426E565940C4022E50A701EE53B
:102C13006624E4FFE56534F3FE900043E0FD7C00A9
:102C23001239C9EF2566F566EE3565F565D3E566B8
:102C330094A0E565940F5003022E23756513756602
:102C43007E022E23856765856866AC67AD68E412EE
:102C530038FD7BCD7ACC790C784012385BE4FBFAF3
:102C630079A078431237671239368E658F66D3E5BC
:102C7300669454E5659401401FE56624B6FFE56557
:102C830034FEFE900045E0FD7C001239C9C3E566C1
:102C93009FF566E5659EF565D3E566943AE565942B
:102CA30002401FE56624D0FFE56534FDFE90004435
:102CB300E0FD7C001239C9C3E5669FF566E5659EB4
:102CC300F565D3E56694ACE5659403401FE566249A
:102CD30072FFE56534FCFE900044E0FD7C00123990
:102CE300C9C3E5669FF566E5659EF565D3E566941C
:102CF30014E5659405401FE566240AFFE56534FB8A
:102D0300FE900044E0FD7C001239C9C3E5669FF5DF
:102D130066E5659EF565D3E56694B8E5659406407A
:102D23001FE566245CFFE56534F9FE900044E0FD91
:102D33007C001239C9C3E5669FF566E5659EF565B6
:102D4300D3E566947AE5659408401CE566249AFF0A
:102D5300E56534F7FE7C007D1C1239C9C3E5669F27
:102D6300F566E5659EF565D3E5669432E565940AF7
:102D7300401FE56624ECFFE56534F5FE900045E071
:102D8300FD7C001239C9C3E5669FF566E5659EF5CE
:102D930065D3E56694A4E565940B401FE56624704E
:102DA300FFE56534F4FE900045E0FD7C001239C96F
:102DB300C3E5669FF566E5659EF565D3E56694B75D
:102DC300E565940D401FE56624AEFFE56534F2FE2C
:102DD300900045E0FD7C001239C9C3E5669FF566A6
:102DE300E5659EF565D3E5669490E565940F401F10
:102DF300E56624E2FFE56534F0FE900046E0FD7CE5
:102E0300001239C9C3E5669FF566E5659EF565D38E
:102E1300E5669488E5659413400675651775666FD6
:102E2300AE65AF66228E618F62E4F509E508640141
:102E33006003022F91D3E562948AE5619401AC614A
:102E4300AD625030E41238FD7BD77AA379B0783F76
:102E530012385BA804A905AA06AB07E4FFFE7DA010
:102E63007C431237631239368E638F64750A01E42B
:102E7300F5088026E41238FD7BD77AA379B0783F32
:102E830012385BE4FBFA79A078C31237671239363C
:102E93008E638F64E4F50A7508018563658564664E
:102EA300D3E5649428E56394004022E50A701EE5A7
:102EB300642428FFE43563FE90004DE0FD7C00129E
:102EC30039C9C3E5669FF566E5659EF565D3E56497
:102ED30094B6E56394034023E50A701FE564244A2E
:102EE300FFE56334FCFE90004CE0FD7C001239C921
:102EF300C3E5669FF566E5659EF565D3E564949E37
:102F0300E56394074023E50A701FE5642462FFE547
:102F13006334F8FE90004CE0FD7C001239C9C3E530
:102F2300669FF566E5659EF565D3E5649428E563DC
:102F3300940A4023E50A701FE56424D8FFE563344F
:102F4300F5FE90004CE0FD7C001239C9C3E5669F95
:102F5300F566E5659EF565D3E5649480E563940CB9
:102F630050030232C0E50A60030232C0E5642480E4
:102F7300FFE56334F3FE90004CE0FD7C001239C999
:102F8300C3E5669FF566E5659EF5650232C0AC61F3
:102F9300AD62E41238FD7BD77AA379B0783F12385B
:102FA3005BE4FBFA79A078431237671239368E63F4
:102FB3008F64856365856466C3E5649414E56394EF
:102FC30005401DE42564FFE56334FBFE90004EE0FD
:102FD300FD7C001239C9EF2566F566EE3565F565AA
:102FE300C3E5649498E5639408401EE5642468FF90
:102FF300E56334F7FE900050E0FD7C001239C9EF21
:103003002566F566EE3565F565C3E56494B2E5635B
:10301300940C401EE564244EFFE56334F3FE9000F8
:103023004EE0FD7C001239C9EF2566F566EE356585
:10303300F565C3E5649404E5639410401EE56424D8
:10304300FCFFE56334EFFE90004EE0FD7C00123997
:10305300C9EF2566F566EE3565F565C3E5649488C5
:10306300E5639413401EE5642478FFE56334ECFEC6
:10307300900050E0FD7C001239C9EF2566F566EE3D
:103083003565F565C3E56494A8E5639416401EE5CC
:10309300642458FFE56334E9FE900050E0FD7C00B2
:1030A3001239C9EF2566F566EE3565F565C3E56347
:1030B3009419401DE42564FFE56334E7FE90004F57
:1030C300E0FD7C001239C9EF2566F566EE3565F53E
:1030D30065C3E56494A2E563941C401EE564245E25
:1030E300FFE56334E3FE90004EE0FD7C001239C936
:1030F300EF2566F566EE3565F565C3E564940EE583
:1031030063941F401EE56424F2FFE56334E0FE9000
:10311300004EE0FD7C001239C9EF2566F566EE35F9
:1031230065F565C3E56494FCE5639421401EE5649D
:103133002404FFE56334DEFE90004EE0FD7C0012C4
:1031430039C9EF2566F566EE3565F565C3E5649423
:10315300EAE5639424401EE5642416FFE56334DB4B
:10316300FE90004FE0FD7C001239C9EF2566F5663D
:10317300EE3565F565C3E56494ACE5639426401EBE
:10318300E5642454FFE56334D9FE900051E0FD7CEF
:10319300001239C9EF2566F566EE3565F565C3E5B9
:1031A300649404E5639429401EE56424FCFFE5630D
:1031B30034D6FE900050E0FD7C001239C9EF25663D
:1031C300F566EE3565F565C3E56494F4E563942926
:1031D300401EE564240CFFE56334D6FE900051E005
:1031E300FD7C001239C9EF2566F566EE3565F56598
:1031F300C3E5649488E563942C401EE5642478FF5A
:10320300E56334D3FE90004FE0FD7C001239C9EF33
:103213002566F566EE3565F565C3E5649418E563E3
:10322300942E401EE56424E8FFE56334D1FE90004C
:1032330051E0FD7C001239C9EF2566F566EE356570
:10324300F565C3E56494DAE563942F401EE56424D1
:1032530026FFE56334D0FE900051E0FD7C00123977
:10326300C9EF2566F566EE3565F565C3E56494CE6D
:10327300E5639431401EE5642432FFE56334CEFEFA
:1032830090004CE0FD7C001239C9EF2566F566EE2F
:103293003565F565C3E5649458E5639434401EE5EC
:1032A3006424A8FFE56334CBFE90004CE0FD7C0072
:1032B3001239C9EF2566F566EE3565F565AE65AF7E
:1032C30066228E638F64E4F509E50864017066D3B2
:1032D300E56494B5E5639403AC63AD645031E412E3
:1032E30038FD7BA47A70793D784012385BA804A935
:1032F30005AA06AB07E4FFFE7DA07C4312376312E9
:1033030039368E658F66750A01E4F50802375BE48A
:103313001238FD7BA47A70793D784012385BE4FB68
:10332300FA79A078C31237671239368E658F6675BE
:103333000A0102375BAC63AD64E41238FD7BA47A07
:1033430070793D784012385BE4FBFA79A078431238
:1033530037671239368E658F66D3E564941AE56351
:103363009404401FE5642418FFE56334FCFE9000D9
:1033730011E0FD7C001239C9C3E5669FF566E5657A
:103383009EF565D3E56494F1E5639409401FE56414
:10339300241EFFE56334F6FE900011E0FD7C00126D
:1033A30039C9C3E5669FF566E5659EF565D3E564B2
:1033B3009406E5639411401FE5642402FFE563343A
:1033C300EFFE900012E0FD7C001239C9C3E5669F51
:1033D300F566E5659EF565D3E5649446E563941E5D
:1033E300401EE42564FFE56334E2FE900013E0FD34
:1033F3007C001239C9C3E5669FF566E5659EF565F0
:10340300D3E564949AE5639429401FE5642452FF4D
:10341300E56334D6FE900013E0FD7C001239C9C386
:10342300E5669FF566E5659EF565D3E56494F2E58B
:1034330063942B401EE5642440FFE56334D4FE907F
:103443000013E0FD7C001239C9EF2566F566EE3501
:1034530065F565D3E5649448E563943A401FE564F4
:103463002462FFE56334C6FE900013E0FD7C001286
:1034730039C9C3E5669FF566E5659EF565D3E564E1
:10348300943CE563943C401EE56424D8FFE5633433
:10349300C3FE900012E0FD7C001239C9EF2566F5EA
:1034A30066EE3565F565D3E56494D4E563944440ED
:1034B3001FE5642440FFE56334BBFE900014E0FD88
:1034C3007C001239C9C3E5669FF566E5659EF5651F
:1034D300D3E56494BCE5639448401EE5642458FF37
:1034E300E56334B7FE900012E0FD7C001239C9EFAA
:1034F3002566F566EE3565F565D3E564948CE5637D
:103503009450401FE5642488FFE56334AFFE9000C8
:1035130013E0FD7C001239C9C3E5669FF566E565D6
:103523009EF565D3E564945CE5639458401EE564B9
:1035330024B8FFE56334A7FE900012E0FD7C00127F
:1035430039C9EF2566F566EE3565F565D3E564940F
:1035530038E563945E401FE56424DCFFE56334A132
:10356300FE900012E0FD7C001239C9C3E5669FF5A9
:1035730066E5659EF565D3E56494D0E5639466409E
:103583001EE5642444FFE5633499FE900014E0FDD6
:103593007C001239C9EF2566F566EE3565F565D30E
:1035A300E5649454E563946A401FE5642424FFE5CD
:1035B300633496FE900013E0FD7C001239C9C3E525
:1035C300669FF566E5659EF565D3E56494B4E563AA
:1035D3009473401FE5642460FFE563348CFE900020
:1035E30013E0FD7C001239C9C3E5669FF566E56506
:1035F3009EF565D3E56494DCE563947D401FE56443
:103603002438FFE5633482FE900013E0FD7C001252
:1036130039C9C3E5669FF566E5659EF565AE63AF9B
:1036230064E4FCFD7BA07A87F9F8C3123A2C502C92
:10363300E5642474FFE5633478FEE434FFFDE43489
:10364300FFFCC007900012E0FBE4FAF8D007125128
:1036530019C3E5669FF566E5659EF565AE63AF64E0
:10366300E4FCFD7BB47A8CF9F8C3123A2C502CE5B8
:10367300642460FFE5633473FEE434FFFDE434FF48
:10368300FCC007900013E0FBE4FAF8D007125119CD
:10369300C3E5669FF566E5659EF565AE63AF64E4D5
:1036A300FCFD7BDC7A96F9F8C3123A2C502CE564C6
:1036B3002438FFE5633469FEE434FFFDE434FFFCA2
:1036C300C007900013E0FBE4FAF8D007125119C3C6
:1036D300E5669FF566E5659EF565AE63AF64E4FC5C
:1036E300FD7B8C7A9BF9F8C3123A2C502CE56424A9
:1036F30088FFE5633464FEE434FFFDE434FFFCC07B
:1037030007900012E0FBE4FAF8D007125119C3E561
:10371300669FF566E5659EF565AE63AF64E4FCFD03
:103723007B2C7AABF9F8C3123A2C502CE56424E8CD
:10373300FFE5633454FEE434FFFDE434FFFCC007CB
:10374300900011E0FBE4FAF8D007125119C3E566C3
:103753009FF566E5659EF565AE65AF66220239A203
:10376300E86480F8E933E83360110460F0ED33EC8A
:10377300337009E8FCE9FDEAFEEBFF220460DED3C7
:10378300EB9FEA9EE99DE8C2E78CF0C2F795F04013
:103793000CE8CCF8E9CDF9EACEFAEBCFFB12396DA0
:1037A30085D0F05804700320D5B3E80470075002A5
:1037B300B2D50239AC92D5EC0460F7E4CCC0E0C3D7
:1037C30098F8603B94186008400DD0E0FB02398400
:1037D300E4FBFAC9FC8028E830E406E4C9FBE4CA48
:1037E300FCE830E305E4C9CACBFCE854076010F8F1
:1037F300C3E913F9EA13FAEB13FBEC13FCD8F1302A
:10380300F52FC3E49CFCEF9BFFEE9AFEED99FDD0F0
:10381300E0FBEF4E4D4C701222DB030239A9EC2C76
:10382300FCEF33FFEE33FEED33FDED30E7EB023912
:1038330084EF2BFFEE3AFEED39FDD0E0FB50130B86
:10384300BB00030239ACED13FDEE13FEEF13FFECE7
:1038530013FC0239840239ACEC5D046005E85904B9
:1038630070030239A212396D580460F6EC4860F215
:10387300EC7004FDFEFF22C860DB2481C85009C33D
:1038830098600250060239A99850CAF582E9294B7B
:103893004A7005AB8202399875F0007C1A7880C3B0
:1038A300EF9BEE9AED99400DC3EF9BFFEE9AFEED71
:1038B30099FDE842F0DC23ACF0D0E0FFD0E0FED08D
:1038C300E0FDAB8220E7101BEB60BAEC2CFCEF337E
:1038D300FFEE33FEED33FD023984E803F830E705EC
:1038E300C0F075F000EF2FFFEE33FEED33FD40B86F
:1038F30030E7C280AA75F020800E75F01080057540
:10390300F0087D007E007F003392D530D503123A54
:103913001EEC334010EF33FFEE33FEED33FDEC339B
:10392300FCD5F0ED22E5F0247EA2D513CC92E7CDB1
:10393300CEFF22EDD2E7CD33EC3392D5248140067E
:10394300E4FFFEFDFC22FCE4CFCECDCC24E05011FD
:1039530074FF80EDC3CC13CCCD13CDCE13CECF13D8
:10396300CF0470F030D5DE023A1EE9D2E7C933E85E
:1039730033F892D5EDD2E7CD33EC33FC5002B2D518
:1039830022EC30E7100FBF000C0EBE00080DBD0087
:10399300040BEB6014A2D5EB13FCED92E7FD22744C
:1039A300FFFCFDFEFF22E480F8A2D574FF13FC7D2B
:1039B30080E480EFEF8DF0A4A8F0CF8CF0A428CEA4
:1039C3008DF0A42EFE22BC000BBE0029EF8DF084E7
:1039D300FFADF022E4CCF875F008EF2FFFEE33FED5
:1039E300EC33FCEE9DEC984005FCEE9DFE0FD5F00C
:1039F300E9E4CEFD22EDF8F5F0EE8420D21CFEAD15
:103A0300F075F008EF2FFFED33FD4007985006D512
:103A1300F0F222C398FD0FD5F0EA22C3E49FFFE43E
:103A23009EFEE49DFDE49CFC22EB9FF5F0EA9E42A2
:103A3300F0E99D42F0EC6480C864809845F02275FB
:103A4300F008758200EF2FFFEE33FECD33CDCC337C
:103A5300CCC58233C5829BED9AEC99E58298400CE4
:103A6300F582EE9BFEED9AFDEC99FC0FD5F0D6E4C2
:103A7300CEFBE4CDFAE4CCF9A88222B800C1B900A8
:103A830059BA002DEC8BF084CFCECDFCE5F0CBF909
:103A93007818EF2FFFEE33FEED33FDEC33FCEB3301
:103AA300FB10D703994004EB99FB0FD8E5E4F9FA2F
:103AB300227818EF2FFFEE33FEED33FDEC33FCC914
:103AC30033C910D7059BE99A4007EC9BFCE99AF9A7
:103AD3000FD8E0E4C9FAE4CCFB2275F010EF2FFF16
:103AE300EE33FEED33FDCC33CCC833C810D7079B80
:103AF300EC9AE899400AED9BFDEC9AFCE899F80FE3
:103B0300D5F0DAE4CDFBE4CCFAE4C8F9228E638F76
:103B130064E50864017044D3E5669467E565940041
:103B23005031AC63AD64E41238FD7B487AE1790A25
:103B3300784012385BA804A905AA06AB07E4FFFE88
:103B4300FD7C421237631239368E658F66E4F508C1
:103B5300023E54E4F565F566023E54AC63AD64E49D
:103B63001238FD7B717A3D794A784012385BE4FB69
:103B7300FAF97842123767123936AB07AA068A6513
:103B83008B66C3EB9445EA9400401DEB24C5FFEA22
:103B930034FFFE900021E0FD7C001239C9C3E566C5
:103BA3009FF566E5659EF565C3EB946DEA94004069
:103BB3001DEB2493FFEA34FFFE900022E0FD7C001E
:103BC3001239C9C3E5669FF566E5659EF565C3EBE6
:103BD3009499EA9400401DEB2467FFEA34FFFE90BA
:103BE3000023E0FD7C001239C9C3E5669FF566E555
:103BF300659EF565C3EB94C7EA9400401DEB243939
:103C0300FFEA34FFFE900024E0FD7C001239C9C3B3
:103C1300E5669FF566E5659EF565C3EB9411EA9449
:103C230001401DEB24F0FFEA34FEFE900025E0FD89
:103C33007C001239C9C3E5669FF566E5659EF565A7
:103C4300C3EB947BEA9401401DEB2486FFEA34FE28
:103C5300FE900023E0FD7C001239C9C3E5669FF5A1
:103C630066E5659EF565C3EA9402401DEB2401FFFA
:103C7300EA34FEFE900026E0FD7C001239C9C3E55C
:103C8300669FF566E5659EF565C3EB94A1EA94022C
:103C9300401DEB2460FFEA34FDFE900027E0FD7C2D
:103CA300001239C9C3E5669FF566E5659EF565C3F0
:103CB300EB9460EA9403401DEB24A1FFEA34FCFE7D
:103CC300900028E0FD7C001239C9C3E5669FF566C4
:103CD300E5659EF565C3EB944AEA9404401DEB2425
:103CE300B7FFEA34FBFE900029E0FD7C001239C9DE
:103CF300C3E5669FF566E5659EF565C3EB9462EAE9
:103D03009405401DEB249FFFEA34FAFE90002AE05D
:103D1300FD7C001239C9C3E5669FF566E5659EF52E
:103D230065C3EB94A9EA9406401DEB2458FFEA34DB
:103D3300F9FE90002BE0FD7C001239C9C3E5669FB4
:103D4300F566E5659EF565C3EB94B0EA9407401DFF
:103D5300EB2451FFEA34F8FE90002DE0FD7C0012C5
:103D630039C9C3E5669FF566E5659EF565C3EB94C2
:103D7300E6EA9408401DEB241BFFEA34F7FE9000AB
:103D83002CE0FD7C001239C9C3E5669FF566E56545
:103D93009EF565C3EB9426EA940A401DEB24DBFFF2
:103DA300EA34F5FE90002DE0FD7C001239C9C3E52D
:103DB300669FF566E5659EF565C3EB949BEA940BF8
:103DC300401DEB2466FFEA34F4FE90002EE0FD7CF8
:103DD300001239C9C3E5669FF566E5659EF565C3BF
:103DE300EB9448EA940D401DEB241DFFEA34F3FEE7
:103DF30090002EE0FD7C001239C9C3E5669FF5668D
:103E0300E5659EF565C3EB9403EA940F401DEB242F
:103E1300FEFFEA34F0FE90002EE0FD7C001239C96B
:103E2300C3E5669FF566E5659EF565C3EB9456EAC3
:103E33009411401DEB24ABFFEA34EEFE90002FE01B
:103E4300FD7C001239C9C3E5669FF566E5659EF5FD
:103E530065AE65AF66228E638F64E508B40141D316
:103E6300E5649468E5639400502EAC63AD64E4129A
:103E730038FD7B487AE1790A784012385BA804A9B7
:103E830005AA06AB07E4FFFEFD7C42123763123935
:103E9300368E658F6602419AE4F565F56602419AAE
:103EA300AC63AD64E41238FD7BCD7ACC794C7840B9
:103EB30012385BE4FBFAF97842123767123936ABF2
:103EC30007AA068A658B66C3EB9432EA9400401D09
:103ED300EB24CEFFEA34FFFE900031E0FD7C0012BC
:103EE30039C9C3E5669FF566E5659EF565C3EB9441
:103EF3006DEA9400401DEB2493FFEA34FFFE90002B
:103F030030E0FD7C001239C9C3E5669FF566E565BF
:103F13009EF565C3EB94AEEA9400401DEB2452FF7B
:103F2300EA34FFFE900032E0FD7C001239C9C3E59C
:103F3300669FF566E5659EF565C3EB94F8EA940024
:103F4300401DEB2408FFEA34FFFE900033E0FD7CC4
:103F5300001239C9C3E5669FF566E5659EF565C33D
:103F6300EB9471EA9401401DEB248FFFEA34FEFECB
:103F7300900034E0FD7C001239C9C3E5669FF56605
:103F8300E5659EF565C3EB94C8EA9401401DEB24F7
:103F930038FFEA34FEFE900035E0FD7C001239C99B
:103FA300C3E5669FF566E5659EF565C3EB944FEA49
:103FB3009402401DEB24B1FFEA34FDFE900036E08D
:103FC300FD7C001239C9C3E5669FF566E5659EF57C
:103FD30065C3EB941CEA9403401DEB24E4FFEA342D
:103FE300FCFE900036E0FD7C001239C9C3E5669FF4
:103FF300F566E5659EF565C3EB94F2EA9403401D0F
:10400300EB240EFFEA34FCFE900038E0FD7C001246
:1040130039C9C3E5669FF566E5659EF565C3EB940F
:1040230026EA9405401DEB24DAFFEA34FAFE9000F9
:1040330036E0FD7C001239C9C3E5669FF566E56588
:104043009EF565C3EB9484EA9406401DEB247CFF44
:10405300EA34F9FE90003AE0FD7C001239C9C3E569
:10406300669FF566E5659EF565C3EB946DEA940876
:10407300401DEB2493FFEA34F7FE900038E0FD7C0B
:10408300001239C9C3E5669FF566E5659EF565C30C
:10409300EB946DEA9409401DEB2493FFEA34F6FE9A
:1040A30090003AE0FD7C001239C9C3E5669FF566CE
:1040B300E5659EF565C3EB9441EA940B401DEB2443
:1040C300BFFFEA34F4FE900039E0FD7C001239C9E9
:1040D300C3E5669FF566E5659EF565C3EB94C9EA9E
:1040E300940C401DEB2437FFEA34F3FE90003DE0CF
:1040F300FD7C001239C9C3E5669FF566E5659EF54B
:1041030065C3EB9485EA940E401DEB247BFFEA34F0
:10411300F1FE90003EE0FD7C001239C9C3E5669FC5
:10412300F566E5659EF565C3EB941CEA9411401DA5
:10413300EB24E4FFEA34EEFE90003EE0FD7C001247
:1041430039C9C3E5669FF566E5659EF565C3EB94DE
:10415300D6EA9413401CEB242AFFEA34ECFE9000C9
:104163003EE0FD7C001239C9EF2566F566EE356544
:10417300F565C3EB94B2EA9414401CEB244EFFEABA
:1041830034EBFE90003EE0FD7C001239C9EF25665A
:10419300F566EE3565F565AE65AF6622C28CAF890F
:1041A300EF4401F589F589758CDCE4F58AC28D75D8
:1041B300E50775E64675E6B9AFE2EF4408F5E2F5C3
:1041C300E275E50675E64675E6B9D28CA28DB34075
:1041D300FBC28DC28C75E50775E64675E6B9AFE29D
:1041E300EF4403F5E2F5E275E50675E64675E6B9D3
:1041F30075E50775E64675E6B9AFE2EF54FBF5E200
:10420300F5E275E50675E64675E6B912541AD296D7
:10421300D2A21254801253A112560E12561E1254D9
:10422300DA12552DE4FFFE125343125547E4FFFE05
:104233001253F2E4FF1255A4E4F538FF12543CEF95
:10424300644E70227F0112543CBF451A7F02125400
:104253003CBF57127F0312543CBF5A0A7F041254C7
:104263003CEF64A560297D4EE4FF12549E7D457F9B
:104273000112549E7D577F0212549E7D5A7F031272
:10428300549E7DA57F0412549E1250C4124ACF122D
:1042930055477F1212543C8F377F1312543C8F556E
:1042A3007F1412543C8F2E7F161254F68E268F27BE
:1042B3007F181254F68E5A8F5B7F1A1254F68E4A69
:1042C3008F4B7F1C1254F68E438F447F1E1254F67D
:1042D3008E3A8F3B7F201254F68E338F347F221217
:1042E30054F68E2F8F307F231254F68E288F297F1A
:1042F300261254F68E488F497F281254F68E468F25
:10430300477F2A12543C8F507F2B12543C8F5C7F83
:104313002C12543C8F567F2E12543C8F577F2F12F2
:10432300543C8F587F3012543C8F517F3212543C8F
:104333008F427F3312543C7552008F537F34125493
:104343003C753C008F3D7F3512543C752C008F2DFE
:104353007F3612543C7523008F247F3C12543C8FCC
:104363003FE42550F536E43420F5351250C4D2A984
:10437300D28CD2ABD28ED2AF753901124F08E5374A
:104383007012E54230E003754501E54230E42A75D9
:1043930022018025E537B40107E54230E11B801691
:1043A300E537B40207E54230E20F800AE537B4038C
:1043B30008E54230E303754501E52A1460151460EE
:1043C3001714601914601B146020240570EB12434A
:1043D300F280E612489080E11245C480DC12472A3D
:1043E30080D775320112002680CF1249F280CA129B
:1043F3004FF9BF0106752A040245BF7811E6600331
:1044030002454E7610124DD08E5F8F60E545B401A4
:1044130024E508B4011FC3E5609527E55F952640B1
:10442300028047C3E5279560F560E526955FF55F54
:10443300E4F5088053E545B40106E50870028009F8
:10444300E5457013E508B4010EE5272560F560E541
:1044530026355FF55F8031E545702DE5087029C38A
:10446300E5609527E55F9526400EE5609527F560A5
:10447300E55F9526F55F8010C3E5279560F560E558
:1044830026955FF55F750801E522AC52AD53AE5F2B
:10449300AF60B401101239C9C3E5609FF560E55FF1
:1044A3009EF55F800D1239C9EF2560F560EE355F2B
:1044B300F55FE559B4010674FFF55FF560E52E700D
:1044C30011AF60AE5F12127A8E618F62E555707B19
:1044D3008072E52EB40111AF60AE5F1232C58E61FA
:1044E3008F62E5557065805CE52EB40211AF60AE56
:1044F3005F1228B88E618F62E555704F8046E52EB6
:10450300B40311AF60AE5F120A298E618F62E55565
:1045130070398030E52EB40414750901AF60AE5FC5
:10452300123B108E618F62E55570208017E52EB423
:104533000519750901AF60AE5F123E598E618F6236
:10454300E5557007124C648E618F627812E670072E
:10455300124F88781276087810E670267610AD62CE
:10456300AC617F01121A43D3E5629549E561954831
:10457300400EE5629547E56195465004D2B480024A
:10458300C2B47815E67018208407AF62AE61125387
:10459300F2208507AF62AE61125343781576107827
:1045A30014E67018200109856299D2017601800A08
:1045B300E561F599C2017814763BD299AE61AF6299
:1045C30022124FF9BF0106752A040247257811E626
:1045D30060030246B27610124DD08E5F8F60E545C0
:1045E300B40124E508B4011FD3E560953BE55F956D
:1045F3003A40028047C3E53B9560F560E53A955F35
:10460300F55FE4F5088053E545B40106E50870025B
:104613008009E5457013E508B4010EE53B2560F517
:1046230060E53A355FF55F8031E545702DE508704B
:1046330029C3E560953BE55F953A400EE560953B00
:10464300F560E55F953AF55F8010C3E53B9560F54E
:1046530060E53A955FF55F750801D3E5349400E5AD
:1046630033947DAC2CAD2DAE5FAF60400F1239C9D2
:10467300EF2560F560EE355FF55F800E1239C9C333
:10468300E5609FF560E55F9EF55FAC5FAD60E412AA
:1046930038FD7BCD7ACC794C784012385B123936B1
:1046A3008E5F8F60E559B4010674FFF55FF560789E
:1046B30010E67028AD60AC5F7F01121A4378107664
:1046C30008D3E5609549E55F9548400EE560954759
:1046D300E55F95465004D2B48002C2B47815E67003
:1046E30018208407AF60AE5F1253F2208507AF60D6
:1046F300AE5F125343781576027812E67007124FB5
:1047030088781276087814E6701820010985609974
:10471300D2017601800AE55FF599C2017814763BF0
:10472300D299AE5FAF6022124FF9BF0106752A041A
:1047330002488B7811E660030248187610124DD0B8
:104743008E5F8F60E545B40124E508B4011FC3E51E
:10475300609530E55F952F40028047C3E530956053
:10476300F560E52F955FF55FE4F5088053E545B403
:104773000106E50870028009E5457013E508B401F8
:104783000EE5302560F560E52F355FF55F8031E597
:1047930045702DE5087029C3E5609530E55F952FD9
:1047A300400EE5609530F560E55F952FF55F80106D
:1047B300C3E5309560F560E52F955FF55F750801FA
:1047C300D3E5299400E5289419AC23AD24AE5FAF5B
:1047D30060400F1239C9EF2560F560EE355FF55F74
:1047E300800E1239C9C3E5609FF560E55F9EF55FF2
:1047F300AC5FAD60E41238FD7BCD7ACC794C784068
:1048030012385B1239368E5F8F60E559B401067436
:10481300FFF55FF5607810E67028AD60AC5F7F014F
:10482300121A4378107610D3E5609549E55F9548F1
:10483300400EE5609547E55F95465004D2B480028B
:10484300C2B47815E67018208407AF60AE5F1253C8
:10485300F2208507AF60AE5F125343781576027876
:1048630012E67007124F88781276087814E67018EB
:10487300200109856099D2017601800AE55FF599E7
:10488300C2017814763BD299AE5FAF6022124FF922
:10489300BF0106752A040249ED7811E66003024957
:1048A3007A7610124DD08E5F8F60E545B40124E512
:1048B30008B4011FC3E560954BE55F954A4002804C
:1048C30047C3E54B9560F560E54A955FF55FE4F511
:1048D300088053E545B40106E50870028009E54503
:1048E3007013E508B4010EE54B2560F560E54A3524
:1048F3005FF55F8031E545702DE5087029C3E560FC
:10490300954BE55F954A400EE560954BF560E55F95
:10491300954AF55F8010C3E54B9560F560E54A95D0
:104923005FF55F750801D3E54494E4E5439444AC33
:104933003CAD3DAE5FAF60400F1239C9EF2560F566
:1049430060EE355FF55F800E1239C9C3E5609FF5F0
:1049530060E55F9EF55FE559B4010674FFF55FF509
:1049630060AF60AE5F122E288E5F8F60E5557007D3
:10497300124C648E5F8F607810E67028AD60AC5F78
:104983007F01121A4378107610D3E5609549E55FED
:104993009548400EE5609547E55F95465004D2B4CF
:1049A3008002C2B47815E67018208407AF60AE5F4A
:1049B3001253F2208507AF60AE5F1253437815762A
:1049C300027812E67007124F88781276087814E698
:1049D3007018200109856099D2017601800AE55F8C
:1049E300F599C2017814763BD299AE5FAF6022127B
:1049F3004ACF1255477F1212543C8F377F131254FC
:104A03003C8F557F1412543C8F2E7F161254F68E12
:104A1300268F277F181254F68E5A8F5B7F1A1254F3
:104A2300F68E4A8F4B7F1C1254F68E438F447F229F
:104A33001254F68E2F8F307F231254F68E288F292F
:104A43007F1E1254F68E3A8F3B7F201254F68E331C
:104A53008F347F261254F68E488F497F281254F6DE
:104A63008E468F477F2A1254F68F507F2B12543C69
:104A73008F5C7F2C12543C8F567F2D12543C8F4FEA
:104A83007F2E12543C8F577F2F12543C8F587F3008
:104A930012543C8F517F3212543C8F427F33125455
:104AA3003C7552008F537F3412543C753C008F3D4C
:104AB3007F3512543C752C008F2D7F3612543C7574
:104AC30023008F247F3C12543C8F3F22124F08ADAA
:104AD300377F1212549EE4FD7F1312549EE4FD7F30
:104AE3001412549EE4FDFC7F161255EC7D787C0570
:104AF3007F181255ECE4FDFC7F1A1255EC7D527CB5
:104B0300037F1C1255ECE4FDFC7F1E1255EC7D88DF
:104B13007C137F201255EC7D287C007F221255ECFC
:104B23007DC87C007F231255ECE4FDFC7F261255E3
:104B3300EC7D887C137F281255EC7D147F2A125458
:104B43009E7D017F2B12549E7D017F2C12549E7DEE
:104B5300037F2D12549E7D127F2E12549E7D017F62
:104B63002F12549E7D017F3012549EE4FD7F32123A
:104B7300549E7D017F3312549E7D017F3412549ED7
:104B83007D017F3512549E7D017F3612549E7D3CFC
:104B93007C007F3C1255EC0250C4A9057D01AA7C20
:104BA300ED64017069C291FEC292C290E4FC125698
:104BB300ACD2921256ACC2920CBC08F20EBE02E802
:104BC300E4FEC292C290E4FCEA30E702D2901256AD
:104BD300ACD2921256ACC292C290EA25E0FA0CBC57
:104BE30008E6EE7004AA7B801ABE0104AA7A801339
:104BF300BE0204AA79800CBE0304AA038005BE0486
:104C030002AA010EBE06BBD2911256ACC291ED644C
:104C130002704DC295FEC294E4FCEA30E702D293DF
:104C23001256ACD2941256ACC294C293EA25E0FA5F
:104C33000CBC08E6EE7004AA7B801ABE0104AA7AB3
:104C43008013BE0204AA79800CBE0304AA03800564
:104C5300BE0402AA010EBE06BDD2951256ACC29581
:104C6300228E638F64E509703FC3E5649440E56376
:104C73009401401AE508700BE56424C0FDE5633434
:104C8300FE8047E5642440FDE5633401803CE5088C
:104C9300B4010BE5642440FDE5633401803BC37438
:104CA300409564FD74018051C3E5649420E56394E9
:104CB300004019E508700BE56424E0FDE56334FF6B
:104CC3008008E5642420FDE43563800DE508B40124
:104CD30021E5642420FDE43563FCE41238FD7B66A2
:104CE3007A6679E6783F12385B1239368E658F66BD
:104CF3008023C374209564FDE49563FCE41238FDBE
:104D03007B667A6679E6783F12385B1239368E65B0
:104D13008F66750801AE65AF6622014100014C0044
:104D23000159000810101004023B02141E02520025
:104D330000023C0000022C0000022300000150147A
:104D4300015C01015601014F030157120158010192
:104D53005101013201013800C102C1010108000102
:104D63000900010A004B001500243038404C5868F4
:104D730078C8FA49000C002028303470A0C8FF4AD4
:104D8300004007080A101820303840484C00000043
:104D9300102028303840606C80B4E1500020000AB5
:104DA3000E1314161B23262A343C4046506A500027
:104DB300300A0D10121C20283437393B40425A84E4
:104DC300FA48004A002C2E32363A3E4D0012556105
:104DD300EF6003024E77532B03E52BC39402404B42
:104DE300750801E52B5403756A00F56B756B00F5C7
:104DF3006AE521256BF56BE4356AF56AE56BAE6A06
:104E03007807C333CE33CED8F9F56B8E6AE531C359
:104E130013F531256BF56BE4356AF56A636BFF6354
:104E23006AFFC3E56A94F040488041E4F508E52B46
:104E33005403756A00F56B756B00F56AE521256B04
:104E4300F56BE4356AF56AE56BAE6A7807C333CE72
:104E530033CED8F9F56B8E6AE531C313F531256B83
:104E6300F56BE4356AF56AC394F040057559018022
:104E730003E4F559AE6AAF6B22787FE4F6D8FD758B
:104E8300817C024EC302419FE493A3F8E493A340C1
:104E930003F68001F208DFF48029E493A3F85407B2
:104EA300240CC8C333C4540F4420C8834004F456AD
:104EB300800146F6DFE4800B0102040810204080E5
:104EC300904D1DE47E019360BCA3FF543F30E50980
:104ED300541FFEE493A360010ECF54C025E060A8E5
:104EE30040B8E493A3FAE493A3F8E493A3C8C58278
:104EF300C8CAC583CAF0A3C8C582C8CAC583CADFE6
:104F0300E9DEE780BE20801CE4F537F52A75400111
:104F1300208403754011208503754021E542640117
:104F23007062805D20811D753701752A017540020D
:104F3300208403754012208503754022E5426402F4
:104F43007042803D20821D753702752A0275400428
:104F5300208403754014208503754024E5426404CE
:104F63007022801D20831D753703752A0375400841
:104F7300208403754018208503754028E542B40852
:104F83000375450122E4FF12545EEF547FF5517F10
:104F93000112545E8F587F0212545E8F577F0312A3
:104FA300545EEF5407F54F7F0412545E8F567F050E
:104FB30012545E8F5C7F0612545E8F50E55C54037F
:104FC30064017031AD507F2A12549EAD5C7F2B1269
:104FD300549EAD567F2C12549EAD4F7F2D12549E7E
:104FE300AD577F2E12549EAD587F2F12549EAD5154
:104FF3007F3012549E2230B21030B30D30860A3007
:105003008707E4F54CF541805820B213E54C70094D
:10501300754C01E54144018044E54154FE803E2046
:10502300B310E54C7006E54144028024E54154FD8C
:10503300802B208610E54C7006E54144048011E581
:105043004154FB8018208719E54C700DE541440855
:10505300F541F541754C018008E54154F7F541F5FB
:1050630041AF4122C0E0C0D075D000C000C007C22C
:105073008E7818067810E66001167811E66001163E
:105083007818E6FF540770087812E6600116D2001C
:10509300EF640F701B7818F67814E6600116781524
:1050A300E66001167816E66001167817E6600116C9
:1050B300758D0B758BDCD28ED007D000D0D0D0E0AD
:1050C300327F0312545E8F4F7D407F071254BCE53D
:1050D3004F4408FD7F031254BCE54F20E737AD5022
:1050E3007F061254BCAD5C7F051254BCAD567F04E1
:1050F3001254BCE54F4408FD7F031254BCAD577FE7
:10510300021254BCAD587F011254BCE5514480FDDA
:10511300E4FF1254BC22C2D5E830E70FB2D5E4C392
:105123009BFBE49AFAE499F9E498F8EC30E717B2B8
:10513300D512514F123A7EE4C39BFBE49AFAE499E9
:10514300F9E498F88003123A7E30D50DE4C39FFF4B
:10515300E49EFEE49DFDE49CFC22AE071255B6AF2F
:1051630006AE07750B01E4781CF6EE30E704D2A017
:105173008002C2A0D2A11256B3C2A11256B3EE2529
:10518300E0FE781C06E6C3940840DFD2A0D2A11249
:1051930056B330A003E4F50BC2A10256B3AE07E445
:1051A300781DF6D2A018F6D2A11256B3781DE6FFE9
:1051B30025E0F630A004E64401F6C2A11256B37806
:1051C3001C06E6C3940840DFEE24FF92A0D2A1128E
:1051D30056B3C2A1D2A01256B3781DE6FF22AE0782
:1051E300750C01E4781BF6EE30E704D2A28002C20C
:1051F300A2D2A31256BAC2A31256BAEE25E0FE7883
:105203001B06E6C3940840DFD2A2D2A31256BA30DB
:10521300A203E4F50CC2A30256BAE4781CF6D2A2A8
:1052230018F6D2A31256BA781CE6FF25E0F630A290
:1052330004E64401F6C2A31256BA781B06E6C394E9
:105243000840DFD2A2D2A31256BAC2A3D2A21256E8
:10525300BA781CE6FF22AE07750D01E4781BF6EE63
:1052630030E704D2A28002C2A2D2A41256C1C2A4C1
:105273001256C1EE25E0FE781B06E6C3940840DF14
:10528300D2A2D2A41256C130A203E4F50DC2A402E5
:1052930056C1AE07750E01E4781BF6EE30E704D273
:1052A300A28002C2A2D2A41256C8C2A41256C8EE49
:1052B30025E0FE781B06E6C3940840DFD2A2D2A401
:1052C3001256C830A203E4F50EC2A40256C8E4780D
:1052D3001CF6D2A218F6D296125672781CE6FF2557
:1052E300E0F630A204E64401F6C296125672781B29
:1052F30006E6C3940840DFD2A2D296125672C29633
:10530300D2A2125672781CE6FF22AE07750F01E493
:10531300781BF6EE30E704D2A28002C2A212566DC9
:10532300C296125672EE25E0FE781B06E6C3940879
:1053330040E112566B30A203E4F50FC29602567297
:10534300AB07AA06E509700AFC7D0A1239C9AA0649
:10535300AB07AF03AD07AF02AC0753040F1255DA27
:105363007F98125295AF04125295AF0512529502CF
:105373005698C0E0C0D075D000C000C007C28C787A
:105383001906E654077006AF99F55D8F5E758C0BB1
:10539300758ADCD28CD007D000D0D0D0E032C29155
:1053A300C295C292C290C294C2931256AC1256AC2A
:1053B3001256AC1256ACE4FFFE0FBF00010EE4B56B
:1053C30007F7EEB401F32212515DE4FF1251A08FEF
:1053D3002BE4FF1251A08F21E4FF1251A08F317FE4
:1053E300011251A08F54125684E5545480FF22E5D4
:1053F300097006FC7D0A1239C9AA07AB06EB540FE4
:1054030052031255C87F9A125259AF03125259AF21
:105413000212525902568E7593FFE4F5947580FF7C
:10542300F5917592FFF5907595047596FFF5A07546
:10543300B1ED75B21375B02C22AD0712563E7FA0A5
:105443001251E1AF051251E11255907FA11251E1C2
:1054530012521DAE0712564DAF0622AD0712565C0F
:105463007FDE12530DAF0512530D12000E7FDF12B4
:10547300530D1252D1AE071256A2AF0622D2A31277
:1054830056BA1256BA1256BAC2A2E4FFFE0FBF00B2
:10549300010EE4B507F7EEB401F322AC0712563E52
:1054A3007FA01251E1AF041251E1AF051251E11295
:1054B300564D7F647E00025579AC0712565C7FDE41
:1054C30012530DAF0412530DAF0512530D1256A212
:1054D3007F647E000255FDD2A11256B3D2A01256AC
:1054E300B31256B31256B31256B3C2A0E4FF0FBFA2
:1054F300FEFC22AC07EC04FF12543CAB07EB7B0031
:10550300FAAF0412543CEB2FFBE43AFEAF03227FC5
:10551300327E00D3EF9400EE9400400DE4FD0DBD08
:10552300FFFCEF1F70ED1E80EA2243985053C8F032
:1055330043C83075CDFF75CCD075CBFF75CADCD2AF
:10554300ACD2CA229056F3E493F55FF560FBFDF508
:1055530079F57A85607B855F7C7F01024B9DE478DA
:105563001BF61254DA7D9C7FD01256797FD11253E9
:10557300CA781BE6FF22D3EF9400EE9400400DE4BB
:10558300FD0DBDFFFCEF1F70ED1E80EA22D2A212BB
:1055930056BAD2A31256BAC2A21256BAC2A302561E
:1055A300BAEFAFA06005EF44208003EF54DFF5A00E
:1055B300F5A022D2A01256B3D2A11256B3C2A012A2
:1055C30056B3C2A122D2A21256C1D2A41256C1C24C
:1055D300A21256C1C2A422D2A21256C8D2A41256F3
:1055E300C8C2A21256C8C2A422AB05AA04A90709BD
:1055F30012549EAF01AD0202549ED3EF9400EE9479
:10560300004001EFE4FF0FBFFAFC22D28C75891131
:10561300758C0B758ADCE47818F622C28E758911B5
:10562300758D0B758BDCE47819F622309902C299DB
:10563300309807C29885993ED20232D2A21256BA46
:10564300C2A21256BAC2A30256BAC2A21256BAD202
:10565300A31256BAD2A20256BAD2A2125672C2A24A
:10566300125672C296025672D2A2125672D296E4A1
:10567300FF0FBF12FC2212515DAF05125164025697
:1056830084D2A11256B3D2A00256B3D2A41256C1E9
:10569300D2A20256C1D2A41256C8D2A20256C8C27E
:1056A300A212566DD2A2025672E4FF0FBF12FC2261
:1056B300E4FF0FBF12FC22E4FF0FBF12FC22E4FF42
:1056C3000FBF12FC22E4FF0FBF12FC223F065B4F09
:1056D300666D7D277F6F777C395E797176730037CE
:1056E30038403E785870541EBF86DBCFE6EDFDA7E9
:0F56F300FFEFF7FCB9DEF9F1F6F380C7B8C0BEE0
:00000001FF
