:07000000024F0D0200063261
:10000B000254061256FCC2A2125703C296025703A1
:03001B000250F898
:100023000256BFE4F55EF55FF560F561F562F567CD
:10003300F568AD68AC67AF60122261E53270030208
:100043000AB412508A8F5EE55E30E0057563018065
:1000530003E4F563E55E30E1057564018003E4F5CF
:1000630064E55E30E2057565018003E4F565E55EF0
:1000730030E3057566018003E4F566E563B40105C5
:100083000560E4F55FE560D394134005E4F560F59E
:1000930032E565B401080568E56870020567E56641
:1000A300B40108E568156870021567E560640170BE
:1000B30047E537FD7C00AF60122261E5682537F51F
:1000C30037E4F567F568E537C394044007E4F5378B
:1000D300F567F568E5646401600302003EAD377FB0
:1000E3001212552FE4FDFC7F161222617FC47E0994
:1000F3001255A7055F02003EE5606402703FE537D5
:10010300C394024005056002003EE554FD7C00AF48
:1001130060122261E5682554F554E4F567F568E556
:1001230054C394024007E4F554F567F568E5646445
:1001330001600302003EAD547F13020786E560644D
:1001430003703CE5376005056002003EE568252E37
:10015300F52EE4F567F568E52EC394064007E4F54C
:100163002EF567F568E52EFD7C00AF60122261E590
:10017300646401600302003EAD2E7F14020786E52E
:1001830060C394045003020648787DE670737604D6
:10019300124E61E54F25E02487F8A60608A607E579
:1001A3004FC394085004054F806A7998E7789626E0
:1001B300FF19E71836FEEF1826FFEE1836FEEF1884
:1001C30026FFEE1836FEEF1826FFEE1836FEEF1860
:1001D30026FFEE1836FEEF1826FFEE1836FEEF1850
:1001E30026FFEE1836FEEF1826FFEE1836FE7C00CB
:1001F3007D07123A577899A60608A607E4F54F80BB
:1002030013E54F25E02487F8E6FE08E6FF7899A674
:100213000608A607E56064047055E53760050560C8
:1002230002003EE508B401057545018003E4F54588
:100233007899E6FC08E6FDAF60122261E56464018B
:10024300600302003E7899E6F52608E6F527E545C2
:10025300B40106E54244018004E54254FEFD7F32C9
:1002630012552F1255A3AD27AC267F160206FEE5C5
:100273006064056003020329E53760050560020039
:100283003E7899E6FC08E6FDAF60122261E56464FE
:1002930001600302003E7899E6F55908E6F55AFD38
:1002A300AC597F1812567DE54564017020E55A2547
:1002B30027FFE5593526FED3EF94CAEE94C84002D2
:1002C300801FE55A2527FFE55935268032C3E55AB5
:1002D3009527FFE5599526FED3EF94CAEE94C840BF
:1002E30014EF2436FDEE3437FC123A578E518F52F9
:1002F300434210801EC3E55A9527FFE5599526FE14
:10030300C374CA9FFD74C89EFC123A578E518F5214
:100313005342EFAD52AC517F3412567D1255A3AD0B
:10032300427F32020786E56064067057E537640151
:100333006005056002003EE508B4010575450180CE
:1003430003E4F5457899E6FC08E6FDAF6012226107
:10035300E5646401600302003E7899E6F54A08E625
:10036300F54BE545B40106E54244028004E54254F9
:10037300FDFD7F3212552F1255A3AD4BAC4A7F1AA8
:100383000206FEE56064076003020436E537640194
:100393006005056002003E7899E6FC08E6FDAF6063
:1003A300122261E5646401600302003E7899E6F578
:1003B3004308E6F544FDAC437F1C12567DE545B486
:1003C3000130E544254BFFE543354AFED3EF94E482
:1003D300EE94444009EF241CFDEE34BB8044E54415
:1003E300254BFFE543354AFEC374E49FFD74449EE9
:1003F3008030C3E544954BFFE543954AFED3EF9424
:10040300E4EE94444009EF241CFDEE34BB8013C397
:10041300E544954BFFE543954AFEC374E49FFD74A1
:10042300449EFC123A578E3C8F3DAD3DAC3C7F362B
:100433000206FEE56064087057E53764026005054F
:100443006002003EE508B401057545018003E4F54B
:10045300457899E6FC08E6FDAF60122261E5646425
:1004630001600302003E7899E6F53A08E6F53BE5BC
:1004730045B40106E54244048004E54254FBFD7F94
:100483003212552F1255A3AD3BAC3A7F1E0206FE26
:10049300E5606409600302053FE537640260050512
:1004A3006002003E7899E6FC08E6FDAF6012226127
:1004B300E5646401600302003E7899E6F53308E6DB
:1004C300F534FDAC337F2012567DE545B4012EE5AE
:1004D30034253BFFE533353AFED3EF9400EE947DAC
:1004E3004008E42FFDEE34838041E534253BFFE5EE
:1004F30033353AFEC3E49FFD747D9E802EC3E534FD
:10050300953BFFE533953AFED3EF9400EE947D409F
:1005130008E42FFDEE34838012C3E534953BFFE5F9
:1005230033953AFEC3E49FFD747D9EFC123A578EC9
:100533002C8F2DAD2DAC2C7F380206FEE560640AAE
:100543007057E53764036005056002003EE508B4B3
:1005530001057545018003E4F5457899E6FC08E655
:10056300FDAF60122261E5646401600302003E781E
:1005730099E6F52F08E6F530E545B40106E5424472
:10058300088004E54254F7FD7F3212552F1255A31C
:10059300AD30AC2F7F220206FEE560640B600302E0
:1005A300003EE53764036005056002003E7899E686
:1005B300FC08E6FDAF60122261E56464016003029A
:1005C300003E7899E6F52808E6F529FDAC287F2357
:1005D30012567DE545B4012EE5292530FFE5283582
:1005E3002FFED3EF9400EE94194008E42FFDEE3470
:1005F300E78041E5292530FFE528352FFEC3E49F39
:10060300FD74199E802EC3E5299530FFE528952FAB
:10061300FED3EF9400EE94194008E42FFDEE34E787
:100623008012C3E5299530FFE528952FFEC3E49F8B
:10063300FD74199EFC123A578E238F24AD24AC23EC
:100643007F3A0206FEE560640C7056AE67AF68FC45
:100653007D0A123A45EF2549F549EE3548F548E458
:10066300F567F568AD49AC48AF60122261E5656492
:10067300016009E5666401600302003ED3E5499425
:100683000FE54894274009E4F567F568F548F5490F
:10069300E5646401600302003EAD49AC487F2680F7
:1006A3005AE560640D705AAE67AF68FC7D0A123A72
:1006B30045EF2547F547EE3546F546E4F567F5681A
:1006C300AD47AC46AF60122261E56564016009E5A0
:1006D300666401600302003ED3E547940FE5469448
:1006E300274009E4F567F568F546F547E5646401D5
:1006F300600302003EAD47AC467F2812567D020AD6
:100703008EE560640E600302078CC3E56894C8E558
:100713006794004020E54E7005754E998040E54E84
:10072300540F700CE54E24F054F04409F54E80024A
:10073300154EE48029E568640145677025E54EC3DD
:10074300949A4005E4F54E8015E54E540FFFBF091A
:100753000AE54E241054F0F54E8002054EE4F56789
:10076300F568E4254EFDE43420FCAF60122261E518
:10077300646401600302003EAD4E7F0612554DAD29
:100783004E7F2A12552F020A8EE560640F707CC3D8
:10079300E56894C8E56794004022E55BD394015073
:1007A30005755B12803CE55B540F700CE55B24F030
:1007B30054F04409F55B8002155B8026E56864010B
:1007C30045677023E55BB41205755B018014E55B37
:1007D300540FFFBF090AE55B241054F0F55B800258
:1007E300055BE4F567F568E55BFD7C00AF6012220D
:1007F30061E5646401600302003EAD5B7F05125551
:100803004DAD5B7F2B12552F020A8EE5606410609D
:100813000302098EC3E56894C8E567940050030298
:1008230008C3E555B40111E55BB4020CE54E54036E
:100833007006755529020966E555B40112E55BB4E6
:10084300020DE54E54036007755528E4020966E579
:100853005564017030E55B64016023E55B6403600C
:100863001DE55B64056017E55B64076011E55B6488
:1008730008600BE55B64106005E55BB41207755512
:1008830031E4020966E555B4011EE55B64046011B9
:10089300E55B6406600BE55B64096005E55BB41129
:1008A30007755530E4020966E555540F700CE5559C
:1008B30024F054F04409F55580021555E402096605
:1008C300E56864014567600302096AE55BB40212E7
:1008D300E54E5403700CE555B42907755501E40240
:1008E3000966E55BB40211E54E5403600BE555B4AC
:1008F3002806755501E4806BE55B64016023E55BC5
:100903006403601DE55B64056017E55B64076011C4
:10091300E55B6408600BE55B64106005E55BB4129E
:100923000BE555B43106755501E48037E55B640486
:100933006011E55B6406600BE55B64096005E55BDC
:10094300B4110BE555B43006755501E48015E55532
:10095300540FFFBF090AE555241054F0F5558002E2
:100963000555E4F567F568E555FD7C00AF60122297
:1009730061E5646401600302003EAD557F041255D6
:100983004DAD557F2C12552F020A8EE56064117010
:100993007AC3E56894C8E56794004020E55670057E
:1009A300755623803EE556540F700CE55624F054DB
:1009B300F04409F55680021556E48027E568640182
:1009C30045677023E556B42305E4F5568015E556CF
:1009D300540FFFBF090AE556241054F0F556800260
:1009E3000556E4F567F568E556FD7C00AF60122215
:1009F30061E5646401600302003EAD567F02125557
:100A03004DAD567F2E12552F020A8EE5606412609B
:100A130003020AA2C3E56894C8E56794004020E591
:100A2300577005755759803EE557540F700CE557BD
:100A330024F054F04409F55780021557E48027E564
:100A430068640145677023E557B45905E4F5578099
:100A530015E557540FFFBF090AE557241054F0F565
:100A63005780020557E4F567F568E557FD7C00AF4D
:100A730060122261E5646401600302003EAD577FAA
:100A83000112554DAD577F2F12552F055FE4FDFC25
:100A93007F161222617FC47E091255A702003EE52C
:100AA30060C39414500302003EE4F560F532020083
:100AB3003E024F998E628F63856264856365E4F5B8
:100AC30009E50864017055D3E5659455E56494041C
:100AD300AC62AD635023E412398B7BA47A70795DE9
:100AE30078401238E9A804A905AA06AB07E4FFFE7B
:100AF3007DA07C431237F18019E412398B7BA47AF1
:100B030070795D78401238E9E4FBFA79A078C31272
:100B130037F51239C48E648F65021303AC62AD637B
:100B2300E412398B7BA47A70795D78401238E9E45A
:100B3300FBFA79A078431237F51239C48E648F65B6
:100B4300D3E5639486E5629404401FE56324B4FF10
:100B5300E56234FBFE900007E0FD7C00123A57C3C8
:100B6300E5659FF565E5649EF564D3E56394C4E5A7
:100B7300629409401FE563246EFFE56234F6FE903C
:100B83000008E0FD7C00123A57C3E5659FF565E573
:100B9300649EF564D3E5639484E5629412401FE593
:100BA3006324A4FFE56234EDFE900007E0FD7C00C2
:100BB300123A57C3E5659FF565E5649EF564D3E591
:100BC300639402E5629417401FE563241CFFE5620A
:100BD30034E9FE900009E0FD7C00123A57C3E56555
:100BE3009FF565E5649EF564D3E5639472E56294CD
:100BF3001F401FE56324ACFFE56234E0FE9000096B
:100C0300E0FD7C00123A57C3E5659FF565E5649EF8
:100C1300F564D3E5639430E562942A401FE56324C9
:100C230002FFE56234D6FE900009E0FD7C00123A33
:100C330057C3E5659FF565E5649EF564D3E5639465
:100C430026E5629434401FE563240CFFE56234CC4F
:100C5300FE90000AE0FD7C00123A57C3E5659FF55C
:100C630065E5649EF564D3E563948CE562943C404A
:100C73001FE563247EFFE56234C3FE90000AE0FDB6
:100C83007C00123A57C3E5659FF565E5649EF564FC
:100C9300D3E56394ACE562943F401EE5632486FF8D
:100CA300E56234C0FE90000AE0FD7C00123A57EF83
:100CB3002565F565EE3564F564D3E5639430E56247
:100CC3009443401FE5632402FFE56234BDFE9000B8
:100CD30009E0FD7C00123A57C3E5659FF565E564BD
:100CE3009EF564D3E5639450E562944B401EE5633F
:100CF30024BAFFE56234B4FE90000AE0FD7C0012E2
:100D03003A57EF2565F565EE3564F564D3E56394ED
:100D1300E8E562944E401FE563244AFFE56234B17F
:100D2300FE900009E0FD7C00123A57C3E5659FF58C
:100D330065E5649EF564D3E563948CE562945A405B
:100D43001FE56324B0FFE56234A5FE90000AE0FDD1
:100D53007C00123A57C3E5659FF565E5649EF5642B
:100D6300D3E5639404E5629460401EE5632424FFA5
:100D7300E56234A0FE90000BE0FD7C00123A57EFD1
:100D83002565F565EE3564F564D3E5639470E56236
:100D93009467401FE56324B8FFE5623498FE900032
:100DA3000AE0FD7C00123A57C3E5659FF565E564EB
:100DB3009EF564D3E5639478E562946E401EE56323
:100DC30024B0FFE5623491FE90000BE0FD7C00123D
:100DD3003A57EF2565F565EE3564F564D3E563941D
:100DE30036E5629474401FE56324FCFFE562348BAF
:100DF300FE90000AE0FD7C00123A57C3E5659FF5BB
:100E030065E5649EF564AE62AF63E4FCFD7B907AB6
:100E130083F9F8C3123ABA502BE5632498FFE562CD
:100E2300347CFEE434FFFDE434FFFCC00790000A89
:100E3300E0FBE4FAF8D0071251AAEF2565F565EE59
:100E43003564F564AE62AF63E4FCFD7BB07A86F98A
:100E5300F8C3123ABA502CE5632478FFE56234797B
:100E6300FEE434FFFDE434FFFCC007900009E0FB1F
:100E7300E4FAF8D0071251AAC3E5659FF565E56466
:100E83009EF564AE62AF63E4FCFD7B807A8EF9F875
:100E9300C3123ABA502BE56324A8FFE5623471FE0E
:100EA300E434FFFDE434FFFCC00790000BE0FBE4F7
:100EB300FAF8D0071251AAEF2565F565EE3564F50A
:100EC30064AE62AF63E4FCFD7B447A93F9F8C3122A
:100ED3003ABA502CE56324EEFFE562346CFEE43449
:100EE300FFFDE434FFFCC00790000BE0FBE4FAF8DD
:100EF300D0071251AAC3E5659FF565E5649EF564C5
:100F0300AE62AF63E4FCFD7B987A9EF9F8C3123AB4
:100F1300BA502BE563249AFFE5623461FEE434FFA3
:100F2300FDE434FFFCC00790000BE0FBE4FAF8D0CB
:100F3300071251AAEF2565F565EE3564F564AE62D7
:100F4300AF63E4FCFD7BF07AA0F9F8C3123ABA5020
:100F53002CE5632442FFE562345FFEE434FFFDE4E5
:100F630034FFFCC00790000BE0FBE4FAF8D0071253
:100F730051AAC3E5659FF565E5649EF564AE62AF6E
:100F830063E4FCFD7B047AA6F9F8C3123ABA502B4A
:100F9300E563242EFFE562345AFEE434FFFDE434B6
:100FA300FFFCC00790000BE0FBE4FAF8D0071251F6
:100FB300AAEF2565F565EE3564F564AE62AF63E4CB
:100FC300FCFD7BD47AADF9F8C3123ABA502CE56331
:100FD300245EFFE5623452FEE434FFFDE434FFFC9B
:100FE300C00790000BE0FBE4FAF8D0071251AAC344
:100FF300E5659FF565E5649EF564AE62AF63E4FC69
:10100300FD7B547ABAF9F8C3123ABA502BE563243C
:10101300DEFFE5623445FEE434FFFDE434FFFCC04B
:101023000790000AE0FBE4FAF8D0071251AAEF2573
:1010330065F565EE3564F564AE62AF63E4FCFD7B94
:10104300767AC0F9F8C3123ABA502CE563249EFFAE
:10105300E562343FFEE434FFFDE434FFFCC0079057
:101063000007E0FBE4FAF8D0071251AAC3E5659F35
:10107300F565E5649EF564AE62AF63E4FCFD7B5009
:101083007AC3F9F8C3123ABA502BE56324C4FFE5D7
:1010930062343CFEE434FFFDE434FFFCC0079000FF
:1010A30007E0FBE4FAF8D0071251AAEF2565F565CE
:1010B300EE3564F564AE62AF63E4FCFD7B947ACAFB
:1010C300F9F8C3123ABA502CE5632494FFE562346D
:1010D30035FEE434FFFDE434FFFCC00790000BE071
:1010E300FBE4FAF8D0071251AAC3E5659FF565E55D
:1010F300649EF564AE62AF63E4FCFD7B507ACDF988
:10110300F8C3123ABA502BE56324D8FFE5623432B0
:10111300FEE434FFFDE434FFFCC00790000BE0FB6A
:10112300E4FAF8D0071251AAEF2565F565EE3564A8
:10113300F564AE62AF63E4FCFD7B387AD1F9F8C3A2
:10114300123ABA502CE56324F0FFE562342EFEE434
:1011530034FFFDE434FFFCC00790000BE0FBE4FA2E
:10116300F8D0071251AAC3E5659FF565E5649EF5BE
:1011730064AE62AF63E4FCFD7BB07AD6F9F8C312C8
:101183003ABA502BE5632478FFE5623429FEE43450
:10119300FFFDE434FFFCC00790000BE0FBE4FAF82A
:1011A300D0071251AAEF2565F565EE3564F564AEF7
:1011B30062AF63E4FCFD7B307AE3F9F8C3123ABA19
:1011C300502BE56324F8FFE562341CFEE434FFFD95
:1011D300E434FFFCC00790000BE0FBE4FAF8D0070F
:1011E3001251AAEF2565F565EE3564F564AE62AF7D
:1011F30063E4FCFD7B8C7AE6F9F8C3123ABA502C0F
:10120300E5632488FFE5623419FEE434FFFDE4342A
:10121300FFFCC007900009E0FBE4FAF8D007125185
:10122300AAC3E5659FF565E5649EF564AE62AF63A9
:10123300E4FCFD7B9C7AEAF9F8C3123ABA502BE539
:1012430063248CFFE5623415FEE434FFFDE434FFD0
:10125300FCC00790000BE0FBE4FAF8D0071251AA98
:10126300EF2565F565EE3564F564AE62AF63E4FCC6
:10127300FD7B347AF3F9F8C3123ABA502CE56324B0
:10128300F4FFE562340CFEE434FFFDE434FFFCC0FC
:101293000790000BE0FBE4FAF8D0071251AAC3E56C
:1012A300659FF565E5649EF564AE62AF63E4FCFD9E
:1012B3007BFC7AF3F9F8C3123ABA502BE563242C7A
:1012C300FFE562340CFEE434FFFDE434FFFCC007A9
:1012D30090000AE0FBE4FAF8D0071251AAEF256563
:1012E300F565EE3564F564AE62AF63E4FCFD7BB097
:1012F3007AFA7909F8C3123ABA5005E4F564F56548
:10130300AE64AF65228E628F63E4F509E50864017C
:1013130060030213AED3E5639417E5629403AC62F2
:10132300AD63504AE412398B7BE17A7A79147840C1
:101333001238E9A804A905AA06AB07E4FFFE7DA0BD
:101343007C431237F11239C48E648F65C374E795F9
:1013530063FFE49562FE7C007D18123A57C3E5658E
:101363009FF565E5649EF564E4F508021ACCE41282
:10137300398B7BE17A7A791478401238E9E4FBFA05
:1013830079A078C31237F51239C48E648F65E5638B
:1013930024E7FFE43562FE7C007D18123A57EF25FF
:1013A30065F565EE3564F564021ACCAC62AD63E4B1
:1013B30012398B7BE17A7A791478401238E9E4FBAD
:1013C300FA79A078431237F51239C48E648F65D346
:1013D300E56394F8E5629402401FE5632426FFE584
:1013E3006234FDFE90001BE0FD7C00123A57C3E51A
:1013F300659FF565E5649EF564D3E56394D0E56286
:101403009407401FE5632462FFE56234F8FE900011
:101413001DE0FD7C00123A57C3E5659FF565E56461
:101423009EF564D3E5639460E562940C401EE56326
:1014330024B2FFE56234F3FE90001DE0FD7C001250
:101443003A57EF2565F565EE3564F564D3E56394A6
:10145300DEE562940D401FE5632454FFE56234F238
:10146300FE90001DE0FD7C00123A57C3E5659FF531
:1014730065E5649EF564D3E56394F2E562941240F6
:101483001EE5632440FFE56234EDFE90001CE0FDA1
:101493007C00123A57EF2565F565EE3564F564D3A4
:1014A300E5639444E562941B401EE563240CFFE569
:1014B3006234E5FE90001DE0FD7C00123A57EF25F3
:1014C30065F565EE3564F564D3E563947FE5629471
:1014D30024401FE56324FCFFE56234DBFE90001E1D
:1014E300E0FD7C00123A57C3E5659FF565E5649E10
:1014F300F564D3E56394B4E5629428401FE563245F
:1015030088FFE56234D7FE90001DE0FD7C00123AAF
:1015130057C3E5659FF565E5649EF564D3E563947C
:10152300FCE5629430401FE563242CFFE56234CF71
:10153300FE90001EE0FD7C00123A57C3E5659FF55F
:1015430065E5649EF564D3E56394AAE56294374048
:101553001FE5632488FFE56234C8FE90001FE0FDA9
:101563007C00123A57C3E5659FF565E5649EF56413
:10157300D3E56394A0E5629441401FE5632492FFA1
:10158300E56234BEFE90001FE0FD7C00123A57C3B3
:10159300E5659FF565E5649EF564D3E563944AE5E7
:1015A300629447401EE56324E8FFE56234B8FE9089
:1015B300001FE0FD7C00123A57EF2565F565EE3517
:1015C30064F564D3E56394FAE562944B401FE563E5
:1015D3002438FFE56234B4FE90001EE0FD7C001267
:1015E3003A57C3E5659FF565E5649EF564D3E56306
:1015F30094CAE5629453401FE5632468FFE56234AF
:10160300ACFE90001FE0FD7C00123A57C3E5659FD6
:10161300F565E5649EF564D3E5639488E5629459C2
:10162300401EE56324C8FFE56234A6FE90001EE079
:10163300FD7C00123A57EF2565F565EE3564F564D8
:10164300D3E5639406E5629463401FE563242CFFAE
:10165300E562349DFE90001FE0FD7C00123A57C303
:10166300E5659FF565E5649EF564D3E56394ECE574
:10167300629468401EE5632450FFE5623497FE9050
:10168300001EE0FD7C00123A57EF2565F565EE3547
:1016930064F564D3E5639458E5629470401EE56392
:1016A30024ACFFE5623490FE90001FE0FD7C001245
:1016B3003A57EF2565F565EE3564F564D3E5639434
:1016C3005CE5629476401FE5632408FFE562348A93
:1016D300FE90001FE0FD7C00123A57C3E5659FF5BD
:1016E30065E5649EF564D3E5639476E562947A4098
:1016F3001EE56324EEFFE5623485FE90001DE0FDE8
:101703007C00123A57EF2565F565EE3564F564AE56
:1017130062AF63E4FCFD7B9E7A84F9F8C3123ABAA4
:10172300502BE5632494FFE562347BFEE434FFFD34
:10173300E434FFFCC00790001FE0FBE4FAF8D00795
:101743001251AAEF2565F565EE3564F564AE62AF17
:1017530063E4FCFD7B6E7A8CF9F8C3123ABA502B22
:10176300E56324C4FFE5623473FEE434FFFDE4342F
:10177300FFFCC00790001EE0FBE4FAF8D00712510B
:10178300AAEF2565F565EE3564F564AE62AF63E4F3
:10179300FCFD7BBA7A90F9F8C3123ABA502BE56391
:1017A3002478FFE562346FFEE434FFFDE434FFFC8C
:1017B300C00790001FE0FBE4FAF8D0071251AAEF2C
:1017C3002565F565EE3564F564AE62AF63E4FCFD53
:1017D3007BEE7A98F9F8C3123ABA502BE5632444A6
:1017E300FFE5623467FEE434FFFDE434FFFCC00729
:1017F30090001FE0FBE4FAF8D0071251AAEF256529
:10180300F565EE3564F564AE62AF63E4FCFD7B66BB
:101813007A9EF9F8C3123ABA502BE56324CCFFE55C
:10182300623461FEE434FFFDE434FFFCC007900042
:101833001FE0FBE4FAF8D0071251AAEF2565F5651E
:10184300EE3564F564AE62AF63E4FCFD7BA67AA477
:10185300F9F8C3123ABA502BE56324F0FFE562347A
:101863005BFEE434FFFDE434FFFCC00790001FE09F
:10187300FBE4FAF8D0071251AAEF2565F565EE35BA
:1018830064F564AE62AF63E4FCFD7BBA7AA9F9F850
:10189300C3123ABA502BE5632478FFE5623456FE4F
:1018A300E434FFFDE434FFFCC00790001FE0FBE4D9
:1018B300FAF8D0071251AAEF2565F565EE3564F500
:1018C30064AE62AF63E4FCFD7B967AAFF9F8C312B2
:1018D3003ABA502AE42563FFE5623451FEE434FF4B
:1018E300FDE434FFFCC00790001EE0FBE4FAF8D0EF
:1018F300071251AAEF2565F565EE3564F564AE620E
:10190300AF63E4FCFD7B3A7AB6F9F8C3123ABA50F6
:101913002BE56324F8FFE5623449FEE434FFFDE47C
:1019230034FFFCC00790001EE0FBE4FAF8D0071276
:1019330051AAEF2565F565EE3564F564AE62AF63D4
:10194300E4FCFD7B7A7ABCF9F8C3123ABA502BE572
:101953006324B8FFE5623443FEE434FFFDE434FF5F
:10196300FCC00790001DE0FBE4FAF8D0071251AA6F
:10197300EF2565F565EE3564F564AE62AF63E4FCAF
:10198300FD7BDA7AC5F9F8C3123ABA502BE5632422
:1019930058FFE562343AFEE434FFFDE434FFFCC053
:1019A3000790001CE0FBE4FAF8D0071251AAEF25D8
:1019B30065F565EE3564F564AE62AF63E4FCFD7B0B
:1019C300467ACDF9F8C3123ABA502BE56324ECFFFB
:1019D300E5623432FEE434FFFDE434FFFCC00790DB
:1019E300001CE0FBE4FAF8D0071251AAEF2565F5D5
:1019F30065EE3564F564AE62AF63E4FCFD7B2E7A7D
:101A0300D1F9F8C3123ABA502BE5632404FFE56217
:101A1300342FFEE434FFFDE434FFFCC00790001EC6
:101A2300E0FBE4FAF8D0071251AAEF2565F565EE5D
:101A33003564F564AE62AF63E4FCFD7B0A7AD7F9E3
:101A4300F8C3123ABA502BE5632428FFE562342920
:101A5300FEE434FFFDE434FFFCC00790001CE0FB10
:101A6300E4FAF8D0071251AAEF2565F565EE35645F
:101A7300F564AE62AF63E4FCFD7B1E7ADCF9F8C368
:101A8300123ABA502BE5632414FFE5623424FEE4D2
:101A930034FFFDE434FFFCC00790001DE0FBE4FAD3
:101AA300F8D0071251AAEF2565F565EE3564F564A4
:101AB300AE62AF63E4FCFD7B487AEEF9F8C3123AF9
:101AC300BA500674FFF564F565AE64AF6522E4F5BC
:101AD30062F563F564F565F566F5678C688D69E510
:101AE3000864016003021CA2C3E569940AE56894D3
:101AF30000503F905772E493F562F563F564E53760
:101B0300B4030A905775E493F564021CBDE50964B8
:101B1300016005E537B4020D905772E493F56590C3
:101B23005775021CF6905775E493F56590577C0240
:101B33001CF6C3E569940AE5689400403FE569949F
:101B430064E56894005035905772E493F562F56349
:101B5300F564E5376403700C90577593F5649057FB
:101B63007C021D75E50964016006E53764027006B1
:101B7300905775021D75905775021DAEC3E56994A4
:101B830064E56894004038E56994E8E56894035097
:101B93002E905772E493F562F563905775E493F5CD
:101BA30064E53764037003021E10E50964017003E2
:101BB300021E73E53764026003021ECB021E73C369
:101BC300E56994E8E5689403404FE5699410E56896
:101BD30094275045905772E493F562905775E493B8
:101BE300F563AE68AF697C037DE8123A5774602FE2
:101BF300F58274573EF583E493F564E53764037027
:101C030003021F66E50964017003021FD7E5376409
:101C130002600302203C021FD7C3E5699410E56804
:101C23009427500302224CAE68AF69E4FCFD7BA00D
:101C33007A867901F8D3123ABA500302224C9057AC
:101C430075E493F562AE68AF697C277D10123A574D
:101C530074602FF58274573EF583E493F563AE68A1
:101C6300AF697C277D10123A577E037FE8CFCDCF33
:101C7300CECCCE123A5774602FF58274573EF5835B
:101C8300E493F564E53764037003021F66E50964B2
:101C9300016006E53764027003021FD702203CC3CC
:101CA300E569940AE56894005055905772E493F5FA
:101CB30062F563F564E537B4031390577CE493F559
:101CC30065905760E493F566E569022249E5096486
:101CD300016005E537B40211905772E493F565F599
:101CE30066E569905760022249905772E493F5655F
:101CF30090577CE493F566E569905760022249C3E7
:101D0300E569940AE56894005003021DE4E56994CB
:101D130064E56894004003021DE4905772E493F570
:101D230062F563F564E5376403703890577C93F587
:101D330065AE68AF697C007D0A123A5774602FF56F
:101D43008274573EF583E493F566AE68AF697C0011
:101D53007D0A123A5774602DF58274573CF583E47B
:101D6300022249E50964016006E53764027039908F
:101D73005772E493F565AE68AF697C007D0A123A49
:101D83005774602FF58274573EF583E493F566AE7E
:101D930068AF697C007D0A123A5774602DF582742E
:101DA300573CF583E4022249905772E493F565AEFC
:101DB30068AF697C007D0A123A57747C2FF58274F0
:101DC300573EF583E493F566AE68AF697C007D0A00
:101DD300123A5774602DF58274573CF583E402225E
:101DE30049C3E5699464E56894005003021F23E541
:101DF3006994E8E56894034003021F23905772E453
:101E030093F562F563F564E53764037057AE68AF25
:101E130069FC7D64123A57747C2FF58274573EF542
:101E230083E493F565AE68AF697C007D64123A572D
:101E33007E007F0ACFCDCFCECCCE123A5774602F1F
:101E4300F58274573EF583E493F566AE68AF697C1B
:101E5300007D0A123A5774602DF58274573CF5835E
:101E6300E4022249E50964016006E537640270581B
:101E7300AE68AF697C007D64123A5774602FF582B7
:101E830074573EF583E493F565AE68AF697C007DD6
:101E930064123A577E007F0ACFCDCFCECCCE123A12
:101EA3005774602FF58274573EF583E493F566AE5D
:101EB30068AF697C007D0A123A5774602DF582740D
:101EC300573CF583E4022249AE68AF697C007D6428
:101ED300123A5774602FF58274573EF583E493F5F5
:101EE30065AE68AF697C007D64123A577E007F0A55
:101EF300CFCDCFCECCCE123A57747C2FF582745708
:101F03003EF583E493F566AE68AF697C007D0A1203
:101F13003A5774602DF58274573CF583E4022249E5
:101F2300C3E56994E8E568940350030220A1E569D9
:101F33009410E568942740030220A1905772E4931C
:101F4300F562F563AE68AF697C037DE8123A5774B6
:101F5300602FF58274573EF583E493F564E53764A7
:101F6300037065AE68AF697C037DE8123A577E0063
:101F73007F64CFCDCFCECCCE123A57747C2FF5826F
:101F830074573EF583E493F565AE68AF697C007DD5
:101F930064123A577E007F0ACFCDCFCECCCE123A11
:101FA3005774602FF58274573EF583E493F566AE5C
:101FB30068AF697C007D0A123A5774602DF582740C
:101FC300573CF583E4022249E50964016006E537DD
:101FD30064027065AE68AF697C037DE8123A577E90
:101FE300007F64CFCDCFCECCCE123A5774602FF59D
:101FF3008274573EF583E493F565AE68AF697C0060
:102003007D64123A577E007F0ACFCDCFCECCCE125D
:102013003A5774602FF58274573EF583E493F5665F
:10202300AE68AF697C007D0A123A5774602DF58261
:1020330074573CF583E4022249AE68AF697C037DA3
:10204300E8123A577E007F64CFCDCFCECCCE123A82
:102053005774602FF58274573EF583E493F565AEAC
:1020630068AF697C007D64123A577E007F0ACFCD4A
:10207300CFCECCCE123A57747C2FF58274573EF5EF
:1020830083E493F566AE68AF697C007D0A123A5724
:1020930074602DF58274573CF583E4022249C3E54D
:1020A300699410E5689427500302224CAE68AF6927
:1020B300E4FCFD7BA07A867901F8D3123ABA500387
:1020C30002224C905772E493F562AE68AF697C27A5
:1020D3007D10123A5774602FF58274573EF583E4EE
:1020E30093F563AE68AF697C277D10123A577E0380
:1020F3007FE8CFCDCFCECCCE123A5774602FF58286
:1021030074573EF583E493F564E53764037065AE75
:1021130068AF697C037DE8123A577E007F64CFCDB8
:10212300CFCECCCE123A57747C2FF58274573EF53E
:1021330083E493F565AE68AF697C007D64123A571A
:102143007E007F0ACFCDCFCECCCE123A5774602F0C
:10215300F58274573EF583E493F566AE68AF697C08
:10216300007D0A123A5774602DF58274573CF5834B
:10217300E4022249E50964016006E53764027064FC
:10218300AE68AF697C037DE8123A577E007F64CF67
:10219300CDCFCECCCE123A5774602FF58274573E12
:1021A300F583E493F565AE68AF697C007D64123A0C
:1021B300577E007F0ACFCDCFCECCCE123A57746074
:1021C3002FF58274573EF583E493F566AE68AF69E5
:1021D3007C007D0A123A5774602DF58274573CF5E2
:1021E30083E48062AE68AF697C037DE8123A577E70
:1021F300007F64CFCDCFCECCCE123A5774602FF58B
:102203008274573EF583E493F565AE68AF697C004D
:102213007D64123A577E007F0ACFCDCFCECCCE124B
:102223003A57747C2FF58274573EF583E493F56631
:10223300AE68AF697C007D0A123A5774602DF5824F
:1022430074573CF583E493F56785657885647985F0
:10225300637A85627BAB66AD677F01024C2B8C6929
:102263008D6A8F6BAF6AAE69E56B70289057719377
:10227300FFF56C905760E493F56D905772E493F516
:102283006E905765E493F56F90576EE493F5708FF6
:1022930071022931E56B64016003022341EF4E7043
:1022A3002290577193F56C905761E493F56D9057B5
:1022B30072E493F56EF56F905777E493F570A3E4AA
:1022C30093F571EF64014E702990577193F56C90FB
:1022D3005761E493F56D905772E493F56E905779D7
:1022E300E493F56F905777E493F57090576DE4930B
:1022F300F571EF64024E701F90577193F56C905710
:1023030061E493F56D905772E493F56EF56FF57094
:10231300905776E493F571EF64034E60030229311D
:1023230090577193F56C905761E493F56D905772E4
:10233300E493F56EF56FF57090576A02282CE56B00
:1023430064027049EF4E701E90577193F56C90576D
:1023530062E493F56D905772E493F56EF56FF57043
:1023630090576C02282CEF64014E600302293190D0
:10237300577193F56C905762E493F56D905772E43F
:1023830093F56EF56FF57090576F02282CE56B642B
:10239300036003022487EF4E701B90577193F56C13
:1023A300905763E493F56D905772E493F56EF56F70
:1023B300757074F571EF64014E702490577193F545
:1023C3006C905763E493F56D905772E493F56EF553
:1023D3006F90577BE493F570905772E493F571EF28
:1023E30064024E702490577193F56C905763E49395
:1023F300F56D905772E493F56EF56F905777E4930C
:10240300F570905772E493F571EF64034E70249066
:10241300577193F56C905763E493F56D905772E49D
:1024230093F56EF56F90576EE493F570905772E4E1
:1024330093F571EF64044E702490577193F56C908B
:102443005763E493F56D905772E493F56EF56F90CF
:102453005779E493F570905772E493F571EF64053F
:102463004E600302293190577193F56C905763E4E2
:1024730093F56D905772E493F56EF56F75706DF586
:1024830071022931E56BC394045003022830E56BD4
:10249300D3940D4003022830856973856A74E56B14
:1024A300B40405905777803AE56BB40505905777E8
:1024B3008041E56BB406059057798026E56BB40738
:1024C30005905779802DE56BB408059057768012F7
:1024D300E56BB409059057768019E56BB40A0C9047
:1024E300576AE493F56C756D5C8039E56BB40B0C3E
:1024F30090576AE493F56C756D6D8028E56BB40CA9
:102503001090576AE493F56C905774E493F56D80DB
:1025130013E56BB40D1190576AE493F56C90577003
:10252300E493F56DE4F572C3E57394004040E574FC
:10253300940AE57394005036905772E493F56EF560
:102543006FE5727009E509700590577C8004905718
:1025530060E493F570AE73AF747C007D0A123A5752
:1025630074602DF58274573CF583E493F571C3E5EC
:1025730074940AE57394004060E5749464E573947D
:10258300005056905772E493F56EF56FE57270172D
:10259300E5097013AE73AF74FC7D0A123A57747C6D
:1025A3002FF58274578012AE73AF747C007D0A12CC
:1025B3003A5774602FF58274573EF583E493F570B0
:1025C300AE73AF747C007D0A123A5774602DF582A6
:1025D30074573CF583E493F571C3E5749464E57330
:1025E3009400500302267EE57494E8E57394034057
:1025F3000302267E905772E493F56EAE73AF747C3C
:10260300007D64123A5774602FF58274573EF58348
:10261300E493F56FE5727024E5097020AE73AF742F
:10262300FC7D64123A577E007F0ACFCDCFCECCCE4D
:10263300123A57747C2FF5827457801FAE73AF74B0
:102643007C007D64123A577E007F0ACFCDCFCECC7B
:10265300CE123A5774602FF58274573EF583E49394
:10266300F570AE73AF747C007D0A123A5774602D17
:10267300F58274573CF583E493F571C3E57494E8EC
:10268300E5739403500302273FE5749410E57394B4
:1026930027400302273FAE73AF747C037DE8123AF1
:1026A3005774602FF58274573EF583E493F56EAE4D
:1026B30073AF747C037DE8123A577E007F64CFCDFD
:1026C300CFCECCCE123A5774602FF58274573EF5B5
:1026D30083E493F56FE5727024E5097020AE73AF60
:1026E30074FC7D64123A577E007F0ACFCDCFCECCE7
:1026F300CE123A57747C2FF5827457801FAE73AF96
:10270300747C007D64123A577E007F0ACFCDCFCE12
:10271300CCCE123A5774602FF58274573EF583E49A
:1027230093F570AE73AF747C007D0A123A577460F0
:102733002DF58274573CF583E493F571C3E57494E6
:1027430010E57394275003022931AE73AF74E4FC90
:10275300FD7BA07A867901F8D3123ABA5003022995
:1027630031AE73AF747C277D10123A5774602FF526
:102773008274573EF583E493F56DAE73AF747C2793
:102783007D10123A577E037FE8CFCDCFCECCCE1249
:102793003A5774602FF58274573EF583E493F56ED0
:1027A300AE73AF747C037DE8123A577E007F64CF2B
:1027B300CDCFCECCCE123A5774602FF58274573EEC
:1027C300F583E493F56FE5727024E5097020AE7329
:1027D300AF74FC7D64123A577E007F0ACFCDCFCE13
:1027E300CCCE123A57747C2FF5827457801FAE7388
:1027F300AF747C007D64123A577E007F0ACFCDCF41
:10280300CECCCE123A5774602FF58274573EF583BF
:10281300E493F570AE73AF747C007D0A123A57747B
:10282300602DF58274573CF583E4022915E56BC3EB
:10283300940E5009E56B9414400302291AE56BB416
:102843000E05756C6E802EE56BB40F0C905773E418
:1028530093F56C9057608031E56BB4100C90576D15
:10286300E493F56C756D6E8024E56BB4110C905791
:1028730070E493F56C905779800FE56BB4120E906A
:102883005773E493F56C905761E493F56D85697321
:10289300856A74E574540FFDE573C4F854F0C86891
:1028A300F573E574C4540F48F574540FFCE573C411
:1028B300F854F0C868F573E574C4540F48F57454BC
:1028C3000FFBE573C4F854F0C868F573E574C4549A
:1028D3000F48F574540FFF7572017023905772936C
:1028E300FEF56EEB70088E6FEC9057608008EB90EE
:1028F300576093F56FEC93F570ED93F571800FEFDF
:1029030090576093F56EEB93F56FEC93F570ED9044
:10291300576093F5718017E56BC394164010E4F587
:102923006CF56DF56E756F6E75707975716B856F7E
:1029330078856E79856D7A856C7BAB70AD717F011F
:10294300024C2B8E628F63856266856367E4F509AB
:10295300E50864016003022CD5D3E56394C2E56204
:102963009402AC62AD635030E412398B7B7B7A14F2
:10297300790E78401238E9A804A905AA06AB07E442
:10298300FFFE7DA07C431237F11239C48E648F653C
:10299300750A01E4F5088026E412398B7BCD7ACCE5
:1029A300790C78401238E9E4FBFA79A078C312373E
:1029B300F51239C48E648F65E4F50A750801D3E511
:1029C30065946EE56494004022E50A701EE5652473
:1029D3009CFFE56434FFFE900043E0FD7C00123A67
:1029E30057EF2565F565EE3564F564D3E56594B574
:1029F300E56494014022E50A701EE565245CFFE569
:102A03006434FEFE900046E0FD7C00123A57EF2549
:102A130065F565EE3564F564D3E5659458E564942E
:102A2300024022E50A701EE56524DAFFE56434FD01
:102A3300FE900045E0FD7C00123A57EF2565F565F1
:102A4300EE3564F564D3E56594DEE56494024022D3
:102A5300E50A701EE565243AFFE56434FDFE900047
:102A630044E0FD7C00123A57EF2565F565EE3564C9
:102A7300F564D3E56594C0E56494034022E50A70E8
:102A83001EE565244AFFE56434FCFE900045E0FD45
:102A93007C00123A57EF2565F565EE3564F564D38E
:102AA300E565947EE56494044022E50A701EE565BD
:102AB30024B4FFE56434FBFE900044E0FD7C001287
:102AC3003A57EF2565F565EE3564F564D3E565940E
:102AD30046E56494054022E50A701EE56524ECFF93
:102AE300E56434FAFE900044E0FD7C00123A57EFAF
:102AF3002565F565EE3564F564D3E5659404E56411
:102B030094064022E50A701EE5652410FFE564344F
:102B1300FAFE900043E0FD7C00123A57EF2565F57D
:102B230065EE3564F564D3E56594F4E56494064095
:102B330022E50A701EE565242AFFE56434F9FE9058
:102B43000044E0FD7C00123A57EF2565F565EE354C
:102B530064F564D3E5659476E56494074022E50A59
:102B6300701EE5652494FFE56434F8FE900044E0AC
:102B7300FD7C00123A57EF2565F565EE3564F56483
:102B8300D3E5659448E56494084022E50A701EE5A0
:102B93006524C2FFE56434F7FE900043E0FD7C004A
:102BA300123A57EF2565F565EE3564F564D3E565AF
:102BB30094DEE56494084022E50A701EE565242C42
:102BC300FFE56434F7FE900043E0FD7C00123A57C2
:102BD300EF2565F565EE3564F564D3E56594F6E5B3
:102BE3006494094022E50A701EE5652428FFE56424
:102BF30034F6FE900043E0FD7C00123A57EF256562
:102C0300F565EE3564F564D3E56594A0E564940A4F
:102C13004022E50A701EE5652488FFE56434F5FE6D
:102C2300900043E0FD7C00123A57EF2565F565EE11
:102C33003564F564D3E565944AE564940B4022E575
:102C43000A701EE56524DEFFE56434F4FE9000435C
:102C5300E0FD7C00123A57EF2565F565EE3564F526
:102C630064D3E565949AE564940B4022E50A701EEB
:102C7300E5652484FFE56434F4FE900043E0FD7CC5
:102C830000123A57EF2565F565EE3564F564D3E533
:102C9300659426E564940C4022E50A701EE56524DC
:102CA300E4FFE56434F3FE900043E0FD7C00123A58
:102CB30057EF2565F565EE3564F564D3E56594A0B6
:102CC300E564940F5003022EB175641375657E029B
:102CD3002EB1856664856765AC66AD67E412398B92
:102CE3007BCD7ACC790C78401238E9E4FBFA79A0F1
:102CF30078431237F51239C48E648F65D3E5659432
:102D030054E5649401401FE56524B6FFE56434FE91
:102D1300FE900045E0FD7C00123A57C3E5659FF540
:102D230065E5649EF564D3E565943AE564940240F1
:102D33001FE56524D0FFE56434FDFE900044E0FD0B
:102D43007C00123A57C3E5659FF565E5649EF5641B
:102D5300D3E56594ACE5649403401FE5652472FFF5
:102D6300E56434FCFE900044E0FD7C00123A57C356
:102D7300E5659FF565E5649EF564D3E5659414E523
:102D8300649405401FE565240AFFE56434FBFE9067
:102D93000044E0FD7C00123A57C3E5659FF565E505
:102DA300649EF564D3E56594B8E5649406401FE535
:102DB30065245CFFE56434F9FE900044E0FD7C008B
:102DC300123A57C3E5659FF565E5649EF564D3E55F
:102DD30065947AE5649408401CE565249AFFE564EC
:102DE30034F7FE7C007D1C123A57C3E5659FF565F9
:102DF300E5649EF564D3E5659432E564940A401F67
:102E0300E56524ECFFE56434F5FE900045E0FD7CC8
:102E130000123A57C3E5659FF565E5649EF564D3F3
:102E2300E56594A4E564940B401FE5652470FFE514
:102E33006434F4FE900045E0FD7C00123A57C3E58C
:102E4300659FF565E5649EF564D3E56594B7E56430
:102E5300940D401FE56524AEFFE56434F2FE900057
:102E630045E0FD7C00123A57C3E5659FF565E564CF
:102E73009EF564D3E5659490E564940F401FE56582
:102E830024E2FFE56434F0FE900046E0FD7C00128E
:102E93003A57C3E5659FF565E5649EF564D3E5653B
:102EA3009488E5649413400675641775656FAE6482
:102EB300AF65228E608F61E4F509E5086401600364
:102EC30002301FD3E561948AE5609401AC60AD6183
:102ED3005030E412398B7BD77AA379B0783F12381C
:102EE300E9A804A905AA06AB07E4FFFE7DA07C437D
:102EF3001237F11239C48E628F63750A01E4F50843
:102F03008026E412398B7BD77AA379B0783F1238C5
:102F1300E9E4FBFA79A078C31237F51239C48E625B
:102F23008F63E4F50A750801856264856365D3E5FB
:102F3300639428E56294004022E50A701EE5632449
:102F430028FFE43562FE90004DE0FD7C00123A5705
:102F5300C3E5659FF565E5649EF564D3E56394B6C3
:102F6300E56294034023E50A701FE563244AFFE505
:102F73006234FCFE90004CE0FD7C00123A57C3E53E
:102F8300659FF565E5649EF564D3E563949EE5620C
:102F930094074023E50A701FE5632462FFE562346A
:102FA300F8FE90004CE0FD7C00123A57C3E5659FA4
:102FB300F565E5649EF564D3E5639428E562940AB8
:102FC3004023E50A701FE56324D8FFE56234F5FE6C
:102FD30090004CE0FD7C00123A57C3E5659FF56510
:102FE300E5649EF564D3E5639480E562940C500335
:102FF30002334EE50A600302334EE5632480FFE5A6
:103003006234F3FE90004CE0FD7C00123A57C3E5B6
:10301300659FF565E5649EF56402334EAC60AD6172
:10302300E412398B7BD77AA379B0783F1238E9E47D
:10303300FBFA79A078431237F51239C48E628F6395
:10304300856264856365C3E5639414E56294054012
:103053001DE42563FFE56234FBFE90004EE0FD7C3A
:1030630000123A57EF2565F565EE3564F564C3E55F
:10307300639498E5629408401EE5632468FFE56263
:1030830034F7FE900050E0FD7C00123A57EF2565BF
:10309300F565EE3564F564C3E56394B2E562940CBB
:1030A300401EE563244EFFE56234F3FE90004EE0DC
:1030B300FD7C00123A57EF2565F565EE3564F5643E
:1030C300C3E5639404E5629410401EE56324FCFFAA
:1030D300E56234EFFE90004EE0FD7C00123A57EFBC
:1030E3002565F565EE3564F564C3E5639488E562AB
:1030F3009413401EE5632478FFE56234ECFE9000F0
:1031030050E0FD7C00123A57EF2565F565EE356416
:10311300F564C3E56394A8E5629416401EE5632451
:1031230058FFE56234E9FE900050E0FD7C00123A5E
:1031330057EF2565F565EE3564F564C3E5629419CB
:10314300401DE42563FFE56234E7FE90004FE0FD98
:103153007C00123A57EF2565F565EE3564F564C3D7
:10316300E56394A2E562941C401EE563245EFFE5DB
:103173006234E3FE90004EE0FD7C00123A57EF25E7
:1031830065F565EE3564F564C3E563940EE5629415
:103193001F401EE56324F2FFE56234E0FE90004E1B
:1031A300E0FD7C00123A57EF2565F565EE3564F5D1
:1031B30064C3E56394FCE5629421401EE563240443
:1031C300FFE56234DEFE90004EE0FD7C00123A57CC
:1031D300EF2565F565EE3564F564C3E56394EAE5CB
:1031E300629424401EE5632416FFE56234DBFE90FF
:1031F300004FE0FD7C00123A57EF2565F565EE358B
:1032030064F564C3E56394ACE5629426401EE5630C
:103213002454FFE56234D9FE900051E0FD7C001296
:103223003A57EF2565F565EE3564F564C3E56394B8
:1032330004E5629429401EE56324FCFFE56234D66D
:10324300FE900050E0FD7C00123A57EF2565F565CE
:10325300EE3564F564C3E56394F4E5629429401E96
:10326300E563240CFFE56234D6FE900051E0FD7C5B
:1032730000123A57EF2565F565EE3564F564C3E54D
:10328300639488E562942C401EE5632478FFE5622D
:1032930034D3FE90004FE0FD7C00123A57EF2565D2
:1032A300F565EE3564F564C3E5639418E562942E21
:1032B300401EE56324E8FFE56234D1FE900051E04F
:1032C300FD7C00123A57EF2565F565EE3564F5642C
:1032D300C3E56394DAE562942F401EE5632426FF79
:1032E300E56234D0FE900051E0FD7C00123A57EFC6
:1032F3002565F565EE3564F564C3E56394CEE56253
:103303009431401EE5632432FFE56234CEFE900023
:103313004CE0FD7C00123A57EF2565F565EE356408
:10332300F564C3E5639458E5629434401EE5632471
:10333300A8FFE56234CBFE90004CE0FD7C00123A1E
:1033430057EF2565F565EE3564F564AE64AF652228
:103353008E628F63E4F509E50864017066D3E56363
:1033630094B5E5629403AC62AD635031E412398BDA
:103373007BA47A70793D78401238E9A804A905AA9C
:1033830006AB07E4FFFE7DA07C431237F11239C47C
:103393008E648F65750A01E4F5080237E9E4123992
:1033A3008B7BA47A70793D78401238E9E4FBFA7993
:1033B300A078C31237F51239C48E648F65750A017C
:1033C3000237E9AC62AD63E412398B7BA47A70797E
:1033D3003D78401238E9E4FBFA79A078431237F5D7
:1033E3001239C48E648F65D3E563941AE56294043D
:1033F300401FE5632418FFE56234FCFE900011E0F2
:10340300FD7C00123A57C3E5659FF565E5649EF5BB
:1034130064D3E56394F1E5629409401FE563241ED8
:10342300FFE56234F6FE900011E0FD7C00123A578E
:10343300C3E5659FF565E5649EF564D3E56394068E
:10344300E5629411401FE5632402FFE56234EFFE59
:10345300900012E0FD7C00123A57C3E5659FF565C5
:10346300E5649EF564D3E5639446E562941E401ECD
:10347300E42563FFE56234E2FE900013E0FD7C0087
:10348300123A57C3E5659FF565E5649EF564D3E598
:1034930063949AE5629429401FE5632452FFE56231
:1034A30034D6FE900013E0FD7C00123A57C3E56565
:1034B3009FF565E5649EF564D3E56394F2E5629454
:1034C3002B401EE5632440FFE56234D4FE900013D5
:1034D300E0FD7C00123A57EF2565F565EE3564F59E
:1034E30064D3E5639448E562943A401FE56324623C
:1034F300FFE56234C6FE900013E0FD7C00123A57EC
:10350300C3E5659FF565E5649EF564D3E563943C87
:10351300E562943C401EE56324D8FFE56234C3FEB4
:10352300900012E0FD7C00123A57EF2565F565EE39
:103533003564F564D3E56394D4E5629444401FE5B0
:10354300632440FFE56234BBFE900014E0FD7C0081
:10355300123A57C3E5659FF565E5649EF564D3E5C7
:103563006394BCE5629448401EE5632458FFE5621A
:1035730034B7FE900012E0FD7C00123A57EF256548
:10358300F565EE3564F564D3E563948CE562945098
:10359300401FE5632488FFE56234AFFE900013E02B
:1035A300FD7C00123A57C3E5659FF565E5649EF51A
:1035B30064D3E563945CE5629458401EE56324B8E4
:1035C300FFE56234A7FE900012E0FD7C00123A573B
:1035D300EF2565F565EE3564F564D3E5639438E569
:1035E30062945E401FE56324DCFFE56234A1FE9034
:1035F3000012E0FD7C00123A57C3E5659FF565E5CF
:10360300649EF564D3E56394D0E5629466401EE559
:10361300632444FFE5623499FE900014E0FD7C00CE
:10362300123A57EF2565F565EE3564F564D3E56326
:103633009454E562946A401FE5632424FFE56234F1
:1036430096FE900013E0FD7C00123A57C3E5659F98
:10365300F565E5649EF564D3E56394B4E56294731C
:10366300401FE5632460FFE562348CFE900013E0A5
:10367300FD7C00123A57C3E5659FF565E5649EF549
:1036830064D3E56394DCE562947D401FE5632438ED
:10369300FFE5623482FE900013E0FD7C00123A578E
:1036A300C3E5659FF565E5649EF564AE62AF63E4CB
:1036B300FCFD7BA07A87F9F8C3123ABA502CE56374
:1036C3002474FFE5623478FEE434FFFDE434FFFC48
:1036D300C007900012E0FBE4FAF8D0071251AAC326
:1036E300E5659FF565E5649EF564AE62AF63E4FC52
:1036F300FD7BB47A8CF9F8C3123ABA502CE56324F3
:1037030060FFE5623473FEE434FFFDE434FFFCC084
:1037130007900013E0FBE4FAF8D0071251AAC3E5BF
:10372300659FF565E5649EF564AE62AF63E4FCFDF9
:103733007BDC7A96F9F8C3123ABA502CE563243845
:10374300FFE5623469FEE434FFFDE434FFFCC007A7
:10375300900013E0FBE4FAF8D0071251AAC3E56521
:103763009FF565E5649EF564AE62AF63E4FCFD7BA3
:103773008C7A9BF9F8C3123ABA502CE5632488FF7C
:10378300E5623464FEE434FFFDE434FFFCC00790DB
:103793000012E0FBE4FAF8D0071251AAC3E5659FD3
:1037A300F565E5649EF564AE62AF63E4FCFD7B2CD6
:1037B3007AABF9F8C3123ABA502CE56324E8FFE573
:1037C300623454FEE434FFFDE434FFFCC007900090
:1037D30011E0FBE4FAF8D0071251AAC3E5659FF59F
:1037E30065E5649EF564AE64AF6522023A30E86431
:1037F30080F8E933E83360110460F0ED33EC3370A3
:1038030009E8FCE9FDEAFEEBFF220460DED3EB9F4F
:10381300EA9EE99DE8C2E78CF0C2F795F0400CE818
:10382300CCF8E9CDF9EACEFAEBCFFB1239FB85D020
:10383300F05804700320D5B3E80470075002B2D5E2
:10384300023A3A92D5EC0460F7E4CCC0E0C398F8AE
:10385300603B94186008400DD0E0FB023A12E4FB91
:10386300FAC9FC8028E830E406E4C9FBE4CAFCE8B2
:1038730030E305E4C9CACBFCE854076010F8C3E998
:1038830013F9EA13FAEB13FBEC13FCD8F130F52F21
:10389300C3E49CFCEF9BFFEE9AFEED99FDD0E0FBA9
:1038A300EF4E4D4C701222DB03023A37EC2CFCEF47
:1038B30033FFEE33FEED33FDED30E7EB023A12EF6B
:1038C3002BFFEE3AFEED39FDD0E0FB50130BBB00AE
:1038D30003023A3AED13FDEE13FEEF13FFEC13FC74
:1038E300023A12023A3AEC5D046005E859047003A7
:1038F300023A301239FB580460F6EC4860F2EC707F
:1039030004FDFEFF22C860DB2481C85009C3986010
:10391300025006023A379850CAF582E9294B4A7099
:1039230005AB82023A2675F0007C1A7880C3EF9BC0
:10393300EE9AED99400DC3EF9BFFEE9AFEED99FDD4
:10394300E842F0DC23ACF0D0E0FFD0E0FED0E0FDB5
:10395300AB8220E7101BEB60BAEC2CFCEF33FFEEDD
:1039630033FEED33FD023A12E803F830E705C0F009
:1039730075F000EF2FFFEE33FEED33FD40B830E777
:10398300C280AA75F020800E75F010800575F008CE
:103993007D007E007F003392D530D503123AACEC24
:1039A300334010EF33FFEE33FEED33FDEC33FCD544
:1039B300F0ED22E5F0247EA2D513CC92E7CDCEFF25
:1039C30022EDD2E7CD33EC3392D524814006E4FFD8
:1039D300FEFDFC22FCE4CFCECDCC24E0501174FFDD
:1039E30080EDC3CC13CCCD13CDCE13CECF13CF04E8
:1039F30070F030D5DE023AACE9D2E7C933E833F8E8
:103A030092D5EDD2E7CD33EC33FC5002B2D522ECA4
:103A130030E7100FBF000C0EBE00080DBD00040BF5
:103A2300EB6014A2D5EB13FCED92E7FD2274FFFCCF
:103A3300FDFEFF22E480F8A2D574FF13FC7D80E431
:103A430080EFEF8DF0A4A8F0CF8CF0A428CE8DF0FA
:103A5300A42EFE22BC000BBE0029EF8DF084FFAD27
:103A6300F022E4CCF875F008EF2FFFEE33FEEC33D1
:103A7300FCEE9DEC984005FCEE9DFE0FD5F0E9E4CD
:103A8300CEFD22EDF8F5F0EE8420D21CFEADF075EC
:103A9300F008EF2FFFED33FD4007985006D5F0F205
:103AA30022C398FD0FD5F0EA22C3E49FFFE49EFEF4
:103AB300E49DFDE49CFC22EB9FF5F0EA9E42F0E9D5
:103AC3009D42F0EC6480C864809845F02275F0084C
:103AD300758200EF2FFFEE33FECD33CDCC33CCC553
:103AE3008233C5829BED9AEC99E58298400CF5826E
:103AF300EE9BFEED9AFDEC99FC0FD5F0D6E4CEFBE0
:103B0300E4CDFAE4CCF9A88222B800C1B90059BACD
:103B1300002DEC8BF084CFCECDFCE5F0CBF97818FB
:103B2300EF2FFFEE33FEED33FDEC33FCEB33FB10F5
:103B3300D703994004EB99FB0FD8E5E4F9FA22780F
:103B430018EF2FFFEE33FEED33FDEC33FCC933C921
:103B530010D7059BE99A4007EC9BFCE99AF90FD82B
:103B6300E0E4C9FAE4CCFB2275F010EF2FFFEE334B
:103B7300FEED33FDCC33CCC833C810D7079BEC9A8A
:103B8300E899400AED9BFDEC9AFCE899F80FD5F013
:103B9300DAE4CDFBE4CCFAE4C8F9228E628F63E564
:103BA3000864017044D3E5659467E564940050317B
:103BB300AC62AD63E412398B7B487AE1790A7840D1
:103BC3001238E9A804A905AA06AB07E4FFFEFD7CA9
:103BD300421237F11239C48E648F65E4F508023E50
:103BE300E2E4F564F565023EE2AC62AD63E41239EA
:103BF3008B7B717A3D794A78401238E9E4FBFAF914
:103C030078421237F51239C4AB07AA068A648B656A
:103C1300C3EB9445EA9400401DEB24C5FFEA34FF4F
:103C2300FE900021E0FD7C00123A57C3E5659FF545
:103C330065E5649EF564C3EB946DEA9400401DEB67
:103C43002493FFEA34FFFE900022E0FD7C00123A49
:103C530057C3E5659FF565E5649EF564C3EB9499E9
:103C6300EA9400401DEB2467FFEA34FFFE90002333
:103C7300E0FD7C00123A57C3E5659FF565E5649E58
:103C8300F564C3EB94C7EA9400401DEB2439FFEAC3
:103C930034FFFE900024E0FD7C00123A57C3E56533
:103CA3009FF565E5649EF564C3EB9411EA940140C6
:103CB3001DEB24F0FFEA34FEFE900025E0FD7C00BE
:103CC300123A57C3E5659FF565E5649EF564C3EB5A
:103CD300947BEA9401401DEB2486FFEA34FEFE90B8
:103CE3000023E0FD7C00123A57C3E5659FF565E5C7
:103CF300649EF564C3EA9402401DEB2401FFEA3499
:103D0300FEFE900026E0FD7C00123A57C3E5659F56
:103D1300F565E5649EF564C3EB94A1EA9402401D46
:103D2300EB2460FFEA34FDFE900027E0FD7C0012E7
:103D33003A57C3E5659FF565E5649EF564C3EB9467
:103D430060EA9403401DEB24A1FFEA34FCFE9000DB
:103D530028E0FD7C00123A57C3E5659FF565E564ED
:103D63009EF564C3EB944AEA9404401DEB24B7FF29
:103D7300EA34FBFE900029E0FD7C00123A57C3E5CC
:103D8300659FF565E5649EF564C3EB9462EA94056B
:103D9300401DEB249FFFEA34FAFE90002AE0FD7CED
:103DA30000123A57C3E5659FF565E5649EF564C364
:103DB300EB94A9EA9406401DEB2458FFEA34F9FE7C
:103DC30090002BE0FD7C00123A57C3E5659FF56533
:103DD300E5649EF564C3EB94B0EA9407401DEB24BD
:103DE30051FFEA34F8FE90002DE0FD7C00123A57B3
:103DF300C3E5659FF565E5649EF564C3EB94E6EA68
:103E03009408401DEB241BFFEA34F7FE90002CE0DE
:103E1300FD7C00123A57C3E5659FF565E5649EF5A1
:103E230064C3EB9426EA940A401DEB24DBFFEA34D7
:103E3300F5FE90002DE0FD7C00123A57C3E5659F27
:103E4300F565E5649EF564C3EB949BEA940B401D12
:103E5300EB2466FFEA34F4FE90002EE0FD7C0012B2
:103E63003A57C3E5659FF565E5649EF564C3EB9436
:103E730048EA940D401DEB241DFFEA34F3FE900045
:103E83002EE0FD7C00123A57C3E5659FF565E564B6
:103E93009EF564C3EB9403EA940F401DEB24FEFFED
:103EA300EA34F0FE90002EE0FD7C00123A57C3E5A1
:103EB300659FF565E5649EF564C3EB9456EA94113A
:103EC300401DEB24ABFFEA34EEFE90002FE0FD7CB7
:103ED30000123A57C3E5659FF565E5649EF564AE48
:103EE30064AF65228E628F63E508B40141D3E56355
:103EF3009468E5629400502EAC62AD63E412398B92
:103F03007B487AE1790A78401238E9A804A905AA1E
:103F130006AB07E4FFFEFD7C421237F11239C48E73
:103F2300648F65024228E4F564F565024228AC62B9
:103F3300AD63E412398B7BCD7ACC794C784012385F
:103F4300E9E4FBFAF978421237F51239C4AB07AA50
:103F5300068A648B65C3EB9432EA9400401DEB241C
:103F6300CEFFEA34FFFE900031E0FD7C00123A57A9
:103F7300C3E5659FF565E5649EF564C3EB946DEA5F
:103F83009400401DEB2493FFEA34FFFE900030E0E1
:103F9300FD7C00123A57C3E5659FF565E5649EF520
:103FA30064C3EB94AEEA9400401DEB2452FFEA3461
:103FB300FFFE900032E0FD7C00123A57C3E5659F97
:103FC300F565E5649EF564C3EB94F8EA9400401D3F
:103FD300EB2408FFEA34FFFE900033E0FD7C00127F
:103FE3003A57C3E5659FF565E5649EF564C3EB94B5
:103FF30071EA9401401DEB248FFFEA34FEFE90002A
:1040030034E0FD7C00123A57C3E5659FF565E5642E
:104013009EF564C3EB94C8EA9401401DEB2438FF7A
:10402300EA34FEFE900035E0FD7C00123A57C3E50A
:10403300659FF565E5649EF564C3EB944FEA9402CE
:10404300401DEB24B1FFEA34FDFE900036E0FD7C19
:1040530000123A57C3E5659FF565E5649EF564C3B1
:10406300EB941CEA9403401DEB24E4FFEA34FCFECA
:10407300900036E0FD7C00123A57C3E5659FF56575
:10408300E5649EF564C3EB94F2EA9403401DEB24CC
:104093000EFFEA34FCFE900038E0FD7C00123A5734
:1040A300C3E5659FF565E5649EF564C3EB9426EA75
:1040B3009405401DEB24DAFFEA34FAFE900036E063
:1040C300FD7C00123A57C3E5659FF565E5649EF5EF
:1040D30064C3EB9484EA9406401DEB247CFFEA342A
:1040E300F9FE90003AE0FD7C00123A57C3E5659F64
:1040F300F565E5649EF564C3EB946DEA9408401D91
:10410300EB2493FFEA34F7FE900038E0FD7C0012C5
:104113003A57C3E5659FF565E5649EF564C3EB9483
:104123006DEA9409401DEB2493FFEA34F6FE9000F8
:104133003AE0FD7C00123A57C3E5659FF565E564F7
:104143009EF564C3EB9441EA940B401DEB24BFFF3F
:10415300EA34F4FE900039E0FD7C00123A57C3E5DF
:10416300659FF565E5649EF564C3EB94C9EA940C19
:10417300401DEB2437FFEA34F3FE90003DE0FD7C65
:1041830000123A57C3E5659FF565E5649EF564C380
:10419300EB9485EA940E401DEB247BFFEA34F1FE99
:1041A30090003EE0FD7C00123A57C3E5659FF5653C
:1041B300E5649EF564C3EB941CEA9411401DEB2463
:1041C300E4FFEA34EEFE90003EE0FD7C00123A5735
:1041D300C3E5659FF565E5649EF564C3EB94D6EA94
:1041E3009413401CEB242AFFEA34ECFE90003EE0DB
:1041F300FD7C00123A57EF2565F565EE3564F564ED
:10420300C3EB94B2EA9414401CEB244EFFEA34EB64
:10421300FE90003EE0FD7C00123A57EF2565F56500
:10422300EE3564F564AE64AF6522C28CAF89EF44AA
:1042330001F589F589758CDCE4F58AC28D75E5078E
:1042430075E64675E6B9AFE2EF4408F5E2F5E275C7
:10425300E50675E64675E6B9D28CA28DB340FBC27E
:104263008DC28C75E50775E64675E6B9AFE2EF4496
:1042730003F5E2F5E275E50675E64675E6B975E51B
:104283000775E64675E6B9AFE2EF54FBF5E2F5E2F2
:1042930075E50675E64675E6B91254ABD296D2A219
:1042A30012551112543212569F1256AF12556B12F9
:1042B30055BEE4FFFE1253D41255D8E4FFFE125448
:1042C30083E4FF125635E4F538FF1254CDEF644E04
:1042D30070227F011254CDBF451A7F021254CDBF05
:1042E30057127F031254CDBF5A0A7F041254CDEFE5
:1042F30064A560297D4EE4FF12552F7D457F011291
:10430300552F7D577F0212552F7D5A7F0312552F4C
:104313007DA57F0412552F125155124B551255D8B6
:104323007F121254CD8F377F131254CD8F547F14C5
:104333001254CD8F2E7F161255878E268F277F1806
:104343001255878E598F5A7F1A1255878E4A8F4B73
:104353007F1C1255878E438F447F1E1255878E3ADA
:104363008F3B7F201255878E338F347F22125587E0
:104373008E2F8F307F231255878E288F297F261209
:1043830055878E488F497F281255878E468F477FE2
:104393002A1254CD8F4E7F2B1254CD8F5B7F2C125C
:1043A30054CD8F557F2E1254CD8F567F2F1254CD5F
:1043B3008F577F301254CD8F507F321254CD8F429E
:1043C3007F341255878E518F527F361255878E3C1C
:1043D3008F3D7F381255878E2C8F2D7F3A1255874C
:1043E3008E238F247F3C1254CD8F3FE4254EF53628
:1043F300E43420F535125155D2A9D28CD2ABD28EEA
:10440300D2AF753901124F99E5377012E54230E0AA
:1044130003754501E54230E42A7522018025E5371D
:10442300B40107E54230E11B8016E537B40207E526
:104433004230E20F800AE537B40308E54230E30374
:10444300754501E52A14601514601714601914608A
:104453001B146020240570EB12447C80E612491A79
:1044630080E112464E80DC1247B480D775320112C8
:10447300002680CF124A7C80CA12508ABF0106757B
:104483002A04024649787DE660030245D876101275
:104493004E618E5E8F5FE545B40124E508B4011FCC
:1044A300C3E55F9527E55E952640028047C3E52770
:1044B300955FF55FE526955EF55EE4F5088053E5C7
:1044C30045B40106E50870028009E5457013E50867
:1044D300B4010EE527255FF55FE526355EF55E80C1
:1044E30031E545702DE5087029C3E55F9527E55E45
:1044F3009526400EE55F9527F55FE55E9526F55E0B
:104503008010C3E527955FF55FE526955EF55E753B
:104513000801E522AC51AD52AE5EAF5FB40110129B
:104523003A57C3E55F9FF55FE55E9EF55E800D122A
:104533003A57EF255FF55FEE355EF55EE558B4015A
:104543000674FFF55EF55FE52E7011AF5FAE5E1288
:1045530013088E608F61E554707B8072E52EB40181
:1045630011AF5FAE5E1233538E608F61E554706599
:10457300805CE52EB40211AF5FAE5E1229468E60F9
:104583008F61E554704F8046E52EB40311AF5FAEE3
:104593005E120AB78E608F61E55470398030E52E64
:1045A300B40414750901AF5FAE5E123B9E8E608F3B
:1045B30061E55470208017E52EB40519750901AF24
:1045C3005FAE5E123EE78E608F61E5547007124C5A
:1045D300F28E608F61787EE67007125019787E76CE
:1045E30008787CE670267610AD61AC607F01121A04
:1045F300D1D3E5619549E5609548400EE56195475E
:10460300E56095465004D2B48002C2B47881E67066
:1046130018208407AF61AE60125483208507AF6111
:10462300AE601253D4788176107880E6701820013A
:1046330009856199D2017601800AE560F599C20185
:104643007880763BD299AE60AF612212508ABF0167
:1046530006752A040247AF787DE6600302473C767D
:1046630010124E618E5E8F5FE545B40124E508B4F8
:10467300011FD3E55F953BE55E953A40028047C352
:10468300E53B955FF55FE53A955EF55EE4F50880F9
:1046930053E545B40106E50870028009E54570134A
:1046A300E508B4010EE53B255FF55FE53A355EF5B8
:1046B3005E8031E545702DE5087029C3E55F953BC4
:1046C300E55E953A400EE55F953BF55FE55E953A0D
:1046D300F55E8010C3E53B955FF55FE53A955EF5C2
:1046E3005E750801D3E5349400E533947DAC2CADBD
:1046F3002DAE5EAF5F400F123A57EF255FF55FEEC9
:10470300355EF55E800E123A57C3E55F9FF55FE5B0
:104713005E9EF55EAC5EAD5FE412398B7BCD7ACCE9
:10472300794C78401238E91239C48E5E8F5FE558B0
:10473300B4010674FFF55EF55F787CE67028AD5F23
:10474300AC5E7F01121AD1787C7608D3E55F954978
:10475300E55E9548400EE55F9547E55E9546500456
:10476300D2B48002C2B47881E67018208407AF5FA8
:10477300AE5E125483208507AF5FAE5E1253D478CA
:10478300817602787EE67007125019787E76087873
:1047930080E67018200109855F99D2017601800AAD
:1047A300E55EF599C2017880763BD299AE5EAF5F44
:1047B3002212508ABF0106752A04024915787DE644
:1047C30060030248A27610124E618E5E8F5FE5454C
:1047D300B40124E508B4011FC3E55F9530E55E9598
:1047E3002F40028047C3E530955FF55FE52F955E67
:1047F300F55EE4F5088053E545B40106E50870026B
:104803008009E5457013E508B4010EE530255FF531
:104813005FE52F355EF55E8031E545702DE5087067
:1048230029C3E55F9530E55E952F400EE55F953032
:10483300F55FE55E952FF55E8010C3E530955FF576
:104843005FE52F955EF55E750801D3E5299400E5D4
:10485300289419AC23AD24AE5EAF5F400F123A57D4
:10486300EF255FF55FEE355EF55E800E123A57C3B6
:10487300E55F9FF55FE55E9EF55EAC5EAD5FE412BE
:10488300398B7BCD7ACC794C78401238E91239C414
:104893008E5E8F5FE558B4010674FFF55EF55F78B1
:1048A3007CE67028AD5FAC5E7F01121AD1787C760E
:1048B30010D3E55F9549E55E9548400EE55F954762
:1048C300E55E95465004D2B48002C2B47881E670A6
:1048D30018208407AF5FAE5E125483208507AF5F55
:1048E300AE5E1253D478817602787EE6700712505A
:1048F30019787E76087880E67018200109855F991B
:10490300D2017601800AE55EF599C2017880763B93
:10491300D299AE5EAF5F2212508ABF0106752A0498
:10492300024A77787DE66003024A047610124E61EC
:104933008E5E8F5FE545B40124E508B4011FC3E52E
:104943005F954BE55E954A40028047C3E54B955F13
:10495300F55FE54A955EF55EE4F5088053E545B4F9
:104963000106E50870028009E5457013E508B40106
:104973000EE54B255FF55FE54A355EF55E8031E573
:1049830045702DE5087029C3E55F954BE55E954AB3
:10499300400EE55F954BF55FE55E954AF55E801049
:1049A300C3E54B955FF55FE54A955EF55E750801D6
:1049B300D3E54494E4E5439444AC3CAD3DAE5EAFF3
:1049C3005F400F123A57EF255FF55FEE355EF55EF8
:1049D300800E123A57C3E55F9FF55FE55E9EF55E75
:1049E300E558B4010674FFF55EF55FAF5FAE5E1286
:1049F3002EB68E5E8F5FE5547007124CF28E5E8F7B
:104A03005F787CE67028AD5FAC5E7F01121AD178C7
:104A13007C7610D3E55F9549E55E9548400EE55FEA
:104A23009547E55E95465004D2B48002C2B47881BE
:104A3300E67018208407AF5FAE5E125483208507AB
:104A4300AF5FAE5E1253D478817602787EE670074C
:104A5300125019787E76087880E67018200109854F
:104A63005F99D2017601800AE55EF599C2017880EB
:104A7300763BD299AE5EAF5F22124B551255D87F6B
:104A8300121254CD8F377F131254CD8F547F1412CB
:104A930054CD8F2E7F161255878E268F277F18129F
:104AA30055878E598F5A7F1A1255878E4A8F4B7F9F
:104AB3001C1255878E438F447F221255878E2F8F6A
:104AC300307F231255878E288F297F1E1255878E9C
:104AD3003A8F3B7F201255878E338F347F261255B2
:104AE300878E488F497F281255878E468F477F2AA6
:104AF3001255878F4E7F2B1254CD8F5B7F2C125410
:104B0300CD8F557F2D1254CD8F4D7F2E1254CD8FC7
:104B1300567F2F1254CD8F577F301254CD8F507F35
:104B2300321254CD8F427F341255878E518F527F6C
:104B3300361255878E3C8F3D7F381255878E2C8FCA
:104B43002D7F3A1255878E238F247F3C1254CD8FAD
:104B53003F22124F99AD377F1212552FE4FD7F1379
:104B630012552FE4FD7F1412552FE4FDFC7F16121E
:104B7300567D7D787C057F1812567DE4FDFC7F1AF7
:104B830012567D7D527C037F1C12567DE4FDFC7F13
:104B93001E12567D7D887C137F2012567D7D287CD6
:104BA300007F2212567D7DC87C007F2312567DE450
:104BB300FDFC7F2612567D7D887C137F2812567D4F
:104BC3007D147F2A12552F7D017F2B12552F7D01D6
:104BD3007F2C12552F7D037F2D12552F7D127F2E93
:104BE30012552F7D017F2F12552F7D017F301255D6
:104BF3002FE4FD7F3212552F7D017C007F34125646
:104C03007D7D017C007F3612567D7D017C007F38DF
:104C130012567D7D017C007F3A12567D7D3C7C00DF
:104C23007F3C12567D025155A9057D01AA7BED6497
:104C3300017069C291FEC292C290E4FC12573DD248
:104C43009212573DC2920CBC08F20EBE02E8E4FE7B
:104C5300C292C290E4FCEA30E702D29012573DD2EE
:104C63009212573DC292C290EA25E0FA0CBC08E6C4
:104C7300EE7004AA7A801ABE0104AA798013BE02D8
:104C830004AA78800CBE0304AA038005BE0402AA0A
:104C9300010EBE06BBD29112573DC291ED64027064
:104CA3004DC295FEC294E4FCEA30E702D293125758
:104CB3003DD29412573DC294C293EA25E0FA0CBC4C
:104CC30008E6EE7004AA7A801ABE0104AA7980135A
:104CD300BE0204AA78800CBE0304AA038005BE04A6
:104CE30002AA010EBE06BDD29512573DC295228E71
:104CF300628F63E509703FC3E5639440E562940105
:104D0300401AE508700BE56324C0FDE56234FE80BC
:104D130047E5632440FDE5623401803CE508B401C6
:104D23000BE5632440FDE5623401803BC374409589
:104D330063FD74018051C3E5639420E562940040F0
:104D430019E508700BE56324E0FDE56234FF800894
:104D5300E5632420FDE43562800DE508B40121E517
:104D6300632420FDE43562FCE412398B7B667A66AA
:104D730079E6783F1238E91239C48E648F6580234F
:104D8300C374209563FDE49562FCE412398B7B6662
:104D93007A6679E6783F1238E91239C48E648F65F2
:104DA300750801AE64AF6522014100014C00015852
:104DB30000087C101004023B02141E025100000282
:104DC3003C0000022C000002230000014E14015B92
:104DD30001015501014D0301561201570101500113
:104DE300014F00013201013800C102C10101080075
:104DF300010900010A004B001500243038404C58CB
:104E03006878C8FA49000C002028303470A0C8FF25
:104E13004A004007080A101820303840484C000068
:104E230000102028303840606C80B4E1500020002E
:104E33000A0E1314161B23262A343C4046506A508C
:104E430000300A0D10121C20283437393B40425AD7
:104E530084FA48004A002C2E32363A3E4D00125551
:104E6300F2EF6003024F08532B03E52BC394024078
:104E73004B750801E52B5403756900F56A756A00E3
:104E8300F569E521256AF56AE43569F569E56AAEF0
:104E9300697807C333CE33CED8F9F56A8E69E53125
:104EA300C313F531256AF56AE43569F569636AFF69
:104EB3006369FFC3E56994F040488041E4F508E580
:104EC3002B5403756900F56A756A00F569E52125B8
:104ED3006AF56AE43569F569E56AAE697807C3334B
:104EE300CE33CED8F9F56A8E69E531C313F5312592
:104EF3006AF56AE43569F569C394F04005755801AC
:104F03008003E4F558AE69AF6A22787FE4F6D8FDF2
:104F130075819A024F5402422DE493A3F8E493A3BC
:104F23004003F68001F208DFF48029E493A3F854E8
:104F330007240CC8C333C4540F4420C8834004F46B
:104F430056800146F6DFE4800B010204081020407E
:104F530080904DABE47E019360BCA3FF543F30E5EA
:104F630009541FFEE493A360010ECF54C025E060F3
:104F7300A840B8E493A3FAE493A3F8E493A3C8C5C1
:104F830082C8CAC583CAF0A3C8C582C8CAC583CAB2
:104F9300DFE9DEE780BE20801CE4F537F52A7540A3
:104FA30001208403754011208503754021E5426487
:104FB300017062805D20811D753701752A0175407E
:104FC30002208403754012208503754022E5426464
:104FD300027042803D20821D753702752A0275409A
:104FE30004208403754014208503754024E542643E
:104FF300047022801D20831D753703752A037540B5
:1050030008208403754018208503754028E542B4C1
:10501300080375450122E4FF1254EFEF547FF55066
:105023007F011254EF8F577F021254EF8F567F0385
:105033001254EFEF5407F54D7F041254EF8F557F51
:10504300051254EF8F5B7F061254EF8F4EE55B54CE
:105053000364017031AD4E7F2A12552FAD5B7F2B58
:1050630012552FAD557F2C12552FAD4D7F2D125557
:105073002FAD567F2E12552FAD577F2F12552FADC3
:10508300507F3012552F2230B21030B30D30860AC4
:10509300308707E4F54CF541805820B213E54C7096
:1050A30009754C01E54144018044E54154FE803ECD
:1050B30020B310E54C7006E54144028024E54154D9
:1050C300FD802B208610E54C7006E54144048011D9
:1050D300E54154FB8018208719E54C700DE54144E8
:1050E30008F541F541754C018008E54154F7F54158
:1050F300F541AF4122C0E0C0D075D000C000C00769
:10510300C28E788406787CE6600116787DE66001BD
:10511300167884E6FF54077008787EE6600116D29D
:1051230000EF640F701B7884F67880E660011678D0
:1051330081E66001167882E66001167883E66001F5
:1051430016758D0B758BDCD28ED007D000D0D0D0E6
:10515300E0327F031254EF8F4D7D407F0712554D90
:10516300E54D4408FD7F0312554DE54D20E737AD6E
:105173004E7F0612554DAD5B7F0512554DAD557FE4
:105183000412554DE54D4408FD7F0312554DAD56B0
:105193007F0212554DAD577F0112554DE5504480A6
:1051A300FDE4FF12554D22C2D5E830E70FB2D5E436
:1051B300C39BFBE49AFAE499F9E498F8EC30E71717
:1051C300B2D51251E0123B0CE4C39BFBE49AFAE420
:1051D30099F9E498F88003123B0C30D50DE4C39F92
:1051E300FFE49EFEE49DFDE49CFC22AE07125647BD
:1051F300AF06AE07750B01E47811F6EE30E704D283
:10520300A08002C2A0D2A1125744C2A1125744EEF9
:1052130025E0FE781106E6C3940840DFD2A0D2A1B0
:1052230012574430A003E4F50BC2A1025744AE0762
:10523300E47812F6D2A018F6D2A11257447812E6F7
:10524300FF25E0F630A004E64401F6C2A11257445C
:10525300781106E6C3940840DFEE24FF92A0D2A1A2
:10526300125744C2A1D2A01257447812E6FF22AECD
:1052730007750C01E47810F6EE30E704D2A2800241
:10528300C2A2D2A312574BC2A312574BEE25E0FE84
:10529300781006E6C3940840DFD2A2D2A312574B7C
:1052A30030A203E4F50CC2A302574BE47811F6D203
:1052B300A218F6D2A312574B7811E6FF25E0F63079
:1052C300A204E64401F6C2A312574B781006E6C3C4
:1052D300940840DFD2A2D2A312574BC2A3D2A21288
:1052E300574B7811E6FF22AE07750D01E47810F6EF
:1052F300EE30E704D2A28002C2A2D2A4125752C255
:10530300A4125752EE25E0FE781006E6C394084037
:10531300DFD2A2D2A412575230A203E4F50DC2A4E5
:10532300025752AE07750E01E47810F6EE30E7042B
:10533300D2A28002C2A2D2A4125759C2A4125759B0
:10534300EE25E0FE781006E6C3940840DFD2A2D231
:10535300A412575930A203E4F50EC2A4025759E42C
:105363007811F6D2A218F6D2961257037811E6FFF7
:1053730025E0F630A204E64401F6C29612570378FC
:105383001006E6C3940840DFD2A2D296125703C296
:1053930096D2A21257037811E6FF22AE07750F01CA
:1053A300E47810F6EE30E704D2A28002C2A21256CD
:1053B300FEC296125703EE25E0FE781006E6C3946C
:1053C3000840E11256FC30A203E4F50FC2960257DF
:1053D30003AB07AA06E509700AFC7D0A123A57AA2D
:1053E30006AB07AF03AD07AF02AC0753040F12566A
:1053F3006B7F98125326AF04125326AF0512532620
:10540300025729C0E0C0D075D000C000C007C28CCD
:10541300788506E654077006AF99F55C8F5D758C49
:105423000B758ADCD28CD007D000D0D0D0E032C24A
:1054330091C295C292C290C294C29312573D125721
:105443003D12573D12573DE4FFFE0FBF00010EE42E
:10545300B507F7EEB401F3221251EEE4FF12523115
:105463008F2BE4FF1252318F21E4FF1252318F311F
:105473007F011252318F53125715E5535480FF2287
:10548300E5097006FC7D0A123A57AA07AB06EB54EE
:105493000F52031256597F9A1252EAAF031252EA7D
:1054A300AF021252EA02571F7593FFE4F594758019
:1054B300FFF5917592FFF5907595047596FFF5A02C
:1054C30075B1ED75B21375B02C22AD071256CF7FAF
:1054D300A0125272AF051252721256217FA11252BC
:1054E300721252AEAE071256DEAF0622AD07125647
:1054F300ED7FDE12539EAF0512539E12000E7FDF27
:1055030012539E125362AE07125733AF0622D2A331
:1055130012574B12574B12574BC2A2E4FFFE0FBF59
:1055230000010EE4B507F7EEB401F322AC071256FF
:10553300CF7FA0125272AF04125272AF0512527291
:105543001256DE7F647E0002560AAC071256ED7FC8
:10555300DE12539EAF0412539EAF0512539E125791
:10556300337F647E0002568ED2A1125744D2A0121A
:105573005744125744125744125744C2A0E4FF0F32
:10558300BFFEFC22AC07EC04FF1254CDAB07EB7B50
:1055930000FAAF041254CDEB2FFBE43AFEAF032223
:1055A3007F327E00D3EF9400EE9400400DE4FD0DB6
:1055B300BDFFFCEF1F70ED1E80EA2243985053C8D5
:1055C300F043C83075CDFF75CCD075CBFF75CADC01
:1055D300D2ACD2CA22905784E493F55EF55FFBFD0B
:1055E300F578F579855F7A855E7B7F01024C2BE444
:1055F3007810F612556B7D9C7FD012570A7FD1121B
:10560300545B7810E6FF22D3EF9400EE9400400D34
:10561300E4FD0DBDFFFCEF1F70ED1E80EA22D2A258
:1056230012574BD2A312574BC2A212574BC2A3021B
:10563300574BEFAFA06005EF44208003EF54DFF535
:10564300A0F5A022D2A0125744D2A1125744C2A05F
:10565300125744C2A122D2A2125752D2A4125752B5
:10566300C2A2125752C2A422D2A2125759D2A412D2
:105673005759C2A2125759C2A422AB05AA04A907BB
:105683000912552FAF01AD0202552FD3EF9400EE4F
:1056930094004001EFE4FF0FBFFAFC22D28C75891E
:1056A30011758C0B758ADCE47884F622C28E7589B9
:1056B30011758D0B758BDCE47885F622309902C267
:1056C30099309807C29885993ED20232D2A21257D6
:1056D3004BC2A212574BC2A302574BC2A212574B43
:1056E300D2A312574BD2A202574BD2A2125703C2D4
:1056F300A2125703C296025703D2A2125703D2969D
:10570300E4FF0FBF12FC221251EEAF051251F50256
:105713005715D2A1125744D2A0025744D2A412570C
:1057230052D2A2025752D2A4125759D2A2025759A7
:10573300C2A21256FED2A2025703E4FF0FBF12FC0D
:1057430022E4FF0FBF12FC22E4FF0FBF12FC22E48E
:10575300FF0FBF12FC22E4FF0FBF12FC223F065BC8
:105763004F666D7D277F6F777C395E797176730025
:105773003738403E785870541EBF86DBCFE6EDFDC8
:10578300A7FFEFF7FCB9DEF9F1F6F380C7B8C0BEA7
:00000001FF
