:07000000024FF3020006327B
:10000B000254F21257FDC2A2125804C296025804AF
:03001B000251DEB1
:100023000257C0E4F560F561F562F563F564F569BF
:10003300F56AAD6AAC69AF621222D2E5347003028D
:100043000AE57886E6700912570E8E238F2476040C
:100053001251708F60E56030E0057565018003E43F
:10006300F565E56030E1057566018003E4F566E555
:100073006030E2057567018003E4F567E56030E30E
:10008300057568018003E4F568E565B4010505625B
:10009300E4F561E562D394134005E4F562F534E5D4
:1000A30067B40108056AE56A70020569E568B40189
:1000B30008E56A156A70021569E562C39404500382
:1000C300020155E562D3940B4003020155787FE6A4
:1000D300706D7604124F47E55125E0248AF8A60691
:1000E30008A607E551C39408500405518064799923
:1000F300E7789726FF19E71836FEEF1826FFEE1864
:1001030036FEEF1826FFEE1836FEEF1826FFEE1820
:1001130036FEEF1826FFEE1836FEEF1826FFEE1810
:1001230036FEEF1826FFEE1836FEEF7803CEC31324
:10013300CE13D8F9799DF7EE19F7E4F5518013E55D
:100143005125E0248AF8E6FE08E6FF789CA6060817
:10015300A607E56264017047E539FD7C00AF6212D2
:1001630022D2E56A2539F539E4F569F56AE539C33B
:1001730094044007E4F539F569F56AE566640160BE
:100183000302003EAD397F1212561CE4FDFC7F16BC
:100193001222D27FC47E09125694056102003EE505
:1001A300626402703FE539C39402400505620200B0
:1001B3003EE556FD7C00AF621222D2E56A2556F574
:1001C30056E4F569F56AE556C394024007E4F5562B
:1001D300F569F56AE5666401600302003EAD567F8A
:1001E300130207B7E5626403703CE53960050562F5
:1001F30002003EE56A2530F530E4F569F56AE5303D
:10020300C394064007E4F530F569F56AE530FD7CF3
:1002130000AF621222D2E5666401600302003EADC4
:10022300307F140207B7E56264047059E53960054D
:10023300056202003EE508B401057547018003E449
:10024300F547AD24AC23AF621222D2E566640160A8
:100253000302003EC3789DE69524F52918E695230D
:10026300F528AD29FC7F1612577E125690E547B448
:100273000106E54444018004E54454FEFD7F321247
:10028300561C020ABFE56264056003020344E539B4
:100293006005056202003E789CE6FC08E6FDAF625D
:1002A3001222D2E5666401600302003EC3789DE634
:1002B3009524F55C18E69523F55BAD5CFC7F18127D
:1002C300577EE54764017020E55C2529FFE55B3532
:1002D30028FED3EF94CAEE94C84002801FE55C2544
:1002E30029FFE55B35288032C3E55C9529FFE55B93
:1002F3009528FED3EF94CAEE94C84014EF2436FD3C
:10030300EE3437FC123AC88E538F54434410801E88
:10031300C3E55C9529FFE55B9528FEC374CA9FFD81
:1003230074C89EFC123AC88E538F545344EFAD5495
:10033300AC537F3412577E125690AD447F3202077E
:10034300B7E56264067059E5396401600505620228
:10035300003EE508B401057547018003E4F54778DD
:100363009CE6FC08E6FDAF621222D2E566640160FA
:100373000302003E789CE6F54C08E6F54DFDAC4CD7
:100383007F1A12577E125690E547B40106E544449E
:10039300028004E54454FDFD7F3212561C020ABF5D
:1003A300E56264076003020453E5396401600505EF
:1003B3006202003E789CE6FC08E6FDAF621222D2A0
:1003C300E5666401600302003E789CE6F54508E6B5
:1003D300F546FDAC457F1C12577EE547B40130E579
:1003E30046254DFFE545354CFED3EF94E4EE9444AA
:1003F3004009EF241CFDEE34BB8044E546254DFF48
:10040300E545354CFEC374E49FFD74449E8030C3C0
:10041300E546954DFFE545954CFED3EF94E4EE9408
:10042300444009EF241CFDEE34BB8013C3E546951D
:100433004DFFE545954CFEC374E49FFD74449EFC5B
:10044300123AC88E3E8F3FAD3FAC3E7F3602066FF9
:10045300E56264087059E5396402600505620200CB
:100463003EE508B401057547018003E4F547789C30
:10047300E6FC08E6FDAF621222D2E5666401600382
:1004830002003E789CE6F53C08E6F53DFDAC3C7F7A
:100493001E12577E125690E547B40106E544440404
:1004A3008004E54454FBFD7F3212561C020ABFE56B
:1004B300626409600302055EE53964026005056252
:1004C30002003E789CE6FC08E6FDAF621222D2E50C
:1004D300666401600302003E789CE6F53508E6F5A4
:1004E30036FDAC357F2012577EE547B4012EE53645
:1004F300253DFFE535353CFED3EF9400EE947D407A
:1005030008E42FFDEE34838041E536253DFFE535D4
:10051300353CFEC3E49FFD747D9E802EC3E5369576
:100523003DFFE535953CFED3EF9400EE947D400806
:10053300E42FFDEE34838012C3E536953DFFE535A8
:10054300953CFEC3E49FFD747D9EFC123AC88E2E3B
:100553008F2FAD2FAC2E7F3802066FE562640A70D1
:100563005FE53964036005056202003EE508B401F6
:10057300057547018003E4F547789CE6FC08E6FD32
:10058300AF621222D2E5666401600302003E7F324D
:10059300FE125694789CE6F53108E6F532FDAC314F
:1005A3007F2212577E125690E547B40106E5444474
:1005B300088004E54454F7FD7F3212561C020ABF3B
:1005C300E562640B6003020675E5396403600505A3
:1005D3006202003E789CE6FC08E6FDAF621222D27E
:1005E300E5666401600302003E789CE6F52A08E6AE
:1005F300F52BFDAC2A7F2412577E125690E547B4A3
:10060300012EE52B2532FFE52A3531FED3EF940089
:10061300EE94194008E42FFDEE34E78041E52B25E5
:1006230032FFE52A3531FEC3E49FFD74199E802E07
:10063300C3E52B9532FFE52A9531FED3EF9400EE07
:1006430094194008E42FFDEE34E78012C3E52B959F
:1006530032FFE52A9531FEC3E49FFD74199EFC1217
:100663003AC88E258F26AD26AC257F3A12577E02D7
:100673000ABFE562640C705AAE69AF6AFC7D0A1268
:100683003AB6EF254BF54BEE354AF54AE4F569F5F5
:100693006AAD4BAC4AAF621222D2E56764016009CE
:1006A300E5686401600302003ED3E54B940FE54A1D
:1006B30094274009E4F569F56AF54AF54BE5666464
:1006C30001600302003EAD4BAC4A7F2612577E0207
:1006D3000ABFE562640D705AAE69AF6AFC7D0A1207
:1006E3003AB6EF2549F549EE3548F548E4F569F59D
:1006F3006AAD49AC48AF621222D2E5676401600972
:10070300E5686401600302003ED3E549940FE548C0
:1007130094274009E4F569F56AF548F549E5666407
:1007230001600302003EAD49AC487F2812577E02A8
:100733000ABFE562640E60030207BDC3E56A94C89D
:10074300E56994004020E55070057550998040E5B7
:1007530050540F700CE55024F054F04409F55080C8
:10076300021550E48029E56A640145697025E55066
:10077300C3949A4005E4F5508015E550540FFFBF2C
:10078300090AE550241054F0F55080020550E4F5B1
:1007930069F56AE42550FDE43420FCAF621222D2ED
:1007A300E5666401600302003EAD507F0612563ACF
:1007B300AD507F2A12561C020ABFE562640F707C9B
:1007C300C3E56A94C8E56994004022E55DD39401CA
:1007D3005005755D12803CE55D540F700CE55D249A
:1007E300F054F04409F55D8002155D8026E56A64E6
:1007F3000145697023E55DB41205755D018014E55B
:100803005D540FFFBF090AE55D241054F0F55D80C8
:1008130002055DE4F569F56AE55DFD7C00AF6212F2
:1008230022D2E5666401600302003EAD5D7F0512DE
:10083300563AAD5D7F2B12561C020ABFE562641067
:1008430060030209BFC3E56A94C8E56994005003D5
:100853000208F4E557B40111E55DB4020CE5505408
:10086300037006755729020997E557B40112E55D30
:10087300B4020DE55054036007755728E402099745
:10088300E55764017030E55D64016023E55D640351
:10089300601DE55D64056017E55D64076011E55D56
:1008A3006408600BE55D64106005E55DB4120775CF
:1008B3005731E4020997E557B4011EE55D6404600E
:1008C30011E55D6406600BE55D64096005E55DB4F3
:1008D3001107755730E4020997E557540F700CE57B
:1008E3005724F054F04409F55780021557E40209E0
:1008F30097E56A64014569600302099BE55DB402FB
:1009030012E5505403700CE557B42907755701E4F9
:10091300020997E55DB40211E5505403600BE557F6
:10092300B42806755701E4806BE55D64016023E537
:100933005D6403601DE55D64056017E55D64076044
:1009430011E55D6408600BE55D64106005E55DB469
:10095300120BE557B43106755701E48037E55D6442
:10096300046011E55D6406600BE55D64096005E5FF
:100973005DB4110BE557B43006755701E48015E5F6
:1009830057540FFFBF090AE557241054F0F5578059
:10099300020557E4F569F56AE557FD7C00AF62127D
:1009A30022D2E5666401600302003EAD577F041264
:1009B300563AAD577F2C12561C020ABFE5626411EA
:1009C300707AC3E56A94C8E56994004020E55870DD
:1009D30005755823803EE558540F700CE55824F0F4
:1009E30054F04409F55880021558E48027E56A64F9
:1009F3000145697023E558B42305E4F5588015E5EE
:100A030058540FFFBF090AE558241054F0F55880D5
:100A1300020558E4F569F56AE558FD7C00AF6212FA
:100A230022D2E5666401600302003EAD587F0212E4
:100A3300563AAD587F2E12561C020ABFE562641265
:100A43006003020AD3C3E56A94C8E56994004020B1
:100A5300E5597005755959803EE559540F700CE5F9
:100A63005924F054F04409F55980021559E48027BC
:100A7300E56A640145697023E559B45905E4F559FC
:100A83008015E559540FFFBF090AE559241054F0A6
:100A9300F55980020559E4F569F56AE559FD7C00CD
:100AA300AF621222D2E5666401600302003EAD59D3
:100AB3007F0112563AAD597F2F12561C0561E4FD92
:100AC300FC7F161222D27FC47E0912569402003E86
:100AD300E562C39414500302003EE4F562F5340268
:100AE300003E02507F8E648F65856466856567E48A
:100AF300F509E50864017066D3E5679455E56694E6
:100B030004AC64AD655031E41239FC7BA47A70798E
:100B13005D784012395AA804A905AA06AB07E4FF79
:100B2300FE7DA07C43123862123A358E668F67755C
:100B33000A01E4F508021345E41239FC7BA47A7038
:100B4300795D784012395AE4FBFA79A078C31238F8
:100B530066123A358E668F67E4F50A021345AC6474
:100B6300AD65E41239FC7BA47A70795D7840123963
:100B73005AE4FBFA79A07843123866123A358E6646
:100B83008F67D3E5659486E5649404401FE5652487
:100B9300B4FFE56434FBFE900007E0FD7C00123AED
:100BA300C8C3E5679FF567E5669EF566D3E565947B
:100BB300C4E5649409401FE565246EFFE56434F6DB
:100BC300FE900008E0FD7C00123AC8C3E5679FF57C
:100BD30067E5669EF566D3E5659484E56494124003
:100BE3001FE56524A4FFE56434EDFE900007E0FDF6
:100BF3007C00123AC8C3E5679FF567E5669EF56614
:100C0300D3E5659402E5649417401FE565241CFF52
:100C1300E56434E9FE900009E0FD7C00123AC8C3A4
:100C2300E5679FF567E5669EF566D3E5659472E52E
:100C330064941F401FE56524ACFFE56434E0FE9037
:100C43000009E0FD7C00123AC8C3E5679FF567E53C
:100C5300669EF566D3E5659430E564942A401FE506
:100C6300652402FFE56434D6FE900009E0FD7C00B4
:100C7300123AC8C3E5679FF567E5669EF566D3E557
:100C8300659426E5649434401FE565240CFFE56410
:100C930034CCFE90000AE0FD7C00123AC8C3E5673D
:100CA3009FF567E5669EF566D3E565948CE56494E8
:100CB3003C401FE565247EFFE56434C3FE90000AD3
:100CC300E0FD7C00123AC8C3E5679FF567E5669EC1
:100CD300F566D3E56594ACE564943F401EE5652471
:100CE30086FFE56434C0FE90000AE0FD7C00123A02
:100CF300C8EF2567F567EE3566F566D3E56594308D
:100D0300E5649443401FE5652402FFE56434BDFEBA
:100D1300900009E0FD7C00123AC8C3E5679FF567C0
:100D2300E5669EF566D3E5659450E564944B401EF5
:100D3300E56524BAFFE56434B4FE90000AE0FD7C67
:100D430000123AC8EF2567F567EE3566F566D3E519
:100D53006594E8E564944E401FE565244AFFE56425
:100D630034B1FE900009E0FD7C00123AC8C3E56788
:100D73009FF567E5669EF566D3E565948CE5649417
:100D83005A401FE56524B0FFE56434A5FE90000AD0
:100D9300E0FD7C00123AC8C3E5679FF567E5669EF0
:100DA300F566D3E5659404E5649460401EE5652427
:100DB30024FFE56434A0FE90000BE0FD7C00123AB2
:100DC300C8EF2567F567EE3566F566D3E56594707C
:100DD300E5649467401FE56524B8FFE5643498FE35
:100DE30090000AE0FD7C00123AC8C3E5679FF567EF
:100DF300E5669EF566D3E5659478E564946E401EDA
:100E0300E56524B0FFE5643491FE90000BE0FD7CC2
:100E130000123AC8EF2567F567EE3566F566D3E548
:100E2300659436E5649474401FE56524FCFFE5642E
:100E3300348BFE90000AE0FD7C00123AC8C3E567DC
:100E43009FF567E5669EF566AE64AF65E4FCFD7BE2
:100E5300907A83F9F8C3123B2B502BE5652498FF56
:100E6300E564347CFEE434FFFDE434FFFCC007900A
:100E7300000AE0FBE4FAF8D007125296EF2567F573
:100E830067EE3566F566AE64AF65E4FCFD7BB07A6C
:100E930086F9F8C3123B2B502CE5652478FFE564F3
:100EA3003479FEE434FFFDE434FFFCC0079000090D
:100EB300E0FBE4FAF8D007125296C3E5679FF567A3
:100EC300E5669EF566AE64AF65E4FCFD7B807A8ED5
:100ED300F9F8C3123B2B502BE56524A8FFE56434D6
:100EE30071FEE434FFFDE434FFFCC00790000BE027
:100EF300FBE4FAF8D007125296EF2567F567EE3553
:100F030066F566AE64AF65E4FCFD7B447A93F9F85D
:100F1300C3123B2B502CE56524EEFFE564346CFED5
:100F2300E434FFFDE434FFFCC00790000BE0FBE476
:100F3300FAF8D007125296C3E5679FF567E5669EF8
:100F4300F566AE64AF65E4FCFD7B987A9EF9F8C361
:100F5300123B2B502BE565249AFFE5643461FEE4D4
:100F630034FFFDE434FFFCC00790000BE0FBE4FA20
:100F7300F8D007125296EF2567F567EE3566F566EA
:100F8300AE64AF65E4FCFD7BF07AA0F9F8C3123BD5
:100F93002B502CE5652442FFE564345FFEE434FF07
:100FA300FDE434FFFCC00790000BE0FBE4FAF8D04B
:100FB30007125296C3E5679FF567E5669EF566AE31
:100FC30064AF65E4FCFD7B047AA6F9F8C3123B2BFE
:100FD300502BE565242EFFE564345AFEE434FFFD0F
:100FE300E434FFFCC00790000BE0FBE4FAF8D00701
:100FF300125296EF2567F567EE3566F566AE64AF78
:1010030065E4FCFD7BD47AADF9F8C3123B2B502C7D
:10101300E565245EFFE5643452FEE434FFFDE43409
:10102300FFFCC00790000BE0FBE4FAF8D007125274
:1010330096C3E5679FF567E5669EF566AE64AF65A3
:10104300E4FCFD7B547ABAF9F8C3123B2B502BE531
:101053006524DEFFE5643445FEE434FFFDE434FF3C
:10106300FCC00790000AE0FBE4FAF8D0071252969E
:10107300EF2567F567EE3566F566AE64AF65E4FCAC
:10108300FD7B767AC0F9F8C3123B2B502CE565241F
:101093009EFFE564343FFEE434FFFDE434FFFCC00F
:1010A30007900007E0FBE4FAF8D007125296C3E575
:1010B300679FF567E5669EF566AE64AF65E4FCFD84
:1010C3007B507AC3F9F8C3123B2B502BE56524C43C
:1010D300FFE564343CFEE434FFFDE434FFFCC00769
:1010E300900007E0FBE4FAF8D007125296EF256769
:1010F300F567EE3566F566AE64AF65E4FCFD7B949B
:101103007ACAF9F8C3123B2B502CE5652494FFE50A
:10111300643435FEE434FFFDE434FFFCC007900083
:101123000BE0FBE4FAF8D007125296C3E5679FF58C
:1011330067E5669EF566AE64AF65E4FCFD7B507AB9
:10114300CDF9F8C3123B2B502BE56524D8FFE5649A
:101153003432FEE434FFFDE434FFFCC00790000B9F
:10116300E0FBE4FAF8D007125296EF2567F567EE35
:101173003566F566AE64AF65E4FCFD7B387AD1F97C
:10118300F8C3123B2B502CE56524F0FFE564342EA5
:10119300FEE434FFFDE434FFFCC00790000BE0FBEA
:1011A300E4FAF8D007125296C3E5679FF567E56640
:1011B3009EF566AE64AF65E4FCFD7BB07AD6F9F8C4
:1011C300C3123B2B502BE5652478FFE5643429FEDD
:1011D300E434FFFDE434FFFCC00790000BE0FBE4C4
:1011E300FAF8D007125296EF2567F567EE3566F5E4
:1011F30066AE64AF65E4FCFD7B307AE3F9F8C312B5
:101203003B2B502BE56524F8FFE564341CFEE434E6
:10121300FFFDE434FFFCC00790000BE0FBE4FAF8A9
:10122300D007125296EF2567F567EE3566F566AE81
:1012330064AF65E4FCFD7B8C7AE6F9F8C3123B2BC3
:10124300502CE5652488FFE5643419FEE434FFFD82
:10125300E434FFFCC007900009E0FBE4FAF8D00790
:10126300125296C3E5679FF567E5669EF566AE6421
:10127300AF65E4FCFD7B9C7AEAF9F8C3123B2B5083
:101283002BE565248CFFE5643415FEE434FFFDE4AF
:1012930034FFFCC00790000BE0FBE4FAF8D0071220
:1012A3005296EF2567F567EE3566F566AE64AF6572
:1012B300E4FCFD7B347AF3F9F8C3123B2B502CE5A5
:1012C3006524F4FFE564340CFEE434FFFDE434FFED
:1012D300FCC00790000BE0FBE4FAF8D0071252962B
:1012E300C3E5679FF567E5669EF566AE64AF65E4A3
:1012F300FCFD7BFC7AF3F9F8C3123B2B502BE5651D
:10130300242CFFE564340CFEE434FFFDE434FFFCDD
:10131300C00790000AE0FBE4FAF8D007125296EFF8
:101323002567F567EE3566F566AE64AF65E4FCFDEB
:101333007BB07AFA7909F8C3123B2B5005E4F566C2
:10134300F567AE66AF67228E648F65E4F509E5083D
:101353006401600302141FD3E5659417E5649403E5
:10136300AC64AD655030E41239FC7BE17A7A7914D0
:10137300784012395AA804A905AA06AB07E4FFFE70
:101383007DA07C43123862123A358E668F67750AE8
:1013930001E4F5088023E41239FC7BE17A7A7914BD
:1013A300784012395AE4FBFA79A078C312386612EE
:1013B3003A358E668F67E4F50AD3E56594F8E564FC
:1013C30094024022E50A701EE5652426FFE5643495
:1013D300FDFE90001BE0FD7C00123AC8EF2567F587
:1013E30067EE3566F566D3E56594D0E564940750FA
:1013F30003021B3DE50A6003021B3DE5652462FF12
:10140300E56434F8FE90001DE0FD7C00123AC8EF5D
:101413002567F567EE3566F566021B3DAC64AD6581
:10142300E41239FC7BE17A7A7914784012395AE470
:10143300FBFA79A07843123866123A358E668F67C5
:10144300D3E56594F8E5649402401FE5652426FF1F
:10145300E56434FDFE90001BE0FD7C00123AC8C336
:10146300E5679FF567E5669EF566D3E56594D0E588
:10147300649407401FE5652462FFE56434F8FE9039
:10148300001DE0FD7C00123AC8C3E5679FF567E5E0
:10149300669EF566D3E5659460E564940C401EE5AD
:1014A3006524B2FFE56434F3FE90001DE0FD7C008B
:1014B300123AC8EF2567F567EE3566F566D3E5653D
:1014C30094DEE564940D401FE5652454FFE5643420
:1014D300F2FE90001DE0FD7C00123AC8C3E5679F51
:1014E300F567E5669EF566D3E56594F2E5649412C7
:1014F300401EE5652440FFE56434EDFE90001CE0EA
:10150300FD7C00123AC8EF2567F567EE3566F56690
:10151300D3E5659444E564941B401EE565240CFF04
:10152300E56434E5FE90001DE0FD7C00123AC8EF4F
:101533002567F567EE3566F566D3E565947FE56463
:101543009424401FE56524FCFFE56434DBFE900032
:101553001EE0FD7C00123AC8C3E5679FF567E566A8
:101563009EF566D3E56594B4E5649428401FE5656C
:101573002488FFE56434D7FE90001DE0FD7C001253
:101583003AC8C3E5679FF567E5669EF566D3E565EB
:1015930094FCE5649430401FE565242CFFE5643436
:1015A300CFFE90001EE0FD7C00123AC8C3E5679FA2
:1015B300F567E5669EF566D3E56594AAE564943719
:1015C300401FE5652488FFE56434C8FE90001FE0F2
:1015D300FD7C00123AC8C3E5679FF567E5669EF593
:1015E30066D3E56594A0E5649441401FE5652492C4
:1015F300FFE56434BEFE90001FE0FD7C00123AC894
:10160300C3E5679FF567E5669EF566D3E565944A8E
:10161300E5649447401EE56524E8FFE56434B8FEBD
:1016230090001FE0FD7C00123AC8EF2567F567EED6
:101633003566F566D3E56594FAE564944B401FE59A
:10164300652438FFE56434B4FE90001EE0FD7C00A1
:10165300123AC8C3E5679FF567E5669EF566D3E56D
:101663006594CAE5649453401FE5652468FFE56407
:1016730034ACFE90001FE0FD7C00123AC8C3E5675E
:101683009FF567E5669EF566D3E5659488E5649402
:1016930059401EE56524C8FFE56434A6FE90001E8C
:1016A300E0FD7C00123AC8EF2567F567EE3566F575
:1016B30066D3E5659406E5649463401FE565242CD1
:1016C300FFE564349DFE90001FE0FD7C00123AC8E4
:1016D300C3E5679FF567E5669EF566D3E56594EC1C
:1016E300E5649468401EE5652450FFE5643497FE85
:1016F30090001EE0FD7C00123AC8EF2567F567EE07
:101703003566F566D3E5659458E5649470401EE547
:101713006524ACFFE5643490FE90001FE0FD7C007F
:10172300123AC8EF2567F567EE3566F566D3E565CA
:10173300945CE5649476401FE5652408FFE5643412
:101743008AFE90001FE0FD7C00123AC8C3E5679F44
:10175300F567E5669EF566D3E5659476E564947A68
:10176300401EE56524EEFFE5643485FE90001DE030
:10177300FD7C00123AC8EF2567F567EE3566F5661E
:10178300AE64AF65E4FCFD7B9E7A84F9F8C3123B3B
:101793002B502BE5652494FFE564347BFEE434FF92
:1017A300FDE434FFFCC00790001FE0FBE4FAF8D02F
:1017B30007125296EF2567F567EE3566F566AE6458
:1017C300AF65E4FCFD7B6E7A8CF9F8C3123B2B50BA
:1017D3002BE56524C4FFE5643473FEE434FFFDE4C4
:1017E30034FFFCC00790001EE0FBE4FAF8D00712B8
:1017F3005296EF2567F567EE3566F566AE64AF651D
:10180300E4FCFD7BBA7A90F9F8C3123B2B502BE52D
:10181300652478FFE564346FFEE434FFFDE434FFB0
:10182300FCC00790001FE0FBE4FAF8D007125296C1
:10183300EF2567F567EE3566F566AE64AF65E4FCE4
:10184300FD7BEE7A98F9F8C3123B2B502BE5652408
:1018530044FFE5643467FEE434FFFDE434FFFCC079
:101863000790001FE0FBE4FAF8D007125296EF2529
:1018730067F567EE3566F566AE64AF65E4FCFD7B40
:10188300667A9EF9F8C3123B2B502BE56524CCFFF7
:10189300E5643461FEE434FFFDE434FFFCC00790EB
:1018A300001FE0FBE4FAF8D007125296EF2567F524
:1018B30067EE3566F566AE64AF65E4FCFD7BA67A3C
:1018C300A4F9F8C3123B2B502BE56524F0FFE56424
:1018D300345BFEE434FFFDE434FFFCC00790001FDB
:1018E300E0FBE4FAF8D007125296EF2567F567EEAE
:1018F3003566F566AE64AF65E4FCFD7BBA7AA9F99B
:10190300F8C3123B2B502BE5652478FFE56434566E
:10191300FEE434FFFDE434FFFCC00790001FE0FB4E
:10192300E4FAF8D007125296EF2567F567EE3566AD
:10193300F566AE64AF65E4FCFD7B967AAFF9F8C358
:10194300123B2B502AE42565FFE5643451FEE43451
:10195300FFFDE434FFFCC00790001EE0FBE4FAF84F
:10196300D007125296EF2567F567EE3566F566AE3A
:1019730064AF65E4FCFD7B3A7AB6F9F8C3123B2BFE
:10198300502BE56524F8FFE5643449FEE434FFFD9C
:10199300E434FFFCC00790001EE0FBE4FAF8D00734
:1019A300125296EF2567F567EE3566F566AE64AFBE
:1019B30065E4FCFD7B7A7ABCF9F8C3123B2B502B10
:1019C300E56524B8FFE5643443FEE434FFFDE43405
:1019D300FFFCC00790001DE0FBE4FAF8D0071252A9
:1019E30096EF2567F567EE3566F566AE64AF65E499
:1019F300FCFD7BDA7AC5F9F8C3123B2B502BE56566
:101A03002458FFE564343AFEE434FFFDE434FFFC7C
:101A1300C00790001CE0FBE4FAF8D007125296EFDF
:101A23002567F567EE3566F566AE64AF65E4FCFDE4
:101A33007B467ACDF9F8C3123B2B502BE56524EC9A
:101A4300FFE5643432FEE434FFFDE434FFFCC007F9
:101A530090001CE0FBE4FAF8D007125296EF2567DA
:101A6300F567EE3566F566AE64AF65E4FCFD7B2E87
:101A73007AD1F9F8C3123B2B502BE5652404FFE51B
:101A830064342FFEE434FFFDE434FFFCC007900010
:101A93001EE0FBE4FAF8D007125296EF2567F567CC
:101AA300EE3566F566AE64AF65E4FCFD7B0A7AD776
:101AB300F9F8C3123B2B502BE5652428FFE564346A
:101AC30029FEE434FFFDE434FFFCC00790001CE072
:101AD300FBE4FAF8D007125296EF2567F567EE3567
:101AE30066F566AE64AF65E4FCFD7B1E7ADCF9F84F
:101AF300C3123B2B502BE5652414FFE5643424FE0D
:101B0300E434FFFDE434FFFCC00790001DE0FBE478
:101B1300FAF8D007125296EF2567F567EE3566F5AA
:101B230066AE64AF65E4FCFD7B487AEEF9F8C31258
:101B33003B2B500674FFF566F567AE66AF6722E48C
:101B4300F564F565F566F567F568F5698C6A8D6B7F
:101B5300E50864016003021D13C3E56B940AE56A9B
:101B63009400503F905873E493F564F565F566E58A
:101B730039B4030A905876E493F566021D2EE509FD
:101B830064016005E539B4020D905873E493F56779
:101B9300905876021D67905876E493F56790587DC8
:101BA300021D67C3E56B940AE56A9400403FE56B49
:101BB3009464E56A94005035905873E493F564F5A2
:101BC30065F566E5396403700C90587693F5669075
:101BD300587D021DE6E50964016006E5396402707B
:101BE30006905876021DE6905876021E1FC3E56BD9
:101BF3009464E56A94004038E56B94E8E56A9403DD
:101C0300502E905873E493F564F565905876E493F9
:101C1300F566E53964037003021E81E5096401700A
:101C230003021EE4E53964026003021F3C021EE462
:101C3300C3E56B94E8E56A9403404FE56B9410E5C4
:101C43006A94275045905873E493F564905876E46A
:101C530093F565AE6AAF6B7C037DE8123AC8746195
:101C63002FF58274583EF583E493F566E5396403F2
:101C73007003021FD7E50964017003022048E539A8
:101C8300640260030220AD022048C3E56B9410E5B3
:101C93006A942750030222BDAE6AAF6BE4FCFD7B5E
:101CA300A07A867901F8D3123B2B50030222BD9010
:101CB3005876E493F564AE6AAF6B7C277D10123AD5
:101CC300C874612FF58274583EF583E493F565AECD
:101CD3006AAF6B7C277D10123AC87E037FE8CFCDB5
:101CE300CFCECCCE123AC874612FF58274583EF52C
:101CF30083E493F566E53964037003021FD7E509AE
:101D030064016006E539640270030220480220ADD5
:101D1300C3E56B940AE56A94005055905873E493B5
:101D2300F564F565F566E539B4031390587DE493DE
:101D3300F567905861E493F568E56B0222BAE5090B
:101D430064016005E539B40211905873E493F567B3
:101D5300F568E56B9058610222BA905873E493F5E5
:101D63006790587DE493F568E56B9058610222BA59
:101D7300C3E56B940AE56A94005003021E55E56BB4
:101D83009464E56A94004003021E55905873E493EB
:101D9300F564F565F566E5396403703890587D930D
:101DA300F567AE6AAF6B7C007D0A123AC874612F87
:101DB300F58274583EF583E493F568AE6AAF6B7CA5
:101DC300007D0A123AC874612DF58274583CF5837C
:101DD300E40222BAE50964016006E5396402703958
:101DE300905873E493F567AE6AAF6B7C007D0A127B
:101DF3003AC874612FF58274583EF583E493F5680D
:101E0300AE6AAF6B7C007D0A123AC874612DF5820D
:101E130074583CF583E40222BA905873E493F5674F
:101E2300AE6AAF6B7C007D0A123AC8747D2FF582CF
:101E330074583EF583E493F568AE6AAF6B7C007D1E
:101E43000A123AC874612DF58274583CF583E40292
:101E530022BAC3E56B9464E56A94005003021F94AD
:101E6300E56B94E8E56A94034003021F949058736A
:101E7300E493F564F565F566E53964037057AE6A76
:101E8300AF6BFC7D64123AC8747D2FF58274583EA3
:101E9300F583E493F567AE6AAF6B7C007D64123A19
:101EA300C87E007F0ACFCDCFCECCCE123AC87461A4
:101EB3002FF58274583EF583E493F568AE6AAF6BF1
:101EC3007C007D0A123AC874612DF58274583CF582
:101ED30083E40222BAE50964016006E5396402700D
:101EE30058AE6AAF6B7C007D64123AC874612FF5FB
:101EF3008274583EF583E493F567AE6AAF6B7C005A
:101F03007D64123AC87E007F0ACFCDCFCECCCE12ED
:101F13003AC874612FF58274583EF583E493F568EB
:101F2300AE6AAF6B7C007D0A123AC874612DF582EC
:101F330074583CF583E40222BAAE6AAF6B7C007D31
:101F430064123AC874612FF58274583EF583E493A2
:101F5300F567AE6AAF6B7C007D64123AC87E007F82
:101F63000ACFCDCFCECCCE123AC8747D2FF5827472
:101F7300583EF583E493F568AE6AAF6B7C007D0A47
:101F8300123AC874612DF58274583CF583E4022239
:101F9300BAC3E56B94E8E56A94035003022112E5A2
:101FA3006B9410E56A94274003022112905873E45E
:101FB30093F564F565AE6AAF6B7C037DE8123AC8AE
:101FC30074612FF58274583EF583E493F566E53921
:101FD30064037065AE6AAF6B7C037DE8123AC87E1A
:101FE300007F64CFCDCFCECCCE123AC8747D2FF50F
:101FF3008274583EF583E493F567AE6AAF6B7C0059
:102003007D64123AC87E007F0ACFCDCFCECCCE12EC
:102013003AC874612FF58274583EF583E493F568EA
:10202300AE6AAF6B7C007D0A123AC874612DF582EB
:1020330074583CF583E40222BAE50964016006E5BD
:102043003964027065AE6AAF6B7C037DE8123AC8EF
:102053007E007F64CFCDCFCECCCE123AC874612F31
:10206300F58274583EF583E493F567AE6AAF6B7CF3
:10207300007D64123AC87E007F0ACFCDCFCECCCE8E
:10208300123AC874612FF58274583EF583E493F5D0
:1020930068AE6AAF6B7C007D0A123AC874612DF595
:1020A3008274583CF583E40222BAAE6AAF6B7C03B8
:1020B3007DE8123AC87E007F64CFCDCFCECCCE125E
:1020C3003AC874612FF58274583EF583E493F5673B
:1020D300AE6AAF6B7C007D64123AC87E007F0ACF84
:1020E300CDCFCECCCE123AC8747D2FF58274583E34
:1020F300F583E493F568AE6AAF6B7C007D0A123A10
:10210300C874612DF58274583CF583E40222BAC386
:10211300E56B9410E56A942750030222BDAE6AAFC3
:102123006BE4FCFD7BA07A867901F8D3123B2B503C
:10213300030222BD905873E493F564AE6AAF6B7CDF
:10214300277D10123AC874612FF58274583EF583C7
:10215300E493F565AE6AAF6B7C277D10123AC87EB7
:10216300037FE8CFCDCFCECCCE123AC874612FF522
:102173008274583EF583E493F566E539640370652C
:10218300AE6AAF6B7C037DE8123AC87E007F64CFF2
:10219300CDCFCECCCE123AC8747D2FF58274583E83
:1021A300F583E493F567AE6AAF6B7C007D64123A06
:1021B300C87E007F0ACFCDCFCECCCE123AC8746191
:1021C3002FF58274583EF583E493F568AE6AAF6BDE
:1021D3007C007D0A123AC874612DF58274583CF56F
:1021E30083E40222BAE50964016006E539640270FA
:1021F30064AE6AAF6B7C037DE8123AC87E007F64ED
:10220300CFCDCFCECCCE123AC874612FF58274589D
:102213003EF583E493F567AE6AAF6B7C007D641291
:102223003AC87E007F0ACFCDCFCECCCE123AC87447
:10223300612FF58274583EF583E493F568AE6AAF77
:102243006B7C007D0A123AC874612DF58274583C88
:10225300F583E48062AE6AAF6B7C037DE8123AC813
:102263007E007F64CFCDCFCECCCE123AC874612F1F
:10227300F58274583EF583E493F567AE6AAF6B7CE1
:10228300007D64123AC87E007F0ACFCDCFCECCCE7C
:10229300123AC8747D2FF58274583EF583E493F5A2
:1022A30068AE6AAF6B7C007D0A123AC874612DF583
:1022B3008274583CF583E493F56985677A85667B78
:1022C30085657C85647DAB68AD697F01024D0A8CB1
:1022D3006B8D6C8F6DAF6CAE6BE56D702890587223
:1022E30093FFF56E905861E493F56F905873E49300
:1022F300F570905866E493F57190586FE493F57216
:102303008F730229A2E56D640160030223B2EF4ECD
:10231300702290587293F56E905862E493F56F9023
:102323005873E493F570F571905878E493F572A3BC
:10233300E493F573EF64014E702990587293F56E30
:10234300905862E493F56F905873E493F570905846
:102353007AE493F571905878E493F57290586EE4AB
:1023630093F573EF64024E701F90587293F56E905D
:102373005862E493F56F905873E493F570F571F533
:1023830072905877E493F573EF64034E6003022968
:10239300A290587293F56E905862E493F56F90583B
:1023A30073E493F570F571F57290586B02289DE50F
:1023B3006D64027049EF4E701E90587293F56E90E3
:1023C3005863E493F56F905873E493F570F571F5E2
:1023D3007290586D02289DEF64014E60030229A29A
:1023E30090587293F56E905863E493F56F90587319
:1023F300E493F570F571F57290587002289DE56DC0
:10240300640360030224F8EF4E701B90587293F537
:102413006E905864E493F56F905873E493F570F5F8
:1024230071757274F573EF64014E70249058729352
:10243300F56E905864E493F56F905873E493F570D8
:10244300F57190587CE493F572905873E493F573A7
:10245300EF64024E702490587293F56E905864E4C2
:1024630093F56F905873E493F570F571905878E491
:1024730093F572905873E493F573EF64034E7024ED
:1024830090587293F56E905864E493F56F90587377
:10249300E493F570F57190586FE493F57290587367
:1024A300E493F573EF64044E702490587293F56EC1
:1024B300905864E493F56F905873E493F570F57155
:1024C30090587AE493F572905873E493F573EF643C
:1024D300054E60030229A290587293F56E905864DA
:1024E300E493F56F905873E493F570F57175726D1D
:1024F300F5730229A2E56DC3940450030228A1E5F4
:102503006DD3940D40030228A1856B75856C76E528
:102513006DB40405905878803AE56DB4050590587C
:10252300788041E56DB4060590587A8026E56DB450
:10253300070590587A802DE56DB40805905877808B
:1025430012E56DB409059058778019E56DB40A0C4E
:1025530090586BE493F56E756F5C8039E56DB40B41
:102563000C90586BE493F56E756F6D8028E56DB430
:102573000C1090586BE493F56E905875E493F56FD7
:102583008013E56DB40D1190586BE493F56E90587C
:1025930071E493F56FE4F574C3E57594004040E589
:1025A30076940AE57594005036905873E493F57069
:1025B300F571E5747009E509700590587D80049004
:1025C3005861E493F572AE75AF767C007D0A123ADA
:1025D300C874612DF58274583CF583E493F573C395
:1025E300E576940AE57594004060E5769464E575B4
:1025F30094005056905873E493F570F571E5747038
:1026030017E5097013AE75AF76FC7D0A123AC874EC
:102613007D2FF58274588012AE75AF767C007D0AEB
:10262300123AC874612FF58274583EF583E493F52A
:1026330072AE75AF767C007D0A123AC874612DF5CF
:102643008274583CF583E493F573C3E5769464E5AB
:1026530075940050030226EFE57694E8E57594033C
:1026630040030226EF905873E493F570AE75AF768E
:102673007C007D64123AC874612FF58274583EF56C
:1026830083E493F571E5747024E5097020AE75AFAA
:1026930076FC7D64123AC87E007F0ACFCDCFCECCC4
:1026A300CE123AC8747D2FF5827458801FAE75AF71
:1026B300767C007D64123AC87E007F0ACFCDCFCEF0
:1026C300CCCE123AC874612FF58274583EF583E478
:1026D30093F572AE75AF767C007D0A123AC87461C9
:1026E3002DF58274583CF583E493F573C3E5769432
:1026F300E8E575940350030227B0E5769410E57579
:10270300942740030227B0AE75AF767C037DE812B1
:102713003AC874612FF58274583EF583E493F570DB
:10272300AE75AF767C037DE8123AC87E007F64CF36
:10273300CDCFCECCCE123AC874612FF58274583EF9
:10274300F583E493F571E5747024E5097020AE75A3
:10275300AF76FC7D64123AC87E007F0ACFCDCFCE20
:10276300CCCE123AC8747D2FF5827458801FAE7593
:10277300AF767C007D64123AC87E007F0ACFCDCF4E
:10278300CECCCE123AC874612FF58274583EF583CD
:10279300E493F572AE75AF767C007D0A123AC87485
:1027A300612DF58274583CF583E493F573C3E576A4
:1027B3009410E575942750030229A2AE75AF76E411
:1027C300FCFD7BA07A867901F8D3123B2B500302E0
:1027D30029A2AE75AF767C277D10123AC874612F9B
:1027E300F58274583EF583E493F56FAE75AF767C4E
:1027F300277D10123AC87E037FE8CFCDCFCECCCE53
:10280300123AC874612FF58274583EF583E493F548
:1028130070AE75AF767C037DE8123AC87E007F64A4
:10282300CFCDCFCECCCE123AC874612FF582745877
:102833003EF583E493F571E5747024E5097020AEE9
:1028430075AF76FC7D64123AC87E007F0ACFCDCF88
:10285300CECCCE123AC8747D2FF5827458801FAE49
:1028630075AF767C007D64123AC87E007F0ACFCDB7
:10287300CFCECCCE123AC874612FF58274583EF590
:1028830083E493F572AE75AF767C007D0A123AC885
:1028930074612DF58274583CF583E4022986E56D55
:1028A300C3940E5009E56D9414400302298BE56D22
:1028B300B40E05756E6E802EE56DB40F0C905874D2
:1028C300E493F56E9058618031E56DB4100C905827
:1028D3006EE493F56E756F6E8024E56DB4110C9004
:1028E3005871E493F56E90587A800FE56DB4120E2B
:1028F300905874E493F56E905862E493F56F856B8A
:1029030075856C76E576540FFDE575C4F854F0C80B
:1029130068F575E576C4540F48F576540FFCE575F4
:10292300C4F854F0C868F575E576C4540F48F576D5
:10293300540FFBE575C4F854F0C868F575E576C423
:10294300540F48F576540FFF757401702390587334
:1029530093FEF570EB70088E71EC9058618008EB74
:1029630090586193F571EC93F572ED93F573800FC5
:10297300EF90586193F570EB93F571EC93F572ED6D
:1029830090586193F5738017E56DC394164010E476
:10299300F56EF56FF57075716E75727975736B857C
:1029A300717A85707B856F7C856E7DAB72AD737F2D
:1029B30001024D0A8E648F65856468856569E4F557
:1029C30009E50864016003022D46D3E56594C2E579
:1029D300649402AC64AD655030E41239FC7B7B7ABD
:1029E30014790E784012395AA804A905AA06AB0730
:1029F300E4FFFE7DA07C43123862123A358E668F67
:102A030067750A01E4F5088026E41239FC7BCD7A68
:102A1300CC790C784012395AE4FBFA79A078C312C6
:102A23003866123A358E668F67E4F50A750801D366
:102A3300E567946EE56694004022E50A701EE5673B
:102A4300249CFFE56634FFFE900043E0FD7C00120A
:102A53003AC8EF2567F567EE3566F566D3E5679403
:102A6300B5E56694014022E50A701EE567245CFF24
:102A7300E56634FEFE900046E0FD7C00123AC8EFA6
:102A83002567F567EE3566F566D3E5679458E56621
:102A930094024022E50A701EE56724DAFFE56634F6
:102AA300FDFE900045E0FD7C00123AC8EF2567F576
:102AB30067EE3566F566D3E56794DEE56694024016
:102AC30022E50A701EE567243AFFE56634FDFE90B1
:102AD3000044E0FD7C00123AC8EF2567F567EE3548
:102AE30066F566D3E56794C0E56694034022E50A7C
:102AF300701EE567244AFFE56634FCFE900045E05E
:102B0300FD7C00123AC8EF2567F567EE3566F5667A
:102B1300D3E567947EE56694044022E50A701EE5DA
:102B23006724B4FFE56634FBFE900044E0FD7C00BF
:102B3300123AC8EF2567F567EE3566F566D3E567A4
:102B43009446E56694054022E50A701EE56724EC89
:102B5300FFE56634FAFE900044E0FD7C00123AC8BB
:102B6300EF2567F567EE3566F566D3E5679404E50B
:102B73006694064022E50A701EE5672410FFE566A9
:102B830034FAFE900043E0FD7C00123AC8EF25675B
:102B9300F567EE3566F566D3E56794F4E566940666
:102BA3004022E50A701EE567242AFFE56634F9FE34
:102BB300900044E0FD7C00123AC8EF2567F567EE0C
:102BC3003566F566D3E5679476E56694074022E5B6
:102BD3000A701EE5672494FFE56634F8FE9000440E
:102BE300E0FD7C00123AC8EF2567F567EE3566F520
:102BF30066D3E5679448E56694084022E50A701EAB
:102C0300E56724C2FFE56634F7FE900043E0FD7CF0
:102C130000123AC8EF2567F567EE3566F566D3E52A
:102C23006794DEE56694084022E50A701EE5672492
:102C33002CFFE56634F7FE900043E0FD7C00123A7A
:102C4300C8EF2567F567EE3566F566D3E56794F655
:102C5300E56694094022E50A701EE5672428FFE52E
:102C63006634F6FE900043E0FD7C00123AC8EF257F
:102C730067F567EE3566F566D3E56794A0E5669478
:102C83000A4022E50A701EE5672488FFE56634F5ED
:102C9300FE900043E0FD7C00123AC8EF2567F5671C
:102CA300EE3566F566D3E567944AE566940B4022F4
:102CB300E50A701EE56724DEFFE56634F4FE900046
:102CC30043E0FD7C00123AC8EF2567F567EE3566F1
:102CD300F566D3E567949AE566940B4022E50A709E
:102CE3001EE5672484FFE56634F4FE900043E0FDAF
:102CF3007C00123AC8EF2567F567EE3566F566D3B3
:102D0300E5679426E566940C4022E50A701EE567A4
:102D130024E4FFE56634F3FE900043E0FD7C0012FB
:102D23003AC8EF2567F567EE3566F566D3E5679430
:102D3300A0E566940F5003022F2275661375677E14
:102D4300022F22856866856967AC68AD69E412392C
:102D5300FC7BCD7ACC790C784012395AE4FBFA79B2
:102D6300A07843123866123A358E668F67D3E567CB
:102D73009454E5669401401FE56724B6FFE5663485
:102D8300FEFE900045E0FD7C00123AC8C3E5679F54
:102D9300F567E5669EF566D3E567943AE5669402C2
:102DA300401FE56724D0FFE56634FDFE900044E054
:102DB300FD7C00123AC8C3E5679FF567E5669EF59B
:102DC30066D3E56794ACE5669403401FE567247218
:102DD300FFE56634FCFE900044E0FD7C00123AC837
:102DE300C3E5679FF567E5669EF566D3E5679414CB
:102DF300E5669405401FE567240AFFE56634FBFE9C
:102E0300900044E0FD7C00123AC8C3E5679FF56774
:102E1300E5669EF566D3E56794B8E5669406401FBC
:102E2300E567245CFFE56634F9FE900044E0FD7C31
:102E330000123AC8C3E5679FF567E5669EF566D35A
:102E4300E567947AE5669408401CE567249AFFE5F4
:102E53006634F7FE7C007D1C123AC8C3E5679FF514
:102E630067E5669EF566D3E5679432E566940A40A6
:102E73001FE56724ECFFE56634F5FE900045E0FDB1
:102E83007C00123AC8C3E5679FF567E5669EF56661
:102E9300D3E56794A4E566940B401FE5672470FFB0
:102EA300E56634F4FE900045E0FD7C00123AC8C3A9
:102EB300E5679FF567E5669EF566D3E56794B7E535
:102EC30066940D401FE56724AEFFE56634F2FE907D
:102ED3000045E0FD7C00123AC8C3E5679FF567E54E
:102EE300669EF566D3E5679490E566940F401FE50B
:102EF3006724E2FFE56634F0FE900046E0FD7C00C7
:102F0300123AC8C3E5679FF567E5669EF566D3E5A4
:102F1300679488E5669413400675661775676FAE08
:102F230066AF67228E628F63E4F509E5086401608A
:102F330003023090D3E563948AE5629401AC62ADF9
:102F4300635030E41239FC7BD77AA379B0783F120F
:102F5300395AA804A905AA06AB07E4FFFE7DA07CA5
:102F630043123862123A358E648F65750A01E4F5AF
:102F7300088026E41239FC7BD77AA379B0783F1214
:102F8300395AE4FBFA79A078C3123866123A358EBF
:102F9300648F65E4F50A750801856466856567D302
:102FA300E5659428E56494004022E50A701EE56512
:102FB3002428FFE43564FE90004DE0FD7C00123AC6
:102FC300C8C3E5679FF567E5669EF566D3E5659437
:102FD300B6E56494034023E50A701FE565244AFFC0
:102FE300E56434FCFE90004CE0FD7C00123AC8C35B
:102FF300E5679FF567E5669EF566D3E565949EE50F
:103003006494074023E50A701FE5652462FFE564C5
:1030130034F8FE90004CE0FD7C00123AC8C3E5672B
:103023009FF567E5669EF566D3E5659428E56494A8
:103033000A4023E50A701FE56524D8FFE56434F5EB
:10304300FE90004CE0FD7C00123AC8C3E5679FF593
:1030530067E5669EF566D3E5659480E564940C5058
:10306300030233BFE50A60030233BFE5652480FF33
:10307300E56434F3FE90004CE0FD7C00123AC8C3D3
:10308300E5679FF567E5669EF5660233BFAC62AD03
:1030930063E41239FC7BD77AA379B0783F12395AAB
:1030A300E4FBFA79A07843123866123A358E648FBE
:1030B30065856466856567C3E5659414E564940571
:1030C300401DE42565FFE56434FBFE90004EE0FD02
:1030D3007C00123AC8EF2567F567EE3566F566C3DF
:1030E300E5659498E5649408401EE5652468FFE56A
:1030F3006434F7FE900050E0FD7C00123AC8EF25DF
:1031030067F567EE3566F566C3E56594B2E56494E5
:103113000C401EE565244EFFE56434F3FE90004E3B
:10312300E0FD7C00123AC8EF2567F567EE3566F5DA
:1031330066C3E5659404E5649410401EE56524FCCC
:10314300FFE56434EFFE90004EE0FD7C00123AC8C8
:10315300EF2567F567EE3566F566C3E5659488E5A3
:10316300649413401EE5652478FFE56434ECFE9017
:103173000050E0FD7C00123AC8EF2567F567EE3595
:1031830066F566C3E56594A8E5649416401EE56597
:103193002458FFE56434E9FE900050E0FD7C001202
:1031A3003AC8EF2567F567EE3566F566C3E56494BF
:1031B30019401DE42565FFE56434E7FE90004FE008
:1031C300FD7C00123AC8EF2567F567EE3566F566B4
:1031D300C3E56594A2E564941C401EE565245EFF87
:1031E300E56434E3FE90004EE0FD7C00123AC8EF44
:1031F3002567F567EE3566F566C3E565940EE56408
:10320300941F401EE56524F2FFE56434E0FE900060
:103213004EE0FD7C00123AC8EF2567F567EE356690
:10322300F566C3E56594FCE5649421401EE56524D9
:1032330004FFE56434DEFE90004EE0FD7C00123AAC
:10324300C8EF2567F567EE3566F566C3E56594EA6D
:10325300E5649424401EE5652416FFE56434DBFE33
:1032630090004FE0FD7C00123AC8EF2567F567EE4A
:103273003566F566C3E56594ACE5649426401EE5C2
:10328300652454FFE56434D9FE900051E0FD7C00D1
:10329300123AC8EF2567F567EE3566F566C3E5654F
:1032A3009404E5649429401EE56524FCFFE5643439
:1032B300D6FE900050E0FD7C00123AC8EF2567F57A
:1032C30067EE3566F566C3E56594F4E564942940D5
:1032D3001EE565240CFFE56434D6FE900051E0FD45
:1032E3007C00123AC8EF2567F567EE3566F566C3CD
:1032F300E5659488E564942C401EE5652478FFE534
:103303006434D3FE90004FE0FD7C00123AC8EF25F1
:1033130067F567EE3566F566C3E5659418E564946D
:103323002E401EE56524E8FFE56434D1FE9000518C
:10333300E0FD7C00123AC8EF2567F567EE3566F5C8
:1033430066C3E56594DAE564942F401EE56524269B
:10335300FFE56434D0FE900051E0FD7C00123AC8D2
:10336300EF2567F567EE3566F566C3E56594CEE54B
:10337300649431401EE5652432FFE56434CEFE904B
:10338300004CE0FD7C00123AC8EF2567F567EE3587
:1033930066F566C3E5659458E5649434401EE565B7
:1033A30024A8FFE56434CBFE90004CE0FD7C0012C2
:1033B3003AC8EF2567F567EE3566F566AE66AF6723
:1033C300228E648F65E4F509E50864017066D3E530
:1033D3006594B5E5649403AC64AD655031E412398A
:1033E300FC7BA47A70793D784012395AA804A90568
:1033F300AA06AB07E4FFFE7DA07C43123862123AB3
:10340300358E668F67750A01E4F50802385AE412AF
:1034130039FC7BA47A70793D784012395AE4FBFA7F
:1034230079A078C3123866123A358E668F67E4F551
:103433000A02385AAC64AD65E41239FC7BA47A7095
:10344300793D784012395AE4FBFA79A0784312386F
:1034530066123A358E668F67D3E565941AE56494F0
:1034630004401FE5652418FFE56434FCFE90001159
:10347300E0FD7C00123AC8C3E5679FF567E5669EE9
:10348300F566D3E56594F1E5649409401FE5652489
:103493001EFFE56434F6FE900011E0FD7C00123A55
:1034A300C8C3E5679FF567E5669EF566D3E5659452
:1034B30006E5649411401FE5652402FFE56434EFDB
:1034C300FE900012E0FD7C00123AC8C3E5679FF549
:1034D30067E5669EF566D3E5659446E564941E400C
:1034E3001EE42565FFE56434E2FE900013E0FD7CF5
:1034F30000123AC8C3E5679FF567E5669EF566D394
:10350300E565949AE5649429401FE5652452FFE537
:103513006434D6FE900013E0FD7C00123AC8C3E584
:10352300679FF567E5669EF566D3E56594F2E56406
:10353300942B401EE5652440FFE56434D4FE9000DF
:1035430013E0FD7C00123AC8EF2567F567EE356698
:10355300F566D3E5659448E564943A401FE5652430
:1035630062FFE56434C6FE900013E0FD7C00123A6E
:10357300C8C3E5679FF567E5669EF566D3E5659481
:103583003CE564943C401EE56524D8FFE56434C300
:10359300FE900012E0FD7C00123AC8EF2567F56744
:1035A300EE3566F566D3E56594D4E5649444401F2F
:1035B300E5652440FFE56434BBFE900014E0FD7C28
:1035C30000123AC8C3E5679FF567E5669EF566D3C3
:1035D300E56594BCE5649448401EE5652458FFE521
:1035E3006434B7FE900012E0FD7C00123AC8EF2568
:1035F30067F567EE3566F566D3E565948CE5649407
:1036030050401FE5652488FFE56434AFFE90001346
:10361300E0FD7C00123AC8C3E5679FF567E5669E47
:10362300F566D3E565945CE5649458401EE565242E
:10363300B8FFE56434A7FE900012E0FD7C00123A67
:10364300C8EF2567F567EE3566F566D3E56594380B
:10365300E564945E401FE56524DCFFE56434A1FE68
:10366300900012E0FD7C00123AC8C3E5679FF5673E
:10367300E5669EF566D3E56594D0E5649466401EE1
:10368300E5652444FFE5643499FE900014E0FD7C75
:1036930000123AC8EF2567F567EE3566F566D3E5A0
:1036A300659454E564946A401FE5652424FFE5644A
:1036B3003496FE900013E0FD7C00123AC8C3E56720
:1036C3009FF567E5669EF566D3E56594B4E5649476
:1036D30073401FE5652460FFE564348CFE9000139E
:1036E300E0FD7C00123AC8C3E5679FF567E5669E77
:1036F300F566D3E56594DCE564947D401FE56524B8
:1037030038FFE5643482FE900013E0FD7C00123A3A
:10371300C8C3E5679FF567E5669EF566AE64AF656A
:10372300E4FCFD7BA07A87F9F8C3123B2B502CE510
:10373300652474FFE5643478FEE434FFFDE434FF6C
:10374300FCC007900012E0FBE4FAF8D0071252968F
:10375300C3E5679FF567E5669EF566AE64AF65E40E
:10376300FCFD7BB47A8CF9F8C3123B2B502CE56536
:103773002460FFE5643473FEE434FFFDE434FFFCAE
:10378300C007900013E0FBE4FAF8D007125296C387
:10379300E5679FF567E5669EF566AE64AF65E4FC95
:1037A300FD7BDC7A96F9F8C3123B2B502CE565249C
:1037B30038FFE5643469FEE434FFFDE434FFFCC004
:1037C30007900013E0FBE4FAF8D007125296C3E522
:1037D300679FF567E5669EF566AE64AF65E4FCFD3D
:1037E3007B8C7A9BF9F8C3123B2B502CE56524881C
:1037F300FFE5643464FEE434FFFDE434FFFCC007FA
:10380300900012E0FBE4FAF8D007125296C3E56782
:103813009FF567E5669EF566AE64AF65E4FCFD7BE8
:103823002C7AABF9F8C3123B2B502CE56524E8FF47
:10383300E5643454FEE434FFFDE434FFFCC0079038
:103843000011E0FBE4FAF8D007125296C3E5679F34
:10385300F567E5669EF566AE66AF6722023AA1E8B4
:103863006480F8E933E83360110460F0ED33EC333E
:103873007009E8FCE9FDEAFEEBFF220460DED3EB0E
:103883009FEA9EE99DE8C2E78CF0C2F795F0400CF1
:10389300E8CCF8E9CDF9EACEFAEBCFFB123A6C8526
:1038A300D0F05804700320D5B3E80470075002B277
:1038B300D5023AAB92D5EC0460F7E4CCC0E0C398F0
:1038C300F8603B94186008400DD0E0FB023A83E4B3
:1038D300FBFAC9FC8028E830E406E4C9FBE4CAFC2F
:1038E300E830E305E4C9CACBFCE854076010F8C329
:1038F300E913F9EA13FAEB13FBEC13FCD8F130F5F7
:103903002FC3E49CFCEF9BFFEE9AFEED99FDD0E004
:10391300FBEF4E4D4C701222DB03023AA8EC2CFC59
:10392300EF33FFEE33FEED33FDED30E7EB023A8389
:10393300EF2BFFEE3AFEED39FDD0E0FB50130BBB4E
:103943000003023AABED13FDEE13FEEF13FFEC138E
:10395300FC023A83023AABEC5D046005E85904705B
:1039630003023AA1123A6C580460F6EC4860F2EC98
:103973007004FDFEFF22C860DB2481C85009C39890
:1039830060025006023AA89850CAF582E9294B4AC8
:103993007005AB82023A9775F0007C1A7880C3EF0A
:1039A3009BEE9AED99400DC3EF9BFFEE9AFEED99C6
:1039B300FDE842F0DC23ACF0D0E0FFD0E0FED0E045
:1039C300FDAB8220E7101BEB60BAEC2CFCEF33FF5E
:1039D300EE33FEED33FD023A83E803F830E705C02A
:1039E300F075F000EF2FFFEE33FEED33FD40B830FE
:1039F300E7C280AA75F020800E75F010800575F07F
:103A0300087D007E007F003392D530D503123B1D25
:103A1300EC334010EF33FFEE33FEED33FDEC33FCBC
:103A2300D5F0ED22E5F0247EA2D513CC92E7CDCEDE
:103A3300FF22EDD2E7CD33EC3392D524814006E467
:103A4300FFFEFDFC22FCE4CFCECDCC24E05011746C
:103A5300FF80EDC3CC13CCCD13CDCE13CECF13CF7C
:103A63000470F030D5DE023B1DE9D2E7C933E833F9
:103A7300F892D5EDD2E7CD33EC33FC5002B2D52228
:103A8300EC30E7100FBF000C0EBE00080DBD0004A4
:103A93000BEB6014A2D5EB13FCED92E7FD2274FF50
:103AA300FCFDFEFF22E480F8A2D574FF13FC7D80A9
:103AB300E480EFEF8DF0A4A8F0CF8CF0A428CE8D96
:103AC300F0A42EFE22BC000BBE0029EF8DF084FF74
:103AD300ADF022E4CCF875F008EF2FFFEE33FEECE7
:103AE30033FCEE9DEC984005FCEE9DFE0FD5F0E90E
:103AF300E4CEFD22EDF8F5F0EE8420D21CFEADF00D
:103B030075F008EF2FFFED33FD4007985006D5F011
:103B1300F222C398FD0FD5F0EA22C3E49FFFE49E8F
:103B2300FEE49DFDE49CFC22EB9FF5F0EA9E42F04F
:103B3300E99D42F0EC6480C864809845F02275F0FA
:103B430008758200EF2FFFEE33FECD33CDCC33CC9F
:103B5300C58233C5829BED9AEC99E58298400CF5BA
:103B630082EE9BFEED9AFDEC99FC0FD5F0D6E4CEE8
:103B7300FBE4CDFAE4CCF9A88222B800C1B900591C
:103B8300BA002DEC8BF084CFCECDFCE5F0CBF978E9
:103B930018EF2FFFEE33FEED33FDEC33FCEB33FB7D
:103BA30010D703994004EB99FB0FD8E5E4F9FA2207
:103BB3007818EF2FFFEE33FEED33FDEC33FCC93302
:103BC300C910D7059BE99A4007EC9BFCE99AF90FCA
:103BD300D8E0E4C9FAE4CCFB2275F010EF2FFFEE36
:103BE30033FEED33FDCC33CCC833C810D7079BEC81
:103BF3009AE899400AED9BFDEC9AFCE899F80FD5F9
:103C0300F0DAE4CDFBE4CCFAE4C8F9228E648F65E4
:103C1300E50864017049D3E5659468E56494005050
:103C230034AC64AD65E41239FC7B487AE1790A78F7
:103C33004012395AA804A905AA06AB07E4FFFEFD02
:103C43007C42123862123A358E668F67750A01E438
:103C5300F508023F59E4F50AF566F567023F59ACEA
:103C630064AD65E41239FC7BCD7ACC794C78401293
:103C7300395AE4FBFAF97842123866123A35AB073F
:103C8300AA068A668B67C3EB9432EA9400401DEB65
:103C930024CEFFEA34FFFE900031E0FD7C00123AAF
:103CA300C8C3E5679FF567E5669EF566C3EB946D4C
:103CB300EA9400401DEB2493FFEA34FFFE900030AA
:103CC300E0FD7C00123AC8C3E5679FF567E5669E91
:103CD300F566C3EB94AEEA9400401DEB2452FFEA71
:103CE30034FFFE900032E0FD7C00123AC8C3E56762
:103CF3009FF567E5669EF566C3EB94F8EA9400408A
:103D03001DEB2408FFEA34FFFE900033E0FD7C0046
:103D1300123AC8C3E5679FF567E5669EF566C3EB90
:103D23009471EA9401401DEB248FFFEA34FEFE9068
:103D33000034E0FD7C00123AC8C3E5679FF567E5F0
:103D4300669EF566C3EB94C8EA9401401DEB2438E4
:103D5300FFEA34FEFE900035E0FD7C00123AC8C352
:103D6300E5679FF567E5669EF566C3EB944FEA94B6
:103D730002401DEB24B1FFEA34FDFE900036E0FD66
:103D83007C00123AC8C3E5679FF567E5669EF56652
:103D9300C3EB941CEA9403401DEB24E4FFEA34FCD8
:103DA300FE900036E0FD7C00123AC8C3E5679FF53C
:103DB30067E5669EF566C3EB94F2EA9403401DEB58
:103DC300240EFFEA34FCFE900038E0FD7C00123A3A
:103DD300C8C3E5679FF567E5669EF566C3EB942662
:103DE300EA9405401DEB24DAFFEA34FAFE9000362C
:103DF300E0FD7C00123AC8C3E5679FF567E5669E60
:103E0300F566C3EB9484EA9406401DEB247CFFEA39
:103E130034F9FE90003AE0FD7C00123AC8C3E5672E
:103E23009FF567E5669EF566C3EB946DEA940840DB
:103E33001DEB2493FFEA34F7FE900038E0FD7C008D
:103E4300123AC8C3E5679FF567E5669EF566C3EB5F
:103E5300946DEA9409401DEB2493FFEA34F6FE9037
:103E6300003AE0FD7C00123AC8C3E5679FF567E5B9
:103E7300669EF566C3EB9441EA940B401DEB24BFA9
:103E8300FFEA34F4FE900039E0FD7C00123AC8C327
:103E9300E5679FF567E5669EF566C3EB94C9EA940B
:103EA3000C401DEB2437FFEA34F3FE90003DE0FDA8
:103EB3007C00123AC8C3E5679FF567E5669EF56621
:103EC300C3EB9485EA940E401DEB247BFFEA34F1A7
:103ED300FE90003EE0FD7C00123AC8C3E5679FF503
:103EE30067E5669EF566C3EB941CEA9411401DEBEF
:103EF30024E4FFEA34EEFE90003EE0FD7C00123A3B
:103F0300C8C3E5679FF567E5669EF566C3EB94D680
:103F1300EA9413401CEB242AFFEA34ECFE90003EA3
:103F2300E0FD7C00123AC8EF2567F567EE3566F5CC
:103F330066C3EB94B2EA9414401CEB244EFFEA34BC
:103F4300EBFE90003EE0FD7C00123AC8EF2567F5DA
:103F530067EE3566F566AE66AF67228E648F65E5FC
:103F63000864017049D3E5679467E56694005034AB
:103F7300AC64AD65E41239FC7B487AE1790A784098
:103F830012395AA804A905AA06AB07E4FFFEFD7C73
:103F930042123862123A358E668F67750A01E4F56C
:103FA300080242A7E4F50AF566F5670242A7AC6486
:103FB300AD65E41239FC7B717A3D794A7840123958
:103FC3005AE4FBFAF97842123866123A35AB07AA7B
:103FD300068A668B67C3EB9445EA9400401DEB2485
:103FE300C5FFEA34FFFE900021E0FD7C00123AC8D1
:103FF300C3E5679FF567E5669EF566C3EB946DEAD7
:104003009400401DEB2493FFEA34FFFE900022E06E
:10401300FD7C00123AC8C3E5679FF567E5669EF528
:1040230066C3EB9499EA9400401DEB2467FFEA34DE
:10403300FFFE900023E0FD7C00123AC8C3E5679FB2
:10404300F567E5669EF566C3EB94C7EA9400401DE9
:10405300EB2439FFEA34FFFE900024E0FD7C0012DC
:104063003AC8C3E5679FF567E5669EF566C3EB94BB
:1040730011EA9401401DEB24F0FFEA34FEFE9000A8
:1040830025E0FD7C00123AC8C3E5679FF567E56646
:104093009EF566C3EB947BEA9401401DEB2486FFF7
:1040A300EA34FEFE900023E0FD7C00123AC8C3E52B
:1040B300679FF567E5669EF566C3EA9402401DEBCC
:1040C3002401FFEA34FEFE900026E0FD7C00123A54
:1040D300C8C3E5679FF567E5669EF566C3EB94A1E4
:1040E300EA9402401DEB2460FFEA34FDFE900027B2
:1040F300E0FD7C00123AC8C3E5679FF567E5669E5D
:10410300F566C3EB9460EA9403401DEB24A1FFEA38
:1041130034FCFE900028E0FD7C00123AC8C3E5673A
:104123009FF567E5669EF566C3EB944AEA940440FF
:104133001DEB24B7FFEA34FBFE900029E0FD7C0071
:10414300123AC8C3E5679FF567E5669EF566C3EB5C
:104153009462EA9405401DEB249FFFEA34FAFE9033
:10416300002AE0FD7C00123AC8C3E5679FF567E5C6
:10417300669EF566C3EB94A9EA9406401DEB2458AA
:10418300FFEA34F9FE90002BE0FD7C00123AC8C32D
:10419300E5679FF567E5669EF566C3EB94B0EA9421
:1041A30007401DEB2451FFEA34F8FE90002DE0FD9B
:1041B3007C00123AC8C3E5679FF567E5669EF5661E
:1041C300C3EB94E6EA9408401DEB241BFFEA34F7A3
:1041D300FE90002CE0FD7C00123AC8C3E5679FF512
:1041E30067E5669EF566C3EB9426EA940A401DEBE9
:1041F30024DBFFEA34F5FE90002DE0FD7C00123A4B
:10420300C8C3E5679FF567E5669EF566C3EB949BB8
:10421300EA940B401DEB2466FFEA34F4FE90002E73
:10422300E0FD7C00123AC8C3E5679FF567E5669E2B
:10423300F566C3EB9448EA940D401DEB241DFFEA99
:1042430034F3FE90002EE0FD7C00123AC8C3E5670C
:104253009FF567E5669EF566C3EB9403EA940F400A
:104263001DEB24FEFFEA34F0FE90002EE0FD7C00FF
:10427300123AC8C3E5679FF567E5669EF566C3EB2B
:104283009456EA9411401DEB24ABFFEA34EEFE9002
:10429300002FE0FD7C00123AC8C3E5679FF567E590
:1042A300669EF566AE66AF6722C28CAF89EF4401A6
:1042B300F589F589758CDCE4F58AC28D75E507759A
:1042C300E64675E6B9AFE2EF4408F5E2F5E275E5D7
:1042D3000675E64675E6B9D28CA28DB340FBC28D56
:1042E300C28C75E50775E64675E6B9AFE2EF4403A0
:1042F300F5E2F5E275E50675E64675E6B975E50797
:1043030075E64675E6B9AFE2EF54FBF5E2F5E27503
:10431300E50675E64675E6B9125597D296D2A2120E
:1043230055FE12551E1257A01257B0125658125668
:10433300ABE4FFFE1254C01256C5E4FFFE12556FE4
:10434300E4FF125736E4F53AFF1255BAEF644E70A4
:10435300227F011255BABF451A7F021255BABF57C1
:10436300127F031255BABF5A0A7F041255BAEF647B
:10437300A560297D4EE4FF12561C7D457F01125630
:104383001C7D577F0212561C7D5A7F0312561C7DDB
:10439300A57F0412561C125241124C341256C57F8B
:1043A300121255BA8F397F131255BA8F567F1412D2
:1043B30055BA8F307F161256748E288F297F1812A4
:1043C30056748E5B8F5C7F1A1256748E4C8F4D7FA2
:1043D3001C1256748E458F467F1E1256748E3C8F68
:1043E3003D7F201256748E358F367F221256748E7F
:1043F300318F327F241256748E2A8F2B7F261256CA
:10440300748E4A8F4B7F281256748E488F497F2AA9
:104413001255BA8F507F2B1255BA8F5D7F2C1255D0
:10442300BA8F577F2E1255BA8F587F2F1255BA8FD6
:10443300597F301255BA8F527F321255BA8F447F4B
:10444300341256748E538F547F361256748E3E8FA9
:104453003F7F381256748E2E8F2F7F3A1256748EEA
:10446300258F267F3C1255BA8F41E42550F538E459
:104473003420F537125241D2A9D28CD2ABD28ED28C
:10448300AF753B0112507FE4F539F52CE539700720
:10449300E54430E0278022E539B40107E54430E103
:1044A3001B8016E539B40207E54430E20F800AE5C4
:1044B30039B40308E54430E303754701E52C146080
:1044C3002614602814602A14602C146031240570AB
:1044D300EBE539700DE54430E4057522018003E412
:1044E300F52212450680D51249F980D012472D8056
:1044F300CB12489380C675340112002680BE124B3E
:104503005B80B9125170BF0106752C0402472878ED
:1045130086E6700F12570E8E3C8F3D853C23853DFA
:10452300247602787FE660030246B77610124F477F
:104533008E608F61E547B40143E508B4013EC3E5EE
:10454300619529E56095284018E5292524FFE5288C
:104553003523FEC3E5619FF561E5609EF560024585
:10456300F4C3E5299524FFE5289523FEC3EF956160
:10457300F561EE9560F560E4F5088075E547B401F3
:104583001AE5087016E5612529FFE5603528FEE583
:10459300242FF561E5233EF5608056E5477010E56D
:1045A30008B4010BE5612529FFE5603528801CE58A
:1045B30047703EE508703AC3E5619529E5609528A3
:1045C3004017E5619529FFE5609528FEC3EF952423
:1045D300F561EE9523F5608018C3E5299561FFE544
:1045E300289560FEE5242FF561E5233EF560750807
:1045F30001E522AC53AD54AE60AF61B40110123A81
:10460300C8C3E5619FF561E5609EF560800D123AD0
:10461300C8EF2561F561EE3560F560E55AB4010632
:1046230074FFF560F561E5307011AF61AE60121390
:104633004A8E628F63E556707B8072E530B4011158
:10464300AF61AE601233C48E628F63E556706580CE
:104653005CE530B40211AF61AE601229B78E628F90
:1046630063E556704F8046E530B40311AF61AE6029
:10467300120AE88E628F63E55670398030E530B4F4
:104683000414750901AF61AE60123F5E8E628F63E1
:10469300E55670208017E530B40519750901AF613F
:1046A300AE60123C0F8E628F63E5567007124E8E1A
:1046B3008E628F637880E670071250FF78807608E9
:1046C300787EE670267610AD24AC237F01121B4260
:1046D300D3E563954BE562954A400EE5639549E55D
:1046E3006295485004D2B48002C2B47883E670184D
:1046F300208407AF63AE6212556F208507AF63AEA8
:10470300621254C0788376107882E670182001090B
:10471300856399D2017601800AE562F599C2017831
:1047230082763BD299AE62AF6322125170BF01060B
:10473300752C0402488E787FE6600302481B7610CE
:10474300124F478E608F61E547B40124E508B40139
:104753001FD3E561953DE560953C40028047C3E585
:104763003D9561F561E53C9560F560E4F50880539E
:10477300E547B40106E50870028009E5477013E5D3
:1047830008B4010EE53D2561F561E53C3560F56052
:104793008031E547702DE5087029C3E561953DE556
:1047A30060953C400EE561953DF561E560953CF50E
:1047B300608010C3E53D9561F561E53C9560F5606A
:1047C300750801D3E5369480E535940CAC2EAD2FF6
:1047D300AE60AF61400F123AC8EF2561F561EE3567
:1047E30060F560800E123AC8C3E5619FF561E5602C
:1047F3009EF560AC60AD61E41239FC7BCD7ACC7977
:104803004C784012395A123A358E608F61E55AB4AA
:10481300010674FFF560F561787EE67028AD61AC42
:10482300607F01121B42787E7608D3E561954BE5E4
:1048330060954A400EE5619549E56095485004D27C
:10484300B48002C2B47883E67018208407AF61AEE7
:104853006012556F208507AF61AE601254C0788334
:1048630076027880E670071250FF788076087882A7
:10487300E67018200109856199D2017601800AE565
:1048830060F599C2017882763BD299AE60AF61221E
:10489300125170BF0106752C040249F4787FE6605B
:1048A300030249817610124F478E608F61E547B44A
:1048B3000124E508B4011FC3E5619532E560953134
:1048C30040028047C3E5329561F561E5319560F5B6
:1048D30060E4F5088053E547B40106E508700280FB
:1048E30009E5477013E508B4010EE5322561F5616A
:1048F300E5313560F5608031E547702DE5087029B5
:10490300C3E5619532E5609531400EE5619532F579
:1049130061E5609531F5608010C3E5329561F5611D
:10492300E5319560F560750801D3E52B9400E52A20
:104933009419AC25AD26AE60AF61400F123AC8EFB3
:104943002561F561EE3560F560800E123AC8C3E566
:10495300619FF561E5609EF560AC60AD61E412397D
:10496300FC7BCD7ACC794C784012395A123A358E89
:10497300608F61E55AB4010674FFF560F561787ED6
:10498300E67028AD61AC607F01121B42787E761021
:10499300D3E561954BE560954A400EE5619549E5A0
:1049A3006095485004D2B48002C2B47883E670188C
:1049B300208407AF61AE6012556F208507AF61AEEB
:1049C300601254C0788376027880E670071250FF35
:1049D300788076087882E67018200109856199D27B
:1049E300017601800AE560F599C2017882763BD2AF
:1049F30099AE60AF6122125170BF0106752C04029B
:104A03004B56787FE66003024AE37610124F478ED7
:104A1300608F61E547B40124E508B4011FC3E56174
:104A2300954DE560954C40028047C3E54D9561F592
:104A330061E54C9560F560E4F5088053E547B40102
:104A430006E50870028009E5477013E508B4010E16
:104A5300E54D2561F561E54C3560F5608031E5474D
:104A6300702DE5087029C3E561954DE560954C40CF
:104A73000EE561954DF561E560954CF5608010C3D9
:104A8300E54D9561F561E54C9560F560750801D3D9
:104A9300E54694E4E5459444AC3EAD3FAE60AF617A
:104AA300400F123AC8EF2561F561EE3560F560807D
:104AB3000E123AC8C3E5619FF561E5609EF560E5B6
:104AC3005AB4010674FFF560F561AF61AE60122F51
:104AD300278E608F61E5567007124E8E8E608F6150
:104AE300787EE67028AD61AC607F01121B42787E50
:104AF3007610D3E561954BE560954A400EE56195E7
:104B030049E56095485004D2B48002C2B47883E684
:104B13007018208407AF61AE6012556F208507AF10
:104B230061AE601254C0788376027880E670071213
:104B330050FF788076087882E67018200109856135
:104B430099D2017601800AE560F599C201788276EF
:104B53003BD299AE60AF6122124C341256C57F121C
:104B63001255BA8F397F131255BA8F567F141255C7
:104B7300BA8F307F161256748E288F297F181256DB
:104B8300748E5B8F5C7F1A1256748E4C8F4D7F1C14
:104B93001256748E458F467F221256748E318F3291
:104BA3007F241256748E2A8F2B7F1E1256748E3CCE
:104BB3008F3D7F201256748E358F367F26125674A2
:104BC3008E4A8F4B7F281256748E488F497F2A1244
:104BD30056748F507F2B1255BA8F5D7F2C1255BAA6
:104BE3008F577F2D1255BA8F4F7F2E1255BA8F587C
:104BF3007F2F1255BA8F597F301255BA8F527F3299
:104C03001255BA8F447F341256748E538F547F36A5
:104C13001256748E3E8F3F7F381256748E2E8F2F0E
:104C23007F3A1256748E258F267F3C1255BA8F41D8
:104C33002212507FAD397F1212561CE4FD7F1312EE
:104C4300561CE4FD7F1412561CE4FDFC7F1612571C
:104C53007E7D787C057F1812577EE4FDFC7F1A1257
:104C6300577E7D527C037F1C12577EE4FDFC7F1E22
:104C730012577E7D887C137F2012577E7D287C000F
:104C83007F2212577E7DC87C007F2412577EE4FD6D
:104C9300FC7F2612577E7D887C137F2812577E7DEA
:104CA300147F2A12561C7D017F2B12561C7D017F17
:104CB3002C12561C7D037F2D12561C7D127F2E1243
:104CC300561C7D017F2F12561C7D017F3012561C0E
:104CD300E4FD7F3212561C7D017C007F3412577E27
:104CE3007D017C007F3612577E7D017C007F381268
:104CF300577E7D017C007F3A12577E7D3C7C007F8E
:104D03003C12577E025241A9057D01AA7DED640143
:104D13007069C291FEC292C290E4FC12583ED292D4
:104D230012583EC2920CBC08F20EBE02E8E4FEC268
:104D330092C290E4FCEA30E702D29012583ED2923B
:104D430012583EC292C290EA25E0FA0CBC08E6EE85
:104D53007004AA7C801ABE0104AA7B8013BE0204DD
:104D6300AA7A800CBE0304AA038005BE0402AA012A
:104D73000EBE06BBD29112583EC291ED6402704D35
:104D8300C295FEC294E4FCEA30E702D29312583E85
:104D9300D29412583EC294C293EA25E0FA0CBC089E
:104DA300E6EE7004AA7C801ABE0104AA7B8013BEBF
:104DB3000204AA7A800CBE0304AA038005BE04027F
:104DC300AA010EBE06BDD29512583EC295220143DA
:104DD30000014E00015A00097E101004023B021428
:104DE3001E0202530000023E0000022E00000225B4
:104DF300000002230000015014015D01015701016D
:104E03004F030158120159010152010151000134AC
:104E130001013A00C102C101C103010800010900F7
:104E2300010A004B001500243038404C586878C8FC
:104E3300FA49000C002028303470A0C8FF4A004013
:104E430007080A101820303840484C000000102092
:104E530028303840606C80B4E1500020000A0E1303
:104E630014161B23262A343C4046506A5000300A4D
:104E73000D10121C20283437393B40425A84FA481B
:104E8300004A002C2E32363A3E4D008E648F65E583
:104E930009703FC3E5659440E5649401401AE50851
:104EA300700BE56524C0FDE56434FE8047E56524A9
:104EB30040FDE5643401803CE508B4010BE565245D
:104EC30040FDE5643401803BC374409565FD740186
:104ED3008051C3E5659420E56494004019E50870AA
:104EE3000BE56524E0FDE56434FF8008E5652420D7
:104EF300FDE43564800DE508B40121E5652420FD5A
:104F0300E43564FCE41239FC7B667A6679E6783F23
:104F130012395A123A358E668F678023C3742095EF
:104F230065FDE49564FCE41239FC7B667A6679E6F8
:104F3300783F12395A123A358E668F67750801AE7B
:104F430066AF67221256DFEF6003024FEE532D0365
:104F5300E52DC39402404B750801E52D5403756B91
:104F630000F56C756C00F56BE521256CF56CE4358B
:104F73006BF56BE56CAE6B7807C333CE33CED8F9E4
:104F8300F56C8E6BE533C313F533256CF56CE435A3
:104F93006BF56B636CFF636BFFC3E56B94F0404889
:104FA3008041E4F508E52D5403756B00F56C756CD1
:104FB30000F56BE521256CF56CE4356BF56BE56C61
:104FC300AE6B7807C333CE33CED8F9F56C8E6BE571
:104FD30033C313F533256CF56CE4356BF56BC39470
:104FE300F04005755A018003E4F55AAE6BAF6C22AD
:104FF300787FE4F6D8FD75819D02503A0242ACE415
:1050030093A3F8E493A34003F68001F208DFF4804E
:1050130029E493A3F85407240CC8C333C4540F449E
:1050230020C8834004F456800146F6DFE4800B0178
:1050330002040810204080904DD1E47E019360BCAF
:10504300A3FF543F30E509541FFEE493A360010E10
:10505300CF54C025E060A840B8E493A3FAE493A337
:10506300F8E493A3C8C582C8CAC583CAF0A3C8C558
:1050730082C8CAC583CADFE9DEE780BE20801CE49C
:10508300F539F52C754201208403754211208503FF
:10509300754221E54464017062805D20811D75398C
:1050A30001752C0175420220840375421220850389
:1050B300754222E54464027042803D20821D7539A9
:1050C30002752C0275420420840375421420850363
:1050D300754224E54464047022801D20831D7539C4
:1050E30003752C0375420820840375421820850339
:1050F300754228E544B4080375470122E4FF1255BD
:10510300DCEF547FF5527F011255DC8F597F021279
:1051130055DC8F587F031255DCEF5407F54F7F049E
:105123001255DC8F577F051255DC8F5D7F061255B4
:10513300DC8F50E55D540364017031AD507F2A125A
:10514300561CAD5D7F2B12561CAD577F2C12561C7F
:10515300AD4F7F2D12561CAD587F2E12561CAD59E4
:105163007F2F12561CAD527F3012561C2230B210C4
:1051730030B30D30860A308707E4F54EF543805887
:1051830020B213E54E7009754E01E5434401804496
:10519300E54354FE803E20B310E54E7006E54344DC
:1051A300028024E54354FD802B208610E54E7006D3
:1051B300E54344048011E54354FB8018208719E537
:1051C3004E700DE5434408F543F543754E018008E1
:1051D300E54354F7F543F543AF4322C0E0C0D07530
:1051E300D000C000C007C28E788706787EE66001D3
:1051F30016787FE66001167887E6FF540770087813
:1052030080E6600116D200EF640F70217887F6788C
:1052130082E66001167883E66001167884E6600111
:10522300167885E66001167886E6600116758D0BA3
:10523300758BDCD28ED007D000D0D0D0E0327F0384
:105243001255DC8F4F7D407F0712563AE54F4408D5
:10525300FD7F0312563AE54F20E737AD507F061224
:10526300563AAD5D7F0512563AAD577F0412563A52
:10527300E54F4408FD7F0312563AAD587F0212569C
:105283003AAD597F0112563AE5524480FDE4FF12CC
:10529300563A22C2D5E830E70FB2D5E4C39BFBE40C
:1052A3009AFAE499F9E498F8EC30E717B2D5125278
:1052B300CC123B7DE4C39BFBE49AFAE499F9E498AE
:1052C300F88003123B7D30D50DE4C39FFFE49EFEBF
:1052D300E49DFDE49CFC22AE07125748AF06AE07DF
:1052E300750B01E47811F6EE30E704D2A08002C218
:1052F300A0D2A1125845C2A1125845EE25E0FE786E
:105303001106E6C3940840DFD2A0D2A1125845305B
:10531300A003E4F50BC2A1025845AE07E47812F6E8
:10532300D2A018F6D2A11258457812E6FF25E0F66E
:1053330030A004E64401F6C2A1125845781106E6EE
:10534300C3940840DFEE24FF92A0D2A1125845C2B5
:10535300A1D2A01258457812E6FF22AE07750C01C0
:10536300E47810F6EE30E704D2A28002C2A2D2A300
:1053730012584CC2A312584CEE25E0FE781006E6F4
:10538300C3940840DFD2A2D2A312584C30A203E444
:10539300F50CC2A302584CE47811F6D2A218F6D247
:1053A300A312584C7811E6FF25E0F630A204E64438
:1053B30001F6C2A312584C781006E6C3940840DFE6
:1053C300D2A2D2A312584CC2A3D2A212584C781123
:1053D300E6FF22AE07750D01E47810F6EE30E70420
:1053E300D2A28002C2A2D2A4125853C2A41258530A
:1053F300EE25E0FE781006E6C3940840DFD2A2D281
:10540300A412585330A203E4F50DC2A4025853AEBC
:1054130007750E01E47810F6EE30E704D2A280029D
:10542300C2A2D2A412585AC2A412585AEE25E0FEC0
:10543300781006E6C3940840DFD2A2D2A412585AC9
:1054430030A203E4F50EC2A402585AE47811F6D24E
:10545300A218F6D2961258047811E6FF25E0F6302A
:10546300A204E64401F6C296125804781006E6C375
:10547300940840DFD2A2D296125804C296D2A21246
:1054830058047811E6FF22AE07750F01E47810F691
:10549300EE30E704D2A28002C2A21257FFC29612D4
:1054A3005804EE25E0FE781006E6C3940840E112A6
:1054B30057FD30A203E4F50FC296025804AB07AAC6
:1054C30006E509700AFC7D0A123AC8AA06AB07AFC3
:1054D30003AD07AF02AC0753040F12576C7F98124A
:1054E3005412AF04125412AF0512541202582AC0B8
:1054F300E0C0D075D000C000C007C28C788806E633
:1055030054077006AF99F55E8F5F758C0B758ADC57
:10551300D28CD007D000D0D0D0E032C291C295C295
:1055230092C290C294C29312583E12583E12583EF1
:1055330012583EE4FFFE0FBF00010EE4B507F7EE7D
:10554300B401F3221252DAE4FF12531D8F2DE4FF4C
:1055530012531D8F21E4FF12531D8F337F0112530A
:105563001D8F55125816E5555480FF22E509700624
:10557300FC7D0A123AC8AA07AB06EB540F5203127A
:10558300575A7F9A1253D6AF031253D6AF02125310
:10559300D60258207593FFE4F5947580FFF5917555
:1055A30092FFF5907595247596DF75A02075B1ED82
:1055B30075B21375B02C22AD071257D07FA01253CA
:1055C3005EAF0512535E1257227FA112535E125330
:1055D3009AAE071257DFAF0622AD071257EE7FDEF2
:1055E30012548AAF0512548A12000E7FDF12548AB6
:1055F30012544EAE07125834AF0622D2A312584C9F
:1056030012584C12584CC2A2E4FFFE0FBF00010E09
:10561300E4B507F7EEB401F322AC071257D07FA02D
:1056230012535EAF0412535EAF0512535E1257DF7F
:105633007F647E000256F7AC071257EE7FDE1254EA
:105643008AAF0412548AAF0512548A1258347F6405
:105653007E0002578FD2A1125845D2A0125845128C
:105663005845125845125845C2A0E4FF0FBFFEFC2F
:1056730022AC07EC04FF1255BAAB07EB7B00FAAF81
:10568300041255BAEB2FFBE43AFEAF03227F327EBE
:1056930000D3EF9400EE9400400DE4FD0DBDFFFC3C
:1056A300EF1F70ED1E80EA2243985053C8F043C8A1
:1056B3003075CDFF75CCD075CBFF75CADCD2ACD2BB
:1056C300CA22905885E493F560F561FBFDF57AF500
:1056D3007B85617C85607D7F01024D0AE47810F64D
:1056E3001256587D9C7FD012580B7FD112554778A4
:1056F30010E6FF22D3EF9400EE9400400DE4FD0D7D
:10570300BDFFFCEF1F70ED1E80EA2220A510E4FE12
:10571300FF30A5FD30A5070FBF00010E80F622D292
:10572300A212584CD2A312584CC2A212584CC2A374
:1057330002584CEFAFA06005EF44208003EF54DF25
:10574300F5A0F5A022D2A0125845D2A1125845C205
:10575300A0125845C2A122D2A2125853D2A4125861
:1057630053C2A2125853C2A422D2A212585AD2A48C
:1057730012585AC2A212585AC2A422AB05AA04A9AB
:10578300070912561CAF01AD0202561CD3EF940059
:10579300EE94004001EFE4FF0FBFFAFC22D28C75B8
:1057A3008911758C0B758ADCE47887F622C28E75B5
:1057B3008911758D0B758BDCE47888F6223099029C
:1057C300C299309807C298859940D20232D2A21268
:1057D300584CC2A212584CC2A302584CC2A212582F
:1057E3004CD2A312584CD2A202584CD2A212580443
:1057F300C2A2125804C296025804D2A2125804D26A
:1058030096E4FF0FBF12FC221252DAAF051252E1E7
:10581300025816D2A1125845D2A0025845D2A4125A
:105823005853D2A2025853D2A412585AD2A20258A1
:105833005AC2A21257FFD2A2025804E4FF0FBF12AA
:10584300FC22E4FF0FBF12FC22E4FF0FBF12FC2275
:10585300E4FF0FBF12FC22E4FF0FBF12FC223F063E
:105863005B4F666D7D277F6F777C395E79717673C9
:10587300003738403E785870541EBF86DBCFE6EDC4
:10588300FDA7FFEFF7FCB9DEF9F1F6F380C7B8C067
:01589300BE56
:00000001FF
