:07000000020DB402000632FC
:0F000B0002135BE4FFEFC3941250030F80F72240
:03001B00020EBD15
:100023000215568C698D6AEF702990166593F563F6
:10003300901655E493F564901666E493F565E4939E
:10004300F566901660E493F567901666E493F56899
:10005300020430EF6401600302011AE56A45697026
:100063002690166593F563901655E493F564901600
:1000730066E493F565E493F566901660E493F5679B
:10008300901666E493F568E56A6401456970269005
:10009300166593F563901655E493F564901666E43C
:1000A30093F565E493F566901663E493F56790160C
:1000B30066E493F568E56A640245697026901665FF
:1000C30093F563901655E493F564901666E493F5FF
:1000D30065E493F566901660E493F567901666E41D
:1000E30093F568E56A64034569600302043090167A
:1000F3006593F563901655E493F564901666E4935F
:10010300F565E493F566901660E493F567901666DB
:10011300E493F568020430EF64027063E56A4569AD
:10012300702990166593F563901655E493F56490E2
:100133001666E493F565E493F566901660E493F52B
:1001430067901666E493F568020430E56A64014536
:1001530069600302043090166593F563901655E4C5
:1001630093F564901666E493F565E493F56690164B
:1001730063E493F567901666E493F568020430EF41
:10018300640360030202FEE56A4569702690166502
:1001930093F563901655E493F564901666E493F52E
:1001A30065E493F566901660E493F567901666E44C
:1001B30093F568E56A64014569702690166593F5C1
:1001C30063901655E493F564901666E493F565E43D
:1001D30093F566901663E493F567901666E493F5DA
:1001E30068E56A64024569702690166593F5639025
:1001F3001655E493F564901666E493F565E493F578
:1002030066901660E493F567901666E493F568E5E7
:100213006A64034569702690166593F563901655D5
:10022300E493F564901666E493F565E493F56690BC
:100233001660E493F567901666E493F568E56A64DF
:10024300044569702690166593F563901655E493FB
:10025300F564901666E493F565E493F5669016608D
:10026300E493F567901666E493F568E56A640545DB
:1002730069702690166593F563901655E493F564BB
:10028300901666E493F565E493F566901660E4933F
:10029300F567901666E493F568E56A640645697048
:1002A3002690166593F563901655E493F5649016BE
:1002B30066E493F565E493F566901660E493F56759
:1002C300901666E493F568E56A640745696003027E
:1002D300043090166593F563901655E493F5649096
:1002E3001666E493F565E493F566901660E493F57A
:1002F30067901666E493F568020430EFB404119036
:100303001665E493F563901656E493F5640204309E
:10031300EFB40511901665E493F563901656E493D4
:10032300F564020430EFB40611901665E493F563A7
:10033300901656E493F564020430EFB40711901657
:1003430065E493F563901656E493F564020430EF85
:10035300B40811901665E493F563901656E493F58B
:1003630064020430EFB40911901665E493F56390C9
:100373001656E493F564020430EFB40A119016653F
:10038300E493F563901656E493F564020430EFB4F6
:100393000B11901665E493F563901656E493F56498
:1003A300020430EFB40C10901665E493F5639016D5
:1003B30056E493F5648076EFB40D10901665E493DC
:1003C300F563901656E493F5648062EFB40E1090D3
:1003D3001665E493F563901656E493F564804EEF47
:1003E300B40F10901665E493F563901656E493F5F5
:1003F30064803AEFB41010901665E493F563901699
:1004030056E493F5648026EFB41110901665E493D7
:10041300F563901656E493F5648012EFB4130E90CF
:100423001665E493F563901656E493F564C3E569A2
:1004330094004035E56A940AE5699400502B9016C0
:1004430066E493F565E493F56690166BE493F567BC
:10045300AE69AF6A7C007D0A1209B174542DF5822E
:1004630074163CF583E493F568C3E56A940AE56979
:1004730094004047E56A9464E5699400503D901602
:1004830066E493F565E493F566AE69AF6A7C007D37
:100493000A1209B1746B2FF58274163EF583E49347
:1004A300F567AE69AF6A7C007D0A1209B174542DF9
:1004B300F58274163CF583E493F568C3E56A9464A6
:1004C300E56994004069E56A94E8E5699403505F3F
:1004D300901666E493F565AE69AF6A7C007D64129D
:1004E30009B174542FF58274163EF583E493F566CF
:1004F300AE69AF6A7C007D641209B17E007F0ACFCA
:10050300CDCFCECCCE1209B1746B2FF58274163ECB
:10051300F583E493F567AE69AF6A7C007D0A12093F
:10052300B174542DF58274163CF583E493F568C3D6
:10053300E56A94E8E569940350030205C8E56A9403
:1005430010E5699427507EAE69AF6A7C037DE8129B
:1005530009B174542FF58274163EF583E493F5655F
:10056300AE69AF6A7C037DE81209B17E007F64CF78
:10057300CDCFCECCCE1209B174542FF58274163E72
:10058300F583E493F566AE69AF6A7C007D64120976
:10059300B17E007F0ACFCDCFCECCCE1209B1746B22
:1005A3002FF58274163EF583E493F567AE69AF6A5F
:1005B3007C007D0A1209B174542DF58274163CF542
:1005C30083E493F568C3E56A9410E56994275003BF
:1005D300020691AE69AF6AE4FCFD7BA07A867901DD
:1005E300F8D3120AD45003020691AE69AF6A7C278E
:1005F3007D101209B174542FF58274163EF583E40D
:1006030093F564AE69AF6A7C277D101209B17E034E
:100613007FE8CFCDCFCECCCE1209B174542FF58263
:1006230074163EF583E493F565AE69AF6A7C037D8A
:10063300E81209B17E007F64CFCDCFCECCCE1209B4
:10064300B174542FF58274163EF583E493F566AEC8
:1006530069AF6A7C007D641209B17E007F0ACFCD49
:10066300CFCECCCE1209B1746B2FF58274163EF542
:1006730083E493F567AE69AF6A7C007D0A1209B122
:1006830074542DF58274163CF583E493F5688566FE
:100693006E85656F856470856371AB67AD687F0137
:1006A300120D1B85666E85656F856470856371ABFE
:1006B30067AD687F02120D1B221213A212141F12C0
:1006C30012BC120F9E1214D11214E5121603121348
:1006D30035121475E4FFFE1211E7E4FFFE1211ACAC
:1006E300E4FF12148FE4F536C2A8FF121380EF64FF
:1006F3004E70257F01121380EFB4451C7F02121345
:1007030080EFB457137F03121380EFB45A0A7F04A8
:10071300121380EF64A560267D4EE4FF1213C27DA1
:10072300457F011213C27D577F021213C27D5A7F88
:10073300031213C27DA57F041213C2120C7B120F86
:100743009E120AFB7F121213808F357F13121380C0
:100753008F507F141213808F2E7F151212E58E2473
:100763008F257F171212E58E548F557F191212E5CC
:100773008E4C8F4D7F1B1212E58E408F417F1D12D1
:1007830012E58E2F8F307F1F1212E58E268F277F63
:10079300211212E58E388F397F231212E58E318FA5
:1007A300327F251212E58E4A8F4B7F271212E58E78
:1007B300478F487F291213808F4F7F2A1213808F10
:1007C300567F2B1213808F517F2D1213808F527FF0
:1007D3002E1213808F537F321212E58F3DE54F2483
:1007E30077F534E43407F533D2AF753701121222AB
:1007F3007F141213808F35E53514601514601714B8
:10080300601914601B14601D240570EB12083080FE
:10081300E6120F5480E112125A80DC12128B80D739
:10082300120BD480D2120E4080CD80CB22120F093E
:10083300EFB4010675350502099A1214008E598F1B
:100843005AE52E7023C3E5559525FDE5549524FC03
:100853001209B1AC59AD5A12099F8E598F5A12160B
:100863000C8E5B8F5C02099AE52EB40127C3E55514
:100873009525FDE5549524FCAE59AF5A1209B1AC48
:1008830059AD5A12099F8E598F5A1216158E5B8FC6
:100893005C02099AE52EB40227C3E5559525FDE5CB
:1008A300549524FCAE59AF5A1209B1AC59AD5A1242
:1008B300099F8E598F5A12161E8E5B8F5C02099AFE
:1008C300E52EB40327C3E5559525FDE5549524FC92
:1008D300AE59AF5A1209B1AC59AD5A12099F8E598C
:1008E3008F5A1216278E5B8F5C02099AE52EB40489
:1008F30027C3E5559525FDE5549524FCAE59AF5A1C
:100903001209B1AC59AD5A12099F8E598F5A12165A
:10091300308E5B8F5C02099AE52EB40526C3E5553C
:100923009525FDE5549524FCAE59AF5A1209B1AC97
:1009330059AD5A12099F8E598F5A1216398E5B8FF1
:100943005C8054E52EB40626C3E5559525FDE55494
:100953009524FCAE59AF5A1209B1AC59AD5A1209DC
:100963009F8E598F5A1216428E5B8F5C8029E52E1B
:10097300B40724C3E5559525FDE5549524FCAE59EC
:10098300AF5A1209B1AC59AD5A12099F8E598F5AF9
:1009930012164B8E5B8F5CAE5BAF5C22EF8DF0A4C7
:1009A300A8F0CF8CF0A428CE8DF0A42EFE22BC009C
:1009B3000BBE0029EF8DF084FFADF022E4CCF87577
:1009C300F008EF2FFFEE33FEEC33FCEE9DEC984086
:1009D30005FCEE9DFE0FD5F0E9E4CEFD22EDF8F522
:1009E300F0EE8420D21CFEADF075F008EF2FFFED82
:1009F30033FD4007985006D5F0F222C398FD0FD57A
:100A0300F0EA2275F008758200EF2FFFEE33FECD7A
:100A130033CDCC33CCC58233C5829BED9AEC99E5BB
:100A23008298400CF582EE9BFEED9AFDEC99FC0F4B
:100A3300D5F0D6E4CEFBE4CDFAE4CCF9A88222B813
:100A430000C1B90059BA002DEC8BF084CFCECDFC98
:100A5300E5F0CBF97818EF2FFFEE33FEED33FDEC25
:100A630033FCEB33FB10D703994004EB99FB0FD80E
:100A7300E5E4F9FA227818EF2FFFEE33FEED33FDAC
:100A8300EC33FCC933C910D7059BE99A4007EC9BAB
:100A9300FCE99AF90FD8E0E4C9FAE4CCFB2275F03B
:100AA30010EF2FFFEE33FEED33FDCC33CCC833C84C
:100AB30010D7079BEC9AE899400AED9BFDEC9AFC52
:100AC300E899F80FD5F0DAE4CDFBE4CCFAE4C8F901
:100AD30022EB9FF5F0EA9E42F0E99D42F0EC648040
:100AE300C864809845F022EB9FF5F0EA9E42F0E956
:100AF3009D42F0E89C45F022AE80E559B506047DA1
:100B03000180027D00ED30E0297F01E559B506043F
:100B13007D0180027D00ED30E4037F1122E559B5AC
:100B230006047D0180027D00ED20E503020BD37FE7
:100B33002122E559B506047D0180027D00ED30E1F7
:100B4300267F02E559B506047D0180027D00ED3064
:100B5300E4037F2122E559B506047D0180027D006F
:100B6300ED30E56C7F2222E559B506047D01800254
:100B73007D00ED30E2267F04E559B506047D018052
:100B8300027D00ED30E4037F4122E559B506047D83
:100B93000180027D00ED30E5377F4222E559B5063D
:100BA300047D0180027D00ED30E3257F08E559B522
:100BB30006047D0180027D00ED30E4037F8122E5A0
:100BC30059B506047E0180027E00EE30E5027F8285
:100BD30022120C7B120F9E7F121213808F357F130C
:100BE3001213808F507F141213808F2E7F151212D1
:100BF300E58E248F257F171212E58E548F557F19AA
:100C03001212E58E4C8F4D7F1B1212E58E408F41E1
:100C13007F211212E58E2F8F307F231212E58E264D
:100C23008F277F1D1212E58E388F397F1F1212E531
:100C33008E318F327F251212E58E4A8F4B7F27121A
:100C430012E58E478F487F291212E58F4F7F2A12B4
:100C530012E58F567F2B1212E58F517F2C1212E56E
:100C63008F4E7F2D1212E58F527F2E1212E58F5376
:100C73007F321212E58F3D22E5A0541FF5597D0501
:100C83007F121213C2E4FD7F131213C2E4FD7F141B
:100C93001213C2E4FDFC7F151214F9E4FDFC7F1767
:100CA3001214F9E4FDFC7F191214F9E4FDFC7F1B17
:100CB3001214F9E4FDFC7F1D1214F9E4FDFC7F1FFF
:100CC3001214F9E4FDFC7F211214F9E4FDFC7F23E7
:100CD3001214F9E4FDFC7F251214F97D887C137F3F
:100CE300271214F97DDE7F291213C27D017F2A1298
:100CF30013C27D017F2B1213C27D037F2C1213C2FB
:100D03007D0C7F2D1213C2E4FD7F2E1213C27D32A0
:100D13007C007F321214F9227C06A907AA71E964C8
:100D2300017044C291EC603D7E08C290EE6017EA08
:100D330030E702D2A212000ED29012000EC290C26D
:100D4300A2EA25E0FA1E1CECB40502AA70ECB40476
:100D530002AA6FECB40302AA6EECB40202AA03EC7B
:100D6300B40102AA05D291E964027044C293EC6013
:100D73003D7E08C292EE6017EA30E702D2A212006B
:100D83000ED29212000EC292C2A2EA25E0FA1E1CF3
:100D9300ECB40502AA70ECB40402AA6FECB403022B
:100DA300AA6EECB40202AA03ECB40102AA05D29320
:100DB30022787FE4F6D8FD758171020DFB0206BC33
:100DC300E493A3F8E493A34003F68001F208DFF46D
:100DD3008029E493A3F85407240CC8C333C4540FE5
:100DE3004420C8834004F456800146F6DFE4800BB8
:100DF30001020408102040809014A6E47E01936051
:100E0300BCA3FF543F30E509541FFEE493A36001E4
:100E13000ECF54C025E060A840B8E493A3FAE4934E
:100E2300A3F8E493A3C8C582C8CAC583CAF0A3C8FC
:100E3300C582C8CAC583CADFE9DEE780BEE4F559C7
:100E4300F55AF55BF55CF55DF55EE4FDFCFF12001C
:100E5300267F131213808F22EFFD7C00E4FF120024
:100E630026E4FDED70E4120F098F5DE55D30E005CA
:100E73007562018003E4F562E55D5402B401057512
:100E83005F018003E4F55FE55D5404B4010575601B
:100E9300018003E4F560E55D5408B4010575610163
:100EA30080C1E4F56180BC80A1809F809D809B8090
:100EB30099809780958093809122C0E0C0D075D0AF
:100EC30000C000C28E781506780DE660011678150D
:100ED300E654077002D2007815E664107019F678AC
:100EE3000EE6600116780FE66001167810E66001E1
:100EF300167811E6600116758D0B758BDCD28ED0DA
:100F030000D0D0D0E032E4FE20B20DEF70070E0423
:100F13004401FF80035306FE20B30FEF700943061D
:100F230002EE4402FF80035306FD20860FEF700993
:100F3300430604EE4404FF80035306FB20870FEFB0
:100F43007009430608EE4408FF80035306F7AF0613
:100F530022120F09EFB4010575350580391214000B
:100F6300AB07AA06C3E5559525FDE5549524FC1268
:100F730009B1AD03AC0212099FAA06AB07C3E54151
:100F8300954DFDE540954CFC1209B1AC02AD031241
:100F9300099F8E598F5AAE59AF5A22901673E49314
:100FA300F559E493F55AE493F55BE493F55CE49324
:100FB300F55DE493F55E855C6E855B6F855A7085A0
:100FC3005971AB5DAD5E7F01120D1B855C6E855B58
:100FD3006F855A70855971AB5DAD5E7F02120D1B33
:100FE30022AE07E4781AF6D2A018F67819E6C3946D
:100FF30008501CD2A11215BE08E6FF25E0F630A06A
:1010030004E64401F6C2A11215BE78190680DCEE8F
:1010130024FF92A0D2A11215BEC2A1D2A01215BE66
:10102300781AE6FF22AE07750801E47817F67817F9
:10103300E6C39408501DEE30E704D2A28002C2A298
:10104300D2A31215A6C2A31215A6EE25E0FE7817A9
:101053000680DBD2A2D2A31215A630A203E4F508C0
:10106300C2A31215A622AE07750901E47817F67814
:1010730017E6C39408501DEE30E704D2A28002C2E3
:10108300A2D2A51215B2C2A51215B2EE25E0FE78C2
:10109300170680DBD2A2D2A51215B230A203E4F563
:1010A30009C2A51215B222AE07750A01E47819F632
:1010B3007819E6C39408501DEE30E704D2A08002ED
:1010C300C2A0D2A11215BEC2A11215BEEE25E0FE2A
:1010D30078190680DBD2A0D2A11215BE30A003E49A
:1010E300F50AC2A11215BE22AE07750B01E47817EB
:1010F300F67817E6C39408501DEE30E704D2A280B9
:1011030002C2A2D2A41215CAC2A41215CAEE25E0C5
:10111300FE78170680DBD2A2D2A41215CA30A2032E
:10112300E4F50BC2A41215CA22AE07750C01E478CC
:1011330017F67817E6C39408501DEE30E704D2A2E1
:101143008002C2A2D2A41215D6C2A41215D6EE25CD
:10115300E0FE78170680DBD2A2D2A41215D630A205
:1011630003E4F50CC2A41215D622E47818F6D2A231
:1011730018F67817E6C39408501CD2A31215A608D4
:10118300E6FF25E0F630A204E64401F6C2A31215F9
:10119300A678170680DCD2A2D2A31215A6C2A3D2C8
:1011A300A21215A67818E6FF22AD07AC06AB05AA76
:1011B30004EB7806CEC313CE13D8F9F9AA04EDAE27
:1011C300027802C333CE33CED8F9FD5305FC121592
:1011D300327F9A1210EBAF011210EBAF051210EB36
:1011E3001215ED22AD07AC06AB05AA04EB7806CECB
:1011F300C313CE13D8F9F9AA04EDAE027802C333B0
:10120300CE33CED8F9FD5305FC1215447F98121145
:101213002CAF0112112CAF0512112C1215F8227DDF
:1012230002E4FF1213E1AD537F031213E1AD527FCA
:10123300041213E1AD4E7F051213E1AD517F061287
:1012430013E1AD567F071213E1AD4F7F081213E18F
:10125300E4FDFF1213E122120F09EFB40105753506
:10126300058020121400AB07AA06C3E5329539FDA9
:10127300E5319538FC1209B1AC02AD0312099F8E1A
:10128300598F5AAE59AF5A22120F09EFB40105759F
:1012930035058020121400AB07AA06C3E527953055
:1012A300FDE526952FFC1209B1AC02AD0312099F8F
:1012B3008E598F5AAE59AF5A22C291C293C292C26B
:1012C300A2C290C2A212000E12000E12000E120051
:1012D3000EE4FFFEC3EE940150070FEF70010E8082
:1012E300F3228F59E55904FF121380755A008F5B5F
:1012F300E55B755B00F55AAF59121380EF255BF57B
:101303005BE4355AF55AFEAF5B22AE07121520AFE8
:10131300061210AAE4FF120FE4EF7B00FA7F01121A
:101323000FE4EFFBE4AF051210AA1215E2AE02AF11
:101333000322D2A11215BED2A01215BE1215BE12DF
:1013430015BE1215BEC2A0E4FFFEC3EE9401500702
:101353000FEF70010E80F322C0E0C0D075D000C043
:1013630000C28C781606E654077003855899758C6D
:101373000B758ADCD28CD000D0D0D0E032AD07120E
:1013830015667FA0121028AF051210281214BC7F17
:10139300A112102812116DAE07121576AF06227531
:1013A30093FFE4F594F5917592FFF5957596FF75A6
:1013B300B1FF75B2FF7580FFF590F5A0F5B022ACD3
:1013C300071215667FA0121028AF04121028AF056C
:1013D3001210281215767F647E0012143D22AC078A
:1013E3001215867FD0121069AF04121069AF05126F
:1013F30010691215967F647E0012145922E478173F
:10140300F608F61213357D8C7F9012150D7D8C7FB7
:101413009112130D7817E6FE08E6FF22D2A31215E8
:10142300A61215A61215A6C2A2E4FFFEC3EE9401EE
:1014330050070FEF70010E80F322D3EF9400EE9468
:10144300004012E4FDEDC394FF50030D80F7EF1F3E
:1014530070011E80E522D3EF9400EE94004012E465
:10146300FDEDC394FF50030D80F7EF1F70011E8045
:10147300E52243985053C8F043C83075CDFF75CC6F
:10148300D075CBFF75CADCD2ACD2CA22EF600AAFEB
:10149300A0EF4420F5A0F5A022AFA0EF54DFF5A004
:1014A300F5A022080D000000000000000001360036
:1014B300C108C101C109C10700D2A21215A6D2A356
:1014C3001215A6C2A21215A6C2A31215A622C28C79
:1014D300758911758C0B758ADCE47815F6D2A9D25F
:1014E3008C22C28E758911758D0B758BDCE4781691
:1014F300F6D2ABD28E228F5A8C5B8D5C055A1213B7
:10150300C2E55BFDAF5A1213C222AE07121520AF1C
:10151300061210AAAF051210AA1215E222D2A012C7
:1015230015BED2A11215BEC2A01215BEC2A122D2EF
:10153300A21215CAD2A41215CAC2A21215CAC2A4F3
:1015430022D2A21215D6D2A41215D6C2A21215D631
:10155300C2A422309902C299309807C29885993C57
:10156300D20832D2A21215A6C2A21215A6C2A31283
:1015730015A622C2A21215A6D2A31215A6D2A21292
:1015830015A622D2A21215B2C2A21215B2C2A51278
:1015930015B222C2A21215B2D2A51215B2D2A2124C
:1015A30015B222E4FFEFC3941250030F80F722E435
:1015B300FFEFC3941250030F80F722E4FFEFC394AD
:1015C3001250030F80F722E4FFEFC3941250030F6E
:1015D30080F722E4FFEFC3941250030F80F722D267
:1015E300A11215BED2A01215BE22D2A41215CAD2C0
:1015F300A21215CA22D2A41215D6D2A21215D6222D
:10160300D2B2C289D288D2A8228E5D8F5EAE5FAF7E
:1016130060228E5D8F5EAE5FAF60228E5D8F5EAEA9
:101623005FAF60228E5D8F5EAE5FAF60228E5D8F97
:101633005EAE5FAF60228E5D8F5EAE5FAF60228E67
:101643005D8F5EAE5FAF60228E5D8F5EAE5FAF601B
:1016530022FC60DAF266B6BEE4FEF6EE3E9C7A9EAB
:101663008E6ECE00EC1C027CFD61DBF367B7BFE539
:0F167300FFF7EF3F9D7B9F8F6FCF01ED1D037D35
:00000001FF
