:07000000024E8102000632EE
:10000B0002537A125670C2A2125677C296025677D4
:03001B0002506C24
:10002300025633E4F55FF560F561F562F563F56853
:10003300F569AD69AC68AF611221D8E5327003028E
:100043000A2B124FFE8F5FE55F30E0057564018078
:1000530003E4F564E55F30E1057565018003E4F5CC
:1000630065E55F30E2057566018003E4F566E55FEB
:1000730030E3057567018003E4F567E564B40105C2
:100083000561E4F560E561D394134005E4F561F59A
:1000930032E566B401080569E56970020568E5673C
:1000A300B40108E569156970021568E561640170BA
:1000B30047E537FD7C00AF611221D8E5692537F5A7
:1000C30037E4F568F569E537C394044007E4F53789
:1000D300F568F569E5656401600302003EAD377FAD
:1000E300121254A3E4FDFC7F161221D87FC47E09AB
:1000F30012551B056002003EE5616402703FE5375F
:10010300C394024005056102003EE555FD7C00AF46
:10011300611221D8E5692555F555E4F568F569E5DA
:1001230055C394024007E4F555F568F569E5656440
:1001330001600302003EAD557F130206FDE56164D5
:1001430003703CE5376005056102003EE569252E35
:10015300F52EE4F568F569E52EC394064007E4F54A
:100163002EF568F569E52EFD7C00AF611221D8E517
:10017300656401600302003EAD2E7F140206FDE5B7
:100183006164047056E5376005056102003E124D57
:10019300D58E4D8F4EE508B401057545018003E406
:1001A300F545AD4EAC4DAF611221D8E565640160F4
:1001B3000302003E854D26854E27E545B40106E53D
:1001C3004244018004E54254FEFD7F321254A312DF
:1001D3005517AD27AC267F16020675E561640560E9
:1001E30003020297E5376005056102003E124DD513
:1001F3008E4D8F4EAD4EAC4DAF611221D8E5656487
:1002030001600302003E854D5A854E5BAD5BAC5ADF
:100213007F181255F1E54564017020E55B2527FF42
:10022300E55A3526FED3EF94CAEE94C84002801FE8
:10023300E55B2527FFE55A35268032C3E55B952725
:10024300FFE55A9526FED3EF94CAEE94C84014EF07
:100253002436FDEE3437FC1239CE8E528F5343428F
:1002630010801EC3E55B9527FFE55A9526FEC374F0
:10027300CA9FFD74C89EFC1239CE8E528F535342CF
:10028300EFAD53AC527F341255F1125517AD427F87
:10029300320206FDE56164067058E53764016005C6
:1002A300056102003E124DD58E4D8F4EE508B40117
:1002B300057545018003E4F545AD4EAC4DAF6112C4
:1002C30021D8E5656401600302003E854D4A854EF1
:1002D3004BE545B40106E54244028004E54254FD82
:1002E300FD7F321254A3125517AD4BAC4A7F1A024D
:1002F3000675E561640760030203A7E537640160DF
:1003030005056102003E124DD58E4D8F4EAD4EACAC
:100313004DAF611221D8E5656401600302003E859B
:100323004D43854E44AD44AC437F1C1255F1E54526
:10033300B40130E544254BFFE543354AFED3EF9442
:10034300E4EE94444009EF241CFDEE34BB8044E505
:1003530044254BFFE543354AFEC374E49FFD7444D3
:100363009E8030C3E544954BFFE543954AFED3EFAA
:1003730094E4EE94444009EF241CFDEE34BB801357
:10038300C3E544954BFFE543954AFEC374E49FFDE3
:1003930074449EFC1239CE8E3C8F3DAD3DAC3C7F08
:1003A30036020675E56164087058E5376402600536
:1003B300056102003E124DD58E4D8F4EE508B40106
:1003C300057545018003E4F545AD4EAC4DAF6112B3
:1003D30021D8E5656401600302003E854D3A854EF0
:1003E3003BE545B40106E54244048004E54254FB81
:1003F300FD7F321254A3125517AD3BAC3A7F1E0258
:100403000675E561640960030204B3E537640260BD
:1004130005056102003E124DD58E4D8F4EAD4EAC9B
:100423004DAF611221D8E5656401600302003E858A
:100433004D33854E34AD34AC337F201255F1E54551
:10044300B4012EE534253BFFE533353AFED3EF9473
:1004530000EE947D4008E42FFDEE34838041E534C3
:10046300253BFFE533353AFEC3E49FFD747D9E8053
:100473002EC3E534953BFFE533953AFED3EF940065
:10048300EE947D4008E42FFDEE34838012C3E534FF
:10049300953BFFE533953AFEC3E49FFD747D9EFCD7
:1004A3001239CE8E2C8F2DAD2DAC2C7F38020675D4
:1004B300E561640A7058E53764036005056102006D
:1004C3003E124DD58E4D8F4EE508B401057545019D
:1004D3008003E4F545AD4EAC4DAF611221D8E5651F
:1004E3006401600302003E854D2F854E30E545B41F
:1004F3000106E54244088004E54254F7FD7F3212C9
:1005030054A3125517AD30AC2F7F22020675E56157
:10051300640B60030205BFE53764036005056102F0
:10052300003E124DD58E4D8F4EAD4EAC4DAF611288
:1005330021D8E5656401600302003E854D28854EA0
:1005430029AD29AC287F231255F1E545B4012EE5E9
:10055300292530FFE528352FFED3EF9400EE9419BB
:100563004008E42FFDEE34E78041E5292530FFE51F
:1005730028352FFEC3E49FFD74199E802EC3E52901
:100583009530FFE528952FFED3EF9400EE941940A4
:1005930008E42FFDEE34E78012C3E5299530FFE52B
:1005A30028952FFEC3E49FFD74199EFC1239CE8E4D
:1005B300238F24AD24AC237F3A020675E561640CD6
:1005C3007056AE68AF69FC7D0A1239BCEF2549F558
:1005D30049EE3548F548E4F568F569AD49AC48AFEF
:1005E300611221D8E56664016009E567640160036F
:1005F30002003ED3E549940FE54894274009E4F50A
:1006030068F569F548F549E5656401600302003E54
:10061300AD49AC487F26805AE561640D705AAE68D7
:10062300AF69FC7D0A1239BCEF2547F547EE354625
:10063300F546E4F568F569AD47AC46AF611221D8DC
:10064300E56664016009E5676401600302003ED367
:10065300E547940FE54694274009E4F568F569F505
:1006630046F547E5656401600302003EAD47AC46CD
:100673007F281255F1020A05E561640E6003020743
:1006830003C3E56994C8E56894004020E55070050C
:100693007550998040E550540F700CE55024F05488
:1006A300F04409F55080021550E48029E56964019E
:1006B30045687025E550C3949A4005E4F5508015CC
:1006C300E550540FFFBF090AE550241054F0F550CC
:1006D30080020550E4F568F569E42550FDE4342013
:1006E300FCAF611221D8E5656401600302003EADF1
:1006F300507F061254C1AD507F2A1254A3020A053B
:10070300E561640F707CC3E56994C8E568940040B3
:1007130022E55CD394015005755C12803CE55C5482
:100723000F700CE55C24F054F04409F55C8002156D
:100733005C8026E569640145687023E55CB41205B5
:10074300755C018014E55C540FFFBF090AE55C2466
:100753001054F0F55C8002055CE4F568F569E55C2E
:10076300FD7C00AF611221D8E565640160030200DE
:100773003EAD5C7F051254C1AD5C7F2B1254A302C6
:100783000A05E56164106003020905C3E56994C8BD
:10079300E5689400500302083AE556B40111E55C9C
:1007A300B4020CE550540370067556290208DDE5C2
:1007B30056B40112E55CB4020DE5505403600775AD
:1007C3005628E40208DDE55664017030E55C6401F7
:1007D3006023E55C6403601DE55C64056017E55C0C
:1007E30064076011E55C6408600BE55C64106005F8
:1007F300E55CB41207755631E40208DDE556B40131
:100803001EE55C64046011E55C6406600BE55C64F2
:10081300096005E55CB41107755630E40208DDE5AF
:1008230056540F700CE55624F054F04409F55680E5
:10083300021556E40208DDE56964014568600302B8
:1008430008E1E55CB40212E5505403700CE556B4BC
:100853002907755601E40208DDE55CB40211E55091
:100863005403600BE556B42806755601E4806BE526
:100873005C64016023E55C6403601DE55C64056002
:1008830017E55C64076011E55C6408600BE55C6474
:10089300106005E55CB4120BE556B43106755601DC
:1008A300E48037E55C64046011E55C6406600BE595
:1008B3005C64096005E55CB4110BE556B43006755C
:1008C3005601E48015E556540FFFBF090AE5562487
:1008D3001054F0F55680020556E4F568F569E556BF
:1008E300FD7C00AF611221D8E5656401600302005D
:1008F3003EAD567F041254C1AD567F2C1254A30251
:100903000A05E5616411707AC3E56994C8E56894E2
:10091300004020E5577005755723803EE557540F77
:10092300700CE55724F054F04409F557800215572D
:10093300E48027E569640145687023E557B423051E
:10094300E4F5578015E557540FFFBF090AE557240F
:100953001054F0F55780020557E4F568F569E5573B
:10096300FD7C00AF611221D8E565640160030200DC
:100973003EAD577F021254C1AD577F2E1254A302CE
:100983000A05E56164126003020A19C3E56994C8A4
:10099300E56894004020E5587005755859803EE598
:1009A30058540F700CE55824F054F04409F558805E
:1009B300021558E48027E569640145687023E5580A
:1009C300B45905E4F5588015E558540FFFBF090ADB
:1009D300E558241054F0F55880020558E4F568F5FD
:1009E30069E558FD7C00AF611221D8E565640160BB
:1009F3000302003EAD587F011254C1AD587F2F1240
:100A030054A30560E4FDFC7F161221D87FC47E0940
:100A130012551B02003EE561C39414500302003ECD
:100A2300E4F561F53202003E024F0D8E638F64855B
:100A33006365856466E4F509E50864017055D3E5EB
:100A4300669455E5659404AC63AD645023E41239B0
:100A5300027BA47A70795D7840123860A804A905F6
:100A6300AA06AB07E4FFFE7DA07C4312376880191A
:100A7300E41239027BA47A70795D7840123860E41D
:100A8300FBFA79A078C312376C12393B8E658F66F7
:100A930002127AAC63AD64E41239027BA47A7079F2
:100AA3005D7840123860E4FBFA79A0784312376C22
:100AB30012393B8E658F66D3E5649486E5639404AF
:100AC300401FE56424B4FFE56334FBFE900007E0B8
:100AD300FD7C001239CEC3E5669FF566E5659EF59C
:100AE30065D3E56494C4E5639409401FE564246E0B
:100AF300FFE56334F6FE900008E0FD7C001239CE7A
:100B0300C3E5669FF566E5659EF565D3E564948464
:100B1300E5639412401FE56424A4FFE56334EDFE0E
:100B2300900007E0FD7C001239CEC3E5669FF566B1
:100B3300E5659EF565D3E5649402E5639417401F6C
:100B4300E564241CFFE56334E9FE900009E0FD7CC5
:100B5300001239CEC3E5669FF566E5659EF565D35C
:100B6300E5649472E563941F401FE56424ACFFE5DC
:100B73006334E0FE900009E0FD7C001239CEC3E54A
:100B8300669FF566E5659EF565D3E5649430E56398
:100B9300942A401FE5642402FFE56334D6FE9000E7
:100BA30009E0FD7C001239CEC3E5669FF566E56575
:100BB3009EF565D3E5649426E5639434401FE564AC
:100BC300240CFFE56334CCFE90000AE0FD7C0012A8
:100BD30039CEC3E5669FF566E5659EF565D3E564A5
:100BE300948CE563943C401FE564247EFFE5633405
:100BF300C3FE90000AE0FD7C001239CEC3E5669F78
:100C0300F566E5659EF565D3E56494ACE563943FCD
:100C1300401EE5642486FFE56334C0FE90000AE0CD
:100C2300FD7C001239CEEF2566F566EE3565F56578
:100C3300D3E5649430E5639443401FE5642402FFE5
:100C4300E56334BDFE900009E0FD7C001239CEC39C
:100C5300E5669FF566E5659EF565D3E5649450E525
:100C630063944B401EE56424BAFFE56334B4FE90FD
:100C7300000AE0FD7C001239CEEF2566F566EE35FD
:100C830065F565D3E56494E8E563944E401FE56438
:100C9300244AFFE56334B1FE900009E0FD7C0012B5
:100CA30039CEC3E5669FF566E5659EF565D3E564D4
:100CB300948CE563945A401FE56424B0FFE56334E4
:100CC300A5FE90000AE0FD7C001239CEC3E5669FC5
:100CD300F566E5659EF565D3E5649404E563946084
:100CE300401EE5642424FFE56334A0FE90000BE07E
:100CF300FD7C001239CEEF2566F566EE3565F565A8
:100D0300D3E5649470E5639467401FE56424B8FFFA
:100D1300E5633498FE90000AE0FD7C001239CEC3EF
:100D2300E5669FF566E5659EF565D3E5649478E52C
:100D330063946E401EE56424B0FFE5633491FE9036
:100D4300000BE0FD7C001239CEEF2566F566EE352B
:100D530065F565D3E5649436E5639474401FE564F3
:100D630024FCFFE563348BFE90000AE0FD7C001257
:100D730039CEC3E5669FF566E5659EF565AE63AF5F
:100D830064E4FCFD7B907A83F9F8C3123A31502B6B
:100D9300E5642498FFE563347CFEE434FFFDE4342A
:100DA300FFFCC00790000AE0FBE4FAF8D0071251F9
:100DB3001EEF2566F566EE3565F565AE63AF64E453
:100DC300FCFD7BB07A86F9F8C3123A31502CE56406
:100DD3002478FFE5633479FEE434FFFDE434FFFC5B
:100DE300C007900009E0FBE4FAF8D00712511EC3D4
:100DF300E5669FF566E5659EF565AE63AF64E4FC65
:100E0300FD7B807A8EF9F8C3123A31502BE56424C6
:100E1300A8FFE5633471FEE434FFFDE434FFFCC056
:100E23000790000BE0FBE4FAF8D00712511EEF2500
:100E330066F566EE3565F565AE63AF64E4FCFD7B90
:100E4300447A93F9F8C3123A31502CE56424EEFF47
:100E5300E563346CFEE434FFFDE434FFFCC007902B
:100E6300000BE0FBE4FAF8D00712511EC3E5669FBE
:100E7300F566E5659EF565AE63AF64E4FCFD7B98BE
:100E83007A9EF9F8C3123A31502BE564249AFFE5B0
:100E9300633461FEE434FFFDE434FFFCC0079000DB
:100EA3000BE0FBE4FAF8D00712511EEF2566F56656
:100EB300EE3565F565AE63AF64E4FCFD7BF07AA0C7
:100EC300F9F8C3123A31502CE5642442FFE5633448
:100ED3005FFEE434FFFDE434FFFCC00790000BE049
:100EE300FBE4FAF8D00712511EC3E5669FF566E5E9
:100EF300659EF565AE63AF64E4FCFD7B047AA6F9F9
:100F0300F8C3123A31502BE564242EFFE563345ABB
:100F1300FEE434FFFDE434FFFCC00790000BE0FB6C
:100F2300E4FAF8D00712511EEF2566F566EE356533
:100F3300F565AE63AF64E4FCFD7BD47AADF9F8C329
:100F4300123A31502CE564245EFFE5633452FEE42B
:100F530034FFFDE434FFFCC00790000BE0FBE4FA30
:100F6300F8D00712511EC3E5669FF566E5659EF549
:100F730065AE63AF64E4FCFD7B547ABAF9F8C3123F
:100F83003A31502BE56424DEFFE5633445FEE43457
:100F9300FFFDE434FFFCC00790000AE0FBE4FAF82D
:100FA300D00712511EEF2566F566EE3565F565AE81
:100FB30063AF64E4FCFD7B767AC0F9F8C3123A317F
:100FC300502CE564249EFFE563343FFEE434FFFDCB
:100FD300E434FFFCC007900007E0FBE4FAF8D00715
:100FE30012511EC3E5669FF566E5659EF565AE6322
:100FF300AF64E4FCFD7B507AC3F9F8C3123A315075
:101003002BE56424C4FFE563343CFEE434FFFDE4D4
:1010130034FFFCC007900007E0FBE4FAF8D00712A6
:10102300511EEF2566F566EE3565F565AE63AF6473
:10103300E4FCFD7B947ACAF9F8C3123A31502CE5EB
:10104300642494FFE5633435FEE434FFFDE434FFA8
:10105300FCC00790000BE0FBE4FAF8D00712511E26
:10106300C3E5669FF566E5659EF565AE63AF64E42B
:10107300FCFD7B507ACDF9F8C3123A31502BE5646D
:1010830024D8FFE5633432FEE434FFFDE434FFFC8F
:10109300C00790000BE0FBE4FAF8D00712511EEFF3
:1010A3002566F566EE3565F565AE63AF64E4FCFD74
:1010B3007B387AD1F9F8C3123A31502CE56424F025
:1010C300FFE563342EFEE434FFFDE434FFFCC00788
:1010D30090000BE0FBE4FAF8D00712511EC3E5665B
:1010E3009FF566E5659EF565AE63AF64E4FCFD7B45
:1010F300B07AD6F9F8C3123A31502BE5642478FF5D
:10110300E5633429FEE434FFFDE434FFFCC00790BB
:10111300000BE0FBE4FAF8D00712511EEF2566F549
:1011230066EE3565F565AE63AF64E4FCFD7B307A4E
:10113300E3F9F8C3123A31502BE56424F8FFE56371
:10114300341CFEE434FFFDE434FFFCC00790000BC5
:10115300E0FBE4FAF8D00712511EEF2566F566EEC0
:101163003565F565AE63AF64E4FCFD7B8C7AE6F927
:10117300F8C3123A31502CE5642488FFE56334192F
:10118300FEE434FFFDE434FFFCC007900009E0FBFC
:10119300E4FAF8D00712511EC3E5669FF566E565CC
:1011A3009EF565AE63AF64E4FCFD7B9C7AEAF9F8D7
:1011B300C3123A31502BE564248CFFE5633415FEEA
:1011C300E434FFFDE434FFFCC00790000BE0FBE4D4
:1011D300FAF8D00712511EEF2566F566EE3565F570
:1011E30065AE63AF64E4FCFD7B347AF3F9F8C312B4
:1011F3003A31502CE56424F4FFE563340CFEE43407
:10120300FFFDE434FFFCC00790000BE0FBE4FAF8B9
:10121300D00712511EC3E5669FF566E5659EF56529
:10122300AE63AF64E4FCFD7BFC7AF3F9F8C3123AD6
:1012330031502BE564242CFFE563340CFEE434FFCA
:10124300FDE434FFFCC00790000AE0FBE4FAF8D0A9
:101253000712511EEF2566F566EE3565F565AE633B
:10126300AF64E4FCFD7BB07AFA7909F8C3123A3132
:101273005005E4F565F566AE65AF66228E638F644F
:10128300E4F509E50864016003021325D3E56494DA
:1012930017E5639403AC63AD64504AE41239027BEF
:1012A300E17A7A79147840123860A804A905AA066D
:1012B300AB07E4FFFE7DA07C4312376812393B8EF7
:1012C300658F66C374E79564FFE49563FE7C007DD8
:1012D300181239CEC3E5669FF566E5659EF565E4AC
:1012E300F508021A43E41239027BE17A7A79147819
:1012F30040123860E4FBFA79A078C312376C1239D4
:101303003B8E658F66E56424E7FFE43563FE7C006E
:101313007D181239CEEF2566F566EE3565F5650263
:101323001A43AC63AD64E41239027BE17A7A79142F
:101333007840123860E4FBFA79A0784312376C12D4
:10134300393B8E658F66D3E56494F8E56394024078
:101353001FE5642426FFE56334FDFE90001BE0FDDA
:101363007C001239CEC3E5669FF566E5659EF5659B
:10137300D3E56494D0E5639407401FE5642462FFDA
:10138300E56334F8FE90001DE0FD7C001239CEC306
:10139300E5669FF566E5659EF565D3E5649460E5CE
:1013A30063940C401EE56424B2FFE56334F3FE90BE
:1013B300001DE0FD7C001239CEEF2566F566EE35A3
:1013C30065F565D3E56494DEE563940D401FE5643C
:1013D3002454FFE56334F2FE90001DE0FD7C00120F
:1013E30039CEC3E5669FF566E5659EF565D3E5648D
:1013F30094F2E5639412401EE5642440FFE56334F0
:10140300EDFE90001CE0FD7C001239CEEF2566F561
:1014130066EE3565F565D3E5649444E563941B4056
:101423001EE564240CFFE56334E5FE90001DE0FD3A
:101433007C001239CEEF2566F566EE3565F565D38A
:10144300E564947FE5639424401FE56424FCFFE591
:101453006334DBFE90001EE0FD7C001239CEC3E551
:10146300669FF566E5659EF565D3E56494B4E5632B
:101473009428401FE5642488FFE56334D7FE900079
:101483001DE0FD7C001239CEC3E5669FF566E56578
:101493009EF565D3E56494FCE5639430401FE564F1
:1014A300242CFFE56334CFFE90001EE0FD7C001288
:1014B30039CEC3E5669FF566E5659EF565D3E564BC
:1014C30094AAE5639437401FE5642488FFE56334F9
:1014D300C8FE90001FE0FD7C001239CEC3E5669F75
:1014E300F566E5659EF565D3E56494A0E5639441EF
:1014F300401FE5642492FFE56334BEFE90001FE0C5
:10150300FD7C001239CEC3E5669FF566E5659EF561
:1015130065D3E564944AE5639447401EE56424E893
:10152300FFE56334B8FE90001FE0FD7C001239CE66
:10153300EF2566F566EE3565F565D3E56494FAE562
:1015430063944B401FE5642438FFE56334B4FE9095
:10155300001EE0FD7C001239CEC3E5669FF566E50B
:10156300659EF565D3E56494CAE5639453401FE52E
:10157300642468FFE56334ACFE90001FE0FD7C004B
:101583001239CEC3E5669FF566E5659EF565D3E53D
:10159300649488E5639459401EE56424C8FFE563B9
:1015A30034A6FE90001EE0FD7C001239CEEF2566C6
:1015B300F566EE3565F565D3E5649406E5639463F6
:1015C300401FE564242CFFE563349DFE90001FE07B
:1015D300FD7C001239CEC3E5669FF566E5659EF591
:1015E30065D3E56494ECE5639468401EE564245098
:1015F300FFE5633497FE90001EE0FD7C001239CEB8
:10160300EF2566F566EE3565F565D3E5649458E533
:10161300639470401EE56424ACFFE5633490FE9050
:10162300001FE0FD7C001239CEEF2566F566EE352E
:1016330065F565D3E564945CE5639476401FE564E2
:101643002408FFE563348AFE90001FE0FD7C00124E
:1016530039CEC3E5669FF566E5659EF565D3E5641A
:101663009476E563947A401EE56424EEFFE56334E3
:1016730085FE90001DE0FD7C001239CEEF2566F556
:1016830066EE3565F565AE63AF64E4FCFD7B9E7A7B
:1016930084F9F8C3123A31502BE5642494FFE563CF
:1016A300347BFEE434FFFDE434FFFCC00790001FED
:1016B300E0FBE4FAF8D00712511EEF2566F566EE5B
:1016C3003565F565AE63AF64E4FCFD7B6E7A8CF93A
:1016D300F8C3123A31502BE56424C4FFE563347335
:1016E300FEE434FFFDE434FFFCC00790001EE0FB82
:1016F300E4FAF8D00712511EEF2566F566EE35655C
:10170300F565AE63AF64E4FCFD7BBA7A90F9F8C388
:10171300123A31502BE5642478FFE563346FFEE41D
:1017230034FFFDE434FFFCC00790001FE0FBE4FA44
:10173300F8D00712511EEF2566F566EE3565F5659F
:10174300AE63AF64E4FCFD7BEE7A98F9F8C3123A1A
:1017530031502BE5642444FFE5633467FEE434FF32
:10176300FDE434FFFCC00790001FE0FBE4FAF8D06F
:101773000712511EEF2566F566EE3565F565AE6316
:10178300AF64E4FCFD7B667A9EF9F8C3123A3150EC
:101793002BE56424CCFFE5633461FEE434FFFDE410
:1017A30034FFFCC00790001FE0FBE4FAF8D00712F7
:1017B300511EEF2566F566EE3565F565AE63AF64DC
:1017C300E4FCFD7BA67AA4F9F8C3123A31502BE569
:1017D3006424F0FFE563345BFEE434FFFDE434FF8F
:1017E300FCC00790001FE0FBE4FAF8D00712511E7B
:1017F300EF2566F566EE3565F565AE63AF64E4FC2B
:10180300FD7BBA7AA9F9F8C3123A31502BE5642467
:1018130078FFE5633456FEE434FFFDE434FFFCC097
:101823000790001FE0FBE4FAF8D00712511EEF25E2
:1018330066F566EE3565F565AE63AF64E4FCFD7B86
:10184300967AAFF9F8C3123A31502AE42564FFE5DA
:10185300633451FEE434FFFDE434FFFCC007900021
:101863001EE0FBE4FAF8D00712511EEF2566F56679
:10187300EE3565F565AE63AF64E4FCFD7B3A7AB69D
:10188300F9F8C3123A31502BE56424F8FFE56334C9
:1018930049FEE434FFFDE434FFFCC00790001EE082
:1018A300FBE4FAF8D00712511EEF2566F566EE3514
:1018B30065F565AE63AF64E4FCFD7B7A7ABCF9F849
:1018C300C3123A31502BE56424B8FFE5633443FE79
:1018D300E434FFFDE434FFFCC00790001DE0FBE4AB
:1018E300FAF8D00712511EEF2566F566EE3565F559
:1018F30065AE63AF64E4FCFD7BDA7AC5F9F8C31225
:101903003A31502BE5642458FFE563343AFEE4345E
:10191300FFFDE434FFFCC00790001CE0FBE4FAF891
:10192300D00712511EEF2566F566EE3565F565AEF7
:1019330063AF64E4FCFD7B467ACDF9F8C3123A3118
:10194300502BE56424ECFFE5633432FEE434FFFD01
:10195300E434FFFCC00790001CE0FBE4FAF8D00776
:1019630012511EEF2566F566EE3565F565AE63AF7C
:1019730064E4FCFD7B2E7AD1F9F8C3123A31502B83
:10198300E5642404FFE563342FFEE434FFFDE4340F
:10199300FFFCC00790001EE0FBE4FAF8D0071251E9
:1019A3001EEF2566F566EE3565F565AE63AF64E457
:1019B300FCFD7B0A7AD7F9F8C3123A31502BE56460
:1019C3002428FFE5633429FEE434FFFDE434FFFCFF
:1019D300C00790001CE0FBE4FAF8D00712511EEF99
:1019E3002566F566EE3565F565AE63AF64E4FCFD2B
:1019F3007B1E7ADCF9F8C3123A31502BE5642414C8
:101A0300FFE5633424FEE434FFFDE434FFFCC00748
:101A130090001DE0FBE4FAF8D00712511EEF256693
:101A2300F566EE3565F565AE63AF64E4FCFD7B48B2
:101A33007AEEF9F8C3123A31500674FFF565F5668C
:101A4300AE65AF6622E4F563F564F565F566F567A3
:101A5300F5688C698D6AE50864016003021C19C38B
:101A6300E56A940AE5699400503F9056E6E493F5DD
:101A730063F564F565E537B4030A9056E9E493F535
:101A830065021C34E50964016005E537B4020D9075
:101A930056E6E493F5669056E9021C6D9056E9E428
:101AA30093F5669056F0021C6DC3E56A940AE569E6
:101AB3009400403FE56A9464E5699400503590567C
:101AC300E6E493F563F564F565E5376403700C901C
:101AD30056E993F5659056F0021CECE50964016044
:101AE30006E537640270069056E9021CEC9056E94D
:101AF300021D25C3E56A9464E56994004038E56AEC
:101B030094E8E5699403502E9056E6E493F563F563
:101B1300649056E9E493F565E53764037003021DA9
:101B230087E50964017003021DEAE5376402600377
:101B3300021E42021DEAC3E56A94E8E56994034084
:101B43004FE56A9410E569942750459056E6E4936F
:101B5300F5639056E9E493F564AE69AF6A7C037D5F
:101B6300E81239CE74D42FF58274563EF583E4938C
:101B7300F565E53764037003021EDDE50964017052
:101B830003021F4EE53764026003021FB3021F4EB8
:101B9300C3E56A9410E569942750030221C3AE6933
:101BA300AF6AE4FCFD7BA07A867901F8D3123A315F
:101BB30050030221C39056E9E493F563AE69AF6A1B
:101BC3007C277D101239CE74D42FF58274563EF5DE
:101BD30083E493F564AE69AF6A7C277D101239CE36
:101BE3007E037FE8CFCDCFCECCCE1239CE74D42FA7
:101BF300F58274563EF583E493F565E53764037027
:101C030003021EDDE50964016006E5376402700323
:101C1300021F4E021FB3C3E56A940AE5699400509C
:101C2300559056E6E493F563F564F565E537B4033B
:101C3300139056F0E493F5669056D4E493F567E574
:101C43006A0221C0E50964016005E537B402119019
:101C530056E6E493F566F567E56A9056D40221C02B
:101C63009056E6E493F5669056F0E493F567E56ADB
:101C73009056D40221C0C3E56A940AE569940050E2
:101C830003021D5BE56A9464E56994004003021D49
:101C93005B9056E6E493F563F564F565E537640315
:101CA30070389056F093F566AE69AF6A7C007D0A92
:101CB3001239CE74D42FF58274563EF583E493F52E
:101CC30067AE69AF6A7C007D0A1239CE74D42DF5F4
:101CD3008274563CF583E40221C0E5096401600681
:101CE300E537640270399056E6E493F566AE69AF62
:101CF3006A7C007D0A1239CE74D42FF58274563E65
:101D0300F583E493F567AE69AF6A7C007D0A123907
:101D1300CE74D42DF58274563CF583E40221C09031
:101D230056E6E493F566AE69AF6A7C007D0A123924
:101D3300CE74F02FF58274563EF583E493F567AEC7
:101D430069AF6A7C007D0A1239CE74D42DF5827492
:101D5300563CF583E40221C0C3E56A9464E56994C3
:101D6300005003021E9AE56A94E8E5699403400370
:101D7300021E9A9056E6E493F563F564F565E5373C
:101D830064037057AE69AF6AFC7D641239CE74F098
:101D93002FF58274563EF583E493F566AE69AF6A18
:101DA3007C007D641239CE7E007F0ACFCDCFCECCAE
:101DB300CE1239CE74D42FF58274563EF583E49354
:101DC300F567AE69AF6A7C007D0A1239CE74D42DF3
:101DD300F58274563CF583E40221C0E50964016091
:101DE30006E53764027058AE69AF6A7C007D641201
:101DF30039CE74D42FF58274563EF583E493F56699
:101E0300AE69AF6A7C007D641239CE7E007F0ACF53
:101E1300CDCFCECCCE1239CE74D42FF58274563EAC
:101E2300F583E493F567AE69AF6A7C007D0A1239E6
:101E3300CE74D42DF58274563CF583E40221C0AEF2
:101E430069AF6A7C007D641239CE74D42FF5827435
:101E5300563EF583E493F566AE69AF6A7C007D6414
:101E63001239CE7E007F0ACFCDCFCECCCE1239CE63
:101E730074F02FF58274563EF583E493F567AE69EB
:101E8300AF6A7C007D0A1239CE74D42DF582745664
:101E93003CF583E40221C0C3E56A94E8E569940351
:101EA3005003022018E56A9410E569942740030261
:101EB30020189056E6E493F563F564AE69AF6A7C47
:101EC300037DE81239CE74D42FF58274563EF58320
:101ED300E493F565E53764037065AE69AF6A7C0327
:101EE3007DE81239CE7E007F64CFCDCFCECCCE122B
:101EF30039CE74F02FF58274563EF583E493F5667C
:101F0300AE69AF6A7C007D641239CE7E007F0ACF52
:101F1300CDCFCECCCE1239CE74D42FF58274563EAB
:101F2300F583E493F567AE69AF6A7C007D0A1239E5
:101F3300CE74D42DF58274563CF583E40221C0E5BA
:101F43000964016006E53764027065AE69AF6A7CB7
:101F5300037DE81239CE7E007F64CFCDCFCECCCEC9
:101F63001239CE74D42FF58274563EF583E493F57B
:101F730066AE69AF6A7C007D641239CE7E007F0A4B
:101F8300CFCDCFCECCCE1239CE74D42FF5827456AA
:101F93003EF583E493F567AE69AF6A7C007D0A1270
:101FA30039CE74D42DF58274563CF583E40221C0F6
:101FB300AE69AF6A7C037DE81239CE7E007F64CFC1
:101FC300CDCFCECCCE1239CE74D42FF58274563EFB
:101FD300F583E493F566AE69AF6A7C007D641239DC
:101FE300CE7E007F0ACFCDCFCECCCE1239CE74F0C9
:101FF3002FF58274563EF583E493F567AE69AF6AB5
:102003007C007D0A1239CE74D42DF58274563CF5CA
:1020130083E40221C0C3E56A9410E5699427500361
:102023000221C3AE69AF6AE4FCFD7BA07A86790125
:10203300F8D3123A3150030221C39056E6E493F5E4
:1020430063AE69AF6A7C277D101239CE74D42FF545
:102053008274563EF583E493F564AE69AF6A7C27D8
:102063007D101239CE7E037FE8CFCDCFCECCCE12FA
:1020730039CE74D42FF58274563EF583E493F56517
:10208300E53764037065AE69AF6A7C037DE8123996
:10209300CE7E007F64CFCDCFCECCCE1239CE74F0BE
:1020A3002FF58274563EF583E493F566AE69AF6A05
:1020B3007C007D641239CE7E007F0ACFCDCFCECC9B
:1020C300CE1239CE74D42FF58274563EF583E49341
:1020D300F567AE69AF6A7C007D0A1239CE74D42DE0
:1020E300F58274563CF583E40221C0E5096401607E
:1020F30006E53764027064AE69AF6A7C037DE8125B
:1021030039CE7E007F64CFCDCFCECCCE1239CE7404
:10211300D42FF58274563EF583E493F566AE69AF2A
:102123006A7C007D641239CE7E007F0ACFCDCFCE8C
:10213300CCCE1239CE74D42FF58274563EF583E497
:1021430093F567AE69AF6A7C007D0A1239CE74D409
:102153002DF58274563CF583E48062AE69AF6A7CE8
:10216300037DE81239CE7E007F64CFCDCFCECCCEB7
:102173001239CE74D42FF58274563EF583E493F569
:1021830066AE69AF6A7C007D641239CE7E007F0A39
:10219300CFCDCFCECCCE1239CE74F02FF58274567C
:1021A3003EF583E493F567AE69AF6A7C007D0A125E
:1021B30039CE74D42DF58274563CF583E493F568D7
:1021C30085667985657A85647B85637CAB67AD6855
:1021D3007F01024BA28C6A8D6B8F6CAF6BAE6AE58D
:1021E3006C70289056E593FFF56D9056D4E493F503
:1021F3006E9056E6E493F56F9056D9E493F570909C
:1022030056E2E493F5718F720228A8E56C640160CD
:10221300030222B8EF4E70229056E593F56D905667
:10222300D5E493F56E9056E6E493F56FF57090560A
:10223300EBE493F571A3E493F572EF64014E702917
:102243009056E593F56D9056D5E493F56E9056E66A
:10225300E493F56F9056EDE493F5709056EBE493A9
:10226300F5719056E1E493F572EF64024E701F909E
:1022730056E593F56D9056D5E493F56E9056E6E4E6
:1022830093F56FF570F5719056EAE493F572EF6488
:10229300034E60030228A89056E593F56D9056D53A
:1022A300E493F56E9056E6E493F56FF570F571904F
:1022B30056DE0227A3E56C64027049EF4E701E9050
:1022C30056E593F56D9056D6E493F56E9056E6E495
:1022D30093F56FF570F5719056E00227A3EF640153
:1022E3004E60030228A89056E593F56D9056D6E408
:1022F30093F56E9056E6E493F56FF570F57190568D
:10230300E30227A3E56C640360030223FEEF4E7030
:102313001B9056E593F56D9056D7E493F56E905662
:10232300E6E493F56FF570757174F572EF64014E21
:1023330070249056E593F56D9056D7E493F56E901F
:1023430056E6E493F56FF5709056EFE493F57190CC
:1023530056E6E493F572EF64024E70249056E593CB
:10236300F56D9056D7E493F56E9056E6E493F56FCA
:10237300F5709056EBE493F5719056E6E493F5729D
:10238300EF64034E70249056E593F56D9056D7E4B1
:1023930093F56E9056E6E493F56FF5709056E2E48C
:1023A30093F5719056E6E493F572EF64044E70244E
:1023B3009056E593F56D9056D7E493F56E9056E6F7
:1023C300E493F56FF5709056EDE493F5719056E64E
:1023D300E493F572EF64054E60030228A89056E576
:1023E30093F56D9056D7E493F56E9056E6E493F526
:1023F3006FF57075716DF5720228A8E56CC39404CE
:1024030050030227A7E56CD3940D40030227A78549
:102413006A74856B75E56CB404059056EB803AE5F8
:102423006CB405059056EB8041E56CB406059056F7
:10243300ED8026E56CB407059056ED802DE56CB470
:1024430008059056EA8012E56CB409059056EA80B7
:1024530019E56CB40A0C9056DEE493F56D756E5C69
:102463008039E56CB40B0C9056DEE493F56D756E14
:102473006D8028E56CB40C109056DEE493F56D90F6
:1024830056E8E493F56E8013E56CB40D119056DEB7
:10249300E493F56D9056E4E493F56EE4F573C3E5C8
:1024A3007494004040E575940AE5749400503690A6
:1024B30056E6E493F56FF570E5737009E509700569
:1024C3009056F080049056D4E493F571AE74AF75D2
:1024D3007C007D0A1239CE74D42DF58274563CF5F6
:1024E30083E493F572C3E575940AE5749400406040
:1024F300E5759464E574940050569056E6E493F5BC
:102503006FF570E5737017E5097013AE74AF75FC62
:102513007D0A1239CE74F02FF58274568012AE7490
:10252300AF757C007D0A1239CE74D42FF5827456B0
:102533003EF583E493F571AE74AF757C007D0A12AA
:1025430039CE74D42DF58274563CF583E493F57239
:10255300C3E5759464E574940050030225F5E575AD
:1025630094E8E574940340030225F59056E6E4935A
:10257300F56FAE74AF757C007D641239CE74D42FC1
:10258300F58274563EF583E493F570E5737024E5A4
:10259300097020AE74AF75FC7D641239CE7E007F66
:1025A3000ACFCDCFCECCCE1239CE74F02FF58274B4
:1025B30056801FAE74AF757C007D641239CE7E00E9
:1025C3007F0ACFCDCFCECCCE1239CE74D42FF582A5
:1025D30074563EF583E493F571AE74AF757C007D5C
:1025E3000A1239CE74D42DF58274563CF583E493E4
:1025F300F572C3E57594E8E574940350030226B6B7
:10260300E5759410E574942740030226B6AE74AFC3
:10261300757C037DE81239CE74D42FF58274563E4F
:10262300F583E493F56FAE74AF757C037DE81239DF
:10263300CE7E007F64CFCDCFCECCCE1239CE74D434
:102643002FF58274563EF583E493F570E573702499
:10265300E5097020AE74AF75FC7D641239CE7E003F
:102663007F0ACFCDCFCECCCE1239CE74F02FF582E8
:102673007456801FAE74AF757C007D641239CE7EB4
:10268300007F0ACFCDCFCECCCE1239CE74D42FF566
:102693008274563EF583E493F571AE74AF757C0096
:1026A3007D0A1239CE74D42DF58274563CF583E439
:1026B30093F572C3E5759410E574942750030228CB
:1026C300A8AE74AF75E4FCFD7BA07A867901F8D3DC
:1026D300123A3150030228A8AE74AF757C277D10DF
:1026E3001239CE74D42FF58274563EF583E493F5F4
:1026F3006EAE74AF757C277D101239CE7E037FE8F2
:10270300CFCDCFCECCCE1239CE74D42FF582745622
:102713003EF583E493F56FAE74AF757C037DE812E9
:1027230039CE7E007F64CFCDCFCECCCE1239CE74DE
:10273300D42FF58274563EF583E493F570E57370F8
:1027430024E5097020AE74AF75FC7D641239CE7E2A
:10275300007F0ACFCDCFCECCCE1239CE74F02FF579
:10276300827456801FAE74AF757C007D641239CEBF
:102773007E007F0ACFCDCFCECCCE1239CE74D42FEC
:10278300F58274563EF583E493F571AE74AF757CB0
:10279300007D0A1239CE74D42DF58274563CF5832C
:1027A300E402288CE56CC3940E5009E56C94144044
:1027B30003022891E56CB40E05756D6E802EE56CF1
:1027C300B40F0C9056E7E493F56D9056D48031E541
:1027D3006CB4100C9056E1E493F56D756E6E802425
:1027E300E56CB4110C9056E4E493F56D9056ED80CE
:1027F3000FE56CB4120E9056E7E493F56D9056D541
:10280300E493F56E856A74856B75E575540FFDE584
:1028130074C4F854F0C868F574E575C4540F48F5EA
:1028230075540FFCE574C4F854F0C868F574E57585
:10283300C4540F48F575540FFBE574C4F854F0C83D
:1028430068F574E575C4540F48F575540FFF757337
:102853000170239056E693FEF56FEB70088E70ECD3
:102863009056D48008EB9056D493F570EC93F571A1
:10287300ED93F572800FEF9056D493F56FEB93F5CC
:1028830070EC93F571ED9056D493F5728017E56C67
:10289300C394164010E4F56DF56EF56F75706E75A3
:1028A300717975726B857079856F7A856E7B856DAD
:1028B3007CAB71AD727F01024BA28E638F64856323
:1028C30067856468E4F509E50864016003022C4C3C
:1028D300D3E56494C2E5639402AC63AD645030E421
:1028E3001239027B7B7A14790E7840123860A8047F
:1028F300A905AA06AB07E4FFFE7DA07C4312376857
:1029030012393B8E658F66750A01E4F5088026E46B
:102913001239027BCD7ACC790C7840123860E4FB13
:10292300FA79A078C312376C12393B8E658F66E44F
:10293300F50A750801D3E566946EE56594004022B7
:10294300E50A701EE566249CFFE56534FFFE9000F2
:1029530043E0FD7C001239CEEF2566F566EE356562
:10296300F565D3E56694B5E56594014022E50A7003
:102973001EE566245CFFE56534FEFE900046E0FD3F
:102983007C001239CEEF2566F566EE3565F565D325
:10299300E5669458E56594024022E50A701EE566F3
:1029A30024DAFFE56534FDFE900045E0FD7C00126E
:1029B30039CEEF2566F566EE3565F565D3E56694A4
:1029C300DEE56594024022E50A701EE566243AFFBF
:1029D300E56534FDFE900044E0FD7C001239CEEF46
:1029E3002566F566EE3565F565D3E56694C0E56560
:1029F30094034022E50A701EE566244AFFE5653428
:102A0300FCFE900045E0FD7C001239CEEF2566F513
:102A130066EE3565F565D3E566947EE56594044019
:102A230022E50A701EE56624B4FFE56534FBFE90DB
:102A33000044E0FD7C001239CEEF2566F566EE35E5
:102A430065F565D3E5669446E56594054022E50A98
:102A5300701EE56624ECFFE56534FAFE900044E061
:102A6300FD7C001239CEEF2566F566EE3565F5651A
:102A7300D3E5669404E56594064022E50A701EE5F5
:102A8300662410FFE56534FAFE900043E0FD7C0008
:102A93001239CEEF2566F566EE3565F565D3E56645
:102AA30094F4E56594064022E50A701EE566242A3F
:102AB300FFE56534F9FE900044E0FD7C001239CE59
:102AC300EF2566F566EE3565F565D3E5669476E53F
:102AD3006594074022E50A701EE5662494FFE565C8
:102AE30034F8FE900044E0FD7C001239CEEF2566F9
:102AF300F566EE3565F565D3E5669448E5659408B6
:102B03004022E50A701EE56624C2FFE56534F7FE40
:102B1300900043E0FD7C001239CEEF2566F566EEAA
:102B23003565F565D3E56694DEE56594084022E5F1
:102B33000A701EE566242CFFE56534F7FE9000431A
:102B4300E0FD7C001239CEEF2566F566EE3565F5BE
:102B530065D3E56694F6E56594094022E50A701E9F
:102B6300E5662428FFE56534F6FE900043E0FD7C2E
:102B7300001239CEEF2566F566EE3565F565D3E5CA
:102B83006694A0E565940A4022E50A701EE5662472
:102B930088FFE56534F5FE900043E0FD7C001239C3
:102BA300CEEF2566F566EE3565F565D3E566944AA1
:102BB300E565940B4022E50A701EE56624DEFFE519
:102BC3006534F4FE900043E0FD7C001239CEEF251E
:102BD30066F566EE3565F565D3E566949AE5659425
:102BE3000B4022E50A701EE5662484FFE56534F494
:102BF300FE900043E0FD7C001239CEEF2566F566BA
:102C0300EE3565F565D3E5669426E565940C4022BB
:102C1300E50A701EE56624E4FFE56534F3FE9000E3
:102C230043E0FD7C001239CEEF2566F566EE35658F
:102C3300F565D3E56694A0E565940F5003022E284D
:102C430075651375667E022E28856765856866AC93
:102C530067AD68E41239027BCD7ACC790C784012E7
:102C63003860E4FBFA79A0784312376C12393B8E53
:102C7300658F66D3E5669454E5659401401FE56668
:102C830024B6FFE56534FEFE900045E0FD7C0012AE
:102C930039CEC3E5669FF566E5659EF565D3E566C2
:102CA300943AE5659402401FE56624D0FFE5653458
:102CB300FDFE900044E0FD7C001239CEC3E5669F23
:102CC300F566E5659EF565D3E56694ACE565940325
:102CD300401FE5662472FFE56534FCFE900044E086
:102CE300FD7C001239CEC3E5669FF566E5659EF56A
:102CF30065D3E5669414E5659405401FE566240AEB
:102D0300FFE56534FBFE900044E0FD7C001239CE04
:102D1300C3E5669FF566E5659EF565D3E56694B8FC
:102D2300E5659406401FE566245CFFE56534F9FE1E
:102D3300900044E0FD7C001239CEC3E5669FF56642
:102D4300E5659EF565D3E566947AE5659408401CD0
:102D5300E566249AFFE56534F7FE7C007D1C123995
:102D6300CEC3E5669FF566E5659EF565D3E5669496
:102D730032E565940A401FE56624ECFFE56534F50A
:102D8300FE900045E0FD7C001239CEC3E5669FF559
:102D930066E5659EF565D3E56694A4E565940B4009
:102DA3001FE5662470FFE56534F4FE900045E0FD01
:102DB3007C001239CEC3E5669FF566E5659EF56531
:102DC300D3E56694B7E565940D401FE56624AEFF31
:102DD300E56534F2FE900045E0FD7C001239CEC378
:102DE300E5669FF566E5659EF565D3E5669490E532
:102DF30065940F401FE56624E2FFE56534F0FE901D
:102E03000046E0FD7C001239CEC3E5669FF566E51A
:102E1300659EF565D3E5669488E56594134006756C
:102E2300651775666FAE65AF66228E618F62E4F5D6
:102E330009E50864016003022F96D3E562948AE5ED
:102E4300619401AC61AD625030E41239027BD77AF0
:102E5300A379B0783F123860A804A905AA06AB0786
:102E6300E4FFFE7DA07C4312376812393B8E638FEB
:102E730064750A01E4F5088026E41239027BD77AE7
:102E8300A379B0783F123860E4FBFA79A078C312D3
:102E9300376C12393B8E638F64E4F50A750801853C
:102EA3006365856466D3E5649428E56394004022F2
:102EB300E50A701EE5642428FFE43563FE90004DA7
:102EC300E0FD7C001239CEC3E5669FF566E5659E9D
:102ED300F565D3E56494B6E56394034023E50A708E
:102EE3001FE564244AFFE56334FCFE90004CE0FDDB
:102EF3007C001239CEC3E5669FF566E5659EF565F0
:102F0300D3E564949EE56394074023E50A701FE5C7
:102F1300642462FFE56334F8FE90004CE0FD7C001E
:102F23001239CEC3E5669FF566E5659EF565D3E583
:102F3300649428E563940A4023E50A701FE564243A
:102F4300D8FFE56334F5FE90004CE0FD7C001239B8
:102F5300CEC3E5669FF566E5659EF565D3E56494A6
:102F630080E563940C50030232C5E50A6003023224
:102F7300C5E5642480FFE56334F3FE90004CE0FD77
:102F83007C001239CEC3E5669FF566E5659EF5655F
:102F93000232C5AC61AD62E41239027BD77AA37900
:102FA300B0783F123860E4FBFA79A0784312376CAB
:102FB30012393B8E638F64856365856466C3E564FC
:102FC3009414E5639405401DE42564FFE56334FB35
:102FD300FE90004EE0FD7C001239CEEF2566F566CB
:102FE300EE3565F565C3E5649498E5639408401E82
:102FF300E5642468FFE56334F7FE900050E0FD7C50
:10300300001239CEEF2566F566EE3565F565C3E545
:103013006494B2E563940C401EE564244EFFE563BB
:1030230034F3FE90004EE0FD7C001239CEEF2566AE
:10303300F566EE3565F565C3E5649404E5639410C0
:10304300401EE56424FCFFE56334EFFE90004EE090
:10305300FD7C001239CEEF2566F566EE3565F56524
:10306300C3E5649488E5639413401EE5642478FF04
:10307300E56334ECFE900050E0FD7C001239CEEFA6
:103083002566F566EE3565F565C3E56494A8E563E5
:103093009416401EE5642458FFE56334E9FE90006E
:1030A30050E0FD7C001239CEEF2566F566EE3565FE
:1030B300F565C3E5639419401DE42564FFE56334B6
:1030C300E7FE90004FE0FD7C001239CEEF2566F558
:1030D30066EE3565F565C3E56494A2E563941C402B
:1030E3001EE564245EFFE56334E3FE90004EE0FDDD
:1030F3007C001239CEEF2566F566EE3565F565C3BE
:10310300E564940EE563941F401EE56424F2FFE535
:103113006334E0FE90004EE0FD7C001239CEEF25D3
:1031230066F566EE3565F565C3E56494FCE5639481
:1031330021401EE5642404FFE56334DEFE90004E67
:10314300E0FD7C001239CEEF2566F566EE3565F5B8
:1031530065C3E56494EAE5639424401EE56424169C
:10316300FFE56334DBFE90004FE0FD7C001239CEB7
:10317300EF2566F566EE3565F565C3E56494ACE564
:10318300639426401EE5642454FFE56334D9FE901E
:103193000051E0FD7C001239CEEF2566F566EE3571
:1031A30065F565C3E5649404E5639429401EE5640D
:1031B30024FCFFE56334D6FE900050E0FD7C001252
:1031C30039CEEF2566F566EE3565F565C3E564949E
:1031D300F4E5639429401EE564240CFFE56334D6CB
:1031E300FE900051E0FD7C001239CEEF2566F566B6
:1031F300EE3565F565C3E5649488E563942C401E5C
:10320300E5642478FFE56334D3FE90004FE0FD7C52
:10321300001239CEEF2566F566EE3565F565C3E533
:10322300649418E563942E401EE56424E8FFE56387
:1032330034D1FE900051E0FD7C001239CEEF2566BB
:10324300F566EE3565F565C3E56494DAE563942FB9
:10325300401EE5642426FFE56334D0FE900051E070
:10326300FD7C001239CEEF2566F566EE3565F56512
:10327300C3E56494CEE5639431401EE5642432FFD4
:10328300E56334CEFE90004CE0FD7C001239CEEFB6
:103293002566F566EE3565F565C3E5649458E56323
:1032A3009434401EE56424A8FFE56334CBFE90000C
:1032B3004CE0FD7C001239CEEF2566F566EE3565F0
:1032C300F565AE65AF66228E638F64E4F509E508A4
:1032D30064017066D3E56494B5E5639403AC63ADB0
:1032E300645031E41239027BA47A70793D7840123C
:1032F3003860A804A905AA06AB07E4FFFE7DA07CFD
:103303004312376812393B8E658F66750A01E4F5FF
:1033130008023760E41239027BA47A70793D784061
:10332300123860E4FBFA79A078C312376C12393B88
:103333008E658F66750A01023760AC63AD64E41273
:1033430039027BA47A70793D7840123860E4FBFA45
:1033530079A0784312376C12393B8E658F66D3E5BB
:1033630064941AE5639404401FE5642418FFE5633D
:1033730034FCFE900011E0FD7C001239CEC3E566FB
:103383009FF566E5659EF565D3E56494F1E5639481
:1033930009401FE564241EFFE56334F6FE90001127
:1033A300E0FD7C001239CEC3E5669FF566E5659EB8
:1033B300F565D3E5649406E5639411401FE5642441
:1033C30002FFE56334EFFE900012E0FD7C0012394A
:1033D300CEC3E5669FF566E5659EF565D3E5649422
:1033E30046E563941E401EE42564FFE56334E2FE74
:1033F300900013E0FD7C001239CEC3E5669FF566AD
:10340300E5659EF565D3E564949AE5639429401FC9
:10341300E5642452FFE56334D6FE900013E0FD7C9F
:10342300001239CEC3E5669FF566E5659EF565D363
:10343300E56494F2E563942B401EE5642440FFE5C4
:103443006334D4FE900013E0FD7C001239CEEF25E7
:1034530066F566EE3565F565D3E5649448E56394F2
:103463003A401FE5642462FFE56334C6FE9000130F
:10347300E0FD7C001239CEC3E5669FF566E5659EE7
:10348300F565D3E564943CE563943C401EE5642410
:10349300D8FFE56334C3FE900012E0FD7C001239CF
:1034A300CEEF2566F566EE3565F565D3E56494D410
:1034B300E5639444401FE5642440FFE56334BBFEA9
:1034C300900014E0FD7C001239CEC3E5669FF566DB
:1034D300E5659EF565D3E56494BCE5639448401EB9
:1034E300E5642458FFE56334B7FE900012E0FD7CE9
:1034F300001239CEEF2566F566EE3565F565D3E541
:1035030064948CE5639450401FE5642488FFE5636D
:1035130034AFFE900013E0FD7C001239CEC3E566A4
:103523009FF566E5659EF565D3E564945CE5639474
:1035330058401EE56424B8FFE56334A7FE900012EB
:10354300E0FD7C001239CEEF2566F566EE3565F5B4
:1035530065D3E5649438E563945E401FE56424DC39
:10356300FFE56334A1FE900012E0FD7C001239CE2A
:10357300C3E5669FF566E5659EF565D3E56494D07E
:10358300E5639466401EE5642444FFE5633499FED5
:10359300900014E0FD7C001239CEEF2566F566EE4F
:1035A3003565F565D3E5649454E563946A401FE596
:1035B300642424FFE5633496FE900013E0FD7C0051
:1035C3001239CEC3E5669FF566E5659EF565D3E5DD
:1035D3006494B4E5639473401FE5642460FFE5637A
:1035E300348CFE900013E0FD7C001239CEC3E566F7
:1035F3009FF566E5659EF565D3E56494DCE5639424
:103603007D401FE5642438FFE5633482FE90001398
:10361300E0FD7C001239CEC3E5669FF566E5659E45
:10362300F565AE63AF64E4FCFD7BA07A87F9F8C36C
:10363300123A31502CE5642474FFE5633478FEE4D8
:1036430034FFFDE434FFFCC007900012E0FBE4FA12
:10365300F8D00712511EC3E5669FF566E5659EF532
:1036630065AE63AF64E4FCFD7BB47A8CF9F8C312F6
:103673003A31502CE5642460FFE5633473FEE4348F
:10368300FFFDE434FFFCC007900013E0FBE4FAF80D
:10369300D00712511EC3E5669FF566E5659EF56585
:1036A300AE63AF64E4FCFD7BDC7A96F9F8C3123AAF
:1036B30031502CE5642438FFE5633469FEE434FFBC
:1036C300FDE434FFFCC007900013E0FBE4FAF8D0FC
:1036D3000712511EC3E5669FF566E5659EF565AE67
:1036E30063AF64E4FCFD7B8C7A9BF9F8C3123A3137
:1036F300502CE5642488FFE5633464FEE434FFFD65
:10370300E434FFFCC007900012E0FBE4FAF8D007B2
:1037130012511EC3E5669FF566E5659EF565AE63CA
:10372300AF64E4FCFD7B2C7AABF9F8C3123A315059
:103733002CE56424E8FFE5633454FEE434FFFDE440
:1037430034FFFCC007900011E0FBE4FAF8D0071245
:10375300511EC3E5669FF566E5659EF565AE65AFEB
:1037630066220239A7E86480F8E933E8336011047C
:1037730060F0ED33EC337009E8FCE9FDEAFEEBFFA2
:10378300220460DED3EB9FEA9EE99DE8C2E78CF05A
:10379300C2F795F0400CE8CCF8E9CDF9EACEFAEBA4
:1037A300CFFB12397285D0F05804700320D5B3E8EB
:1037B3000470075002B2D50239B192D5EC0460F718
:1037C300E4CCC0E0C398F8603B94186008400DD087
:1037D300E0FB023989E4FBFAC9FC8028E830E406FF
:1037E300E4C9FBE4CAFCE830E305E4C9CACBFCE85E
:1037F30054076010F8C3E913F9EA13FAEB13FBEC6F
:1038030013FCD8F130F52FC3E49CFCEF9BFFEE9A39
:10381300FEED99FDD0E0FBEF4E4D4C701222DB0321
:103823000239AEEC2CFCEF33FFEE33FEED33FDED4E
:1038330030E7EB023989EF2BFFEE3AFEED39FDD08D
:10384300E0FB50130BBB00030239B1ED13FDEE1384
:10385300FEEF13FFEC13FC0239890239B1EC5D046E
:103863006005E8590470030239A7123972580460DD
:10387300F6EC4860F2EC7004FDFEFF22C860DB2426
:1038830081C85009C398600250060239AE9850CAE5
:10389300F582E9294B4A7005AB8202399D75F00028
:1038A3007C1A7880C3EF9BEE9AED99400DC3EF9B92
:1038B300FFEE9AFEED99FDE842F0DC23ACF0D0E098
:1038C300FFD0E0FED0E0FDAB8220E7101BEB60BA37
:1038D300EC2CFCEF33FFEE33FEED33FD023989E8C8
:1038E30003F830E705C0F075F000EF2FFFEE33FE6D
:1038F300ED33FD40B830E7C280AA75F020800E7525
:10390300F010800575F0087D007E007F003392D5AE
:1039130030D503123A23EC334010EF33FFEE33FE7E
:10392300ED33FDEC33FCD5F0ED22E5F0247EA2D59A
:1039330013CC92E7CDCEFF22EDD2E7CD33EC339219
:10394300D524814006E4FFFEFDFC22FCE4CFCECD6E
:10395300CC24E0501174FF80EDC3CC13CCCD13CD38
:10396300CE13CECF13CF0470F030D5DE023A23E965
:10397300D2E7C933E833F892D5EDD2E7CD33EC3350
:10398300FC5002B2D522EC30E7100FBF000C0EBE84
:1039930000080DBD00040BEB6014A2D5EB13FCED86
:1039A30092E7FD2274FFFCFDFEFF22E480F8A2D51E
:1039B30074FF13FC7D80E480EFEF8DF0A4A8F0CFBB
:1039C3008CF0A428CE8DF0A42EFE22BC000BBE00EA
:1039D30029EF8DF084FFADF022E4CCF875F008EF09
:1039E3002FFFEE33FEEC33FCEE9DEC984005FCEE2E
:1039F3009DFE0FD5F0E9E4CEFD22EDF8F5F0EE845F
:103A030020D21CFEADF075F008EF2FFFED33FD4023
:103A130007985006D5F0F222C398FD0FD5F0EA229D
:103A2300C3E49FFFE49EFEE49DFDE49CFC22EB9F28
:103A3300F5F0EA9E42F0E99D42F0EC6480C86480B0
:103A43009845F02275F008758200EF2FFFEE33FEE4
:103A5300CD33CDCC33CCC58233C5829BED9AEC9963
:103A6300E58298400CF582EE9BFEED9AFDEC99FC05
:103A73000FD5F0D6E4CEFBE4CDFAE4CCF9A882224C
:103A8300B800C1B90059BA002DEC8BF084CFCECD6C
:103A9300FCE5F0CBF97818EF2FFFEE33FEED33FDA5
:103AA300EC33FCEB33FB10D703994004EB99FB0F8A
:103AB300D8E5E4F9FA227818EF2FFFEE33FEED3361
:103AC300FDEC33FCC933C910D7059BE99A4007ECD9
:103AD3009BFCE99AF90FD8E0E4C9FAE4CCFB227520
:103AE300F010EF2FFFEE33FEED33FDCC33CCC833B4
:103AF300C810D7079BEC9AE899400AED9BFDEC9A16
:103B0300FCE899F80FD5F0DAE4CDFBE4CCFAE4C88D
:103B1300F9228E638F64E50864017044D3E56694EB
:103B230067E56594005031AC63AD64E41239027B00
:103B3300487AE1790A7840123860A804A905AA06F0
:103B4300AB07E4FFFEFD7C4212376812393B8E65FA
:103B53008F66E4F508023E59E4F565F566023E59C1
:103B6300AC63AD64E41239027B717A3D794A7840E3
:103B7300123860E4FBFAF9784212376C12393BAB26
:103B830007AA068A658B66C3EB9445EA9400401D39
:103B9300EB24C5FFEA34FFFE900021E0FD7C001218
:103BA30039CEC3E5669FF566E5659EF565C3EB947F
:103BB3006DEA9400401DEB2493FFEA34FFFE90006E
:103BC30022E0FD7C001239CEC3E5669FF566E5650C
:103BD3009EF565C3EB9499EA9400401DEB2467FFBF
:103BE300EA34FFFE900023E0FD7C001239CEC3E5EA
:103BF300669FF566E5659EF565C3EB94C7EA940099
:103C0300401DEB2439FFEA34FFFE900024E0FD7CE5
:103C1300001239CEC3E5669FF566E5659EF565C37B
:103C2300EB9411EA9401401DEB24F0FFEA34FEFE0D
:103C3300900025E0FD7C001239CEC3E5669FF56652
:103C4300E5659EF565C3EB947BEA9401401DEB2487
:103C530086FFEA34FEFE900023E0FD7C001239CE9D
:103C6300C3E5669FF566E5659EF565C3EA94024084
:103C73001DEB2401FFEA34FEFE900026E0FD7C00EC
:103C83001239CEC3E5669FF566E5659EF565C3EB20
:103C930094A1EA9402401DEB2460FFEA34FDFE90F8
:103CA3000027E0FD7C001239CEC3E5669FF566E58B
:103CB300659EF565C3EB9460EA9403401DEB24A174
:103CC300FFEA34FCFE900028E0FD7C001239CEC3ED
:103CD300E5669FF566E5659EF565C3EB944AEA9450
:103CE30004401DEB24B7FFEA34FBFE900029E0FDFE
:103CF3007C001239CEC3E5669FF566E5659EF565E2
:103D0300C3EB9462EA9405401DEB249FFFEA34FA67
:103D1300FE90002AE0FD7C001239CEC3E5669FF5D4
:103D230066E5659EF565C3EB94A9EA9406401DEB31
:103D33002458FFEA34F9FE90002BE0FD7C00123991
:103D4300CEC3E5669FF566E5659EF565C3EB94B066
:103D5300EA9407401DEB2451FFEA34F8FE90002D4E
:103D6300E0FD7C001239CEC3E5669FF566E5659EEE
:103D7300F565C3EB94E6EA9408401DEB241BFFEAC8
:103D830034F7FE90002CE0FD7C001239CEC3E566CB
:103D93009FF566E5659EF565C3EB9426EA940A40B4
:103DA3001DEB24DBFFEA34F5FE90002DE0FD7C00E3
:103DB3001239CEC3E5669FF566E5659EF565C3EBEF
:103DC300949BEA940B401DEB2466FFEA34F4FE90C7
:103DD300002EE0FD7C001239CEC3E5669FF566E553
:103DE300659EF565C3EB9448EA940D401DEB241DD5
:103DF300FFEA34F3FE90002EE0FD7C001239CEC3BF
:103E0300E5669FF566E5659EF565C3EB9403EA9465
:103E13000F401DEB24FEFFEA34F0FE90002EE0FD80
:103E23007C001239CEC3E5669FF566E5659EF565B0
:103E3300C3EB9456EA9411401DEB24ABFFEA34EE36
:103E4300FE90002FE0FD7C001239CEC3E5669FF59E
:103E530066E5659EF565AE65AF66228E638F64E5A4
:103E630008B40141D3E5649468E5639400502EAC33
:103E730063AD64E41239027B487AE1790A7840122F
:103E83003860A804A905AA06AB07E4FFFEFD7C423F
:103E930012376812393B8E658F6602419FE4F565E0
:103EA300F56602419FAC63AD64E41239027BCD7ABF
:103EB300CC794C7840123860E4FBFAF97842123737
:103EC3006C12393BAB07AA068A658B66C3EB943247
:103ED300EA9400401DEB24CEFFEA34FFFE9000314C
:103EE300E0FD7C001239CEC3E5669FF566E5659E6D
:103EF300F565C3EB946DEA9400401DEB2493FFEA50
:103F030034FFFE900030E0FD7C001239CEC3E5663D
:103F13009FF566E5659EF565C3EB94AEEA940040B4
:103F23001DEB2452FFEA34FFFE900032E0FD7C00DB
:103F33001239CEC3E5669FF566E5659EF565C3EB6D
:103F430094F8EA9400401DEB2408FFEA34FFFE9046
:103F53000033E0FD7C001239CEC3E5669FF566E5CC
:103F6300659EF565C3EB9471EA9401401DEB248FC4
:103F7300FFEA34FEFE900034E0FD7C001239CEC32C
:103F8300E5669FF566E5659EF565C3EB94C8EA941F
:103F930001401DEB2438FFEA34FEFE900035E0FDBE
:103FA3007C001239CEC3E5669FF566E5659EF5652F
:103FB300C3EB944FEA9402401DEB24B1FFEA34FDB6
:103FC300FE900036E0FD7C001239CEC3E5669FF516
:103FD30066E5659EF565C3EB941CEA9403401DEB0F
:103FE30024E4FFEA34FCFE900036E0FD7C00123945
:103FF300CEC3E5669FF566E5659EF565C3EB94F272
:10400300EA9403401DEB240EFFEA34FCFE900038D3
:10401300E0FD7C001239CEC3E5669FF566E5659E3B
:10402300F565C3EB9426EA9405401DEB24DAFFEA19
:1040330034FAFE900036E0FD7C001239CEC3E5660B
:104043009FF566E5659EF565C3EB9484EA940640A7
:104053001DEB247CFFEA34F9FE90003AE0FD7C007E
:104063001239CEC3E5669FF566E5659EF565C3EB3C
:10407300946DEA9408401DEB2493FFEA34F7FE9015
:104083000038E0FD7C001239CEC3E5669FF566E596
:10409300659EF565C3EB946DEA9409401DEB24938B
:1040A300FFEA34F6FE90003AE0FD7C001239CEC3FD
:1040B300E5669FF566E5659EF565C3EB9441EA9475
:1040C3000B401DEB24BFFFEA34F4FE900039E0FD02
:1040D3007C001239CEC3E5669FF566E5659EF565FE
:1040E300C3EB94C9EA940C401DEB2437FFEA34F385
:1040F300FE90003DE0FD7C001239CEC3E5669FF5DE
:1041030066E5659EF565C3EB9485EA940E401DEB69
:10411300247BFFEA34F1FE90003EE0FD7C0012397F
:10412300CEC3E5669FF566E5659EF565C3EB941C16
:10413300EA9411401DEB24E4FFEA34EEFE90003EC6
:10414300E0FD7C001239CEC3E5669FF566E5659E0A
:10415300F565C3EB94D6EA9413401CEB242AFFEADB
:1041630034ECFE90003EE0FD7C001239CEEF256674
:10417300F566EE3565F565C3EB94B2EA9414401C1D
:10418300EB244EFFEA34EBFE90003EE0FD7C001290
:1041930039CEEF2566F566EE3565F565AE65AF6636
:1041A30022C28CAF89EF4401F589F589758CDCE473
:1041B300F58AC28D75E50775E64675E6B9AFE2EF98
:1041C3004408F5E2F5E275E50675E64675E6B9D20B
:1041D3008CA28DB340FBC28DC28C75E50775E64694
:1041E30075E6B9AFE2EF4403F5E2F5E275E506756E
:1041F300E64675E6B975E50775E64675E6B9AFE2D5
:10420300EF54FBF5E2F5E275E50675E64675E6B9AA
:1042130012541FD296D2A21254851253A6125613C9
:104223001256231254DF125532E4FFFE1253481282
:10423300554CE4FFFE1253F7E4FF1255A9E4F53899
:10424300FF125441EF644E70227F01125441BF4567
:104253001A7F02125441BF57127F03125441BF5AAF
:104263000A7F04125441EF64A560297D4EE4FF12D6
:1042730054A37D457F011254A37D577F021254A39B
:104283007D5A7F031254A37DA57F041254A31250B9
:10429300C9124ACC12554C7F121254418F377F13E7
:1042A3001254418F557F141254418F2E7F1612548E
:1042B300FB8E268F277F181254FB8E5A8F5B7F1A33
:1042C3001254FB8E4A8F4B7F1C1254FB8E438F4438
:1042D3007F1E1254FB8E3A8F3B7F201254FB8E338A
:1042E3008F347F221254FB8E2F8F307F231254FB87
:1042F3008E288F297F261254FB8E488F497F2812E0
:1043030054FB8E468F477F2A1254418F507F2B12C6
:1043130054418F5C7F2C1254418F567F2E1254418F
:104323008F577F2F1254418F587F301254418F5132
:104333007F321254418F427F341254FB8E528F537B
:104343007F361254FB8E3C8F3D7F381254FB8E2CEC
:104353008F2D7F3A1254FB8E238F247F3C125441BE
:104363008F3FE42550F536E43420F5351250C9D299
:10437300A9D28CD2ABD28ED2AF753901124F0DE5D3
:10438300377012E54230E003754501E54230E42A17
:104393007522018025E537B40107E54230E11B8032
:1043A30016E537B40207E54230E20F800AE537B479
:1043B3000308E54230E303754501E52A146015144B
:1043C300601714601914601B146020240570EB122D
:1043D30043F380E612489180E11245C580DC124721
:1043E3002B80D775320112002680CF1249F380CA81
:1043F300124FFEBF0106752A040245C07811E6601C
:104403000302454F7610124DD58E5F8F60E545B49C
:104413000124E508B4011FC3E5609527E55F9526F0
:1044230040028047C3E5279560F560E526955FF573
:104433005FE4F5088053E545B40106E508700280A2
:1044430009E5457013E508B4010EE5272560F5601D
:10445300E526355FF55F8031E545702DE508702968
:10446300C3E5609527E55F9526400EE5609527F542
:1044730060E55F9526F55F8010C3E5279560F560DD
:10448300E526955FF55F750801E522AC52AD53AEA5
:104493005FAF60B401101239CEC3E5609FF560E5EC
:1044A3005F9EF55F800D1239CEEF2560F560EE3526
:1044B3005FF55FE559B4010674FFF55FF560E52E1E
:1044C3007011AF60AE5F12127F8E618F62E555701F
:1044D3007B8072E52EB40111AF60AE5F1232CA8EDB
:1044E300618F62E5557065805CE52EB40211AF60A3
:1044F300AE5F1228BD8E618F62E555704F8046E531
:104503002EB40311AF60AE5F120A2E8E618F62E587
:104513005570398030E52EB40414750901AF60AECF
:104523005F123B158E618F62E55570208017E52E73
:10453300B40519750901AF60AE5F123E5E8E618FDF
:1045430062E5557007124C698E618F627812E670CE
:1045530007124F8D781276087810E670267610AD24
:1045630062AC617F01121A48D3E5629549E5619512
:1045730048400EE5629547E56195465004D2B48004
:1045830002C2B47815E67018208407AF62AE6112D8
:1045930053F7208507AF62AE611253487815761042
:1045A3007814E67018200109856299D2017601809A
:1045B3000AE561F599C2017814763BD299AE61AFF1
:1045C3006222124FFEBF0106752A040247267811A4
:1045D300E660030246B37610124DD58E5F8F60E519
:1045E30045B40124E508B4011FD3E560953BE55FBD
:1045F300953A40028047C3E53B9560F560E53A95FF
:104603005FF55FE4F5088053E545B40106E50870FE
:10461300028009E5457013E508B4010EE53B25600A
:10462300F560E53A355FF55F8031E545702DE508C6
:104633007029C3E560953BE55F953A400EE56095CB
:104643003BF560E55F953AF55F8010C3E53B956008
:10465300F560E53A955FF55F750801D3E53494009D
:10466300E533947DAC2CAD2DAE5FAF60400F1239B6
:10467300CEEF2560F560EE355FF55F800E1239CE23
:10468300C3E5609FF560E55F9EF55FAC5FAD60E4F9
:104693001239027BCD7ACC794C78401238601239CA
:1046A3003B8E5F8F60E559B4010674FFF55FF560DB
:1046B3007810E67028AD60AC5F7F01121A4878105D
:1046C3007608D3E5609549E55F9548400EE560952A
:1046D30047E55F95465004D2B48002C2B47815E62C
:1046E3007018208407AF60AE5F1253F7208507AFC1
:1046F30060AE5F125348781576027812E67007129F
:104703004F8D781276087814E670182001098560B9
:1047130099D2017601800AE55FF599C20178147692
:104723003BD299AE5FAF6022124FFEBF0106752ADE
:104733000402488C7811E660030248197610124D82
:10474300D58E5F8F60E545B40124E508B4011FC32E
:10475300E5609530E55F952F40028047C3E53095CE
:1047630060F560E52F955FF55FE4F5088053E54557
:10477300B40106E50870028009E5457013E508B445
:10478300010EE5302560F560E52F355FF55F80317B
:10479300E545702DE5087029C3E5609530E55F9523
:1047A3002F400EE5609530F560E55F952FF55F804E
:1047B30010C3E5309560F560E52F955FF55F7508EB
:1047C30001D3E5299400E5289419AC23AD24AE5F09
:1047D300AF60400F1239CEEF2560F560EE355FF51F
:1047E3005F800E1239CEC3E5609FF560E55F9EF5ED
:1047F3005FAC5FAD60E41239027BCD7ACC794C7843
:104803004012386012393B8E5F8F60E559B4010660
:1048130074FFF55FF5607810E67028AD60AC5F7FDC
:1048230001121A4878107610D3E5609549E55F9533
:1048330048400EE5609547E55F95465004D2B48045
:1048430002C2B47815E67018208407AF60AE5F1219
:1048530053F7208507AF60AE5F1253487815760291
:104863007812E67007124F8D781276087814E67086
:1048730018200109856099D2017601800AE55FF568
:1048830099C2017814763BD299AE5FAF6022124F82
:10489300FEBF0106752A040249EE7811E6600302A1
:1048A300497B7610124DD58E5F8F60E545B40124A8
:1048B300E508B4011FC3E560954BE55F954A4002E7
:1048C3008047C3E54B9560F560E54A955FF55FE486
:1048D300F5088053E545B40106E50870028009E553
:1048E300457013E508B4010EE54B2560F560E54A14
:1048F300355FF55F8031E545702DE5087029C3E527
:1049030060954BE55F954A400EE560954BF560E594
:104913005F954AF55F8010C3E54B9560F560E54A06
:10492300955FF55F750801D3E54494E4E54394444A
:10493300AC3CAD3DAE5FAF60400F1239CEEF2560AA
:10494300F560EE355FF55F800E1239CEC3E5609FEB
:10495300F560E55F9EF55FE559B4010674FFF55F09
:10496300F560AF60AE5F122E2D8E5F8F60E55570E0
:1049730007124C698E5F8F607810E67028AD60ACCB
:104983005F7F01121A4878107610D3E5609549E5E8
:104993005F9548400EE5609547E55F95465004D224
:1049A300B48002C2B47815E67018208407AF60AEF5
:1049B3005F1253F7208507AF60AE5F125348781537
:1049C30076027812E67007124F8D78127608781403
:1049D300E67018200109856099D2017601800AE505
:1049E3005FF599C2017814763BD299AE5FAF60222E
:1049F300124ACC12554C7F121254418F377F131237
:104A030054418F557F141254418F2E7F161254FB3D
:104A13008E268F277F181254FB8E5A8F5B7F1A12B4
:104A230054FB8E4A8F4B7F1C1254FB8E438F447F63
:104A3300221254FB8E2F8F307F231254FB8E288F2C
:104A4300297F1E1254FB8E3A8F3B7F201254FB8E1C
:104A5300338F347F261254FB8E488F497F2812549C
:104A6300FB8E468F477F2A1254FB8F507F2B1254A5
:104A7300418F5C7F2C1254418F567F2D1254418FEE
:104A83004F7F2E1254418F577F2F1254418F587FDF
:104A9300301254418F517F321254418F427F34126E
:104AA30054FB8E528F537F361254FB8E3C8F3D7FC7
:104AB300381254FB8E2C8F2D7F3A1254FB8E238F8A
:104AC300247F3C1254418F3F22124F0DAD377F128A
:104AD3001254A3E4FD7F131254A3E4FD7F14125474
:104AE300A3E4FDFC7F161255F17D787C057F181237
:104AF30055F1E4FDFC7F1A1255F17D527C037F1CB6
:104B03001255F1E4FDFC7F1E1255F17D887C137F65
:104B1300201255F17D287C007F221255F17DC87C3F
:104B2300007F231255F1E4FDFC7F261255F17D88A9
:104B33007C137F281255F17D147F2A1254A37D0123
:104B43007F2B1254A37D017F2C1254A37D037F2D51
:104B53001254A37D127F2E1254A37D017F2F125472
:104B6300A37D017F301254A3E4FD7F321254A37D51
:104B7300017C007F341255F17D017C007F36125594
:104B8300F17D017C007F381255F17D017C007F3A75
:104B93001255F17D3C7C007F3C1255F10250C9A9AE
:104BA300057D01AA7CED64017069C291FEC292C2C7
:104BB30090E4FC1256B1D2921256B1C2920CBC08C8
:104BC300F20EBE02E8E4FEC292C290E4FCEA30E7D1
:104BD30002D2901256B1D2921256B1C292C290EA48
:104BE30025E0FA0CBC08E6EE7004AA7B801ABE012D
:104BF30004AA7A8013BE0204AA79800CBE0304AA15
:104C0300038005BE0402AA010EBE06BBD291125652
:104C1300B1C291ED6402704DC295FEC294E4FCEA08
:104C230030E702D2931256B1D2941256B1C294C253
:104C330093EA25E0FA0CBC08E6EE7004AA7B801A1E
:104C4300BE0104AA7A8013BE0204AA79800CBE03B3
:104C530004AA038005BE0402AA010EBE06BDD295B6
:104C63001256B1C295228E638F64E509703FC3E586
:104C7300649440E5639401401AE508700BE56424ED
:104C8300C0FDE56334FE8047E5642440FDE56334FD
:104C930001803CE508B4010BE5642440FDE5633481
:104CA30001803BC374409564FD74018051C3E56486
:104CB3009420E56394004019E508700BE56424E053
:104CC300FDE56334FF8008E5642420FDE43563805B
:104CD3000DE508B40121E5642420FDE43563FCE41B
:104CE3001239027B667A6679E6783F1238601239A8
:104CF3003B8E658F668023C374209564FDE49563C2
:104D0300FCE41239027B667A6679E6783F123860F2
:104D130012393B8E658F66750801AE65AF66220159
:104D23004100014C000159000810101004023B021D
:104D3300141E02520000023C0000022C0000022359
:104D43000000015014015C01015601014F0301579A
:104D530012015801015101013201013800C102C1A0
:104D630001010800010900010A004B00150024306D
:104D730038404C586878C8FA49000C002028303471
:104D830070A0C8FF4A004007080A101820303840B6
:104D9300484C000000102028303840606C80B4E19B
:104DA300500020000A0E1314161B23262A343C40FD
:104DB30046506A5000300A0D10121C20283437392F
:104DC3003B40425A84FA48004A002C2E32363A3E7F
:104DD3004D00125566EF6003024E7C532B03E52B07
:104DE300C39402404B750801E52B5403756A00F523
:104DF3006B756B00F56AE521256BF56BE4356AF598
:104E03006AE56BAE6A7807C333CE33CED8F9F56B58
:104E13008E6AE531C313F531256BF56BE4356AF51D
:104E23006A636BFF636AFFC3E56A94F0404880419D
:104E3300E4F508E52B5403756A00F56B756B00F513
:104E43006AE521256BF56BE4356AF56AE56BAE6AB5
:104E53007807C333CE33CED8F9F56B8E6AE531C309
:104E630013F531256BF56BE4356AF56AC394F040AD
:104E7300057559018003E4F559AE6AAF6B22787F5B
:104E8300E4F6D8FD75817C024EC80241A4E493A3E5
:104E9300F8E493A34003F68001F208DFF48029E4E9
:104EA30093A3F85407240CC8C333C4540F4420C835
:104EB300834004F456800146F6DFE4800B010204CC
:104EC3000810204080904D22E47E019360BCA3FF34
:104ED300543F30E509541FFEE493A360010ECF5401
:104EE300C025E060A840B8E493A3FAE493A3F8E4F0
:104EF30093A3C8C582C8CAC583CAF0A3C8C582C85C
:104F0300CAC583CADFE9DEE780BE20801CE4F5372B
:104F1300F52A7540012084037540112085037540EF
:104F230021E54264017062805D20811D7537017542
:104F33002A017540022084037540122085037540C1
:104F430022E54264027042803D20821D753702755E
:104F53002A0275400420840375401420850375409C
:104F630024E54264047022801D20831D7537037578
:104F73002A03754008208403754018208503754073
:104F830028E542B4080375450122E4FF125463EF98
:104F9300547FF5517F011254638F587F021254637B
:104FA3008F577F03125463EF5407F54F7F04125456
:104FB300638F567F051254638F5C7F061254638F91
:104FC30050E55C540364017031AD507F2A1254A341
:104FD300AD5C7F2B1254A3AD567F2C1254A3AD4F5F
:104FE3007F2D1254A3AD577F2E1254A3AD587F2F9C
:104FF3001254A3AD517F301254A32230B21030B3F8
:105003000D30860A308707E4F54CF541805820B20D
:1050130013E54C7009754C01E54144018044E541B9
:1050230054FE803E20B310E54C7006E541440280F7
:1050330024E54154FD802B208610E54C7006E541A4
:1050430044048011E54154FB8018208719E54C7016
:105053000DE5414408F541F541754C018008E541F2
:1050630054F7F541F541AF4122C0E0C0D075D000FF
:10507300C000C007C28E7818067810E66001167863
:1050830011E66001167818E6FF540770087812E6F7
:10509300600116D200EF640F701B7818F67814E6DF
:1050A3006001167815E66001167816E66001167839
:1050B30017E6600116758D0B758BDCD28ED007D089
:1050C30000D0D0D0E0327F031254638F4F7D407FF6
:1050D300071254C1E54F4408FD7F031254C1E54F45
:1050E30020E737AD507F061254C1AD5C7F051254E3
:1050F300C1AD567F041254C1E54F4408FD7F03122E
:1051030054C1AD577F021254C1AD587F011254C12F
:10511300E5514480FDE4FF1254C122C2D5E830E7D3
:105123000FB2D5E4C39BFBE49AFAE499F9E498F847
:10513300EC30E717B2D5125154123A83E4C39BFB08
:10514300E49AFAE499F9E498F88003123A8330D5A3
:105153000DE4C39FFFE49EFEE49DFDE49CFC22AEB0
:10516300071255BBAF06AE07750B01E4781CF6EECC
:1051730030E704D2A08002C2A0D2A11256B8C2A1C5
:105183001256B8EE25E0FE781C06E6C3940840DF0D
:10519300D2A0D2A11256B830A003E4F50BC2A102EB
:1051A30056B8AE07E4781DF6D2A018F6D2A112566F
:1051B300B8781DE6FF25E0F630A004E64401F6C208
:1051C300A11256B8781C06E6C3940840DFEE24FF0C
:1051D30092A0D2A11256B8C2A1D2A01256B8781D7D
:1051E300E6FF22AE07750C01E4781BF6EE30E70408
:1051F300D2A28002C2A2D2A31256BFC2A31256BF2A
:10520300EE25E0FE781B06E6C3940840DFD2A2D267
:10521300A31256BF30A203E4F50CC2A30256BFE4A7
:10522300781CF6D2A218F6D2A31256BF781CE6FF5A
:1052330025E0F630A204E64401F6C2A31256BF7875
:105243001B06E6C3940840DFD2A2D2A31256BFC204
:10525300A3D2A21256BF781CE6FF22AE07750D013A
:10526300E4781BF6EE30E704D2A28002C2A2D2A4F5
:105273001256C6C2A41256C6EE25E0FE781B06E6F9
:10528300C3940840DFD2A2D2A41256C630A203E4CC
:10529300F50DC2A40256C6AE07750E01E4781BF6DF
:1052A300EE30E704D2A28002C2A2D2A41256CDC22B
:1052B300A41256CDEE25E0FE781B06E6C394084003
:1052C300DFD2A2D2A41256CD30A203E4F50EC2A4BB
:1052D3000256CDE4781CF6D2A218F6D2961256776F
:1052E300781CE6FF25E0F630A204E64401F6C296F8
:1052F300125677781B06E6C3940840DFD2A2D296F3
:10530300125677C296D2A2125677781CE6FF22AEC7
:1053130007750F01E4781BF6EE30E704D2A2800292
:10532300C2A2125672C296125677EE25E0FE781B81
:1053330006E6C3940840E112567030A203E4F50F69
:10534300C296025677AB07AA06E509700AFC7D0AE6
:105353001239CEAA06AB07AF03AD07AF02AC0753B2
:10536300040F1255DF7F9812529AAF0412529AAF6C
:105373000512529A02569DC0E0C0D075D000C000FD
:10538300C007C28C781906E654077006AF99F55D1D
:105393008F5E758C0B758ADCD28CD007D000D0D091
:1053A300D0E032C291C295C292C290C294C293120B
:1053B30056B11256B11256B11256B1E4FFFE0FBFE9
:1053C30000010EE4B507F7EEB401F322125162E4D3
:1053D300FF1251A58F2BE4FF1251A58F21E4FF1279
:1053E30051A58F317F011251A58F54125689E5546F
:1053F3005480FF22E5097006FC7D0A1239CEAA0704
:10540300AB06EB540F52031255CD7F9A12525EAF87
:105413000312525EAF0212525E0256937593FFE47B
:10542300F5947580FFF5917592FFF5907595047568
:1054330096FFF5A075B1ED75B21375B02C22AD07CB
:105443001256437FA01251E6AF051251E61255954D
:105453007FA11251E6125222AE07125652AF062214
:10546300AD071256617FDE125312AF0512531212AB
:10547300000E7FDF1253121252D6AE071256A7AF99
:105483000622D2A31256BF1256BF1256BFC2A2E4BF
:10549300FFFE0FBF00010EE4B507F7EEB401F322E0
:1054A300AC071256437FA01251E6AF041251E6AF88
:1054B300051251E61256527F647E0002557EAC07F8
:1054C3001256617FDE125312AF04125312AF05124C
:1054D30053121256A77F647E00025602D2A11256BF
:1054E300B8D2A01256B81256B81256B81256B8C24D
:1054F300A0E4FF0FBFFEFC22AC07EC04FF125441F3
:10550300AB07EB7B00FAAF04125441EB2FFBE43AF9
:10551300FEAF03227F327E00D3EF9400EE9400406F
:105523000DE4FD0DBDFFFCEF1F70ED1E80EA22436D
:10553300985053C8F043C83075CDFF75CCD075CBA8
:10554300FF75CADCD2ACD2CA229056F8E493F55F59
:10555300F560FBFDF579F57A85607B855F7C7F01DE
:10556300024BA2E4781BF61254DF7D9C7FD01256C7
:105573007E7FD11253CF781BE6FF22D3EF9400EE48
:105583009400400DE4FD0DBDFFFCEF1F70ED1E8088
:10559300EA22D2A21256BFD2A31256BFC2A21256F9
:1055A300BFC2A30256BFEFAFA06005EF4420800344
:1055B300EF54DFF5A0F5A022D2A01256B8D2A11263
:1055C30056B8C2A01256B8C2A122D2A21256C6D24F
:1055D300A41256C6C2A21256C6C2A422D2A2125600
:1055E300CDD2A41256CDC2A21256CDC2A422AB056F
:1055F300AA04A907091254A3AF01AD020254A3D30D
:10560300EF9400EE94004001EFE4FF0FBFFAFC2299
:10561300D28C758911758C0B758ADCE47818F622A7
:10562300C28E758911758D0B758BDCE47819F622A2
:10563300309902C299309807C29885993ED20232B6
:10564300D2A21256BFC2A21256BFC2A30256BFC2F3
:10565300A21256BFD2A31256BFD2A20256BFD2A2E3
:10566300125677C2A2125677C296025677D2A21268
:105673005677D296E4FF0FBF12FC22125162AF0598
:10568300125169025689D2A11256B8D2A00256B855
:10569300D2A41256C6D2A20256C6D2A41256CDD254
:1056A300A20256CDC2A2125672D2A2025677E4FFCC
:1056B3000FBF12FC22E4FF0FBF12FC22E4FF0FBF57
:1056C30012FC22E4FF0FBF12FC22E4FF0FBF12FC07
:1056D300223F065B4F666D7D277F6F777C395E794E
:1056E300717673003738403E785870541EBF86DB9E
:1056F300CFE6EDFDA7FFEFF7FCB9DEF9F1F6F38096
:04570300C7B8C0BEA5
:00000001FF
