:07000000024F7D02000632F1
:10000B0002547612576CC2A2125773C296025773E0
:03001B0002516827
:1000230002572FE4F55EF55FF560F561F562F5675C
:10003300F568AD68AC67AF601222BDE532700302AC
:100043000AD01250FA8F5EE55E30E00575630180D9
:1000530003E4F563E55E30E1057564018003E4F5CF
:1000630064E55E30E2057565018003E4F565E55EF0
:1000730030E3057566018003E4F566E563B40105C5
:100083000560E4F55FE560D394134005E4F560F59E
:1000930032E565B401080568E56870020567E56641
:1000A300B40108E568156870021567E560C3940438
:1000B3005003020147E560D3940B400302014778E4
:1000C3007DE6706D7604124ED1E54F25E02487F866
:1000D300A60608A607E54FC394085004054F80649D
:1000E3007996E7789426FF19E71836FEEF1826FF6E
:1000F300EE1836FEEF1826FFEE1836FEEF1826FF31
:10010300EE1836FEEF1826FFEE1836FEEF1826FF20
:10011300EE1836FEEF1826FFEE1836FEEF7803CE04
:10012300C313CE13D8F9799AF7EE19F7E4F54F8094
:1001330013E54F25E02487F8E6FE08E6FF7899A645
:100143000608A607E56064017047E537FD7C00AF4C
:10015300601222BDE5682537F537E4F567F568E5F4
:1001630037C394044007E4F537F567F568E564643D
:1001730001600302003EAD377F1212559FE4FDFC80
:100183007F161222BD7FC47E09125617055F020037
:100193003EE5606402703FE537C3940240050560A5
:1001A30002003EE554FD7C00AF601222BDE56825E8
:1001B30054F554E4F567F568E554C394024007E445
:1001C300F554F567F568E5646401600302003EAD2C
:1001D300547F130207A2E5606403703CE5376005B2
:1001E300056002003EE568252EF52EE4F567F56807
:1001F300E52EC394064007E4F52EF567F568E52E72
:10020300FD7C00AF601222BDE5646401600302005F
:100213003EAD2E7F140207A2E56064047057E537F4
:100223006005056002003EE508B4010575450180DF
:1002330003E4F5457899E6FC08E6FDAF601222BDBC
:10024300E5646401600302003E7899E6F52608E65A
:10025300F527FDAC267F161256ED125613E545B46D
:100263000106E54244018004E54254FEFD7F32125B
:10027300559F020AAAE5606405600302032FE53770
:100283006005056002003E7899E6FC08E6FDAF6074
:100293001222BDE5646401600302003E7899E6F52D
:1002A3005908E6F55AFDAC597F181256EDE5456439
:1002B300017020E55A2527FFE5593526FED3EF9433
:1002C300CAEE94C84002801FE55A2527FFE5593539
:1002D300268032C3E55A9527FFE5599526FED3EFCD
:1002E30094CAEE94C84014EF2436FDEE3437FC1262
:1002F3003AB38E518F52434210801EC3E55A95275D
:10030300FFE5599526FEC374CA9FFD74C89EFC126F
:100313003AB38E518F525342EFAD52AC517F3412E8
:1003230056ED125613AD427F320207A2E560640612
:100333007059E53764016005056002003EE508B4C5
:1003430001057545018003E4F5457899E6FC08E667
:10035300FDAF601222BDE5646401600302003E78D4
:1003630099E6F54A08E6F54BFDAC4A7F1A1256EDBD
:10037300125613E545B40106E54244028004E54202
:1003830054FDFD7F3212559F020AAAE5606407609F
:100393000302043EE53764016005056002003E7810
:1003A30099E6FC08E6FDAF601222BDE564640160D6
:1003B3000302003E7899E6F54308E6F544FDAC43B5
:1003C3007F1C1256EDE545B40130E544254BFFE5AE
:1003D30043354AFED3EF94E4EE94444009EF241CE2
:1003E300FDEE34BB8044E544254BFFE543354AFE2F
:1003F300C374E49FFD74449E8030C3E544954BFF72
:10040300E543954AFED3EF94E4EE94444009EF2488
:100413001CFDEE34BB8013C3E544954BFFE54395C8
:100423004AFEC374E49FFD74449EFC123AB38E3CAF
:100433008F3DAD3DAC3C7F3602065AE560640870E3
:1004430059E53764026005056002003EE508B40122
:10045300057545018003E4F5457899E6FC08E6FD5A
:10046300AF601222BDE5646401600302003E789927
:10047300E6F53A08E6F53BFDAC3A7F1E1256ED125F
:100483005613E545B40106E54244048004E54254AD
:10049300FBFD7F3212559F020AAAE56064096003DF
:1004A300020549E53764026005056002003E78995C
:1004B300E6FC08E6FDAF601222BDE564640160035B
:1004C30002003E7899E6F53308E6F534FDAC337F58
:1004D300201256EDE545B4012EE534253BFFE53307
:1004E300353AFED3EF9400EE947D4008E42FFDEE01
:1004F30034838041E534253BFFE533353AFEC3E4DD
:100503009FFD747D9E802EC3E534953BFFE53395B7
:100513003AFED3EF9400EE947D4008E42FFDEE34D1
:10052300838012C3E534953BFFE533953AFEC3E47C
:100533009FFD747D9EFC123AB38E2C8F2DAD2DAC96
:100543002C7F3802065AE560640A705FE53764035E
:100553006005056002003EE508B4010575450180AC
:1005630003E4F5457899E6FC08E6FDAF601222BD89
:10057300E5646401600302003E7F32FE1256177881
:1005830099E6F52F08E6F530FDAC2F7F221256EDE4
:10059300125613E545B40106E54244088004E542DA
:1005A30054F7FD7F3212559F020AAAE560640B607F
:1005B30003020660E53764036005056002003E78C8
:1005C30099E6FC08E6FDAF601222BDE564640160B4
:1005D3000302003E7899E6F52808E6F529FDAC28E4
:1005E3007F241256ED125613E545B4012EE5292555
:1005F30030FFE528352FFED3EF9400EE9419400821
:10060300E42FFDEE34E78041E5292530FFE5283569
:100613002FFEC3E49FFD74199E802EC3E5299530F8
:10062300FFE528952FFED3EF9400EE94194008E4DC
:100633002FFDEE34E78012C3E5299530FFE52895B9
:100643002FFEC3E49FFD74199EFC123AB38E238FD1
:1006530024AD24AC237F3A1256ED020AAAE5606466
:100663000C705AAE67AF68FC7D0A123AA1EF2549B8
:10067300F549EE3548F548E4F567F568AD49AC480A
:10068300AF601222BDE56564016009E5666401603F
:100693000302003ED3E549940FE54894274009E45B
:1006A300F567F568F548F549E56464016003020000
:1006B3003EAD49AC487F261256ED020AAAE56064B6
:1006C3000D705AAE67AF68FC7D0A123AA1EF254759
:1006D300F547EE3546F546E4F567F568AD47AC46B4
:1006E300AF601222BDE56564016009E566640160DF
:1006F3000302003ED3E547940FE54694274009E4FF
:10070300F567F568F546F547E564640160030200A3
:100713003EAD47AC467F281256ED020AAAE5606457
:100723000E60030207A8C3E56894C8E56794004018
:1007330020E54E7005754E998040E54E540F700CC0
:10074300E54E24F054F04409F54E8002154EE48042
:1007530029E568640145677025E54EC3949A400511
:10076300E4F54E8015E54E540FFFBF090AE54E240C
:100773001054F0F54E8002054EE4F567F568E42564
:100783004EFDE43420FCAF601222BDE564640160D9
:100793000302003EAD4E7F061255BDAD4E7F2A12B9
:1007A300559F020AAAE560640F707CC3E56894C88C
:1007B300E56794004022E55BD394015005755B1215
:1007C300803CE55B540F700CE55B24F054F0440966
:1007D300F55B8002155B8026E5686401456770233D
:1007E300E55BB41205755B018014E55B540FFFBF35
:1007F300090AE55B241054F0F55B8002055BE4F520
:1008030067F568E55BFD7C00AF601222BDE56464BB
:1008130001600302003EAD5B7F051255BDAD5B7FFA
:100823002B12559F020AAAE560641060030209AA0D
:10083300C3E56894C8E567940050030208DFE555F3
:10084300B40111E55BB4020CE54E54037006755513
:1008530029020982E555B40112E55BB4020DE54EA8
:1008630054036007755528E4020982E55564017055
:1008730030E55B64016023E55B6403601DE55B6455
:10088300056017E55B64076011E55B6408600BE5D1
:100893005B64106005E55BB41207755531E402092A
:1008A30082E555B4011EE55B64046011E55B6406F3
:1008B300600BE55B64096005E55BB41107755530B2
:1008C300E4020982E555540F700CE55524F054F009
:1008D3004409F55580021555E4020982E56864016F
:1008E30045676003020986E55BB40212E54E5403D3
:1008F300700CE555B42907755501E4020982E55BDF
:10090300B40211E54E5403600BE555B42806755542
:1009130001E4806BE55B64016023E55B6403601DB8
:10092300E55B64056017E55B64076011E55B6408DC
:10093300600BE55B64106005E55BB4120BE555B431
:100943003106755501E48037E55B64046011E55BAE
:100953006406600BE55B64096005E55BB4110BE5B8
:1009630055B43006755501E48015E555540FFFBFA6
:10097300090AE555241054F0F55580020555E4F5B0
:1009830067F568E555FD7C00AF601222BDE5646440
:1009930001600302003EAD557F041255BDAD557F86
:1009A3002C12559F020AAAE5606411707AC3E568A8
:1009B30094C8E56794004020E5567005755623807A
:1009C3003EE556540F700CE55624F054F04409F5F7
:1009D3005680021556E48027E56864014567702355
:1009E300E556B42305E4F5568015E556540FFFBFCD
:1009F300090AE556241054F0F55680020556E4F52D
:100A030067F568E556FD7C00AF601222BDE56464BE
:100A130001600302003EAD567F021255BDAD567F05
:100A23002E12559F020AAAE56064126003020ABEF1
:100A3300C3E56894C8E56794004020E557700575E1
:100A43005759803EE557540F700CE55724F054F086
:100A53004409F55780021557E48027E5686401458A
:100A6300677023E557B45905E4F5578015E55754E6
:100A73000FFFBF090AE557241054F0F5578002050C
:100A830057E4F567F568E557FD7C00AF601222BDBA
:100A9300E5646401600302003EAD577F011255BD5A
:100AA300AD577F2F12559F055FE4FDFC7F16122281
:100AB300BD7FC47E0912561702003EE560C394143D
:100AC300500302003EE4F560F53202003E02500995
:100AD3008E628F63856264856365E4F509E5086466
:100AE300017066D3E5659455E5649404AC62AD6327
:100AF3005031E41239E77BA47A70795D784012397A
:100B030045A804A905AA06AB07E4FFFE7DA07C4324
:100B130012384D123A208E648F65750A01E4F50888
:100B2300021330E41239E77BA47A70795D784012BE
:100B33003945E4FBFA79A078C3123851123A208E72
:100B4300648F65E4F50A021330AC62AD63E41239D5
:100B5300E77BA47A70795D7840123945E4FBFA7932
:100B6300A07843123851123A208E648F65D3E5631F
:100B73009486E5629404401FE56324B4FFE5623480
:100B8300FBFE900007E0FD7C00123AB3C3E5659FCE
:100B9300F565E5649EF564D3E56394C4E562940961
:100BA300401FE563246EFFE56234F6FE900008E023
:100BB300FD7C00123AB3C3E5659FF565E5649EF5D8
:100BC30064D3E5639484E5629412401FE56324A42F
:100BD300FFE56234EDFE900007E0FD7C00123AB3BE
:100BE300C3E5659FF565E5649EF564D3E56394020B
:100BF300E5629417401FE563241CFFE56234E9FEB8
:100C0300900009E0FD7C00123AB3C3E5659FF565EA
:100C1300E5649EF564D3E5639472E562941F401F17
:100C2300E56324ACFFE56234E0FE900009E0FD7C5F
:100C330000123AB3C3E5659FF565E5649EF564D399
:100C4300E5639430E562942A401FE5632402FFE5DF
:100C53006234D6FE900009E0FD7C00123AB3C3E58E
:100C6300659FF565E5649EF564D3E5639426E562C7
:100C73009434401FE563240CFFE56234CCFE9000FE
:100C83000AE0FD7C00123AB3C3E5659FF565E564B0
:100C93009EF564D3E563948CE562943C401FE56361
:100CA300247EFFE56234C3FE90000AE0FD7C00125F
:100CB3003AB3C3E5659FF565E5649EF564D3E563E3
:100CC30094ACE562943F401EE5632486FFE56234FD
:100CD300C0FE90000AE0FD7C00123AB3EF2565F5F3
:100CE30065EE3564F564D3E5639430E5629443407F
:100CF3001FE5632402FFE56234BDFE900009E0FDB9
:100D03007C00123AB3C3E5659FF565E5649EF5641F
:100D1300D3E5639450E562944B401EE56324BAFF28
:100D2300E56234B4FE90000AE0FD7C00123AB3EFB2
:100D33002565F565EE3564F564D3E56394E8E5620E
:100D4300944E401FE563244AFFE56234B1FE9000F0
:100D530009E0FD7C00123AB3C3E5659FF565E564E0
:100D63009EF564D3E563948CE562945A401FE56372
:100D730024B0FFE56234A5FE90000AE0FD7C00127A
:100D83003AB3C3E5659FF565E5649EF564D3E56312
:100D93009404E5629460401EE5632424FFE5623415
:100DA300A0FE90000BE0FD7C00123AB3EF2565F541
:100DB30065EE3564F564D3E5639470E5629467404A
:100DC3001FE56324B8FFE5623498FE90000AE0FD56
:100DD3007C00123AB3C3E5659FF565E5649EF5644F
:100DE300D3E5639478E562946E401EE56324B0FF17
:100DF300E5623491FE90000BE0FD7C00123AB3EF04
:100E03002565F565EE3564F564D3E5639436E562EF
:100E13009474401FE56324FCFFE562348BFE90006D
:100E23000AE0FD7C00123AB3C3E5659FF565E5640E
:100E33009EF564AE62AF63E4FCFD7B907A83F9F8C0
:100E4300C3123B16502BE5632498FFE562347CFE06
:100E5300E434FFFDE434FFFCC00790000AE0FBE448
:100E6300FAF8D00712521AEF2565F565EE3564F5E9
:100E730064AE62AF63E4FCFD7BB07A86F9F8C3121B
:100E83003B16502CE5632478FFE5623479FEE434A5
:100E9300FFFDE434FFFCC007900009E0FBE4FAF82F
:100EA300D00712521AC3E5659FF565E5649EF564A4
:100EB300AE62AF63E4FCFD7B807A8EF9F8C3123B2C
:100EC30016502BE56324A8FFE5623471FEE434FF7A
:100ED300FDE434FFFCC00790000BE0FBE4FAF8D01C
:100EE3000712521AEF2565F565EE3564F564AE62B7
:100EF300AF63E4FCFD7B447A93F9F8C3123B1650CD
:100F03002CE56324EEFFE562346CFEE434FFFDE47C
:100F130034FFFCC00790000BE0FBE4FAF8D00712A3
:100F2300521AC3E5659FF565E5649EF564AE62AF4D
:100F330063E4FCFD7B987A9EF9F8C3123B16502BB1
:100F4300E563249AFFE5623461FEE434FFFDE43493
:100F5300FFFCC00790000BE0FBE4FAF8D007125245
:100F63001AEF2565F565EE3564F564AE62AF63E4AB
:100F7300FCFD7BF07AA0F9F8C3123B16502CE56315
:100F83002442FFE562345FFEE434FFFDE434FFFCFA
:100F9300C00790000BE0FBE4FAF8D00712521AC323
:100FA300E5659FF565E5649EF564AE62AF63E4FCB9
:100FB300FD7B047AA6F9F8C3123B16502BE5632494
:100FC3002EFFE562345AFEE434FFFDE434FFFCC037
:100FD3000790000BE0FBE4FAF8D00712521AEF2552
:100FE30065F565EE3564F564AE62AF63E4FCFD7BE5
:100FF300D47AADF9F8C3123B16502CE563245EFF97
:10100300E5623452FEE434FFFDE434FFFCC0079094
:10101300000BE0FBE4FAF8D00712521AC3E5659F10
:10102300F565E5649EF564AE62AF63E4FCFD7B5455
:101033007ABAF9F8C3123B16502BE56324DEFFE5B9
:10104300623445FEE434FFFDE434FFFCC007900046
:101053000AE0FBE4FAF8D00712521AEF2565F565AA
:10106300EE3564F564AE62AF63E4FCFD7B767AC073
:10107300F9F8C3123B16502CE563249EFFE5623456
:101083003FFEE434FFFDE434FFFCC007900007E0BB
:10109300FBE4FAF8D00712521AC3E5659FF565E53C
:1010A300649EF564AE62AF63E4FCFD7B507AC3F9E2
:1010B300F8C3123B16502BE56324C4FFE562343CAE
:1010C300FEE434FFFDE434FFFCC007900007E0FBBF
:1010D300E4FAF8D00712521AEF2565F565EE356488
:1010E300F564AE62AF63E4FCFD7B947ACAF9F8C39E
:1010F300123B16502CE5632494FFE5623435FEE47D
:1011030034FFFDE434FFFCC00790000BE0FBE4FA7E
:10111300F8D00712521AC3E5659FF565E5649EF59D
:1011230064AE62AF63E4FCFD7B507ACDF9F8C31281
:101133003B16502BE56324D8FFE5623432FEE434DA
:10114300FFFDE434FFFCC00790000BE0FBE4FAF87A
:10115300D00712521AEF2565F565EE3564F564AED6
:1011630062AF63E4FCFD7B387AD1F9F8C3123B1616
:10117300502CE56324F0FFE562342EFEE434FFFDDA
:10118300E434FFFCC00790000BE0FBE4FAF8D0075F
:1011930012521AC3E5659FF565E5649EF564AE6278
:1011A300AF63E4FCFD7BB07AD6F9F8C3123B16506B
:1011B3002BE5632478FFE5623429FEE434FFFDE484
:1011C30034FFFCC00790000BE0FBE4FAF8D00712F1
:1011D300521AEF2565F565EE3564F564AE62AF63CB
:1011E300E4FCFD7B307AE3F9F8C3123B16502BE5A0
:1011F3006324F8FFE562341CFEE434FFFDE434FFAE
:10120300FCC00790000BE0FBE4FAF8D00712521A77
:10121300EF2565F565EE3564F564AE62AF63E4FC16
:10122300FD7B8C7AE6F9F8C3123B16502CE5632458
:1012330088FFE5623419FEE434FFFDE434FFFCC0AB
:1012430007900009E0FBE4FAF8D00712521AC3E54D
:10125300659FF565E5649EF564AE62AF63E4FCFDEE
:101263007B9C7AEAF9F8C3123B16502BE563248C76
:10127300FFE5623415FEE434FFFDE434FFFCC007F0
:1012830090000BE0FBE4FAF8D00712521AEF256541
:10129300F565EE3564F564AE62AF63E4FCFD7B3463
:1012A3007AF3F9F8C3123B16502CE56324F4FFE5F7
:1012B30062340CFEE434FFFDE434FFFCC00790000D
:1012C3000BE0FBE4FAF8D00712521AC3E5659FF569
:1012D30065E5649EF564AE62AF63E4FCFD7BFC7A76
:1012E300F3F9F8C3123B16502BE563242CFFE56298
:1012F300340CFEE434FFFDE434FFFCC00790000A25
:10130300E0FBE4FAF8D00712521AEF2565F565EE13
:101313003564F564AE62AF63E4FCFD7BB07AFA79C1
:1013230009F8C3123B165005E4F564F565AE64AFE6
:1013330065228E628F63E4F509E5086401600302A8
:10134300140AD3E5639417E5629403AC62AD63506A
:1013530030E41239E77BE17A7A791478401239451F
:10136300A804A905AA06AB07E4FFFE7DA07C4312EF
:10137300384D123A208E648F65750A01E4F50880B2
:1013830023E41239E77BE17A7A79147840123945FC
:10139300E4FBFA79A078C3123851123A208E648F95
:1013A30065E4F50AD3E56394F8E56294024022E527
:1013B3000A701EE5632426FFE56234FDFE90001BE0
:1013C300E0FD7C00123AB3EF2565F565EE3564F573
:1013D30064D3E56394D0E56294075003021B28E5C8
:1013E3000A6003021B28E5632462FFE56234F8FE0A
:1013F30090001DE0FD7C00123AB3EF2565F565EE24
:101403003564F564021B28AC62AD63E41239E77BF3
:10141300E17A7A79147840123945E4FBFA79A078B5
:1014230043123851123A208E648F65D3E56394F8E2
:10143300E5629402401FE5632426FFE56234FDFE66
:1014430090001BE0FD7C00123AB3C3E5659FF56590
:10145300E5649EF564D3E56394D0E5629407401F89
:10146300E5632462FFE56234F8FE90001DE0FD7C35
:1014730000123AB3C3E5659FF565E5649EF564D351
:10148300E5639460E562940C401EE56324B2FFE5D6
:101493006234F3FE90001DE0FD7C00123AB3EF25A9
:1014A30065F565EE3564F564D3E56394DEE5629432
:1014B3000D401FE5632454FFE56234F2FE90001DE6
:1014C300E0FD7C00123AB3C3E5659FF565E5649ED4
:1014D300F564D3E56394F2E5629412401EE5632458
:1014E30040FFE56234EDFE90001CE0FD7C00123A03
:1014F300B3EF2565F565EE3564F564D3E563944490
:10150300E562941B401EE563240CFFE56234E5FEAF
:1015130090001DE0FD7C00123AB3EF2565F565EE02
:101523003564F564D3E563947FE5629424401FE555
:101533006324FCFFE56234DBFE90001EE0FD7C00CB
:10154300123AB3C3E5659FF565E5649EF564D3E59B
:101553006394B4E5629428401FE5632488FFE56241
:1015630034D7FE90001DE0FD7C00123AB3C3E5655D
:101573009FF565E5649EF564D3E56394FCE56294A9
:1015830030401FE563242CFFE56234CFFE90001E3C
:10159300E0FD7C00123AB3C3E5659FF565E5649E03
:1015A300F564D3E56394AAE5629437401FE56324A9
:1015B30088FFE56234C8FE90001FE0FD7C00123A0C
:1015C300B3C3E5659FF565E5649EF564D3E5639470
:1015D300A0E5629441401FE5632492FFE56234BEB7
:1015E300FE90001FE0FD7C00123AB3C3E5659FF552
:1015F30065E5649EF564D3E563944AE562944740E8
:101603001EE56324E8FFE56234B8FE90001FE0FDA9
:101613007C00123AB3EF2565F565EE3564F564D3C6
:10162300E56394FAE562944B401FE5632438FFE5D4
:101633006234B4FE90001EE0FD7C00123AB3C3E5B1
:10164300659FF565E5649EF564D3E56394CAE56239
:101653009453401FE5632468FFE56234ACFE9000B9
:101663001FE0FD7C00123AB3C3E5659FF565E564B1
:101673009EF564D3E5639488E5629459401EE5635F
:1016830024C8FFE56234A6FE90001EE0FD7C001234
:101693003AB3EF2565F565EE3564F564D3E56394F8
:1016A30006E5629463401FE563242CFFE562349DE5
:1016B300FE90001FE0FD7C00123AB3C3E5659FF581
:1016C30065E5649EF564D3E56394ECE56294684054
:1016D3001EE5632450FFE5623497FE90001EE0FD93
:1016E3007C00123AB3EF2565F565EE3564F564D3F6
:1016F300E5639458E5629470401EE56324ACFFE50E
:10170300623490FE90001FE0FD7C00123AB3EF2597
:1017130065F565EE3564F564D3E563945CE5629441
:1017230076401FE5632408FFE562348AFE90001FBC
:10173300E0FD7C00123AB3C3E5659FF565E5649E61
:10174300F564D3E5639476E562947A401EE56324F9
:10175300EEFFE5623485FE90001DE0FD7C00123A49
:10176300B3EF2565F565EE3564F564AE62AF63E40A
:10177300FCFD7B9E7A84F9F8C3123B16502BE5637C
:101783002494FFE562347BFEE434FFFDE434FFFC84
:10179300C00790001FE0FBE4FAF8D00712521AEFDB
:1017A3002565F565EE3564F564AE62AF63E4FCFD73
:1017B3007B6E7A8CF9F8C3123B16502BE56324C475
:1017C300FFE5623473FEE434FFFDE434FFFCC0073D
:1017D30090001EE0FBE4FAF8D00712521AEF2565D9
:1017E300F565EE3564F564AE62AF63E4FCFD7BBA88
:1017F3007A90F9F8C3123B16502BE5632478FFE582
:1018030062346FFEE434FFFDE434FFFCC007900054
:101813001FE0FBE4FAF8D00712521AEF2565F565CD
:10182300EE3564F564AE62AF63E4FCFD7BEE7A985B
:10183300F9F8C3123B16502BE5632444FFE56234E9
:1018430067FEE434FFFDE434FFFCC00790001FE0B3
:10185300FBE4FAF8D00712521AEF2565F565EE3569
:1018630064F564AE62AF63E4FCFD7B667A9EF9F8CF
:10187300C3123B16502BE56324CCFFE5623461FEB3
:10188300E434FFFDE434FFFCC00790001FE0FBE4F9
:10189300FAF8D00712521AEF2565F565EE3564F5AF
:1018A30064AE62AF63E4FCFD7BA67AA4F9F8C312CD
:1018B3003B16502BE56324F0FFE562345BFEE43412
:1018C300FFFDE434FFFCC00790001FE0FBE4FAF8DF
:1018D300D00712521AEF2565F565EE3564F564AE4F
:1018E30062AF63E4FCFD7BBA7AA9F9F8C3123B1635
:1018F300502BE5632478FFE5623456FEE434FFFDA4
:10190300E434FFFCC00790001FE0FBE4FAF8D007C3
:1019130012521AEF2565F565EE3564F564AE62AFD4
:1019230063E4FCFD7B967AAFF9F8C3123B16502AA9
:10193300E42563FFE5623451FEE434FFFDE434FF44
:10194300FCC00790001EE0FBE4FAF8D00712521A1D
:10195300EF2565F565EE3564F564AE62AF63E4FCCF
:10196300FD7B3A7AB6F9F8C3123B16502BE5632494
:10197300F8FFE5623449FEE434FFFDE434FFFCC0C4
:101983000790001EE0FBE4FAF8D00712521AEF2585
:1019930065F565EE3564F564AE62AF63E4FCFD7B2B
:1019A3007A7ABCF9F8C3123B16502BE56324B8FFCF
:1019B300E5623443FEE434FFFDE434FFFCC00790EA
:1019C300001DE0FBE4FAF8D00712521AEF2565F583
:1019D30065EE3564F564AE62AF63E4FCFD7BDA7AF1
:1019E300C5F9F8C3123B16502BE5632458FFE56293
:1019F300343AFEE434FFFDE434FFFCC00790001CDE
:101A0300E0FBE4FAF8D00712521AEF2565F565EE0C
:101A13003564F564AE62AF63E4FCFD7B467ACDF9D1
:101A2300F8C3123B16502BE56324ECFFE562343216
:101A3300FEE434FFFDE434FFFCC00790001CE0FB30
:101A4300E4FAF8D00712521AEF2565F565EE35640E
:101A5300F564AE62AF63E4FCFD7B2E7AD1F9F8C383
:101A6300123B16502BE5632404FFE562342FFEE49A
:101A730034FFFDE434FFFCC00790001EE0FBE4FAF2
:101A8300F8D00712521AEF2565F565EE3564F56453
:101A9300AE62AF63E4FCFD7B0A7AD7F9F8C3123B6D
:101AA30016502BE5632428FFE5623429FEE434FF56
:101AB300FDE434FFFCC00790001CE0FBE4FAF8D01F
:101AC3000712521AEF2565F565EE3564F564AE62CB
:101AD300AF63E4FCFD7B1E7ADCF9F8C3123B1650BE
:101AE3002BE5632414FFE5623424FEE434FFFDE4B4
:101AF30034FFFCC00790001DE0FBE4FAF8D00712A6
:101B0300521AEF2565F565EE3564F564AE62AF6391
:101B1300E4FCFD7B487AEEF9F8C3123B16500674D9
:101B2300FFF564F565AE64AF6522E4F562F563F530
:101B330064F565F566F5678C688D69E50864016091
:101B430003021CFEC3E569940AE5689400503F90C4
:101B530057E2E493F562F563F564E537B4030A905D
:101B630057E5E493F564021D19E50964016005E591
:101B730037B4020D9057E2E493F5659057E5021DE3
:101B8300529057E5E493F5659057EC021D52C3E577
:101B930069940AE5689400403FE5699464E56894B4
:101BA3000050359057E2E493F562F563F564E53749
:101BB3006403700C9057E593F5649057EC021DD1C4
:101BC300E50964016006E537640270069057E50293
:101BD3001DD19057E5021E0AC3E5699464E5689434
:101BE300004038E56994E8E5689403502E9057E285
:101BF300E493F562F5639057E5E493F564E53764A0
:101C0300037003021E6CE50964017003021ECFE535
:101C13003764026003021F27021ECFC3E56994E8FD
:101C2300E5689403404FE5699410E56894275045AF
:101C33009057E2E493F5629057E5E493F563AE6859
:101C4300AF697C037DE8123AB374D02FF5827457E1
:101C53003EF583E493F564E53764037003021FC222
:101C6300E50964017003022033E53764026003026F
:101C73002098022033C3E5699410E5689427500344
:101C83000222A8AE68AF69E4FCFD7BA07A867901E5
:101C9300F8D3123B1650030222A89057E5E493F5BC
:101CA30062AE68AF697C277D10123AB374D02FF50A
:101CB3008274573EF583E493F563AE68AF697C277E
:101CC3007D10123AB37E037FE8CFCDCFCECCCE12B8
:101CD3003AB374D02FF58274573EF583E493F564D9
:101CE300E53764037003021FC2E50964016006E57A
:101CF3003764027003022033022098C3E569940A13
:101D0300E568940050559057E2E493F562F563F566
:101D130064E537B403139057ECE493F5659057D01B
:101D2300E493F566E5690222A5E50964016005E52A
:101D330037B402119057E2E493F565F566E56990CF
:101D430057D00222A59057E2E493F5659057ECE44F
:101D530093F566E5699057D00222A5C3E569940A15
:101D6300E56894005003021E40E5699464E56894B5
:101D7300004003021E409057E2E493F562F563F5D9
:101D830064E537640370389057EC93F565AE68AF3C
:101D9300697C007D0A123AB374D02FF58274573EE2
:101DA300F583E493F566AE68AF697C007D0A123A69
:101DB300B374D02DF58274573CF583E40222A5E574
:101DC3000964016006E537640270399057E2E493D1
:101DD300F565AE68AF697C007D0A123AB374D02F03
:101DE300F58274573EF583E493F566AE68AF697C7C
:101DF300007D0A123AB374D02DF58274573CF583F3
:101E0300E40222A59057E2E493F565AE68AF697CDE
:101E1300007D0A123AB374EC2FF58274573EF583B2
:101E2300E493F566AE68AF697C007D0A123AB37439
:101E3300D02DF58274573CF583E40222A5C3E569EE
:101E43009464E56894005003021F7FE56994E8E514
:101E53006894034003021F7F9057E2E493F562F511
:101E630063F564E53764037057AE68AF69FC7D645E
:101E7300123AB374EC2FF58274573EF583E493F56D
:101E830065AE68AF697C007D64123AB37E007F0A59
:101E9300CFCDCFCECCCE123AB374D02FF5827457B8
:101EA3003EF583E493F566AE68AF697C007D0A1264
:101EB3003AB374D02DF58274573CF583E40222A51E
:101EC300E50964016006E53764027058AE68AF69DE
:101ED3007C007D64123AB374D02FF58274573EF5BB
:101EE30083E493F565AE68AF697C007D64123AB311
:101EF3007E007F0ACFCDCFCECCCE123AB374D02F93
:101F0300F58274573EF583E493F566AE68AF697C5A
:101F1300007D0A123AB374D02DF58274573CF583D1
:101F2300E40222A5AE68AF697C007D64123AB37403
:101F3300D02FF58274573EF583E493F565AE68AF11
:101F4300697C007D64123AB37E007F0ACFCDCFCE89
:101F5300CCCE123AB374EC2FF58274573EF583E47A
:101F630093F566AE68AF697C007D0A123AB374D00C
:101F73002DF58274573CF583E40222A5C3E56994E9
:101F8300E8E568940350030220FDE5699410E568D1
:101F9300942740030220FD9057E2E493F562F56332
:101FA300AE68AF697C037DE8123AB374D02FF58233
:101FB30074573EF583E493F564E53764037065AEC7
:101FC30068AF697C037DE8123AB37E007F64CFCDAE
:101FD300CFCECCCE123AB374EC2FF58274573EF5C4
:101FE30083E493F565AE68AF697C007D64123AB310
:101FF3007E007F0ACFCDCFCECCCE123AB374D02F92
:10200300F58274573EF583E493F566AE68AF697C59
:10201300007D0A123AB374D02DF58274573CF583D0
:10202300E40222A5E50964016006E53764027065F0
:10203300AE68AF697C037DE8123AB37E007F64CF5C
:10204300CDCFCECCCE123AB374D02FF58274573E97
:10205300F583E493F565AE68AF697C007D64123A5D
:10206300B37E007F0ACFCDCFCECCCE123AB374D09D
:102073002FF58274573EF583E493F566AE68AF6936
:102083007C007D0A123AB374D02DF58274573CF567
:1020930083E40222A5AE68AF697C037DE8123AB3FC
:1020A3007E007F64CFCDCFCECCCE123AB374D02F87
:1020B300F58274573EF583E493F565AE68AF697CAA
:1020C300007D64123AB37E007F0ACFCDCFCECCCE53
:1020D300123AB374EC2FF58274573EF583E493F50B
:1020E30066AE68AF697C007D0A123AB374D02DF5F1
:1020F3008274573CF583E40222A5C3E5699410E595
:1021030068942750030222A8AE68AF69E4FCFD7B04
:10211300A07A867901F8D3123B1650030222A890C5
:1021230057E2E493F562AE68AF697C277D10123AFB
:10213300B374D02FF58274573EF583E493F563AE01
:1021430068AF697C277D10123AB37E037FE8CFCD59
:10215300CFCECCCE123AB374D02FF58274573EF55E
:1021630083E493F564E53764037065AE68AF697C17
:10217300037DE8123AB37E007F64CFCDCFCECCCEC1
:10218300123AB374EC2FF58274573EF583E493F55A
:1021930065AE68AF697C007D64123AB37E007F0A46
:1021A300CFCDCFCECCCE123AB374D02FF5827457A5
:1021B3003EF583E493F566AE68AF697C007D0A1251
:1021C3003AB374D02DF58274573CF583E40222A50B
:1021D300E50964016006E53764027064AE68AF69BF
:1021E3007C037DE8123AB37E007F64CFCDCFCECCA3
:1021F300CE123AB374D02FF58274573EF583E4932D
:10220300F565AE68AF697C007D64123AB37E007FEA
:102213000ACFCDCFCECCCE123AB374D02FF5827481
:10222300573EF583E493F566AE68AF697C007D0A9B
:10223300123AB374D02DF58274573CF583E480626F
:10224300AE68AF697C037DE8123AB37E007F64CF4A
:10225300CDCFCECCCE123AB374D02FF58274573E85
:10226300F583E493F565AE68AF697C007D64123A4B
:10227300B37E007F0ACFCDCFCECCCE123AB374EC6F
:102283002FF58274573EF583E493F566AE68AF6924
:102293007C007D0A123AB374D02DF58274573CF555
:1022A30083E493F56785657885647985637A8562C8
:1022B3007BAB66AD677F01024C9B8C698D6A8F6B2C
:1022C300AF6AAE69E56B70289057E193FFF56C90A8
:1022D30057D0E493F56D9057E2E493F56E9057D59C
:1022E300E493F56F9057DEE493F5708F7102298DB7
:1022F300E56B6401600302239DEF4E70229057E16A
:1023030093F56C9057D1E493F56D9057E2E493F510
:102313006EF56F9057E7E493F570A3E493F571EFCF
:1023230064014E70299057E193F56C9057D1E49373
:10233300F56D9057E2E493F56E9057E9E493F56FEA
:102343009057E7E493F5709057DDE493F571EF64EC
:10235300024E701F9057E193F56C9057D1E493F5BB
:102363006D9057E2E493F56EF56FF5709057E6E4E0
:1023730093F571EF64034E600302298D9057E19347
:10238300F56C9057D1E493F56D9057E2E493F56EB5
:10239300F56FF5709057DA022888E56B640270498F
:1023A300EF4E701E9057E193F56C9057D2E493F57E
:1023B3006D9057E2E493F56EF56FF5709057DC027C
:1023C3002888EF64014E600302298D9057E193F54D
:1023D3006C9057D2E493F56D9057E2E493F56EF564
:1023E3006FF5709057DF022888E56B640360030282
:1023F30024E3EF4E701B9057E193F56C9057D3E4B1
:1024030093F56D9057E2E493F56EF56F757074F57F
:1024130071EF64014E70249057E193F56C9057D39C
:10242300E493F56D9057E2E493F56EF56F9057EBF7
:10243300E493F5709057E2E493F571EF64024E7004
:10244300249057E193F56C9057D3E493F56D90572F
:10245300E2E493F56EF56F9057E7E493F5709057C8
:10246300E2E493F571EF64034E70249057E193F522
:102473006C9057D3E493F56D9057E2E493F56EF5C2
:102483006F9057DEE493F5709057E2E493F571EFA4
:1024930064044E70249057E193F56C9057D3E49302
:1024A300F56D9057E2E493F56EF56F9057E9E49379
:1024B300F5709057E2E493F571EF64054E60030203
:1024C300298D9057E193F56C9057D3E493F56D9074
:1024D30057E2E493F56EF56F75706DF57102298D12
:1024E300E56BC39404500302288CE56BD3940D4031
:1024F3000302288C856973856A74E56BB4040590BF
:1025030057E7803AE56BB405059057E78041E56BE3
:10251300B406059057E98026E56BB407059057E9A3
:10252300802DE56BB408059057E68012E56BB4097E
:10253300059057E68019E56BB40A0C9057DAE493DB
:10254300F56C756D5C8039E56BB40B0C9057DAE470
:1025530093F56C756D6D8028E56BB40C109057DAAC
:10256300E493F56C9057E4E493F56D8013E56BB455
:102573000D119057DAE493F56C9057E0E493F56D01
:10258300E4F572C3E57394004040E574940AE5737F
:10259300940050369057E2E493F56EF56FE5727050
:1025A30009E50970059057EC80049057D0E493F542
:1025B30070AE73AF747C007D0A123AB374D02DF5FC
:1025C3008274573CF583E493F571C3E574940AE58B
:1025D3007394004060E5749464E5739400505690DE
:1025E30057E2E493F56EF56FE5727017E509701322
:1025F300AE73AF74FC7D0A123AB374EC2FF5827498
:10260300578012AE73AF747C007D0A123AB374D054
:102613002FF58274573EF583E493F570AE73AF7470
:102623007C007D0A123AB374D02DF58274573CF5C1
:1026330083E493F571C3E5749464E57394005003E4
:102643000226DAE57494E8E573940340030226DA7C
:102653009057E2E493F56EAE73AF747C007D641221
:102663003AB374D02FF58274573EF583E493F56F34
:10267300E5727024E5097020AE73AF74FC7D6412BB
:102683003AB37E007F0ACFCDCFCECCCE123AB3740D
:10269300EC2FF5827457801FAE73AF747C007D649A
:1026A300123AB37E007F0ACFCDCFCECCCE123AB34F
:1026B30074D02FF58274573EF583E493F570AE73AF
:1026C300AF747C007D0A123AB374D02DF58274572F
:1026D3003CF583E493F571C3E57494E8E5739403DF
:1026E300500302279BE5749410E57394274003027B
:1026F300279BAE73AF747C037DE8123AB374D02F7B
:10270300F58274573EF583E493F56EAE73AF747C34
:10271300037DE8123AB37E007F64CFCDCFCECCCE1B
:10272300123AB374D02FF58274573EF583E493F5D0
:102733006FE5727024E5097020AE73AF74FC7D649D
:10274300123AB37E007F0ACFCDCFCECCCE123AB3AE
:1027530074EC2FF5827457801FAE73AF747C007DC9
:1027630064123AB37E007F0ACFCDCFCECCCE123ADD
:10277300B374D02FF58274573EF583E493F570AEAE
:1027830073AF747C007D0A123AB374D02DF5827452
:10279300573CF583E493F571C3E5749410E57394A2
:1027A30027500302298DAE73AF74E4FCFD7BA07A3E
:1027B300867901F8D3123B16500302298DAE73AF0D
:1027C300747C277D10123AB374D02FF58274573E70
:1027D300F583E493F56DAE73AF747C277D10123AE5
:1027E300B37E037FE8CFCDCFCECCCE123AB374D035
:1027F3002FF58274573EF583E493F56EAE73AF7491
:102803007C037DE8123AB37E007F64CFCDCFCECC7C
:10281300CE123AB374D02FF58274573EF583E49306
:10282300F56FE5727024E5097020AE73AF74FC7D1B
:1028330064123AB37E007F0ACFCDCFCECCCE123A0C
:10284300B374EC2FF5827457801FAE73AF747C00A2
:102853007D64123AB37E007F0ACFCDCFCECCCE12A9
:102863003AB374D02FF58274573EF583E493F57031
:10287300AE73AF747C007D0A123AB374D02DF58227
:1028830074573CF583E4022971E56BC3940E500938
:10289300E56B94144003022976E56BB40E05756C61
:1028A3006E802EE56BB40F0C9057E3E493F56C90B8
:1028B30057D08031E56BB4100C9057DDE493F56C81
:1028C300756D6E8024E56BB4110C9057E0E493F5BD
:1028D3006C9057E9800FE56BB4120E9057E3E493C5
:1028E300F56C9057D1E493F56D856973856A74E54A
:1028F30074540FFDE573C4F854F0C868F573E574B8
:10290300C4540F48F574540FFCE573C4F854F0C86D
:1029130068F573E574C4540F48F574540FFBE573FD
:10292300C4F854F0C868F573E574C4540F48F574DB
:10293300540FFF75720170239057E293FEF56EEB0F
:1029430070088E6FEC9057D08008EB9057D093F5BA
:102953006FEC93F570ED93F571800FEF9057D09373
:10296300F56EEB93F56FEC93F570ED9057D093F50F
:10297300718017E56BC394164010E4F56CF56DF5A3
:102983006E756F6E75707975716B856F78856E79FD
:10299300856D7A856C7BAB70AD717F01024C9B8E2C
:1029A300628F63856266856367E4F509E508640100
:1029B3006003022D31D3E56394C2E5629402AC62F5
:1029C300AD635030E41239E77B7B7A14790E78409B
:1029D300123945A804A905AA06AB07E4FFFE7DA0AA
:1029E3007C4312384D123A208E648F65750A01E4D8
:1029F300F5088026E41239E77BCD7ACC790C784050
:102A0300123945E4FBFA79A078C3123851123A20FF
:102A13008E648F65E4F50A750801D3E565946EE568
:102A23006494004022E50A701EE565249CFFE5647A
:102A330034FFFE900043E0FD7C00123AB3EF2565BE
:102A4300F565EE3564F564D3E56594B5E564940105
:102A53004022E50A701EE565245CFFE56434FEFE52
:102A6300900046E0FD7C00123AB3EF2565F565EE74
:102A73003564F564D3E5659458E56494024022E532
:102A83000A701EE56524DAFFE56434FDFE90004517
:102A9300E0FD7C00123AB3EF2565F565EE3564F58C
:102AA30064D3E56594DEE56494024022E50A701E72
:102AB300E565243AFFE56434FDFE900044E0FD7CC7
:102AC30000123AB3EF2565F565EE3564F564D3E599
:102AD3006594C0E56494034022E50A701EE565240D
:102AE3004AFFE56434FCFE900045E0FD7C00123AA9
:102AF300B3EF2565F565EE3564F564D3E565947E3E
:102B0300E56494044022E50A701EE56524B4FFE5FC
:102B13006434FBFE900044E0FD7C00123AB3EF25E1
:102B230065F565EE3564F564D3E5659446E564942F
:102B3300054022E50A701EE56524ECFFE56434FADE
:102B4300FE900044E0FD7C00123AB3EF2565F56585
:102B5300EE3564F564D3E5659404E5649406402298
:102B6300E50A701EE5652410FFE56434FAFE900063
:102B730043E0FD7C00123AB3EF2565F565EE35645D
:102B8300F564D3E56594F4E56494064022E50A70A0
:102B93001EE565242AFFE56434F9FE900044E0FD58
:102BA3007C00123AB3EF2565F565EE3564F564D321
:102BB300E5659476E56494074022E50A701EE565B1
:102BC3002494FFE56434F8FE900044E0FD7C001299
:102BD3003AB3EF2565F565EE3564F564D3E56594A1
:102BE30048E56494084022E50A701EE56524C2FFA7
:102BF300E56434F7FE900043E0FD7C00123AB3EF46
:102C03002565F565EE3564F564D3E56594DEE56425
:102C130094084022E50A701EE565242CFFE5643420
:102C2300F7FE900043E0FD7C00123AB3EF2565F513
:102C330065EE3564F564D3E56594F6E5649409407F
:102C430022E50A701EE5652428FFE56434F6FE904C
:102C53000043E0FD7C00123AB3EF2565F565EE35E0
:102C630064F564D3E56594A0E564940A4022E50A1B
:102C7300701EE5652488FFE56434F5FE900043E0AB
:102C8300FD7C00123AB3EF2565F565EE3564F56416
:102C9300D3E565944AE564940B4022E50A701EE58A
:102CA3006524DEFFE56434F4FE900043E0FD7C0020
:102CB300123AB3EF2565F565EE3564F564D3E56542
:102CC300949AE564940B4022E50A701EE56524841A
:102CD300FFE56434F4FE900043E0FD7C00123AB358
:102CE300EF2565F565EE3564F564D3E5659426E572
:102CF30064940C4022E50A701EE56524E4FFE56454
:102D030034F3FE900043E0FD7C00123AB3EF2565F7
:102D1300F565EE3564F564D3E56594A0E564940F39
:102D23005003022F0D75641375657E022F0D8566A2
:102D330064856765AC66AD67E41239E77BCD7ACC11
:102D4300790C7840123945E4FBFA79A078431238BC
:102D530051123A208E648F65D3E5659454E56494EB
:102D630001401FE56524B6FFE56434FEFE9000458F
:102D7300E0FD7C00123AB3C3E5659FF565E5649E0B
:102D8300F564D3E565943AE5649402401FE5652450
:102D9300D0FFE56434FDFE900044E0FD7C00123A70
:102DA300B3C3E5659FF565E5649EF564D3E5659476
:102DB300ACE5649403401FE5652472FFE56434FCCD
:102DC300FE900044E0FD7C00123AB3C3E5659FF535
:102DD30065E5649EF564D3E5659414E56494054064
:102DE3001FE565240AFFE56434FBFE900044E0FD23
:102DF3007C00123AB3C3E5659FF565E5649EF5640F
:102E0300D3E56594B8E5649406401FE565245CFF4B
:102E1300E56434F9FE900044E0FD7C00123AB3C34C
:102E2300E5659FF565E5649EF564D3E565947AE50C
:102E3300649408401CE565249AFFE56434F7FE7C3E
:102E4300007D1C123AB3C3E5659FF565E5649EF505
:102E530064D3E5659432E564940A401FE56524EC88
:102E6300FFE56434F5FE900045E0FD7C00123AB3C3
:102E7300C3E5659FF565E5649EF564D3E56594A4B4
:102E8300E564940B401FE5652470FFE56434F4FEAC
:102E9300900045E0FD7C00123AB3C3E5659FF565FC
:102EA300E5649EF564D3E56594B7E564940D401F2E
:102EB300E56524AEFFE56434F2FE900045E0FD7C59
:102EC30000123AB3C3E5659FF565E5649EF564D3E7
:102ED300E5659490E564940F401FE56524E2FFE502
:102EE3006434F0FE900046E0FD7C00123AB3C3E583
:102EF300659FF565E5649EF564D3E5659488E564AF
:102F03009413400675641775656FAE64AF65228EC2
:102F1300608F61E4F509E5086401600302307BD347
:102F2300E561948AE5609401AC60AD615030E412D0
:102F330039E77BD77AA379B0783F123945A804A93A
:102F430005AA06AB07E4FFFE7DA07C4312384D12B1
:102F53003A208E628F63750A01E4F5088026E41235
:102F630039E77BD77AA379B0783F123945E4FBFA86
:102F730079A078C3123851123A208E628F63E4F538
:102F83000A750801856264856365D3E5639428E562
:102F93006294004022E50A701EE5632428FFE435AD
:102FA30062FE90004DE0FD7C00123AB3C3E5659FDD
:102FB300F565E5649EF564D3E56394B6E562940331
:102FC3004023E50A701FE563244AFFE56234FCFEF3
:102FD30090004CE0FD7C00123AB3C3E5659FF565B4
:102FE300E5649EF564D3E563949EE562940740230C
:102FF300E50A701FE5632462FFE56234F8FE900082
:103003004CE0FD7C00123AB3C3E5659FF565E564CA
:103013009EF564D3E5639428E562940A4023E50AA8
:10302300701FE56324D8FFE56234F5FE90004CE0A1
:10303300FD7C00123AB3C3E5659FF565E5649EF533
:1030430064D3E5639480E562940C50030233AAE5EC
:103053000A60030233AAE5632480FFE56234F3FECA
:1030630090004CE0FD7C00123AB3C3E5659FF56523
:10307300E5649EF5640233AAAC60AD61E41239E7FE
:103083007BD77AA379B0783F123945E4FBFA79A06C
:103093007843123851123A208E628F6385626485B9
:1030A3006365C3E5639414E5629405401DE42563F9
:1030B300FFE56234FBFE90004EE0FD7C00123AB364
:1030C300EF2565F565EE3564F564C3E5639498E52E
:1030D300629408401EE5632468FFE56234F7FE90BE
:1030E3000050E0FD7C00123AB3EF2565F565EE353F
:1030F30064F564C3E56394B2E562940C401EE56332
:10310300244EFFE56234F3FE90004EE0FD7C001296
:103113003AB3EF2565F565EE3564F564C3E563946D
:1031230004E5629410401EE56324FCFFE56234EF7E
:10313300FE90004EE0FD7C00123AB3EF2565F56585
:10314300EE3564F564C3E5639488E5629413401E29
:10315300E5632478FFE56234ECFE900050E0FD7CEB
:1031630000123AB3EF2565F565EE3564F564C3E502
:103173006394A8E5629416401EE5632458FFE56254
:1031830034E9FE900050E0FD7C00123AB3EF256570
:10319300F565EE3564F564C3E5629419401DE425D5
:1031A30063FFE56234E7FE90004FE0FD7C00123AD6
:1031B300B3EF2565F565EE3564F564C3E56394A265
:1031C300E562941C401EE563245EFFE56234E3FE82
:1031D30090004EE0FD7C00123AB3EF2565F565EEF5
:1031E3003564F564C3E563940EE562941F401EE500
:1031F3006324F2FFE56234E0FE90004EE0FD7C00C4
:10320300123AB3EF2565F565EE3564F564C3E563FE
:1032130094FCE5629421401EE5632404FFE56234D7
:10322300DEFE90004EE0FD7C00123AB3EF2565F51B
:1032330065EE3564F564C3E56394EAE5629424407E
:103243001EE5632416FFE56234DBFE90004FE0FDCC
:103253007C00123AB3EF2565F565EE3564F564C37A
:10326300E56394ACE5629426401EE5632454FFE5D0
:103273006234D9FE900051E0FD7C00123AB3EF2591
:1032830065F565EE3564F564C3E5639404E562941E
:1032930029401EE56324FCFFE56234D6FE9000500E
:1032A300E0FD7C00123AB3EF2565F565EE3564F574
:1032B30064C3E56394F4E5629429401EE563240C3A
:1032C300FFE56234D6FE900051E0FD7C00123AB374
:1032D300EF2565F565EE3564F564C3E5639488E52C
:1032E30062942C401EE5632478FFE56234D3FE909C
:1032F300004FE0FD7C00123AB3EF2565F565EE352E
:1033030064F564C3E5639418E562942E401EE56397
:1033130024E8FFE56234D1FE900051E0FD7C001209
:103323003AB3EF2565F565EE3564F564C3E563945B
:10333300DAE562942F401EE5632426FFE56234D06C
:10334300FE900051E0FD7C00123AB3EF2565F56570
:10335300EE3564F564C3E56394CEE5629431401EB3
:10336300E5632432FFE56234CEFE90004CE0FD7C41
:1033730000123AB3EF2565F565EE3564F564C3E5F0
:10338300639458E5629434401EE56324A8FFE56224
:1033930034CBFE90004CE0FD7C00123AB3EF256580
:1033A300F565EE3564F564AE64AF65228E628F63B6
:1033B300E4F509E50864017066D3E56394B5E56255
:1033C3009403AC62AD635031E41239E77BA47A70A5
:1033D300793D7840123945A804A905AA06AB07E44C
:1033E300FFFE7DA07C4312384D123A208E648F6518
:1033F300750A01E4F508023845E41239E77BA47A3B
:1034030070793D7840123945E4FBFA79A078C3120C
:103413003851123A208E648F65E4F50A023845ACC0
:1034230062AD63E41239E77BA47A70793D78401288
:103433003945E4FBFA79A07843123851123A208EC9
:10344300648F65D3E563941AE5629404401FE563D2
:103453002418FFE56234FCFE900011E0FD7C0012AD
:103463003AB3C3E5659FF565E5649EF564D3E5630B
:1034730094F1E5629409401FE563241EFFE562347D
:10348300F6FE900011E0FD7C00123AB3C3E5659FA0
:10349300F565E5649EF564D3E5639406E5629411EE
:1034A300401FE5632402FFE56234EFFE900012E063
:1034B300FD7C00123AB3C3E5659FF565E5649EF5AF
:1034C30064D3E5639446E562941E401EE42563FFDE
:1034D300E56234E2FE900013E0FD7C00123AB3C3D0
:1034E300E5659FF565E5649EF564D3E563949AE528
:1034F300629429401FE5632452FFE56234D6FE90AF
:103503000013E0FD7C00123AB3C3E5659FF565E562
:10351300649EF564D3E56394F2E562942B401EE563
:10352300632440FFE56234D4FE900013E0FD7C0089
:10353300123AB3EF2565F565EE3564F564D3E563BB
:103543009448E562943A401FE5632462FFE56234E0
:10355300C6FE900013E0FD7C00123AB3C3E5659FFD
:10356300F565E5649EF564D3E563943CE562943CBC
:10357300401EE56324D8FFE56234C3FE900012E0E9
:10358300FD7C00123AB3EF2565F565EE3564F5640D
:10359300D3E56394D4E5629444401FE5632440FF7C
:1035A300E56234BBFE900014E0FD7C00123AB3C325
:1035B300E5659FF565E5649EF564D3E56394BCE535
:1035C300629448401EE5632458FFE56234B7FE90D9
:1035D3000012E0FD7C00123AB3EF2565F565EE3588
:1035E30064F564D3E563948CE5629450401FE5630E
:1035F3002488FFE56234AFFE900013E0FD7C0012E7
:103603003AB3C3E5659FF565E5649EF564D3E56369
:10361300945CE5629458401EE56324B8FFE5623488
:10362300A7FE900012E0FD7C00123AB3EF2565F58A
:1036330065EE3564F564D3E5639438E562945E40E2
:103643001FE56324DCFFE56234A1FE900012E0FD78
:103653007C00123AB3C3E5659FF565E5649EF564A6
:10366300D3E56394D0E5629466401EE5632444FF8A
:10367300E5623499FE900014E0FD7C00123AB3EF4A
:103683002565F565EE3564F564D3E5639454E56229
:10369300946A401FE5632424FFE5623496FE90009C
:1036A30013E0FD7C00123AB3C3E5659FF565E5645D
:1036B3009EF564D3E56394B4E5629473401FE563B8
:1036C3002460FFE562348CFE900013E0FD7C001261
:1036D3003AB3C3E5659FF565E5649EF564D3E56399
:1036E30094DCE562947D401FE5632438FFE5623492
:1036F30082FE900013E0FD7C00123AB3C3E5659FA0
:10370300F565E5649EF564AE62AF63E4FCFD7BA002
:103713007A87F9F8C3123B16502CE5632474FFE54E
:10372300623478FEE434FFFDE434FFFCC00790000C
:1037330012E0FBE4FAF8D00712521AC3E5659FF5CD
:1037430065E5649EF564AE62AF63E4FCFD7BB47A29
:103753008CF9F8C3123B16502CE5632460FFE56235
:103763003473FEE434FFFDE434FFFCC00790001320
:10377300E0FBE4FAF8D00712521AC3E5659FF5653A
:10378300E5649EF564AE62AF63E4FCFD7BDC7A9690
:10379300F9F8C3123B16502CE5632438FFE5623475
:1037A30069FEE434FFFDE434FFFCC007900013E03E
:1037B300FBE4FAF8D00712521AC3E5659FF565E5F5
:1037C300649EF564AE62AF63E4FCFD7B8C7A9BF987
:1037D300F8C3123B16502CE5632488FFE56234647A
:1037E300FEE434FFFDE434FFFCC007900012E0FB6D
:1037F300E4FAF8D00712521AC3E5659FF565E5644C
:103803009EF564AE62AF63E4FCFD7B2C7AABF9F802
:10381300C3123B16502CE56324E8FFE5623454FEE3
:10382300E434FFFDE434FFFCC007900011E0FBE447
:10383300FAF8D00712521AC3E5659FF565E5649E51
:10384300F564AE64AF6522023A8CE86480F8E9332C
:10385300E83360110460F0ED33EC337009E8FCE900
:10386300FDEAFEEBFF220460DED3EB9FEA9EE99DB7
:10387300E8C2E78CF0C2F795F0400CE8CCF8E9CD4C
:10388300F9EACEFAEBCFFB123A5785D0F058047021
:103893000320D5B3E80470075002B2D5023A9692DA
:1038A300D5EC0460F7E4CCC0E0C398F8603B94180F
:1038B3006008400DD0E0FB023A6EE4FBFAC9FC80DD
:1038C30028E830E406E4C9FBE4CAFCE830E305E495
:1038D300C9CACBFCE854076010F8C3E913F9EA132B
:1038E300FAEB13FBEC13FCD8F130F52FC3E49CFC8B
:1038F300EF9BFFEE9AFEED99FDD0E0FBEF4E4D4CB2
:10390300701222DB03023A93EC2CFCEF33FFEE330D
:10391300FEED33FDED30E7EB023A6EEF2BFFEE3AAF
:10392300FEED39FDD0E0FB50130BBB0003023A96CA
:10393300ED13FDEE13FEEF13FFEC13FC023A6E02E0
:103943003A96EC5D046005E859047003023A8C1260
:103953003A57580460F6EC4860F2EC7004FDFEFF41
:1039630022C860DB2481C85009C398600250060254
:103973003A939850CAF582E9294B4A7005AB820203
:103983003A8275F0007C1A7880C3EF9BEE9AED992A
:10399300400DC3EF9BFFEE9AFEED99FDE842F0DC8C
:1039A30023ACF0D0E0FFD0E0FED0E0FDAB8220E717
:1039B300101BEB60BAEC2CFCEF33FFEE33FEED3360
:1039C300FD023A6EE803F830E705C0F075F000EF4A
:1039D3002FFFEE33FEED33FD40B830E7C280AA750A
:1039E300F020800E75F010800575F0087D007E00D4
:1039F3007F003392D530D503123B08EC334010EFF0
:103A030033FFEE33FEED33FDEC33FCD5F0ED22E571
:103A1300F0247EA2D513CC92E7CDCEFF22EDD2E7E0
:103A2300CD33EC3392D524814006E4FFFEFDFC2226
:103A3300FCE4CFCECDCC24E0501174FF80EDC3CC99
:103A430013CCCD13CDCE13CECF13CF0470F030D51E
:103A5300DE023B08E9D2E7C933E833F892D5EDD269
:103A6300E7CD33EC33FC5002B2D522EC30E7100F34
:103A7300BF000C0EBE00080DBD00040BEB6014A2CA
:103A8300D5EB13FCED92E7FD2274FFFCFDFEFF2254
:103A9300E480F8A2D574FF13FC7D80E480EFEF8D02
:103AA300F0A4A8F0CF8CF0A428CE8DF0A42EFE2293
:103AB300BC000BBE0029EF8DF084FFADF022E4CCF7
:103AC300F875F008EF2FFFEE33FEEC33FCEE9DECC0
:103AD300984005FCEE9DFE0FD5F0E9E4CEFD22ED06
:103AE300F8F5F0EE8420D21CFEADF075F008EF2F50
:103AF300FFED33FD4007985006D5F0F222C398FD41
:103B03000FD5F0EA22C3E49FFFE49EFEE49DFDE4AB
:103B13009CFC22EB9FF5F0EA9E42F0E99D42F0EC1B
:103B23006480C864809845F02275F008758200EFC0
:103B33002FFFEE33FECD33CDCC33CCC58233C582DC
:103B43009BED9AEC99E58298400CF582EE9BFEED95
:103B53009AFDEC99FC0FD5F0D6E4CEFBE4CDFAE464
:103B6300CCF9A88222B800C1B90059BA002DEC8B58
:103B7300F084CFCECDFCE5F0CBF97818EF2FFFEE34
:103B830033FEED33FDEC33FCEB33FB10D7039940ED
:103B930004EB99FB0FD8E5E4F9FA227818EF2FFF2D
:103BA300EE33FEED33FDEC33FCC933C910D7059B6F
:103BB300E99A4007EC9BFCE99AF90FD8E0E4C9FACB
:103BC300E4CCFB2275F010EF2FFFEE33FEED33FD57
:103BD300CC33CCC833C810D7079BEC9AE899400A7A
:103BE300ED9BFDEC9AFCE899F80FD5F0DAE4CDFBF8
:103BF300E4CCFAE4C8F9228E628F63E508640170AD
:103C030049D3E5639468E56294005034AC62AD63D4
:103C1300E41239E77B487AE1790A7840123945A8FA
:103C230004A905AA06AB07E4FFFEFD7C4212384D4A
:103C3300123A208E648F65750A01E4F508023F4449
:103C4300E4F50AF564F565023F44AC62AD63E41242
:103C530039E77BCD7ACC794C7840123945E4FBFACD
:103C6300F97842123851123A20AB07AA068A648BBC
:103C730065C3EB9432EA9400401DEB24CEFFEA3493
:103C8300FFFE900031E0FD7C00123AB3C3E5659F6F
:103C9300F565E5649EF564C3EB946DEA9400401DFD
:103CA300EB2493FFEA34FFFE900030E0FD7C00122A
:103CB3003AB3C3E5659FF565E5649EF564C3EB948C
:103CC300AEEA9400401DEB2452FFEA34FFFE90005D
:103CD30032E0FD7C00123AB3C3E5659FF565E56408
:103CE3009EF564C3EB94F8EA9400401DEB2408FFAF
:103CF300EA34FFFE900033E0FD7C00123AB3C3E5E3
:103D0300659FF565E5649EF564C3EB9471EA9401E0
:103D1300401DEB248FFFEA34FEFE900034E0FD7C6F
:103D230000123AB3C3E5659FF565E5649EF564C388
:103D3300EB94C8EA9401401DEB2438FFEA34FEFEFD
:103D4300900035E0FD7C00123AB3C3E5659FF5654D
:103D5300E5649EF564C3EB944FEA9402401DEB24A3
:103D6300B1FFEA34FDFE900036E0FD7C00123AB369
:103D7300C3E5659FF565E5649EF564C3EB941CEAB2
:103D83009403401DEB24E4FFEA34FCFE900036E08C
:103D9300FD7C00123AB3C3E5659FF565E5649EF5C6
:103DA30064C3EB94F2EA9403401DEB240EFFEA3460
:103DB300FCFE900038E0FD7C00123AB3C3E5659F3A
:103DC300F565E5649EF564C3EB9426EA9405401D0E
:103DD300EB24DAFFEA34FAFE900036E0FD7C0012B1
:103DE3003AB3C3E5659FF565E5649EF564C3EB945B
:103DF30084EA9406401DEB247CFFEA34F9FE90002C
:103E03003AE0FD7C00123AB3C3E5659FF565E564CE
:103E13009EF564C3EB946DEA9408401DEB2493FF75
:103E2300EA34F7FE900038E0FD7C00123AB3C3E5B4
:103E3300659FF565E5649EF564C3EB946DEA9409AB
:103E4300401DEB2493FFEA34F6FE90003AE0FD7C3C
:103E530000123AB3C3E5659FF565E5649EF564C357
:103E6300EB9441EA940B401DEB24BFFFEA34F4FECC
:103E7300900039E0FD7C00123AB3C3E5659FF56518
:103E8300E5649EF564C3EB94C9EA940C401DEB24EE
:103E930037FFEA34F3FE90003DE0FD7C00123AB3B5
:103EA300C3E5659FF565E5649EF564C3EB9485EA18
:103EB300940E401DEB247BFFEA34F1FE90003EE0BC
:103EC300FD7C00123AB3C3E5659FF565E5649EF595
:103ED30064C3EB941CEA9411401DEB24E4FFEA3421
:103EE300EEFE90003EE0FD7C00123AB3C3E5659F11
:103EF300F565E5649EF564C3EB94D6EA9413401C20
:103F0300EB242AFFEA34ECFE90003EE0FD7C001235
:103F13003AB3EF2565F565EE3564F564C3EB94B20A
:103F2300EA9414401CEB244EFFEA34EBFE90003E6F
:103F3300E0FD7C00123AB3EF2565F565EE3564F5D7
:103F430064AE64AF65228E628F63E50864017049D5
:103F5300D3E5659467E56494005034AC62AD63E4E3
:103F63001239E77B487AE1790A7840123945A80487
:103F7300A905AA06AB07E4FFFEFD7C4212384D12E9
:103F83003A208E648F65750A01E4F508024292E4D3
:103F9300F50AF564F565024292AC62AD63E4123949
:103FA300E77B717A3D794A7840123945E4FBFAF9A7
:103FB3007842123851123A20AB07AA068A648B65FD
:103FC300C3EB9445EA9400401DEB24C5FFEA34FF9C
:103FD300FE900021E0FD7C00123AB3C3E5659FF536
:103FE30065E5649EF564C3EB946DEA9400401DEBB4
:103FF3002493FFEA34FFFE900022E0FD7C00123A96
:10400300B3C3E5659FF565E5649EF564C3EB9499D9
:10401300EA9400401DEB2467FFEA34FFFE9000237F
:10402300E0FD7C00123AB3C3E5659FF565E5649E48
:10403300F564C3EB94C7EA9400401DEB2439FFEA0F
:1040430034FFFE900024E0FD7C00123AB3C3E56523
:104053009FF565E5649EF564C3EB9411EA94014012
:104063001DEB24F0FFEA34FEFE900025E0FD7C000A
:10407300123AB3C3E5659FF565E5649EF564C3EB4A
:10408300947BEA9401401DEB2486FFEA34FEFE9004
:104093000023E0FD7C00123AB3C3E5659FF565E5B7
:1040A300649EF564C3EA9402401DEB2401FFEA34E5
:1040B300FEFE900026E0FD7C00123AB3C3E5659F47
:1040C300F565E5649EF564C3EB94A1EA9402401D93
:1040D300EB2460FFEA34FDFE900027E0FD7C001234
:1040E3003AB3C3E5659FF565E5649EF564C3EB9458
:1040F30060EA9403401DEB24A1FFEA34FCFE900028
:1041030028E0FD7C00123AB3C3E5659FF565E564DD
:104113009EF564C3EB944AEA9404401DEB24B7FF75
:10412300EA34FBFE900029E0FD7C00123AB3C3E5BC
:10413300659FF565E5649EF564C3EB9462EA9405B7
:10414300401DEB249FFFEA34FAFE90002AE0FD7C39
:1041530000123AB3C3E5659FF565E5649EF564C354
:10416300EB94A9EA9406401DEB2458FFEA34F9FEC8
:1041730090002BE0FD7C00123AB3C3E5659FF56523
:10418300E5649EF564C3EB94B0EA9407401DEB2409
:1041930051FFEA34F8FE90002DE0FD7C00123AB3A3
:1041A300C3E5659FF565E5649EF564C3EB94E6EAB4
:1041B3009408401DEB241BFFEA34F7FE90002CE02B
:1041C300FD7C00123AB3C3E5659FF565E5649EF592
:1041D30064C3EB9426EA940A401DEB24DBFFEA3424
:1041E300F5FE90002DE0FD7C00123AB3C3E5659F18
:1041F300F565E5649EF564C3EB949BEA940B401D5F
:10420300EB2466FFEA34F4FE90002EE0FD7C0012FE
:104213003AB3C3E5659FF565E5649EF564C3EB9426
:1042230048EA940D401DEB241DFFEA34F3FE900091
:104233002EE0FD7C00123AB3C3E5659FF565E564A6
:104243009EF564C3EB9403EA940F401DEB24FEFF39
:10425300EA34F0FE90002EE0FD7C00123AB3C3E591
:10426300659FF565E5649EF564C3EB9456EA941186
:10427300401DEB24ABFFEA34EEFE90002FE0FD7C03
:1042830000123AB3C3E5659FF565E5649EF564AE38
:1042930064AF6522C28CAF89EF4401F589F5897556
:1042A3008CDCE4F58AC28D75E50775E64675E6B9DB
:1042B300AFE2EF4408F5E2F5E275E50675E646750B
:1042C300E6B9D28CA28DB340FBC28DC28C75E507D3
:1042D30075E64675E6B9AFE2EF4403F5E2F5E2753C
:1042E300E50675E64675E6B975E50775E64675E6CE
:1042F300B9AFE2EF54FBF5E2F5E275E50675E64684
:1043030075E6B912551BD296D2A21255811254A248
:1043130012570F12571F1255DB12562EE4FFFE12CF
:104323005444125648E4FFFE1254F3E4FF1256A518
:10433300E4F538FF12553DEF644E70227F011255AC
:104343003DBF451A7F0212553DBF57127F031255D9
:104353003DBF5A0A7F0412553DEF64A560297D4E87
:10436300E4FF12559F7D457F0112559F7D577F02C4
:1043730012559F7D5A7F0312559F7DA57F041255C9
:104383009F1251C5124BC51256487F1212553D8FCD
:10439300377F1312553D8F547F1412553D8F2E7F57
:1043A300161255F78E268F277F181255F78E598FC1
:1043B3005A7F1A1255F78E4A8F4B7F1C1255F78E70
:1043C300438F447F1E1255F78E3A8F3B7F20125541
:1043D300F78E338F347F221255F78E2F8F307F2441
:1043E3001255F78E288F297F261255F78E488F494D
:1043F3007F281255F78E468F477F2A12553D8F4EE1
:104403007F2B12553D8F5B7F2C12553D8F557F2E91
:1044130012553D8F567F2F12553D8F577F301255C2
:104423003D8F507F3212553D8F427F341255F78EA8
:10443300518F527F361255F78E3C8F3D7F38125580
:10444300F78E2C8F2D7F3A1255F78E238F247F3CC6
:1044530012553D8F3FE4254EF536E43420F53512F1
:1044630051C5D2A9D28CD2ABD28ED2AF753901123B
:104473005009E5377007E54230E0278022E537B47D
:104483000107E54230E11B8016E537B40207E54238
:1044930030E20F800AE537B40308E54230E30375E1
:1044A3004501E52A14602614602814602A14602C40
:1044B300146031240570EBE537700DE54230E405F7
:1044C3007522018003E4F5221244EC80D512498A57
:1044D30080D01246BE80CB12482480C675320112AA
:1044E300002680BE124AEC80B91250FABF0106754D
:1044F3002A040246B9787DE6600302464876101224
:104503004ED18E5E8F5FE545B40124E508B4011FEB
:10451300C3E55F9527E55E952640028047C3E527FF
:10452300955FF55FE526955EF55EE4F5088053E556
:1045330045B40106E50870028009E5457013E508F6
:10454300B4010EE527255FF55FE526355EF55E8050
:1045530031E545702DE5087029C3E55F9527E55ED4
:104563009526400EE55F9527F55FE55E9526F55E9A
:104573008010C3E527955FF55FE526955EF55E75CB
:104583000801E522AC51AD52AE5EAF5FB40110122B
:104593003AB3C3E55F9FF55FE55E9EF55E800D125E
:1045A3003AB3EF255FF55FEE355EF55EE558B4018E
:1045B3000674FFF55EF55FE52E7011AF5FAE5E1218
:1045C30013358E608F61E554707B8072E52EB401E4
:1045D30011AF5FAE5E1233AF8E608F61E5547065CD
:1045E300805CE52EB40211AF5FAE5E1229A28E602D
:1045F3008F61E554704F8046E52EB40311AF5FAE73
:104603005E120AD38E608F61E55470398030E52ED7
:10461300B40414750901AF5FAE5E123F498E608F1B
:1046230061E55470208017E52EB40519750901AFB3
:104633005FAE5E123BFA8E608F61E5547007124DD8
:10464300628E608F61787EE67007125089787E767D
:1046530008787CE670267610AD61AC607F01121B92
:104663002DD3E5619549E5609548400EE561954791
:10467300E56095465004D2B48002C2B47881E670F6
:1046830018208407AF61AE601254F3208507AF6131
:10469300AE60125444788176107880E67018200159
:1046A30009856199D2017601800AE560F599C20115
:1046B3007880763BD299AE60AF61221250FABF0187
:1046C30006752A0402481F787DE660030247AC762C
:1046D30010124ED18E5E8F5FE545B40124E508B418
:1046E300011FD3E55F953BE55E953A40028047C3E2
:1046F300E53B955FF55FE53A955EF55EE4F5088089
:1047030053E545B40106E50870028009E5457013D9
:10471300E508B4010EE53B255FF55FE53A355EF547
:104723005E8031E545702DE5087029C3E55F953B53
:10473300E55E953A400EE55F953BF55FE55E953A9C
:10474300F55E8010C3E53B955FF55FE53A955EF551
:104753005E750801D3E5349480E533940CAC2CAD3D
:104763002DAE5EAF5F400F123AB3EF255FF55FEEFC
:10477300355EF55E800E123AB3C3E55F9FF55FE5E4
:104783005E9EF55EAC5EAD5FE41239E77BCD7ACC1D
:10479300794C7840123945123A208E5E8F5FE55886
:1047A300B4010674FFF55EF55F787CE67028AD5FB3
:1047B300AC5E7F01121B2D787C7608D3E55F9549AB
:1047C300E55E9548400EE55F9547E55E95465004E6
:1047D300D2B48002C2B47881E67018208407AF5F38
:1047E300AE5E1254F3208507AF5FAE5E1254447879
:1047F300817602787EE67007125089787E76087893
:1048030080E67018200109855F99D2017601800A3C
:10481300E55EF599C2017880763BD299AE5EAF5FD3
:10482300221250FABF0106752A04024985787DE6F3
:1048330060030249127610124ED18E5E8F5FE545FA
:10484300B40124E508B4011FC3E55F9530E55E9527
:104853002F40028047C3E530955FF55FE52F955EF6
:10486300F55EE4F5088053E545B40106E5087002FA
:104873008009E5457013E508B4010EE530255FF5C1
:104883005FE52F355EF55E8031E545702DE50870F7
:1048930029C3E55F9530E55E952F400EE55F9530C2
:1048A300F55FE55E952FF55E8010C3E530955FF506
:1048B3005FE52F955EF55E750801D3E5299400E564
:1048C300289419AC23AD24AE5EAF5F400F123AB308
:1048D300EF255FF55FEE355EF55E800E123AB3C3EA
:1048E300E55F9FF55FE55E9EF55EAC5EAD5FE4124E
:1048F30039E77BCD7ACC794C7840123945123A208E
:104903008E5E8F5FE558B4010674FFF55EF55F7840
:104913007CE67028AD5FAC5E7F01121B2D787C7640
:1049230010D3E55F9549E55E9548400EE55F9547F1
:10493300E55E95465004D2B48002C2B47881E67035
:1049430018208407AF5FAE5E1254F3208507AF5F74
:10495300AE5E12544478817602787EE67007125078
:1049630089787E76087880E67018200109855F993A
:10497300D2017601800AE55EF599C2017880763B23
:10498300D299AE5EAF5F221250FABF0106752A04B8
:10499300024AE7787DE66003024A747610124ED12C
:1049A3008E5E8F5FE545B40124E508B4011FC3E5BE
:1049B3005F954BE55E954A40028047C3E54B955FA3
:1049C300F55FE54A955EF55EE4F5088053E545B489
:1049D3000106E50870028009E5457013E508B40196
:1049E3000EE54B255FF55FE54A355EF55E8031E503
:1049F30045702DE5087029C3E55F954BE55E954A43
:104A0300400EE55F954BF55FE55E954AF55E8010D8
:104A1300C3E54B955FF55FE54A955EF55E75080165
:104A2300D3E54494E4E5439444AC3CAD3DAE5EAF82
:104A33005F400F123AB3EF255FF55FEE355EF55E2B
:104A4300800E123AB3C3E55F9FF55FE55E9EF55EA8
:104A5300E558B4010674FFF55EF55FAF5FAE5E1215
:104A63002F128E5E8F5FE5547007124D628E5E8F3C
:104A73005F787CE67028AD5FAC5E7F01121B2D78FA
:104A83007C7610D3E55F9549E55E9548400EE55F7A
:104A93009547E55E95465004D2B48002C2B478814E
:104AA300E67018208407AF5FAE5E1254F3208507CB
:104AB300AF5FAE5E12544478817602787EE670076B
:104AC300125089787E76087880E67018200109856F
:104AD3005F99D2017601800AE55EF599C20178807B
:104AE300763BD299AE5EAF5F22124BC51256487F1A
:104AF3001212553D8F377F1312553D8F547F141279
:104B0300553D8F2E7F161255F78E268F277F18124D
:104B130055F78E598F5A7F1A1255F78E4A8F4B7F4E
:104B23001C1255F78E438F447F221255F78E2F8F19
:104B3300307F241255F78E288F297F1E1255F78E4A
:104B43003A8F3B7F201255F78E338F347F261255D1
:104B5300F78E488F497F281255F78E468F477F2A55
:104B63001255F78F4E7F2B12553D8F5B7F2C1255BD
:104B73003D8F557F2D12553D8F4D7F2E12553D8F05
:104B8300567F2F12553D8F577F3012553D8F507FE3
:104B93003212553D8F427F341255F78E518F527F1B
:104BA300361255F78E3C8F3D7F381255F78E2C8F7A
:104BB3002D7F3A1255F78E238F247F3C12553D8F5C
:104BC3003F22125009AD377F1212559FE4FD7F1328
:104BD30012559FE4FD7F1412559FE4FDFC7F1612CE
:104BE30056ED7D787C057F181256EDE4FDFC7F1AA7
:104BF3001256ED7D527C037F1C1256EDE4FDFC7FC3
:104C03001E1256ED7D887C137F201256ED7D287C85
:104C1300007F221256ED7DC87C007F241256EDE4FE
:104C2300FDFC7F261256ED7D887C137F281256EDFE
:104C33007D147F2A12559F7D017F2B12559F7D0185
:104C43007F2C12559F7D037F2D12559F7D127F2E42
:104C530012559F7D017F2F12559F7D017F30125585
:104C63009FE4FD7F3212559F7D017C007F341256F5
:104C7300ED7D017C007F361256ED7D017C007F388F
:104C83001256ED7D017C007F3A1256ED7D3C7C008F
:104C93007F3C1256ED0251C5A9057D01AA7BED6447
:104CA300017069C291FEC292C290E4FC1257ADD268
:104CB300921257ADC2920CBC08F20EBE02E8E4FE9B
:104CC300C292C290E4FCEA30E702D2901257ADD20E
:104CD300921257ADC292C290EA25E0FA0CBC08E6E4
:104CE300EE7004AA7A801ABE0104AA798013BE0268
:104CF30004AA78800CBE0304AA038005BE0402AA9A
:104D0300010EBE06BBD2911257ADC291ED64027083
:104D13004DC295FEC294E4FCEA30E702D2931257E7
:104D2300ADD2941257ADC294C293EA25E0FA0CBCFB
:104D330008E6EE7004AA7A801ABE0104AA798013E9
:104D4300BE0204AA78800CBE0304AA038005BE0435
:104D530002AA010EBE06BDD2951257ADC295228E90
:104D6300628F63E509703FC3E5639440E562940194
:104D7300401AE508700BE56324C0FDE56234FE804C
:104D830047E5632440FDE5623401803CE508B40156
:104D93000BE5632440FDE5623401803BC374409519
:104DA30063FD74018051C3E5639420E56294004080
:104DB30019E508700BE56324E0FDE56234FF800824
:104DC300E5632420FDE43562800DE508B40121E5A7
:104DD300632420FDE43562FCE41239E77B667A66DE
:104DE30079E6783F123945123A208E648F65802325
:104DF300C374209563FDE49562FCE41239E77B6696
:104E03007A6679E6783F123945123A208E648F65C7
:104E1300750801AE64AF6522014100014C000158E1
:104E230000087C101004023B02141E025100000211
:104E33003C0000022C000002230000014E14015B21
:104E430001015501014D03015612015701015001A2
:104E5300014F00013201013800C102C10101080004
:104E6300010900010A004B001500243038404C585A
:104E73006878C8FA49000C002028303470A0C8FFB5
:104E83004A004007080A101820303840484C0000F8
:104E930000102028303840606C80B4E150002000BE
:104EA3000A0E1314161B23262A343C4046506A501C
:104EB30000300A0D10121C20283437393B40425A67
:104EC30084FA48004A002C2E32363A3E4D001256E0
:104ED30062EF6003024F78532B03E52BC394024028
:104EE3004B750801E52B5403756900F56A756A0073
:104EF300F569E521256AF56AE43569F569E56AAE80
:104F0300697807C333CE33CED8F9F56A8E69E531B4
:104F1300C313F531256AF56AE43569F569636AFFF8
:104F23006369FFC3E56994F040488041E4F508E50F
:104F33002B5403756900F56A756A00F569E5212547
:104F43006AF56AE43569F569E56AAE697807C333DA
:104F5300CE33CED8F9F56A8E69E531C313F5312521
:104F63006AF56AE43569F569C394F040057558013B
:104F73008003E4F558AE69AF6A22787FE4F6D8FD82
:104F830075819A024FC4024297E493A3F8E493A372
:104F93004003F68001F208DFF48029E493A3F85478
:104FA30007240CC8C333C4540F4420C8834004F4FB
:104FB30056800146F6DFE4800B010204081020400E
:104FC30080904E1BE47E019360BCA3FF543F30E509
:104FD30009541FFEE493A360010ECF54C025E06083
:104FE300A840B8E493A3FAE493A3F8E493A3C8C551
:104FF30082C8CAC583CAF0A3C8C582C8CAC583CA42
:10500300DFE9DEE780BE20801CE4F537F52A754032
:1050130001208403754011208503754021E5426416
:10502300017062805D20811D753701752A0175400D
:1050330002208403754012208503754022E54264F3
:10504300027042803D20821D753702752A02754029
:1050530004208403754014208503754024E54264CD
:10506300047022801D20831D753703752A03754044
:1050730008208403754018208503754028E542B451
:10508300080375450122E4FF12555FEF547FF55085
:105093007F0112555F8F577F0212555F8F567F0333
:1050A30012555FEF5407F54D7F0412555F8F557FFF
:1050B3000512555F8F5B7F0612555F8F4EE55B547C
:1050C3000364017031AD4E7F2A12559FAD5B7F2B78
:1050D30012559FAD557F2C12559FAD4D7F2D125507
:1050E3009FAD567F2E12559FAD577F2F12559FAD03
:1050F300507F3012559F2230B21030B30D30860AE4
:10510300308707E4F54CF541805820B213E54C7025
:1051130009754C01E54144018044E54154FE803E5C
:1051230020B310E54C7006E54144028024E5415468
:10513300FD802B208610E54C7006E5414404801168
:10514300E54154FB8018208719E54C700DE5414477
:1051530008F541F541754C018008E54154F7F541E7
:10516300F541AF4122C0E0C0D075D000C000C007F8
:10517300C28E788406787CE6600116787DE660014D
:10518300167884E6FF54077008787EE6600116D22D
:1051930000EF640F701B7884F67880E66001167860
:1051A30081E66001167882E66001167883E6600185
:1051B30016758D0B758BDCD28ED007D000D0D0D076
:1051C300E0327F0312555F8F4D7D407F071255BD3F
:1051D300E54D4408FD7F031255BDE54D20E737AD8E
:1051E3004E7F061255BDAD5B7F051255BDAD557F94
:1051F300041255BDE54D4408FD7F031255BDAD5660
:105203007F021255BDAD577F011255BDE550448055
:10521300FDE4FF1255BD22C2D5E830E70FB2D5E455
:10522300C39BFBE49AFAE499F9E498F8EC30E717A6
:10523300B2D5125250123B68E4C39BFBE49AFAE4E2
:1052430099F9E498F88003123B6830D50DE4C39FC5
:10525300FFE49EFEE49DFDE49CFC22AE071256B7DC
:10526300AF06AE07750B01E47811F6EE30E704D212
:10527300A08002C2A0D2A11257B4C2A11257B4EEA9
:1052830025E0FE781106E6C3940840DFD2A0D2A140
:105293001257B430A003E4F50BC2A10257B4AE0712
:1052A300E47812F6D2A018F6D2A11257B47812E617
:1052B300FF25E0F630A004E64401F6C2A11257B47C
:1052C300781106E6C3940840DFEE24FF92A0D2A132
:1052D3001257B4C2A1D2A01257B47812E6FF22AE7D
:1052E30007750C01E47810F6EE30E704D2A28002D1
:1052F300C2A2D2A31257BBC2A31257BBEE25E0FE34
:10530300781006E6C3940840DFD2A2D2A31257BB9B
:1053130030A203E4F50CC2A30257BBE47811F6D222
:10532300A218F6D2A31257BB7811E6FF25E0F63098
:10533300A204E64401F6C2A31257BB781006E6C3E3
:10534300940840DFD2A2D2A31257BBC2A3D2A212A7
:1053530057BB7811E6FF22AE07750D01E47810F60E
:10536300EE30E704D2A28002C2A2D2A41257C2C274
:10537300A41257C2EE25E0FE781006E6C394084057
:10538300DFD2A2D2A41257C230A203E4F50DC2A405
:105393000257C2AE07750E01E47810F6EE30E7044B
:1053A300D2A28002C2A2D2A41257C9C2A41257C960
:1053B300EE25E0FE781006E6C3940840DFD2A2D2C1
:1053C300A41257C930A203E4F50EC2A40257C9E4DC
:1053D3007811F6D2A218F6D2961257737811E6FF17
:1053E30025E0F630A204E64401F6C296125773781C
:1053F3001006E6C3940840DFD2A2D296125773C2B6
:1054030096D2A21257737811E6FF22AE07750F01E9
:10541300E47810F6EE30E704D2A28002C2A212575B
:105423006EC296125773EE25E0FE781006E6C3941B
:105433000840E112576C30A203E4F50FC2960257FD
:1054430073AB07AA06E509700AFC7D0A123AB3AAF0
:1054530006AB07AF03AD07AF02AC0753040F1256F9
:10546300DB7F98125396AF04125396AF05125396EF
:10547300025799C0E0C0D075D000C000C007C28CED
:10548300788506E654077006AF99F55C8F5D758CD9
:105493000B758ADCD28CD007D000D0D0D0E032C2DA
:1054A30091C295C292C290C294C2931257AD125741
:1054B300AD1257AD1257ADE4FFFE0FBF00010EE46E
:1054C300B507F7EEB401F32212525EE4FF1252A1C4
:1054D3008F2BE4FF1252A18F21E4FF1252A18F31CF
:1054E3007F011252A18F53125785E5535480FF2237
:1054F300E5097006FC7D0A123AB3AA07AB06EB5422
:105503000F52031256C97F9A12535AAF0312535ABA
:10551300AF0212535A02578F7593FFE4F5947580C7
:10552300FFF5917592FFF5907595047596FFF5A0BB
:1055330075B1ED75B21375B02C22AD0712573F7FCD
:10554300A01252E2AF051252E21256917FA11252FB
:10555300E212531EAE0712574EAF0622AD07125783
:105563005D7FDE12540EAF0512540E12000E7FDF64
:1055730012540E1253D2AE071257A3AF0622D2A370
:105583001257BB1257BB1257BBC2A2E4FFFE0FBF99
:1055930000010EE4B507F7EEB401F322AC0712578E
:1055A3003F7FA01252E2AF041252E2AF051252E261
:1055B30012574E7F647E0002567AAC0712575D7F06
:1055C300DE12540EAF0412540EAF0512540E1257CE
:1055D300A37F647E000256FED2A11257B4D2A0125A
:1055E30057B41257B41257B41257B4C2A0E4FF0F02
:1055F300BFFEFC22AC07EC04FF12553DAB07EB7B6F
:1056030000FAAF0412553DEB2FFBE43AFEAF032241
:105613007F327E00D3EF9400EE9400400DE4FD0D45
:10562300BDFFFCEF1F70ED1E80EA2243985053C864
:10563300F043C83075CDFF75CCD075CBFF75CADC90
:10564300D2ACD2CA229057F4E493F55EF55FFBFD2A
:10565300F578F579855F7A855E7B7F01024C9BE463
:105663007810F61255DB7D9C7FD012577A7FD112CA
:1056730054CB7810E6FF22D3EF9400EE9400400D54
:10568300E4FD0DBDFFFCEF1F70ED1E80EA22D2A2E8
:105693001257BBD2A31257BBC2A21257BBC2A3025B
:1056A30057BBEFAFA06005EF44208003EF54DFF555
:1056B300A0F5A022D2A01257B4D2A11257B4C2A00F
:1056C3001257B4C2A122D2A21257C2D2A41257C2F5
:1056D300C2A21257C2C2A422D2A21257C9D2A41282
:1056E30057C9C2A21257C9C2A422AB05AA04A9076B
:1056F3000912559FAF01AD0202559FD3EF9400EEFF
:1057030094004001EFE4FF0FBFFAFC22D28C7589AD
:1057130011758C0B758ADCE47884F622C28E758948
:1057230011758D0B758BDCE47885F622309902C2F6
:1057330099309807C29885993ED20232D2A2125765
:10574300BBC2A21257BBC2A30257BBC2A21257BB12
:10575300D2A31257BBD2A20257BBD2A2125773C213
:10576300A2125773C296025773D2A2125773D296DC
:10577300E4FF0FBF12FC2212525EAF051252650204
:105783005785D2A11257B4D2A00257B4D2A412574C
:10579300C2D2A20257C2D2A41257C9D2A20257C977
:1057A300C2A212576ED2A2025773E4FF0FBF12FCBC
:1057B30022E4FF0FBF12FC22E4FF0FBF12FC22E41E
:1057C300FF0FBF12FC22E4FF0FBF12FC223F065B58
:1057D3004F666D7D277F6F777C395E7971767300B5
:1057E3003738403E785870541EBF86DBCFE6EDFD58
:1057F300A7FFEFF7FCB9DEF9F1F6F380C7B8C0BE37
:00000001FF
