:070000000256500200063217
:10000B00025B58125E58C2A2125E5FC296025E5F1E
:03001B0002584444
:10002300025E1BE4F564F565F566F56BF56CAD6C86
:10003300AC6BAF66122388E5347003020BB612571C
:10004300D68F64E56430E0057567018003E4F567E6
:10005300E56430E1057568018003E4F568E5643023
:10006300E2057569018003E4F569E56430E305752C
:100073006A018003E4F56AE567B401050566E4F502
:1000830065E566D394134005E4F566F534E569B494
:100093000108056CE56C7002056BE56AB40108E5BF
:1000A3006C156C7002156B7881E6600302013B7678
:1000B300041255A478AAE6FD25E0248CF8A60608C8
:1000C300A607EDC3940C500578AA06807F78A2E6B4
:1000D300FE08E6FF7C007D05123F37AA06AB0778D2
:1000E300A4E6FE08E6FF7C007D05123F37EF2BFBFD
:1000F300EE3AFA78A0E6FE08E6FF7C007D05123FA3
:1001030037EF2BFBEE3AFA789EE6FE08E6FF7C001B
:100113007D05123F37EF2BFBEE3AFA789CE6FE089B
:10012300E6FF7C007D05123F37EF2B78A9F6EE3A08
:1001330018F678AA7608801478AAE625E0248CF8C5
:10014300E6FE08E6FF78A8A60608A607E5666401AA
:100153007047E539FD7C00AF66122388E56C2539CD
:10016300F539E4F56BF56CE539C394044007E4F520
:1001730039F56BF56CE5686401600302003AAD394B
:100183007F12125C24E4FDFC7F161223887FC47E59
:1001930009125D03056502003AE5666402703FE5F6
:1001A30039C394024005056602003AE55AFD7C0016
:1001B300AF66122388E56C255AF55AE4F56BF56CA6
:1001C300E55AC394024007E4F55AF56BF56CE5680C
:1001D3006401600302003AAD5A7F13020396E56699
:1001E3006403703CE5396005056602003AE56C2559
:1001F30030F530E4F56BF56CE530C394064007E465
:10020300F530F56BF56CE530FD7C00AF66122388A5
:10021300E5686401600302003AAD307F140203967F
:10022300E566640460030202F3E5396005056602CE
:10023300003A78A8E6FC08E6FDAF66122388E56875
:100243006401600302003A78AB7603855323855437
:1002530024AE53AF54FC7D18123F257D0A123F375D
:1002630078A8E6FC08E6FDC3EF9DEE9C401DE5087B
:10027300B40108EF2DF529EE3C803078A8E6FC08A0
:10028300E6FDC3EF9DF529EE9C8020E508AE53AF54
:10029300547C007D18B4011D123F257D0A123F379F
:1002A30078A8E6FC08E62FF529EE3CF5287547010A
:1002B300434401801C123F257D0A123F37C378A9AE
:1002C300E69FF52918E69EF528E4F5475344FEF525
:1002D30043AD447F32125C24AD29AC287F16125DF6
:1002E300D9AD24AC237F3C125DD9125CFF0206DB3F
:1002F300E5666405600302039CE539600505660253
:10030300003A78A8E6FC08E6FDAF66122388E568A4
:100313006401600302003AE547B4010F78A9E625BA
:1003230029F56018E63528F55F800EC378A9E695B0
:1003330029F56018E69528F55FAD60AC5F7F18126C
:100343005DD9C3E56094CAE55F94C8401AE56024AB
:1003530036FDE55F3437FCAE5FAF60123F378E5733
:100363008F58434410801CC374CA9560FD74C895AC
:100373005FFCAE5FAF60123F378E578F585344EF29
:10038300754300AD58AC577F34125DD9125CFFAD95
:10039300447F32125C240206DBE56664067059E58D
:1003A3003964016005056602003AE508B401057584
:1003B30047018003E4F54778A8E6FC08E6FDAF664D
:1003C300122388E5686401600302003A78A8E6F521
:1003D3004C08E6F54DFDAC4C7F1A125DD9125CFF5B
:1003E300E547B40106E54444028004E54454FDFDB9
:1003F3007F32125C240206DBE566640760030204B5
:10040300ABE53964016005056602003A78A8E6FCAD
:1004130008E6FDAF66122388E56864016003020005
:100423003A78A8E6F54508E6F546FDAC457F1C128B
:100433005DD9E547B40130E546254DFFE545354C2B
:10044300FED3EF94E4EE94444009EF241CFDEE3414
:10045300BB8044E546254DFFE545354CFEC374E4BA
:100463009FFD74449E8030C3E546954DFFE5459559
:100473004CFED3EF94E4EE94444009EF241CFDEECC
:1004830034BB8013C3E546954DFFE545954CFEC34C
:1004930074E49FFD74449EFC123F378E3E8F3FAD44
:1004A3003FAC3E7F360205B3E56664087059E53913
:1004B30064026005056602003AE508B40105754764
:1004C300018003E4F54778A8E6FC08E6FDAF661271
:1004D3002388E5686401600302003A78A8E6F53CE6
:1004E30008E6F53DFDAC3C7F1E125DD9125CFFE5CD
:1004F30047B40106E54444048004E54454FBFD7F0E
:1005030032125C240206DBE566640960030205B966
:10051300E53964026005056602003A78A8E6FC083E
:10052300E6FDAF66122388E5686401600302003AC2
:1005330078A8E6F53508E6F536FDAC357F20125D83
:10054300D9E547B4012EE536253DFFE535353CFEBB
:10055300D3EF9400EE947D4008E42FFDEE348380C6
:1005630041E536253DFFE535353CFEC3E49FFD748B
:100573007D9E802EC3E536953DFFE535953CFED344
:10058300EF9400EE947D4008E42FFDEE3483801257
:10059300C3E536953DFFE535953CFEC3E49FFD7409
:1005A3007D9EFC123F378E2E8F2FAD2FAC2E7F38C2
:1005B300125DD90206DBE566640A706DE5396403F2
:1005C3006005056602003AE508B401057547018038
:1005D30003E4F54778A8E6FC08E6FDAF6612238836
:1005E300E5686401600302003A7F32FE125D03781E
:1005F300A8E6F53108E6F532FDAC317F22125DD96C
:10060300125CFFE547B40106E54444088004E54471
:1006130054F7FD7F32125C240565E4FDFC7F16125E
:1006230023887FA87E61020B9EE566640B6003024C
:1006330006ECE53964036005056602003A78A8E62E
:10064300FC08E6FDAF66122388E5686401600302D7
:10065300003A78A8E6F52A08E6F52BFDAC2A7F24B4
:10066300125DD9125CFFE547B4012EE52B2532FF5D
:10067300E52A3531FED3EF9400EE94194008E42FB8
:10068300FDEE34E78041E52B2532FFE52A3531FEC7
:10069300C3E49FFD74199E802EC3E52B9532FFE5BD
:1006A3002A9531FED3EF9400EE94194008E42FFD10
:1006B300EE34E78012C3E52B9532FFE52A9531FE30
:1006C300C3E49FFD74199EFC123F378E258F26AD20
:1006D30026AC257F3A125DD90565E4FDFC7F161231
:1006E30023887FC47E09020B9EE566640C7068AEA6
:1006F3006BAF6CFC7D0A123F25EF254BF54BEE35B6
:100703004AF54AE4F56BF56CAD4BAC4AAF66122380
:1007130088E56964016009E56A6401600302003ADF
:10072300D3E54B940FE54A94274009E4F56BF56C48
:10073300F54AF54BE5686401600302003AAD4BAC42
:100743004A7F26125DD90565E4FDFC7F16122388D6
:100753007FC47E09020B9EE566640D7068AE6BAFC5
:100763006CFC7D0A123F25EF2549F549EE3548F526
:1007730048E4F56BF56CAD49AC48AF66122388E5E8
:100783006964016009E56A6401600302003AD3E524
:1007930049940FE54894274009E4F56BF56CF54857
:1007A300F549E5686401600302003AAD49AC487F4E
:1007B30028125DD90565E4FDFC7F161223887FC4EA
:1007C3007E09020B9EE566640E600302085EC3E5C4
:1007D3006C94C8E56B94004020E5527005755299FE
:1007E3008040E552540F700CE55224F054F0440954
:1007F300F55280021552E48029E56C6401456B7063
:1008030025E552C3949A4005E4F5528015E5525408
:100813000FFFBF090AE552241054F0F55280020578
:1008230052E4F56BF56CE42552FDE43420FCAF662D
:10083300122388E5686401600302003AAD527F0623
:10084300125CA9AD527F2A125C240565E4FDFC7F8E
:10085300161223887FC47E09020B9EE566640F602F
:10086300030208F1C3E56C94C8E56B94004022E5EC
:1008730061D394015005756112803CE561540F709A
:100883000CE56124F054F04409F5618002156180A0
:1008930026E56C6401456B7023E561B4120575614F
:1008A300018014E561540FFFBF090AE56124105468
:1008B300F0F56180020561E4F56BF56CE561FD7CA3
:1008C30000AF66122388E5686401600302003AAD55
:1008D300617F05125CA9AD617F2B125C240565E481
:1008E300FDFC7F161223887FC47E09020B9EE566FA
:1008F30064106003020A7FC3E56C94C8E56B94003F
:1009030050030209A6E55BB40111E561B4020CE5ED
:100913005254037006755B29020A49E55BB4011260
:10092300E561B4020DE55254036007755B28E402E8
:100933000A49E55B64017030E56164016023E561A8
:100943006403601DE56164056017E5616407601178
:10095300E5616408600BE56164106005E561B4124C
:1009630007755B31E4020A49E55BB4011EE5616486
:10097300046011E5616406600BE56164096005E5E7
:1009830061B41107755B30E4020A49E55B540F70EB
:100993000CE55B24F054F04409F55B8002155BE43D
:1009A300020A49E56C6401456B6003020A4DE56187
:1009B300B40212E5525403700CE55BB42907755B6E
:1009C30001E4020A49E561B40211E5525403600BE4
:1009D300E55BB42806755B01E4806BE56164016047
:1009E30023E5616403601DE56164056017E56164E7
:1009F300076011E5616408600BE56164106005E55B
:100A030061B4120BE55BB43106755B01E48037E535
:100A13006164046011E5616406600BE5616409606B
:100A230005E561B4110BE55BB43006755B01E48049
:100A330015E55B540FFFBF090AE55B241054F0F57D
:100A43005B8002055BE4F56BF56CE55BFD7C00AF59
:100A530066122388E5686401600302003AAD5B7F98
:100A630004125CA9AD5B7F2C125C240565E4FDFCDC
:100A73007F161223887FFA7E00020B9EE5666411BF
:100A83006003020B10C3E56C94C8E56B940040202F
:100A9300E55C7005755C23803EE55C540F700CE5E6
:100AA3005C24F054F04409F55C8002155CE4802773
:100AB300E56C6401456B7023E55CB42305E4F55CE8
:100AC3008015E55C540FFFBF090AE55C241054F060
:100AD300F55C8002055CE4F56BF56CE55CFD7C0080
:100AE300AF66122388E5686401600302003AAD5CD7
:100AF3007F02125CA9AD5C7F2E125C240565E4FDC8
:100B0300FC7F161223887FFA7E00020B9EE5666443
:100B1300126003020BA4C3E56C94C8E56B94004018
:100B230020E55D7005755D59803EE55D540F700CE1
:100B3300E55D24F054F04409F55D8002155DE48021
:100B430027E56C6401456B7023E55DB45905E4F555
:100B53005D8015E55D540FFFBF090AE55D24105460
:100B6300F0F55D8002055DE4F56BF56CE55DFD7CFC
:100B730000AF66122388E5686401600302003AADA2
:100B83005D7F01125CA9AD5D7F2F125C240565E4D6
:100B9300FDFC7F161223887FFA7E00125D0302009C
:100BA3003AE566C39413500302003AE4F566F5345C
:100BB30002003A0256DC8E6C8F6D856C6E856D6F0C
:100BC300E4F509E50864017066D3E56F9455E56EB5
:100BD3009404AC6CAD6D5031E4123E6B7BA47A701F
:100BE300795D7840123DC9A804A905AA06AB07E4BC
:100BF300FFFE7DA07C43123CD1123EA48E6E8F6F0C
:100C0300750A01E4F508021416E4123E6B7BA47A1C
:100C130070795D7840123DC9E4FBFA79A078C3127C
:100C23003CD5123EA48E6E8F6FE4F50A021416AC07
:100C33006CAD6DE4123E6B7BA47A70795D784012E3
:100C43003DC9E4FBFA79A07843123CD5123EA48E49
:100C53006E8F6FD3E56D9486E56C9404401FE56D4C
:100C630024B4FFE56C34FBFE900007E0FD7C00122A
:100C73003F37C3E56F9FF56FE56E9EF56ED3E56D68
:100C830094C4E56C9409401FE56D246EFFE56C3454
:100C9300F6FE900008E0FD7C00123F37C3E56F9F2E
:100CA300F56FE56E9EF56ED3E56D9484E56C941255
:100CB300401FE56D24A4FFE56C34EDFE900007E0D2
:100CC300FD7C00123F37C3E56F9FF56FE56E9EF520
:100CD3006ED3E56D9402E56C9417401FE56D241CFB
:100CE300FFE56C34E9FE900009E0FD7C00123F371C
:100CF300C3E56F9FF56FE56E9EF56ED3E56D947258
:100D0300E56C941F401FE56D24ACFFE56C34E0FEF9
:100D1300900009E0FD7C00123F37C3E56F9FF56F3C
:100D2300E56E9EF56ED3E56D9430E56C942A401F15
:100D3300E56D2402FFE56C34D6FE900009E0FD7CEE
:100D430000123F37C3E56F9FF56FE56E9EF56ED3D7
:100D5300E56D9426E56C9434401FE56D240CFFE5A6
:100D63006C34CCFE90000AE0FD7C00123F37C3E5F3
:100D73006F9FF56FE56E9EF56ED3E56D948CE56C14
:100D8300943C401FE56D247EFFE56C34C3FE900068
:100D93000AE0FD7C00123F37C3E56F9FF56FE56EF8
:100DA3009EF56ED3E56D94ACE56C943F401EE56D06
:100DB3002486FFE56C34C0FE90000AE0FD7C00123F
:100DC3003F37EF256FF56FEE356EF56ED3E56D9416
:100DD30030E56C9443401FE56D2402FFE56C34BDA0
:100DE300FE900009E0FD7C00123F37C3E56F9FF5DD
:100DF3006FE56E9EF56ED3E56D9450E56C944B40B4
:100E03001EE56D24BAFFE56C34B4FE90000AE0FDE4
:100E13007C00123F37EF256FF56FEE356EF56ED31D
:100E2300E56D94E8E56C944E401FE56D244AFFE5BB
:100E33006C34B1FE900009E0FD7C00123F37C3E53E
:100E43006F9FF56FE56E9EF56ED3E56D948CE56C43
:100E5300945A401FE56D24B0FFE56C34A5FE900065
:100E63000AE0FD7C00123F37C3E56F9FF56FE56E27
:100E73009EF56ED3E56D9404E56C9460401EE56DBC
:100E83002424FFE56C34A0FE90000BE0FD7C0012EF
:100E93003F37EF256FF56FEE356EF56ED3E56D9445
:100EA30070E56C9467401FE56D24B8FFE56C3498DA
:100EB300FE90000AE0FD7C00123F37C3E56F9FF50B
:100EC3006FE56E9EF56ED3E56D9478E56C946E4098
:100ED3001EE56D24B0FFE56C3491FE90000BE0FD40
:100EE3007C00123F37EF256FF56FEE356EF56ED34D
:100EF300E56D9436E56C9474401FE56D24FCFFE5C5
:100F03006C348BFE90000AE0FD7C00123F37C3E592
:100F13006F9FF56FE56E9EF56EAE6CAF6DE4FCFDF5
:100F23007B907A83F9F8C3123F9A502BE56D24988E
:100F3300FFE56C347CFEE434FFFDE434FFFCC007C2
:100F430090000AE0FBE4FAF8D0071258FCEF256F93
:100F5300F56FEE356EF56EAE6CAF6DE4FCFD7BB0F8
:100F63007A86F9F8C3123F9A502CE56D2478FFE591
:100F73006C3479FEE434FFFDE434FFFCC0079000D9
:100F830009E0FBE4FAF8D0071258FCC3E56F9FF5BC
:100F93006FE56E9EF56EAE6CAF6DE4FCFD7B807A03
:100FA3008EF9F8C3123F9A502BE56D24A8FFE56C28
:100FB3003471FEE434FFFDE434FFFCC00790000B02
:100FC300E0FBE4FAF8D0071258FCEF256FF56FEE5B
:100FD300356EF56EAE6CAF6DE4FCFD7B447A93F930
:100FE300F8C3123F9A502CE56D24EEFFE56C346C88
:100FF300FEE434FFFDE434FFFCC00790000BE0FB8C
:10100300E4FAF8D0071258FCC3E56F9FF56FE56E5D
:101013009EF56EAE6CAF6DE4FCFD7B987A9EF9F89D
:10102300C3123F9A502BE56D249AFFE56C3461FEA1
:10103300E434FFFDE434FFFCC00790000BE0FBE465
:10104300FAF8D0071258FCEF256FF56FEE356EF501
:101053006EAE6CAF6DE4FCFD7BF07AA0F9F8C312C1
:101063003F9A502CE56D2442FFE56C345FFEE43477
:10107300FFFDE434FFFCC00790000BE0FBE4FAF84B
:10108300D0071258FCC3E56F9FF56FE56E9EF56EB2
:10109300AE6CAF6DE4FCFD7B047AA6F9F8C3123F96
:1010A3009A502BE56D242EFFE56C345AFEE434FF91
:1010B300FDE434FFFCC00790000BE0FBE4FAF8D03A
:1010C300071258FCEF256FF56FEE356EF56EAE6CBB
:1010D300AF6DE4FCFD7BD47AADF9F8C3123F9A50AF
:1010E3002CE56D245EFFE56C3452FEE434FFFDE431
:1010F30034FFFCC00790000BE0FBE4FAF8D00712C2
:1011030058FCC3E56F9FF56FE56E9EF56EAE6CAF51
:101113006DE4FCFD7B547ABAF9F8C3123F9A502B65
:10112300E56D24DEFFE56C3445FEE434FFFDE43475
:10113300FFFCC00790000AE0FBE4FAF8D00712585E
:10114300FCEF256FF56FEE356EF56EAE6CAF6DE4AB
:10115300FCFD7B767AC0F9F8C3123F9A502CE56DFB
:10116300249EFFE56C343FFEE434FFFDE434FFFCD2
:10117300C007900007E0FBE4FAF8D0071258FCC35D
:10118300E56F9FF56FE56E9EF56EAE6CAF6DE4FC9B
:10119300FD7B507AC3F9F8C3123F9A502BE56D24B7
:1011A300C4FFE56C343CFEE434FFFDE434FFFCC0D3
:1011B30007900007E0FBE4FAF8D0071258FCEF258C
:1011C3006FF56FEE356EF56EAE6CAF6DE4FCFD7BC7
:1011D300947ACAF9F8C3123F9A502CE56D2494FF10
:1011E300E56C3435FEE434FFFDE434FFFCC00790C6
:1011F300000BE0FBE4FAF8D0071258FCC3E56F9F3D
:10120300F56FE56E9EF56EAE6CAF6DE4FCFD7B5045
:101213007ACDF9F8C3123F9A502BE56D24D8FFE538
:101223006C3432FEE434FFFDE434FFFCC00790006D
:101233000BE0FBE4FAF8D0071258FCEF256FF56FCB
:10124300EE356EF56EAE6CAF6DE4FCFD7B387AD196
:10125300F9F8C3123F9A502CE56D24F0FFE56C3486
:101263002EFEE434FFFDE434FFFCC00790000BE0E6
:10127300FBE4FAF8D0071258FCC3E56F9FF56FE55E
:101283006E9EF56EAE6CAF6DE4FCFD7BB07AD6F965
:10129300F8C3123F9A502BE56D2478FFE56C34298F
:1012A300FEE434FFFDE434FFFCC00790000BE0FBD9
:1012B300E4FAF8D0071258FCEF256FF56FEE356EA0
:1012C300F56EAE6CAF6DE4FCFD7B307AE3F9F8C3E9
:1012D300123F9A502BE56D24F8FFE56C341CFEE4B5
:1012E30034FFFDE434FFFCC00790000BE0FBE4FA9D
:1012F300F8D0071258FCEF256FF56FEE356EF56EDB
:10130300AE6CAF6DE4FCFD7B8C7AE6F9F8C3123F5B
:101313009A502CE56D2488FFE56C3419FEE434FF04
:10132300FDE434FFFCC007900009E0FBE4FAF8D0C9
:10133300071258FCC3E56F9FF56FE56E9EF56EAE21
:101343006CAF6DE4FCFD7B9C7AEAF9F8C3123F9A1B
:10135300502BE56D248CFFE56C3415FEE434FFFD62
:10136300E434FFFCC00790000BE0FBE4FAF8D0077D
:101373001258FCEF256FF56FEE356EF56EAE6CAF60
:101383006DE4FCFD7B347AF3F9F8C3123F9A502CD9
:10139300E56D24F4FFE56C340CFEE434FFFDE43426
:1013A300FFFCC00790000BE0FBE4FAF8D0071258EB
:1013B300FCC3E56F9FF56FE56E9EF56EAE6CAF6D8A
:1013C300E4FCFD7BFC7AF3F9F8C3123F9A502BE55A
:1013D3006D242CFFE56C340CFEE434FFFDE434FF94
:1013E300FCC00790000AE0FBE4FAF8D0071258FCAF
:1013F300EF256FF56FEE356EF56EAE6CAF6DE4FCF9
:10140300FD7BB07AFA7909F8C3123F9A5005E4F5E7
:101413006EF56FAE6EAF6F228E6C8F6DE4F509E5DE
:1014230008640160030214D5D3E56D94E0E56C9480
:1014330002501F7C007D0A123F257D17123F37C3E0
:1014430074409FF56F74019EF56E750A01E4F5080B
:10145300801DAE6CAF6D7C007D0A123F257D171297
:101463003F37EF24C0F56FEE34FEF56EE4F50AD393
:10147300E56D94F8E56C94024022E50A701EE56D73
:101483002426FFE56C34FDFE90001BE0FD7C00127A
:101493003F37EF256FF56FEE356EF56ED3E56D943F
:1014A300D0E56C94075003021BF3E50A6003021BAB
:1014B300F3E56D2462FFE56C34F8FE90001DE0FD5A
:1014C3007C00123F37EF256FF56FEE356EF56E0238
:1014D3001BF3AC6CAD6DE4123E6B7BE17A7A79144D
:1014E3007840123DC9E4FBFA79A07843123CD51247
:1014F3003EA48E6E8F6FD3E56D94F8E56C94024035
:101503001FE56D2426FFE56C34FDFE90001BE0FD16
:101513007C00123F37C3E56F9FF56FE56E9EF56E56
:10152300D3E56D94D0E56C9407401FE56D2462FF0D
:10153300E56C34F8FE90001DE0FD7C00123F37C3DC
:10154300E56F9FF56FE56E9EF56ED3E56D9460E5EF
:101553006C940C401EE56D24B2FFE56C34F3FE90F1
:10156300001DE0FD7C00123F37EF256FF56FEE3570
:101573006EF56ED3E56D94DEE56C940D401FE56D5D
:101583002454FFE56C34F2FE90001DE0FD7C001254
:101593003F37C3E56F9FF56FE56E9EF56ED3E56D3F
:1015A30094F2E56C9412401EE56D2440FFE56C3423
:1015B300EDFE90001CE0FD7C00123F37EF256FF538
:1015C3006FEE356EF56ED3E56D9444E56C941B4078
:1015D3001EE56D240CFFE56C34E5FE90001DE0FD77
:1015E3007C00123F37EF256FF56FEE356EF56ED346
:1015F300E56D947FE56C9424401FE56D24FCFFE5C5
:101603006C34DBFE90001EE0FD7C00123F37C3E527
:101613006F9FF56FE56E9EF56ED3E56D94B4E56C43
:101623009428401FE56D2488FFE56C34D7FE9000B5
:101633001DE0FD7C00123F37C3E56F9FF56FE56E3C
:101643009EF56ED3E56D94FCE56C9430401FE56D1B
:10165300242CFFE56C34CFFE90001EE0FD7C0012CD
:101663003F37C3E56F9FF56FE56E9EF56ED3E56D6E
:1016730094AAE56C9437401FE56D2488FFE56C342C
:10168300C8FE90001FE0FD7C00123F37C3E56F9F4B
:10169300F56FE56E9EF56ED3E56D94A0E56C944110
:1016A300401FE56D2492FFE56C34BEFE90001FE001
:1016B300FD7C00123F37C3E56F9FF56FE56E9EF526
:1016C3006ED3E56D944AE56C9447401EE56D24E8BE
:1016D300FFE56C34B8FE90001FE0FD7C00123F373D
:1016E300EF256FF56FEE356EF56ED3E56D94FAE584
:1016F3006C944B401FE56D2438FFE56C34B4FE90C9
:10170300001EE0FD7C00123F37C3E56F9FF56FE5D8
:101713006E9EF56ED3E56D94CAE56C9453401FE558
:101723006D2468FFE56C34ACFE90001FE0FD7C0087
:10173300123F37C3E56F9FF56FE56E9EF56ED3E5F8
:101743006D9488E56C9459401EE56D24C8FFE56CE3
:1017530034A6FE90001EE0FD7C00123F37EF256F9C
:10176300F56FEE356EF56ED3E56D9406E56C946317
:10177300401FE56D242CFFE56C349DFE90001FE0B7
:10178300FD7C00123F37C3E56F9FF56FE56E9EF555
:101793006ED3E56D94ECE56C9468401EE56D2450C2
:1017A300FFE56C3497FE90001EE0FD7C00123F378E
:1017B300EF256FF56FEE356EF56ED3E56D9458E555
:1017C3006C9470401EE56D24ACFFE56C3490FE9084
:1017D300001FE0FD7C00123F37EF256FF56FEE35FC
:1017E3006EF56ED3E56D945CE56C9476401FE56D04
:1017F3002408FFE56C348AFE90001FE0FD7C001294
:101803003F37C3E56F9FF56FE56E9EF56ED3E56DCC
:101813009476E56C947A401EE56D24EEFFE56C3416
:1018230085FE90001DE0FD7C00123F37EF256FF52C
:101833006FEE356EF56EAE6CAF6DE4FCFD7B9E7A9C
:1018430084F9F8C3123F9A502BE56D2494FFE56C9D
:10185300347BFEE434FFFDE434FFFCC00790001F3B
:10186300E0FBE4FAF8D0071258FCEF256FF56FEEB2
:10187300356EF56EAE6CAF6DE4FCFD7B6E7A8CF964
:10188300F8C3123F9A502BE56D24C4FFE56C347303
:10189300FEE434FFFDE434FFFCC00790001EE0FBD0
:1018A300E4FAF8D0071258FCEF256FF56FEE356EAA
:1018B300F56EAE6CAF6DE4FCFD7BBA7A90F9F8C3BC
:1018C300123F9A502BE56D2478FFE56C346FFEE4EC
:1018D30034FFFDE434FFFCC00790001FE0FBE4FA93
:1018E300F8D0071258FCEF256FF56FEE356EF56EE5
:1018F300AE6CAF6DE4FCFD7BEE7A98F9F8C3123F52
:101903009A502BE56D2444FFE56C3467FEE434FF05
:10191300FDE434FFFCC00790001FE0FBE4FAF8D0BD
:10192300071258FCEF256FF56FEE356EF56EAE6C52
:10193300AF6DE4FCFD7B667A9EF9F8C3123F9A50C3
:101943002BE56D24CCFFE56C3461FEE434FFFDE44C
:1019530034FFFCC00790001FE0FBE4FAF8D0071245
:1019630058FCEF256FF56FEE356EF56EAE6CAF6D0F
:10197300E4FCFD7BA67AA4F9F8C3123F9A502BE549
:101983006D24F0FFE56C345BFEE434FFFDE434FFCB
:10199300FCC00790001FE0FBE4FAF8D0071258FCE4
:1019A300EF256FF56FEE356EF56EAE6CAF6DE4FC43
:1019B300FD7BBA7AA9F9F8C3123F9A502BE56D243F
:1019C30078FFE56C3456FEE434FFFDE434FFFCC0DD
:1019D3000790001FE0FBE4FAF8D0071258FCEF254C
:1019E3006FF56FEE356EF56EAE6CAF6DE4FCFD7B9F
:1019F300967AAFF9F8C3123F9A502AE4256DFFE5B2
:101A03006C3451FEE434FFFDE434FFFCC007900066
:101A13001EE0FBE4FAF8D0071258FCEF256FF56FD0
:101A2300EE356EF56EAE6CAF6DE4FCFD7B3A7AB6C7
:101A3300F9F8C3123F9A502BE56D24F8FFE56C3497
:101A430049FEE434FFFDE434FFFCC00790001EE0D0
:101A5300FBE4FAF8D0071258FCEF256FF56FEE356B
:101A63006EF56EAE6CAF6DE4FCFD7B7A7ABCF9F873
:101A7300C3123F9A502BE56D24B8FFE56C3443FE47
:101A8300E434FFFDE434FFFCC00790001DE0FBE4F9
:101A9300FAF8D0071258FCEF256FF56FEE356EF5A7
:101AA3006EAE6CAF6DE4FCFD7BDA7AC5F9F8C31258
:101AB3003F9A502BE56D2458FFE56C343AFEE4342D
:101AC300FFFDE434FFFCC00790001CE0FBE4FAF8E0
:101AD300D0071258FCEF256FF56FEE356EF56EAE3D
:101AE3006CAF6DE4FCFD7B467ACDF9F8C3123F9AE7
:101AF300502BE56D24ECFFE56C3432FEE434FFFD3E
:101B0300E434FFFCC00790001CE0FBE4FAF8D007C4
:101B13001258FCEF256FF56FEE356EF56EAE6CAFB8
:101B23006DE4FCFD7B2E7AD1F9F8C3123F9A502B5A
:101B3300E56D2404FFE56C342FFEE434FFFDE4344B
:101B4300FFFCC00790001EE0FBE4FAF8D007125830
:101B5300FCEF256FF56FEE356EF56EAE6CAF6DE491
:101B6300FCFD7B0A7AD7F9F8C3123F9A502BE56D37
:101B73002428FFE56C3429FEE434FFFDE434FFFC44
:101B8300C00790001CE0FBE4FAF8D0071258FCEF02
:101B9300256FF56FEE356EF56EAE6CAF6DE4FCFD43
:101BA3007B1E7ADCF9F8C3123F9A502BE56D24149F
:101BB300FFE56C3424FEE434FFFDE434FFFCC0078E
:101BC30090001DE0FBE4FAF8D0071258FCEF256FF4
:101BD300F56FEE356EF56EAE6CAF6DE4FCFD7B48D4
:101BE3007AEEF9F8C3123F9A500674FFF56EF56F5B
:101BF300AE6EAF6F22E4F56CF56DF56EF56FF570B3
:101C0300F5718C728D73E50864016003021DC9C30D
:101C1300E573940AE5729400503F905ECEE493F529
:101C23006CF56DF56EE539B4030A905ED1E493F576
:101C33006E021DE4E50964016005E539B4020D9007
:101C43005ECEE493F56F905ED1021E1D905ED1E4EB
:101C530093F56F905ED8021E1DC3E573940AE57277
:101C63009400403FE5739464E57294005035905EB0
:101C7300CEE493F56CF56DF56EE5396403700C9065
:101C83005ED193F56E905ED8021E9CE509640160F7
:101C930006E53964027006905ED1021E9C905ED107
:101CA300021ED5C3E5739464E57294004038E5736E
:101CB30094E8E5729403502E905ECEE493F56CF5B0
:101CC3006D905ED1E493F56EE53964037003021FF2
:101CD30037E50964017003021F9AE5396402600362
:101CE300021FF2021F9AC3E57394E8E5729403405E
:101CF3004FE5739410E57294275045905ECEE493BC
:101D0300F56C905ED1E493F56DAE72AF737C037D99
:101D1300E8123F3774BC2FF582745E3EF583E4937B
:101D2300F56EE5396403700302208DE509640170E3
:101D3300030220FEE539640260030221630220FEF0
:101D4300C3E5739410E57294275003022373AE72B4
:101D5300AF73E4FCFD7BA07A867901F8D3123F9A36
:101D63005003022373905ED1E493F56CAE72AF73AC
:101D73007C277D10123F3774BC2FF582745E3EF5CD
:101D830083E493F56DAE72AF737C277D10123F37FA
:101D93007E037FE8CFCDCFCECCCE123F3774BC2F9E
:101DA300F582745E3EF583E493F56EE53964037062
:101DB3000302208DE50964016006E53964027003BE
:101DC3000220FE022163C3E573940AE57294005076
:101DD30055905ECEE493F56CF56DF56EE539B4037D
:101DE30013905ED8E493F56F905EBCE493F570E5D1
:101DF30073022370E50964016005E539B4021190AB
:101E03005ECEE493F56FF570E573905EBC022370CC
:101E1300905ECEE493F56F905ED8E493F570E5732E
:101E2300905EBC022370C3E573940AE5729400507C
:101E330003021F0BE5739464E57294004003021FD1
:101E43000B905ECEE493F56CF56DF56EE5396403A6
:101E53007038905ED893F56FAE72AF737C007D0AD5
:101E6300123F3774BC2FF582745E3EF583E493F51D
:101E730070AE72AF737C007D0A123F3774BC2DF5D0
:101E830082745E3CF583E4022370E5096401600615
:101E9300E53964027039905ECEE493F56FAE72AFAC
:101EA300737C007D0A123F3774BC2FF582745E3E4B
:101EB300F583E493F570AE72AF737C007D0A123F35
:101EC3003774BC2DF582745E3CF583E40223709075
:101ED3005ECEE493F56FAE72AF737C007D0A123F62
:101EE3003774D82FF582745E3EF583E493F570AEB4
:101EF30072AF737C007D0A123F3774BC2DF5827478
:101F03005E3CF583E4022370C3E5739464E5729445
:101F130000500302204AE57394E8E57294034003FA
:101F230002204A905ECEE493F56CF56DF56EE539CB
:101F330064037057AE72AF73FC7D64123F3774D87D
:101F43002FF582745E3EF583E493F56FAE72AF7343
:101F53007C007D64123F377E007F0ACFCDCFCECC8D
:101F6300CE123F3774BC2FF582745E3EF583E49343
:101F7300F570AE72AF737C007D0A123F3774BC2DCF
:101F8300F582745E3CF583E4022370E50964016025
:101F930006E53964027058AE72AF737C007D64123B
:101FA3003F3774BC2FF582745E3EF583E493F56F7F
:101FB300AE72AF737C007D64123F377E007F0ACF21
:101FC300CDCFCECCCE123F3774BC2FF582745E3E9C
:101FD300F583E493F570AE72AF737C007D0A123F14
:101FE3003774BC2DF582745E3CF583E4022370AE36
:101FF30072AF737C007D64123F3774BC2FF582741B
:102003005E3EF583E493F56FAE72AF737C007D643F
:10201300123F377E007F0ACFCDCFCECCCE123F37D3
:1020230074D82FF582745E3EF583E493F570AE7237
:10203300AF737C007D0A123F3774BC2DF582745E4A
:102043003CF583E4022370C3E57394E8E5729403DB
:1020530050030221C8E5739410E5729427400302EC
:1020630021C8905ECEE493F56CF56DAE72AF737CD0
:10207300037DE8123F3774BC2FF582745E3EF5830F
:10208300E493F56EE53964037065AE72AF737C0358
:102093007DE8123F377E007F64CFCDCFCECCCE120A
:1020A3003F3774D82FF582745E3EF583E493F56F62
:1020B300AE72AF737C007D64123F377E007F0ACF20
:1020C300CDCFCECCCE123F3774BC2FF582745E3E9B
:1020D300F583E493F570AE72AF737C007D0A123F13
:1020E3003774BC2DF582745E3CF583E4022370E5FE
:1020F3000964016006E53964027065AE72AF737CF2
:10210300037DE8123F377E007F64CFCDCFCECCCEA8
:10211300123F3774BC2FF582745E3EF583E493F56A
:102123006FAE72AF737C007D64123F377E007F0A0F
:10213300CFCDCFCECCCE123F3774BC2FF582745E99
:102143003EF583E493F570AE72AF737C007D0A12A3
:102153003F3774BC2DF582745E3CF583E402237033
:10216300AE72AF737C037DE8123F377E007F64CF8E
:10217300CDCFCECCCE123F3774BC2FF582745E3EEA
:10218300F583E493F56FAE72AF737C007D64123F09
:10219300377E007F0ACFCDCFCECCCE123F3774D857
:1021A3002FF582745E3EF583E493F570AE72AF73E0
:1021B3007C007D0A123F3774BC2DF582745E3CF5BA
:1021C30083E4022370C3E5739410E57294275003EC
:1021D300022373AE72AF73E4FCFD7BA07A867901B0
:1021E300F8D3123F9A5003022373905ECEE493F523
:1021F3006CAE72AF737C277D10123F3774BC2FF522
:1022030082745E3EF583E493F56DAE72AF737C2703
:102213007D10123F377E037FE8CFCDCFCECCCE12D9
:102223003F3774BC2FF582745E3EF583E493F56EFD
:10223300E53964037065AE72AF737C037DE8123FCA
:10224300377E007F64CFCDCFCECCCE123F3774D84C
:102253002FF582745E3EF583E493F56FAE72AF7330
:102263007C007D64123F377E007F0ACFCDCFCECC7A
:10227300CE123F3774BC2FF582745E3EF583E49330
:10228300F570AE72AF737C007D0A123F3774BC2DBC
:10229300F582745E3CF583E4022370E50964016012
:1022A30006E53964027064AE72AF737C037DE81295
:1022B3003F377E007F64CFCDCFCECCCE123F377475
:1022C300BC2FF582745E3EF583E493F56FAE72AF77
:1022D300737C007D64123F377E007F0ACFCDCFCE63
:1022E300CCCE123F3774BC2FF582745E3EF583E487
:1022F30093F570AE72AF737C007D0A123F3774BCE6
:102303002DF582745E3CF583E48062AE72AF737C1C
:10231300037DE8123F377E007F64CFCDCFCECCCE96
:10232300123F3774BC2FF582745E3EF583E493F558
:102333006FAE72AF737C007D64123F377E007F0AFD
:10234300CFCDCFCECCCE123F3774D82FF582745E6B
:102353003EF583E493F570AE72AF737C007D0A1291
:102363003F3774BC2DF582745E3CF583E493F571BD
:10237300856F7C856E7D856D7E856C7FAB70AD7161
:102383007F010254248C6D8D6E8F6FAF6EAE6DE541
:102393006F7028905ECD93FFF570905EBCE493F56B
:1023A30071905ECEE493F572905EC1E493F5739001
:1023B3005ECAE493F5748F75022A58E56F64016071
:1023C30003022468EF4E7022905ECD93F570905E09
:1023D300BDE493F571905ECEE493F572F573905E70
:1023E300D3E493F574A3E493F575EF64014E702978
:1023F300905ECD93F570905EBDE493F571905ECEE3
:10240300E493F572905ED5E493F573905ED3E49311
:10241300F574905EC9E493F575EF64024E701F90F6
:102423005ECD93F570905EBDE493F571905ECEE45E
:1024330093F572F573F574905ED2E493F575EF64DA
:10244300034E6003022A58905ECD93F570905EBDF3
:10245300E493F571905ECEE493F572F573F57490A1
:102463005EC6022953E56F64027049EF4E701E90F9
:102473005ECD93F570905EBEE493F571905ECEE40D
:1024830093F572F573F574905EC8022953EF6401F6
:102493004E6003022A58905ECD93F570905EBEE4C1
:1024A30093F571905ECEE493F572F573F574905ED7
:1024B300CB022953E56F640360030225AEEF4E7030
:1024C3001B905ECD93F570905EBFE493F571905EC3
:1024D300CEE493F572F573757474F575EF64014E7C
:1024E3007024905ECD93F570905EBFE493F5719088
:1024F3005ECEE493F572F573905ED7E493F5749032
:102503005ECEE493F575EF64024E7024905ECD9336
:10251300F570905EBFE493F571905ECEE493F5722F
:10252300F573905ED3E493F574905ECEE493F57502
:10253300EF64034E7024905ECD93F570905EBFE41C
:1025430093F571905ECEE493F572F573905ECAE4F1
:1025530093F574905ECEE493F575EF64044E7024A6
:10256300905ECD93F570905EBFE493F571905ECE6F
:10257300E493F572F573905ED5E493F574905ECEB3
:10258300E493F575EF64054E6003022A58905ECD1F
:1025930093F570905EBFE493F571905ECEE493F58E
:1025A30072F57375746DF575022A58E56FC394045B
:1025B3005003022957E56FD3940D40030229578531
:1025C3006D77856E78E56FB40405905ED3803AE548
:1025D3006FB40505905ED38041E56FB40605905E48
:1025E300D58026E56FB40705905ED5802DE56FB4E1
:1025F3000805905ED28012E56FB40905905ED28023
:1026030019E56FB40A0C905EC6E493F57075715CBE
:102613008039E56FB40B0C905EC6E493F570757169
:102623006D8028E56FB40C10905EC6E493F570904E
:102633005ED0E493F5718013E56FB40D11905EC61F
:10264300E493F570905ECCE493F571E4F576C3E51D
:102653007794004040E578940AE5779400503690EB
:102663005ECEE493F572F573E5767009E5097005BE
:10267300905ED88004905EBCE493F574AE77AF7837
:102683007C007D0A123F3774BC2DF582745E3CF5E5
:1026930083E493F575C3E578940AE5779400406085
:1026A300E5789464E57794005056905ECEE493F514
:1026B30072F573E5767017E5097013AE77AF78FCA2
:1026C3007D0A123F3774D82FF582745E8012AE777D
:1026D300AF787C007D0A123F3774BC2FF582745E9D
:1026E3003EF583E493F574AE77AF787C007D0A12F0
:1026F3003F3774BC2DF582745E3CF583E493F57526
:10270300C3E5789464E577940050030227A5E57840
:1027130094E8E577940340030227A5905ECEE49303
:10272300F572AE77AF787C007D64123F3774BC2FAF
:10273300F582745E3EF583E493F573E5767024E5E4
:10274300097020AE77AF78FC7D64123F377E007F3F
:102753000ACFCDCFCECCCE123F3774D82FF58274AB
:102763005E801FAE77AF787C007D64123F377E00BA
:102773007F0ACFCDCFCECCCE123F3774BC2FF5829C
:10278300745E3EF583E493F574AE77AF787C007D99
:102793000A123F3774BC2DF582745E3CF583E493D3
:1027A300F575C3E57894E8E577940350030228664A
:1027B300E5789410E57794274003022866AE77AF57
:1027C300787C037DE8123F3774BC2FF582745E3E3C
:1027D300F583E493F572AE77AF787C037DE8123F1F
:1027E300377E007F64CFCDCFCECCCE123F3774BCC3
:1027F3002FF582745E3EF583E493F573E5767024DA
:10280300E5097020AE77AF78FC7D64123F377E0018
:102813007F0ACFCDCFCECCCE123F3774D82FF582DF
:10282300745E801FAE77AF787C007D64123F377E85
:10283300007F0ACFCDCFCECCCE123F3774BC2FF55D
:1028430082745E3EF583E493F574AE77AF787C00D3
:102853007D0A123F3774BC2DF582745E3CF583E428
:1028630093F575C3E5789410E57794275003022A0E
:1028730058AE77AF78E4FCFD7BA07A867901F8D374
:10288300123F9A5003022A58AE77AF787C277D1007
:10289300123F3774BC2FF582745E3EF583E493F5E3
:1028A30071AE77AF787C277D10123F377E037FE8C8
:1028B300CFCDCFCECCCE123F3774BC2FF582745E12
:1028C3003EF583E493F572AE77AF787C037DE8122F
:1028D3003F377E007F64CFCDCFCECCCE123F37744F
:1028E300BC2FF582745E3EF583E493F573E5767051
:1028F30024E5097020AE77AF78FC7D64123F377E04
:10290300007F0ACFCDCFCECCCE123F3774D82FF570
:1029130082745E801FAE77AF787C007D64123F3790
:102923007E007F0ACFCDCFCECCCE123F3774BC2FE3
:10293300F582745E3EF583E493F574AE77AF787CED
:10294300007D0A123F3774BC2DF582745E3CF5831B
:10295300E4022A3CE56FC3940E5009E56F941440DA
:1029630003022A41E56FB40E0575706E802EE56F84
:10297300B40F0C905ECFE493F570905EBC8031E5AC
:102983006FB4100C905EC9E493F57075716E80247A
:10299300E56FB4110C905ECCE493F570905ED58036
:1029A3000FE56FB4120E905ECFE493F570905EBDA9
:1029B300E493F571856D77856E78E578540FFDE5C1
:1029C30077C4F854F0C868F577E578C4540F48F530
:1029D30078540FFCE577C4F854F0C868F577E578C8
:1029E300C4540F48F578540FFBE577C4F854F0C886
:1029F30068F577E578C4540F48F578540FFF75767A
:102A0300017023905ECE93FEF572EB70088E73EC2B
:102A1300905EBC8008EB905EBC93F573EC93F57409
:102A2300ED93F575800FEF905EBC93F572EB93F524
:102A330073EC93F574ED905EBC93F5758017E56FB9
:102A4300C394164010E4F570F571F57275736E75E5
:102A5300747975756B85737C85727D85717E8570E0
:102A63007FAB74AD757F010254248E6C8F6D856CC2
:102A730070856D71E4F509E50864016003022DFCBE
:102A8300D3E56D94C2E56C9402AC6CAD6D5030E44B
:102A9300123E6B7B7B7A14790E7840123DC9A804F1
:102AA300A905AA06AB07E4FFFE7DA07C43123CD137
:102AB300123EA48E6E8F6F750A01E4F5088026E43A
:102AC300123E6B7BCD7ACC790C7840123DC9E4FB86
:102AD300FA79A078C3123CD5123EA48E6E8F6FE4B0
:102AE300F50A750801D3E56F946EE56E94004022F4
:102AF300E50A701EE56F249CFFE56E34FFFE90002F
:102B030043E0FD7C00123F37EF256FF56FEE356E26
:102B1300F56ED3E56F94B5E56E94014022E50A7036
:102B23001EE56F245CFFE56E34FEFE900046E0FD7B
:102B33007C00123F37EF256FF56FEE356EF56ED3E0
:102B4300E56F9458E56E94024022E50A701EE56F26
:102B530024DAFFE56E34FDFE900045E0FD7C0012B3
:102B63003F37EF256FF56FEE356EF56ED3E56F9456
:102B7300DEE56E94024022E50A701EE56F243AFFFB
:102B8300E56E34FDFE900044E0FD7C00123F37EF1C
:102B9300256FF56FEE356EF56ED3E56F94C0E56E78
:102BA30094034022E50A701EE56F244AFFE56E3464
:102BB300FCFE900045E0FD7C00123F37EF256FF5EA
:102BC3006FEE356EF56ED3E56F947EE56E9404403B
:102BD30022E50A701EE56F24B4FFE56E34FBFE9018
:102BE3000044E0FD7C00123F37EF256FF56FEE35B3
:102BF3006EF56ED3E56F9446E56E94054022E50AC3
:102C0300701EE56F24ECFFE56E34FAFE900044E09D
:102C1300FD7C00123F37EF256FF56FEE356EF56ED5
:102C2300D3E56F9404E56E94064022E50A701EE531
:102C33006F2410FFE56E34FAFE900043E0FD7C0044
:102C4300123F37EF256FF56FEE356EF56ED3E56FF7
:102C530094F4E56E94064022E50A701EE56F242A7B
:102C6300FFE56E34F9FE900044E0FD7C00123F372F
:102C7300EF256FF56FEE356EF56ED3E56F9476E560
:102C83006E94074022E50A701EE56F2494FFE56EFB
:102C930034F8FE900044E0FD7C00123F37EF256FCF
:102CA300F56FEE356EF56ED3E56F9448E56E9408D7
:102CB3004022E50A701EE56F24C2FFE56E34F7FE7D
:102CC300900043E0FD7C00123F37EF256FF56FEE78
:102CD300356EF56ED3E56F94DEE56E94084022E51C
:102CE3000A701EE56F242CFFE56E34F7FE90004357
:102CF300E0FD7C00123F37EF256FF56FEE356EF583
:102D03006ED3E56F94F6E56E94094022E50A701ED2
:102D1300E56F2428FFE56E34F6FE900043E0FD7C6A
:102D230000123F37EF256FF56FEE356EF56ED3E585
:102D33006F94A0E56E940A4022E50A701EE56F24A5
:102D430088FFE56E34F5FE900043E0FD7C00123F02
:102D530037EF256FF56FEE356EF56ED3E56F944A59
:102D6300E56E940B4022E50A701EE56F24DEFFE555
:102D73006E34F4FE900043E0FD7C00123F37EF25F4
:102D83006FF56FEE356EF56ED3E56F949AE56E943D
:102D93000B4022E50A701EE56F2484FFE56E34F4D0
:102DA300FE900043E0FD7C00123F37EF256FF56F87
:102DB300EE356EF56ED3E56F9426E56E940C4022E6
:102DC300E50A701EE56F24E4FFE56E34F3FE900020
:102DD30043E0FD7C00123F37EF256FF56FEE356E54
:102DE300F56ED3E56F94A0E56E940F5003022FD8D0
:102DF300756E13756F7E022FD885706E85716FACFB
:102E030070AD71E4123E6B7BCD7ACC790C784012B5
:102E13003DC9E4FBFA79A07843123CD5123EA48E57
:102E23006E8F6FD3E56F9454E56E9401401FE56F89
:102E330024B6FFE56E34FEFE900045E0FD7C0012F3
:102E43003F37C3E56F9FF56FE56E9EF56ED3E56F74
:102E5300943AE56E9402401FE56F24D0FFE56E348B
:102E6300FDFE900044E0FD7C00123F37C3E56F9FF9
:102E7300F56FE56E9EF56ED3E56F94ACE56E940346
:102E8300401FE56F2472FFE56E34FCFE900044E0C2
:102E9300FD7C00123F37C3E56F9FF56FE56E9EF52E
:102EA3006ED3E56F9414E56E9405401FE56F240A15
:102EB300FFE56E34FBFE900044E0FD7C00123F37DB
:102EC300C3E56F9FF56FE56E9EF56ED3E56F94B81E
:102ED300E56E9406401FE56F245CFFE56E34F9FE52
:102EE300900044E0FD7C00123F37C3E56F9FF56F10
:102EF300E56E9EF56ED3E56F947AE56E9408401CFB
:102F0300E56F249AFFE56E34F7FE7C007D1C123FCB
:102F130037C3E56F9FF56FE56E9EF56ED3E56F944E
:102F230032E56E940A401FE56F24ECFFE56E34F53D
:102F3300FE900045E0FD7C00123F37C3E56F9FF52F
:102F43006FE56E9EF56ED3E56F94A4E56E940B402A
:102F53001FE56F2470FFE56E34F4FE900045E0FD3D
:102F63007C00123F37C3E56F9FF56FE56E9EF56EEC
:102F7300D3E56F94B7E56E940D401FE56F24AEFF64
:102F8300E56E34F2FE900045E0FD7C00123F37C34E
:102F9300E56F9FF56FE56E9EF56ED3E56F9490E553
:102FA3006E940F401FE56F24E2FFE56E34F0FE9050
:102FB3000046E0FD7C00123F37C3E56F9FF56FE5E8
:102FC3006E9EF56ED3E56F9488E56E941340067597
:102FD3006E17756F6FAE6EAF6F228E668F67E4F5F7
:102FE30009E50864016003023146D3E567948AE585
:102FF300669401AC66AD675030E4123E6B7BD77AC2
:10300300A379B0783F123DC9A804A905AA06AB0766
:10301300E4FFFE7DA07C43123CD1123EA48E688F58
:1030230069750A01E4F5088026E4123E6B7BD77AC2
:10303300A379B0783F123DC9E4FBFA79A078C312B3
:103043003CD5123EA48E688F69E4F50A75080185A4
:10305300686A85696BD3E5699428E5689400402222
:10306300E50A701EE5692428FFE43568FE90004DEB
:10307300E0FD7C00123F37C3E56B9FF56BE56A9E6D
:10308300F56AD3E56994B6E56894034023E50A70CD
:103093001FE569244AFFE56834FCFE90004CE0FD1F
:1030A3007C00123F37C3E56B9FF56BE56A9EF56ABB
:1030B300D3E569949EE56894074023E50A701FE50C
:1030C300692462FFE56834F8FE90004CE0FD7C0063
:1030D300123F37C3E56B9FF56BE56A9EF56AD3E54F
:1030E300699428E568940A4023E50A701FE569247A
:1030F300D8FFE56834F5FE90004CE0FD7C00123FFC
:1031030037C3E56B9FF56BE56A9EF56AD3E5699472
:1031130080E568940C5003023475E50A60030234B9
:1031230075E5692480FFE56834F3FE90004CE0FD0B
:103133007C00123F37C3E56B9FF56BE56A9EF56A2A
:10314300023475AC66AD67E4123E6B7BD77AA37924
:10315300B0783F123DC9E4FBFA79A07843123CD51D
:10316300123EA48E688F6985686A85696BC3E569B9
:103173009414E5689405401DE42569FFE56834FB74
:10318300FE90004EE0FD7C00123F37EF256BF56BA0
:10319300EE356AF56AC3E5699498E5689408401EBC
:1031A300E5692468FFE56834F7FE900050E0FD7C94
:1031B30000123F37EF256BF56BEE356AF56AC3E511
:1031C3006994B2E568940C401EE569244EFFE568F6
:1031D30034F3FE90004EE0FD7C00123F37EF256B89
:1031E300F56BEE356AF56AC3E5699404E5689410F6
:1031F300401EE56924FCFFE56834EFFE90004EE0D5
:10320300FD7C00123F37EF256BF56BEE356AF56AEF
:10321300C3E5699488E5689413401EE5692478FF43
:10322300E56834ECFE900050E0FD7C00123F37EF80
:10323300256BF56BEE356AF56AC3E56994A8E56815
:103243009416401EE5692458FFE56834E9FE9000B2
:1032530050E0FD7C00123F37EF256BF56BEE356ACE
:10326300F56AC3E5689419401DE42569FFE56834F0
:10327300E7FE90004FE0FD7C00123F37EF256BF532
:103283006BEE356AF56AC3E56994A2E568941C4060
:103293001EE569245EFFE56834E3FE90004EE0FD21
:1032A3007C00123F37EF256BF56BEE356AF56AC389
:1032B300E569940EE568941F401EE56924F2FFE575
:1032C3006834E0FE90004EE0FD7C00123F37EF25AE
:1032D3006BF56BEE356AF56AC3E56994FCE56894B2
:1032E30021401EE5692404FFE56834DEFE90004EAC
:1032F300E0FD7C00123F37EF256BF56BEE356AF589
:103303006AC3E56994EAE5689424401EE5692416D6
:10331300FFE56834DBFE90004FE0FD7C00123F3791
:10332300EF256BF56BEE356AF56AC3E56994ACE599
:10333300689426401EE5692454FFE56834D9FE905D
:103343000051E0FD7C00123F37EF256BF56BEE3546
:103353006AF56AC3E5699404E5689429401EE56942
:1033630024FCFFE56834D6FE900050E0FD7C00129B
:103373003F37EF256BF56BEE356AF56AC3E5699464
:10338300F4E5689429401EE569240CFFE56834D60A
:10339300FE900051E0FD7C00123F37EF256BF56B8B
:1033A300EE356AF56AC3E5699488E568942C401E96
:1033B300E5692478FFE56834D3FE90004FE0FD7C97
:1033C30000123F37EF256BF56BEE356AF56AC3E5FF
:1033D300699418E568942E401EE56924E8FFE568C2
:1033E30034D1FE900051E0FD7C00123F37EF256B96
:1033F300F56BEE356AF56AC3E56994DAE568942FEF
:10340300401EE5692426FFE56834D0FE900051E0B4
:10341300FD7C00123F37EF256BF56BEE356AF56ADD
:10342300C3E56994CEE5689431401EE5692432FF13
:10343300E56834CEFE90004CE0FD7C00123F37EF90
:10344300256BF56BEE356AF56AC3E5699458E56853
:103453009434401EE56924A8FFE56834CBFE900050
:103463004CE0FD7C00123F37EF256BF56BEE356AC0
:10347300F56AAE6AAF6B228E6C8F6DE4F509E508D1
:1034830064017066D3E56D94B5E56C9403AC6CADE3
:103493006D5031E4123E6B7BA47A70793D78401213
:1034A3003DC9A804A905AA06AB07E4FFFE7DA07CDD
:1034B30043123CD1123EA48E6E8F6F750A01E4F560
:1034C30008023910E4123E6B7BA47A70793D784090
:1034D300123DC9E4FBFA79A078C3123CD5123EA48D
:1034E3008E6E8F6FE4F50A023910AC6CAD6DE41289
:1034F3003E6B7BA47A70793D7840123DC9E4FBFAB8
:1035030079A07843123CD5123EA48E6E8F6FD3E51B
:103513006D941AE56C9404401FE56D2418FFE56C67
:1035230034FCFE900011E0FD7C00123F37C3E56FD1
:103533009FF56FE56E9EF56ED3E56D94F1E56C94A2
:1035430009401FE56D241EFFE56C34F6FE90001163
:10355300E0FD7C00123F37C3E56F9FF56FE56E9E7C
:10356300F56ED3E56D9406E56C9411401FE56D246B
:1035730002FFE56C34EFFE900012E0FD7C00123F89
:1035830037C3E56F9FF56FE56E9EF56ED3E56D94DA
:1035930046E56C941E401EE4256DFFE56C34E2FEA7
:1035A300900013E0FD7C00123F37C3E56F9FF56F7A
:1035B300E56E9EF56ED3E56D949AE56C9429401FF4
:1035C300E56D2452FFE56C34D6FE900013E0FD7CDC
:1035D30000123F37C3E56F9FF56FE56E9EF56ED31F
:1035E300E56D94F2E56C942B401EE56D2440FFE5F8
:1035F3006C34D4FE900013E0FD7C00123F37EF25BE
:103603006FF56FEE356EF56ED3E56D9448E56C940A
:103613003A401FE56D2462FFE56C34C6FE9000134B
:10362300E0FD7C00123F37C3E56F9FF56FE56E9EAB
:10363300F56ED3E56D943CE56C943C401EE56D243A
:10364300D8FFE56C34C3FE900012E0FD7C00123F0E
:1036530037EF256FF56FEE356EF56ED3E56D94D4C8
:10366300E56C9444401FE56D2440FFE56C34BBFEDC
:10367300900014E0FD7C00123F37C3E56F9FF56FA8
:10368300E56E9EF56ED3E56D94BCE56C9448401EE3
:10369300E56D2458FFE56C34B7FE900012E0FD7C25
:1036A30000123F37EF256FF56FEE356EF56ED3E5FC
:1036B3006D948CE56C9450401FE56D2488FFE56C98
:1036C30034AFFE900013E0FD7C00123F37C3E56F7B
:1036D3009FF56FE56E9EF56ED3E56D945CE56C9496
:1036E30058401EE56D24B8FFE56C34A7FE90001228
:1036F300E0FD7C00123F37EF256FF56FEE356EF579
:103703006ED3E56D9438E56C945E401FE56D24DC63
:10371300FFE56C34A1FE900012E0FD7C00123F3700
:10372300C3E56F9FF56FE56E9EF56ED3E56D94D09F
:10373300E56C9466401EE56D2444FFE56C3499FE08
:10374300900014E0FD7C00123F37EF256FF56FEE1C
:10375300356EF56ED3E56D9454E56C946A401FE5C0
:103763006D2424FFE56C3496FE900013E0FD7C008D
:10377300123F37C3E56F9FF56FE56E9EF56ED3E598
:103783006D94B4E56C9473401FE56D2460FFE56CA4
:10379300348CFE900013E0FD7C00123F37C3E56FCD
:1037A3009FF56FE56E9EF56ED3E56D94DCE56C9445
:1037B3007D401FE56D2438FFE56C3482FE900013D5
:1037C300E0FD7C00123F37C3E56F9FF56FE56E9E0A
:1037D300F56EAE6CAF6DE4FCFD7BA07A87F9F8C3A0
:1037E300123F9A502CE56D2474FFE56C3478FEE4A7
:1037F30034FFFDE434FFFCC007900012E0FBE4FA61
:10380300F8D0071258FCC3E56F9FF56FE56E9EF580
:103813006EAE6CAF6DE4FCFD7BB47A8CF9F8C31229
:103823003F9A502CE56D2460FFE56C3473FEE4345D
:10383300FFFDE434FFFCC007900013E0FBE4FAF85B
:10384300D0071258FCC3E56F9FF56FE56E9EF56ECA
:10385300AE6CAF6DE4FCFD7BDC7A96F9F8C3123FE6
:103863009A502CE56D2438FFE56C3469FEE434FF8F
:10387300FDE434FFFCC007900013E0FBE4FAF8D04A
:10388300071258FCC3E56F9FF56FE56E9EF56EAEAC
:103893006CAF6DE4FCFD7B8C7A9BF9F8C3123F9A05
:1038A300502CE56D2488FFE56C3464FEE434FFFDA1
:1038B300E434FFFCC007900012E0FBE4FAF8D00701
:1038C3001258FCC3E56F9FF56FE56E9EF56EAE6C07
:1038D300AF6DE4FCFD7B2C7AABF9F8C3123F9A5031
:1038E3002CE56D24E8FFE56C3454FEE434FFFDE47D
:1038F30034FFFCC007900011E0FBE4FAF8D0071294
:1039030058FCC3E56F9FF56FE56E9EF56EAE6EAF27
:103913006F221257D6BF0106752C04023CC978AB3F
:10392300E660068523538524547888E6707576040B
:1039330012471BE55525E0248CF8A60608A607E5E3
:1039430055C394045004055580597890E6FE08E663
:103953007802CEC313CE13D8F9FDAC067892E6FEF7
:1039630008E67802CEC313CE13D8F92DFDEE3CFC46
:10397300788EE6FE08E67802CEC313CE13D8F92D6F
:10398300FDEC3EFC788CE6FE08E67802CEC313CE4F
:1039930013D8F92DF554EC3EF553E4F55578ABE621
:1039A3006001167881E66003023C5876101255A434
:1039B30078AAE6FD25E0248CF8A60608A607EDC341
:1039C300940D500E78AA0678A6E6F56408E6F56528
:1039D300806978A2E6FE08E6FF7C007D05123F378A
:1039E300AA06AB0778A4E6FE08E6FF7C007D051275
:1039F3003F37EF2BFBEE3AFA78A0E6FE08E6FF7CB2
:103A0300007D05123F37EF2BFBEE3AFA789EE6FE78
:103A130008E6FF7C007D05123F37EF2BFBEE3AFAF9
:103A2300789CE6FE08E6FF7C007D05123F37EF2B0E
:103A330078A7F6EE3A18F678AA7608E53070487D4E
:103A4300181250458E688F6912141B8E668F67ACEF
:103A530066AD67E4123E6B7B337A33794378421267
:103A63003DC9123EA48E688F69AE66AF677C007D48
:103A730026123F37EF24A3F56BE43EF56AE55A605F
:103A830003023C58023C4DE5306401705DAE53AF18
:103A930054FC7D1E12504A8E688F6912347A8E66EA
:103AA3008F67AC66AD67E4123E6B7B337A3379DBA9
:103AB3007841123DC9123EA48E688F69AC66AD672A
:103AC300E4123E6B7B337A3379AB7841123DC9E420
:103AD300FBFA79237843123CD5123EA48E6A8F6B8E
:103AE300E55A6003023C58023C4DE5306402704CD9
:103AF300AE53AF54FC7D1712504A8E688F69122A59
:103B03006D8E668F67AC66AD67E4123E6BE4FBFABD
:103B130079F07840123DC9123EA48E688F69AE6673
:103B2300AF677C007D06123F37EF24A3F56BE43EBD
:103B3300F56AE55A6003023C58023C4DE5306403E4
:103B4300705CAE53AF54FC7D2312504A8E688F696C
:103B5300120BB98E668F67AC66AD67E4123E6B7B62
:103B6300667A6679E27841123DC9123EA48E688F67
:103B730069AC66AD67E4123E6BE4FBFA79B4784155
:103B8300123DC9E4FBFA79237843123CD5123EA4D3
:103B93008E6A8F6BE55A6003023C58023C4DE53058
:103BA300640470511250408E688F691243CD8E6643
:103BB3008F67AC66AD67E4123E6B7B337A33796310
:103BC3007842123DC9123EA48E688F69AC66AD6718
:103BD300E4123E6BE4FBFA79327842123DC9E4FB0E
:103BE300FA79237843123CD5123EA48E6A8F6BE593
:103BF3005A70628055E5306405705A1250408E68E1
:103C03008F6912407E8E668F67AC66AD67E4123EA5
:103C13006B7B337A3379637842123DC9123EA48EAB
:103C2300688F69AC66AD67E4123E6BE4FBFA7932E8
:103C33007842123DC9E4FBFA79237843123CD5124A
:103C43003EA48E6A8F6BE55A700BAF67AE66125453
:103C5300EB8E668F677882E67007125765788276F7
:103C6300087880E670267620AD67AC667F01121B6C
:103C7300F8D3E567954BE566954A400EE5679549A8
:103C8300E56695485004D2B48002C2B47885E670E4
:103C930018208407AF69AE68125BD5208507AF6B28
:103CA300AE6A125B26788576107884E67018200158
:103CB30009856799D2017601800AE566F599C20103
:103CC3007884763BD299AE66AF6722023F10E864F0
:103CD30080F8E933E83360110460F0ED33EC3370BE
:103CE30009E8FCE9FDEAFEEBFF220460DED3EB9F6B
:103CF300EA9EE99DE8C2E78CF0C2F795F0400CE834
:103D0300CCF8E9CDF9EACEFAEBCFFB123EDB85D056
:103D1300F05804700320D5B3E80470075002B2D5FD
:103D2300023F1A92D5EC0460F7E4CCC0E0C398F8E4
:103D3300603B94186008400DD0E0FB023EF2E4FBC8
:103D4300FAC9FC8028E830E406E4C9FBE4CAFCE8CD
:103D530030E305E4C9CACBFCE854076010F8C3E9B3
:103D630013F9EA13FAEB13FBEC13FCD8F130F52F3C
:103D7300C3E49CFCEF9BFFEE9AFEED99FDD0E0FBC4
:103D8300EF4E4D4C701222DB03023F17EC2CFCEF7D
:103D930033FFEE33FEED33FDED30E7EB023EF2EFA2
:103DA3002BFFEE3AFEED39FDD0E0FB50130BBB00C9
:103DB30003023F1AED13FDEE13FEEF13FFEC13FCAA
:103DC300023EF2023F1AEC5D046005E859047003F9
:103DD300023F10123EDB580460F6EC4860F2EC70D0
:103DE30004FDFEFF22C860DB2481C85009C398602C
:103DF300025006023F179850CAF582E9294B4A70D0
:103E030005AB82023F0675F0007C1A7880C3EF9BF6
:103E1300EE9AED99400DC3EF9BFFEE9AFEED99FDEF
:103E2300E842F0DC23ACF0D0E0FFD0E0FED0E0FDD0
:103E3300AB8220E7101BEB60BAEC2CFCEF33FFEEF8
:103E430033FEED33FD023EF2E803F830E705C0F040
:103E530075F000EF2FFFEE33FEED33FD40B830E792
:103E6300C280AA75F020800E75F010800575F008E9
:103E73007D007E007F003392D530D503123F8CEC5A
:103E8300334010EF33FFEE33FEED33FDEC33FCD55F
:103E9300F0ED22E5F0247EA2D513CC92E7CDCEFF40
:103EA30022EDD2E7CD33EC3392D524814006E4FFF3
:103EB300FEFDFC22FCE4CFCECDCC24E0501174FFF8
:103EC30080EDC3CC13CCCD13CDCE13CECF13CF0403
:103ED30070F030D5DE023F8CE9D2E7C933E833F81E
:103EE30092D5EDD2E7CD33EC33FC5002B2D522ECC0
:103EF30030E7100FBF000C0EBE00080DBD00040B11
:103F0300EB6014A2D5EB13FCED92E7FD2274FFFCEA
:103F1300FDFEFF22E480F8A2D574FF13FC7D80E44C
:103F230080EFEF8DF0A4A8F0CF8CF0A428CE8DF015
:103F3300A42EFE22BC000BBE0029EF8DF084FFAD42
:103F4300F022E4CCF875F008EF2FFFEE33FEEC33EC
:103F5300FCEE9DEC984005FCEE9DFE0FD5F0E9E4E8
:103F6300CEFD22EDF8F5F0EE8420D21CFEADF07507
:103F7300F008EF2FFFED33FD4007985006D5F0F220
:103F830022C398FD0FD5F0EA22C3E49FFFE49EFE0F
:103F9300E49DFDE49CFC22EB9FF5F0EA9E42F0E9F0
:103FA3009D42F0EC6480C864809845F02275F00867
:103FB300758200EF2FFFEE33FECD33CDCC33CCC56E
:103FC3008233C5829BED9AEC99E58298400CF58289
:103FD300EE9BFEED9AFDEC99FC0FD5F0D6E4CEFBFB
:103FE300E4CDFAE4CCF9A88222B800C1B90059BAE9
:103FF300002DEC8BF084CFCECDFCE5F0CBF9781817
:10400300EF2FFFEE33FEED33FDEC33FCEB33FB1010
:10401300D703994004EB99FB0FD8E5E4F9FA22782A
:1040230018EF2FFFEE33FEED33FDEC33FCC933C93C
:1040330010D7059BE99A4007EC9BFCE99AF90FD846
:10404300E0E4C9FAE4CCFB2275F010EF2FFFEE3366
:10405300FEED33FDCC33CCC833C810D7079BEC9AA5
:10406300E899400AED9BFDEC9AFCE899F80FD5F02E
:10407300DAE4CDFBE4CCFAE4C8F9228E6C8F6DE56B
:104083000864017049D3E56D9468E56C940050347D
:10409300AC6CAD6DE4123E6B7B487AE1790A7840F3
:1040A300123DC9A804A905AA06AB07E4FFFEFD7CDF
:1040B30042123CD1123EA48E6E8F6F750A01E4F555
:1040C300080243C8E4F50AF56EF56F0243C8AC6C09
:1040D300AD6DE4123E6B7BCD7ACC794C7840123DCA
:1040E300C9E4FBFAF97842123CD5123EA4AB07AA05
:1040F300068A6E8B6FC3EB9432EA9400401DEB2467
:10410300CEFFEA34FFFE900031E0FD7C00123F3722
:10411300C3E56F9FF56FE56E9EF56EC3EB946DEA95
:104123009400401DEB2493FFEA34FFFE900030E03F
:10413300FD7C00123F37C3E56F9FF56FE56E9EF57B
:104143006EC3EB94AEEA9400401DEB2452FFEA34B5
:10415300FFFE900032E0FD7C00123F37C3E56F9F06
:10416300F56FE56E9EF56EC3EB94F8EA9400401D7F
:10417300EB2408FFEA34FFFE900033E0FD7C0012DD
:104183003F37C3E56F9FF56FE56E9EF56EC3EB9406
:1041930071EA9401401DEB248FFFEA34FEFE900088
:1041A30034E0FD7C00123F37C3E56F9FF56FE56E8A
:1041B3009EF56EC3EB94C8EA9401401DEB2438FFCF
:1041C300EA34FEFE900035E0FD7C00123F37C3E584
:1041D3006F9FF56FE56E9EF56EC3EB944FEA940205
:1041E300401DEB24B1FFEA34FDFE900036E0FD7C78
:1041F30000123F37C3E56F9FF56FE56E9EF56EC303
:10420300EB941CEA9403401DEB24E4FFEA34FCFE28
:10421300900036E0FD7C00123F37C3E56F9FF56FDA
:10422300E56E9EF56EC3EB94F2EA9403401DEB2416
:104233000EFFEA34FCFE900038E0FD7C00123F37AD
:10424300C3E56F9FF56FE56E9EF56EC3EB9426EAAB
:104253009405401DEB24DAFFEA34FAFE900036E0C1
:10426300FD7C00123F37C3E56F9FF56FE56E9EF54A
:104273006EC3EB9484EA9406401DEB247CFFEA347E
:10428300F9FE90003AE0FD7C00123F37C3E56F9FD3
:10429300F56FE56E9EF56EC3EB946DEA9408401DD1
:1042A300EB2493FFEA34F7FE900038E0FD7C001224
:1042B3003F37C3E56F9FF56FE56E9EF56EC3EB94D5
:1042C3006DEA9409401DEB2493FFEA34F6FE900057
:1042D3003AE0FD7C00123F37C3E56F9FF56FE56E53
:1042E3009EF56EC3EB9441EA940B401DEB24BFFF94
:1042F300EA34F4FE900039E0FD7C00123F37C3E559
:104303006F9FF56FE56E9EF56EC3EB94C9EA940C4F
:10431300401DEB2437FFEA34F3FE90003DE0FD7CC3
:1043230000123F37C3E56F9FF56FE56E9EF56EC3D1
:10433300EB9485EA940E401DEB247BFFEA34F1FEF7
:1043430090003EE0FD7C00123F37C3E56F9FF56FA1
:10435300E56E9EF56EC3EB941CEA9411401DEB24AD
:10436300E4FFEA34EEFE90003EE0FD7C00123F37AE
:10437300C3E56F9FF56FE56E9EF56EC3EB94D6EACA
:104383009413401CEB242AFFEA34ECFE90003EE039
:10439300FD7C00123F37EF256FF56FEE356EF56E3E
:1043A300C3EB94B2EA9414401CEB244EFFEA34EBC3
:1043B300FE90003EE0FD7C00123F37EF256FF56F66
:1043C300EE356EF56EAE6EAF6F228E6C8F6DE508B7
:1043D30064017049D3E56F9467E56E94005034AC83
:1043E3006CAD6DE4123E6B7B487AE1790A7840123A
:1043F3003DC9A804A905AA06AB07E4FFFEFD7C425C
:10440300123CD1123EA48E6E8F6F750A01E4F5083B
:10441300024716E4F50AF56EF56F024716AC6CAD6C
:104423006DE4123E6B7B717A3D794A7840123DC947
:10443300E4FBFAF97842123CD5123EA4AB07AA0674
:104443008A6E8B6FC3EB9445EA9400401DEB24C541
:10445300FFEA34FFFE900021E0FD7C00123F37C3EA
:10446300E56F9FF56FE56E9EF56EC3EB946DEA9471
:1044730000401DEB2493FFEA34FFFE900022E0FD91
:104483007C00123F37C3E56F9FF56FE56E9EF56EB7
:10449300C3EB9499EA9400401DEB2467FFEA34FFD1
:1044A300FE900023E0FD7C00123F37C3E56F9FF5CC
:1044B3006FE56E9EF56EC3EB94C7EA9400401DEB67
:1044C3002439FFEA34FFFE900024E0FD7C00123F14
:1044D30037C3E56F9FF56FE56E9EF56EC3EB9411E1
:1044E300EA9401401DEB24F0FFEA34FEFE90002520
:1044F300E0FD7C00123F37C3E56F9FF56FE56E9ECD
:10450300F56EC3EB947BEA9401401DEB2486FFEA2E
:1045130034FEFE900023E0FD7C00123F37C3E56FBD
:104523009FF56FE56E9EF56EC3EA9402401DEB2482
:1045330001FFEA34FEFE900026E0FD7C00123F37C7
:10454300C3E56F9FF56FE56E9EF56EC3EB94A1EA2D
:104553009402401DEB2460FFEA34FDFE900027E047
:10456300FD7C00123F37C3E56F9FF56FE56E9EF547
:104573006EC3EB9460EA9403401DEB24A1FFEA347D
:10458300FCFE900028E0FD7C00123F37C3E56F9FDF
:10459300F56FE56E9EF56EC3EB944AEA9404401DF5
:1045A300EB24B7FFEA34FBFE900029E0FD7C001208
:1045B3003F37C3E56F9FF56FE56E9EF56EC3EB94D2
:1045C30062EA9405401DEB249FFFEA34FAFE900053
:1045D3002AE0FD7C00123F37C3E56F9FF56FE56E60
:1045E3009EF56EC3EB94A9EA9406401DEB2458FF95
:1045F300EA34F9FE90002BE0FD7C00123F37C3E55F
:104603006F9FF56FE56E9EF56EC3EB94B0EA94076A
:10461300401DEB2451FFEA34F8FE90002DE0FD7CB1
:1046230000123F37C3E56F9FF56FE56E9EF56EC3CE
:10463300EB94E6EA9408401DEB241BFFEA34F7FEF3
:1046430090002CE0FD7C00123F37C3E56F9FF56FB0
:10465300E56E9EF56EC3EB9426EA940A401DEB24A7
:10466300DBFFEA34F5FE90002DE0FD7C00123F37BE
:10467300C3E56F9FF56FE56E9EF56EC3EB949BEA02
:10468300940B401DEB2466FFEA34F4FE90002EE009
:10469300FD7C00123F37C3E56F9FF56FE56E9EF516
:1046A3006EC3EB9448EA940D401DEB241DFFEA34DE
:1046B300F3FE90002EE0FD7C00123F37C3E56F9FB1
:1046C300F56FE56E9EF56EC3EB9403EA940F401D00
:1046D300EB24FEFFEA34F0FE90002EE0FD7C001296
:1046E3003F37C3E56F9FF56FE56E9EF56EC3EB94A1
:1046F30056EA9411401DEB24ABFFEA34EEFE900022
:104703002FE0FD7C00123F37C3E56F9FF56FE56E29
:104713009EF56EAE6EAF6F22D2A59000007F017E34
:1047230000125D0330A503A380FAC2A5D3E58294EA
:1047330010E583947A4006E4FAFB0249B3C374108C
:104743009582FD747A9583FCE4123E6B7B337A3356
:10475300799B7841123DC9123EA4AA06AB07D3EB5D
:104763009479EA940050030249B3EB2488FFEA34B6
:10477300FFFE7C007D0C123F37C3EB9FFBEA9EFAE2
:10478300D3EB94FCEA940050030249B3EB2405FFF6
:10479300EA34FFFE7C007D14123F37EF2BFBEE3A29
:1047A300FAD3EB9419EA940150030249B3EB24E8DA
:1047B300FFEA34FEFE7C007D12123F37C3EB9FFB02
:1047C300EA9EFAD3EB9491EA940150030249B3EBC6
:1047D3002470FFEA34FEFE7C007D1C123F37EF2B72
:1047E300FBEE3AFAD3EB941DEA940250030249B369
:1047F300EB24E4FFEA34FDFE7C007D0F123F37EF2C
:104803002BFBEE3AFAD3EB9481EA9402500302496C
:10481300B3EB2480FFEA34FDC4F854F0C868FEEF1C
:10482300C4540F482BFBEE3AFAD3EB94DBEA940221
:1048330050030249B3EB2426FFEA34FDFE7C007DDE
:104843000B123F37EF2BFBEE3AFAD3EB945DEA946E
:104853000350030249B3EB24A4FFEA34FCFEEF78D0
:1048630003CEC313CE13D8F92BFBEE3AFAD3EB9452
:10487300ADEA940350030249B3EB2454FFEA34FC3A
:10488300FE7C007D0E123F37EF2BFBEE3AFAD3EBA3
:1048930094F3EA940350030249B3EB240EFFEA3482
:1048A300FCFE7C007D0A123F37EF2BFBEE3AFAD376
:1048B300EB9411EA940450030249B3EB24F0FFEAAA
:1048C30034FBFE7C007D0E123F37C3EB9FFBEA9E59
:1048D300FAD3EB9439EA940450030249B3EB24C8A6
:1048E300FFEA34FBFE7C007D05123F37EF2BFBEE26
:1048F3003AFAD3EB949DEA940450030249B3EB24B0
:1049030064FFEA34FBFE7C007D09123F37EF2BFB8B
:10491300EE3AFAD3EB94F7EA940450030249B3EB6B
:10492300240AFFEA34FBFE7C007D0A123F37EF2B9B
:10493300FBEE3AFAD3EB9451EA94054073EB24B0BF
:10494300FFEA34FAFE7C007D06123F37EF2BFBEEC5
:104953003AFAD3EB94D3EA94054055EB242EFFEABD
:1049630034FAFEEF7803CEC313CE13D8F92BFBEE44
:104973003AFAD3EB9405EA94064035EB24FCFFEABC
:1049830034F9FEEF7802CEC313CE13D8F92BFBEE26
:104993003AFAD3EB94BEEA94064015EB2448FFEAB7
:1049A30034F9FE7C007D0A123F37EF2BFBEE3AFA17
:1049B300AF03AE0222C28CAF89EF4401F589F589BA
:1049C300758CDCE4F58AC28D75E50775E64675E6F8
:1049D300B9AFE2EF4408F5E2F5E275E50675E646A0
:1049E30075E6B9D28CA28DB340FBC28DC28C75E53E
:1049F3000775E64675E6B9AFE2EF4403F5E2F5E283
:104A030075E50675E64675E6B975E50775E6467517
:104A1300E6B9AFE2EF54FBF5E2F5E275E50675E6BC
:104A23004675E6B9125C47D296D2A2125C8B125B32
:104A330084125DFB125E0B125CC7125D1AE4FFFE6B
:104A4300125B26125D34E4FFFE125BD5E4FF125DB8
:104A530091E4F53AFF125BFDEF644E70227F011281
:104A63005BFDBF451A7F02125BFDBF57127F031226
:104A73005BFDBF5A0A7F04125BFDEF64A560297DCD
:104A83004EE4FF125C247D457F01125C247D577F39
:104A930002125C247D5A7F03125C247DA57F0412DD
:104AA3005C241258A712519D125D347F12125BFDD4
:104AB3008F397F13125BFD8F5A7F14125BFD8F308A
:104AC3007F16125CE38E288F297F18125CE38E5FBA
:104AD3008F607F1A125CE38E4C8F4D7F1C125CE358
:104AE3008E458F467F1E125CE38E3C8F3D7F2012E6
:104AF3005CE38E358F367F22125CE38E318F327FFB
:104B030024125CE38E2A8F2B7F26125CE38E4A8F5E
:104B13004B7F28125CE38E488F497F2A125BFD8FFF
:104B2300527F2B125BFD8F617F2C125BFD8F5B7FAE
:104B33002E125BFD8F5C7F2F125BFD8F5D7F30122A
:104B43005BFD8F567F32125BFD7543008F447F34CC
:104B5300125CE38E578F587F36125CE38E3E8F3F95
:104B63007F38125CE38E2E8F2F7F3A125CE38E2503
:104B73008F267F3C125CE38E238F24E42552F53885
:104B8300E43420F5371258A7D2A9D28CD2ABD28EF7
:104B9300D2AF753B011256DCE5397007E54430E0CE
:104BA300278022E539B40107E54430E11B8016E58F
:104BB30039B40207E54430E20F800AE539B403084B
:104BC300E54430E303754701E52C1460261460289F
:104BD30014602A14602C146031240570EBE53970DD
:104BE3000DE54430E4057522018003E4F522123912
:104BF3001580D5124EDE80D0124C1280CB124D7828
:104C030080C675340112002680BE12527B80B91211
:104C130057D6BF0106752C04024D737881E66003F5
:104C2300024D0076101255A48E648F65E547B401DA
:104C330024E508B4011FD3E565953DE564953C4043
:104C4300028047C3E53D9565F565E53C9564F564EC
:104C5300E4F5088053E547B40106E50870028009CE
:104C6300E5477013E508B4010EE53D2565F565E5F7
:104C73003C3564F5648031E547702DE5087029C340
:104C8300E565953DE564953C400EE565953DF56527
:104C9300E564953CF5648010C3E53D9565F565E5F0
:104CA3003C9564F564750801D3E5369480E5359445
:104CB3000CAC2EAD2FAE64AF65400F123F37EF251E
:104CC30065F565EE3564F564800E123F37C3E5651F
:104CD3009FF565E5649EF564AC64AD65E4123E6BD7
:104CE3007BCD7ACC794C7840123DC9123EA48E64B8
:104CF3008F65E55EB4010674FFF564F5657880E6BB
:104D03007028AD65AC647F01121BF878807608D3F8
:104D1300E565954BE564954A400EE5659549E5647F
:104D230095485004D2B48002C2B47885E670182046
:104D33008407AF65AE64125BD5208507AF65AE64AB
:104D4300125B26788576027882E6700712576578BB
:104D53008276087884E67018200109856599D20166
:104D63007601800AE564F599C2017884763BD2998D
:104D7300AE64AF65221257D6BF0106752C04024EEE
:104D8300D97881E66003024E6676101255A48E64CC
:104D93008F65E547B40124E508B4011FC3E56595B4
:104DA30032E564953140028047C3E5329565F56588
:104DB300E5319564F564E4F5088053E547B40106ED
:104DC300E50870028009E5477013E508B4010EE5B4
:104DD300322565F565E5313564F5648031E5477065
:104DE3002DE5087029C3E5659532E5649531400EDC
:104DF300E5659532F565E5649531F5648010C3E5A5
:104E0300329565F565E5319564F564750801D3E57B
:104E13002B9400E52A9419AC25AD26AE64AF65400A
:104E23000F123F37EF2565F565EE3564F564800EA7
:104E3300123F37C3E5659FF565E5649EF564AC6491
:104E4300AD65E4123E6B7BCD7ACC794C7840123D54
:104E5300C9123EA48E648F65E55EB4010674FFF546
:104E630064F5657880E67028AD65AC647F01121B3C
:104E7300F878807610D3E565954BE564954A400E46
:104E8300E5659549E56495485004D2B48002C2B4FF
:104E93007885E67018208407AF65AE64125BD52071
:104EA3008507AF65AE64125B26788576027882E665
:104EB3007007125765788276087884E670182001A7
:104EC30009856599D2017601800AE564F599C201E5
:104ED3007884763BD299AE64AF65221257D6BF0170
:104EE30006752C0402503B7881E66003024FC876B6
:104EF300101255A48E648F65E547B40124E508B408
:104F0300011FC3E565954DE564954C40028047C399
:104F1300E54D9565F565E54C9564F564E4F5088024
:104F230053E547B40106E50870028009E5477013AD
:104F3300E508B4010EE54D2565F565E54C3564F5E9
:104F4300648031E547702DE5087029C3E565954D0B
:104F5300E564954C400EE565954DF565E564954C26
:104F6300F5648010C3E54D9565F565E54C9564F5ED
:104F730064750801D3E54694E4E5459444AC3EAD3D
:104F83003FAE64AF65400F123F37EF2565F565EE21
:104F93003564F564800E123F37C3E5659FF565E51B
:104FA300649EF564E55EB4010674FFF564F565AFD0
:104FB30065AE64122FDD8E648F65E55A7007125457
:104FC300EB8E648F657880E67028AD65AC647F01F5
:104FD300121BF878807610D3E565954BE564954A06
:104FE300400EE5659549E56495485004D2B48002C6
:104FF300C2B47885E67018208407AF65AE64125B8F
:10500300D5208507AF65AE64125B26788576027876
:1050130082E67007125765788276087884E67018FE
:10502300200109856599D2017601800AE564F59925
:10503300C2017884763BD299AE64AF6522750901CB
:105043007D05AE53AF54FC123F257D0A123F378EC8
:105053004F8F50AF65AE64E54760030250F7E50834
:105063007065C3EF9529EE95284029EF9529FDEE4C
:105073009528FCC3ED9550EC954F4008ED9550FBFA
:10508300EC025111E5502529CDE54F3528CDC39FBD
:10509300FBED802FC3E5299FFDE5289EFCC3ED951D
:1050A30050EC954FE550400F2FFFE54F3EFEC3E513
:1050B300299FFBE528800C2529CDE54F3528CDC355
:1050C3009FFBED9E025169C3EF9529EE952840128F
:1050D300EF9529FDEE9528FCC3ED9550EC954F0215
:1050E300516DC3E5299FFDE5289EFCC3ED9550EC6A
:1050F300954F8076E5087025E5292FFBE5283EFAD4
:10510300C3EB9550EA954F400AEB9550FBEA954F58
:10511300FA8057C3E5509BFBE54F9A8049C3EF954F
:1051230029EE95284019EF9529FBEE9528FAC3EB54
:105133009550EA954FE5502BFBE54F3AFA802BC388
:10514300E5299FFBE5289EFAC3EB9550EA954F406E
:105153000DEB9550FBEA954FFAE4F508800CC3E597
:10516300509BFBE54F9AFA750801E5227C007D51BF
:10517300AF03AE02B4010C123F37C3EB9FFBEA9EB1
:10518300FA8009123F37EF2BFBEE3AFAE55EB401E2
:105193000474FFFAFBAF03AE02221256DCAD397F73
:1051A30012125C24E4FD7F13125C24E4FD7F1412CD
:1051B3005C24E4FDFC7F16125DD97D787C057F18A5
:1051C300125DD9E4FDFC7F1A125DD97D527C037F09
:1051D3001C125DD9E4FDFC7F1E125DD97D887C1312
:1051E3007F20125DD97D287C007F22125DD97DC886
:1051F3007C007F24125DD9E4FDFC7F26125DD97DFE
:10520300887C137F28125DD97D157F2A125C247D4B
:10521300017F2B125C247D017F2C125C247D047F93
:105223002D125C247D127F2E125C247D017F2F12B0
:105233005C247D017F30125C24E4FD7F32125C2408
:105243007D017C007F34125DD97D017C007F3612A5
:105253005DD97D017C007F38125DD97D017C007FA3
:105263003A125DD9E4FDFC7F3C125DD97D407C00A0
:105273007F40125DD90258A712519D125D347F12EF
:10528300125BFD8F397F13125BFD8F5A7F14125B04
:10529300FD8F307F16125CE38E288F297F18125CF6
:1052A300E38E5F8F607F1A125CE38E4C8F4D7F1C01
:1052B300125CE38E458F467F22125CE38E318F3280
:1052C3007F24125CE38E2A8F2B7F1E125CE38E3CBD
:1052D3008F3D7F20125CE38E358F367F26125CE391
:1052E3008E4A8F4B7F28125CE38E488F497F2A12A8
:1052F3005CE38F527F2B125BFD8F617F2C125BFD72
:105303008F5B7F2D125BFD8F517F2E125BFD8F5CB8
:105313007F2F125BFD8F5D7F30125BFD8F567F32D7
:10532300125BFD7543008F447F34125CE38E578F0D
:10533300587F36125CE38E3E8F3F7F38125CE38EDC
:105343002E8F2F7F3A125CE38E258F267F3C125CD3
:10535300E38E238F2422014200014E00015E0009E7
:1053630080101004023B02141E0201AB0301AA08C1
:10537300024F000002570000023E0000022E000010
:105383000225000002230000025300000152140111
:105393006101015B01015103015C12015D010156D1
:1053A30001015500013401013A00C102C101C103E9
:1053B300010800010900010A004B001500243038E0
:1053C300404C586878C8FA49000C002028303470E3
:1053D300A0C8FF4A004007080A1018203038404888
:1053E3004C000000102028303840606C80B4E1503D
:1053F3000020000A0E1314161B23262A343C4046B1
:10540300506A5000300A0D10121C20283437393BE3
:1054130040425A84FA48004A002C2E32363A3E4D16
:1054230000A9057D01AA7FED64017069C291FEC2E6
:1054330092C290E4FC125E99D292125E99C2920CCF
:10544300BC08F20EBE02E8E4FEC292C290E4FCEA9B
:1054530030E702D290125E99D292125E99C292C242
:1054630090EA25E0FA0CBC08E6EE7004AA7E801AE6
:10547300BE0104AA7D8013BE0204AA7C800CBE0375
:1054830004AA038005BE0402AA010EBE06BBD29184
:10549300125E99C291ED6402704DC295FEC294E40E
:1054A300FCEA30E702D293125E99D294125E99C25B
:1054B30094C293EA25E0FA0CBC08E6EE7004AA7ED7
:1054C300801ABE0104AA7D8013BE0204AA7C800C4C
:1054D300BE0304AA038005BE0402AA010EBE06BDD4
:1054E300D295125E99C295228E6C8F6DE509640187
:1054F300703BC3E56D9420E56C94004019E508709A
:105503000BE56D24E0FDE56C34FF8044E56D24205C
:10551300FDE4356C803AE5087009C37420956DFD90
:10552300E4803BE56D2420FDE4356C8058C3E56DD4
:105533009440E56C9401401AE508700BE56D24C0B6
:10554300FDE56C34FE8009E56D2440FDE56C340116
:105553008033E5087026C37440956DFD7401956C26
:10556300FCE4123E6B7B667A6679E6783F123DC9AE
:10557300123EA48E6E8F6F7508018020E56D244066
:10558300FDE56C3401FCE4123E6B7B667A6679E6DA
:10559300783F123DC9123EA48E6E8F6FAE6EAF6F11
:1055A30022125D4EEF600302564B532D03E52DC3CC
:1055B3009402404B750801E52D5403756D00F56E9B
:1055C300756E00F56DE521256EF56EE4356DF56DAF
:1055D300E56EAE6D7807C333CE33CED8F9F56E8E54
:1055E3006DE533C313F533256EF56EE4356DF56D57
:1055F300636EFF636DFFC3E56D94F040488041E443
:10560300F508E52D5403756D00F56E756E00F56DA7
:10561300E521256EF56EE4356DF56DE56EAE6D78BD
:1056230007C333CE33CED8F9F56E8E6DE533C3138E
:10563300F533256EF56EE4356DF56DC394F04005D5
:10564300755E018003E4F55EAE6DAF6E22787FE494
:10565300F6D8FD7581AB0256970249B8E493A3F8D7
:10566300E493A34003F68001F208DFF48029E49376
:10567300A3F85407240CC8C333C4540F4420C8836D
:105683004004F456800146F6DFE4800B010204086F
:1056930010204080905359E47E019360BCA3FF54D3
:1056A3003F30E509541FFEE493A360010ECF54C0BD
:1056B30025E060A840B8E493A3FAE493A3F8E49345
:1056C300A3C8C582C8CAC583CAF0A3C8C582C8CA4D
:1056D300C583CADFE9DEE780BE20801EE4F539F525
:1056E3002C754101208403754111208503754121E7
:1056F300E544640145437069806420811F75390165
:10570300752C0175410220840375411220850375B0
:105713004122E544640245437047804220821F755D
:105723003902752C027541042084037541142085C8
:1057330003754124E5446404454370258020208398
:1057430020753903752C03754108208403754118AE
:10575300208503754128E544640845437003754774
:105763000122E4FF125C69EF547FF5567F01125C5E
:10577300698F5D7F02125C698F5C7F03125C69EF46
:105783005407F5517F04125C698F5B7F05125C69D6
:105793008F617F06125C698F52E561540364017067
:1057A30031AD527F2A125C24AD617F2B125C24AD94
:1057B3005B7F2C125C24AD517F2D125C24AD5C7F8A
:1057C3002E125C24AD5D7F2F125C24AD567F301208
:1057D3005C242230B21030B30D30860A308707E4E0
:1057E300F54EF542805820B213E54E7009754E010F
:1057F300E54244018044E54254FE803E20B310E577
:105803004E7006E54244028024E54254FD802B207D
:105813008610E54E7006E54244048011E54254FBD0
:105823008018208719E54E700DE5424408F542F5CE
:1058330042754E018008E54254F7F542F542AF4206
:1058430022C0E0C0D075D000C000C007C28E7889E6
:10585300067880E66001167881E66001167889E6AD
:10586300FF540770087882E6600116D200EF640FD8
:1058730070217889F67884E66001167885E6600100
:10588300167886E66001167887E66001167888E662
:10589300600116758D0B758BDCD28ED007D000D0CE
:1058A300D0D0E0327F03125C698F517D407F0712B5
:1058B3005CA9E5514408FD7F03125CA9E55120E78B
:1058C30037AD527F06125CA9AD617F05125CA9ADAD
:1058D3005B7F04125CA9E5514408FD7F03125CA9B8
:1058E300AD5C7F02125CA9AD5D7F01125CA9E55638
:1058F3004480FDE4FF125CA922C2D5E830E70FB271
:10590300D5E4C39BFBE49AFAE499F9E498F8EC3004
:10591300E717B2D5125932123FECE4C39BFBE49A6A
:10592300FAE499F9E498F88003123FEC30D50DE4DA
:10593300C39FFFE49EFEE49DFDE49CFC22AE0712A0
:105943005DA3AF06AE07750B01E47811F6EE30E701
:1059530004D2A08002C2A0D2A1125EA0C2A1125E94
:10596300A0EE25E0FE781106E6C3940840DFD2A03E
:10597300D2A1125EA030A003E4F50BC2A1025EA087
:10598300AE07E47812F6D2A018F6D2A1125EA07880
:1059930012E6FF25E0F630A004E64401F6C2A112A8
:1059A3005EA0781106E6C3940840DFEE24FF92A0C0
:1059B300D2A1125EA0C2A1D2A0125EA07812E6FF0D
:1059C30022AE07750C01E47810F6EE30E704D2A29C
:1059D3008002C2A2D2A3125EA7C2A3125EA7EE25C3
:1059E300E0FE781006E6C3940840DFD2A2D2A312E9
:1059F3005EA730A203E4F50CC2A3025EA7E478110C
:105A0300F6D2A218F6D2A3125EA77811E6FF25E01C
:105A1300F630A204E64401F6C2A3125EA77810068C
:105A2300E6C3940840DFD2A2D2A3125EA7C2A3D2D8
:105A3300A2125EA77811E6FF22AE07750D01E47886
:105A430010F6EE30E704D2A28002C2A2D2A4125E04
:105A5300AEC2A4125EAEEE25E0FE781006E6C39455
:105A63000840DFD2A2D2A4125EAE30A203E4F50D49
:105A7300C2A4025EAEAE07750E01E47810F6EE30F6
:105A8300E704D2A28002C2A2D2A4125EB5C2A412BB
:105A93005EB5EE25E0FE781006E6C3940840DFD23B
:105AA300A2D2A4125EB530A203E4F50EC2A4025E34
:105AB300B5E47811F6D2A218F6D296125E5F781189
:105AC300E6FF25E0F630A204E64401F6C296125E34
:105AD3005F781006E6C3940840DFD2A2D296125E26
