:0A000000020F9402000632222222B1
:0F000B00021248121369900039E0FEA3E0FF22B1
:03001B000210755B
:1000230002134AAB07E490003EF0A3F0A3F0A3F061
:10003300A3F0A3F0A3F090003AA3A3E0FFA3E09002
:100043000045CFF0A3EFF0AF0390003EEFF0E49054
:10005300004AF0A3F0A3F0A3F0FBFD120D7890008B
:1000630045E0FEA3E0FFC3EE9400400302021790B5
:100073001587E49390003FF0C3EF94F6EE94FF509E
:100083002D901583E493900040F0A3F0A3F0901516
:1000930088E493900043F07C007D0A120E62747131
:1000A3002DF58274153CF583E493900044F0C390DE
:1000B3000046E0949C900045E094FF504A901583DD
:1000C300E493900040F0A3F0A3F0900045E0FAA37E
:1000D300E0FB7C007D0AFFAE02120E6274882FF5EE
:1000E3008274153EF583E493900043F07C007D0A0F
:1000F300AF03AE02120E6274712DF58274153CF5D6
:1001030083E493900044F0C3900046E09418900079
:1001130045E094FC5074901583E493900040F0A361
:10012300F0900045E0FAA3E0FB7C007D64FFAE02A3
:10013300120E6274712FF58274153EF583E4939069
:100143000042F07C007D64AF03AE02120E627E00BB
:100153007F0ACFCDCFCECCCE120E6274882FF5821C
:1001630074153EF583E493900043F0900045E0FE60
:10017300A3E0FF7C007D0A120E6274712DF5827478
:10018300153CF583E493900044F0901583E4939039
:100193000040F0900045E0FAA3E0FB7C037DE8FF1C
:1001A300AE02120E6274712FF58274153EF583E46C
:1001B30093900041F07C037DE8AF03AE02120E6220
:1001C3007E007F64CFCDCFCECCCE120E6274712F62
:1001D300F58274153EF583E493900042F090004558
:1001E300A3E07C007D64FFAE02120E627E007F0AF4
:1001F300CFCDCFCECCCE120E6274882FF58274157C
:100203003EF583E493900043F07C007D0AAF03AE98
:10021300020204A4901583E49390003FF0A3F0A39B
:10022300F0A3F0901588E493900043F0900045E02C
:10023300FAA3E0FB7C007D0AFFAE02120E6274712A
:100243002DF58274153CF583E493900044F0C3EBE1
:100253009464EA94005049901583E49390003FF02E
:10026300A3F0A3F0A3F0900045A3E07C007D0AFF78
:10027300AE02120E6274882FF58274153EF583E484
:1002830093900043F07C007D0AAF03AE02120E622E
:1002930074712DF58274153CF583E493900044F05A
:1002A300C3900046E094E8900045E09403507690B4
:1002B3001583E49390003FF0A3F0A3F0900045E092
:1002C300FAA3E0FB7C007D64FFAE02120E62747140
:1002D3002FF58274153EF583E493900042F07C0081
:1002E3007D64AF03AE02120E627E007F0ACFCDCFD4
:1002F300CECCCE120E6274882FF58274153EF58330
:10030300E493900043F0900045E0FEA3E0FF7C00FF
:100313007D0A120E6274712DF58274153CF583E427
:1003230093900044F0C3900046E09410900045E0A1
:10033300942740030203D6901583E49390003FF083
:10034300A3F0900045E0FAA3E0FB7C037DE8FFAE59
:1003530002120E6274712FF58274153EF583E493D5
:10036300900041F07C037DE8AF03AE02120E627E83
:10037300007F64CFCDCFCECCCE120E6274712FF539
:100383008274153EF583E493900042F0900045A3F8
:10039300E07C007D64FFAE02120E627E007F0ACF16
:1003A300CDCFCECCCE120E6274882FF58274153E5B
:1003B300F583E493900043F07C007D0AAF03AE0223
:1003C300120E6274712DF58274153CF583E49390DB
:1003D3000044F0900045E0FEA3E0FFE4FCFD7BA0B9
:1003E3007A867901F8D3120EB750030204B7901539
:1003F30083E49390003FF0900045E0FAA3E0FB7C98
:10040300277D10FFAE02120E6274712FF5827415F0
:100413003EF583E493900040F07C277D10AF03AE5C
:1004230002120E627E037FE8CFCDCFCECCCE120E6A
:100433006274712FF58274153EF583E49390004145
:10044300F0900045A3E07C037DE8FFAE02120E624C
:100453007E007F64CFCDCFCECCCE120E6274712FCF
:10046300F58274153EF583E493900042F07C007DA1
:1004730064AF03AE02120E627E007F0ACFCDCFCEF1
:10048300CCCE120E6274882FF58274153EF583E488
:1004930093900043F0900045E0FEA3E0FF7C007DD5
:1004A3000A120E6274712DF58274153CF583E49380
:1004B300900044F090003EE0FF900044E0FD900087
:1004C30043E0FB900042E090004AF0900041E0904E
:1004D300004BF0900040E090004CF090003FE09023
:1004E300004DF0020D78900045ECF0A3EDF0EF70B5
:1004F3006D900045E0FCA3E0FD4C702E90158293B7
:1005030090003FF0901572E493900040F0901583B3
:10051300E493900041F0A3F090157DE493900043A1
:10052300F0901583E493900044F0ED64014C600374
:100533000209549015829390003FF0901572E49352
:10054300900040F0901583E493900041F0A3F09065
:100553001580E493900043F090158302094EEFB4A5
:100563000112901582E49390003FF0901573E49389
:10057300900040F0EFB40212901582E49390003F94
:10058300F0901573E493900040F0EFB403129015CC
:1005930082E49390003FF0901573E493900040F051
:1005A300EFB40412901582E49390003FF09015731A
:1005B300E493900040F0EFB40512901582E4939019
:1005C300003FF0901573E493900040F0EFB40612EF
:1005D300901582E49390003FF0901573E49390009C
:1005E30040F0EFB40712901582E49390003FF0902F
:1005F3001573E493900040F0EFB40812901582E471
:100603009390003FF0901573E493900040F0EFB4A3
:100613000912901582E49390003FF0901573E493D0
:10062300900040F0EFB40A12901582E49390003FDB
:10063300F0901573E493900040F0EFB40B12901513
:1006430082E49390003FF0901573E493900040F0A0
:10065300EFB40C12901582E49390003FF090157361
:10066300E493900040F0EFB40D12901582E4939060
:10067300003FF0901573E493900040F0EFB40E1236
:10068300901582E49390003FF0901573E4939000EB
:1006930040F0EFB40F12901582E49390003FF09076
:1006A3001573E493900040F0EFB41012901582E4B8
:1006B3009390003FF0901573E493900040F0EFB4F3
:1006C3001112901582E49390003FF0901573E49318
:1006D300900040F0901583E493900041F0A3F090D4
:1006E3001588E493900043F0900045E0FAA3E0FB03
:1006F3007C007D0AFFAE02120E6274712DF58274C6
:10070300153CF583E493900044F0C3EB9464EA94BE
:10071300005045901583E493900041F0A3F09000BE
:1007230045A3E07C007D0AFFAE02120E6274882F9F
:10073300F58274153EF583E493900043F07C007DCD
:100743000AAF03AE02120E6274712DF58274153C6A
:10075300F583E493900044F0C3900046E094E8905E
:100763000045E094035072901583E493900041F0A8
:10077300900045E0FAA3E0FB7C007D64FFAE02122B
:100783000E6274712FF58274153EF583E493900025
:1007930042F07C007D64AF03AE02120E627E007FE6
:1007A3000ACFCDCFCECCCE120E6274882FF58274D1
:1007B300153EF583E493900043F0900045E0FEA3DB
:1007C300E0FF7C007D0A120E6274712DF5827415B0
:1007D3003CF583E493900044F0C3900046E094100A
:1007E300900045E09427400302087CE0FAA3E0FB75
:1007F3007C037DE8FFAE02120E6274712FF58274E2
:10080300153EF583E493900041F07C037DE8AF034C
:10081300AE02120E627E007F64CFCDCFCECCCE125D
:100823000E6274712FF58274153EF583E493900084
:1008330042F0900045A3E07C007D64FFAE02120EFF
:10084300627E007F0ACFCDCFCECCCE120E627488EB
:100853002FF58274153EF583E493900043F07C00FA
:100863007D0AAF03AE02120E6274712DF582741508
:100873003CF583E493900044F0900045E0FEA3E050
:10088300FFE4FCFD7BA07A867901F8D3120EB75002
:1008930003020954900045E0FAA3E0FB7C277D1096
:1008A300FFAE02120E6274712FF58274153EF5834A
:1008B300E493900040F07C277D10AF03AE02120E4C
:1008C300627E037FE8CFCDCFCECCCE120E627471A1
:1008D3002FF58274153EF583E493900041F0900068
:1008E30045A3E07C037DE8FFAE02120E627E007F2B
:1008F30064CFCDCFCECCCE120E6274712FF582743D
:10090300153EF583E493900042F07C007D64AF03D1
:10091300AE02120E627E007F0ACFCDCFCECCCE12B6
:100923000E6274882FF58274153EF583E49390006C
:1009330043F0900045E0FEA3E0FF7C007D0A120E29
:100943006274712DF58274153CF583E49390004431
:10095300F0900044E0FD900043E0FB900042E09003
:10096300004AF0900041E090004BF0900040E0908E
:10097300004CF090003FE090004DF0E4FF020D7852
:1009830012132A121309121020120009121438121A
:10099300140A1215491212791213A6D2AF120007C4
:1009A300E4FF121460E4900011F0C2A8FF1212C514
:1009B300EF644E70227F011212C5BF451A7F0212E7
:1009C30012C5BF57127F031212C5BF5A0A7F041202
:1009D30012C5EF64A560267D4EE4FF1213887D45A2
:1009E3007F011213887D577F021213887D5A7F037C
:1009F3001213887DA57F04121388120EFE120008BD
:100A0300E580541F900010F07F121212C590002C45
:100A1300EFF07F131212C5900010EFF07F14121144
:100A23009A121190900033EEF0A3EFF07F18121199
:100A33009A900027EEF0A3EFF07F1A12119A90001C
:100A43001BEEF0A3EFF07F1C12119A90000CEEF056
:100A5300A3EFF07F1E12119A900004EEF0A3EFF0C3
:100A63007F2012119A900012EEF0A3EFF07F221272
:100A7300119A90000EEEF0A3EFF07F2412119A90DA
:100A83000025EEF0A3EFF07F2612119A900022EEDC
:100A9300F0A3EFF07F2812119A90002AEEF0A3EF53
:100AA300F07F2A12119A900035EEF0A3EFF07F2C1D
:100AB30012119A90002DEEF0A3EFF07F2E12119AEF
:100AC30090002FEEF0A3EFF07F3012119A900031D7
:100AD300EEF0A3EFF07F3212119A900017EEF0A31D
:100AE300EFF09000297401F090002CE030E02190A9
:100AF300000AE0FEA3E0FF7C007D09120E507D0595
:100B0300120E62EF2420FFE43E90000AF0A3EFF000
:100B13007F131212C5900010EFF0900010E01460E4
:100B23001514601714601914601B14601D240570DC
:100B3300E9120B5280E412000E80DF1213C080DA38
:100B43001213D980D51211D080D0120C9780CB12FA
:100B53001369900039EEF0A3EFF0900010E0701FDE
:100B6300900002E0FEA3E0FFC390003AE09FFF90F5
:100B73000039E09EFEF0A3EFF0121484020C86907D
:100B83000010E0B4011F900002E0FEA3E0FFC39059
:100B9300003AE09FFF900039E09EFEF0A3EFF012D1
:100BA3001495020C86900010E0B4021F900002E03E
:100BB300FEA3E0FFC390003AE09FFF900039E09E60
:100BC300FEF0A3EFF01214A6020C86900010E0B41E
:100BD300031F900002E0FEA3E0FFC390003AE09FF2
:100BE300FF900039E09EFEF0A3EFF01214B7020C61
:100BF30086900010E0B4041E900002E0FEA3E0FF24
:100C0300C390003AE09FFF900039E09EFEF0A3EF0F
:100C1300F01214C8806D900010E0B4051E9000021D
:100C2300E0FEA3E0FFC390003AE09FFF900039E0AD
:100C33009EFEF0A3EFF01214D98048900010E0B4A8
:100C4300061E900002E0FEA3E0FFC390003AE09F7F
:100C5300FF900039E09EFEF0A3EFF01214EA802328
:100C6300900010E0B40724900002E0FEA3E0FFC36D
:100C730090003AE09FFF900039E09EFEF0A3EFF072
:100C83001214FB90003BEEF0A3EFF090003BE0FE6C
:100C9300A3E0FF22120EFE1200087F121212C5906B
:100CA300002CEFF07F131212C5900010EFF07F14A9
:100CB30012119A121190900033EEF0A3EFF07F1807
:100CC30012119A900027EEF0A3EFF07F1A12119AF7
:100CD30090001BEEF0A3EFF07F1C12119A90000C12
:100CE300EEF0A3EFF07F1E12119A900004EEF0A332
:100CF300EFF07F2012119A900012EEF0A3EFF07F35
:100D03002212119A90000EEEF0A3EFF07F2412113D
:100D13009A900025EEF0A3EFF07F2612119A90002F
:100D230022EEF0A3EFF07F2812119A90002AEEF042
:100D3300A3EFF07F2A12119A900035EEF0A3EFF0A3
:100D43007F2C12119A90002DEEF0A3EFF07F2E125C
:100D5300119A90002FEEF0A3EFF07F3012119A90CA
:100D63000031EEF0A3EFF07F3212119A900017EEEC
:100D7300F0A3EFF0227C06A90790004DE0FAE9709A
:100D830048EC60457E08C290EE6016EA30E702D276
:100D930091121552D290121552C290C291EA25E0D7
:100DA300FA1CECB4050590004CE0FAECB404059091
:100DB300004BE0FAECB4030590004AE0FAECB4020D
:100DC30002AA03ECB40102AA05E964017048EC60CD
:100DD300457E08C292EE6016EA30E702D2931215FE
:100DE30052D292121552C292C293EA25E0FA1CEC37
:100DF300B4050590004CE0FAECB4040590004BE018
:100E0300FAECB4030590004AE0FAECB40202AA0338
:100E1300ECB40102AA05E964027031EC602E7E088D
:100E2300C294EE6012EA30E702D295121552D294C0
:100E3300121552C294C2951CECB40500ECB4040024
:100E4300ECB40300ECB40200ECB4010022EF8DF02B
:100E5300A4A8F0CF8CF0A428CE8DF0A42EFE22BC43
:100E6300000BBE0029EF8DF084FFADF022E4CCF837
:100E730075F008EF2FFFEE33FEEC33FCEE9DEC989C
:100E83004005FCEE9DFE0FD5F0E9E4CEFD22EDF822
:100E9300F5F0EE8420D21CFEADF075F008EF2FFFC5
:100EA300ED33FD4007985006D5F0F222C398FD0FAD
:100EB300D5F0EA22EB9FF5F0EA9E42F0E99D42F07D
:100EC300EC6480C864809845F022A8828583F0D0C2
:100ED30083D082120EE4120EE4120EE4120EE4E446
:100EE30073E493A3C583C5F0C583C8C582C8F0A3C3
:100EF300C583C5F0C583C8C582C822E5A0541F9029
:100F03000039F0E4FD7F12121388E4FD7F131213FE
:100F1300887F141212A07F161212A0E4FDFC7F1822
:100F23001212A3E4FDFC7F1A1212A3E4FDFC7F1C42
:100F33001212A3E4FDFC7F1E1212A3E4FDFC7F202A
:100F43001212A3E4FDFC7F221212A3E4FDFC7F2412
:100F53001212A37D887C137F261212A37DDE7C07E9
:100F63007F281212A37D017C007F2A1212A37D0128
:100F73007C007F2C1212A37D0C7C007F2E1212A307
:100F8300E4FDFC7F301212A37D3C7C007F32021211
:100F9300A3787FE4F6D8FD758121020FDB02098374
:100FA300E493A3F8E493A34003F68001F208DFF48B
:100FB3008029E493A3F85407240CC8C333C4540F03
:100FC3004420C8834004F456800146F6DFE4800BD6
:100FD3000102040810204080901421E47E019360F4
:100FE300BCA3FF543F30E509541FFEE493A3600103
:100FF3000ECF54C025E060A840B8E493A3FAE4936D
:10100300A3F8E493A3C8C582C8CAC583CAF0A3C81A
:10101300C582C8CAC583CADFE9DEE780BEC291C202
:1010230090C293C292C295C29412155212155212D3
:101033001552121552E4FFFE0FBF00010EE4B5076F
:10104300F7EEB401F390003A120ECD000000007FDA
:101053000112002690003A120ECD000000007F021C
:1010630012002690003A120ECD000000007F03020A
:101073000026C0E0C0D075D000C000C007C28E7883
:1010830010067808E66001167810E6FF5407700230
:10109300D200EF6410701B7810F67809E660011631
:1010A300780AE6600116780BE6600116780CE660B4
:1010B3000116758D0B758BDCD28ED007D000D0D086
:1010C300D0E032AE07121472AF06AE0790004F7431
:1010D30001F0E47814F6EE30E704D2A78002C2A749
:1010E300D2A6121562C2A6121562EE25E0FE78148E
:1010F30006E6C3940840DFD2A7D2A612156230A732
:1011030005E490004FF0C2A6021562AE0790004EB0
:101113007401F0E47812F6EE30E704D2A58002C23F
:10112300A5D2A412155AC2A412155AEE25E0FE78D0
:101133001206E6C3940840DFD2A5D2A412155A3092
:10114300A505E490004EF0C2A402155AAE07E47858
:1011530015F6D2A718F6D2A61215627815E6FF2562
:10116300E0F630A704E64401F6C2A612156278142D
:1011730006E6C3940840DFEE24FF92A7D2A6121519
:1011830062C2A6D2A71215627815E6FF229000026A
:10119300EEF0A3EFF07F16900039EFF004FF121288
:1011A300C590003AE4F0A3EFF0E0F8E4F0E8900033
:1011B3003AF0900039E0FF1212C590003BE02FF0A7
:1011C30090003AE03400F0E0FEA3E0FF22E4900058
:1011D30039F0A3F0A3F0A3F0A3F0A3F07F0112155D
:1011E3003FE4FDFCFF1204E97F121212C5900000D8
:1011F300EFF0FD7C00E4FF1204E9E4FEEE70E2127E
:10120300156A90003DEFF080F3E47813F6D2A51849
:10121300F6D2A412155A7813E6FF25E0F630A5049A
:10122300E64401F6C2A412155A781206E6C39408DE
:1012330040DFD2A5D2A412155AC2A4D2A512155AC0
:101243007813E6FF22C0E0C083C082C0D075D0000F
:10125300C000C28C781106E654077007900037A3CC
:10126300E0F599758C0B758ADCD28CD000D0D0D088
:1012730082D083D0E032D2A6D2A7D2A7D2A71215AA
:1012830062121562121562121562C2A7E4FFFE0F05
:10129300BF00010EE4B507F7EEB401F322E4FDFC51
:1012A30090003AEFF0A3ECF0A3EDF090003AE0FFEA
:1012B30004F012138890003BE0FD90003AE0FF0237
:1012C3001388AD0712150C7FA012110EAF05121172
:1012D3000E12144C7FA112110E12120CAE0712152E
:1012E3001BAF0622A9051210C6E4FF12114FEF7DB2
:1012F30000FC7F0112114FEFFDAF011210CD12154B
:1013030035AE04AF0522D2A412155A12155A12157E
:101313005A12155AC2A5E4FFFE0FBF00010EE4B531
:1013230007F7EEB401F3227593FFE4F594F5917595
:1013330092FFF5957596FF75B1FF75B2FF7580FF46
:10134300F590F5A0F5B022C0E0C083C082309902C9
:10135300C29930980AC298900016E599F0D208D045
:1013630082D083D0E032E47812F608F61212797D47
:101373008C7F9012152A7D8C7F911212E77812E6EA
:10138300FE08E6FF22AC0712150C7FA012110EAF68
:101393000412110EAF0512110E12151B7F647E008D
:1013A3000213F243985053C8F043C83075CDFF750C
:1013B300CCDC75CBFF75CADCD2ACD2CA221213695E
:1013C300900012E0FCA3E0FDC3EF9DFFEE9C9000B4
:1013D30039F0A3EFF02212136990000CE0FCA3E0B4
:1013E300FDC3EF9DFFEE9C900039F0A3EFF022D3F5
:1013F300EF9400EE9400400EE4FD0DEDB4FFFBEF1F
:101403001F70EC1E80E922C28E758911758D0B75D4
:101413008BDCE47811F6121279D2ABD28E22080853
:10142300000000000000000041001100C108C101DC
:10143300C109C10700C28C758911758C0B758ADCD3
:10144300E47810F6D2A9D28C22D2A512155AD2A4CE
:1014530012155AC2A512155AC2A402155AEFAFA00B
:101463006005EF44208003EF54DFF5A0F5A022D2FE
:10147300A7121562D2A6121562C2A7121562C2A6DE
:101483002290003DEEF0A3EFF090003FE0FEA3E0DA
:10149300FF2290003DEEF0A3EFF090003FE0FEA3AB
:1014A300E0FF2290003DEEF0A3EFF090003FE0FE5E
:1014B300A3E0FF2290003DEEF0A3EFF090003FE0A9
:1014C300FEA3E0FF2290003DEEF0A3EFF090003F7B
:1014D300E0FEA3E0FF2290003DEEF0A3EFF09000CA
:1014E3003FE0FEA3E0FF2290003DEEF0A3EFF0907B
:1014F300003FE0FEA3E0FF2290003DEEF0A3EFF0FB
:1015030090003FE0FEA3E0FF22D2A512155AC2A528
:1015130012155AC2A402155AC2A512155AD2A41200
:10152300155AD2A502155A1210C6AF051210CD02D4
:101533001535D2A6121562D2A7021562EFB40103C4
:10154300D2B422C2B422D2B2C289D288D2A822E4AF
:10155300FF0FEFB412FB22E4FF0FEFB412FB22E400
:10156300FF0FEFB412FB22E4FF90003FF022FC6078
:10157300DAF266B6BEE4FEF6EE3E9C7A9E8E6ECE40
:1015830000EC1C027CFD61DBF367B7BFE5FFF7EFFF
:0C1593003F9D7B9F8F6FCF01ED1D037DFE
:00000001FF
