:10000000020E480200063222222222020F7AD2A6D3
:0E001000121366D2A7021366222222020F29C3
:1000230002123CAB07E490003CF0A3F0A3F0A3F072
:10003300A3F0A3F0A3F0900038A3A3E0FFA3E09004
:100043000043CFF0A3EFF0AF0390003CEFF0E49058
:100053000048F0A3F0A3F0A3F0FBFD120B529000B5
:1000630043E0FEA3E0FFC3EE9400400302021790B7
:10007300138AE49390003DF0C3EF94F6EE94FF509F
:100083002D901386E49390003EF0A3F0A3F0901319
:100093008BE493900041F07C007D0A120D1374747D
:1000A3002DF58274133CF583E493900042F0C390E2
:1000B3000044E0949C900043E094FF504A901386E0
:1000C300E49390003EF0A3F0A3F0900043E0FAA382
:1000D300E0FB7C007D0AFFAE02120D13748B2FF53B
:1000E3008274133EF583E493900041F07C007D0A13
:1000F300AF03AE02120D1374742DF58274133CF525
:1001030083E493900042F0C3900044E0941890007D
:1001130043E094FC5074901386E49390003EF0A364
:10012300F0900043E0FAA3E0FB7C007D64FFAE02A5
:10013300120D1374742FF58274133EF583E49390B8
:100143000040F07C007D64AF03AE02120D137E000D
:100153007F0ACFCDCFCECCCE120D13748B2FF58269
:1001630074133EF583E493900041F0900043E0FE66
:10017300A3E0FF7C007D0A120D1374742DF58274C5
:10018300133CF583E493900042F0901386E493903C
:10019300003EF0900043E0FAA3E0FB7C037DE8FF20
:1001A300AE02120D1374742FF58274133EF583E4BB
:1001B3009390003FF07C037DE8AF03AE02120D1372
:1001C3007E007F64CFCDCFCECCCE120D1374742FAF
:1001D300F58274133EF583E493900040F09000435E
:1001E300A3E07C007D64FFAE02120D137E007F0A44
:1001F300CFCDCFCECCCE120D13748B2FF5827413CB
:100203003EF583E493900041F07C007D0AAF03AE9A
:10021300020204A4901386E49390003DF0A3F0A39C
:10022300F0A3F090138BE493900041F0900043E02F
:10023300FAA3E0FB7C007D0AFFAE02120D13747477
:100243002DF58274133CF583E493900042F0C3EBE5
:100253009464EA94005049901386E49390003DF02F
:10026300A3F0A3F0A3F0900043A3E07C007D0AFF7A
:10027300AE02120D13748B2FF58274133EF583E4D3
:1002830093900041F07C007D0AAF03AE02120D1380
:1002930074742DF58274133CF583E493900042F05B
:1002A300C3900044E094E8900043E09403507690B8
:1002B3001386E49390003DF0A3F0A3F0900043E095
:1002C300FAA3E0FB7C007D64FFAE02120D1374748D
:1002D3002FF58274133EF583E493900040F07C0085
:1002E3007D64AF03AE02120D137E007F0ACFCDCF24
:1002F300CECCCE120D13748B2FF58274133EF5837F
:10030300E493900041F0900043E0FEA3E0FF7C0003
:100313007D0A120D1374742DF58274133CF583E476
:1003230093900042F0C3900044E09410900043E0A7
:10033300942740030203D6901386E49390003DF084
:10034300A3F0900043E0FAA3E0FB7C037DE8FFAE5B
:1003530002120D1374742FF58274133EF583E49324
:1003630090003FF07C037DE8AF03AE02120D137ED5
:10037300007F64CFCDCFCECCCE120D1374742FF586
:100383008274133EF583E493900040F0900043A3FE
:10039300E07C007D64FFAE02120D137E007F0ACF66
:1003A300CDCFCECCCE120D13748B2FF58274133EAA
:1003B300F583E493900041F07C007D0AAF03AE0225
:1003C300120D1374742DF58274133CF583E493902A
:1003D3000042F0900043E0FEA3E0FFE4FCFD7BA0BD
:1003E3007A867901F8D3120D6850030204B790138B
:1003F30086E49390003DF0900043E0FAA3E0FB7C99
:10040300277D10FFAE02120D1374742FF58274133F
:100413003EF583E49390003EF07C277D10AF03AE5E
:1004230002120D137E037FE8CFCDCFCECCCE120DBB
:100433001374742FF58274133EF583E49390003F95
:10044300F0900043A3E07C037DE8FFAE02120D139E
:100453007E007F64CFCDCFCECCCE120D1374742F1C
:10046300F58274133EF583E493900040F07C007DA5
:1004730064AF03AE02120D137E007F0ACFCDCFCE41
:10048300CCCE120D13748B2FF58274133EF583E4D7
:1004930093900041F0900043E0FEA3E0FF7C007DD9
:1004A3000A120D1374742DF58274133CF583E493CF
:1004B300900042F090003CE0FF900042E0FD90008D
:1004C30041E0FB900040E0900048F090003FE09056
:1004D3000049F090003EE090004AF090003DE0902B
:1004E300004BF0020B52900043ECF0A3EDF0EF70E1
:1004F3006D900043E0FCA3E0FD4C702E90138593B8
:1005030090003DF0901375E49390003EF0901386B5
:10051300E49390003FF0A3F0901380E493900041A4
:10052300F0901386E493900042F0ED64014C600375
:100533000209549013859390003DF0901375E49352
:1005430090003EF0901386E49390003FF0A3F09068
:100553001383E493900041F090138602094EEFB4A5
:100563000112901385E49390003DF0901376E49389
:1005730090003EF0EFB40212901385E49390003D97
:10058300F0901376E49390003EF0EFB403129013CF
:1005930085E49390003DF0901376E49390003EF051
:1005A300EFB40412901385E49390003DF09013761A
:1005B300E49390003EF0EFB40512901385E493901A
:1005C300003DF0901376E49390003EF0EFB40612F2
:1005D300901385E49390003DF0901376E49390009C
:1005E3003EF0EFB40712901385E49390003DF09032
:1005F3001376E49390003EF0EFB40812901385E471
:100603009390003DF0901376E49390003EF0EFB4A6
:100613000912901385E49390003DF0901376E493D0
:1006230090003EF0EFB40A12901385E49390003DDE
:10063300F0901376E49390003EF0EFB40B12901316
:1006430085E49390003DF0901376E49390003EF0A0
:10065300EFB40C12901385E49390003DF090137661
:10066300E49390003EF0EFB40D12901385E4939061
:10067300003DF0901376E49390003EF0EFB40E1239
:10068300901385E49390003DF0901376E4939000EB
:100693003EF0EFB40F12901385E49390003DF09079
:1006A3001376E49390003EF0EFB41012901385E4B8
:1006B3009390003DF0901376E49390003EF0EFB4F6
:1006C3001112901385E49390003DF0901376E49318
:1006D30090003EF0901386E49390003FF0A3F090D7
:1006E300138BE493900041F0900043E0FAA3E0FB06
:1006F3007C007D0AFFAE02120D1374742DF5827413
:10070300133CF583E493900042F0C3EB9464EA94C2
:10071300005045901386E49390003FF0A3F09000BF
:1007230043A3E07C007D0AFFAE02120D13748B2FEE
:10073300F58274133EF583E493900041F07C007DD1
:100743000AAF03AE02120D1374742DF58274133CB9
:10075300F583E493900042F0C3900044E094E89062
:100763000043E094035072901386E49390003FF0AB
:10077300900043E0FAA3E0FB7C007D64FFAE02122D
:100783000D1374742FF58274133EF583E493900074
:1007930040F07C007D64AF03AE02120D137E007F38
:1007A3000ACFCDCFCECCCE120D13748B2FF582741E
:1007B300133EF583E493900041F0900043E0FEA3E1
:1007C300E0FF7C007D0A120D1374742DF5827413FF
:1007D3003CF583E493900042F0C3900044E094100E
:1007E300900043E09427400302087CE0FAA3E0FB77
:1007F3007C037DE8FFAE02120D1374742FF582742F
:10080300133EF583E49390003FF07C037DE8AF0350
:10081300AE02120D137E007F64CFCDCFCECCCE12AD
:100823000D1374742FF58274133EF583E4939000D3
:1008330040F0900043A3E07C007D64FFAE02120D04
:10084300137E007F0ACFCDCFCECCCE120D13748B87
:100853002FF58274133EF583E493900041F07C00FE
:100863007D0AAF03AE02120D1374742DF582741357
:100873003CF583E493900042F0900043E0FEA3E054
:10088300FFE4FCFD7BA07A867901F8D3120D685052
:1008930003020954900043E0FAA3E0FB7C277D1098
:1008A300FFAE02120D1374742FF58274133EF58399
:1008B300E49390003EF07C277D10AF03AE02120D4F
:1008C300137E037FE8CFCDCFCECCCE120D1374743D
:1008D3002FF58274133EF583E49390003FF090006C
:1008E30043A3E07C037DE8FFAE02120D137E007F7D
:1008F30064CFCDCFCECCCE120D1374742FF582748A
:10090300133EF583E493900040F07C007D64AF03D5
:10091300AE02120D137E007F0ACFCDCFCECCCE1206
:100923000D13748B2FF58274133EF583E4939000BB
:1009330041F0900043E0FEA3E0FF7C007D0A120D2E
:100943001374742DF58274133CF583E49390004281
:10095300F0900042E0FD900041E0FB900040E09009
:100963000048F090003FE0900049F090003EE09096
:10097300004AF090003DE090004BF0E4FF020B5280
:1009830012121C1211FB120ED412001A1212D912D7
:1009930012AB12134D121142121279D2AF12000789
:1009A300E4FF121301E4900011F0C2A8FF1211D961
:1009B300EF644E70227F011211D9BF451A7F0212D4
:1009C30011D9BF57127F031211D9BF5A0A7F0412DC
:1009D30011D9EF64A560267D4EE4FF12125B7D45BD
:1009E3007F0112125B7D577F0212125B7D5A7F03D8
:1009F30012125B7DA57F0412125B120DAF12001958
:100A0300E580541F900010F07F121211D990002C32
:100A1300EFF07F131211D9900010EFF07F14121032
:100A23009412108A900033EEF0A3EFF07F181210A7
:100A330094900027EEF0A3EFF07F1A121094900029
:100A43001BEEF0A3EFF07F1C12109490000CEEF05D
:100A5300A3EFF07F1E121094900004EEF0A3EFF0CA
:100A63007F20121094900012EEF0A3EFF07F221279
:100A7300109490000EEEF0A3EFF07F2412109490E8
:100A83000025EEF0A3EFF07F26121094900022EEE3
:100A9300F0A3EFF07F2812109490002AEEF0A3EF5A
:100AA300F07F2A121094900035EEF0A3EFF07F2C24
:100AB30012109490002DEEF0A3EFF07F2E121094FD
:100AC30090002FEEF0A3EFF07F30121094900031DE
:100AD300EEF0A3EFF07F32121094900017EEF0A324
:100AE300EFF09000297401F090002CE030E02190A9
:100AF300000AE0FEA3E0FF7C007D09120D017D05E5
:100B0300120D13EF2420FFE43E90000AF0A3EFF050
:100B13007F131211D9900010EFF0900010E01460D1
:100B23001514601714601914601B14601D240570DC
:100B3300E912001880E412000A80DF12000980DA4B
:100B430012000880D51210CA80D0120C2A80CB7CE8
:100B530006A90790004BE0FAE97048EC60457E086F
:100B6300C290EE6016EA30E702D291121356D29089
:100B7300121356C290C291EA25E0FA1CECB40505A3
:100B830090004AE0FAECB40405900049E0FAECB4B2
:100B93000305900048E0FAECB40202AA03ECB401A6
:100BA30002AA05E964017048EC60457E08C292EE32
:100BB3006016EA30E702D293121356D292121356FA
:100BC300C292C293EA25E0FA1CECB4050590004AF0
:100BD300E0FAECB40405900049E0FAECB4030590A4
:100BE3000048E0FAECB40202AA03ECB40102AA053D
:100BF300E964027031EC602E7E08C294EE6012EA62
:100C030030E702D295121356D294121356C294C2ED
:100C1300951CECB40500ECB40400ECB40300ECB494
:100C23000200ECB4010022120DAF1200197F121260
:100C330011D990002CEFF07F1412109412108A90A7
:100C43000033EEF0A3EFF07F18121094900027EE1C
:100C5300F0A3EFF07F1A12109490001BEEF0A3EFB5
:100C6300F07F1C12109490000CEEF0A3EFF07F1EA7
:100C7300121094900004EEF0A3EFF07F2012109472
:100C8300900012EEF0A3EFF07F2212109490000E6A
:100C9300EEF0A3EFF07F24121094900025EEF0A362
:100CA300EFF07F26121094900022EEF0A3EFF07F76
:100CB3002812109490002AEEF0A3EFF07F2A12106E
:100CC30094900035EEF0A3EFF07F2C121094900077
:100CD3002DEEF0A3EFF07F2E12109490002FEEF084
:100CE300A3EFF07F30121094900031EEF0A3EFF0F9
:100CF3007F32121094900017EEF0A3EFF022EF8DE5
:100D0300F0A4A8F0CF8CF0A428CE8DF0A42EFE2260
:100D1300BC000BBE0029EF8DF084FFADF022E4CCC4
:100D2300F875F008EF2FFFEE33FEEC33FCEE9DEC8D
:100D3300984005FCEE9DFE0FD5F0E9E4CEFD22EDD3
:100D4300F8F5F0EE8420D21CFEADF075F008EF2F1D
:100D5300FFED33FD4007985006D5F0F222C398FD0E
:100D63000FD5F0EA22EB9FF5F0EA9E42F0E99D42AF
:100D7300F0EC6480C864809845F022A8828583F0F3
:100D8300D083D082120D95120D95120D95120D95EB
:100D9300E473E493A3C583C5F0C583C8C582C8F0D3
:100DA300A3C583C5F0C583C8C582C822E5A0541F67
:100DB300900037F0E4FD7F1212125B900037E0FDE4
:100DC3007F1312125B7F1412118F7F1612118FE49F
:100DD300FDFC7F18121192E4FDFC7F1A121192E4BC
:100DE300FDFC7F1C121192E4FDFC7F1E121192E4A4
:100DF300FDFC7F20121192E4FDFC7F22121192E48C
:100E0300FDFC7F241211927D887C137F26121192A0
:100E13007DDE7C077F281211927D017C007F2A12E0
:100E230011927D017C007F2C1211927D0C7C007F3E
:100E33002E121192E4FDFC7F301211927D3C7C0056
:100E43007F32021192787FE4F6D8FD758121020E7C
:100E53008F020983E493A3F8E493A34003F680018C
:100E6300F208DFF48029E493A3F85407240CC8C3E1
:100E730033C4540F4420C8834004F456800146F61B
:100E8300DFE4800B01020408102040809012C2E4CA
:100E93007E019360BCA3FF543F30E509541FFEE479
:100EA30093A360010ECF54C025E060A840B8E4933B
:100EB300A3FAE493A3F8E493A3C8C582C8CAC5837D
:100EC300CAF0A3C8C582C8CAC583CADFE9DEE78002
:100ED300BEC291C290C293C292C295C294121356DB
:100EE300121356121356121356E4FFFE0FBF0001DE
:100EF3000EE4B507F7EEB401F3900038120D7E004F
:100F03000000007F01120026900038120D7E0000C1
:100F130000007F02120026900038120D7E000000B0
:100F2300007F03020026C0E0C0D075D000C000C01F
:100F330007C28E7810067808E66001167810E6FF7F
:100F430054077002D200EF6410701B7810F6780912
:100F5300E6600116780AE6600116780BE660011672
:100F6300780CE6600116758D0B758BDCD28ED0077D
:100F7300D000D0D0D0E032C0E0C0F0C083C082C087
:100F8300D075D000C000C001C002C003C004C005BA
:100F9300C006C007C28C781106E65407700312110D
:100FA30069758C0B758ADCD28CD007D006D005D03E
:100FB30004D003D002D001D000D0D0D082D083D0CF
:100FC300F0D0E032AE0790004C7401F0E47815F6EF
:100FD300EE30E704D2A58002C2A5D2A412135EC2EA
:100FE300A412135EEE25E0FE781506E6C3940840CE
:100FF300DFD2A5D2A412135E30A505E490004CF015
:10100300C2A402135EAE0790004D7401F0E478139E
:10101300F6EE30E704D2A78002C2A7D2A612136667
:10102300C2A6121366EE25E0FE781306E6C3940803
:1010330040DFD2A7D2A612136630A705E490004D75
:10104300F0C2A6021366AE07E47814F6D2A718F628
:10105300D2A61213667814E6FF25E0F630A704E65D
:101063004401F6C2A6121366781306E6C394084039
:10107300DFEE24FF92A7D2A6121366C2A6D2A7124E
:1010830013667814E6FF22900002EEF0A3EFF07FE0
:1010930016900037EFF004FF1211D9900038E4F0F6
:1010A300A3EFF0E0F8E4F0E8900038F0900037E0C8
:1010B300FF1211D9900039E02FF0900038E034008E
:1010C300F0E0FEA3E0FF22E4900037F0A3F0A3F0EA
:1010D300A3F0A3F0A3F07F01121343E4FDFCFF127E
:1010E30004E97F121211D9900000EFF0FD7C00E4B7
:1010F300FF1204E9E4FEEE70E212136E90003BEF80
:10110300F080F3E47816F6D2A518F6D2A412135E93
:101113007816E6FF25E0F630A504E64401F6C2A4FE
:1011230012135E781506E6C3940840DFD2A5D2A455
:1011330012135EC2A4D2A512135E7816E6FF22D262
:10114300A6D2A7D2A7D2A7121366121366121366EA
:10115300121366C2A7E4FFFE0FBF00010EE4B5073A
:10116300F7EEB401F322E47812F6121142121313CC
:101173007B027A007D017C00E4FF1211B47F03122D
:10118300104912000E7812E6FF7E0022E4FDFC9067
:101193000038EFF0A3ECF0A3EDF0900038E0FF048B
:1011A300F012125B900039E0FD900038E0FF02126C
:1011B3005BAE07121313AF06EF25E0FF121008EC26
:1011C300FF121008AF05121008EAFF121008AF0350
:1011D30012100802000EAD071213257FA0120FC7CD
:1011E300AF05120FC71212ED7FA1120FC71211061E
:1011F300AE07121334AF0622D2A412135E12135E8B
:1012030012135E12135EC2A5E4FFFE0FBF00010EB0
:10121300E4B507F7EEB401F3227593FFE4F594F513
:10122300917592FFF5957596FF75B1FF75B2FF75D0
:1012330080FFF590F5A0F5B022C0E0C083C08230F6
:101243009902C29930980AC298900016E599F0D293
:1012530008D082D083D0E032AC071213257FA012CE
:101263000FC7AF04120FC7AF05120FC71213347F96
:10127300647E0002129343985053C8F043C83075FC
:10128300CDFF75CCDC75CBFF75CADCD2ACD2CA22DC
:10129300D3EF9400EE9400400EE4FD0DEDB4FFFB9C
:1012A300EF1F70EC1E80E922C28E758911758D0BBC
:1012B300758BDCE47811F6121142D2ABD28E220880
:1012C30008000000000000000041001100C108C137
:1012D30001C109C10700C28C758911758C0B758A10
:1012E300DCE47810F6D2A9D28C22D2A512135ED2F6
:1012F300A412135EC2A512135EC2A402135EEFAF63
:10130300A06005EF44208003EF54DFF5A0F5A02291
:10131300D2A7121366D2A6121366C2A7121366C20D
:10132300A622D2A512135EC2A512135EC2A4021393
:101333005EC2A512135ED2A412135ED2A502135E7F
:10134300EFB40103D2B422C2B422D2B2C289D2888A
:10135300D2A822E4FF0FEFB412FB22E4FF0FEFB495
:1013630012FB22E4FF0FEFB412FB2290003DE0FFDB
:1013730022FC60DAF266B6BEE4FEF6EE3E9C7A9E8E
:101383008E6ECE00EC1C027CFD61DBF367B7BFE51C
:0F139300FFF7EF3F9D7B9F8F6FCF01ED1D037D18
:00000001FF
