:0700000002567802000632EF
:10000B00025B80125E5EC2A2125E65C296025E65E4
:03001B0002586C1C
:10002300025E21E4F564F565F566F56BF56CAD6C80
:10003300AC6BAF66122392E5347003020BC0125708
:10004300FE8F64E56430E0057567018003E4F567BE
:10005300E56430E1057568018003E4F568E5643023
:10006300E2057569018003E4F569E56430E305752C
:100073006A018003E4F56AE567B401050566E4F502
:1000830065E566D394134005E4F566F534E569B494
:100093000108056CE56C7002056BE56AB40108E5BF
:1000A3006C156C7002156B7881E6600302013B7678
:1000B300041255CC78AAE6FD25E0248CF8A60608A0
:1000C300A607EDC3940C500578AA06807F78A2E6B4
:1000D300FE08E6FF7C007D05123F41AA06AB0778C8
:1000E300A4E6FE08E6FF7C007D05123F41EF2BFBF3
:1000F300EE3AFA78A0E6FE08E6FF7C007D05123FA3
:1001030041EF2BFBEE3AFA789EE6FE08E6FF7C0011
:100113007D05123F41EF2BFBEE3AFA789CE6FE0891
:10012300E6FF7C007D05123F41EF2B78A9F6EE3AFE
:1001330018F678AA7608801478AAE625E0248CF8C5
:10014300E6FE08E6FF78A8A60608A607E5666401AA
:100153007047E539FD7C00AF66122392E56C2539C3
:10016300F539E4F56BF56CE539C394044007E4F520
:1001730039F56BF56CE5686401600302003AAD394B
:100183007F12125C4CE4FDFC7F161223927FC47E27
:1001930009125D09056502003AE5666402703FE5F0
:1001A30039C394024005056602003AE55AFD7C0016
:1001B300AF66122392E56C255AF55AE4F56BF56C9C
:1001C300E55AC394024007E4F55AF56BF56CE5680C
:1001D3006401600302003AAD5A7F130203A0E5668F
:1001E3006403703CE5396005056602003AE56C2559
:1001F30030F530E4F56BF56CE530C394064007E465
:10020300F530F56BF56CE530FD7C00AF661223929B
:10021300E5686401600302003AAD307F140203A075
:10022300E566640460030202F3E5396005056602CE
:10023300003A78A8E6FC08E6FDAF66122392E5686B
:100243006401600302003A78AB7603855323855437
:1002530024AE53AF54FC7D18123F2F7D0A123F4149
:1002630078A8E6FC08E6FDC3EF9DEE9C401DE5087B
:10027300B40108EF2DF529EE3C803078A8E6FC08A0
:10028300E6FDC3EF9DF529EE9C8020E508AE53AF54
:10029300547C007D18B4011D123F2F7D0A123F418B
:1002A30078A8E6FC08E62FF529EE3CF5287547010A
:1002B300434401801C123F2F7D0A123F41C378A99A
:1002C300E69FF52918E69EF528E4F5475344FEF525
:1002D30043AD447F32125C4CAD29AC287F16125DCE
:1002E300DFAD24AC237F3C125DDF125D050206E522
:1002F300E566640560030203A6E539600505660249
:10030300003A78A8E6FC08E6FDAF66122392E5689A
:100313006401600302003AE547B4010F78A9E625BA
:1003230029F56018E63528F55F800EC378A9E695B0
:1003330029F56018E69528F55FAD60AC5F7F18126C
:100343005DDFC3E56094CAE55F94C8E560401E25A0
:1003530029FFE55F3528FEE5602436FDE55F343788
:10036300FC123F418E578F5843441080202529FFAC
:10037300E55F3528FEC374CA9560FD74C8955FFCBC
:10038300123F418E578F585344EF754300AD58AC1D
:10039300577F34125DDF125D05AD447F32125C4C32
:1003A3000206E5E56664067059E5396401600505F2
:1003B3006602003AE508B401057547018003E4F5D8
:1003C3004778A8E6FC08E6FDAF66122392E5686469
:1003D30001600302003A78A8E6F54C08E6F54DFD06
:1003E300AC4C7F1A125DDF125D05E547B40106E5EB
:1003F3004444028004E54454FDFD7F32125C4C0208
:1004030006E5E566640760030204B5E53964016047
:1004130005056602003A78A8E6FC08E6FDAF661219
:100423002392E5686401600302003A78A8E6F54583
:1004330008E6F546FDAC457F1C125DDFE547B401D8
:1004430030E546254DFFE545354CFED3EF94E4EE0C
:1004530094444009EF241CFDEE34BB8044E546255B
:100463004DFFE545354CFEC374E49FFD74449E8007
:1004730030C3E546954DFFE545954CFED3EF94E437
:10048300EE94444009EF241CFDEE34BB8013C3E516
:1004930046954DFFE545954CFEC374E49FFD7444BA
:1004A3009EFC123F418E3E8F3FAD3FAC3E7F3602F6
:1004B30005BDE56664087059E539640260050566A3
:1004C30002003AE508B401057547018003E4F547E6
:1004D30078A8E6FC08E6FDAF66122392E56864019E
:1004E300600302003A78A8E6F53C08E6F53DFDAC6A
:1004F3003C7F1E125DDF125D05E547B40106E5444E
:1005030044048004E54454FBFD7F32125C4C020634
:10051300E5E566640960030205C3E5396402600525
:10052300056602003A78A8E6FC08E6FDAF661223EA
:1005330092E5686401600302003A78A8E6F535089D
:10054300E6F536FDAC357F20125DDFE547B4012EBD
:10055300E536253DFFE535353CFED3EF9400EE94BB
:100563007D4008E42FFDEE34838041E536253DFFD1
:10057300E535353CFEC3E49FFD747D9E802EC3E5C7
:1005830036953DFFE535953CFED3EF9400EE947D23
:100593004008E42FFDEE34838012C3E536953DFF1A
:1005A300E535953CFEC3E49FFD747D9EFC123F41FF
:1005B3008E2E8F2FAD2FAC2E7F38125DDF0206E516
:1005C300E566640A706DE53964036005056602003B
:1005D3003AE508B401057547018003E4F54778A8B7
:1005E300E6FC08E6FDAF66122392E568640160034A
:1005F30002003A7F32FE125D0978A8E6F53108E67B
:10060300F532FDAC317F22125DDF125D05E547B4A3
:100613000106E54444088004E54454F7FD7F3212A3
:100623005C4C0565E4FDFC7F161223927FA87E6176
:10063300020BA8E566640B60030206F6E539640362
:100643006005056602003A78A8E6FC08E6FDAF6699
:10065300122392E5686401600302003A78A8E6F584
:100663002A08E6F52BFDAC2A7F24125DDF125D0517
:10067300E547B4012EE52B2532FFE52A3531FED3BC
:10068300EF9400EE94194008E42FFDEE34E7804127
:10069300E52B2532FFE52A3531FEC3E49FFD7419AE
:1006A3009E802EC3E52B9532FFE52A9531FED3EFCD
:1006B3009400EE94194008E42FFDEE34E78012C352
:1006C300E52B9532FFE52A9531FEC3E49FFD7419AE
:1006D3009EFC123F418E258F26AD26AC257F3A1214
:1006E3005DDF0565E4FDFC7F161223927FC47E095E
:1006F300020BA8E566640C7068AE6BAF6CFC7D0AF8
:10070300123F2FEF254BF54BEE354AF54AE4F56BD7
:10071300F56CAD4BAC4AAF66122392E56964016098
:1007230009E56A6401600302003AD3E54B940FE5DF
:100733004A94274009E4F56BF56CF54AF54BE568F7
:100743006401600302003AAD4BAC4A7F26125DDFC1
:100753000565E4FDFC7F161223927FC47E09020B1C
:10076300A8E566640D7068AE6BAF6CFC7D0A123F42
:100773002FEF2549F549EE3548F548E4F56BF56C5F
:10078300AD49AC48AF66122392E56964016009E59F
:100793006A6401600302003AD3E549940FE5489483
:1007A300274009E4F56BF56CF548F549E568640104
:1007B300600302003AAD49AC487F28125DDF05654E
:1007C300E4FDFC7F161223927FC47E09020BA8E589
:1007D30066640E6003020868C3E56C94C8E56B9415
:1007E300004020E55270057552998040E552540F40
:1007F300700CE55224F054F04409F552800215526E
:10080300E48029E56C6401456B7025E552C3949A35
:100813004005E4F5528015E552540FFFBF090AE580
:1008230052241054F0F55280020552E4F56BF56C36
:10083300E42552FDE43420FCAF66122392E568649C
:1008430001600302003AAD527F06125CAFAD527FE6
:100853002A125C4C0565E4FDFC7F161223927FC4CB
:100863007E09020BA8E566640F60030208FBC3E57B
:100873006C94C8E56B94004022E561D39401500564
:10088300756112803CE561540F700CE56124F054EE
:10089300F04409F561800215618026E56C64014529
:1008A3006B7023E561B412057561018014E5615431
:1008B3000FFFBF090AE561241054F0F561800205BA
:1008C30061E4F56BF56CE561FD7C00AF6612239284
:1008D300E5686401600302003AAD617F05125CAF15
:1008E300AD617F2B125C4C0565E4FDFC7F16122382
:1008F300927FC47E09020BA8E56664106003020AB6
:1009030089C3E56C94C8E56B940050030209B0E514
:100913005BB40111E561B4020CE552540370067532
:100923005B29020A53E55BB40112E561B4020DE5EC
:100933005254036007755B28E4020A53E55B6401C4
:100943007030E56164016023E5616403601DE56166
:1009530064056017E56164076011E5616408600B75
:10096300E56164106005E561B41207755B31E4026B
:100973000A53E55BB4011EE56164046011E561643B
:1009830006600BE56164096005E561B41107755BF9
:1009930030E4020A53E55B540F700CE55B24F0541A
:1009A300F04409F55B8002155BE4020A53E56C64CD
:1009B30001456B6003020A57E561B40212E5525424
:1009C30003700CE55BB42907755B01E4020A53E588
:1009D30061B40211E5525403600BE55BB42806755C
:1009E3005B01E4806BE56164016023E5616403609E
:1009F3001DE56164056017E56164076011E56164E5
:100A030008600BE56164106005E561B4120BE55BFA
:100A1300B43106755B01E48037E56164046011E578
:100A2300616406600BE56164096005E561B4110B5F
:100A3300E55BB43006755B01E48015E55B540FFF9D
:100A4300BF090AE55B241054F0F55B8002055BE403
:100A5300F56BF56CE55BFD7C00AF66122392E568F0
:100A63006401600302003AAD5B7F04125CAFAD5BCF
:100A73007F2C125C4C0565E4FDFC7F161223927FEC
:100A8300FA7E00020BA8E56664116003020B1AC329
:100A9300E56C94C8E56B94004020E55C7005755CDB
:100AA30023803EE55C540F700CE55C24F054F04465
:100AB30009F55C8002155CE48027E56C6401456BF5
:100AC3007023E55CB42305E4F55C8015E55C540F05
:100AD300FFBF090AE55C241054F0F55C8002055C55
:100AE300E4F56BF56CE55CFD7C00AF66122392E5E3
:100AF300686401600302003AAD5C7F02125CAFAD33
:100B03005C7F2E125C4C0565E4FDFC7F161223927C
:100B13007FFA7E00020BA8E56664126003020BAE47
:100B2300C3E56C94C8E56B94004020E55D700575E2
:100B33005D59803EE55D540F700CE55D24F054F083
:100B43004409F55D8002155DE48027E56C64014589
:100B53006B7023E55DB45905E4F55D8015E55D54DF
:100B63000FFFBF090AE55D241054F0F55D8002050F
:100B73005DE4F56BF56CE55DFD7C00AF66122392D9
:100B8300E5686401600302003AAD5D7F01125CAF6A
:100B9300AD5D7F2F125C4C0565E4FDFC7F161223CF
:100BA300927FFA7E00125D0902003AE566C3941350
:100BB300500302003AE4F566F53402003A025704A2
:100BC3008E6C8F6D856C6E856D6FE4F509E5086439
:100BD300017066D3E56F9455E56E9404AC6CAD6D0E
:100BE3005031E4123E757BA47A70795D7840123DF2
:100BF300D3A804A905AA06AB07E4FFFE7DA07C43A6
:100C0300123CDB123EAE8E6E8F6F750A01E4F5085F
:100C1300021420E4123E757BA47A70795D78401249
:100C23003DD3E4FBFA79A078C3123CDF123EAE8ECB
:100C33006E8F6FE4F50A021420AC6CAD6DE4123EC6
:100C4300757BA47A70795D7840123DD3E4FBFA7921
:100C5300A07843123CDF123EAE8E6E8F6FD3E56DEC
:100C63009486E56C9404401FE56D24B4FFE56C3471
:100C7300FBFE900007E0FD7C00123F41C3E56F9F40
:100C8300F56FE56E9EF56ED3E56D94C4E56C94093E
:100C9300401FE56D246EFFE56C34F6FE900008E01E
:100CA300FD7C00123F41C3E56F9FF56FE56E9EF536
:100CB3006ED3E56D9484E56C9412401FE56D24A416
:100CC300FFE56C34EDFE900007E0FD7C00123F4130
:100CD300C3E56F9FF56FE56E9EF56ED3E56D9402E8
:100CE300E56C9417401FE56D241CFFE56C34E9FEA9
:100CF300900009E0FD7C00123F41C3E56F9FF56F53
:100D0300E56E9EF56ED3E56D9472E56C941F401FFE
:100D1300E56D24ACFFE56C34E0FE900009E0FD7C5A
:100D230000123F41C3E56F9FF56FE56E9EF56ED3ED
:100D3300E56D9430E56C942A401FE56D2402FFE5D0
:100D43006C34D6FE900009E0FD7C00123F41C3E500
:100D53006F9FF56FE56E9EF56ED3E56D9426E56C9A
:100D63009434401FE56D240CFFE56C34CCFE9000F9
:100D73000AE0FD7C00123F41C3E56F9FF56FE56E0E
:100D83009EF56ED3E56D948CE56C943C401FE56D48
:100D9300247EFFE56C34C3FE90000AE0FD7C001264
:100DA3003F41C3E56F9FF56FE56E9EF56ED3E56D2D
:100DB30094ACE56C943F401EE56D2486FFE56C34EE
:100DC300C0FE90000AE0FD7C00123F41EF256FF565
:100DD3006FEE356EF56ED3E56D9430E56C9443405C
:100DE3001FE56D2402FFE56C34BDFE900009E0FDB4
:100DF3007C00123F41C3E56F9FF56FE56E9EF56E74
:100E0300D3E56D9450E56C944B401EE56D24BAFF19
:100E1300E56C34B4FE90000AE0FD7C00123F41EF24
:100E2300256FF56FEE356EF56ED3E56D94E8E56CE1
:100E3300944E401FE56D244AFFE56C34B1FE9000EB
:100E430009E0FD7C00123F41C3E56F9FF56FE56E3E
:100E53009EF56ED3E56D948CE56C945A401FE56D59
:100E630024B0FFE56C34A5FE90000AE0FD7C00127F
:100E73003F41C3E56F9FF56FE56E9EF56ED3E56D5C
:100E83009404E56C9460401EE56D2424FFE56C3406
:100E9300A0FE90000BE0FD7C00123F41EF256FF5B3
:100EA3006FEE356EF56ED3E56D9470E56C94674027
:100EB3001FE56D24B8FFE56C3498FE90000AE0FD51
:100EC3007C00123F41C3E56F9FF56FE56E9EF56EA3
:100ED300D3E56D9478E56C946E401EE56D24B0FF08
:100EE300E56C3491FE90000BE0FD7C00123F41EF76
:100EF300256FF56FEE356EF56ED3E56D9436E56CC3
:100F03009474401FE56D24FCFFE56C348BFE900068
:100F13000AE0FD7C00123F41C3E56F9FF56FE56E6C
:100F23009EF56EAE6CAF6DE4FCFD7B907A83F9F8B1
:100F3300C3123FA4502BE56D2498FFE56C347CFE6F
:100F4300E434FFFDE434FFFCC00790000AE0FBE457
:100F5300FAF8D007125924EF256FF56FEE356EF5C9
:100F63006EAE6CAF6DE4FCFD7BB07A86F9F8C3120C
:100F73003FA4502CE56D2478FFE56C3479FEE4340E
:100F8300FFFDE434FFFCC007900009E0FBE4FAF83E
:100F9300D007125924C3E56F9FF56FE56E9EF56E7A
:100FA300AE6CAF6DE4FCFD7B807A8EF9F8C3123F23
:100FB300A4502BE56D24A8FFE56C3471FEE434FFE7
:100FC300FDE434FFFCC00790000BE0FBE4FAF8D02B
:100FD30007125924EF256FF56FEE356EF56EAE6C83
:100FE300AF6DE4FCFD7B447A93F9F8C3123FA45040
:100FF3002CE56D24EEFFE56C346CFEE434FFFDE478
:1010030034FFFCC00790000BE0FBE4FAF8D00712B2
:101013005924C3E56F9FF56FE56E9EF56EAE6CAF19
:101023006DE4FCFD7B987A9EF9F8C3123FA4502B24
:10103300E56D249AFFE56C3461FEE434FFFDE4348E
:10104300FFFCC00790000BE0FBE4FAF8D00712594D
:1010530024EF256FF56FEE356EF56EAE6CAF6DE474
:10106300FCFD7BF07AA0F9F8C3123FA4502CE56D88
:101073002442FFE56C345FFEE434FFFDE434FFFCFF
:10108300C00790000BE0FBE4FAF8D007125924C321
:10109300E56F9FF56FE56E9EF56EAE6CAF6DE4FC8C
:1010A300FD7B047AA6F9F8C3123FA4502BE56D2407
:1010B3002EFFE56C345AFEE434FFFDE434FFFCC03C
:1010C3000790000BE0FBE4FAF8D007125924EF2550
:1010D3006FF56FEE356EF56EAE6CAF6DE4FCFD7BB8
:1010E300D47AADF9F8C3123FA4502CE56D245EFF0A
:1010F300E56C3452FEE434FFFDE434FFFCC007909A
:10110300000BE0FBE4FAF8D007125924C3E56F9F04
:10111300F56FE56E9EF56EAE6CAF6DE4FCFD7B5432
:101123007ABAF9F8C3123FA4502BE56D24DEFFE52C
:101133006C3445FEE434FFFDE434FFFCC00790004B
:101143000AE0FBE4FAF8D007125924EF256FF56F94
:10115300EE356EF56EAE6CAF6DE4FCFD7B767AC05A
:10116300F9F8C3123FA4502CE56D249EFFE56C34BF
:101173003FFEE434FFFDE434FFFCC007900007E0CA
:10118300FBE4FAF8D007125924C3E56F9FF56FE526
:101193006E9EF56EAE6CAF6DE4FCFD7B507AC3F9C9
:1011A300F8C3123FA4502BE56D24C4FFE56C343C17
:1011B300FEE434FFFDE434FFFCC007900007E0FBCE
:1011C300E4FAF8D007125924EF256FF56FEE356E68
:1011D300F56EAE6CAF6DE4FCFD7B947ACAF9F8C38F
:1011E300123FA4502CE56D2494FFE56C3435FEE4E6
:1011F30034FFFDE434FFFCC00790000BE0FBE4FA8E
:10120300F8D007125924C3E56F9FF56FE56E9EF57D
:101213006EAE6CAF6DE4FCFD7B507ACDF9F8C31272
:101223003FA4502BE56D24D8FFE56C3432FEE43443
:10123300FFFDE434FFFCC00790000BE0FBE4FAF889
:10124300D007125924EF256FF56FEE356EF56EAEAC
:101253006CAF6DE4FCFD7B387AD1F9F8C3123FA47F
:10126300502CE56D24F0FFE56C342EFEE434FFFDD5
:10127300E434FFFCC00790000BE0FBE4FAF8D0076E
:10128300125924C3E56F9FF56FE56E9EF56EAE6C44
:10129300AF6DE4FCFD7BB07AD6F9F8C3123FA450DE
:1012A3002BE56D2478FFE56C3429FEE434FFFDE47F
:1012B30034FFFCC00790000BE0FBE4FAF8D0071200
:1012C3005924EF256FF56FEE356EF56EAE6CAF6D8D
:1012D300E4FCFD7B307AE3F9F8C3123FA4502BE51D
:1012E3006D24F8FFE56C341CFEE434FFFDE434FFA9
:1012F300FCC00790000BE0FBE4FAF8D00712592476
:10130300EF256FF56FEE356EF56EAE6CAF6DE4FCE9
:10131300FD7B8C7AE6F9F8C3123FA4502CE56D24CB
:1013230088FFE56C3419FEE434FFFDE434FFFCC0B0
:1013330007900009E0FBE4FAF8D007125924C3E54B
:101343006F9FF56FE56E9EF56EAE6CAF6DE4FCFDC1
:101353007B9C7AEAF9F8C3123FA4502BE56D248CE9
:10136300FFE56C3415FEE434FFFDE434FFFCC007F5
:1013730090000BE0FBE4FAF8D007125924EF256F35
:10138300F56FEE356EF56EAE6CAF6DE4FCFD7B3440
:101393007AF3F9F8C3123FA4502CE56D24F4FFE56A
:1013A3006C340CFEE434FFFDE434FFFCC007900012
:1013B3000BE0FBE4FAF8D007125924C3E56F9FF55D
:1013C3006FE56E9EF56EAE6CAF6DE4FCFD7BFC7A53
:1013D300F3F9F8C3123FA4502BE56D242CFFE56C01
:1013E300340CFEE434FFFDE434FFFCC00790000A34
:1013F300E0FBE4FAF8D007125924EF256FF56FEEFE
:10140300356EF56EAE6CAF6DE4FCFD7BB07AFA79A8
:1014130009F8C3123FA45005E4F56EF56FAE6EAF45
:101423006F228E6C8F6DE4F509E508640160030299
:1014330014DFD3E56D94E0E56C9402501F7C007DCE
:101443000A123F2F7D17123F41C374409FF56F74FB
:10145300019EF56E750A01E4F508801DAE6CAF6D53
:101463007C007D0A123F2F7D17123F41EF24C0F508
:101473006FEE34FEF56EE4F50AD3E56D94F8E56C92
:1014830094024022E50A701EE56D2426FFE56C34C4
:10149300FDFE90001BE0FD7C00123F41EF256FF540
:1014A3006FEE356EF56ED3E56D94D0E56C94075011
:1014B30003021BFDE50A6003021BFDE56D2462FFC9
:1014C300E56C34F8FE90001DE0FD7C00123F41EF17
:1014D300256FF56FEE356EF56E021BFDAC6CAD6DD1
:1014E300E4123E757BE17A7A79147840123DD3E4B5
:1014F300FBFA79A07843123CDF123EAE8E6E8F6FFB
:10150300D3E56D94F8E56C9402401FE56D2426FF46
:10151300E56C34FDFE90001BE0FD7C00123F41C3EF
:10152300E56F9FF56FE56E9EF56ED3E56D94D0E59F
:101533006C9407401FE56D2462FFE56C34F8FE9060
:10154300001DE0FD7C00123F41C3E56F9FF56FE591
:101553006E9EF56ED3E56D9460E56C940C401EE5CC
:101563006D24B2FFE56C34F3FE90001DE0FD7C00BA
:10157300123F41EF256FF56FEE356EF56ED3E56DD6
:1015830094DEE56C940D401FE56D2454FFE56C3447
:10159300F2FE90001DE0FD7C00123F41C3E56F9F0A
:1015A300F56FE56E9EF56ED3E56D94F2E56C9412DE
:1015B300401EE56D2440FFE56C34EDFE90001CE019
:1015C300FD7C00123F41EF256FF56FEE356EF56E32
:1015D300D3E56D9444E56C941B401EE56D240CFF2C
:1015E300E56C34E5FE90001DE0FD7C00123F41EF09
:1015F300256FF56FEE356EF56ED3E56D947FE56C73
:101603009424401FE56D24FCFFE56C34DBFE900061
:101613001EE0FD7C00123F41C3E56F9FF56FE56E51
:101623009EF56ED3E56D94B4E56C9428401FE56D8B
:101633002488FFE56C34D7FE90001DE0FD7C00128A
:101643003F41C3E56F9FF56FE56E9EF56ED3E56D84
:1016530094FCE56C9430401FE56D242CFFE56C345D
:10166300CFFE90001EE0FD7C00123F41C3E56F9F5B
:10167300F56FE56E9EF56ED3E56D94AAE56C943730
:10168300401FE56D2488FFE56C34C8FE90001FE021
:10169300FD7C00123F41C3E56F9FF56FE56E9EF53C
:1016A3006ED3E56D94A0E56C9441401FE56D2492E3
:1016B300FFE56C34BEFE90001FE0FD7C00123F414D
:1016C300C3E56F9FF56FE56E9EF56ED3E56D944AA6
:1016D300E56C9447401EE56D24E8FFE56C34B8FEE5
:1016E30090001FE0FD7C00123F41EF256FF56FEE88
:1016F300356EF56ED3E56D94FAE56C944B401FE5BA
:101703006D2438FFE56C34B4FE90001EE0FD7C00D0
:10171300123F41C3E56F9FF56FE56E9EF56ED3E50E
:101723006D94CAE56C9453401FE56D2468FFE56C26
:1017330034ACFE90001FE0FD7C00123F41C3E56F17
:101743009FF56FE56E9EF56ED3E56D9488E56C9419
:1017530059401EE56D24C8FFE56C34A6FE90001EBB
:10176300E0FD7C00123F41EF256FF56FEE356EF51E
:101773006ED3E56D9406E56C9463401FE56D242CF0
:10178300FFE56C349DFE90001FE0FD7C00123F419D
:10179300C3E56F9FF56FE56E9EF56ED3E56D94EC33
:1017A300E56C9468401EE56D2450FFE56C3497FEAC
:1017B30090001EE0FD7C00123F41EF256FF56FEEB8
:1017C300356EF56ED3E56D9458E56C9470401EE567
:1017D3006D24ACFFE56C3490FE90001FE0FD7C00AF
:1017E300123F41EF256FF56FEE356EF56ED3E56D64
:1017F300945CE56C9476401FE56D2408FFE56C343A
:101803008AFE90001FE0FD7C00123F41C3E56F9FFD
:10181300F56FE56E9EF56ED3E56D9476E56C947A7F
:10182300401EE56D24EEFFE56C3485FE90001DE05F
:10183300FD7C00123F41EF256FF56FEE356EF56EBF
:10184300AE6CAF6DE4FCFD7B9E7A84F9F8C3123F66
:10185300A4502BE56D2494FFE56C347BFEE434FF48
:10186300FDE434FFFCC00790001FE0FBE4FAF8D06E
:1018730007125924EF256FF56FEE356EF56EAE6CDA
:10188300AF6DE4FCFD7B6E7A8CF9F8C3123FA45074
:101893002BE56D24C4FFE56C3473FEE434FFFDE4F3
:1018A30034FFFCC00790001EE0FBE4FAF8D00712F7
:1018B3005924EF256FF56FEE356EF56EAE6CAF6D97
:1018C300E4FCFD7BBA7A90F9F8C3123FA4502BE5F0
:1018D3006D2478FFE56C346FFEE434FFFDE434FFE0
:1018E300FCC00790001FE0FBE4FAF8D0071259246C
:1018F300EF256FF56FEE356EF56EAE6CAF6DE4FCF4
:10190300FD7BEE7A98F9F8C3123FA4502BE56D24C2
:1019130044FFE56C3467FEE434FFFDE434FFFCC0B0
:101923000790001FE0FBE4FAF8D007125924EF25D3
:101933006FF56FEE356EF56EAE6CAF6DE4FCFD7B4F
:10194300667A9EF9F8C3123FA4502BE56D24CCFFB1
:10195300E56C3461FEE434FFFDE434FFFCC0079022
:10196300001FE0FBE4FAF8D007125924EF256FF5C6
:101973006FEE356EF56EAE6CAF6DE4FCFD7BA67A53
:10198300A4F9F8C3123FA4502BE56D24F0FFE56CD6
:10199300345BFEE434FFFDE434FFFCC00790001F1A
:1019A300E0FBE4FAF8D007125924EF256FF56FEE48
:1019B300356EF56EAE6CAF6DE4FCFD7BBA7AA9F9BA
:1019C300F8C3123FA4502BE56D2478FFE56C345621
:1019D300FEE434FFFDE434FFFCC00790001FE0FB8E
:1019E300E4FAF8D007125924EF256FF56FEE356E40
:1019F300F56EAE6CAF6DE4FCFD7B967AAFF9F8C380
:101A0300123FA4502AE4256DFFE56C3451FEE43403
:101A1300FFFDE434FFFCC00790001EE0FBE4FAF88E
:101A2300D007125924EF256FF56FEE356EF56EAEC4
:101A33006CAF6DE4FCFD7B3A7AB6F9F8C3123FA4B0
:101A4300502BE56D24F8FFE56C3449FEE434FFFDCB
:101A5300E434FFFCC00790001EE0FBE4FAF8D00773
:101A6300125924EF256FF56FEE356EF56EAE6CAF40
:101A73006DE4FCFD7B7A7ABCF9F8C3123FA4502BCA
:101A8300E56D24B8FFE56C3443FEE434FFFDE43434
:101A9300FFFCC00790001DE0FBE4FAF8D0071259E1
:101AA30024EF256FF56FEE356EF56EAE6CAF6DE41A
:101AB300FCFD7BDA7AC5F9F8C3123FA4502BE56D20
:101AC3002458FFE56C343AFEE434FFFDE434FFFCB4
:101AD300C00790001CE0FBE4FAF8D007125924EF8A
:101AE300256FF56FEE356EF56EAE6CAF6DE4FCFDF4
:101AF3007B467ACDF9F8C3123FA4502BE56D24EC55
:101B0300FFE56C3432FEE434FFFDE434FFFCC00730
:101B130090001CE0FBE4FAF8D007125924EF256F7C
:101B2300F56FEE356EF56EAE6CAF6DE4FCFD7B2E9E
:101B33007AD1F9F8C3123FA4502BE56D2404FFE5D5
:101B43006C342FFEE434FFFDE434FFFCC007900047
:101B53001EE0FBE4FAF8D007125924EF256FF56F66
:101B6300EE356EF56EAE6CAF6DE4FCFD7B0A7AD795
:101B7300F9F8C3123FA4502BE56D2428FFE56C341C
:101B830029FEE434FFFDE434FFFCC00790001CE0B1
:101B9300FBE4FAF8D007125924EF256FF56FEE3501
:101BA3006EF56EAE6CAF6DE4FCFD7B1E7ADCF9F86E
:101BB300C3123FA4502BE56D2414FFE56C3424FEBF
:101BC300E434FFFDE434FFFCC00790001DE0FBE4B8
:101BD300FAF8D007125924EF256FF56FEE356EF53D
:101BE3006EAE6CAF6DE4FCFD7B487AEEF9F8C31280
:101BF3003FA4500674FFF56EF56FAE6EAF6F22E42F
:101C0300F56CF56DF56EF56FF570F5718C728D737E
:101C1300E50864016003021DD3C3E573940AE5720A
:101C23009400503F905ED4E493F56CF56DF56EE54A
:101C330039B4030A905ED7E493F56E021DEEE5090D
:101C430064016005E539B4020D905ED4E493F56F49
:101C5300905ED7021E27905ED7E493F56F905EDE09
:101C6300021E27C3E573940AE5729400403FE573AF
:101C73009464E57294005035905ED4E493F56CF56A
:101C83006DF56EE5396403700C905ED793F56E9035
:101C93005EDE021EA6E50964016006E53964027092
:101CA30006905ED7021EA6905ED7021EDFC3E573C1
:101CB3009464E57294004038E57394E8E572940304
:101CC300502E905ED4E493F56CF56D905ED7E4935B
:101CD300F56EE53964037003021F41E50964017081
:101CE30003021FA4E53964026003021FFC021FA460
:101CF300C3E57394E8E5729403404FE5739410E5EC
:101D03007294275045905ED4E493F56C905ED7E4CB
:101D130093F56DAE72AF737C037DE8123F4174C2DD
:101D23002FF582745E3EF583E493F56EE539640323
:101D33007003022097E50964017003022108E53965
:101D43006402600302216D022108C3E5739410E568
:101D5300729427500302237DAE72AF73E4FCFD7BC4
:101D6300A07A867901F8D3123FA4500302237D9011
:101D73005ED7E493F56CAE72AF737C277D10123F90
:101D83004174C22FF582745E3EF583E493F56DAE24
:101D930072AF737C277D10123F417E037FE8CFCD66
:101DA300CFCECCCE123F4174C22FF582745E3EF586
:101DB30083E493F56EE53964037003022097E50924
:101DC30064016006E5396402700302210802216D93
:101DD300C3E573940AE57294005055905ED4E4937E
:101DE300F56CF56DF56EE539B40313905EDEE4939F
:101DF300F56F905EC2E493F570E57302237AE5090B
:101E030064016005E539B40211905ED4E493F56F83
:101E1300F570E573905EC202237A905ED4E493F585
:101E23006F905EDEE493F570E573905EC202237AF1
:101E3300C3E573940AE57294005003021F15E5731A
:101E43009464E57294004003021F15905ED4E493FA
:101E5300F56CF56DF56EE53964037038905EDE93CD
:101E6300F56FAE72AF737C007D0A123F4174C22FCF
:101E7300F582745E3EF583E493F570AE72AF737CC6
:101E8300007D0A123F4174C22DF582745E3CF583D6
:101E9300E402237AE50964016006E53964027039D6
:101EA300905ED4E493F56FAE72AF737C007D0A123B
:101EB3003F4174C22FF582745E3EF583E493F5705F
:101EC300AE72AF737C007D0A123F4174C22DF5825E
:101ED300745E3CF583E402237A905ED4E493F56F59
:101EE300AE72AF737C007D0A123F4174DE2FF58220
:101EF300745E3EF583E493F570AE72AF737C007D40
:101F03000A123F4174C22DF582745E3CF583E402EC
:101F1300237AC3E5739464E572940050030220545A
:101F2300E57394E8E57294034003022054905ED471
:101F3300E493F56CF56DF56EE53964037057AE7295
:101F4300AF73FC7D64123F4174DE2FF582745E3EF5
:101F5300F583E493F56FAE72AF737C007D64123F3B
:101F6300417E007F0ACFCDCFCECCCE123F4174C28B
:101F73002FF582745E3EF583E493F570AE72AF7312
:101F83007C007D0A123F4174C22DF582745E3CF5DC
:101F930083E402237AE50964016006E5396402708B
:101FA30058AE72AF737C007D64123F4174C22FF54B
:101FB30082745E3EF583E493F56FAE72AF737C007B
:101FC3007D64123F417E007F0ACFCDCFCECCCE12AF
:101FD3003F4174C22FF582745E3EF583E493F5703E
:101FE300AE72AF737C007D0A123F4174C22DF5823D
:101FF300745E3CF583E402237AAE72AF737C007D9A
:1020030064123F4174C22FF582745E3EF583E493FC
:10201300F56FAE72AF737C007D64123F417E007F2B
:102023000ACFCDCFCECCCE123F4174DE2FF58274D2
:102033005E3EF583E493F570AE72AF737C007D0A68
:10204300123F4174C22DF582745E3CF583E4022392
:102053007AC3E57394E8E572940350030221D2E551
:10206300739410E572942740030221D2905ED4E466
:1020730093F56CF56DAE72AF737C037DE8123F414F
:1020830074C22FF582745E3EF583E493F56EE539F1
:1020930064037065AE72AF737C037DE8123F417ECB
:1020A300007F64CFCDCFCECCCE123F4174DE2FF56F
:1020B30082745E3EF583E493F56FAE72AF737C007A
:1020C3007D64123F417E007F0ACFCDCFCECCCE12AE
:1020D3003F4174C22FF582745E3EF583E493F5703D
:1020E300AE72AF737C007D0A123F4174C22DF5823C
:1020F300745E3CF583E402237AE50964016006E536
:102103003964027065AE72AF737C037DE8123F41A0
:102113007E007F64CFCDCFCECCCE123F4174C22F91
:10212300F582745E3EF583E493F56FAE72AF737C14
:10213300007D64123F417E007F0ACFCDCFCECCCE4F
:10214300123F4174C22FF582745E3EF583E493F52A
:1021530070AE72AF737C007D0A123F4174C22DF5DD
:1021630082745E3CF583E402237AAE72AF737C0320
:102173007DE8123F417E007F64CFCDCFCECCCE121F
:102183003F4174C22FF582745E3EF583E493F56F8D
:10219300AE72AF737C007D64123F417E007F0ACF35
:1021A300CDCFCECCCE123F4174DE2FF582745E3E8E
:1021B300F583E493F570AE72AF737C007D0A123F32
:1021C3004174C22DF582745E3CF583E402237AC325
:1021D300E5739410E5729427500302237DAE72AF2A
:1021E30073E4FCFD7BA07A867901F8D3123FA450F7
:1021F3000302237D905ED4E493F56CAE72AF737CDF
:10220300277D10123F4174C22FF582745E3EF58321
:10221300E493F56DAE72AF737C277D10123F417E60
:10222300037FE8CFCDCFCECCCE123F4174C22FF582
:1022330082745E3EF583E493F56EE539640370655D
:10224300AE72AF737C037DE8123F417E007F64CFA3
:10225300CDCFCECCCE123F4174DE2FF582745E3EDD
:10226300F583E493F56FAE72AF737C007D64123F28
:10227300417E007F0ACFCDCFCECCCE123F4174C278
:102283002FF582745E3EF583E493F570AE72AF73FF
:102293007C007D0A123F4174C22DF582745E3CF5C9
:1022A30083E402237AE50964016006E53964027078
:1022B30064AE72AF737C037DE8123F417E007F649E
:1022C300CFCDCFCECCCE123F4174C22FF582745EF8
:1022D3003EF583E493F56FAE72AF737C007D6412B9
:1022E3003F417E007F0ACFCDCFCECCCE123F41748B
:1022F300C22FF582745E3EF583E493F570AE72AF40
:10230300737C007D0A123F4174C22DF582745E3CDA
:10231300F583E48062AE72AF737C037DE8123F41C4
:102323007E007F64CFCDCFCECCCE123F4174C22F7F
:10233300F582745E3EF583E493F56FAE72AF737C02
:10234300007D64123F417E007F0ACFCDCFCECCCE3D
:10235300123F4174DE2FF582745E3EF583E493F5FC
:1023630070AE72AF737C007D0A123F4174C22DF5CB
:1023730082745E3CF583E493F571856F7C856E7D95
:10238300856D7E856C7FAB70AD717F0102544C8C83
:102393006D8D6E8F6FAF6EAE6DE56F7028905ED3EF
:1023A30093FFF570905EC2E493F571905ED4E4936D
:1023B300F572905EC7E493F573905ED0E493F57481
:1023C3008F75022A62E56F64016003022472EF4E87
:1023D3007022905ED393F570905EC3E493F5719091
:1023E3005ED4E493F572F573905ED9E493F574A328
:1023F300E493F575EF64014E7029905ED393F57005
:10240300905EC3E493F571905ED4E493F572905EAD
:10241300DBE493F573905ED9E493F574905ECFE4B7
:1024230093F575EF64024E701F905ED393F5709031
:102433005EC3E493F571905ED4E493F572F573F59E
:1024430074905ED8E493F575EF64034E6003022A3B
:1024530062905ED393F570905EC3E493F571905EE2
:10246300D4E493F572F573F574905ECC02295DE5BF
:102473006F64027049EF4E701E905ED393F57090B7
:102483005EC4E493F571905ED4E493F572F573F54D
:1024930074905ECE02295DEF64014E6003022A62EE
:1024A300905ED393F570905EC4E493F571905ED41F
:1024B300E493F572F573F574905ED102295DE56FCF
:1024C300640360030225B8EF4E701B905ED393F54F
:1024D30070905EC5E493F571905ED4E493F572F564
:1024E30073757474F575EF64014E7024905ED39325
:1024F300F570905EC5E493F571905ED4E493F57244
:10250300F573905EDDE493F574905ED4E493F57512
:10251300EF64024E7024905ED393F570905EC5E431
:1025230093F571905ED4E493F572F573905ED9E4FC
:1025330093F574905ED4E493F575EF64034E7024C1
:10254300905ED393F570905EC5E493F571905ED47D
:10255300E493F572F573905ED0E493F574905ED4D2
:10256300E493F575EF64044E7024905ED393F57095
:10257300905EC5E493F571905ED4E493F572F573C0
:10258300905EDBE493F574905ED4E493F575EF64A9
:10259300054E6003022A62905ED393F570905EC588
:1025A300E493F571905ED4E493F572F57375746DED
:1025B300F575022A62E56FC394045003022961E5AD
:1025C3006FD3940D4003022961856D77856E78E59D
:1025D3006FB40405905ED9803AE56FB40505905E4B
:1025E300D98041E56FB40605905EDB8026E56FB4C4
:1025F3000705905EDB802DE56FB40805905ED880FB
:1026030012E56FB40905905ED88019E56FB40A0C22
:10261300905ECCE493F57075715C8039E56FB40B13
:102623000C905ECCE493F57075716D8028E56FB402
:102633000C10905ECCE493F570905ED6E493F57144
:102643008013E56FB40D11905ECCE493F570905E4A
:10265300D2E493F571E4F576C3E57794004040E561
:1026630078940AE57794005036905ED4E493F5723B
:10267300F573E5767009E5097005905EDE800490D8
:102683005EC2E493F574AE77AF787C007D0A123FA7
:102693004174C22DF582745E3CF583E493F575C3F2
:1026A300E578940AE57794004060E5789464E577EB
:1026B30094005056905ED4E493F572F573E576700A
:1026C30017E5097013AE77AF78FC7D0A123F4174AA
:1026D300DE2FF582745E8012AE77AF787C007D0AC0
:1026E300123F4174C22FF582745E3EF583E493F585
:1026F30074AE77AF787C007D0A123F4174C22DF52A
:1027030082745E3CF583E493F575C3E5789464E5E0
:1027130077940050030227AFE57894E8E5779403B4
:1027230040030227AF905ED4E493F572AE77AF789F
:102733007C007D64123F4174C22FF582745E3EF5C6
:1027430083E493F573E5767024E5097020AE77AFE3
:1027530078FC7D64123F417E007F0ACFCDCFCECC83
:10276300CE123F4174DE2FF582745E801FAE77AFC9
:10277300787C007D64123F417E007F0ACFCDCFCEAF
:10278300CCCE123F4174C22FF582745E3EF583E4D2
:1027930093F574AE77AF787C007D0A123F4174C223
:1027A3002DF582745E3CF583E493F575C3E5789467
:1027B300E8E57794035003022870E5789410E577F1
:1027C30094274003022870AE77AF787C037DE8122C
:1027D3003F4174C22FF582745E3EF583E493F57234
:1027E300AE77AF787C037DE8123F417E007F64CFF4
:1027F300CDCFCECCCE123F4174C22FF582745E3E54
:10280300F583E493F573E5767024E5097020AE77DC
:10281300AF78FC7D64123F417E007F0ACFCDCFCEDF
:10282300CCCE123F4174DE2FF582745E801FAE77EB
:10283300AF787C007D64123F417E007F0ACFCDCF0D
:10284300CECCCE123F4174C22FF582745E3EF58327
:10285300E493F574AE77AF787C007D0A123F417440
:10286300C22DF582745E3CF583E493F575C3E57878
:102873009410E57794275003022A62AE77AF78E489
:10288300FCFD7BA07A867901F8D3123FA4500302A2
:102893002A62AE77AF787C277D10123F4174C22F36
:1028A300F582745E3EF583E493F571AE77AF787C81
:1028B300277D10123F417E037FE8CFCDCFCECCCE14
:1028C300123F4174C22FF582745E3EF583E493F5A3
:1028D30072AE77AF787C037DE8123F417E007F6460
:1028E300CFCDCFCECCCE123F4174C22FF582745ED2
:1028F3003EF583E493F573E5767024E5097020AE25
:1029030077AF78FC7D64123F417E007F0ACFCDCF45
:10291300CECCCE123F4174DE2FF582745E801FAEA3
:1029230077AF787C007D64123F417E007F0ACFCD74
:10293300CFCECCCE123F4174C22FF582745E3EF5EA
:1029430083E493F574AE77AF787C007D0A123F4140
:1029530074C22DF582745E3CF583E4022A46E56F6A
:10296300C3940E5009E56F94144003022A4BE56F9C
:10297300B40E0575706E802EE56FB40F0C905ED5A6
:10298300E493F570905EC28031E56FB4100C905EF5
:10299300CFE493F57075716E8024E56FB4110C90DC
:1029A3005ED2E493F570905EDB800FE56FB4120E98
:1029B300905ED5E493F570905EC3E493F571856DF5
:1029C30077856E78E578540FFDE577C4F854F0C841
:1029D30068F577E578C4540F48F578540FFCE5772C
:1029E300C4F854F0C868F577E578C4540F48F5780F
:1029F300540FFBE577C4F854F0C868F577E578C45D
:102A0300540F48F578540FFF7576017023905ED408
:102A130093FEF572EB70088E73EC905EC28008EB48
:102A2300905EC293F573EC93F574ED93F575800F97
:102A3300EF905EC293F572EB93F573EC93F574ED3F
:102A4300905EC293F5758017E56FC394164010E44A
:102A5300F570F571F57275736E75747975756B85AF
:102A6300737C85727D85717E85707FAB74AD757F58
:102A73000102544C8E6C8F6D856C70856D71E4F51D
:102A830009E50864016003022E06D3E56D94C2E5EF
:102A93006C9402AC6CAD6D5030E4123E757B7B7A66
:102AA30014790E7840123DD3A804A905AA06AB07F2
:102AB300E4FFFE7DA07C43123CDB123EAE8E6E8FA4
:102AC3006F750A01E4F5088026E4123E757BCD7A22
:102AD300CC790C7840123DD3E4FBFA79A078C31289
:102AE3003CDF123EAE8E6E8F6FE4F50A750801D39C
:102AF300E56F946EE56E94004022E50A701EE56F63
:102B0300249CFFE56E34FFFE900043E0FD7C001241
:102B13003F41EF256FF56FEE356EF56ED3E56F949C
:102B2300B5E56E94014022E50A701EE56F245CFF53
:102B3300E56E34FEFE900046E0FD7C00123F41EF5F
:102B4300256FF56FEE356EF56ED3E56F9458E56E30
:102B530094024022E50A701EE56F24DAFFE56E3425
:102B6300FDFE900045E0FD7C00123F41EF256FF52F
:102B73006FEE356EF56ED3E56F94DEE56E9402402D
:102B830022E50A701EE56F243AFFE56E34FDFE90E0
:102B93000044E0FD7C00123F41EF256FF56FEE35F9
:102BA3006EF56ED3E56F94C0E56E94034022E50A9B
:102BB300701EE56F244AFFE56E34FCFE900045E08D
:102BC300FD7C00123F41EF256FF56FEE356EF56E1C
:102BD300D3E56F947EE56E94044022E50A701EE50A
:102BE3006F24B4FFE56E34FBFE900044E0FD7C00EF
:102BF300123F41EF256FF56FEE356EF56ED3E56F3E
:102C03009446E56E94054022E50A701EE56F24ECB8
:102C1300FFE56E34FAFE900044E0FD7C00123F4174
:102C2300EF256FF56FEE356EF56ED3E56F9404E522
:102C33006E94064022E50A701EE56F2410FFE56ED0
:102C430034FAFE900043E0FD7C00123F41EF256F14
:102C5300F56FEE356EF56ED3E56F94F4E56E94067D
:102C63004022E50A701EE56F242AFFE56E34F9FE63
:102C7300900044E0FD7C00123F41EF256FF56FEEBD
:102C8300356EF56ED3E56F9476E56E94074022E5D5
:102C93000A701EE56F2494FFE56E34F8FE9000443D
:102CA300E0FD7C00123F41EF256FF56FEE356EF5C9
:102CB3006ED3E56F9448E56E94084022E50A701ED2
:102CC300E56F24C2FFE56E34F7FE900043E0FD7C20
:102CD30000123F41EF256FF56FEE356EF56ED3E5CC
:102CE3006F94DEE56E94084022E50A701EE56F24BA
:102CF3002CFFE56E34F7FE900043E0FD7C00123FAD
:102D030041EF256FF56FEE356EF56ED3E56F94F6F3
:102D1300E56E94094022E50A701EE56F2428FFE55D
:102D23006E34F6FE900043E0FD7C00123F41EF2538
:102D33006FF56FEE356EF56ED3E56F94A0E56E9487
:102D43000A4022E50A701EE56F2488FFE56E34F51C
:102D5300FE900043E0FD7C00123F41EF256FF56FCD
:102D6300EE356EF56ED3E56F944AE56E940B402213
:102D7300E50A701EE56F24DEFFE56E34F4FE900075
:102D830043E0FD7C00123F41EF256FF56FEE356E9A
:102D9300F56ED3E56F949AE56E940B4022E50A70C5
:102DA3001EE56F2484FFE56E34F4FE900043E0FDDE
:102DB3007C00123F41EF256FF56FEE356EF56ED354
:102DC300E56F9426E56E940C4022E50A701EE56FCC
:102DD30024E4FFE56E34F3FE900043E0FD7C001233
:102DE3003F41EF256FF56FEE356EF56ED3E56F94CA
:102DF300A0E56E940F5003022FE2756E13756F7E7C
:102E0300022FE285706E85716FAC70AD71E4123E76
:102E1300757BCD7ACC790C7840123DD3E4FBFA79FB
:102E2300A07843123CDF123EAE8E6E8F6FD3E56FF8
:102E33009454E56E9401401FE56F24B6FFE56E34AC
:102E4300FEFE900045E0FD7C00123F41C3E56F9F0D
:102E5300F56FE56E9EF56ED3E56F943AE56E9402D9
:102E6300401FE56F24D0FFE56E34FDFE900044E083
:102E7300FD7C00123F41C3E56F9FF56FE56E9EF544
:102E83006ED3E56F94ACE56E9403401FE56F247237
:102E9300FFE56E34FCFE900044E0FD7C00123F41F0
:102EA300C3E56F9FF56FE56E9EF56ED3E56F9414E2
:102EB300E56E9405401FE56F240AFFE56E34FBFEC3
:102EC300900044E0FD7C00123F41C3E56F9FF56F26
:102ED300E56E9EF56ED3E56F94B8E56E9406401FDC
:102EE300E56F245CFFE56E34F9FE900044E0FD7C61
:102EF30000123F41C3E56F9FF56FE56E9EF56ED3FC
:102F0300E56F947AE56E9408401CE56F249AFFE51B
:102F13006E34F7FE7C007D1C123F41C3E56F9FF5C5
:102F23006FE56E9EF56ED3E56F9432E56E940A40BD
:102F33001FE56F24ECFFE56E34F5FE900045E0FDE0
:102F43007C00123F41C3E56F9FF56FE56E9EF56E02
:102F5300D3E56F94A4E56E940B401FE56F2470FFD7
:102F6300E56E34F4FE900045E0FD7C00123F41C362
:102F7300E56F9FF56FE56E9EF56ED3E56F94B7E54C
:102F83006E940D401FE56F24AEFFE56E34F2FE90A4
:102F93000045E0FD7C00123F41C3E56F9FF56FE5FF
:102FA3006E9EF56ED3E56F9490E56E940F401FE52A
:102FB3006F24E2FFE56E34F0FE900046E0FD7C00F6
:102FC300123F41C3E56F9FF56FE56E9EF56ED3E546
:102FD3006F9488E56E94134006756E17756F6FAE28
:102FE3006EAF6F228E668F67E4F509E508640160B2
:102FF30003023150D3E567948AE5669401AC66AD6C
:10300300675030E4123E757BD77AA379B0783F12CC
:103013003DD3A804A905AA06AB07E4FFFE7DA07C67
:1030230043123CDB123EAE8E688F69750A01E4F5EC
:10303300088026E4123E757BD77AA379B0783F12D5
:103043003DD3E4FBFA79A078C3123CDF123EAE8E87
:10305300688F69E4F50A75080185686A85696BD329
:10306300E5699428E56894004022E50A701EE56945
:103073002428FFE43568FE90004DE0FD7C00123FFC
:1030830041C3E56B9FF56BE56A9EF56AD3E56994E9
:10309300B6E56894034023E50A701FE569244AFFF7
:1030A300E56834FCFE90004CE0FD7C00123F41C318
:1030B300E56B9FF56BE56A9EF56AD3E569949EE53A
:1030C3006894074023E50A701FE5692462FFE568F9
:1030D30034F8FE90004CE0FD7C00123F41C3E56BE9
:1030E3009FF56BE56A9EF56AD3E5699428E56894D4
:1030F3000A4023E50A701FE56924D8FFE56834F523
:10310300FE90004CE0FD7C00123F41C3E56B9FF550
:103113006BE56A9EF56AD3E5699480E568940C5083
:103123000302347FE50A600302347FE5692480FFEC
:10313300E56834F3FE90004CE0FD7C00123F41C390
:10314300E56B9FF56BE56A9EF56A02347FAC66AD6D
:1031530067E4123E757BD77AA379B0783F123DD3EB
:10316300E4FBFA79A07843123CDF123EAE8E688FFF
:103173006985686A85696BC3E5699414E568940594
:10318300401DE42569FFE56834FBFE90004EE0FD39
:103193007C00123F41EF256BF56BEE356AF56AC390
:1031A300E5699498E5689408401EE5692468FFE59D
:1031B3006834F7FE900050E0FD7C00123F41EF259C
:1031C3006BF56BEE356AF56AC3E56994B2E568940D
:1031D3000C401EE569244EFFE56834F3FE90004E73
:1031E300E0FD7C00123F41EF256BF56BEE356AF590
:1031F3006AC3E5699404E5689410401EE56924FCFC
:10320300FFE56834EFFE90004EE0FD7C00123F4185
:10321300EF256BF56BEE356AF56AC3E5699488E5CE
:10322300689413401EE5692478FFE56834ECFE904A
:103233000050E0FD7C00123F41EF256BF56BEE354E
:103243006AF56AC3E56994A8E5689416401EE569C2
:103253002458FFE56834E9FE900050E0FD7C00123D
:103263003F41EF256BF56BEE356AF56AC3E568946C
:1032730019401DE42569FFE56834E7FE90004FE03F
:10328300FD7C00123F41EF256BF56BEE356AF56A65
:10329300C3E56994A2E568941C401EE569245EFFBA
:1032A300E56834E3FE90004EE0FD7C00123F41EF01
:1032B300256BF56BEE356AF56AC3E569940EE5682F
:1032C300941F401EE56924F2FFE56834E0FE900098
:1032D3004EE0FD7C00123F41EF256BF56BEE356A46
:1032E300F56AC3E56994FCE5689421401EE5692409
:1032F30004FFE56834DEFE90004EE0FD7C00123FE3
:1033030041EF256BF56BEE356AF56AC3E56994EA1F
:10331300E5689424401EE5692416FFE56834DBFE66
:1033230090004FE0FD7C00123F41EF256BF56BEE03
:10333300356AF56AC3E56994ACE5689426401EE5F1
:10334300692454FFE56834D9FE900051E0FD7C0008
:10335300123F41EF256BF56BEE356AF56AC3E569FC
:103363009404E5689429401EE56924FCFFE568346C
:10337300D6FE900050E0FD7C00123F41EF256BF537
:103383006BEE356AF56AC3E56994F4E56894294000
:103393001EE569240CFFE56834D6FE900051E0FD7C
:1033A3007C00123F41EF256BF56BEE356AF56AC37E
:1033B300E5699488E568942C401EE5692478FFE567
:1033C3006834D3FE90004FE0FD7C00123F41EF25AF
:1033D3006BF56BEE356AF56AC3E5699418E5689495
:1033E3002E401EE56924E8FFE56834D1FE900051C4
:1033F300E0FD7C00123F41EF256BF56BEE356AF57E
:103403006AC3E56994DAE568942F401EE5692426CA
:10341300FFE56834D0FE900051E0FD7C00123F418F
:10342300EF256BF56BEE356AF56AC3E56994CEE576
:10343300689431401EE5692432FFE56834CEFE907E
:10344300004CE0FD7C00123F41EF256BF56BEE3540
:103453006AF56AC3E5699458E5689434401EE569E2
:1034630024A8FFE56834CBFE90004CE0FD7C0012FD
:103473003F41EF256BF56BEE356AF56AAE6AAF6BCC
:10348300228E6C8F6DE4F509E50864017066D3E55F
:103493006D94B5E56C9403AC6CAD6D5031E4123EA4
:1034A300757BA47A70793D7840123DD3A804A905B1
:1034B300AA06AB07E4FFFE7DA07C43123CDB123E71
:1034C300AE8E6E8F6F750A01E4F50802391AE412A5
:1034D3003E757BA47A70793D7840123DD3E4FBFAC4
:1034E30079A078C3123CDF123EAE8E6E8F6FE4F587
:1034F3000A02391AAC6CAD6DE4123E757BA47A7086
:10350300793D7840123DD3E4FBFA79A07843123C2D
:10351300DF123EAE8E6E8F6FD3E56D941AE56C9419
:1035230004401FE56D2418FFE56C34FCFE90001188
:10353300E0FD7C00123F41C3E56F9FF56FE56E9E92
:10354300F56ED3E56D94F1E56C9409401FE56D24A8
:103553001EFFE56C34F6FE900011E0FD7C00123F87
:1035630041C3E56F9FF56FE56E9EF56ED3E56D94F0
:1035730006E56C9411401FE56D2402FFE56C34EF02
:10358300FE900012E0FD7C00123F41C3E56F9FF502
:103593006FE56E9EF56ED3E56D9446E56C941E4023
:1035A3001EE4256DFFE56C34E2FE900013E0FD7C24
:1035B30000123F41C3E56F9FF56FE56E9EF56ED335
:1035C300E56D949AE56C9429401FE56D2452FFE55F
:1035D3006C34D6FE900013E0FD7C00123F41C3E53E
:1035E3006F9FF56FE56E9EF56ED3E56D94F2E56C16
:1035F300942B401EE56D2440FFE56C34D4FE90000F
:1036030013E0FD7C00123F41EF256FF56FEE356E41
:10361300F56ED3E56D9448E56C943A401FE56D244F
:1036230062FFE56C34C6FE900013E0FD7C00123FA0
:1036330041C3E56F9FF56FE56E9EF56ED3E56D941F
:103643003CE56C943C401EE56D24D8FFE56C34C327
:10365300FE900012E0FD7C00123F41EF256FF56FF5
:10366300EE356EF56ED3E56D94D4E56C9444401F4E
:10367300E56D2440FFE56C34BBFE900014E0FD7C57
:1036830000123F41C3E56F9FF56FE56E9EF56ED364
:10369300E56D94BCE56C9448401EE56D2458FFE548
:1036A3006C34B7FE900012E0FD7C00123F41EF2521
:1036B3006FF56FEE356EF56ED3E56D948CE56C9416
:1036C30050401FE56D2488FFE56C34AFFE90001376
:1036D300E0FD7C00123F41C3E56F9FF56FE56E9EF1
:1036E300F56ED3E56D945CE56C9458401EE56D244E
:1036F300B8FFE56C34A7FE900012E0FD7C00123F9A
:1037030041EF256FF56FEE356EF56ED3E56D9438A9
:10371300E56C945E401FE56D24DCFFE56C34A1FE8F
:10372300900012E0FD7C00123F41C3E56F9FF56FEF
:10373300E56E9EF56ED3E56D94D0E56C9466401E00
:10374300E56D2444FFE56C3499FE900014E0FD7CA4
:1037530000123F41EF256FF56FEE356EF56ED3E541
:103763006D9454E56C946A401FE56D2424FFE56C69
:103773003496FE900013E0FD7C00123F41C3E56FD9
:103783009FF56FE56E9EF56ED3E56D94B4E56C948D
:1037930073401FE56D2460FFE56C348CFE900013CD
:1037A300E0FD7C00123F41C3E56F9FF56FE56E9E20
:1037B300F56ED3E56D94DCE56C947D401FE56D24D7
:1037C30038FFE56C3482FE900013E0FD7C00123F6D
:1037D30041C3E56F9FF56FE56E9EF56EAE6CAF6D01
:1037E300E4FCFD7BA07A87F9F8C3123FA4502CE5D3
:1037F3006D2474FFE56C3478FEE434FFFDE434FF9C
:10380300FCC007900012E0FBE4FAF8D00712592439
:10381300C3E56F9FF56FE56E9EF56EAE6CAF6DE41D
:10382300FCFD7BB47A8CF9F8C3123FA4502CE56DF0
:103833002460FFE56C3473FEE434FFFDE434FFFCE5
:10384300C007900013E0FBE4FAF8D007125924C331
:10385300E56F9FF56FE56E9EF56EAE6CAF6DE4FCA4
:10386300FD7BDC7A96F9F8C3123FA4502CE56D2456
:1038730038FFE56C3469FEE434FFFDE434FFFCC03B
:1038830007900013E0FBE4FAF8D007125924C3E5CC
:103893006F9FF56FE56E9EF56EAE6CAF6DE4FCFD4C
:1038A3007B8C7A9BF9F8C3123FA4502CE56D2488D6
:1038B300FFE56C3464FEE434FFFDE434FFFCC00731
:1038C300900012E0FBE4FAF8D007125924C3E56F25
:1038D3009FF56FE56E9EF56EAE6CAF6DE4FCFD7B00
:1038E3002C7AABF9F8C3123FA4502CE56D24E8FF02
:1038F300E56C3454FEE434FFFDE434FFFCC0079070
:103903000011E0FBE4FAF8D007125924C3E56F9FD6
:10391300F56FE56E9EF56EAE6EAF6F221257FEBF6A
:103923000106752C04023CD378ABE660068523536D
:103933008524547888E670757604124725E5552565
:10394300E0248CF8A60608A607E555C394045004A2
:10395300055580597890E6FE08E67802CEC313CE6B
:1039630013D8F9FDAC067892E6FE08E67802CEC3DA
:1039730013CE13D8F92DFDEE3CFC788EE6FE08E657
:103983007802CEC313CE13D8F92DFDEC3EFC788C10
:10399300E6FE08E67802CEC313CE13D8F92DF5540C
:1039A300EC3EF553E4F55578ABE66001167881E615
:1039B3006003023C6276101255CC78AAE6FD25E03E
:1039C300248CF8A60608A607EDC3940D500E78AA1A
:1039D3000678A6E6F56408E6F565806978A2E6FE52
:1039E30008E6FF7C007D05123F41AA06AB0778A4D9
:1039F300E6FE08E6FF7C007D05123F41EF2BFBEE60
:103A03003AFA78A0E6FE08E6FF7C007D05123F4106
:103A1300EF2BFBEE3AFA789EE6FE08E6FF7C007D8C
:103A230005123F41EF2BFBEE3AFA789CE6FE08E6DF
:103A3300FF7C007D05123F41EF2B78A7F6EE3A1885
:103A4300F678AA7608E53070487D1812506D8E68B6
:103A53008F691214258E668F67AC66AD67E4123EDC
:103A6300757B337A3379437842123DD3123EAE8E5F
:103A7300688F69AE66AF677C007D26123F41EF24F5
:103A8300A3F56BE43EF56AE55A6003023C62023C2F
:103A930057E5306401705DAE53AF54FC7D14125092
:103AA300728E688F691234848E668F67AC66AD67D9
:103AB300E4123E757B337A3379DB7841123DD312BE
:103AC3003EAE8E688F69AC66AD67E4123E757B339C
:103AD3007A3379AB7841123DD3E4FBFA7923784307
:103AE300123CDF123EAE8E6A8F6BE55A6003023CD6
:103AF30062023C57E5306402704CAE53AF54FC7D18
:103B0300171250728E688F69122A778E668F67AC90
:103B130066AD67E4123E75E4FBFA79F07840123D36
:103B2300D3123EAE8E688F69AE66AF677C007D06AA
:103B3300123F41EF24A3F56BE43EF56AE55A6003B7
:103B4300023C62023C57E5306403705CAE53AF54F1
:103B5300FC7D0E1250728E688F69120BC38E668FB6
:103B630067AC66AD67E4123E757B667A6679E27888
:103B730041123DD3123EAE8E688F69AC66AD67E4E9
:103B8300123E75E4FBFA79B47841123DD3E4FBFAB3
:103B930079237843123CDF123EAE8E6A8F6BE55A6F
:103BA3006003023C62023C57E530640470511250DA
:103BB300688E688F691243D78E668F67AC66AD6770
:103BC300E4123E757B337A3379637842123DD31224
:103BD3003EAE8E688F69AC66AD67E4123E75E4FB5A
:103BE300FA79327842123DD3E4FBFA79237843120F
:103BF3003CDF123EAE8E6A8F6BE55A70628055E5EC
:103C0300306405705A1250688E688F691240888E2E
:103C1300668F67AC66AD67E4123E757B337A3379A2
:103C2300637842123DD3123EAE8E688F69AC66ADA7
:103C330067E4123E75E4FBFA79327842123DD3E42D
:103C4300FBFA79237843123CDF123EAE8E6A8F6B08
:103C5300E55A700BAF67AE661255138E668F6778A1
:103C630082E6700712578D788276087880E6702690
:103C73007620AD67AC667F01121C02D3E567954BD6
:103C8300E566954A400EE5679549E5669548500413
:103C9300D2B48002C2B47885E67018208407AF6975
:103CA300AE68125BFD208507AF6BAE6A125B4E7880
:103CB3008576107884E67018200109856799D2010A
:103CC3007601800AE566F599C2017884763BD2993C
:103CD300AE66AF6722023F1AE86480F8E933E8333F
:103CE30060110460F0ED33EC337009E8FCE9FDEAA0
:103CF300FEEBFF220460DED3EB9FEA9EE99DE8C260
:103D0300E78CF0C2F795F0400CE8CCF8E9CDF9EA7E
:103D1300CEFAEBCFFB123EE585D0F05804700320BA
:103D2300D5B3E80470075002B2D5023F2492D5EC14
:103D33000460F7E4CCC0E0C398F8603B94186008D3
:103D4300400DD0E0FB023EFCE4FBFAC9FC8028E80E
:103D530030E406E4C9FBE4CAFCE830E305E4C9CA7D
:103D6300CBFCE854076010F8C3E913F9EA13FAEB44
:103D730013FBEC13FCD8F130F52FC3E49CFCEF9B51
:103D8300FFEE9AFEED99FDD0E0FBEF4E4D4C701225
:103D930022DB03023F21EC2CFCEF33FFEE33FEED7D
:103DA30033FDED30E7EB023EFCEF2BFFEE3AFEED89
:103DB30039FDD0E0FB50130BBB0003023F24ED138E
:103DC300FDEE13FEEF13FFEC13FC023EFC023F2457
:103DD300EC5D046005E859047003023F1A123EE5E6
:103DE300580460F6EC4860F2EC7004FDFEFF22C854
:103DF30060DB2481C85009C39860025006023F214A
:103E03009850CAF582E9294B4A7005AB82023F10EC
:103E130075F0007C1A7880C3EF9BEE9AED99400D04
:103E2300C3EF9BFFEE9AFEED99FDE842F0DC23AC75
:103E3300F0D0E0FFD0E0FED0E0FDAB8220E7101B26
:103E4300EB60BAEC2CFCEF33FFEE33FEED33FD02F7
:103E53003EFCE803F830E705C0F075F000EF2FFFF4
:103E6300EE33FEED33FD40B830E7C280AA75F02093
:103E7300800E75F010800575F0087D007E007F00D0
:103E83003392D530D503123F96EC334010EF33FF16
:103E9300EE33FEED33FDEC33FCD5F0ED22E5F024FB
:103EA3007EA2D513CC92E7CDCEFF22EDD2E7CD3360
:103EB300EC3392D524814006E4FFFEFDFC22FCE4B2
:103EC300CFCECDCC24E0501174FF80EDC3CC13CC06
:103ED300CD13CDCE13CECF13CF0470F030D5DE0289
:103EE3003F96E9D2E7C933E833F892D5EDD2E7CD6F
:103EF30033EC33FC5002B2D522EC30E7100FBF0095
:103F03000C0EBE00080DBD00040BEB6014A2D5EB34
:103F130013FCED92E7FD2274FFFCFDFEFF22E4801B
:103F2300F8A2D574FF13FC7D80E480EFEF8DF0A43D
:103F3300A8F0CF8CF0A428CE8DF0A42EFE22BC00D6
:103F43000BBE0029EF8DF084FFADF022E4CCF875B1
:103F5300F008EF2FFFEE33FEEC33FCEE9DEC9840C0
:103F630005FCEE9DFE0FD5F0E9E4CEFD22EDF8F55C
:103F7300F0EE8420D21CFEADF075F008EF2FFFEDBC
:103F830033FD4007985006D5F0F222C398FD0FD5B4
:103F9300F0EA22C3E49FFFE49EFEE49DFDE49CFC63
:103FA30022EB9FF5F0EA9E42F0E99D42F0EC64803B
:103FB300C864809845F02275F008758200EF2FFFE2
:103FC300EE33FECD33CDCC33CCC58233C5829BEDEE
:103FD3009AEC99E58298400CF582EE9BFEED9AFDF2
:103FE300EC99FC0FD5F0D6E4CEFBE4CDFAE4CCF9A2
:103FF300A88222B800C1B90059BA002DEC8BF08415
:10400300CFCECDFCE5F0CBF97818EF2FFFEE33FEE2
:10401300ED33FDEC33FCEB33FB10D703994004EB9A
:1040230099FB0FD8E5E4F9FA227818EF2FFFEE3366
:10403300FEED33FDEC33FCC933C910D7059BE99A78
:104043004007EC9BFCE99AF90FD8E0E4C9FAE4CC09
:10405300FB2275F010EF2FFFEE33FEED33FDCC3373
:10406300CCC833C810D7079BEC9AE899400AED9B5C
:10407300FDEC9AFCE899F80FD5F0DAE4CDFBE4CC3B
:10408300FAE4C8F9228E6C8F6DE50864017049D398
:10409300E56D9468E56C94005034AC6CAD6DE4123E
:1040A3003E757B487AE1790A7840123DD3A804A98A
:1040B30005AA06AB07E4FFFEFD7C42123CDB123E81
:1040C300AE8E6E8F6F750A01E4F5080243D2E4F5F4
:1040D3000AF56EF56F0243D2AC6CAD6DE4123E751A
:1040E3007BCD7ACC794C7840123DD3E4FBFAF97856
:1040F30042123CDF123EAEAB07AA068A6E8B6FC339
:10410300EB9432EA9400401DEB24CEFFEA34FFFE29
:10411300900031E0FD7C00123F41C3E56F9FF56FD6
:10412300E56E9EF56EC3EB946DEA9400401DEB249F
:1041330093FFEA34FFFE900030E0FD7C00123F4124
:10414300C3E56F9FF56FE56E9EF56EC3EB94AEEA24
:104153009400401DEB2452FFEA34FFFE900032E04E
:10416300FD7C00123F41C3E56F9FF56FE56E9EF541
:104173006EC3EB94F8EA9400401DEB2408FFEA3485
:10418300FFFE900033E0FD7C00123F41C3E56F9FCB
:10419300F56FE56E9EF56EC3EB9471EA9401401DD5
:1041A300EB248FFFEA34FEFE900034E0FD7C001226
:1041B3003F41C3E56F9FF56FE56E9EF56EC3EB94CC
:1041C300C8EA9401401DEB2438FFEA34FEFE900058
:1041D30035E0FD7C00123F41C3E56F9FF56FE56E4F
:1041E3009EF56EC3EB944FEA9402401DEB24B1FF9E
:1041F300EA34FDFE900036E0FD7C00123F41C3E54A
:104203006F9FF56FE56E9EF56EC3EB941CEA940306
:10421300401DEB24E4FFEA34FCFE900036E0FD7C15
:1042230000123F41C3E56F9FF56FE56E9EF56EC3C8
:10423300EB94F2EA9403401DEB240EFFEA34FCFEF8
:10424300900038E0FD7C00123F41C3E56F9FF56F9E
:10425300E56E9EF56EC3EB9426EA9405401DEB24B0
:10426300DAFFEA34FAFE900036E0FD7C00123F41AB
:10427300C3E56F9FF56FE56E9EF56EC3EB9484EA1D
:104283009406401DEB247CFFEA34F9FE90003AE0EB
:10429300FD7C00123F41C3E56F9FF56FE56E9EF510
:1042A3006EC3EB946DEA9408401DEB2493FFEA344C
:1042B300F7FE900038E0FD7C00123F41C3E56F9F9D
:1042C300F56FE56E9EF56EC3EB946DEA9409401DA0
:1042D300EB2493FFEA34F6FE90003AE0FD7C0012F3
:1042E3003F41C3E56F9FF56FE56E9EF56EC3EB949B
:1042F30041EA940B401DEB24BFFFEA34F4FE900027
:1043030039E0FD7C00123F41C3E56F9FF56FE56E19
:104313009EF56EC3EB94C9EA940C401DEB2437FF62
:10432300EA34F3FE90003DE0FD7C00123F41C3E51B
:104333006F9FF56FE56E9EF56EC3EB9485EA940E61
:10434300401DEB247BFFEA34F1FE90003EE0FD7C50
:1043530000123F41C3E56F9FF56FE56E9EF56EC397
:10436300EB941CEA9411401DEB24E4FFEA34EEFEC7
:1043730090003EE0FD7C00123F41C3E56F9FF56F67
:10438300E56E9EF56EC3EB94D6EA9413401CEB24C2
:104393002AFFEA34ECFE90003EE0FD7C00123F4130
:1043A300EF256FF56FEE356EF56EC3EB94B2EA94BD
:1043B30014401CEB244EFFEA34EBFE90003EE0FD7C
:1043C3007C00123F41EF256FF56FEE356EF56EAE53
:1043D3006EAF6F228E6C8F6DE50864017049D3E573
:1043E3006F9467E56E94005034AC6CAD6DE4123E8F
:1043F300757B487AE1790A7840123DD3A804A90570
:10440300AA06AB07E4FFFEFD7C42123CDB123EAE84
:104413008E6E8F6F750A01E4F508024720E4F50AF2
:10442300F56EF56F024720AC6CAD6DE4123E757B03
:10443300717A3D794A7840123DD3E4FBFAF9784228
:10444300123CDF123EAEAB07AA068A6E8B6FC3EB3C
:104453009445EA9400401DEB24C5FFEA34FFFE9027
:104463000021E0FD7C00123F41C3E56F9FF56FE53E
:104473006E9EF56EC3EB946DEA9400401DEB24939E
:10448300FFEA34FFFE900022E0FD7C00123F41C3AF
:10449300E56F9FF56FE56E9EF56EC3EB9499EA9415
:1044A30000401DEB2467FFEA34FFFE900023E0FD8C
:1044B3007C00123F41C3E56F9FF56FE56E9EF56E7D
:1044C300C3EB94C7EA9400401DEB2439FFEA34FFA1
:1044D300FE900024E0FD7C00123F41C3E56F9FF591
:1044E3006FE56E9EF56EC3EB9411EA9401401DEBEC
:1044F30024F0FFEA34FEFE900025E0FD7C00123F2D
:1045030041C3E56F9FF56FE56E9EF56EC3EB947B3C
:10451300EA9401401DEB2486FFEA34FEFE9000235B
:10452300E0FD7C00123F41C3E56F9FF56FE56E9E92
:10453300F56EC3EA9402401DEB2401FFEA34FEFE4C
:10454300900026E0FD7C00123F41C3E56F9FF56FAD
:10455300E56E9EF56EC3EB94A1EA9402401DEB2435
:1045630060FFEA34FDFE900027E0FD7C00123F412E
:10457300C3E56F9FF56FE56E9EF56EC3EB9460EA3E
:104583009403401DEB24A1FFEA34FCFE900028E0D5
:10459300FD7C00123F41C3E56F9FF56FE56E9EF50D
:1045A3006EC3EB944AEA9404401DEB24B7FFEA344C
:1045B300FBFE900029E0FD7C00123F41C3E56F9FA5
:1045C300F56FE56E9EF56EC3EB9462EA9405401DAC
:1045D300EB249FFFEA34FAFE90002AE0FD7C0012F0
:1045E3003F41C3E56F9FF56FE56E9EF56EC3EB9498
:1045F300A9EA9406401DEB2458FFEA34F9FE900023
:104603002BE0FD7C00123F41C3E56F9FF56FE56E24
:104613009EF56EC3EB94B0EA9407401DEB2451FF63
:10462300EA34F8FE90002DE0FD7C00123F41C3E523
:104633006F9FF56FE56E9EF56EC3EB94E6EA940803
:10464300401DEB241BFFEA34F7FE90002CE0FD7CB9
:1046530000123F41C3E56F9FF56FE56E9EF56EC394
:10466300EB9426EA940A401DEB24DBFFEA34F5FEC3
:1046730090002DE0FD7C00123F41C3E56F9FF56F75
:10468300E56E9EF56EC3EB949BEA940B401DEB2401
:1046930066FFEA34F4FE90002EE0FD7C00123F41F9
:1046A300C3E56F9FF56FE56E9EF56EC3EB9448EA25
:1046B300940D401DEB241DFFEA34F3FE90002EE021
:1046C300FD7C00123F41C3E56F9FF56FE56E9EF5DC
:1046D3006EC3EB9403EA940F401DEB24FEFFEA3410
:1046E300F0FE90002EE0FD7C00123F41C3E56F9F7A
:1046F300F56FE56E9EF56EC3EB9456EA9411401D7B
:10470300EB24ABFFEA34EEFE90002FE0FD7C0012B9
:104713003F41C3E56F9FF56FE56E9EF56EAE6EAFDD
:104723006F22D2A59000007F017E00125D0930A5A3
:1047330003A380FAC2A5D3E5829480E583947C40E9
:1047430006E4FAFB0249BDC374809582FD747C952F
:1047530083FCE4123E757B337A33799B7841123DB7
:10476300D3123EAEAA06AB07D3EB9479EA9400507A
:10477300030249BDEB2488FFEA34FFFE7C007D0C75
:10478300123F41C3EB9FFBEA9EFAD3EB94FCEA94FE
:104793000050030249BDEB2405FFEA34FFFE7C0011
:1047A3007D14123F41EF2BFBEE3AFAD3EB9419EA57
:1047B300940150030249BDEB24E8FFEA34FEFE7C7A
:1047C300007D12123F41C3EB9FFBEA9EFAD3EB94A9
:1047D30091EA940150030249BDEB2470FFEA34FED1
:1047E300FE7C007D1C123F41EF2BFBEE3AFAD3EB2C
:1047F300941DEA940250030249BDEB24E4FFEA341A
:10480300FDFE7C007D0F123F41EF2BFBEE3AFAD306
:10481300EB9481EA940250030249BDEB2480FFEA42
:1048230034FDC4F854F0C868FEEFC4540F482BFBA2
:10483300EE3AFAD3EB94DBEA940250030249BDEB60
:104843002426FFEA34FDFE7C007D0B123F41EF2B53
:10485300FBEE3AFAD3EB945DEA940350030249BDAD
:10486300EB24A4FFEA34FCFEEF7803CEC313CE138C
:10487300D8F92BFBEE3AFAD3EB94ADEA9403500349
:104883000249BDEB2454FFEA34FCFE7C007D0E128A
:104893003F41EF2BFBEE3AFAD3EB94F3EA94035048
:1048A300030249BDEB240EFFEA34FCFE7C007D0AC3
:1048B300123F41EF2BFBEE3AFAD3EB9411EA940447
:1048C30050030249BDEB24F0FFEA34FBFE7C007D7C
:1048D3000E123F41C3EB9FFBEA9EFAD3EB9439EAF6
:1048E300940450030249BDEB24C8FFEA34FBFE7C69
:1048F300007D05123F41EF2BFBEE3AFAD3EB949D7B
:10490300EA940450030249BDEB2464FFEA34FBFE3E
:104913007C007D09123F41EF2BFBEE3AFAD3EB9477
:10492300F7EA940450030249BDEB240AFFEA34FB7F
:10493300FE7C007D0A123F41EF2BFBEE3AFAD3EBEC
:104943009451EA94054073EB24B0FFEA34FAFE7CF9
:10495300007D06123F41EF2BFBEE3AFAD3EB94D3E3
:10496300EA94054055EB242EFFEA34FAFEEF780370
:10497300CEC313CE13D8F92BFBEE3AFAD3EB94053F
:10498300EA94064035EB24FCFFEA34F9FEEF7802A3
:10499300CEC313CE13D8F92BFBEE3AFAD3EB94BE66
:1049A300EA94064015EB2448FFEA34F9FE7C007DC7
:1049B3000A123F41EF2BFBEE3AFAAF03AE0222C2DB
:1049C3008CAF89EF4401F589F589758CDCE4F58AB0
:1049D300C28D75E50775E64675E6B9AFE2EF4408A3
:1049E300F5E2F5E275E50675E64675E6B9D28CA201
:1049F3008DB340FBC28DC28C75E50775E64675E63F
:104A0300B9AFE2EF4403F5E2F5E275E50675E64674
:104A130075E6B975E50775E64675E6B9AFE2EF5495
:104A2300FBF5E2F5E275E50675E64675E6B97593BD
:104A3300FFE4F5947580FFF5917592FFF5907595F8
:104A4300247596FFF5A075B1ED75B21375B02CD230
:104A530096D2A2125C91125BAC125E01125E11122D
:104A63005CCD125D20E4FFFE125B4E125D3AE4FF63
:104A7300FE125BFDE4FF125D97E4F53AFF125C253D
:104A8300EF644E70227F01125C25BF451A7F02122C
:104A93005C25BF57127F03125C25BF5A0A7F04129D
:104AA3005C25EF64A560297D4EE4FF125C4C7D45D7
:104AB3007F01125C4C7D577F02125C4C7D5A7F0351
:104AC300125C4C7DA57F04125C4C1258CF1251C569
:104AD300125D3A7F12125C258F397F13125C258F8A
:104AE3005A7F14125C258F307F16125CE98E288F53
:104AF300297F18125CE98E5F8F607F1A125CE98E42
:104B03004C8F4D7F1C125CE98E458F467F1E125CD5
:104B1300E98E3C8F3D7F20125CE98E358F367F22F4
:104B2300125CE98E318F327F24125CE98E2A8F2B3F
:104B33007F26125CE98E4A8F4B7F28125CE98E48F0
:104B43008F497F2A125C258F527F2B125C258F6140
:104B53007F2C125C258F5B7F2E125C258F5C7F2F51
:104B6300125C258F5D7F30125C258F567F32125C7D
:104B7300257543008F447F34125CE98E578F587F2D
:104B830036125CE98E3E8F3F7F38125CE98E2E8FA2
:104B93002F7F3A125CE98E258F267F3C125CE98ECB
:104BA300238F24E42552F538E43420F5371258CF07
:104BB300D2A9D28CD2ABD28ED2AF753B011257049D
:104BC300E5397007E54430E0278022E539B4010771
:104BD300E54430E11B8016E539B40207E54430E2D1
:104BE3000F800AE539B40308E54430E30375470150
:104BF300E52C14602614602814602A14602C1460B9
:104C030031240570EBE539700DE54430E405752278
:104C1300018003E4F52212391F80D5124F0680D09C
:104C2300124C3A80CB124DA080C675340112002677
:104C330080BE1252A380B91257FEBF0106752C0421
:104C4300024D9B7881E66003024D2876101255CC05
:104C53008E648F65E547B40124E508B4011FD3E5ED
:104C630065953DE564953C40028047C3E53D956508
:104C7300F565E53C9564F564E4F5088053E547B4D0
:104C83000106E50870028009E5477013E508B401E1
:104C93000EE53D2565F565E53C3564F5648031E554
:104CA30047702DE5087029C3E565953DE564953C9E
:104CB300400EE565953DF565E564953CF56480102A
:104CC300C3E53D9565F565E53C9564F564750801B7
:104CD300D3E5369480E535940CAC2EAD2FAE64AF9E
:104CE30065400F123F41EF2565F565EE3564F564C8
:104CF300800E123F41C3E5659FF565E5649EF5644B
:104D0300AC64AD65E4123E757BCD7ACC794C7840CA
:104D1300123DD3123EAE8E648F65E55EB401067418
:104D2300FFF564F5657880E67028AD65AC647F01B6
:104D3300121C0278807608D3E565954BE564954AA5
:104D4300400EE5659549E56495485004D2B4800268
:104D5300C2B47885E67018208407AF65AE64125B31
:104D6300FD208507AF65AE64125B4E7885760278C9
:104D730082E6700712578D788276087884E6701879
:104D8300200109856599D2017601800AE564F599C8
:104D9300C2017884763BD299AE64AF65221257FE86
:104DA300BF0106752C04024F017881E66003024EB1
:104DB3008E76101255CC8E648F65E547B40124E5D9
:104DC30008B4011FC3E5659532E56495314002805F
:104DD30047C3E5329565F565E5319564F564E4F51A
:104DE300088053E547B40106E50870028009E547EA
:104DF3007013E508B4010EE5322565F565E5313537
:104E030064F5648031E547702DE5087029C3E565D5
:104E13009532E5649531400EE5659532F565E564B7
:104E23009531F5648010C3E5329565F565E53195F7
:104E330064F564750801D3E52B9400E52A9419AC55
:104E430025AD26AE64AF65400F123F41EF2565F5F2
:104E530065EE3564F564800E123F41C3E5659FF549
:104E630065E5649EF564AC64AD65E4123E757BCD87
:104E73007ACC794C7840123DD3123EAE8E648F6566
:104E8300E55EB4010674FFF564F5657880E6702885
:104E9300AD65AC647F01121C0278807610D3E565A2
:104EA300954BE564954A400EE5659549E56495485B
:104EB3005004D2B48002C2B47885E6701820840707
:104EC300AF65AE64125BFD208507AF65AE64125B10
:104ED3004E788576027882E6700712578D7882764F
:104EE300087884E67018200109856599D201760156
:104EF300800AE564F599C2017884763BD299AE6461
:104F0300AF65221257FEBF0106752C040250637869
:104F130081E66003024FF076101255CC8E648F65E4
:104F2300E547B40124E508B4011FC3E565954DE5E4
:104F330064954C40028047C3E54D9565F565E54CA6
:104F43009564F564E4F5088053E547B40106E50884
:104F530070028009E5477013E508B4010EE54D259D
:104F630065F565E54C3564F5648031E547702DE5FD
:104F7300087029C3E565954DE564954C400EE565DC
:104F8300954DF565E564954CF5648010C3E54D9545
:104F930065F565E54C9564F564750801D3E54694BC
:104FA300E4E5459444AC3EAD3FAE64AF65400F12BB
:104FB3003F41EF2565F565EE3564F564800E123FDC
:104FC30041C3E5659FF565E5649EF564E55EB4015F
:104FD3000674FFF564F565AF65AE64122FE78E6462
:104FE3008F65E55A70071255138E648F657880E6D6
:104FF3007028AD65AC647F01121C0278807610D3F3
:10500300E565954BE564954A400EE5659549E5648C
:1050130095485004D2B48002C2B47885E670182053
:105023008407AF65AE64125BFD208507AF65AE6490
:10503300125B4E788576027882E6700712578D7878
:105043008276087884E67018200109856599D20173
:105053007601800AE564F599C2017884763BD2999A
:10506300AE64AF65227509017D03AE53AF54FC12E4
:105073003F2F7D0A123F418E4F8F50AF65AE64E5DF
:1050830047600302511FE5087065C3EF9529EE954C
:10509300284029EF9529FDEE9528FCC3ED9550ECAA
:1050A300954F4008ED9550FBEC025139E550252909
:1050B300CDE54F3528CDC39FFBED802FC3E5299F59
:1050C300FDE5289EFCC3ED9550EC954FE550400F50
:1050D3002FFFE54F3EFEC3E5299FFBE528800C2506
:1050E30029CDE54F3528CDC39FFBED9E025191C3DA
:1050F300EF9529EE95284012EF9529FDEE9528FCB2
:10510300C3ED9550EC954F025195C3E5299FFDE5FD
:10511300289EFCC3ED9550EC954F8076E5087025ED
:10512300E5292FFBE5283EFAC3EB9550EA954F405E
:105133000AEB9550FBEA954FFA8057C3E5509BFB6A
:10514300E54F9A8049C3EF9529EE95284019EF95CD
:1051530029FBEE9528FAC3EB9550EA954FE5502BC2
:10516300FBE54F3AFA802BC3E5299FFBE5289EFA1E
:10517300C3EB9550EA954F400DEB9550FBEA954FE5
:10518300FAE4F508800CC3E5509BFBE54F9AFA75EA
:105193000801E522AC57AD58AF03AE02B4010B12C0
:1051A3003F41EF2BFBEE3AFA800A123F41C3EB9FDC
:1051B300FBEA9EFAE55EB4010474FFFAFBAF03AEAB
:1051C3000222125704AD397F12125C4CE4FD7F13A7
:1051D300125C4CE4FD7F14125C4CE4FDFC7F161260
:1051E3005DDF7D787C057F18125DDFE4FDFC7F1AAF
:1051F300125DDF7D527C037F1C125DDFE4FDFC7FCB
:105203001E125DDF7D887C137F20125DDF7D287C8D
:10521300007F22125DDF7DC87C007F24125DDFE406
:10522300FDFC7F26125DDF7D887C137F28125DDF06
:105233007D157F2A125C4C7D017F2B125C4C7D0116
:105243007F2C125C4C7D047F2D125C4C7D127F2ED3
:10525300125C4C7D017F2F125C4C7D017F30125C10
:105263004CE4FD7F32125C4C7D017C007F34125D87
:10527300DF7D017C007F36125DDF7D017C007F389E
:10528300125DDF7D017C007F3A125DDFE4FDFC7F70
:105293003C125DDF7D407C007F40125DDF0258CF12
:1052A3001251C5125D3A7F12125C258F397F13129A
:1052B3005C258F5A7F14125C258F307F16125CE9B0
:1052C3008E288F297F18125CE98E5F8F607F1A12F8
:1052D3005CE98E4C8F4D7F1C125CE98E458F467FB7
:1052E30022125CE98E318F327F24125CE98E2A8F81
:1052F3002B7F1E125CE98E3C8F3D7F20125CE98E72
:10530300358F367F26125CE98E4A8F4B7F28125CDD
:10531300E98E488F497F2A125CE98F527F2B125CFA
:10532300258F617F2C125C258F5B7F2D125C258F6F
:10533300517F2E125C258F5C7F2F125C258F5D7F42
:1053430030125C258F567F32125C257543008F44E3
:105353007F34125CE98E578F587F36125CE98E3E9C
:105363008F3F7F38125CE98E2E8F2F7F3A125CE9D4
:105373008E258F267F3C125CE98E238F24220142E7
:1053830000014E00015E000980101004023B02146C
:105393001E0201AB0301AA08024F000002570000DE
:1053A300023E0000022E000002250000022300003E
:1053B30002530000015214016101015B0101510319
:1053C300015C12015D010156010155000134010127
:1053D3003A00C102C101C103010800010900010A29
:1053E300004B001500243038404C586878C8FA49FF
:1053F300000C002028303470A0C8FF4A0040070882
:105403000A101820303840484C0000001020283083
:105413003840606C80B4E1500020000A0E1314166B
:105423001B23262A343C4046506A5000300A0D1094
:10543300121C20283437393B40425A84FA48004A28
:10544300002C2E32363A3E4D00A9057D01AA7FED90
:1054530064017069C291FEC292C290E4FC125E9F25
:10546300D292125E9FC2920CBC08F20EBE02E8E416
:10547300FEC292C290E4FCEA30E702D290125E9F31
:10548300D292125E9FC292C290EA25E0FA0CBC0847
:10549300E6EE7004AA7E801ABE0104AA7D8013BEC4
:1054A3000204AA7C800CBE0304AA038005BE040286
:1054B300AA010EBE06BBD291125E9FC291ED640299
:1054C300704DC295FEC294E4FCEA30E702D2931217
:1054D3005E9FD294125E9FC294C293EA25E0FA0CB7
:1054E300BC08E6EE7004AA7E801ABE0104AA7D8081
:1054F30013BE0204AA7C800CBE0304AA038005BE6B
:105503000402AA010EBE06BDD295125E9FC2952269
:105513008E6C8F6DE5096401703BC3E56D9420E5E6
:105523006C94004019E508700BE56D24E0FDE56C13
:1055330034FF8044E56D2420FDE4356C803AE508B2
:105543007009C37420956DFDE4803BE56D2420FD57
:10555300E4356C8058C3E56D9440E56C9401401AC2
:10556300E508700BE56D24C0FDE56C34FE8009E5AC
:105573006D2440FDE56C34018033E5087026C37467
:1055830040956DFD7401956CFCE4123E757B667A63
:105593006679E6783F123DD3123EAE8E6E8F6F75FD
:1055A30008018020E56D2440FDE56C3401FCE41224
:1055B3003E757B667A6679E6783F123DD3123EAE3E
:1055C3008E6E8F6FAE6EAF6F22125D54EF6003026B
:1055D3005673532D03E52DC39402404B750801E523
:1055E3002D5403756D00F56E756E00F56DE521257F
:1055F3006EF56EE4356DF56DE56EAE6D7807C3330C
:10560300CE33CED8F9F56E8E6DE533C313F533255E
:105613006EF56EE4356DF56D636EFF636DFFC3E587
:105623006D94F040488041E4F508E52D5403756D11
:1056330000F56E756E00F56DE521256EF56EE435AA
:105643006DF56DE56EAE6D7807C333CE33CED8F905
:10565300F56E8E6DE533C313F533256EF56EE435C4
:105663006DF56DC394F04005755E018003E4F55E4E
:10567300AE6DAF6E22787FE4F6D8FD7581AB02562E
:10568300BF0249C2E493A3F8E493A34003F6800165
:10569300F208DFF48029E493A3F85407240CC8C369
:1056A30033C4540F4420C8834004F456800146F6A3
:1056B300DFE4800B0102040810204080905381E452
:1056C3007E019360BCA3FF543F30E509541FFEE401
:1056D30093A360010ECF54C025E060A840B8E493C3
:1056E300A3FAE493A3F8E493A3C8C582C8CAC58305
:1056F300CAF0A3C8C582C8CAC583CADFE9DEE7808A
:10570300BE20801EE4F539F52C7541012084037514
:105713004111208503754121E544640145437069C6
:10572300806420811F753901752C01754102208425
:1057330003754112208503754122E5446402454304
:105743007047804220821F753902752C027541040F
:10575300208403754114208503754124E5446404C2
:10576300454370258020208320753903752C0375EC
:105773004108208403754118208503754128E544B9
:1057830064084543700375470122E4FF125C6FEF21
:10579300547FF5567F01125C6F8F5D7F02125C6F41
:1057A3008F5C7F03125C6FEF5407F5517F04125C2B
:1057B3006F8F5B7F05125C6F8F617F06125C6F8F4B
:1057C30052E561540364017031AD527F2A125C4C7F
:1057D300AD617F2B125C4CAD5B7F2C125C4CAD51E9
:1057E3007F2D125C4CAD5C7F2E125C4CAD5D7F2F28
:1057F300125C4CAD567F30125C4C2230B21030B389
:105803000D30860A308707E4F54EF542805820B202
:1058130013E54E7009754E01E54244018044E542AB
:1058230054FE803E20B310E54E7006E542440280EC
:1058330024E54254FD802B208610E54E7006E54298
:1058430044048011E54254FB8018208719E54E700B
:105853000DE5424408F542F542754E018008E542E4
:1058630054F7F542F542AF4222C0E0C0D075D000F4
:10587300C000C007C28E7889067880E6600116787A
:1058830081E66001167889E6FF540770087882E69E
:10589300600116D200EF640F70217889F67884E6F0
:1058A3006001167885E66001167886E66001167851
:1058B30087E66001167888E6600116758D0B758B97
:1058C300DCD28ED007D000D0D0D0E0327F03125C80
:1058D3006F8F517D407F07125CAFE5514408FD7F18
:1058E30003125CAFE55120E737AD527F06125CAF80
:1058F300AD617F05125CAFAD5B7F04125CAFE55118
:105903004408FD7F03125CAFAD5C7F02125CAFAD58
:105913005D7F01125CAFE5564480FDE4FF125CAF8E
:1059230022C2D5E830E70FB2D5E4C39BFBE49AFA71
:10593300E499F9E498F8EC30E717B2D512595A1202
:105943003FF6E4C39BFBE49AFAE499F9E498F88000
:1059530003123FF630D50DE4C39FFFE49EFEE49DA2
:10596300FDE49CFC22AE07125DA9AF06AE07750BE2
:1059730001E47811F6EE30E704D2A08002C2A0D28F
:10598300A1125EA6C2A1125EA6EE25E0FE78110664
:10599300E6C3940840DFD2A0D2A1125EA630A003D2
:1059A300E4F50BC2A1025EA6AE07E47812F6D2A01C
:1059B30018F6D2A1125EA67812E6FF25E0F630A013
:1059C30004E64401F6C2A1125EA6781106E6C3946A
:1059D3000840DFEE24FF92A0D2A1125EA6C2A1D29C
:1059E300A0125EA67812E6FF22AE07750C01E478DA
:1059F30010F6EE30E704D2A28002C2A2D2A3125E56
:105A0300ADC2A3125EADEE25E0FE781006E6C394A8
:105A13000840DFD2A2D2A3125EAD30A203E4F50C9C
:105A2300C2A3025EADE47811F6D2A218F6D2A31295
:105A33005EAD7811E6FF25E0F630A204E64401F6F8
:105A4300C2A3125EAD781006E6C3940840DFD2A26B
:105A5300D2A3125EADC2A3D2A2125EAD7811E6FF4D
:105A630022AE07750D01E47810F6EE30E704D2A2FA
:105A73008002C2A2D2A4125EB4C2A4125EB4EE2506
:105A8300E0FE781006E6C3940840DFD2A2D2A41247
:105A93005EB430A203E4F50DC2A4025EB4AE077592
:105AA3000E01E47810F6EE30E704D2A28002C2A21F
:105AB300D2A4125EBBC2A4125EBBEE25E0FE781038
:105AC30006E6C3940840DFD2A2D2A4125EBB30A282
:105AD30003E4F50EC2A4025EBBE47811F6D2A21869
