:070000000266A902000632AE
:10000B00026C02126EEFC2A2126EF6C296026EF66E
:03001B0002682850
:10002300026EB2E4F551755205F553F554F555F5E5
:100033005685555FF55EF55DF55CFF02175FE52EAE
:1000430070030217651265FF8F51E5515460FFBFBE
:100053006005E4F52E80E7E5515481FFBF811175FA
:100063005701E555700575550180087555028003E4
:10007300E4F557E5515482FFBF82057558018003AB
:10008300E4F558E551548464847034E555C3940110
:100093004005755901802BE554B4010EE553C39413
:1000A3001F400575530180020553E554B40213E55F
:1000B30053C3941F400575530A800705538003E417
:1000C300F559E5515488FFBF8805755A018003E44B
:1000D300F55AE559640160030202A7E55270317BCA
:1000E3000AFAF9F8AF37AE36AD35AC34123BB8ACDB
:1000F30000AD01AE02AF03E47B09FAF9F8C3123C89
:100103006E7006E53724F7803EE537240102019D32
:10011300E552640170407B64FAF9F8AF37AE36AD4F
:1001230035AC34123BB8AC00AD01AE02AF03E47B97
:100133000AFAF9F8123BB8E47B09FAF9F8C3123C5E
:100143006E700DE53724A6F537E53634FF0201E47A
:10015300E537240A8044E552640270467BE87A035B
:10016300F9F8AF37AE36AD35AC34123BB8AC00ADB1
:1001730001AE02AF03E47B64FAF9F8123BB8E47B07
:1001830009FAF9F8C3123C6E700CE537247CF53795
:10019300E53634FC804BE5372464F537E435360225
:1001A300024BE5526403704E7B107A27F9F8AF37A0
:1001B300AE36AD35AC34123BB8AC00AD01AE02AFD8
:1001C30003E47BE87A03F9F8123BB8E47B09FAF914
:1001D300F8C3123C6E7013E53724D8F537E536348F
:1001E300DCF536E53534FF020286E53724E8F537DA
:1001F300E53634038052E552640470537BA07A865B
:100203007901F8AF37AE36AD35AC34123BB8AC003C
:10021300AD01AE02AF03E47B107A27F9F8123BB8C5
:10022300E47B09FAF9F8C3123C6E7012E5372470C7
:10023300F537E53634A0F536E53534FE8045E53748
:100243002410F537E5363427F536E43535804EE5A9
:1002530052B405507BA07A8679017800AF37AE3669
:10026300AD35AC34123BB8E47B09FAF9F8C3123C60
:100273006E701AE5372460F537E5363444F536E514
:100283003534F2F535E53434FFF5348017E537249A
:10029300A0F537E5363486F536E5353401F535E432
:1002A3003534F534E5536003020332E558B4010CE9
:1002B3001552E552C394064003755205E555B40142
:1002C3001385375F85365E85355D85345C7F041223
:1002D3001768805BE555640270557F3F7E427D0F52
:1002E300FCAB37AA36A935A834C3123C6E700A7525
:1002F3005301F555755401801E7F387E907D0D7C2A
:1003030000AB37AA36A935A834C3123C6E701275F8
:100313005305755402F555F537F536F535F5348043
:1003230007E4F553F555F52EAD437F3C126CF1E52B
:1003330031700CE55364036040E5536404603AE5AF
:1003430031B4010CE5536403602FE5536404602961
:10035300E531B4020CE5536401601EE553640260A9
:1003630018E53164036003020421E5536401600965
:10037300E553640260030204217878E66003020413
:100383000D760412655378BCE6FD25E0249DF8A69E
:100393000608A607EDC3940C500578BC06807F7849
:1003A300B3E6FE08E6FF7C007D05123B27AA06ABF9
:1003B3000778B5E6FE08E6FF7C007D05123B27EFD4
:1003C3002BFBEE3AFA78B1E6FE08E6FF7C007D05EA
:1003D300123B27EF2BFBEE3AFA78AFE6FE08E6FF77
:1003E3007C007D05123B27EF2BFBEE3AFA78ADE656
:1003F300FE08E6FF7C007D05123B27EF2B78BAF65B
:10040300EE3A18F678BC7608801478BCE625E0242A
:100413009DF8E6FE08E6FF78B9A60608A607E531CB
:100423006003020663E55364017030F5527F02FEF8
:10043300FDFCAB37AA36A935A834C3123C6E40097C
:10044300E4F537F536F535F534E555B40103020621
:10045300DAE555B402030206AB8042E55364027049
:100463004BF5527F06FEFDFCAB37AA36A935A834FF
:10047300C3123C6E4009E4F537F536F535F534E53E
:1004830055B4011185375F85365E85355D85345CEE
:100493007F03020AB2E555B402030206F0E4855372
:1004A3005FF55EF55DF55C7F01020AB2E553640317
:1004B3006003020585E555B4011578B9E6FE08E643
:1004C300FFE48F5F8E5EF55DF55C7F06020AB2E5A1
:1004D3005564026003020576F55578BE76038542BE
:1004E30025854326AE42AF43FC7D15123B157D0A9D
:1004F300123B2778B9E6FC08E6FDC39FEC9E402338
:10050300E511B40111C3ED9FF528EC9EF527753C69
:1005130001433B01804D78B9E6FC08E62FF528EE50
:100523003C8038E511AE42AF437C007D15B4011821
:10053300123B157D0A123B2778B9E6FC08E6FDC39A
:10054300EF9DF528EE9C8013123B157D0A123B2785
:1005530078B9E6FC08E62FF528EE3CF527E4F53CF0
:10056300533BFEAD3B7F36126CF1AD28AC277F08C1
:10057300020AA1E485535FF55EF55DF55C7F010238
:100583000AB2E55364046003020AB5E555B40115E4
:1005930078B9E6FE08E6FFE48F5F8E5EF55DF55CF5
:1005A3007F06020AB2E55564026003020654F5555C
:1005B300E53CAE42AF437C007D15B40114123B15FC
:1005C3007D0A123B2778BAE62528FD18E6352780F1
:1005D30013123B157D0A123B27C378BAE69528FD13
:1005E30018E69527CD2FF522ED3EF521AD22AC215E
:1005F3007F0A126E70C3E52294CAE52194C8402095
:10060300E5229528FFE5219527FEE5222436FDE521
:10061300213437FC123B278E4B8F4C433B108020F9
:10062300C3E5229528FFE5219527FEC374CA9522C9
:10063300FD74C89521FC123B278E4B8F4C533BEF27
:10064300AD4CAC4B7F0C126E70126DCAAD3B020702
:1006530064E485535FF55EF55DF55C7F01020AB2E4
:10066300E5316401600302083EE55364017052F50D
:10067300527F01FEFDFCAB37AA36A935A834C3125D
:100683003C6E4009E4F537F536F535F534E555B4F8
:10069300011185375F85365E85355D85345C7F0165
:1006A300020AB2E555B4020AE4F555AD377F0602F6
:1006B30009DBE485535FF55EF55DF55C7F01020AB6
:1006C300B2E5536402703FF552753707F536F535D9
:1006D300F534E555B4011185375F85365E85355DA3
:1006E30085345C7F02020AB2E555B4020AE4F5558B
:1006F300AD377F070209DBE485535FF55EF55DF5F2
:100703005C7F01020AB2E55364037069F552E55553
:10071300B40122E511B40105753C018003E4F53C05
:1007230078B9E6FE08E6FFE48F5F8E5EF55DF55C63
:100733007F06020AB2E5556402702BF55578B9E6D7
:10074300F52708E6F528FDAC277F08126E70126DB9
:10075300CAE53CB40106E53B44028004E53B54FD95
:10076300FD7F360209DBE485535FF55EF55DF55CDD
:100773007F01020AB2E55364046003020AB5F5522D
:10078300E555B4011578B9E6FE08E6FFE48F5F8E00
:100793005EF55DF55C7F06020AB2E555640260030F
:1007A30002082FF55578B9E6F52108E6F522FDACE8
:1007B300217F0A126E70E53CB40130E5222528FF43
:1007C300E5213527FED3EF94E4EE94444009EF246A
:1007D3001CFDEE34BB8044E5222528FFE5213527A7
:1007E300FEC374E49FFD74449E8030C3E5229528C4
:1007F300FFE5219527FED3EF94E4EE94444009EFFF
:10080300241CFDEE34BB8013C3E5229528FFE521AC
:100813009527FEC374E49FFD74449EFC123B278E10
:100823004B8F4CAD4CAC4B7F0C020AA1E485535F5C
:10083300F55EF55DF55C7F01020AB2E531640260A5
:1008430003020977E55364017067E555B40122E5B6
:1008530011B40105753C018003E4F53C78B9E6FE6B
:1008630008E6FFE48F5F8E5EF55DF55C7F06020AA6
:10087300B2E5556402702BF55578B9E6F52708E61D
:10088300F528FDAC277F08126E70126DCAE53CB4E3
:100893000106E53B44048004E53B54FBFD7F36023F
:1008A30009DBE485535FF55EF55DF55C7F01020AC4
:1008B300B2E55364026003020AB5E555B401157845
:1008C300B9E6FE08E6FFE48F5F8E5EF55DF55C7FBB
:1008D30006020AB2E55564026003020968F555751C
:1008E300530478B9E6F52108E6F522FDAC217F0A29
:1008F300126E70E53CB4012EE5222528FFE5213573
:1009030027FED3EF9400EE947D4008E42FFDEE34F0
:10091300838041E5222528FFE5213527FEC3E49F97
:10092300FD747D9E802EC3E5229528FFE521952742
:10093300FED3EF9400EE947D4008E42FFDEE348364
:100943008012C3E5229528FFE5219527FEC3E49F86
:10095300FD747D9EFC123B278E4B8F4CAD4CAC4BF4
:100963007F0C020AA1E485535FF55EF55DF55C7FBC
:1009730001020AB2E53164036003020AB5E5536478
:1009830001706AE555B40122E511B40105753C0116
:100993008003E4F53C78B9E6FE08E6FFE48F5F8E5A
:1009A3005EF55DF55C7F06020AB2E5556402702EC2
:1009B300F55578B9E6F52708E6F528FDAC277F0855
:1009C300126E70126DCAE53CB40106E53B44088023
:1009D30004E53B54F7FD7F36126CF1020AB5E4855A
:1009E300535FF55EF55DF55C7F01020AB2E5536482
:1009F300026003020AB5E555B4011578B9E6FE08AD
:100A0300E6FFE48F5F8E5EF55DF55C7F06020AB25A
:100A1300E55564026003020AA6F55575530478B9D7
:100A2300E6F52108E6F522FDAC217F0A126E70E59A
:100A33003CB4012EE5222528FFE5213527FED3EF1F
:100A43009400EE94194008E42FFDEE34E78041E56D
:100A5300222528FFE5213527FEC3E49FFD74199E57
:100A6300802EC3E5229528FFE5219527FED3EF9439
:100A730000EE94194008E42FFDEE34E78012C3E53D
:100A8300229528FFE5219527FEC3E49FFD74199E57
:100A9300FC123B278E4B8F4CAD4CAC4B7F0C126E34
:100AA30070800FE485535FF55EF55DF55C7F0112A1
:100AB3001768E55364057074E558B4010C1552E5E5
:100AC30052C394024003755201E555640170387FA7
:100AD30063FEFDFCAB37AA36A935A834D3123C6EAE
:100AE30050058537418009E4F537F536F535F5349A
:100AF300E54124D0FFE43407FEE48F5F8E5EF55DAD
:100B0300F55C7F0602175FE555B40211E4F555ADB8
:100B1300417F06126D74AD417F0E02174DE485537C
:100B23005FF55EF55DF55C7F0102175FE5536406D3
:100B33007068F552E5556401703B7F01FEFDFCAB27
:100B430037AA36A935A834C3123C6E400B054EE4D0
:100B5300F537F536F535F534E54ED3940C5004E509
:100B63004E7003754E01E4854E5FF55EF55DF55CF1
:100B73007F0602175FE555B40211E4F555AD4E7FCC
:100B830005126D74AD4E7F0F02174DE485535FF56B
:100B93005EF55DF55C7F0102175FE5536407600353
:100BA300020C91F552E55564016003020C6C7F0160
:100BB300FEFDFCAB37AA36A935A834C3123C6E4000
:100BC3000B0548E4F537F536F535F534E54EB40253
:100BD3000FE54154037009E548D3941D4002801288
:100BE300E54EB40219E54154036013E548D3941C60
:100BF300400C754801E4F537F536F535F534E54E27
:100C030064016023E54E6403601DE54E64056017CF
:100C1300E54E64076011E54E6408600BE54E640A17
:100C23006005E54EB40C09E548D3941F4002801ECD
:100C3300E54E64046011E54E6406600BE54E6409FD
:100C43006005E54EB41113E548D3941E400C754876
:100C530001E4F537F536F535F534E485485FF55E9F
:100C6300F55DF55C7F0602175FE555B40211E4F507
:100C730055AD487F04126D74AD487F1002174DE4E3
:100C830085535FF55EF55DF55C7F0102175FE55304
:100C93006408706CF552E5556401703F7F01FEFDF9
:100CA300FCAB37AA36A935A834C3123C6E400B05FA
:100CB30049E4F537F536F535F534E549D39417406E
:100CC3000BE4F549F537F536F535F534E485495F39
:100CD300F55EF55DF55C7F0602175FE555B402111D
:100CE300E4F555AD497F02126D74AD497F110217CA
:100CF3004DE485535FF55EF55DF55C7F0102175F9B
:100D0300E5536409706CF552E5556401703F7F014A
:100D1300FEFDFCAB37AA36A935A834C3123C6E409E
:100D23000B054AE4F537F536F535F534E54AD39442
:100D33003B400BE4F54AF537F536F535F534E485F4
:100D43004A5FF55EF55DF55C7F0602175FE555B416
:100D53000211E4F555AD4A7F01126D74AD4A7F125D
:100D630002174DE485535FF55EF55DF55C7F010287
:100D7300175FE553640A7071E558B4010C1552E529
:100D830052C394054003755204E555B4012FE47F23
:100D9300FF7EFFFDFCAB37AA36A935A834D3123C3E
:100DA3006E4009E4F537F536F535F53485375F855B
:100DB300365E85355D85345C7F0602175FE555B485
:100DC300020CE4F555AC36AD377F14020EBBE48557
:100DD300535FF55EF55DF55C7F01121768E55660BC
:100DE300030200417F14020F5DE553640B7070E54D
:100DF30058B4010C1552E552C394054003755204CF
:100E0300E555B4012FE47FFF7EFFFDFCAB37AA3627
:100E1300A935A834D3123C6E4009E4F537F536F50D
:100E230035F53485375F85365E85355D85345C7F82
:100E33000602175FE555B4020BE4F555AC36AD3742
:100E43007F168074E485535FF55EF55DF55C7F0185
:100E5300121768E55660030200417F16020F5DE535
:100E630053640C707EE558B4010C1552E552C394DB
:100E7300054003755204E555B4012FE47FFF7EFF5F
:100E8300FDFCAB37AA36A935A834D3123C6E400912
:100E9300E4F537F536F535F53485375F85365E8508
:100EA300355D85345C7F0602175FE555B4021AE4AD
:100EB300F555AC36AD377F18126E70E4F556F5373D
:100EC300F536F535F534020041E485535FF55EF5FB
:100ED3005DF55C7F01121768E55660030200417FF0
:100EE300188077E553640D6003020F6FE558B40172
:100EF3000C1552E552C394054003755204E555B4ED
:100F0300012FE47FFF7EFFFDFCAB37AA36A935A88E
:100F130034D3123C6E4009E4F537F536F535F53434
:100F230085375F85365E85355D85345C7F060217C0
:100F33005FE555B4020CE4F555AC36AD377F1A02C4
:100F43001557E485535FF55EF55DF55C7F01121778
:100F530068E55660030200417F1A126DAEE48F37D5
:100F63008E36F535F534755601020041E553640EAE
:100F73007065E558B4010C1552E552C3940540035E
:100F8300755204E555B4012FE47FFF7EFFFDFCABF2
:100F930037AA36A935A834D3123C6E4009E4F53795
:100FA300F536F535F53485375F85365E85355D85F0
:100FB300345C7F0602175FE555B4020CE4F555ACCB
:100FC30036AD377F1C021557E485535FF55EF55D3B
:100FD300F55C7F0102175FE553640F7065E558B454
:100FE300010C1552E552C394054003755204E555AF
:100FF300B4012FE47FFF7EFFFDFCAB37AA36A93592
:10100300A834D3123C6E4009E4F537F536F535F5CF
:101013003485375F85365E85355D85345C7F0602B2
:10102300175FE555B4020CE4F555AC36AD377F1EBA
:10103300021557E485535FF55EF55DF55C7F0102AC
:10104300175FE55364107065E558B4010C1552E55C
:1010530052C394054003755204E555B4012FE47F50
:10106300FF7EFFFDFCAB37AA36A935A834D3123C6B
:101073006E4009E4F537F536F535F53485375F8588
:10108300365E85355D85345C7F0602175FE555B4B2
:10109300020CE4F555AC36AD377F20021557E485D5
:1010A300535FF55EF55DF55C7F0102175FE5536401
:1010B300117065E558B4010C1552E552C39405400F
:1010C30003755204E555B4012FE47FFF7EFFFDFC59
:1010D300AB37AA36A935A834D3123C6E4009E4F5E0
:1010E30037F536F535F53485375F85365E85355DFD
:1010F30085345C7F0602175FE555B4020CE4F555B1
:10110300AC36AD377F22021557E485535FF55EF5A4
:101113005DF55C7F0102175FE55364127053F5526E
:10112300E555B4012EE47F05FEFDFCAB37AA36A9D5
:1011330035A834C3123C6E4009E4F537F536F5356E
:10114300F53485375F85365E85355D85345C7F068E
:1011530002175FE555B4020AE4F555AD377F240263
:10116300174DE485535FF55EF55DF55C7F0102176E
:101173005FE55364137053F552E555B4012EE47FD4
:1011830009FEFDFCAB37AA36A935A834D3123C6E51
:101193004009E4F537F536F535F53485375F85369F
:1011A3005E85355D85345C7F0602175FE555B402C5
:1011B3000AE4F555AD377F2502174DE485535FF5F6
:1011C3005EF55DF55C7F0102175FE553641470659E
:1011D300E558B4010C1552E552C39405400375520A
:1011E30004E555B4012FE47FFF7EFFFDFCAB37AA76
:1011F30036A935A834D3123C6E4009E4F537F536E9
:10120300F535F53485375F85365E85355D85345C28
:101213007F0602175FE555B4020CE4F555AC36AD15
:10122300377F26021557E485535FF55EF55DF55C60
:101233007F0102175FE55364156003021320F55223
:10124300E555640160030213027F05FEFDFCAB3725
:10125300AA36A935A834C3123C6E4009E4F537F524
:1012630036F535F534E4FFFEFDFCAB37AA36A93578
:10127300A834C3123C6E7007787176040876B0E424
:101283007F01FEFDFCAB37AA36A935A834C3123C57
:101293006E700778717609087660E47F02FEFDFCC4
:1012A300AB37AA36A935A834C3123C6E70077871E0
:1012B30076120876C0E47F03FEFDFCAB37AA36A99D
:1012C30035A834C3123C6E70077871762508768092
:1012D300E47F04FEFDFCAB37AA36A935A834C3125C
:1012E3003C6E70067871764B08F67871E6FE08E678
:1012F300FFE48F5F8E5EF55DF55C7F0602175FE5A9
:1013030055B4020AE4F555AD377F2802174DE4853D
:10131300535FF55EF55DF55C7F0102175FE553648E
:10132300167062E558B4010C1552E552C39402409D
:1013330003755201E555B4012EE47F63FEFDFCAB5A
:1013430037AA36A935A834D3123C6E4009E4F537E1
:10135300F536F535F53485375F85365E85355D853C
:10136300345C7F0602175FE555B4020AE4F555AD18
:10137300377F2902174DE485535FF55EF55DF55C14
:101383007F0102175FE55364177065E558B4010CDC
:101393001552E552C394054003755204E555B40153
:1013A3002FE47FFF7EFFFDFCAB37AA36A935A834B7
:1013B300D3123C6E4009E4F537F536F535F534853F
:1013C300375F85365E85355D85345C7F0602175F42
:1013D300E555B4020CE4F555AC36AD377F2A02155A
:1013E30057E485535FF55EF55DF55C7F0102175F9A
:1013F300E55364187053F552E555B4012EE47F09A3
:10140300FEFDFCAB37AA36A935A834D3123C6E4097
:1014130009E4F537F536F535F53485375F85365EFE
:1014230085355D85345C7F0602175FE555B4020A96
:10143300E4F555AD377F2C02174DE485535FF55E18
:10144300F55DF55C7F0102175FE55364197053F591
:1014530052E555B4012EE47F09FEFDFCAB37AA36F5
:10146300A935A834D3123C6E4009E4F537F536F5B7
:1014730035F53485375F85365E85355D85345C7F2C
:101483000602175FE555B4020AE4F555AD377F2D23
:1014930002174DE485535FF55EF55DF55C7F010250
:1014A300175FE553641A7053F552E555B4012EE402
:1014B3007F03FEFDFCAB37AA36A935A834D3123C13
:1014C3006E4009E4F537F536F535F53485375F8534
:1014D300365E85355D85345C7F0602175FE555B45E
:1014E300020AE4F555AD377F2E02174DE485535FAD
:1014F300F55EF55DF55C7F0102175FE553641B70D4
:1015030068E558B4010C1552E552C39405400375C0
:101513005204E555B4012FE47FFF7EFFFDFCAB379A
:10152300AA36A935A834D3123C6E4009E4F537F541
:1015330036F535F53485375F85365E85355D85341B
:101543005C7F0602175FE555B4020FE4F555AC3630
:10155300AD377F30126E70020041E485535FF55E54
:10156300F55DF55C7F0102175FE553641C7053F56D
:1015730052E555B4012EE47F02FEFDFCAB37AA36DB
:10158300A935A834C3123C6E4009E4F537F536F5A6
:1015930035F53485375F85365E85355D85345C7F0B
:1015A3000602175FE555B4020AE4F555AD377F32FD
:1015B30002174DE485535FF55EF55DF55C7F01022F
:1015C300175FE553641D7072F552E5556401704C65
:1015D3007F02FEFDFCAB37AA36A935A834C3123C03
:1015E3006E500AE4753702F536F535F534E47F06B7
:1015F300FEFDFCAB37AA36A935A834C3123C6E40B6
:101603000AE4753702F536F535F53485375F8536E7
:101613005E85355D85345C7F0602175FE555B40250
:101623000AE4F555AD377F3302174DE485535FF573
:101633005EF55DF55C7F0102175FE553641E705331
:10164300F552E555B4012EE47F02FEFDFCAB37AA4B
:1016530036A935A834C3123C6E4009E4F537F53694
:10166300F535F53485375F85365E85355D85345CC4
:101673007F0602175FE555B4020AE4F555AD377FDF
:101683003402174DE485535FF55EF55DF55C7F012C
:1016930002175FE553641F6003020041F552E555ED
:1016A300640160030217417F04FEFDFCAB37AA36D9
:1016B300A935A834C3123C6E4009E4F537F536F575
:1016C30035F534E4FFFEFDFCAB37AA36A935A83463
:1016D300C3123C6E70067871F608760CE47F01FE47
:1016E300FDFCAB37AA36A935A834C3123C6E70068D
:1016F3007871F608760EE47F02FEFDFCAB37AA365E
:10170300A935A834C3123C6E70067871F6087610BA
:10171300E47F03FEFDFCAB37AA36A935A834C31218
:101723003C6E70067871F60876127871E6FE08E66C
:10173300FFE48F5F8E5EF55DF55C7F06801EE555E9
:10174300B4020DE4F555AD377F35126CF10200415B
:10175300E485535FF55EF55DF55C7F011217680262
:101763000041026735E4F561F562F563F564F565FB
:10177300F5668F60855F6A855E69855D68855C67F0
:10178300E5607024906F6493F561906F58E493FF64
:10179300F562906F65E493F5638F64906F61E493F2
:1017A300F565906F5F021838E56064016003021805
:1017B3003C7F09FEFDFCAB6AAA69A968A867D3123E
:1017C3003C6E906F625020E493F561906F5FE493F9
:1017D300F562906F65E493F563F564906F53E4935A
:1017E300F565E56A022079E493F561906F5FE49310
:1017F300F562906F65E493F563F564E47B0AFAF9A7
:10180300F8AF6AAE69AD68AC67123BB874532FF595
:1018130082746F3EF583E493F565E47B0AFAF9F885
:10182300AF6AAE69AD68AC67123BB874532BF582EF
:10183300746F3AF583E4022079E56064027038FF3F
:10184300FEFDFCAB6AAA69A968A867C3123C6E9047
:101853006F65701093F561F562F563F564F5659056
:101863006F5F800FE493F561F562F563F564F565E9
:10187300906F62E4022079E56064036003021A3228
:10188300FFFEFDFCAB6AAA69A968A867C3123C6E98
:10189300701B906F6493F561906F56E493F56290BB
:1018A3006F65E493F563F564756574F566E47F012C
:1018B300FEFDFCAB6AAA69A968A867C3123C6E70F7
:1018C30024906F6493F561906F56E493F562906F83
:1018D30065E493F563F564906F6EE493F565906F3B
:1018E30065E493F566E47F02FEFDFCAB6AAA69A991
:1018F30068A867C3123C6E7024906F6493F561907F
:101903006F56E493F562906F65E493F563F5649025
:101913006F6AE493F565906F65E493F566E47F037E
:10192300FEFDFCAB6AAA69A968A867C3123C6E7086
:1019330024906F6493F561906F56E493F562906F12
:1019430065E493F563F564906F61E493F565906FD7
:1019530065E493F566E47F04FEFDFCAB6AAA69A91E
:1019630068A867C3123C6E7024906F6493F561900E
:101973006F56E493F562906F65E493F563F56490B5
:101983006F6CE493F565906F65E493F566E47F050A
:10199300FEFDFCAB6AAA69A968A867C3123C6E7016
:1019A3001B906F6493F561906F56E493F562906FAB
:1019B30065E493F563F56475656DF566E47F06FE8E
:1019C300FDFCAB6AAA69A968A867C3123C6E7024C0
:1019D300906F6493F561906F56E493F562906F6531
:1019E300E493F563F564906F5FE493F565906F6539
:1019F300E493F566E47F07FEFDFCAB6AAA69A96878
:101A0300A867C3123C6E6003022206906F6493F5CD
:101A130061906F56E493F562906F65E493F563F517
:101A230064906F5FE493F565906F65E4022079E558
:101A33006064046003021CDFE51164016003021BA0
:101A430093906F6593F561F562F563906F68E49326
:101A5300F564E47B64FAF9F8AF6AAE69AD68AC6724
:101A6300123BB8AC00AD01AE02AF03E47B0AFAF956
:101A7300F8123BB874532FF582746F3EF583E493E9
:101A8300F565E47B0AFAF9F8AF6AAE69AD68AC674D
:101A9300123BB874532BF582746F3AF583E493F5D4
:101AA30066E47F64FEFDFCAB6AAA69A968A867C304
:101AB300123C6E4038906F68E493F563E47BE87AF8
:101AC30003F9F8AF6AAE69AD68AC67123BB8AC0016
:101AD300AD01AE02AF03E47B64FAF9F8123BB874CC
:101AE300532FF582746F3EF583E493F564E47FE846
:101AF3007E03FDFCAB6AAA69A968A867C3123C6EA2
:101B03004039906F68E493F562E47B107A27F9F823
:101B1300AF6AAE69AD68AC67123BB8AC00AD01AE5D
:101B230002AF03E47BE87A03F9F8123BB874532F4E
:101B3300F582746F3EF583E493F563E47F107E27AB
:101B4300FDFCAB6AAA69A968A867C3123C6E50037F
:101B5300022206906F68E493F5617BA07A8679018F
:101B63007800AF6AAE69AD68AC67123BB8AC00AD44
:101B730001AE02AF03E47B107A27F9F8123BB87485
:101B8300532FF582746F3EF583E493F562022206C8
:101B9300906F53E493F561F562F563F564E47B6458
:101BA300FAF9F8AF6AAE69AD68AC67123BB8AC003E
:101BB300AD01AE02AF03E47B0AFAF9F8123BB87445
:101BC300532FF582746F3EF583E493F565E47B0A46
:101BD300FAF9F8AF6AAE69AD68AC67123BB87453F3
:101BE3002BF582746F3AF583E493F566E47F64FE24
:101BF300FDFCAB6AAA69A968A867C3123C6E4031B1
:101C0300E47BE87A03F9F8AF6AAE69AD68AC6712B2
:101C13003BB8AC00AD01AE02AF03E47B64FAF9F864
:101C2300123BB874532FF582746F3EF583E493F53A
:101C330064E47FE87E03FDFCAB6AAA69A968A86730
:101C4300C3123C6E4032E47B107A27F9F8AF6AAED8
:101C530069AD68AC67123BB8AC00AD01AE02AF032F
:101C6300E47BE87A03F9F8123BB874532FF58274D6
:101C73006F3EF583E493F563E47F107E27FDFCABB1
:101C83006AAA69A968A867C3123C6E40337BA07A2D
:101C93008679017800AF6AAE69AD68AC67123BB86C
:101CA300AC00AD01AE02AF03E47B107A27F9F81262
:101CB3003BB874532FF582746F3EF583E493F5625A
:101CC3007FA07E867D017C00AB6AAA69A968A867AC
:101CD300C3123C6E50030222060221E5E56064054F
:101CE300600302207F7F0AFEFDFCAB6AAA69A96834
:101CF300A867C3123C6E407AE47F64FEFDFCA867CC
:101D0300123C6E506D906F65E493F563F564E512D4
:101D130070227B0AFAF9F8AF6AAE69AD68AC671254
:101D23003BB874532FF582746F3EF583E49324809C
:101D3300F565801FE47B0AFAF9F8AF6AAE69AD680E
:101D4300AC67123BB874532FF582746F3EF583E48E
:101D530093F565E47B0AFAF9F8AF6AAE69AD68AC4E
:101D630067123BB874532BF582746F3AF583E4938F
:101D7300F566E47F64FEFDFCAB6AAA69A968A867FF
:101D8300C3123C6E5003021E49E47FE87E03FDFC50
:101D9300A867123C6E4003021E49906F65E493F5F9
:101DA30063E47B64FAF9F8AF6AAE69AD68AC6712B5
:101DB3003BB874532FF582746F3EF583E493F56457
:101DC300E51270337B64FAF9F8AF6AAE69AD68ACBB
:101DD30067123BB8AC00AD01AE02AF03E47B0AFA75
:101DE300F9F8123BB874532FF582746F3EF583E410
:101DF300932480F5658030E47B64FAF9F8AF6AAE2A
:101E030069AD68AC67123BB8AC00AD01AE02AF037D
:101E1300E47B0AFAF9F8123BB874532FF582746F16
:101E23003EF583E493F565E47B0AFAF9F8AF6AAE0D
:101E330069AD68AC67123BB874532BF582746F3A83
:101E4300F583E493F566E47FE87E03FDFCAB6AAAC1
:101E530069A968A867C3123C6E5003021F49E47F57
:101E6300107E27FDFCA867123C6E4003021F49E465
:101E73007BE87A03F9F8AF6AAE69AD68AC67123BE9
:101E8300B874532FF582746F3EF583E493F563E4DE
:101E93007BE87A03F9F8AF6AAE69AD68AC67123BC9
:101EA300B8AC00AD01AE02AF03E47B64FAF9F812FB
:101EB3003BB874532FF582746F3EF583E493F56456
:101EC300E51270337B64FAF9F8AF6AAE69AD68ACBA
:101ED30067123BB8AC00AD01AE02AF03E47B0AFA74
:101EE300F9F8123BB874532FF582746F3EF583E40F
:101EF300932480F5658030E47B64FAF9F8AF6AAE29
:101F030069AD68AC67123BB8AC00AD01AE02AF037C
:101F1300E47B0AFAF9F8123BB874532FF582746F15
:101F23003EF583E493F565E47B0AFAF9F8AF6AAE0C
:101F330069AD68AC67123BB874532BF582746F3A82
:101F4300F583E493F566E47F107E27FDFCAB6AAA74
:101F530069A968A867C3123C6E50030222067FA0DA
:101F63007E867D017C00A867123C6E400302220638
:101F7300E47B107A27F9F8AF6AAE69AD68AC6712F3
:101F83003BB874532FF582746F3EF583E493F56287
:101F9300E47B107A27F9F8AF6AAE69AD68AC6712D3
:101FA3003BB8AC00AD01AE02AF03E47BE87A03F9C2
:101FB300F8123BB874532FF582746F3EF583E493A4
:101FC300F563E47BE87A03F9F8AF6AAE69AD68AC10
:101FD30067123BB8AC00AD01AE02AF03E47B64FA19
:101FE300F9F8123BB874532FF582746F3EF583E40E
:101FF30093F564E51270337B64FAF9F8AF6AAE695E
:10200300AD68AC67123BB8AC00AD01AE02AF03E400
:102013007B0AFAF9F8123BB874532FF582746F3EBA
:10202300F583E4932480F5658030E47B64FAF9F862
:10203300AF6AAE69AD68AC67123BB8AC00AD01AE38
:1020430002AF03E47B0AFAF9F8123BB874532FF595
:1020530082746F3EF583E493F565E47B0AFAF9F83D
:10206300AF6AAE69AD68AC67123BB874532BF582A7
:10207300746F3AF583E493F566022206E560C39430
:10208300065003022206906F65E493F561F562F54D
:1020930063F564F565E47B0AFAF9F8AF6AAE69ADF6
:1020A30068AC67123BB874532BF582746F3AF583AF
:1020B300E493F566E47F0AFEFDFCAB6AAA69A968AE
:1020C300A867C3123C6E4030E47B64FAF9F8AF6A48
:1020D300AE69AD68AC67123BB8AC00AD01AE02AF00
:1020E30003E47B0AFAF9F8123BB874532FF58274B0
:1020F3006F3EF583E493F565E47F64FEFDFCAB6A14
:10210300AA69A968A867C3123C6E4031E47BE87AE8
:1021130003F9F8AF6AAE69AD68AC67123BB8AC00BF
:10212300AD01AE02AF03E47B64FAF9F8123BB87475
:10213300532FF582746F3EF583E493F564E47FE8EF
:102143007E03FDFCAB6AAA69A968A867C3123C6E4B
:102153004032E47B107A27F9F8AF6AAE69AD68AC18
:1021630067123BB8AC00AD01AE02AF03E47BE87A83
:1021730003F9F8123BB874532FF582746F3EF5835D
:10218300E493F563E47F107E27FDFCAB6AAA69A99B
:1021930068A867C3123C6E40337BA07A86790178C6
:1021A30000AF6AAE69AD68AC67123BB8AC00AD0175
:1021B300AE02AF03E47B107A27F9F8123BB87453ED
:1021C3002FF582746F3EF583E493F5627FA07E86DC
:1021D3007D017C00AB6AAA69A968A867C3123C6E3B
:1021E30040217BA07A8679017800AF6AAE69AD6839
:1021F300AC67123BB874532FF582746F3EF583E4DA
:1022030093F56185636E85626F856170AB64AD65BF
:10221300AF660267B58E598F5A85595B855A5CE460
:10222300F512E51164017066D3E55C9455E55B94A2
:1022330004AC59AD5A5031E4123A5B7BA47A7079FD
:102243005D78401239B9A804A905AA06AB07E4FFD3
:10225300FE7DA07C431237BB123A948E5B8F5C7574
:102263001301E4F511022A75E4123A5B7BA47A7038
:10227300795D78401239B9E4FBFA79A078C3123753
:10228300BF123A948E5B8F5CE4F513022A75AC5946
:10229300AD5AE4123A5B7BA47A70795D78401239C7
:1022A300B9E4FBFA79A078431237BF123A948E5BF4
:1022B3008F5CD3E55A9486E5599404401FE55A246C
:1022C300B4FFE55934FBFE900007E0FD7C00123BB0
:1022D30027C3E55C9FF55CE55B9EF55BD3E55A940C
:1022E300C4E5599409401FE55A246EFFE55934F6B5
:1022F300FE900008E0FD7C00123B27C3E55C9FF5E0
:102303005CE55B9EF55BD3E55A9484E559941240F2
:102313001FE55A24A4FFE55934EDFE900007E0FDC4
:102323007C00123B27C3E55C9FF55CE55B9EF55B98
:10233300D3E55A9402E5599417401FE55A241CFF2C
:10234300E55934E9FE900009E0FD7C00123B27C308
:10235300E55C9FF55CE55B9EF55BD3E55A9472E51E
:1023630059941F401FE55A24ACFFE55934E0FE9011
:102373000009E0FD7C00123B27C3E55C9FF55CE5AB
:102383005B9EF55BD3E55A9430E559942A401FE5EB
:102393005A2402FFE55934D6FE900009E0FD7C0083
:1023A300123B27C3E55C9FF55CE55B9EF55BD3E5DC
:1023B3005A9426E5599434401FE55A240CFFE559F5
:1023C30034CCFE90000AE0FD7C00123B27C3E55CA1
:1023D3009FF55CE55B9EF55BD3E55A948CE55994D8
:1023E3003C401FE55A247EFFE55934C3FE90000AA2
:1023F300E0FD7C00123B27C3E55C9FF55CE55B9E3B
:10240300F55BD3E55A94ACE559943F401EE55A2455
:1024130086FFE55934C0FE90000AE0FD7C00123BC4
:1024230027EF255CF55CEE355BF55BD3E55A94301D
:10243300E5599443401FE55A2402FFE55934BDFE94
:10244300900009E0FD7C00123B27C3E55C9FF55C2F
:10245300E55B9EF55BD3E55A9450E559944B401EDA
:10246300E55A24BAFFE55934B4FE90000AE0FD7C36
:1024730000123B27EF255CF55CEE355BF55BD3E59E
:102483005A94E8E559944E401FE55A244AFFE5590A
:1024930034B1FE900009E0FD7C00123B27C3E55CEC
:1024A3009FF55CE55B9EF55BD3E55A948CE5599407
:1024B3005A401FE55A24B0FFE55934A5FE90000A9F
:1024C300E0FD7C00123B27C3E55C9FF55CE55B9E6A
:1024D300F55BD3E55A9404E5599460401EE55A240C
:1024E30024FFE55934A0FE90000BE0FD7C00123B75
:1024F30027EF255CF55CEE355BF55BD3E55A94700D
:10250300E5599467401FE55A24B8FFE5593498FE0E
:1025130090000AE0FD7C00123B27C3E55C9FF55C5D
:10252300E55B9EF55BD3E55A9478E559946E401EBE
:10253300E55A24B0FFE5593491FE90000BE0FD7C91
:1025430000123B27EF255CF55CEE355BF55BD3E5CD
:102553005A9436E5599474401FE55A24FCFFE55913
:10256300348BFE90000AE0FD7C00123B27C3E55C40
:102573009FF55CE55B9EF55BAE59AF5AE4FCFD7BD2
:10258300907A83F9F8C3123C58502BE55A2498FFEC
:10259300E559347CFEE434FFFDE434FFFCC00790CE
:1025A300000AE0FBE4FAF8D0071269A7EF255CF50F
:1025B3005CEE355BF55BAE59AF5AE4FCFD7BB07A5C
:1025C30086F9F8C3123C58502CE55A2478FFE55994
:1025D3003479FEE434FFFDE434FFFCC007900009C6
:1025E300E0FBE4FAF8D0071269A7C3E55C9FF55C4A
:1025F300E55B9EF55BAE59AF5AE4FCFD7B807A8EBA
:10260300F9F8C3123C58502BE55A24A8FFE5593476
:1026130071FEE434FFFDE434FFFCC00790000BE0DF
:10262300FBE4FAF8D0071269A7EF255CF55CEE35F9
:102633005BF55BAE59AF5AE4FCFD7B447A93F9F842
:10264300C3123C58502CE55A24EEFFE559346CFE76
:10265300E434FFFDE434FFFCC00790000BE0FBE42F
:10266300FAF8D0071269A7C3E55C9FF55CE55B9EAA
:10267300F55BAE59AF5AE4FCFD7B987A9EF9F8C33B
:10268300123C58502BE55A249AFFE5593461FEE475
:1026930034FFFDE434FFFCC00790000BE0FBE4FAD9
:1026A300F8D0071269A7EF255CF55CEE355BF55BA7
:1026B300AE59AF5AE4FCFD7BF07AA0F9F8C3123CA3
:1026C30058502CE55A2442FFE559345FFEE434FFA9
:1026D300FDE434FFFCC00790000BE0FBE4FAF8D004
:1026E300071269A7C3E55C9FF55CE55B9EF55BAEEE
:1026F30059AF5AE4FCFD7B047AA6F9F8C3123C589F
:10270300502BE55A242EFFE559345AFEE434FFFDDD
:10271300E434FFFCC00790000BE0FBE4FAF8D007B9
:102723001269A7EF255CF55CEE355BF55BAE59AF3F
:102733005AE4FCFD7BD47AADF9F8C3123C58502C13
:10274300E55A245EFFE5593452FEE434FFFDE434D8
:10275300FFFCC00790000BE0FBE4FAF8D007126916
:10276300A7C3E55C9FF55CE55B9EF55BAE59AF5A8D
:10277300E4FCFD7B547ABAF9F8C3123C58502BE5BC
:102783005A24DEFFE5593445FEE434FFFDE434FF0B
:10279300FCC00790000AE0FBE4FAF8D0071269A72F
:1027A300EF255CF55CEE355BF55BAE59AF5AE4FCA7
:1027B300FD7B767AC0F9F8C3123C58502CE55A24B5
:1027C3009EFFE559343FFEE434FFFDE434FFFCC0D3
:1027D30007900007E0FBE4FAF8D0071269A7C3E506
:1027E3005C9FF55CE55B9EF55BAE59AF5AE4FCFD7F
:1027F3007B507AC3F9F8C3123C58502BE55A24C4D2
:10280300FFE559343CFEE434FFFDE434FFFCC0072C
:10281300900007E0FBE4FAF8D0071269A7EF255C04
:10282300F55CEE355BF55BAE59AF5AE4FCFD7B948A
:102833007ACAF9F8C3123C58502CE55A2494FFE5A0
:10284300593435FEE434FFFDE434FFFCC007900047
:102853000BE0FBE4FAF8D0071269A7C3E55C9FF528
:102863005CE55B9EF55BAE59AF5AE4FCFD7B507AA9
:10287300CDF9F8C3123C58502BE55A24D8FFE5593B
:102883003432FEE434FFFDE434FFFCC00790000B58
:10289300E0FBE4FAF8D0071269A7EF255CF55CEEDC
:1028A300355BF55BAE59AF5AE4FCFD7B387AD1F961
:1028B300F8C3123C58502CE55A24F0FFE559342E46
:1028C300FEE434FFFDE434FFFCC00790000BE0FBA3
:1028D300E4FAF8D0071269A7C3E55C9FF55CE55BF2
:1028E3009EF55BAE59AF5AE4FCFD7BB07AD6F9F89E
:1028F300C3123C58502BE55A2478FFE5593429FE7E
:10290300E434FFFDE434FFFCC00790000BE0FBE47C
:10291300FAF8D0071269A7EF255CF55CEE355BF595
:102923005BAE59AF5AE4FCFD7B307AE3F9F8C3128E
:102933003C58502BE55A24F8FFE559341CFEE43487
:10294300FFFDE434FFFCC00790000BE0FBE4FAF862
:10295300D0071269A7EF255CF55CEE355BF55BAE3E
:1029630059AF5AE4FCFD7B8C7AE6F9F8C3123C5864
:10297300502CE55A2488FFE5593419FEE434FFFD51
:10298300E434FFFCC007900009E0FBE4FAF8D00749
:102993001269A7C3E55C9FF55CE55B9EF55BAE59E9
:1029A300AF5AE4FCFD7B9C7AEAF9F8C3123C585019
:1029B3002BE55A248CFFE5593415FEE434FFFDE47E
:1029C30034FFFCC00790000BE0FBE4FAF8D00712D9
:1029D30069A7EF255CF55CEE355BF55BAE59AF5A45
:1029E300E4FCFD7B347AF3F9F8C3123C58502CE530
:1029F3005A24F4FFE559340CFEE434FFFDE434FFBC
:102A0300FCC00790000BE0FBE4FAF8D0071269A7BB
:102A1300C3E55C9FF55CE55B9EF55BAE59AF5AE49D
:102A2300FCFD7BFC7AF3F9F8C3123C58502BE55AB2
:102A3300242CFFE559340CFEE434FFFDE434FFFCA1
:102A4300C00790000AE0FBE4FAF8D0071269A7EF89
:102A5300255CF55CEE355BF55BAE59AF5AE4FCFDE6
:102A63007BB07AFA7909F8C3123C585005E4F55B58
:102A7300F55CAE5BAF5C228E598F5AE4F512E5111B
:102A830064016003022B25D3E55A94E0E5599402CF
:102A9300501F7C007D0A123B157D17123B27C37420
:102AA300409FF55C74019EF55B751301E4F511809D
:102AB3001DAE59AF5A7C007D0A123B157D17123BA0
:102AC30027EF24C0F55CEE34FEF55BE4F513D3E5A4
:102AD3005A94F8E55994024013E513700FE55A240C
:102AE30058FFE55934FDFE9000188022D3E55A942F
:102AF300D0E55994075003023243E51360030232D1
:102B030043E55A249EFFE55934F8FE900019E0FD91
:102B13007C00123B27EF255CF55CEE355BF55B0231
:102B23003243AC59AD5AE4123A5B7BE17A7A7914B9
:102B330078401239B9E4FBFA79A078431237BF120F
:102B43003A948E5B8F5CD3E55A94F8E5599402402E
:102B53001FE55A2426FFE55934FDFE90001BE0FDD6
:102B63007C00123B27C3E55C9FF55CE55B9EF55B50
:102B7300D3E55A94D0E5599407401FE55A2462FFE0
:102B8300E55934F8FE90001DE0FD7C00123B27C39D
:102B9300E55C9FF55CE55B9EF55BD3E55A9460E5E8
:102BA30059940C401EE55A24B2FFE55934F3FE90C4
:102BB300001DE0FD7C00123B27EF255CF55CEE3544
:102BC3005BF55BD3E55A94DEE559940D401FE55A56
:102BD3002454FFE55934F2FE90001DE0FD7C001201
:102BE3003B27C3E55C9FF55CE55B9EF55BD3E55A4C
:102BF30094F2E5599412401EE55A2440FFE55934F6
:102C0300EDFE90001CE0FD7C00123B27EF255CF5F8
:102C13005CEE355BF55BD3E55A9444E559941B4070
:102C23001EE55A240CFFE55934E5FE90001DE0FD36
:102C33007C00123B27EF255CF55CEE355BF55BD33F
:102C4300E55A947FE5599424401FE55A24FCFFE597
:102C53005934DBFE90001EE0FD7C00123B27C3E5E8
:102C63005C9FF55CE55B9EF55BD3E55A94B4E5594F
:102C73009428401FE55A2488FFE55934D7FE900075
:102C83001DE0FD7C00123B27C3E55C9FF55CE55B23
:102C93009EF55BD3E55A94FCE5599430401FE55A01
:102CA300242CFFE55934CFFE90001EE0FD7C00127A
:102CB3003B27C3E55C9FF55CE55B9EF55BD3E55A7B
:102CC30094AAE5599437401FE55A2488FFE55934FF
:102CD300C8FE90001FE0FD7C00123B27C3E55C9F0C
:102CE300F55CE55B9EF55BD3E55A94A0E559944109
:102CF300401FE55A2492FFE55934BEFE90001FE0C1
:102D0300FD7C00123B27C3E55C9FF55CE55B9EF50C
:102D13005BD3E55A944AE5599447401EE55A24E8A3
:102D2300FFE55934B8FE90001FE0FD7C00123B27FD
:102D3300EF255CF55CEE355BF55BD3E55A94FAE57C
:102D430059944B401FE55A2438FFE55934B4FE909B
:102D5300001EE0FD7C00123B27C3E55C9FF55CE5AC
:102D63005B9EF55BD3E55A94CAE5599453401FE53E
:102D73005A2468FFE55934ACFE90001FE0FD7C0047
:102D8300123B27C3E55C9FF55CE55B9EF55BD3E5F2
:102D93005A9488E5599459401EE55A24C8FFE559C9
:102DA30034A6FE90001EE0FD7C00123B27EF255C5D
:102DB300F55CEE355BF55BD3E55A9406E559946310
:102DC300401FE55A242CFFE559349DFE90001FE077
:102DD300FD7C00123B27C3E55C9FF55CE55B9EF53C
:102DE3005BD3E55A94ECE5599468401EE55A2450A8
:102DF300FFE5593497FE90001EE0FD7C00123B274F
:102E0300EF255CF55CEE355BF55BD3E55A9458E54D
:102E1300599470401EE55A24ACFFE5593490FE9056
:102E2300001FE0FD7C00123B27EF255CF55CEE35CF
:102E33005BF55BD3E55A945CE5599476401FE55AFC
:102E43002408FFE559348AFE90001FE0FD7C001240
:102E53003B27C3E55C9FF55CE55B9EF55BD3E55AD9
:102E63009476E559947A401EE55A24EEFFE55934E9
:102E730085FE90001DE0FD7C00123B27EF255CF5ED
:102E83005CEE355BF55BAE59AF5AE4FCFD7B9E7A95
:102E930084F9F8C3123C58502BE55A2494FFE559A2
:102EA300347BFEE434FFFDE434FFFCC00790001FD5
:102EB300E0FBE4FAF8D0071269A7EF255CF55CEEB6
:102EC300355BF55BAE59AF5AE4FCFD7B6E7A8CF94A
:102ED300F8C3123C58502BE55A24C4FFE559347308
:102EE300FEE434FFFDE434FFFCC00790001EE0FB6A
:102EF300E4FAF8D0071269A7EF255CF55CEE355BC1
:102F0300F55BAE59AF5AE4FCFD7BBA7A90F9F8C38E
:102F1300123C58502BE55A2478FFE559346FFEE4F0
:102F230034FFFDE434FFFCC00790001FE0FBE4FA2C
:102F3300F8D0071269A7EF255CF55CEE355BF55B0E
:102F4300AE59AF5AE4FCFD7BEE7A98F9F8C3123C14
:102F530058502BE55A2444FFE5593467FEE434FF07
:102F6300FDE434FFFCC00790001FE0FBE4FAF8D057
:102F7300071269A7EF255CF55CEE355BF55BAE598F
:102F8300AF5AE4FCFD7B667A9EF9F8C3123C5850B5
:102F93002BE55A24CCFFE5593461FEE434FFFDE40C
:102FA30034FFFCC00790001FE0FBE4FAF8D00712DF
:102FB30069A7EF255CF55CEE355BF55BAE59AF5A5F
:102FC300E4FCFD7BA67AA4F9F8C3123C58502BE528
:102FD3005A24F0FFE559345BFEE434FFFDE434FF8B
:102FE300FCC00790001FE0FBE4FAF8D0071269A7C2
:102FF300EF255CF55CEE355BF55BAE59AF5AE4FC4F
:10300300FD7BBA7AA9F9F8C3123C58502BE55A2430
:1030130078FFE5593456FEE434FFFDE434FFFCC089
:103023000790001FE0FBE4FAF8D0071269A7EF2529
:103033005CF55CEE355BF55BAE59AF5AE4FCFD7BAA
:10304300967AAFF9F8C3123C58502AE4255AFFE5A3
:10305300593451FEE434FFFDE434FFFCC007900013
:103063001EE0FBE4FAF8D0071269A7EF255CF55CD4
:10307300EE355BF55BAE59AF5AE4FCFD7B3A7AB6AD
:10308300F9F8C3123C58502BE55A24F8FFE559349C
:1030930049FEE434FFFDE434FFFCC00790001EE06A
:1030A300FBE4FAF8D0071269A7EF255CF55CEE356F
:1030B3005BF55BAE59AF5AE4FCFD7B7A7ABCF9F859
:1030C300C3123C58502BE55A24B8FFE5593443FE4C
:1030D300E434FFFDE434FFFCC00790001DE0FBE493
:1030E300FAF8D0071269A7EF255CF55CEE355BF5BE
:1030F3005BAE59AF5AE4FCFD7BDA7AC5F9F8C3122B
:103103003C58502BE55A2458FFE559343AFEE43431
:10311300FFFDE434FFFCC00790001CE0FBE4FAF879
:10312300D0071269A7EF255CF55CEE355BF55BAE66
:1031330059AF5AE4FCFD7B467ACDF9F8C3123C58EB
:10314300502BE55A24ECFFE5593432FEE434FFFDFD
:10315300E434FFFCC00790001CE0FBE4FAF8D0075E
:103163001269A7EF255CF55CEE355BF55BAE59AFF5
:103173005AE4FCFD7B2E7AD1F9F8C3123C58502B4C
:10318300E55A2404FFE559342FFEE434FFFDE4340B
:10319300FFFCC00790001EE0FBE4FAF8D0071269B9
:1031A300A7EF255CF55CEE355BF55BAE59AF5AE4F2
:1031B300FCFD7B0A7AD7F9F8C3123C58502BE55A29
:1031C3002428FFE5593429FEE434FFFDE434FFFCF1
:1031D300C00790001CE0FBE4FAF8D0071269A7EFE0
:1031E300255CF55CEE355BF55BAE59AF5AE4FCFD4F
:1031F3007B1E7ADCF9F8C3123C58502BE55A241491
:10320300FFE5593424FEE434FFFDE434FFFCC0073A
:1032130090001DE0FBE4FAF8D0071269A7EF255CE4
:10322300F55CEE355BF55BAE59AF5AE4FCFD7B48CC
:103233007AEEF9F8C3123C58500674FFF55BF55C5F
:10324300AE5BAF5C228E598F5A85595D855A5EE419
:10325300F512E511640160030235D7D3E55A94C230
:10326300E5599402AC59AD5A5030E4123A5B7B7B7A
:103273007A14790E78401239B9A804A905AA06ABC5
:1032830007E4FFFE7DA07C431237BB123A948E5BAA
:103293008F5C751301E4F5118026E4123A5B7BCD54
:1032A3007ACC790C78401239B9E4FBFA79A078C367
:1032B3001237BF123A948E5B8F5CE4F513751101DC
:1032C300D3E55C946EE55B94004022E513701EE544
:1032D3005C249CFFE55B34FFFE900043E0FD7C0033
:1032E300123B27EF255CF55CEE355BF55BD3E55CC4
:1032F30094B5E55B94014022E513701EE55C245C04
:10330300FFE55B34FEFE900046E0FD7C00123B27A8
:10331300EF255CF55CEE355BF55BD3E55C9458E536
:103323005B94024022E513701EE55C24DAFFE55B43
:1033330034FDFE900045E0FD7C00123B27EF255C49
:10334300F55CEE355BF55BD3E55C94DEE55B9402FF
:103353004022E513701EE55C243AFFE55B34FDFE75
:10336300900044E0FD7C00123B27EF255CF55CEE0A
:10337300355BF55BD3E55C94C0E55B94034022E5E4
:1033830013701EE55C244AFFE55B34FCFE900045A8
:10339300E0FD7C00123B27EF255CF55CEE355BF529
:1033A3005BD3E55C947EE55B94044022E513701ED9
:1033B300E55C24B4FFE55B34FBFE900044E0FD7C58
:1033C30000123B27EF255CF55CEE355BF55BD3E53F
:1033D3005C9446E55B94054022E513701EE55C248E
:1033E300ECFFE55B34FAFE900044E0FD7C00123B09
:1033F30027EF255CF55CEE355BF55BD3E55C940468
:10340300E55B94064022E513701EE55C2410FFE59E
:103413005B34FAFE900043E0FD7C00123B27EF256E
:103423005CF55CEE355BF55BD3E55C94F4E55B94AE
:10343300064022E513701EE55C242AFFE55B34F9A0
:10344300FE900044E0FD7C00123B27EF255CF55C19
:10345300EE355BF55BD3E55C9476E55B9407402240
:10346300E513701EE55C2494FFE55B34F8FE9000E1
:1034730044E0FD7C00123B27EF255CF55CEE355BF9
:10348300F55BD3E55C9448E55B94084022E5137053
:103493001EE55C24C2FFE55B34F7FE900043E0FDCC
:1034A3007C00123B27EF255CF55CEE355BF55BD3C7
:1034B300E55C94DEE55B94084022E513701EE55C51
:1034C300242CFFE55B34F7FE900043E0FD7C001203
:1034D3003B27EF255CF55CEE355BF55BD3E55C9450
:1034E300F6E55B94094022E513701EE55C2428FF92
:1034F300E55B34F6FE900043E0FD7C00123B27EFD2
:10350300255CF55CEE355BF55BD3E55C94A0E55B90
:10351300940A4022E513701EE55C2488FFE55B34C2
:10352300F5FE900043E0FD7C00123B27EF255CF5A0
:103533005CEE355BF55BD3E55C944AE55B940B404D
:1035430022E513701EE55C24DEFFE55B34F4FE9098
:103553000043E0FD7C00123B27EF255CF55CEE3574
:103563005BF55BD3E55C949AE55B940B4022E51332
:10357300701EE55C2484FFE55B34F4FE900043E0B9
:10358300FD7C00123B27EF255CF55CEE355BF55BBC
:10359300D3E55C9426E55B940C4022E513701EE5AD
:1035A3005C24E4FFE55B34F3FE900043E0FD7C0024
:1035B300123B27EF255CF55CEE355BF55BD3E55CF1
:1035C30094A0E55B940F50030237B3755B13755CEE
:1035D3007E0237B3855D5B855E5CAC5DAD5EE412F8
:1035E3003A5B7BCD7ACC790C78401239B9E4FBFA9B
:1035F30079A078431237BF123A948E5B8F5CD3E580
:103603005C9454E55B9401401FE55C24B6FFE55BE5
:1036130034FEFE900045E0FD7C00123B27C3E55CD1
:103623009FF55CE55B9EF55BD3E55C943AE55B94C3
:1036330002401FE55C24D0FFE55B34FDFE900044AF
:10364300E0FD7C00123B27C3E55C9FF55CE55B9ED8
:10365300F55BD3E55C94ACE55B9403401FE55C2428
:1036630072FFE55B34FCFE900044E0FD7C00123BFE
:1036730027C3E55C9FF55CE55B9EF55BD3E55C9456
:1036830014E55B9405401FE55C240AFFE55B34FB0E
:10369300FE900044E0FD7C00123B27C3E55C9FF5F0
:1036A3005CE55B9EF55BD3E55C94B8E55B94064013
:1036B3001FE55C245CFFE55B34F9FE900044E0FD0C
:1036C3007C00123B27C3E55C9FF55CE55B9EF55BE5
:1036D300D3E55C947AE55B9408401CE55C249AFF8F
:1036E300E55B34F7FE7C007D1C123B27C3E55C9F42
:1036F300F55CE55B9EF55BD3E55C9432E55B940A90
:10370300401FE55C24ECFFE55B34F5FE900045E0EB
:10371300FD7C00123B27C3E55C9FF55CE55B9EF5F2
:103723005BD3E55C94A4E55B940B401FE55C2470DC
:10373300FFE55B34F4FE900045E0FD7C00123B277F
:10374300C3E55C9FF55CE55B9EF55BD3E55C94B7F5
:10375300E55B940D401FE55C24AEFFE55B34F2FEB0
:10376300900045E0FD7C00123B27C3E55C9FF55CC0
:10377300E55B9EF55BD3E55C9490E55B940F401F9E
:10378300E55C24E2FFE55B34F0FE900046E0FD7C5F
:1037930000123B27C3E55C9FF55CE55B9EF55BD3BD
:1037A300E55C9488E55B94134006755B17755C6F65
:1037B300AE5BAF5C22023B00E86480F8E933E83398
:1037C30060110460F0ED33EC337009E8FCE9FDEAC5
:1037D300FEEBFF220460DED3EB9FEA9EE99DE8C285
:1037E300E78CF0C2F795F0400CE8CCF8E9CDF9EAA4
:1037F300CEFAEBCFFB123ACB85D0F05804700320FE
:10380300D5B3E80470075002B2D5023B0A92D5EC57
:103813000460F7E4CCC0E0C398F8603B94186008F8
:10382300400DD0E0FB023AE2E4FBFAC9FC8028E851
:1038330030E406E4C9FBE4CAFCE830E305E4C9CAA2
:10384300CBFCE854076010F8C3E913F9EA13FAEB69
:1038530013FBEC13FCD8F130F52FC3E49CFCEF9B76
:10386300FFEE9AFEED99FDD0E0FBEF4E4D4C70124A
:1038730022DB03023B07EC2CFCEF33FFEE33FEEDC0
:1038830033FDED30E7EB023AE2EF2BFFEE3AFEEDCC
:1038930039FDD0E0FB50130BBB0003023B0AED13D1
:1038A300FDEE13FEEF13FFEC13FC023AE2EC4D6066
:1038B30011E8497017ED33EC3304600DE4FCFFFEAF
:1038C300FD22E933E8330470F8023B00123ACB5887
:1038D300046009E4CC24815006285009023B0A28DD
:1038E3004003023B07C0E0EB4A7044B98006D0E0D6
:1038F300FB023AF6EF4E701CBD8008EBFFEAFEE9CF
:10390300FD80EBE98DF0A4FEE5F0023999E9CDF9EC
:10391300EAFEEBFFEF89F0A4FCE5F0CE89F0A42EDC
:10392300FFE435F0CD89F0A42DFEE435F08067EF98
:103933004E7005BD80D780C3EF8BF0A4ACF0EE8B47
:10394300F0A42CFCE435F0F8EF8AF0A42CE5F03871
:10395300FCE433CB8DF0A42CFCE5F03BF8EE8AF0CD
:10396300A42CFCE5F038F8E433CF89F0A42CFCE573
:10397300F038CF3400CE89F0A42FFFE5F03EFEE40B
:1039830033C98DF0A42EFEE5F039CD8AF0A42FFFC4
:10399300E5F03EFEE43DFD33D0E0FB50070BBB00FA
:1039A3000F023B0AEC2CFCEF33FFEE33FEED33FD4D
:1039B300023AE2023B0AEC5D046005E85904700335
:1039C300023B00123ACB580460F6EC4860F2EC700C
:1039D30004FDFEFF22C860DB2481C85009C3986040
:1039E300025006023B079850CAF582E9294B4A70F8
:1039F30005AB82023AF675F0007C1A7880C3EF9B20
:103A0300EE9AED99400DC3EF9BFFEE9AFEED99FD03
:103A1300E842F0DC23ACF0D0E0FFD0E0FED0E0FDE4
:103A2300AB8220E7101BEB60BAEC2CFCEF33FFEE0C
:103A330033FEED33FD023AE2E803F830E705C0F068
:103A430075F000EF2FFFEE33FEED33FD40B830E7A6
:103A5300C280AA75F020800E75F010800575F008FD
:103A63007D007E007F003392D530D503123C4AECB3
:103A7300334010EF33FFEE33FEED33FDEC33FCD573
:103A8300F0ED22E5F0247EA2D513CC92E7CDCEFF54
:103A930022EDD2E7CD33EC3392D524814006E4FF07
:103AA300FEFDFC22FCE4CFCECDCC24E0501174FF0C
:103AB30080EDC3CC13CCCD13CDCE13CECF13CF0417
:103AC30070F030D5DE023C4AE9D2E7C933E833F877
:103AD30092D5EDD2E7CD33EC33FC5002B2D522ECD4
:103AE30030E7100FBF000C0EBE00080DBD00040B25
:103AF300EB6014A2D5EB13FCED92E7FD2274FFFCFF
:103B0300FDFEFF22E480F8A2D574FF13FC7D80E460
:103B130080EFEF8DF0A4A8F0CF8CF0A428CE8DF029
:103B2300A42EFE22BC000BBE0029EF8DF084FFAD56
:103B3300F022E4CCF875F008EF2FFFEE33FEEC3300
:103B4300FCEE9DEC984005FCEE9DFE0FD5F0E9E4FC
:103B5300CEFD22EDF8F5F0EE8420D21CFEADF0751B
:103B6300F008EF2FFFED33FD4007985006D5F0F234
:103B730022C398FD0FD5F0EA2275F008758200EF95
:103B83002FFFEE33FECD33CDCC33CCC58233C5828C
:103B93009BED9AEC99E58298400CF582EE9BFEED45
:103BA3009AFDEC99FC0FD5F0D6E4CEFBE4CDFAE414
:103BB300CCF9A88222B800C1B90059BA002DEC8B08
:103BC300F084CFCECDFCE5F0CBF97818EF2FFFEEE4
:103BD30033FEED33FDEC33FCEB33FB10D70399409D
:103BE30004EB99FB0FD8E5E4F9FA227818EF2FFFDD
:103BF300EE33FEED33FDEC33FCC933C910D7059B1F
:103C0300E99A4007EC9BFCE99AF90FD8E0E4C9FA7A
:103C1300E4CCFB2275F010EF2FFFEE33FEED33FD06
:103C2300CC33CCC833C810D7079BEC9AE899400A29
:103C3300ED9BFDEC9AFCE899F80FD5F0DAE4CDFBA7
:103C4300E4CCFAE4C8F922C3E49FFFE49EFEE49DBA
:103C5300FDE49CFC22EB9FF5F0EA9E42F0E99D42D5
:103C6300F0EC6480C864809845F022EB9FF5F0EA9D
:103C73009E42F0E99D42F0E89C45F0228E538F541A
:103C8300E4F512E51164016003023DE8D3E55494C1
:103C93008AE5539401AC53AD545030E4123A5B7B44
:103CA300D77AA379B0783F1239B9A804A905AA062F
:103CB300AB07E4FFFE7DA07C431237BB123A948E20
:103CC300558F56751301E4F5118026E4123A5B7B98
:103CD300D77AA379B0783F1239B9E4FBFA79A0789F
:103CE300C31237BF123A948E558F56E4F5137511EC
:103CF30001855557855658D3E5569428E5559400C4
:103D03004022E513701EE5562428FFE43555FE9046
:103D1300004DE0FD7C00123B27C3E5589FF558E5B5
:103D2300579EF557D3E55694B6E55594034023E5DE
:103D330013701FE556244AFFE55534FCFE90004CF2
:103D4300E0FD7C00123B27C3E5589FF558E5579EDD
:103D5300F557D3E556949EE55594074023E5137034
:103D63001FE5562462FFE55534F8FE90004CE0FD54
:103D73007C00123B27C3E5589FF558E5579EF5573E
:103D8300D3E5569428E555940A4023E513701FE5BF
:103D93005624D8FFE55534F5FE90004CE0FD7C0039
:103DA300123B27C3E5589FF558E5579EF557D3E5D2
:103DB300569480E555940C5003024117E5136003B4
:103DC300024117E5562480FFE55534F3FE90004C7D
:103DD300E0FD7C00123B27C3E5589FF558E5579E4D
:103DE300F557024117AC53AD54E4123A5B7BD77AD3
:103DF300A379B0783F1239B9E4FBFA79A07843127A
:103E030037BF123A948E558F56855557855658C3EA
:103E1300E5569414E5559405401DE42556FFE555F4
:103E230034FBFE90004EE0FD7C00123B27EF25584B
:103E3300F558EE3557F557C3E5569498E55594086C
:103E4300401EE5562468FFE55534F7FE900050E028
:103E5300FD7C00123B27EF2558F558EE3557F557F3
:103E6300C3E55694B2E555940C401EE556244EFF27
:103E7300E55534F3FE90004EE0FD7C00123B27EF46
:103E83002558F558EE3557F557C3E5569404E555CF
:103E93009410401EE55624FCFFE55534EFFE9000D8
:103EA3004EE0FD7C00123B27EF2558F558EE3557C1
:103EB300F557C3E5569488E5559413401EE55624FB
:103EC30078FFE55534ECFE900050E0FD7C00123B9A
:103ED30027EF2558F558EE3557F557C3E55694A8FF
:103EE300E5559416401EE5562458FFE55534E9FE82
:103EF300900050E0FD7C00123B27EF2558F558EE6B
:103F03003557F557C3E5559419401DE42556FFE58C
:103F13005534E7FE90004FE0FD7C00123B27EF2570
:103F230058F558EE3557F557C3E55694A2E5559421
:103F33001C401EE556245EFFE55534E3FE90004E1B
:103F4300E0FD7C00123B27EF2558F558EE3557F579
:103F530057C3E556940EE555941F401EE55624F2CB
:103F6300FFE55534E0FE90004EE0FD7C00123B2758
:103F7300EF2558F558EE3557F557C3E55694FCE54C
:103F8300559421401EE5562404FFE55534DEFE908A
:103F9300004EE0FD7C00123B27EF2558F558EE3527
:103FA30057F557C3E55694EAE5559424401EE55664
:103FB3002416FFE55534DBFE90004FE0FD7C001234
:103FC3003B27EF2558F558EE3557F557C3E556947B
:103FD300ACE5559426401EE5562454FFE55534D9E7
:103FE300FE900051E0FD7C00123B27EF2558F55869
:103FF300EE3557F557C3E5569404E5559429401E0D
:10400300E55624FCFFE55534D6FE900050E0FD7CD8
:1040130000123B27EF2558F558EE3557F557C3E502
:104023005694F4E5559429401EE556240CFFE555B6
:1040330034D6FE900051E0FD7C00123B27EF25585B
:10404300F558EE3557F557C3E5569488E555942C46
:10405300401EE5562478FFE55534D3FE90004FE02B
:10406300FD7C00123B27EF2558F558EE3557F557E1
:10407300C3E5569418E555942E401EE55624E8FFF3
:10408300E55534D1FE900051E0FD7C00123B27EF53
:104093002558F558EE3557F557C3E55694DAE555E7
:1040A300942F401EE5562426FFE55534D0FE90009C
:1040B30051E0FD7C00123B27EF2558F558EE3557AC
:1040C300F557C3E55694CEE5559431401EE5562485
:1040D30032FFE55534CEFE90004CE0FD7C00123BF0
:1040E30027EF2558F558EE3557F557C3E55694583D
:1040F300E5559434401EE55624A8FFE55534CBFE20
:1041030090004CE0FD7C00123B27EF2558F558EE5C
:104113003557F557AE57AF58228E598F5AE4F512DB
:10412300E51164017066D3E55A94B5E5599403AC7F
:1041330059AD5A5031E4123A5B7BA47A70793D78D9
:10414300401239B9A804A905AA06AB07E4FFFE7D0E
:10415300A07C431237BB123A948E5B8F5C751301BC
:10416300E4F5110245B2E4123A5B7BA47A70793D1F
:1041730078401239B9E4FBFA79A078C31237BF1239
:104183003A948E5B8F5CE4F5130245B2AC59AD5A99
:10419300E4123A5B7BA47A70793D78401239B9E432
:1041A300FBFA79A078431237BF123A948E5B8F5C87
:1041B300D3E55A941AE5599404401FE55A2418FF8D
:1041C300E55934FCFE900011E0FD7C00123B27C34F
:1041D300E55C9FF55CE55B9EF55BD3E55A94F1E501
:1041E300599409401FE55A241EFFE55934F6FE9001
:1041F3000011E0FD7C00123B27C3E55C9FF55CE505
:104203005B9EF55BD3E55A9406E5599411401FE58F
:104213005A2402FFE55934EFFE900012E0FD7C00C2
:10422300123B27C3E55C9FF55CE55B9EF55BD3E53D
:104233005A9446E559941E401EE4255AFFE5593425
:10424300E2FE900013E0FD7C00123B27C3E55C9F78
:10425300F55CE55B9EF55BD3E55A949AE5599429A1
:10426300401FE55A2452FFE55934D6FE900013E06F
:10427300FD7C00123B27C3E55C9FF55CE55B9EF587
:104283005BD3E55A94F2E559942B401EE55A24403A
:10429300FFE55934D4FE900013E0FD7C00123B2768
:1042A300EF255CF55CEE355BF55BD3E55A9448E5A9
:1042B30059943A401FE55A2462FFE55934C6FE90EB
:1042C3000013E0FD7C00123B27C3E55C9FF55CE532
:1042D3005B9EF55BD3E55A943CE559943C401EE55F
:1042E3005A24D8FFE55934C3FE900012E0FD7C0048
:1042F300123B27EF255CF55CEE355BF55BD3E55AA6
:1043030094D4E5599444401FE55A2440FFE55934B9
:10431300BBFE900014E0FD7C00123B27C3E55C9FCD
:10432300F55CE55B9EF55BD3E55A94BCE55994488F
:10433300401EE55A2458FFE55934B7FE900012E0B9
:10434300FD7C00123B27EF255CF55CEE355BF55BEE
:10435300D3E55A948CE5599450401FE55A2488FFBD
:10436300E55934AFFE900013E0FD7C00123B27C3F8
:10437300E55C9FF55CE55B9EF55BD3E55A945CE5F4
:10438300599458401EE55A24B8FFE55934A7FE90C6
:104393000012E0FD7C00123B27EF255CF55CEE3557
:1043A3005BF55BD3E55A9438E559945E401FE55AB3
:1043B30024DCFFE55934A1FE900012E0FD7C0012DD
:1043C3003B27C3E55C9FF55CE55B9EF55BD3E55A54
:1043D30094D0E5599466401EE55A2444FFE55934C8
:1043E30099FE900014E0FD7C00123B27EF255CF55D
:1043F3005CEE355BF55BD3E55A9454E559946A401A
:104403001FE55A2424FFE5593496FE900013E0FD7E
:104413007C00123B27C3E55C9FF55CE55B9EF55B87
:10442300D3E55A94B4E5599473401FE55A2460FFC9
:10443300E559348CFE900013E0FD7C00123B27C34A
:10444300E55C9FF55CE55B9EF55BD3E55A94DCE5A3
:1044530059947D401FE55A2438FFE5593482FE9074
:104463000013E0FD7C00123B27C3E55C9FF55CE590
:104473005B9EF55BAE59AF5AE4FCFD7BA07A87F9EE
:10448300F8C3123C58502CE55A2474FFE55934788C
:10449300FEE434FFFDE434FFFCC007900012E0FBB0
:1044A300E4FAF8D0071269A7C3E55C9FF55CE55B06
:1044B3009EF55BAE59AF5AE4FCFD7BB47A8CF9F8F8
:1044C300C3123C58502CE55A2460FFE5593473FE5F
:1044D300E434FFFDE434FFFCC007900013E0FBE489
:1044E300FAF8D0071269A7C3E55C9FF55CE55B9E0C
:1044F300F55BAE59AF5AE4FCFD7BDC7A96F9F8C361
:10450300123C58502CE55A2438FFE5593469FEE42F
:1045130034FFFDE434FFFCC007900013E0FBE4FA32
:10452300F8D0071269A7C3E55C9FF55CE55B9EF5D0
:104533005BAE59AF5AE4FCFD7B8C7A9BF9F8C3124E
:104543003C58502CE55A2488FFE5593464FEE43482
:10455300FFFDE434FFFCC007900012E0FBE4FAF82F
:10456300D0071269A7C3E55C9FF55CE55B9EF55B2D
:10457300AE59AF5AE4FCFD7B2C7AABF9F8C3123C7D
:1045830058502CE55A24E8FFE5593454FEE434FF2F
:10459300FDE434FFFCC007900011E0FBE4FAF8D01F
:1045A300071269A7C3E55C9FF55CE55B9EF55BAE0F
:1045B3005BAF5C221265FFBFC003752A04BF100600
:1045C300752A040249FB78BEE6600EE54425E02423
:1045D3009DF8E6F54208E6F543787FE670757604C4
:1045E3001256E4E54425E0249DF8A60608A607E54F
:1045F30044C3940450040544805978A1E6FE08E6B8
:104603007802CEC313CE13D8F9FDAC0678A3E6FE29
:1046130008E67802CEC313CE13D8F92DFDEE3CFC89
:10462300789FE6FE08E67802CEC313CE13D8F92DA1
:10463300FDEC3EFC789DE6FE08E67802CEC313CE81
:1046430013D8F92DF543EC3EF542E4F54478BEE684
:104653006001167878E660030248AF76101265535E
:1046630078BCE6FD25E0249DF8A60608A607EDC361
:10467300940D500E78BC0678B7E6F55108E6F5526E
:10468300806978B3E6FE08E6FF7C007D05123B27D0
:10469300AA06AB0778B5E6FE08E6FF7C007D0512A7
:1046A3003B27EF2BFBEE3AFA78B1E6FE08E6FF7CF8
:1046B300007D05123B27EF2BFBEE3AFA78AFE6FEBF
:1046C30008E6FF7C007D05123B27EF2BFBEE3AFA51
:1046D30078ADE6FE08E6FF7C007D05123B27EF2B55
:1046E30078B8F6EE3A18F678BC7608E52C70347D87
:1046F300151261BE8E558F56122A7A8E538F54AC83
:1047030053AD54E4123A5BE4FBFA79F07840123982
:10471300B9123A948E558F56AE53AF547C007D2612
:104723000247BEE52C6401703FAE42AF43FC7D1EE1
:104733001261C38E558F5612411C8E538F54AC5346
:10474300AD54E4123A5BE4FBFA79F078401239B9DC
:10475300123A948E558F56AC53AD54E4123A5B7BA8
:10476300337A3379AB02480EE52C6402705CAC42B9
:10477300AD43123A5BE4FBFA79BC78411238B0E4FA
:10478300FBFA792078411239B9123A941261CB8E2F
:10479300558F561232488E538F54AC53AD54E41296
:1047A3003A5BE4FBFA79F078401239B9123A948E05
:1047B300558F56AE53AF547C007D06123B27EF2432
:1047C300A3F558E43EF5570248A0E52C6403703F77
:1047D300AE42AF43FC7D231261C38E558F56122226
:1047E300188E538F54AC53AD54E4123A5BE4FBFA86
:1047F30079F078401239B9123A948E558F56AC53EA
:10480300AD54E4123A5BE4FBFA79B47841807AE57B
:104813002C640470381261B98E558F561250AE8EC7
:10482300538F54AC53AD54E4123A5BE4FBFA79F082
:1048330078401239B9123A948E558F56AC53AD5411
:10484300E4123A5BE4FBFA79327842803CE52C646B
:1048530005704A1261B98E558F56124D5F8E538F74
:1048630054AC53AD54E4123A5BE4FBFA79F078406C
:104873001239B9123A948E558F56AC53AD54E41293
:104883003A5BE4FBFA793278421239B9E4FBFA79FC
:104893002378431237BF123A948E578F58E54770E7
:1048A3000BAF54AE531263ED8E538F547879E67089
:1048B300071268F9787976087877E660030249C1C8
:1048C300C3E554788696F554E5531896F55378BDA9
:1048D300E6FFD39401400D7E00AC53AD54123B155B
:1048E3008E538F54788AE6FE08E6FFD3E5549FE59E
:1048F300539E40048E538F54788DE6FE08E6FFC323
:10490300E5549FE5539E50048E538F547875E6FE0D
:1049130008E6FFD3E5549FE5539E40048E538F541E
:104923007887E6FE08E6FFC3E5549FE5539E5004EF
:104933008E538F547873E6FE08E6FFD3E5549FE564
:10494300539E40048E538F547882E6FE08E6FFC3DD
:10495300E5549FE5539E50048E538F5478BBE678FD
:1049630077F6E50A700E85545D85535CF55BF55A61
:104973007F01800DE485545D85535CF55BF55AAF8B
:1049830008124A007897E6B4011BC3E5541896E56C
:10499300531896400CD3E554789396E553189640F4
:1049A3001DC2B48019D3E554789C96E553189650EC
:1049B3000BC3E5541896E55318965002D2B4787C8D
:1049C300E67018208407AF56AE55126C7F2085071A
:1049D300AF58AE57126BD1787C7610787BE670189F
:1049E300200109855499D2017601800AE553F5998E
:1049F300C201787B763BD299AE53AF54228F5EE4EB
:104A0300F55FF560F561F562F563F564855D6885CD
:104A13005C67855B66855A65E51164016003024B3B
:104A23009A906F6593F55FF560F561906F68E49315
:104A3300F562E47B64FAF9F8AF68AE67AD66AC651E
:104A4300123BB8AC00AD01AE02AF03E47B0AFAF946
:104A5300F8123BB874532FF582746F3EF583E493D9
:104A6300F563E47B0AFAF9F8AF68AE67AD66AC6547
:104A7300123BB874532BF582746F3AF583E493F5C4
:104A830064E47F64FEFDFCAB68AA67A966A865C3FE
:104A9300123C6E4038906F68E493F561E47BE87AEA
:104AA30003F9F8AF68AE67AD66AC65123BB8AC000E
:104AB300AD01AE02AF03E47B64FAF9F8123BB874BC
:104AC300532FF582746F3EF583E493F562E47FE838
:104AD3007E03FDFCAB68AA67A966A865C3123C6E9A
:104AE3004039906F68E493F560E47B107A27F9F816
:104AF300AF68AE67AD66AC65123BB8AC00AD01AE56
:104B030002AF03E47BE87A03F9F8123BB874532F3E
:104B1300F582746F3EF583E493F561E47F107E279D
:104B2300FDFCAB68AA67A966A865C3123C6E403A50
:104B3300906F68E493F55F7BA07A8679017800AF84
:104B430068AE67AD66AC65123BB8AC00AD01AE02B2
:104B5300AF03E47B107A27F9F8123BB874532FF5AF
:104B630082746F3EF583E493F560E55EB406030259
:104B73004D11E55EB40503024D1EE55EB404030268
:104B83004D2BE55EB40303024D38E55ED39402403A
:104B930003024D4D024D47E50A64017005906F53C2
:104BA3008004906F65E493F55FF560F561F562E469
:104BB3007B64FAF9F8AF68AE67AD66AC65123BB8D3
:104BC300AC00AD01AE02AF03E47B0AFAF9F8123B85
:104BD300B874532FF582746F3EF583E493F563E461
:104BE3007B0AFAF9F8AF68AE67AD66AC65123BB8FD
:104BF30074532BF582746F3AF583E493F564E47F81
:104C030064FEFDFCAB68AA67A966A865C3123C6E87
:104C13004031E47BE87A03F9F8AF68AE67AD66AC80
:104C230065123BB8AC00AD01AE02AF03E47B64FA9E
:104C3300F9F8123BB874532FF582746F3EF583E491
:104C430093F562E47FE87E03FDFCAB68AA67A9667F
:104C5300A865C3123C6E4032E47B107A27F9F8AFA3
:104C630068AE67AD66AC65123BB8AC00AD01AE0291
:104C7300AF03E47BE87A03F9F8123BB874532FF5DA
:104C830082746F3EF583E493F561E47F107E27FD24
:104C9300FCAB68AA67A966A865C3123C6E40337B68
:104CA300A07A8679017800AF68AE67AD66AC65120D
:104CB3003BB8AC00AD01AE02AF03E47B107A27F939
:104CC300F8123BB874532FF582746F3EF583E49367
:104CD300F5607FA07E867D017C00AB68AA67A9662C
:104CE300A865C3123C6E40217BA07A8679017800C7
:104CF300AF68AE67AD66AC65123BB874532FF582EF
:104D0300746F3EF583E493F55FE55EB40608748043
:104D1300255FF55F8034E55EB4050874802560F592
:104D2300608027E55EB4040874802561F561801A0C
:104D3300E55EB4030874802562F562800DE55ED3F9
:104D43009402500674802563F56385616E85606FF8
:104D5300855F70AB62AD63AF640267B58E598F5ADE
:104D6300E51164017049D3E55A9468E559940050FC
:104D730034AC59AD5AE4123A5B7B487AE1790A784C
:104D8300401239B9A804A905AA06AB07E4FFFEFD42
:104D93007C421237BB123A948E5B8F5C751301E42D
:104DA300F5110250A9E4F513F55BF55C0250A9ACCB
:104DB30059AD5AE4123A5B7BCD7ACC794C784012E8
:104DC30039B9E4FBFAF978421237BF123A94AB07C8
:104DD300AA068A5B8B5CC3EB9432EA9400401DEB1A
:104DE30024CEFFEA34FFFE900031E0FD7C00123B4D
:104DF30027C3E55C9FF55CE55B9EF55BC3EB946DB8
:104E0300EA9400401DEB2493FFEA34FFFE90003048
:104E1300E0FD7C00123B27C3E55C9FF55CE55B9EF0
:104E2300F55BC3EB94AEEA9400401DEB2452FFEA1A
:104E330034FFFE900032E0FD7C00123B27C3E55CAB
:104E43009FF55CE55B9EF55BC3EB94F8EA94004049
:104E53001DEB2408FFEA34FFFE900033E0FD7C00E5
:104E6300123B27C3E55C9FF55CE55B9EF55BC3EBFB
:104E73009471EA9401401DEB248FFFEA34FEFE9007
:104E83000034E0FD7C00123B27C3E55C9FF55CE545
:104E93005B9EF55BC3EB94C8EA9401401DEB243899
:104EA300FFEA34FEFE900035E0FD7C00123B27C391
:104EB300E55C9FF55CE55B9EF55BC3EB944FEA9481
:104EC30002401DEB24B1FFEA34FDFE900036E0FD05
:104ED3007C00123B27C3E55C9FF55CE55B9EF55BBD
:104EE300C3EB941CEA9403401DEB24E4FFEA34FC77
:104EF300FE900036E0FD7C00123B27C3E55C9FF586
:104F03005CE55B9EF55BC3EB94F2EA9403401DEB17
:104F1300240EFFEA34FCFE900038E0FD7C00123BD7
:104F230027C3E55C9FF55CE55B9EF55BC3EB9426CD
:104F3300EA9405401DEB24DAFFEA34FAFE900036CA
:104F4300E0FD7C00123B27C3E55C9FF55CE55B9EBF
:104F5300F55BC3EB9484EA9406401DEB247CFFEAE3
:104F630034F9FE90003AE0FD7C00123B27C3E55C78
:104F73009FF55CE55B9EF55BC3EB946DEA9408409B
:104F83001DEB2493FFEA34F7FE900038E0FD7C002C
:104F9300123B27C3E55C9FF55CE55B9EF55BC3EBCA
:104FA300946DEA9409401DEB2493FFEA34F6FE90D6
:104FB300003AE0FD7C00123B27C3E55C9FF55CE50E
:104FC3005B9EF55BC3EB9441EA940B401DEB24BF5E
:104FD300FFEA34F4FE900039E0FD7C00123B27C366
:104FE300E55C9FF55CE55B9EF55BC3EB94C9EA94D6
:104FF3000C401DEB2437FFEA34F3FE90003DE0FD47
:105003007C00123B27C3E55C9FF55CE55B9EF55B8B
:10501300C3EB9485EA940E401DEB247BFFEA34F145
:10502300FE90003EE0FD7C00123B27C3E55C9FF54C
:105033005CE55B9EF55BC3EB941CEA9411401DEBAE
:1050430024E4FFEA34EEFE90003EE0FD7C00123BD8
:1050530027C3E55C9FF55CE55B9EF55BC3EB94D6EC
:10506300EA9413401CEB242AFFEA34ECFE90003E42
:10507300E0FD7C00123B27EF255CF55CEE355BF52C
:105083005BC3EB94B2EA9414401CEB244EFFEA3466
:10509300EBFE90003EE0FD7C00123B27EF255CF524
:1050A3005CEE355BF55BAE5BAF5C228E598F5AE5E8
:1050B3001164017049D3E55C9467E55B9400503457
:1050C300AC59AD5AE4123A5B7B487AE1790A7840ED
:1050D3001239B9A804A905AA06AB07E4FFFEFD7CB3
:1050E300421237BB123A948E5B8F5C751301E4F561
:1050F300110253F7E4F513F55BF55C0253F7AC5972
:10510300AD5AE4123A5B7B717A3D794A78401239A1
:10511300B9E4FBFAF978421237BF123A94AB07AA03
:10512300068A5B8B5CC3EB9445EA9400401DEB2439
:10513300C5FFEA34FFFE900021E0FD7C00123B270F
:10514300C3E55C9FF55CE55B9EF55BC3EB946DEAA1
:105153009400401DEB2493FFEA34FFFE900022E00D
:10516300FD7C00123B27C3E55C9FF55CE55B9EF588
:105173005BC3EB9499EA9400401DEB2467FFEA3488
:10518300FFFE900023E0FD7C00123B27C3E55C9FFC
:10519300F55CE55B9EF55BC3EB94C7EA9400401DA9
:1051A300EB2439FFEA34FFFE900024E0FD7C00127B
:1051B3003B27C3E55C9FF55CE55B9EF55BC3EB9426
:1051C30011EA9401401DEB24F0FFEA34FEFE900047
:1051D30025E0FD7C00123B27C3E55C9FF55CE55BA6
:1051E3009EF55BC3EB947BEA9401401DEB2486FFA1
:1051F300EA34FEFE900023E0FD7C00123B27C3E56A
:105203005C9FF55CE55B9EF55BC3EA9402401DEB96
:105213002401FFEA34FEFE900026E0FD7C00123BF1
:1052230027C3E55C9FF55CE55B9EF55BC3EB94A14F
:10523300EA9402401DEB2460FFEA34FDFE90002750
:10524300E0FD7C00123B27C3E55C9FF55CE55B9EBC
:10525300F55BC3EB9460EA9403401DEB24A1FFEAE2
:1052630034FCFE900028E0FD7C00123B27C3E55C84
:105273009FF55CE55B9EF55BC3EB944AEA940440BF
:105283001DEB24B7FFEA34FBFE900029E0FD7C0010
:10529300123B27C3E55C9FF55CE55B9EF55BC3EBC7
:1052A3009462EA9405401DEB249FFFEA34FAFE90D2
:1052B300002AE0FD7C00123B27C3E55C9FF55CE51B
:1052C3005B9EF55BC3EB94A9EA9406401DEB24585F
:1052D300FFEA34F9FE90002BE0FD7C00123B27C36C
:1052E300E55C9FF55CE55B9EF55BC3EB94B0EA94EC
:1052F30007401DEB2451FFEA34F8FE90002DE0FD3A
:105303007C00123B27C3E55C9FF55CE55B9EF55B88
:10531300C3EB94E6EA9408401DEB241BFFEA34F741
:10532300FE90002CE0FD7C00123B27C3E55C9FF55B
:105333005CE55B9EF55BC3EB9426EA940A401DEBA8
:1053430024DBFFEA34F5FE90002DE0FD7C00123BE8
:1053530027C3E55C9FF55CE55B9EF55BC3EB949B24
:10536300EA940B401DEB2466FFEA34F4FE90002E12
:10537300E0FD7C00123B27C3E55C9FF55CE55B9E8B
:10538300F55BC3EB9448EA940D401DEB241DFFEA43
:1053930034F3FE90002EE0FD7C00123B27C3E55C56
:1053A3009FF55CE55B9EF55BC3EB9403EA940F40CA
:1053B3001DEB24FEFFEA34F0FE90002EE0FD7C009E
:1053C300123B27C3E55C9FF55CE55B9EF55BC3EB96
:1053D3009456EA9411401DEB24ABFFEA34EEFE90A1
:1053E300002FE0FD7C00123B27C3E55C9FF55CE5E5
:1053F3005B9EF55BAE5BAF5C22C28CAF89EF440171
:10540300F589F589758CDCE4F58AC28D75E5077538
:10541300E64675E6B9AFE2EF4408F5E2F5E275E575
:105423000675E64675E6B9D28CA28DB340FBC28DF4
:10543300C28C75E50775E64675E6B9AFE2EF44033E
:10544300F5E2F5E275E50675E64675E6B975E50735
:1054530075E64675E6B9AFE2EF54FBF5E2F5E275A2
:10546300E50675E64675E6B97593FFE4F594758030
:10547300FFF5917592FFF5907595247596FFF5A04C
:1054830075B1ED75B21375B02C126CCED296D2A253
:10549300126D56126C2E126E92126EA2126D921231
:1054A3006891E4FFFE126BD1126D36E4FFFE126CBD
:1054B3007FE4FF126E28E4F532FF126CA7EF644E0F
:1054C30070227F01126CA7BF451A7F02126CA7BF1F
:1054D30057127F03126CA7BF5A0A7F04126CA7EFFF
:1054E30064A560297D4EE4FF126CF17D457F0112B6
:1054F3006CF17D577F02126CF17D5A7F03126CF1C0
:105503007DA57F04126CF112695C1262DE126D36A6
:105513007F06126CA78F477F07126CA78F2C7F081B
:10552300126DAE8E278F287F0A126DAE8E218F22C9
:105533007F0C126DAE8E4B8F4C7F0E126CA78F417A
:105543007F0F126CA78F4E7F10126CA78F487F11AD
:10555300126CA78F497F12126CA78F4A7F14126DAA
:10556300AE7873A60608A6077F16126DAE7882A6DC
:105573000608A6077F18126DAE7875A60608A6075B
:105583007F1A126DAE7887A60608A6077F1C126DD8
:10559300AE7899A60608A6077F1E126DAE7892A66E
:1055A3000608A6077F20126DAE7895A60608A60703
:1055B3007F22126DAE789BA60608A6077F32126C77
:1055C300A77897A6077F24126CA78F087F25126CF4
:1055D300A778BBA6077F26126DAE7885A60608A618
:1055E300077F28126CA77884A6077F29126CA778F7
:1055F30081A6077F2A126DAE788DA60608A6077FBF
:105603002C126CA77889A6077F2D126CA778BDA6EC
:10561300077F2E126CA77894A6077F30126DAE78A1
:105623008AA60608A6077F33126CA78F097F341258
:105633006CA78F0A7F35126CA77898A6077F36125E
:105643006CA78F3B7F3C126DAE8E258F26E42541E0
:10565300F530E43420F52F12695CD2A9D28CD2AB99
:10566300D28ED2AF753301126735E5317007E53B52
:1056730030E0278022E531B40107E53B30E11B80B0
:1056830016E531B40207E53B30E20F800AE531B499
:105693000308E53B30E303753C01E52A1460261457
:1056A300602814602A14602C146031240570EBE523
:1056B30031700DE53B30E4057524018003E4F524E6
:1056C3001245B780D5125E3480D01259AA80CB120E
:1056D3005BEF80C6752E0112002680BE12607580B6
:1056E300B9D2A59000007F017E00126DCE30A503D4
:1056F300A380FAC2A5C3E49582F582747D9583F5F0
:1057030083C3E5829419E5839409400BD3E582941E
:10571300FFE583944F4006E4FAFB0259A5E5822492
:10572300E7FFE58334F6FE7C007D24123B27AA06BF
:10573300AB07D3EB94B5EA940050030259A5EB24CD
:105743004EFFEA34FFC313FEEF132BFBEE3AFAD3FB
:10575300EB94FCEA940050030259A5EB2406FFEAFC
:1057630034FFFE7C007D06123B27EF2BFBEE3AFA5B
:10577300D3EB9455EA940150030259A5EB24ACFFF3
:10578300EA34FEFE7C007D05123B27EF2BFBEE3A4D
:10579300FAD3EB94AEEA940150030259A5EB2452D9
:1057A300FFEA34FEFE7C007D03123B27EF2BFBEE6A
:1057B3003AFAD3EB94F4EA940150030259A5EB248B
:1057C3000CFFEA34FEFEEF7802CEC313CE13D8F9F2
:1057D3002BFBEE3AFAD3EB944EEA940250030259B0
:1057E300A5EB24B2FFEA34FDFEEF7803CEC313CE5C
:1057F30013D8F92BFBEE3AFAD3EB94BCEA9402509C
:10580300030259A5EB244EFFEA34FDFE7C007D051F
:10581300123B27EF2BFBEE3AFAD3EB94F8EA940210
:1058230050030259A5EB2408FFEA34FDFE7C007DFA
:1058330005123B27EF2BFBEE3AFAD3EB9448EA949D
:105843000350030259A5EB24B8FFEA34FCFE7C00A5
:105853007D03123B27EF2BFBEE3AFAD3EB9490EA4E
:10586300940350030259A5EB2472FFEA34FCFE7C37
:10587300007D06123B27EF2BFBEE3AFAD3EB94F2B3
:10588300EA940350030259A5EB2413FFEA34FCFE08
:105893007C007D07123B27EF2BFBEE3AFAD3EB9408
:1058A30047EA940450030259A5EB24BAFFEA34FBF8
:1058B300FE7C007D09123B27EF2BFBEE3AFAD3EB7C
:1058C300949CEA940450030259A5EB2464FFEA3440
:1058D300FBFE7C007D06123B27EF2BFBEE3AFAD34F
:1058E300EB94D8EA940450030259A5EB2432FFEA5F
:1058F30034FBFEEF7802CEC313CE13D8F92BFBEEA5
:105903003AFAD3EB94FCEA940450030259A5EB242E
:105913000AFFEA34FBFEEF7802CEC313CE13D8F9A5
:105923002BFBEE3AFAD3EB948CEA94054074EB2408
:105933007EFFEA34FAFE7C007D05123B27EF2BFB4A
:10594300EE3AFAD3EB94F8EA94054056EB2410FFB1
:10595300EA34FAFE7C007D05123B27EF2BFBEE3A7F
:10596300FAD3EB9453EA94064038EB24B6FFEA34B7
:10597300F9FEEF7802CEC313CE13D8F92BFBEE3A20
:10598300FAD3EB94BEEA94064018EB2448FFEA34BA
:10599300F9C4F854F0C868FEEFC4540F482BFBEE6B
:1059A3003AFAAF03AE02221265FFBFC003752A04A1
:1059B300BF1006752A04025BEA7878E66003025A90
:1059C3009E76101265538E518F52E53CB40124E547
:1059D30011B4011FD3E5529528E551952740028064
:1059E30047C3E5289552F552E5279551F551E4F55E
:1059F300118053E53CB40106E51170028009E53CD2
:105A03007013E511B4010EE5282552F552E527354B
:105A130051F5518031E53C702DE5117029C3E552F4
:105A23009528E5519527400EE5529528F552E55105
:105A33009527F5518010C3E5289552F552E5279532
:105A430051F551751101D3E5229480E521940CACF5
:105A53004BAD4CAE51AF52400F123B27EF2552F5E1
:105A630052EE3551F551800E123B27C3E5529FF597
:105A730052E5519EF551AC51AD52E4123A5B7BCDE8
:105A83007ACC794C78401239B9123A948E518F52AC
:105A9300E54DB4010674FFF551F5527877E66003DE
:105AA300025BA4C3E552788696F552E5511896F544
:105AB3005178BDE6FFD39401400D7E00AC51AD5249
:105AC300123B158E518F52788AE6FE08E6FFD3E526
:105AD300529FE5519E40048E518F52788DE6FE0809
