:0A0000000257D30200098F6122327B
:10000B00025CD2125FD5C2A2125FDCC296025FDC29
:03001B000259BEC9
:10002300025F98E4F561F562F563F56AF56BAD6B14
:10003300AC6AAF631227EBE5347003020FFE7887D7
:10004300E6700F125DDE8E688F69856823856924EB
:1000530076041259508F61E56130E00575640180C3
:1000630003E4F564E56130E1057565018003E4F5BA
:1000730065E56130E2057566018003E4F566E561D7
:1000830030E3057567018003E4F567E564B40105B2
:100093000563E4F562E563D394134005E4F563F582
:1000A30034E566B40108056BE56B7002056AE56724
:1000B300B40108E56B156B7002156AE563C394041C
:1000C3005003020157E563D3940B400302015778B1
:1000D30080E6706D7604125727E55225E0248BF8ED
:1000E300A60608A607E552C3940850040552806487
:1000F300799AE7789826FF19E71836FEEF1826FF56
:10010300EE1836FEEF1826FFEE1836FEEF1826FF20
:10011300EE1836FEEF1826FFEE1836FEEF1826FF10
:10012300EE1836FEEF1826FFEE1836FEEF7803CEF4
:10013300C313CE13D8F9799EF7EE19F7E4F552807D
:1001430013E55225E0248BF8E6FE08E6FF789DA62A
:100153000608A607E56364017047E539FD7C00AF37
:10016300631227EBE56B2539F539E4F56AF56BE5A1
:1001730039C394044007E4F539F56AF56BE5656422
:1001830001600302003AAD397F12125E1AE4FDFCEE
:100193007F161227EB7FC47E09125E92056202006E
:1001A3003AE5636402703FE539C394024005056391
:1001B30002003AE557FD7C00AF631227EBE56B25A0
:1001C30057F557E4F56AF56BE557C394024007E426
:1001D300F557F56AF56BE5656401600302003AAD16
:1001E300577F13020CD0E5636403703CE539600567
:1001F300056302003AE56B2530F530E4F56AF56BEB
:10020300E530C394064007E4F530F56AF56BE53055
:10021300FD7C00AF631227EBE56564016003020018
:100223003AAD307F14020CD0E5636404600302022C
:10023300C3E5396005056302003AE550B40105756D
:1002430047018003E4F547789DE6FC08E6FDAF63CC
:100253001227EBE5656401600302003A789DE6F539
:100263002808E6F529AC68AD69E412375C7BA47A0B
:100273007079157840123538C004C005C006C00730
:10028300AC28AD29E412375CD003D002D001D000F2
:10029300123443123795AD07AC067F16125F561220
:1002A3005E8EE547B40106E54444018004E5445409
:1002B300FEFD7F32125E1AAD69AC687F3C020B888B
:1002C300E5636405600302085DE5396005056302C3
:1002D300003A789DE6FC08E6FDAF631227EBE5657F
:1002E3006401600302003A789DE6F55C08E6F55D7B
:1002F300AC68AD69E412375C7BA47A7079157840F9
:10030300123538C004C005C006C007AC5CAD5DE45F
:1003130012375CD003D002D001D00012344312371D
:1003230095AD07AC067F18125F56E547640160037D
:100333000205B8AC68AD6912375C7BA47A70791595
:100343007840123538C004C005C006C007AC28ADDC
:1003530029E412375CD003D002D001D00012344319
:10036300C004C005C006C007AC68AD69E412375CC1
:100373007BA47A7079157840123538C004C005C063
:1003830006C007AC5CAD5DE412375CD003D002D08D
:1003930001D000123443D003D002D001D000123474
:1003A300477B007ACA794878471236DEAC68AD6974
:1003B30040030204B0E412375C7BA47A70791578A9
:1003C30040123538C004C005C006C007AC28AD29AB
:1003D300E412375CD003D002D001D000123443C002
:1003E30004C005C006C007AC68AD69E412375C7B86
:1003F300A47A7079157840123538C004C005C00658
:10040300C007AC5CAD5DE412375CD003D002D00111
:10041300D000123443D003D002D001D000123447AD
:100423007B007ACA794878C7123447C004C005C034
:1004330006C007AC68AD69E412375C7BA47A7079B7
:10044300157840123538C004C005C006C007AC2873
:10045300AD29E412375CD003D002D001D0001234AE
:1004630043C004C005C006C007AC68AD69E41237D9
:100473005C7BA47A7079157840123538C004C005C6
:10048300C006C007AC5CAD5DE412375CD003D0029C
:10049300D001D000123443A804A905AA06AB07D0A3
:1004A30007D006D005D004123447020728E41237D8
:1004B3005C7BA47A7079157840123538C004C00586
:1004C300C006C007AC5CAD5DE412375CD003D0025C
:1004D300D001D000123443C004C005C006C007AC2D
:1004E30028AD29E412375CD003D002D001D000122A
:1004F3003447C004C005C006C007AC68AD69E41248
:10050300375C7BA47A7079157840123538A804A932
:1005130005AA06AB07D007D006D005D00412344392
:10052300A804A905AA06AB077F007ECA7D487C47BD
:10053300123443C004C005C006C007AC68AD69E40B
:1005430012375C7BA47A7079157840123538C00471
:10055300C005C006C007AC28AD29E412375CD00340
:10056300D002D001D000123443C004C005C006C07D
:1005730007AC68AD69E412375C7BA47A70791578AF
:1005830040123538C004C005C006C007AC5CAD5D81
:10059300E412375CD003D002D001D000123443A858
:1005A30004A905AA06AB07D007D006D005D00412CC
:1005B3003447020835AC68AD69E412375C7BA47A32
:1005C3007079157840123538C004C005C006C007DD
:1005D300AC28AD29E412375CD003D002D001D0009F
:1005E300123443C004C005C006C007AC68AD69E45B
:1005F30012375C7BA47A7079157840123538C004C1
:10060300C005C006C007AC5CAD5DE412375CD00327
:10061300D002D001D000123443D003D002D001D095
:10062300001234437B007ACA794878471236DEAC2D
:1006330068AD694003020740E412375C7BA47A701B
:1006430079157840123538C004C005C006C007AC20
:1006530028AD29E412375CD003D002D001D00012B8
:100663003443C004C005C006C007AC68AD69E412DA
:10067300375C7BA47A7079157840123538C004C092
:1006830005C006C007AC5CAD5DE412375CD003D097
:1006930002D001D000123443D003D002D001D000E5
:1006A3001234437B007ACA794878C7123447C004AE
:1006B300C005C006C007AC68AD69E412375C7BA413
:1006C3007A7079157840123538C004C005C006C069
:1006D30007AC28AD29E412375CD003D002D001D097
:1006E30000123443C004C005C006C007AC68AD693E
:1006F300E412375C7BA47A7079157840123538C0E0
:1007030004C005C006C007AC5CAD5DE412375CD025
:1007130003D002D001D000123443D003D002D00161
:10072300D000123443D003D002D001D0001236419E
:100733001237958E548F5543441002084AE41237FA
:100743005C7BA47A7079157840123538C004C005F3
:10075300C006C007AC28AD29E412375CD003D00231
:10076300D001D000123443C004C005C006C007AC9A
:1007730068AD69E412375C7BA47A7079157840120E
:100783003538C004C005C006C007AC5CAD5DE412DB
:10079300375CD003D002D001D000123443D003D051
:1007A30002D001D000123443A804A905AA06AB075E
:1007B3007F007ECA7D487C47123443C004C005C015
:1007C30006C007AC68AD69E412375C7BA47A707924
:1007D300157840123538C004C005C006C007AC28E0
:1007E300AD29E412375CD003D002D001D00012341B
:1007F30043C004C005C006C007AC68AD69E4123746
:100803005C7BA47A7079157840123538C004C00532
:10081300C006C007AC5CAD5DE412375CD003D00208
:10082300D001D000123443D003D002D001D0001243
:100833003443D003D002D001D00012364112379591
:100843008E548F555344EFAD55AC547F34125F56DD
:10085300125E8EAD447F32020CD0E563640670599C
:10086300E53964016005056302003AE550B401050A
:100873007547018003E4F547789DE6FC08E6FDAF84
:10088300631227EBE5656401600302003A789DE695
:10089300F54C08E6F54DFDAC4C7F1A125F56125E1F
:1008A3008EE547B40106E54444028004E54454FD63
:1008B300FD7F32125E1A020FD8E5636407600302FC
:1008C300096CE53964016005056302003A789DE629
:1008D300FC08E6FDAF631227EBE5656401600302E4
:1008E300003A789DE6F54508E6F546FDAC457F1CE4
:1008F300125F56E547B40130E546254DFFE5453522
:100903004CFED3EF94E4EE94444009EF241CFDEE37
:1009130034BB8044E546254DFFE545354CFEC374A5
:10092300E49FFD74449E8030C3E546954DFFE54545
:10093300954CFED3EF94E4EE94444009EF241CFD60
:10094300EE34BB8013C3E546954DFFE545954CFE5C
:10095300C374E49FFD74449EFC1238288E3E8F3F7F
:10096300AD3FAC3E7F36020B88E56364087059E502
:100973003964026005056302003AE550B401057568
:1009830047018003E4F547789DE6FC08E6FDAF6385
:100993001227EBE5656401600302003A789DE6F5F2
:1009A3003C08E6F53DFDAC3C7F1E125F56125E8EA1
:1009B300E547B40106E54444048004E54454FBFDE3
:1009C3007F32125E1A020FD8E56364096003020ADC
:1009D30077E53964026005056302003A789DE6FC19
:1009E30008E6FDAF631227EBE565640160030200CF
:1009F3003A789DE6F53508E6F536FDAC357F2012ED
:100A03005F56E547B4012EE536253DFFE535353C18
:100A1300FED3EF9400EE947D4008E42FFDEE348383
:100A23008041E536253DFFE535353CFEC3E49FFDBA
:100A3300747D9E802EC3E536953DFFE535953CFEDE
:100A4300D3EF9400EE947D4008E42FFDEE348380D1
:100A530012C3E536953DFFE535953CFEC3E49FFDA6
:100A6300747D9EFC1238288E2E8F2FAD2FAC2E7FD7
:100A730038020B88E563640A705FE5396403600537
:100A8300056302003AE550B401057547018003E4AC
:100A9300F547789DE6FC08E6FDAF631227EBE565B5
:100AA3006401600302003A7F32FE125E92789DE693
:100AB300F53108E6F532FDAC317F22125F56125E46
:100AC3008EE547B40106E54444088004E54454F741
:100AD300FD7F32125E1A020FD8E563640B600302D6
:100AE3000B8EE53964036005056302003A789DE6E1
:100AF300FC08E6FDAF631227EBE5656401600302C2
:100B0300003A789DE6F52A08E6F52BFDAC2A7F240A
:100B1300125F56125E8EE547B4012EE52B2532FF98
:100B2300E52A3531FED3EF9400EE94194008E42F03
:100B3300FDEE34E78041E52B2532FFE52A3531FE12
:100B4300C3E49FFD74199E802EC3E52B9532FFE508
:100B53002A9531FED3EF9400EE94194008E42FFD5B
:100B6300EE34E78012C3E52B9532FFE52A9531FE7B
:100B7300C3E49FFD74199EFC1238288E258F26AD81
:100B830026AC257F3A125F56020FD8E563640C70DA
:100B93005AAE6AAF6BFC7D0A123816EF254BF54B44
:100BA300EE354AF54AE4F56AF56BAD4BAC4AAF63F3
:100BB3001227EBE56664016009E5676401600302DF
:100BC300003AD3E54B940FE54A94274009E4F56ACC
:100BD300F56BF54AF54BE5656401600302003AAD38
:100BE3004BAC4A7F26125F56020FD8E563640D7043
:100BF3005AAE6AAF6BFC7D0A123816EF2549F549E8
:100C0300EE3548F548E4F56AF56BAD49AC48AF639A
:100C13001227EBE56664016009E56764016003027E
:100C2300003AD3E549940FE54894274009E4F56A6F
:100C3300F56BF548F549E5656401600302003AADDB
:100C430049AC487F28125F56020FD8E563640E60F3
:100C530003020CD6C3E56B94C8E56A94004020E513
:100C63005170057551998040E551540F700CE55151
:100C730024F054F04409F55180021551E48029E52C
:100C83006B6401456A7025E551C3949A4005E4F508
:100C9300518015E551540FFFBF090AE55124105443
:100CA300F0F55180020551E4F56AF56BE42551FD39
:100CB300E43420FCAF631227EBE5656401600302B3
:100CC300003AAD517F06125E38AD517F2A125E1A8B
:100CD300020FD8E563640F707CC3E56B94C8E56AC3
:100CE30094004022E55ED394015005755E12803C6A
:100CF300E55E540F700CE55E24F054F04409F55E94
:100D03008002155E8026E56B6401456A7023E55E0B
:100D1300B41205755E018014E55E540FFFBF090A26
:100D2300E55E241054F0F55E8002055EE4F56AF595
:100D33006BE55EFD7C00AF631227EBE56564016044
:100D43000302003AAD5E7F05125E38AD5E7F2B1263
:100D53005E1A020FD8E56364106003020ED8C3E580
:100D63006B94C8E56A94005003020E0DE558B40174
:100D730011E55EB4020CE55154037006755829025F
:100D83000EB0E558B40112E55EB4020DE55154030B
:100D93006007755828E4020EB0E55864017030E529
:100DA3005E64016023E55E6403601DE55E640560C7
:100DB30017E55E64076011E55E6408600BE55E6439
:100DC300106005E55EB41207755831E4020EB0E514
:100DD30058B4011EE55E64046011E55E6406600BB1
:100DE300E55E64096005E55EB41107755830E402F9
:100DF3000EB0E558540F700CE55824F054F0440934
:100E0300F55880021558E4020EB0E56B6401456A9B
:100E13006003020EB4E55EB40212E5515403700C94
:100E2300E558B42907755801E4020EB0E55EB40233
:100E330011E5515403600BE558B42806755801E4D5
:100E4300806BE55E64016023E55E6403601DE55E1F
:100E530064056017E55E64076011E55E6408600B76
:100E6300E55E64106005E55EB4120BE558B4310627
:100E7300755801E48037E55E64046011E55E64063D
:100E8300600BE55E64096005E55EB4110BE558B4DB
:100E93003006755801E48015E558540FFFBF090A61
:100EA300E558241054F0F55880020558E4F56AF526
:100EB3006BE558FD7C00AF631227EBE565640160C9
:100EC3000302003AAD587F04125E38AD587F2C12EE
:100ED3005E1A020FD8E5636411707AC3E56B94C898
:100EE300E56A94004020E5597005755923803EE575
:100EF30059540F700CE55924F054F04409F5598006
:100F0300021559E48027E56B6401456A7023E559AE
:100F1300B42305E4F5598015E559540FFFBF090AB9
:100F2300E559241054F0F55980020559E4F56AF5A2
:100F33006BE559FD7C00AF631227EBE56564016047
:100F43000302003AAD597F02125E38AD597F2E126B
:100F53005E1A020FD8E56364126003020FECC3E567
:100F63006B94C8E56A94004020E55A7005755A5998
:100F7300803EE55A540F700CE55A24F054F04409AE
:100F8300F55A8002155AE48027E56B6401456A70BF
:100F930023E55AB45905E4F55A8015E55A540FFF71
:100FA300BF090AE55A241054F0F55A8002055AE4A1
:100FB300F56AF56BE55AFD7C00AF631227EBE56537
:100FC3006401600302003AAD5A7F01125E38AD5AE4
:100FD3007F2F125E1A0562E4FDFC7F161227EB7F5A
:100FE300C47E09125E9202003AE563C3941450036F
:100FF30002003AE4F563F53402003A02585F8E6961
:101003008F6A85696B856A6CE4F509E5086401708C
:1010130066D3E56C9455E56B9404AC69AD6A5031C5
:10102300E412375C7BA47A70795D7840123641A86C
:1010330004A905AA06AB07E4FFFE7DA07C43123496
:10104300431237958E6B8F6C750A01E4F50802180D
:101053005EE412375C7BA47A70795D784012364186
:10106300E4FBFA79A078C31234471237958E6B8F5D
:101073006CE4F50A02185EAC69AD6AE412375C7B76
:10108300A47A70795D7840123641E4FBFA79A0784E
:10109300431234471237958E6B8F6CD3E56A94866F
:1010A300E5699404401FE56A24B4FFE56934FBFE57
:1010B300900007E0FD7C00123828C3E56C9FF56CB7
:1010C300E56B9EF56BD3E56A94C4E5699409401F0B
:1010D300E56A246EFFE56934F6FE900008E0FD7CC6
:1010E30000123828C3E56C9FF56CE56B9EF56BD356
:1010F300E56A9484E5699412401FE56A24A4FFE538
:101103006934EDFE900007E0FD7C00123828C3E54A
:101113006C9FF56CE56B9EF56BD3E56A9402E5690C
:101123009417401FE56A241CFFE56934E9FE90002B
:1011330009E0FD7C00123828C3E56C9FF56CE56B74
:101143009EF56BD3E56A9472E569941F401FE56AC7
:1011530024ACFFE56934E0FE900009E0FD7C001259
:101163003828C3E56C9FF56CE56B9EF56BD3E56A98
:101173009430E569942A401FE56A2402FFE5693447
:10118300D6FE900009E0FD7C00123828C3E56C9F71
:10119300F56CE56B9EF56BD3E56A9426E5699434AB
:1011A300401FE56A240CFFE56934CCFE90000AE099
:1011B300FD7C00123828C3E56C9FF56CE56B9EF54A
:1011C3006BD3E56A948CE569943C401FE56A247E01
:1011D300FFE56934C3FE90000AE0FD7C0012382865
:1011E300C3E56C9FF56CE56B9EF56BD3E56A94AC38
:1011F300E569943F401EE56A2486FFE56934C0FE35
:1012030090000AE0FD7C00123828EF256CF56CEEA7
:10121300356BF56BD3E56A9430E5699443401FE57C
:101223006A2402FFE56934BDFE900009E0FD7C00FD
:10123300123828C3E56C9FF56CE56B9EF56BD3E51F
:101243006A9450E569944B401EE56A24BAFFE56948
:1012530034B4FE90000AE0FD7C00123828EF256CC0
:10126300F56CEE356BF56BD3E56A94E8E569944E5E
:10127300401FE56A244AFFE56934B1FE900009E0A6
:10128300FD7C00123828C3E56C9FF56CE56B9EF579
:101293006BD3E56A948CE569945A401FE56A24B0E0
:1012A300FFE56934A5FE90000AE0FD7C00123828B2
:1012B300C3E56C9FF56CE56B9EF56BD3E56A94040F
:1012C300E5699460401EE56A2424FFE56934A0FEC5
:1012D30090000BE0FD7C00123828EF256CF56CEED6
:1012E300356BF56BD3E56A9470E5699467401FE548
:1012F3006A24B8FFE5693498FE90000AE0FD7C009B
:10130300123828C3E56C9FF56CE56B9EF56BD3E54E
:101313006A9478E569946E401EE56A24B0FFE56936
:101323003491FE90000BE0FD7C00123828EF256C11
:10133300F56CEE356BF56BD3E56A9436E569947419
:10134300401FE56A24FCFFE569348BFE90000AE048
:10135300FD7C00123828C3E56C9FF56CE56B9EF5A8
:101363006BAE69AF6AE4FCFD7B907A83F9F8C31234
:10137300388B502BE56A2498FFE569347CFEE4340E
:10138300FFFDE434FFFCC00790000AE0FBE4FAF839
:10139300D007125A76EF256CF56CEE356BF56BAE14
:1013A30069AF6AE4FCFD7BB07A86F9F8C312388B27
:1013B300502CE56A2478FFE5693479FEE434FFFDB7
:1013C300E434FFFCC007900009E0FBE4FAF8D0071F
:1013D300125A76C3E56C9FF56CE56B9EF56BAE69AF
:1013E300AF6AE4FCFD7B807A8EF9F8C312388B5028
:1013F3002BE56A24A8FFE5693471FEE434FFFDE4BC
:1014030034FFFCC00790000BE0FBE4FAF8D00712AE
:101413005A76EF256CF56CEE356BF56BAE69AF6AFA
:10142300E4FCFD7B447A93F9F8C312388B502CE526
:101433006A24EEFFE569346CFEE434FFFDE434FF17
:10144300FCC00790000BE0FBE4FAF8D007125A76D1
:10145300C3E56C9FF56CE56B9EF56BAE69AF6AE413
:10146300FCFD7B987A9EF9F8C312388B502BE56A02
:10147300249AFFE5693461FEE434FFFDE434FFFCA4
:10148300C00790000BE0FBE4FAF8D007125A76EF9E
:10149300256CF56CEE356BF56BAE69AF6AE4FCFD5C
:1014A3007BF07AA0F9F8C312388B502CE56A2442FA
:1014B300FFE569345FFEE434FFFDE434FFFCC0075D
:1014C30090000BE0FBE4FAF8D007125A76C3E56C00
:1014D3009FF56CE56B9EF56BAE69AF6AE4FCFD7B33
:1014E300047AA6F9F8C312388B502BE56A242EFF31
:1014F300E569345AFEE434FFFDE434FFFCC0079091
:10150300000BE0FBE4FAF8D007125A76EF256CF5EE
:101513006CEE356BF56BAE69AF6AE4FCFD7BD47A98
:10152300ADF9F8C312388B502CE56A245EFFE569E8
:101533003452FEE434FFFDE434FFFCC00790000B9B
:10154300E0FBE4FAF8D007125A76C3E56C9FF56C1A
:10155300E56B9EF56BAE69AF6AE4FCFD7B547ABA2A
:10156300F9F8C312388B502BE56A24DEFFE56934A2
:1015730045FEE434FFFDE434FFFCC00790000AE0BD
:10158300FBE4FAF8D007125A76EF256CF56CEE35CA
:101593006BF56BAE69AF6AE4FCFD7B767AC0F9F854
:1015A300C312388B502CE56A249EFFE569343FFE55
:1015B300E434FFFDE434FFFCC007900007E0FBE4E4
:1015C300FAF8D007125A76C3E56C9FF56CE56B9E6B
:1015D300F56BAE69AF6AE4FCFD7B507AC3F9F8C3DF
:1015E30012388B502BE56A24C4FFE569343CFEE4D2
:1015F30034FFFDE434FFFCC007900007E0FBE4FA8E
:10160300F8D007125A76EF256CF56CEE356BF56B57
:10161300AE69AF6AE4FCFD7B947ACAF9F8C3123869
:101623008B502CE56A2494FFE5693435FEE434FFDE
:10163300FDE434FFFCC00790000BE0FBE4FAF8D0B4
:1016430007125A76C3E56C9FF56CE56B9EF56BAE9E
:1016530069AF6AE4FCFD7B507ACDF9F8C312388B8D
:10166300502BE56A24D8FFE5693432FEE434FFFDEC
:10167300E434FFFCC00790000BE0FBE4FAF8D0076A
:10168300125A76EF256CF56CEE356BF56BAE69AFE0
:101693006AE4FCFD7B387AD1F9F8C312388B502CFD
:1016A300E56A24F0FFE569342EFEE434FFFDE434FB
:1016B300FFFCC00790000BE0FBE4FAF8D007125AD6
:1016C30076C3E56C9FF56CE56B9EF56BAE69AF6A0F
:1016D300E4FCFD7BB07AD6F9F8C312388B502BE5C6
:1016E3006A2478FFE5693429FEE434FFFDE434FF1E
:1016F300FCC00790000BE0FBE4FAF8D007125A761F
:10170300EF256CF56CEE356BF56BAE69AF6AE4FCF7
:10171300FD7B307AE3F9F8C312388B502BE56A244A
:10172300F8FFE569341CFEE434FFFDE434FFFCC03C
:101733000790000BE0FBE4FAF8D007125A76EF2586
:101743006CF56CEE356BF56BAE69AF6AE4FCFD7B53
:101753008C7AE6F9F8C312388B502CE56A2488FF9B
:10176300E5693419FEE434FFFDE434FFFCC007905F
:101773000009E0FBE4FAF8D007125A76C3E56C9F40
:10178300F56CE56B9EF56BAE69AF6AE4FCFD7B9C83
:101793007AEAF9F8C312388B502BE56A248CFFE5FB
:1017A300693415FEE434FFFDE434FFFCC007900008
:1017B3000BE0FBE4FAF8D007125A76EF256CF56CD0
:1017C300EE356BF56BAE69AF6AE4FCFD7B347AF3FF
:1017D300F9F8C312388B502CE56A24F4FFE5693419
:1017E3000CFEE434FFFDE434FFFCC00790000BE083
:1017F300FBE4FAF8D007125A76C3E56C9FF56CE563
:101803006B9EF56BAE69AF6AE4FCFD7BFC7AF3F982
:10181300F8C312388B502BE56A242CFFE569340C8E
:10182300FEE434FFFDE434FFFCC00790000AE0FB54
:10183300E4FAF8D007125A76EF256CF56CEE356BA7
:10184300F56BAE69AF6AE4FCFD7BB07AFA7909F80F
:10185300C312388B5005E4F56BF56CAE6BAF6C229D
:101863008E698F6AE4F509E508640160030219389B
:10187300D3E56A9417E5699403AC69AD6A5030E423
:1018830012375C7BE17A7A79147840123641A804E6
:10189300A905AA06AB07E4FFFE7DA07C43123443EF
:1018A3001237958E6B8F6C750A01E4F5088023E47B
:1018B30012375C7BE17A7A79147840123641E4FB83
:1018C300FA79A078C31234471237958E6B8F6CE484
:1018D300F50AD3E56A94F8E56994024022E50A70B3
:1018E3001EE56A2426FFE56934FDFE90001BE0FD3A
:1018F3007C00123828EF256CF56CEE356BF56BD355
:10190300E56A94D0E56994075003022056E50A601E
:1019130003022056E56A2462FFE56934F8FE90006D
:101923001DE0FD7C00123828EF256CF56CEE356B5D
:10193300F56B022056AC69AD6AE412375C7BE17A41
:101943007A79147840123641E4FBFA79A07843128D
:1019530034471237958E6B8F6CD3E56A94F8E5693B
:101963009402401FE56A2426FFE56934FDFE9000DA
:101973001BE0FD7C00123828C3E56C9FF56CE56B1A
:101983009EF56BD3E56A94D0E5699407401FE56A39
:101993002462FFE56934F8FE90001DE0FD7C00122F
:1019A3003828C3E56C9FF56CE56B9EF56BD3E56A50
:1019B3009460E569940C401EE56A24B2FFE569343E
:1019C300F3FE90001DE0FD7C00123828EF256CF536
:1019D3006CEE356BF56BD3E56A94DEE569940D40E7
:1019E3001FE56A2454FFE56934F2FE90001DE0FD13
:1019F3007C00123828C3E56C9FF56CE56B9EF56B94
:101A0300D3E56A94F2E5699412401EE56A2440FF27
:101A1300E56934EDFE90001CE0FD7C00123828EFF0
:101A2300256CF56CEE356BF56BD3E56A9444E5698B
:101A3300941B401EE56A240CFFE56934E5FE900023
:101A43001DE0FD7C00123828EF256CF56CEE356B3C
:101A5300F56BD3E56A947FE5699424401FE56A2416
:101A6300FCFFE56934DBFE90001EE0FD7C001238CC
:101A730028C3E56C9FF56CE56B9EF56BD3E56A9423
:101A8300B4E5699428401FE56A2488FFE56934D7E3
:101A9300FE90001DE0FD7C00123828C3E56C9FF525
:101AA3006CE56B9EF56BD3E56A94FCE56994304075
:101AB3001FE56A242CFFE56934CFFE90001EE0FD8C
:101AC3007C00123828C3E56C9FF56CE56B9EF56BC3
:101AD300D3E56A94AAE5699437401FE56A2488FF31
:101AE300E56934C8FE90001FE0FD7C00123828C36E
:101AF300E56C9FF56CE56B9EF56BD3E56A94A0E509
:101B0300699441401FE56A2492FFE56934BEFE9063
:101B1300001FE0FD7C00123828C3E56C9FF56CE5DF
:101B23006B9EF56BD3E56A944AE5699447401EE5DD
:101B33006A24E8FFE56934B8FE90001FE0FD7C00ED
:101B4300123828EF256CF56CEE356BF56BD3E56A2F
:101B530094FAE569944B401FE56A2438FFE569343C
:101B6300B4FE90001EE0FD7C00123828C3E56C9F94
:101B7300F56CE56B9EF56BD3E56A94CAE5699453FE
:101B8300401FE56A2468FFE56934ACFE90001FE05E
:101B9300FD7C00123828C3E56C9FF56CE56B9EF560
:101BA3006BD3E56A9488E5699459401EE56A24C8B5
:101BB300FFE56934A6FE90001EE0FD7C0012382884
:101BC300EF256CF56CEE356BF56BD3E56A9406E5A2
:101BD300699463401FE56A242CFFE569349DFE90F8
:101BE300001FE0FD7C00123828C3E56C9FF56CE50F
:101BF3006B9EF56BD3E56A94ECE5699468401EE54A
:101C03006A2450FFE5693497FE90001EE0FD7C00D6
:101C1300123828EF256CF56CEE356BF56BD3E56A5E
:101C23009458E5699470401EE56A24ACFFE5693475
:101C330090FE90001FE0FD7C00123828EF256CF524
:101C43006CEE356BF56BD3E56A945CE5699476408D
:101C53001FE56A2408FFE569348AFE90001FE0FD52
:101C63007C00123828C3E56C9FF56CE56B9EF56B21
:101C7300D3E56A9476E569947A401EE56A24EEFF1B
:101C8300E5693485FE90001DE0FD7C00123828EFE5
:101C9300256CF56CEE356BF56BAE69AF6AE4FCFD54
:101CA3007B9E7A84F9F8C312388B502BE56A24940F
:101CB300FFE569347BFEE434FFFDE434FFFCC00739
:101CC30090001FE0FBE4FAF8D007125A76EF256C78
:101CD300F56CEE356BF56BAE69AF6AE4FCFD7B6EBC
:101CE3007A8CF9F8C312388B502BE56A24C4FFE5CC
:101CF300693473FEE434FFFDE434FFFCC007900055
:101D03001EE0FBE4FAF8D007125A76EF256CF56C67
:101D1300EE356BF56BAE69AF6AE4FCFD7BBA7A9086
:101D2300F9F8C312388B502BE56A2478FFE5693440
:101D33006FFEE434FFFDE434FFFCC00790001FE0B6
:101D4300FBE4FAF8D007125A76EF256CF56CEE3502
:101D53006BF56BAE69AF6AE4FCFD7BEE7A98F9F83C
:101D6300C312388B502BE56A2444FFE5693467FEC0
:101D7300E434FFFDE434FFFCC00790001FE0FBE404
:101D8300FAF8D007125A76EF256CF56CEE356BF541
:101D93006BAE69AF6AE4FCFD7B667A9EF9F8C31209
:101DA300388B502BE56A24CCFFE5693461FEE434BB
:101DB300FFFDE434FFFCC00790001FE0FBE4FAF8EA
:101DC300D007125A76EF256CF56CEE356BF56BAEDA
:101DD30069AF6AE4FCFD7BA67AA4F9F8C312388BD9
:101DE300502BE56A24F0FFE569345BFEE434FFFD24
:101DF300E434FFFCC00790001FE0FBE4FAF8D007CF
:101E0300125A76EF256CF56CEE356BF56BAE69AF58
:101E13006AE4FCFD7BBA7AA9F9F8C312388B502B1C
:101E2300E56A2478FFE5693456FEE434FFFDE434C3
:101E3300FFFCC00790001FE0FBE4FAF8D007125A3A
:101E430076EF256CF56CEE356BF56BAE69AF6AE436
:101E5300FCFD7B967AAFF9F8C312388B502AE42540
:101E63006AFFE5693451FEE434FFFDE434FFFCC04E
:101E73000790001EE0FBE4FAF8D007125A76EF252C
:101E83006CF56CEE356BF56BAE69AF6AE4FCFD7B0C
:101E93003A7AB6F9F8C312388B502BE56A24F8FF67
:101EA300E5693449FEE434FFFDE434FFFCC00790E8
:101EB300001EE0FBE4FAF8D007125A76EF256CF522
:101EC3006CEE356BF56BAE69AF6AE4FCFD7B7A7A39
:101ED300BCF9F8C312388B502BE56A24B8FFE569C7
:101EE3003443FEE434FFFDE434FFFCC00790001DDF
:101EF300E0FBE4FAF8D007125A76EF256CF56CEEA6
:101F0300356BF56BAE69AF6AE4FCFD7BDA7AC5F934
:101F1300F8C312388B502BE56A2458FFE569343A2D
:101F2300FEE434FFFDE434FFFCC00790001CE0FB3B
:101F3300E4FAF8D007125A76EF256CF56CEE356BA0
:101F4300F56BAE69AF6AE4FCFD7B467ACDF9F8C365
:101F530012388B502BE56A24ECFFE5693432FEE43A
:101F630034FFFDE434FFFCC00790001CE0FBE4FAFF
:101F7300F8D007125A76EF256CF56CEE356BF56BDE
:101F8300AE69AF6AE4FCFD7B2E7AD1F9F8C312384F
:101F93008B502BE56A2404FFE569342FFEE434FFFC
:101FA300FDE434FFFCC00790001EE0FBE4FAF8D028
:101FB30007125A76EF256CF56CEE356BF56BAE694F
:101FC300AF6AE4FCFD7B0A7AD7F9F8C312388B5069
:101FD3002BE56A2428FFE5693429FEE434FFFDE498
:101FE30034FFFCC00790001CE0FBE4FAF8D00712B2
:101FF3005A76EF256CF56CEE356BF56BAE69AF6A0F
:10200300E4FCFD7B1E7ADCF9F8C312388B502BE518
:102013006A2414FFE5693424FEE434FFFDE434FF4D
:10202300FCC00790001DE0FBE4FAF8D007125A76D3
:10203300EF256CF56CEE356BF56BAE69AF6AE4FCBE
:10204300FD7B487AEEF9F8C312388B500674FFF51E
:102053006BF56CAE6BAF6C22E4F569F56AF56BF565
:102063006CF56DF56E8C6F8D70E550640160030245
:10207300222CC3E570940AE56F9400503F90604BA7
:10208300E493F569F56AF56BE539B4030A90604E9C
:10209300E493F56B022247E50964016005E539B471
:1020A300020D90604BE493F56C90604E0222809099
:1020B300604EE493F56C906055022280C3E5709402
:1020C3000AE56F9400403FE5709464E56F94005017
:1020D3003590604BE493F569F56AF56BE539640374
:1020E300700C90604E93F56B9060550222FFE509EA
:1020F30064016006E5396402700690604E0222FFB7
:1021030090604E022338C3E5709464E56F940040F9
:1021130038E57094E8E56F9403502E90604BE49398
:10212300F569F56A90604EE493F56BE539640370E5
:102133000302239AE509640170030223FDE5396470
:102143000260030224550223FDC3E57094E8E56FA2
:102153009403404FE5709410E56F942750459060C9
:102163004BE493F56990604EE493F56AAE6FAF70FC
:102173007C037DE812382874392FF58274603EF5AC
:1021830083E493F56BE539640370030224F0E509F6
:1021930064017003022561E539640260030225C608
:1021A300022561C3E5709410E56F9427500302275D
:1021B300D6AE6FAF70E4FCFD7BA07A867901F8D3CD
:1021C30012388B50030227D690604EE493F569AE24
:1021D3006FAF707C277D1012382874392FF5827405
:1021E300603EF583E493F56AAE6FAF707C277D1094
:1021F3001238287E037FE8CFCDCFCECCCE1238283D
:1022030074392FF58274603EF583E493F56BE539F9
:10221300640370030224F0E50964016006E5396490
:102223000270030225610225C6C3E570940AE56FB7
:102233009400505590604BE493F569F56AF56BE5AE
:1022430039B40313906055E493F56C906039E493CB
:10225300F56DE5700227D3E50964016005E539B43E
:10226300021190604BE493F56CF56DE57090603965
:102273000227D390604BE493F56C906055E493F59B
:102283006DE5709060390227D3C3E570940AE56F5A
:102293009400500302236EE5709464E56F9400404C
:1022A3000302236E90604BE493F569F56AF56BE5E1
:1022B300396403703890605593F56CAE6FAF707CE2
:1022C300007D0A12382874392FF58274603EF58335
:1022D300E493F56DAE6FAF707C007D0A12382874FD
:1022E300392DF58274603CF583E40227D3E5096454
:1022F300016006E5396402703990604BE493F56C34
:10230300AE6FAF707C007D0A12382874392FF582C6
:1023130074603EF583E493F56DAE6FAF707C007D22
:102323000A12382874392DF58274603CF583E4026F
:1023330027D390604BE493F56CAE6FAF707C007D58
:102343000A12382874552FF58274603EF583E4939E
:10235300F56DAE6FAF707C007D0A12382874392D8D
:10236300F58274603CF583E40227D3C3E57094647B
:10237300E56F940050030224ADE57094E8E56F9493
:102383000340030224AD90604BE493F569F56AF5CD
:102393006BE53964037057AE6FAF70FC7D64123820
:1023A3002874552FF58274603EF583E493F56CAE83
:1023B3006FAF707C007D641238287E007F0ACFCD1A
:1023C300CFCECCCE12382874392FF58274603EF507
:1023D30083E493F56DAE6FAF707C007D0A123828ED
:1023E30074392DF58274603CF583E40227D3E50943
:1023F30064016006E53964027058AE6FAF707C000B
:102403007D6412382874392FF58274603EF583E4B5
:1024130093F56CAE6FAF707C007D641238287E003C
:102423007F0ACFCDCFCECCCE12382874392FF58288
:1024330074603EF583E493F56DAE6FAF707C007D01
:102443000A12382874392DF58274603CF583E4024E
:1024530027D3AE6FAF707C007D6412382874392F98
:10246300F58274603EF583E493F56CAE6FAF707CD8
:10247300007D641238287E007F0ACFCDCFCECCCE2C
:1024830012382874552FF58274603EF583E493F572
:102493006DAE6FAF707C007D0A12382874392DF54C
:1024A3008274603CF583E40227D3C3E57094E8E5C6
:1024B3006F9403500302262BE5709410E56F942765
:1024C300400302262B90604BE493F569F56AAE6FE7
:1024D300AF707C037DE812382874392FF58274605D
:1024E3003EF583E493F56BE53964037065AE6FAF36
:1024F300707C037DE81238287E007F64CFCDCFCE79
:10250300CCCE12382874552FF58274603EF583E4DF
:1025130093F56CAE6FAF707C007D641238287E003B
:102523007F0ACFCDCFCECCCE12382874392FF58287
:1025330074603EF583E493F56DAE6FAF707C007D00
:102543000A12382874392DF58274603CF583E4024D
:1025530027D3E50964016006E53964027065AE6F4F
:10256300AF707C037DE81238287E007F64CFCDCF27
:10257300CECCCE12382874392FF58274603EF583A1
:10258300E493F56CAE6FAF707C007D641238287EE7
:10259300007F0ACFCDCFCECCCE12382874392FF599
:1025A3008274603EF583E493F56DAE6FAF707C008B
:1025B3007D0A12382874392DF58274603CF583E462
:1025C3000227D3AE6FAF707C037DE81238287E00FC
:1025D3007F64CFCDCFCECCCE12382874392FF5827D
:1025E30074603EF583E493F56CAE6FAF707C007D51
:1025F300641238287E007F0ACFCDCFCECCCE1238DE
:102603002874552FF58274603EF583E493F56DAE1F
:102613006FAF707C007D0A12382874392DF58274EF
:10262300603CF583E40227D3C3E5709410E56F940F
:102633002750030227D6AE6FAF70E4FCFD7BA07A70
:10264300867901F8D312388B50030227D690604B5A
:10265300E493F569AE6FAF707C277D101238287450
:10266300392FF58274603EF583E493F56AAE6FAF5C
:10267300707C277D101238287E037FE8CFCDCFCE24
:10268300CCCE12382874392FF58274603EF583E47A
:1026930093F56BE53964037065AE6FAF707C037DB2
:1026A300E81238287E007F64CFCDCFCECCCE12384F
:1026B3002874552FF58274603EF583E493F56CAE70
:1026C3006FAF707C007D641238287E007F0ACFCD07
:1026D300CFCECCCE12382874392FF58274603EF5F4
:1026E30083E493F56DAE6FAF707C007D0A123828DA
:1026F30074392DF58274603CF583E40227D3E50930
:1027030064016006E53964027064AE6FAF707C03E8
:102713007DE81238287E007F64CFCDCFCECCCE1299
:10272300382874392FF58274603EF583E493F56C91
:10273300AE6FAF707C007D641238287E007F0ACFB5
:10274300CDCFCECCCE12382874392FF58274603EAB
:10275300F583E493F56DAE6FAF707C007D0A12389C
:102763002874392DF58274603CF583E48062AE6F82
:10277300AF707C037DE81238287E007F64CFCDCF15
:10278300CECCCE12382874392FF58274603EF5838F
:10279300E493F56CAE6FAF707C007D641238287ED5
:1027A300007F0ACFCDCFCECCCE12382874552FF56B
:1027B3008274603EF583E493F56DAE6FAF707C0079
:1027C3007D0A12382874392DF58274603CF583E450
:1027D30093F56E856C7B856B7C856A7D85697EABA5
:1027E3006DAD6E7F010254EA8C6C8D6D8F6EAF6D93
:1027F300AE6CE56E702890604A93FFF56F90603978
:10280300E493F57090604BE493F57190603EE4932C
:10281300F572906047E493F5738F74022EBBE56EF7
:10282300640160030228CBEF4E702290604A93F557
:102833006F90603AE493F57090604BE493F571F513
:1028430072906050E493F573A3E493F574EF64011D
:102853004E702990604A93F56F90603AE493F57057
:1028630090604BE493F571906052E493F57290603D
:1028730050E493F573906046E493F574EF64024E6D
:10288300701F90604A93F56F90603AE493F57090EF
:10289300604BE493F571F572F57390604FE493F533
:1028A30074EF64034E6003022EBB90604A93F56F8E
:1028B30090603AE493F57090604BE493F571F57290
:1028C300F573906043022DB6E56E64027049EF4ED6
:1028D300701E90604A93F56F90603BE493F570909F
:1028E300604BE493F571F572F573906045022DB674
:1028F300EF64014E6003022EBB90604A93F56F9024
:10290300603BE493F57090604BE493F571F572F5D9
:1029130073906048022DB6E56E64036003022A11CA
:10292300EF4E701B90604A93F56F90603CE493F513
:102933007090604BE493F571F572757374F574EFF1
:1029430064014E702490604A93F56F90603CE49369
:10295300F57090604BE493F571F572906054E493D5
:10296300F57390604BE493F574EF64024E7024901A
:10297300604A93F56F90603CE493F57090604BE48C
:1029830093F571F572906050E493F57390604BE4A6
:1029930093F574EF64034E702490604A93F56F903F
:1029A300603CE493F57090604BE493F571F572909D
:1029B3006047E493F57390604BE493F574EF64041C
:1029C3004E702490604A93F56F90603CE493F570E9
:1029D30090604BE493F571F572906052E493F57354
:1029E30090604BE493F574EF64054E6003022EBBD5
:1029F30090604A93F56F90603CE493F57090604B60
:102A0300E493F571F57275736DF574022EBBE56E83
:102A1300C394045003022DBAE56ED3940D40030210
:102A23002DBA856C76856D77E56EB404059060509C
:102A3300803AE56EB405059060508041E56EB406BA
:102A4300059060528026E56EB40705906052802D94
:102A5300E56EB4080590604F8012E56EB4090590E9
:102A6300604F8019E56EB40A0C906043E493F56FF0
:102A730075705C8039E56EB40B0C906043E493F59C
:102A83006F75706D8028E56EB40C10906043E4930D
:102A9300F56F90604DE493F5708013E56EB40D11FE
:102AA300906043E493F56F906049E493F570E4F527
:102AB30075C3E57694004040E577940AE576940083
:102AC300503690604BE493F571F572E5757009E546
:102AD3000970059060558004906039E493F573AEF6
:102AE30076AF777C007D0A12382874392DF582740D
:102AF300603CF583E493F574C3E577940AE5769433
:102B0300004060E5779464E5769400505690604BFE
:102B1300E493F571F572E5757017E5097013AE76F8
:102B2300AF77FC7D0A12382874552FF582746080C4
:102B330012AE76AF777C007D0A12382874392FF5F0
:102B43008274603EF583E493F573AE76AF777C00D1
:102B53007D0A12382874392DF58274603CF583E4BC
:102B630093F574C3E5779464E57694005003022CDF
:102B730008E57794E8E57694034003022C08906017
:102B83004BE493F571AE76AF777C007D6412382801
:102B930074392FF58274603EF583E493F572E5751D
:102BA3007024E5097020AE76AF77FC7D6412382877
:102BB3007E007F0ACFCDCFCECCCE12382874552FCE
:102BC300F5827460801FAE76AF777C007D64123827
:102BD300287E007F0ACFCDCFCECCCE1238287439D1
:102BE3002FF58274603EF583E493F573AE76AF7789
:102BF3007C007D0A12382874392DF58274603CF507
:102C030083E493F574C3E57794E8E576940350037E
:102C1300022CC9E5779410E57694274003022CC96A
:102C2300AE76AF777C037DE812382874392FF582AE
:102C330074603EF583E493F571AE76AF777C037DE4
:102C4300E81238287E007F64CFCDCFCECCCE1238A9
:102C53002874392FF58274603EF583E493F572E5A9
:102C6300757024E5097020AE76AF77FC7D64123869
:102C7300287E007F0ACFCDCFCECCCE123828745514
:102C83002FF5827460801FAE76AF777C007D64126F
:102C930038287E007F0ACFCDCFCECCCE1238287411
:102CA300392FF58274603EF583E493F573AE76AF06
:102CB300777C007D0A12382874392DF58274603CC4
:102CC300F583E493F574C3E5779410E57694275080
:102CD30003022EBBAE76AF77E4FCFD7BA07A867948
:102CE30001F8D312388B5003022EBBAE76AF777C3C
:102CF300277D1012382874392FF58274603EF583CE
:102D0300E493F570AE76AF777C277D101238287E7A
:102D1300037FE8CFCDCFCECCCE12382874392FF530
:102D23008274603EF583E493F571AE76AF777C03EE
:102D33007DE81238287E007F64CFCDCFCECCCE1273
:102D4300382874392FF58274603EF583E493F57265
:102D5300E5757024E5097020AE76AF77FC7D6412CB
:102D630038287E007F0ACFCDCFCECCCE1238287440
:102D7300552FF5827460801FAE76AF777C007D643B
:102D83001238287E007F0ACFCDCFCECCCE12382882
:102D930074392FF58274603EF583E493F573AE7650
:102DA300AF777C007D0A12382874392DF582746060
:102DB3003CF583E4022E9FE56EC3940E5009E56E45
:102DC30094144003022EA4E56EB40E05756F6E8055
:102DD3002EE56EB40F0C90604CE493F56F90603960
:102DE3008031E56EB4100C906046E493F56F757016
:102DF3006E8024E56EB4110C906049E493F56F90F6
:102E03006052800FE56EB4120E90604CE493F56F40
:102E130090603AE493F570856C76856D77E5775429
:102E23000FFDE576C4F854F0C868F576E577C45429
:102E33000F48F577540FFCE576C4F854F0C868F5ED
:102E430076E577C4540F48F577540FFBE576C4F85D
:102E530054F0C868F576E577C4540F48F577540FF6
:102E6300FF757501702390604B93FEF571EB70084D
:102E73008E72EC9060398008EB90603993F572ECB8
:102E830093F573ED93F574800FEF90603993F571BB
:102E9300EB93F572EC93F573ED90603993F57480D1
:102EA30017E56EC394164010E4F56FF570F5717570
:102EB300726E75737975746B85727B85717C8570A1
:102EC3007D856F7EAB73AD747F010254EA8E698F8B
:102ED3006A85696D856A6EE4F509E5086401600336
:102EE30002325FD3E56A94C2E5699402AC69AD6AC4
:102EF3005030E412375C7B7B7A14790E78401236BB
:102F030041A804A905AA06AB07E4FFFE7DA07C4304
:102F13001234431237958E6B8F6C750A01E4F508F2
:102F23008026E412375C7BCD7ACC790C784012365C
:102F330041E4FBFA79A078C31234471237958E6BBC
:102F43008F6CE4F50A750801D3E56C946EE56B9418
:102F5300004022E50A701EE56C249CFFE56B34FFFC
:102F6300FE900043E0FD7C00123828EF256CF56CE1
:102F7300EE356BF56BD3E56C94B5E56B94014022AC
:102F8300E50A701EE56C245CFFE56B34FEFE9000E1
:102F930046E0FD7C00123828EF256CF56CEE356BAE
:102FA300F56BD3E56C9458E56B94024022E50A7007
:102FB3001EE56C24DAFFE56B34FDFE900045E0FD71
:102FC3007C00123828EF256CF56CEE356BF56BD36E
:102FD300E56C94DEE56B94024022E50A701EE56C15
:102FE300243AFFE56B34FDFE900044E0FD7C0012C3
:102FF3003828EF256CF56CEE356BF56BD3E56C94E7
:10300300C0E56B94034022E50A701EE56C244AFF79
:10301300E56B34FCFE900045E0FD7C00123828EFA0
:10302300256CF56CEE356BF56BD3E56C947EE56B37
:1030330094044022E50A701EE56C24B4FFE56B346A
:10304300FBFE900044E0FD7C00123828EF256CF570
:103053006CEE356BF56BD3E56C9446E56B940540EC
:1030630022E50A701EE56C24ECFFE56B34FAFE9052
:103073000044E0FD7C00123828EF256CF56CEE353A
:103083006BF56BD3E56C9404E56B94064022E50A7B
:10309300701EE56C2410FFE56B34FAFE900043E0EC
:1030A300FD7C00123828EF256CF56CEE356BF56B63
:1030B300D3E56C94F4E56B94064022E50A701EE5B3
:1030C3006C242AFFE56B34F9FE900044E0FD7C009C
:1030D300123828EF256CF56CEE356BF56BD3E56C88
:1030E3009476E56B94074022E50A701EE56C249400
:1030F300FFE56B34F8FE900044E0FD7C00123828B5
:10310300EF256CF56CEE356BF56BD3E56C9448E508
:103113006B94084022E50A701EE56C24C2FFE56B40
:1031230034F7FE900043E0FD7C00123828EF256C55
:10313300F56CEE356BF56BD3E56C94DEE56B9408BB
:103143004022E50A701EE56C242CFFE56B34F7FE84
:10315300900043E0FD7C00123828EF256CF56CEEFF
:10316300356BF56BD3E56C94F6E56B94094022E57A
:103173000A701EE56C2428FFE56B34F6FE900043CD
:10318300E0FD7C00123828EF256CF56CEE356BF50D
:103193006BD3E56C94A0E56B940A4022E50A701E9C
:1031A300E56C2488FFE56B34F5FE900043E0FD7C7D
:1031B30000123828EF256CF56CEE356BF56BD3E513
:1031C3006C944AE56B940B4022E50A701EE56C246F
:1031D300DEFFE56B34F4FE900043E0FD7C00123823
:1031E30028EF256CF56CEE356BF56BD3E56C949A93
:1031F300E56B940B4022E50A701EE56C2484FFE521
:103203006B34F4FE900043E0FD7C00123828EF2578
:103213006CF56CEE356BF56BD3E56C9426E56B942E
:103223000C4022E50A701EE56C24E4FFE56B34F3E1
:10323300FE900043E0FD7C00123828EF256CF56C0E
:10324300EE356BF56BD3E56C94A0E56B940F5003EF
:1032530002343B756B13756C7E02343B856D6B8555
:103263006E6CAC6DAD6EE412375C7BCD7ACC790CB1
:103273007840123641E4FBFA79A0784312344712BE
:1032830037958E6B8F6CD3E56C9454E56B9401404A
:103293001FE56C24B6FFE56B34FEFE900045E0FDB0
:1032A3007C00123828C3E56C9FF56CE56B9EF56BCB
:1032B300D3E56C943AE56B9402401FE56C24D0FF90
:1032C300E56B34FDFE900044E0FD7C00123828C31A
:1032D300E56C9FF56CE56B9EF56BD3E56C94ACE503
:1032E3006B9403401FE56C2472FFE56B34FCFE9086
:1032F3000044E0FD7C00123828C3E56C9FF56CE5C3
:103303006B9EF56BD3E56C9414E56B9405401FE558
:103313006C240AFFE56B34FBFE900044E0FD7C0067
:10332300123828C3E56C9FF56CE56B9EF56BD3E50E
:103333006C94B8E56B9406401FE56C245CFFE56B69
:1033430034F9FE900044E0FD7C00123828C3E56C9C
:103353009FF56CE56B9EF56BD3E56C947AE56B9406
:1033630008401CE56C249AFFE56B34F7FE7C007D76
:103373001C123828C3E56C9FF56CE56B9EF56BD387
:10338300E56C9432E56B940A401FE56C24ECFFE591
:103393006B34F5FE900045E0FD7C00123828C3E550
:1033A3006C9FF56CE56B9EF56BD3E56C94A4E56BB4
:1033B300940B401FE56C2470FFE56B34F4FE900022
:1033C30045E0FD7C00123828C3E56C9FF56CE56B86
:1033D3009EF56BD3E56C94B7E56B940D401FE56CDC
:1033E30024AEFFE56B34F2FE900045E0FD7C001255
:1033F3003828C3E56C9FF56CE56B9EF56BD3E56CE4
:103403009490E56B940F401FE56C24E2FFE56B3469
:10341300F0FE900046E0FD7C00123828C3E56C9F67
:10342300F56CE56B9EF56BD3E56C9488E56B9413B3
:103433004006756B17756C6FAE6BAF6C220238016B
:10344300E86480F8E933E83360110460F0ED33ECAD
:10345300337009E8FCE9FDEAFEEBFF220460DED3EA
:10346300EB9FEA9EE99DE8C2E78CF0C2F795F04036
:103473000CE8CCF8E9CDF9EACEFAEBCFFB1237CC66
:1034830085D0F05804700320D5B3E80470075002C8
:10349300B2D502380B92D5EC0460F7E4CCC0E0C39C
:1034A30098F8603B94186008400DD0E0FB0237E3C6
:1034B300E4FBFAC9FC8028E830E406E4C9FBE4CA6B
:1034C300FCE830E305E4C9CACBFCE854076010F814
:1034D300C3E913F9EA13FAEB13FBEC13FCD8F1304D
:1034E300F52FC3E49CFCEF9BFFEE9AFEED99FDD014
:1034F300E0FBEF4E4D4C701222DB03023808EC2C3C
:10350300FCEF33FFEE33FEED33FDED30E7EB023737
:10351300E3EF2BFFEE3AFEED39FDD0E0FB50130B4A
:10352300BB000302380BED13FDEE13FEEF13FFECAC
:1035330013FC0237E3EC4D6011E8497017ED33ECEF
:103543003304600DE4FCFFFEFD22E933E83304702D
:10355300F80238011237CC58046009E4CC248150B6
:103563000628500902380B284003023808C0E0EB54
:103573004A7044B98006D0E0FB0237F7EF4E701C67
:10358300BD8008EBFFEAFEE9FD80EBE98DF0A4FEC8
:10359300E5F0023621E9CDF9EAFEEBFFEF89F0A46D
:1035A300FCE5F0CE89F0A42EFFE435F0CD89F0A43C
:1035B3002DFEE435F08067EF4E7005BD80D780C3E4
:1035C300EF8BF0A4ACF0EE8BF0A42CFCE435F0F818
:1035D300EF8AF0A42CE5F038FCE433CB8DF0A42C77
:1035E300FCE5F03BF8EE8AF0A42CFCE5F038F8E4B7
:1035F30033CF89F0A42CFCE5F038CF3400CE89F02A
:10360300A42FFFE5F03EFEE433C98DF0A42EFEE5C2
:10361300F039CD8AF0A42FFFE5F03EFEE43DFD3303
:10362300D0E0FB50070BBB000F02380BEC2CFCEF78
:1036330033FFEE33FEED33FD0237E302380BEC5D6F
:10364300046005E8590470030238011237CC5804AA
:1036530060F6EC4860F2EC7004FDFEFF22C860DB0C
:103663002481C85009C39860025006023808985054
:10367300CAF582E9294B4A7005AB820237F775F028
:10368300007C1A7880C3EF9BEE9AED99400DC3EF4F
:103693009BFFEE9AFEED99FDE842F0DC23ACF0D0FF
:1036A300E0FFD0E0FED0E0FDAB8220E7101BEB6033
:1036B300BAEC2CFCEF33FFEE33FEED33FD0237E3C0
:1036C300E803F830E705C0F075F000EF2FFFEE33A5
:1036D300FEED33FD40B830E7C280AA74F8CC6480B5
:1036E300CCC86480C8F58204604FC3EB9FF5F0EA51
:1036F3009E42F0E99D42F0E89C45F0603C501DE598
:10370300825FFFE582D313CB5BCBF42B5582FB5057
:10371300280ABA002409B9002008801DE5825BFB52
:10372300E582D313CF5FCFF4C3132F5582FF500924
:103733000EBE00050DBD00010CC3EB9FF5F0EA9E24
:1037430042F0E99D42F0E89C45F06007CC4820E751
:1037530001B3EC2275F020800E75F010800575F032
:10376300087D007E007F003392D530D50312387D6B
:10377300EC334010EF33FFEE33FEED33FDEC33FC5F
:10378300D5F0ED22E5F0247EA2D513CC92E7CDCE81
:10379300FF22EDD2E7CD33EC3392D524814006E40A
:1037A300FFFEFDFC22FCE4CFCECDCC24E05011740F
:1037B300FF80EDC3CC13CCCD13CDCE13CECF13CF1F
:1037C3000470F030D5DE02387DE9D2E7C933E8333F
:1037D300F892D5EDD2E7CD33EC33FC5002B2D522CB
:1037E300EC30E7100FBF000C0EBE00080DBD000447
:1037F3000BEB6014A2D5EB13FCED92E7FD2274FFF3
:10380300FCFDFEFF22E480F8A2D574FF13FC7D804B
:10381300E480EFEF8DF0A4A8F0CF8CF0A428CE8D38
:10382300F0A42EFE22BC000BBE0029EF8DF084FF16
:10383300ADF022E4CCF875F008EF2FFFEE33FEEC89
:1038430033FCEE9DEC984005FCEE9DFE0FD5F0E9B0
:10385300E4CEFD22EDF8F5F0EE8420D21CFEADF0AF
:1038630075F008EF2FFFED33FD4007985006D5F0B4
:10387300F222C398FD0FD5F0EA22C3E49FFFE49E32
:10388300FEE49DFDE49CFC22EB9FF5F0EA9E42F0F2
:10389300E99D42F0EC6480C864809845F02275F09D
:1038A30008758200EF2FFFEE33FECD33CDCC33CC42
:1038B300C58233C5829BED9AEC99E58298400CF55D
:1038C30082EE9BFEED9AFDEC99FC0FD5F0D6E4CE8B
:1038D300FBE4CDFAE4CCF9A88222B800C1B90059BF
:1038E300BA002DEC8BF084CFCECDFCE5F0CBF9788C
:1038F30018EF2FFFEE33FEED33FDEC33FCEB33FB20
:1039030010D703994004EB99FB0FD8E5E4F9FA22A9
:103913007818EF2FFFEE33FEED33FDEC33FCC933A4
:10392300C910D7059BE99A4007EC9BFCE99AF90F6C
:10393300D8E0E4C9FAE4CCFB2275F010EF2FFFEED8
:1039430033FEED33FDCC33CCC833C810D7079BEC23
:103953009AE899400AED9BFDEC9AFCE899F80FD59B
:10396300F0DAE4CDFBE4CCFAE4C8F9228E638F6489
:10397300E4F509E50864016003023AD8D3E56494E9
:103983008AE5639401AC63AD645030E412375C7B29
:10399300D77AA379B0783F123641A804A905AA06BD
:1039A300AB07E4FFFE7DA07C431234431237958EB0
:1039B300658F66750A01E4F5088026E412375C7B9F
:1039C300D77AA379B0783F123641E4FBFA79A0782D
:1039D300C31234471237958E658F66E4F50A75086E
:1039E30001856567856668D3E5669428E565940077
:1039F3004022E50A701EE5662428FFE43565FE9043
:103A0300004DE0FD7C00123828C3E5689FF568E5AA
:103A1300679EF567D3E56694B6E56594034023E5B1
:103A23000A701FE566244AFFE56534FCFE90004CEE
:103A3300E0FD7C00123828C3E5689FF568E5679EC2
:103A4300F567D3E566949EE56594074023E50A7020
:103A53001FE5662462FFE56534F8FE90004CE0FD47
:103A63007C00123828C3E5689FF568E5679EF56713
:103A7300D3E5669428E565940A4023E50A701FE5BB
:103A83006624D8FFE56534F5FE90004CE0FD7C002C
:103A9300123828C3E5689FF568E5679EF567D3E5A7
:103AA300669480E565940C5003023E07E50A6003C3
:103AB300023E07E5662480FFE56534F3FE90004C83
:103AC300E0FD7C00123828C3E5689FF568E5679E32
:103AD300F567023E07AC63AD64E412375C7BD77ACB
:103AE300A379B0783F123641E4FBFA79A078431208
:103AF30034471237958E658F66856567856668C31B
:103B0300E5669414E5659405401DE42566FFE565C7
:103B130034FBFE90004EE0FD7C00123828EF256850
:103B2300F568EE3567F567C3E5669498E56594082F
:103B3300401EE5662468FFE56534F7FE900050E01B
:103B4300FD7C00123828EF2568F568EE3567F567C8
:103B5300C3E56694B2E565940C401EE566244EFF0A
:103B6300E56534F3FE90004EE0FD7C00123828EF4B
:103B73002568F568EE3567F567C3E5669404E56582
:103B83009410401EE56624FCFFE56534EFFE9000CB
:103B93004EE0FD7C00123828EF2568F568EE3567A6
:103BA300F567C3E5669488E5659413401EE56624CE
:103BB30078FFE56534ECFE900050E0FD7C001238A0
:103BC30028EF2568F568EE3567F567C3E56694A8C1
:103BD300E5659416401EE5662458FFE56534E9FE65
:103BE300900050E0FD7C00123828EF2568F568EE60
:103BF3003567F567C3E5659419401DE42566FFE560
:103C03006534E7FE90004FE0FD7C00123828EF2575
:103C130068F568EE3567F567C3E56694A2E56594D4
:103C23001C401EE566245EFFE56534E3FE90004E0E
:103C3300E0FD7C00123828EF2568F568EE3567F55E
:103C430067C3E566940EE565941F401EE56624F29E
:103C5300FFE56534E0FE90004EE0FD7C001238285D
:103C6300EF2568F568EE3567F567C3E56694FCE50F
:103C7300659421401EE5662404FFE56534DEFE906D
:103C8300004EE0FD7C00123828EF2568F568EE351C
:103C930067F567C3E56694EAE5659424401EE56627
:103CA3002416FFE56534DBFE90004FE0FD7C001237
:103CB3003828EF2568F568EE3567F567C3E5669440
:103CC300ACE5659426401EE5662454FFE56534D9CA
:103CD300FE900051E0FD7C00123828EF2568F5685E
:103CE300EE3567F567C3E5669404E5659429401EE0
:103CF300E56624FCFFE56534D6FE900050E0FD7CCC
:103D030000123828EF2568F568EE3567F567C3E5D7
:103D13006694F4E5659429401EE566240CFFE56589
:103D230034D6FE900051E0FD7C00123828EF256860
:103D3300F568EE3567F567C3E5669488E565942C09
:103D4300401EE5662478FFE56534D3FE90004FE01E
:103D5300FD7C00123828EF2568F568EE3567F567B6
:103D6300C3E5669418E565942E401EE56624E8FFD6
:103D7300E56534D1FE900051E0FD7C00123828EF58
:103D83002568F568EE3567F567C3E56694DAE5659A
:103D9300942F401EE5662426FFE56534D0FE90008F
:103DA30051E0FD7C00123828EF2568F568EE356791
:103DB300F567C3E56694CEE5659431401EE5662458
:103DC30032FFE56534CEFE90004CE0FD7C001238F6
:103DD30028EF2568F568EE3567F567C3E5669458FF
:103DE300E5659434401EE56624A8FFE56534CBFE03
:103DF30090004CE0FD7C00123828EF2568F568EE52
:103E03003567F567AE67AF68228E698F6AE4F50997
:103E1300E50864017066D3E56A94B5E5699403AC7B
:103E230069AD6A5031E412375C7BA47A70793D78CE
:103E330040123641A804A905AA06AB07E4FFFE7D9C
:103E4300A07C431234431237958E6B8F6C750A0135
:103E5300E4F5080242A2E412375C7BA47A70793D50
:103E63007840123641E4FBFA79A078C31234471242
:103E730037958E6B8F6CE4F50A0242A2AC69AD6A8A
:103E8300E412375C7BA47A70793D7840123641E4C2
:103E9300FBFA79A078431234471237958E6B8F6CF7
:103EA300D3E56A941AE5699404401FE56A2418FF70
:103EB300E56934FCFE900011E0FD7C00123828C354
:103EC300E56C9FF56CE56B9EF56BD3E56A94F1E5C4
:103ED300699409401FE56A241EFFE56934F6FE90E4
:103EE3000011E0FD7C00123828C3E56C9FF56CE5FA
:103EF3006B9EF56BD3E56A9406E5699411401FE563
:103F03006A2402FFE56934EFFE900012E0FD7C00B5
:103F1300123828C3E56C9FF56CE56B9EF56BD3E512
:103F23006A9446E569941E401EE4256AFFE56934F8
:103F3300E2FE900013E0FD7C00123828C3E56C9F7D
:103F4300F56CE56B9EF56BD3E56A949AE569942964
:103F5300401FE56A2452FFE56934D6FE900013E062
:103F6300FD7C00123828C3E56C9FF56CE56B9EF56C
:103F73006BD3E56A94F2E569942B401EE56A24400D
:103F8300FFE56934D4FE900013E0FD7C001238286D
:103F9300EF256CF56CEE356BF56BD3E56A9448E56C
:103FA30069943A401FE56A2462FFE56934C6FE90CE
:103FB3000013E0FD7C00123828C3E56C9FF56CE527
:103FC3006B9EF56BD3E56A943CE569943C401EE532
:103FD3006A24D8FFE56934C3FE900012E0FD7C003B
:103FE300123828EF256CF56CEE356BF56BD3E56A6B
:103FF30094D4E5699444401FE56A2440FFE569349D
:10400300BBFE900014E0FD7C00123828C3E56C9FD2
:10401300F56CE56B9EF56BD3E56A94BCE569944852
:10402300401EE56A2458FFE56934B7FE900012E0AC
:10403300FD7C00123828EF256CF56CEE356BF56BC3
:10404300D3E56A948CE5699450401FE56A2488FFA0
:10405300E56934AFFE900013E0FD7C00123828C3FD
:10406300E56C9FF56CE56B9EF56BD3E56A945CE5B7
:10407300699458401EE56A24B8FFE56934A7FE90A9
:104083000012E0FD7C00123828EF256CF56CEE354C
:104093006BF56BD3E56A9438E569945E401FE56A76
:1040A30024DCFFE56934A1FE900012E0FD7C0012E0
:1040B3003828C3E56C9FF56CE56B9EF56BD3E56A19
:1040C30094D0E5699466401EE56A2444FFE56934AB
:1040D30099FE900014E0FD7C00123828EF256CF562
:1040E3006CEE356BF56BD3E56A9454E569946A40DD
:1040F3001FE56A2424FFE5693496FE900013E0FD72
:104103007C00123828C3E56C9FF56CE56B9EF56B5C
:10411300D3E56A94B4E5699473401FE56A2460FFAC
:10412300E569348CFE900013E0FD7C00123828C34F
:10413300E56C9FF56CE56B9EF56BD3E56A94DCE566
:1041430069947D401FE56A2438FFE5693482FE9057
:104153000013E0FD7C00123828C3E56C9FF56CE585
:104163006B9EF56BAE69AF6AE4FCFD7BA07A87F9C1
:10417300F8C312388B502CE56A2474FFE569347850
:10418300FEE434FFFDE434FFFCC007900012E0FBC3
:10419300E4FAF8D007125A76C3E56C9FF56CE56B29
:1041A3009EF56BAE69AF6AE4FCFD7BB47A8CF9F8DB
:1041B300C312388B502CE56A2460FFE5693473FE23
:1041C300E434FFFDE434FFFCC007900013E0FBE49C
:1041D300FAF8D007125A76C3E56C9FF56CE56B9E2F
:1041E300F56BAE69AF6AE4FCFD7BDC7A96F9F8C344
:1041F30012388B502CE56A2438FFE5693469FEE4F4
:1042030034FFFDE434FFFCC007900013E0FBE4FA45
:10421300F8D007125A76C3E56C9FF56CE56B9EF5F3
:104223006BAE69AF6AE4FCFD7B8C7A9BF9F8C31231
:10423300388B502CE56A2488FFE5693464FEE43446
:10424300FFFDE434FFFCC007900012E0FBE4FAF842
:10425300D007125A76C3E56C9FF56CE56B9EF56B40
:10426300AE69AF6AE4FCFD7B2C7AABF9F8C3123874
:104273008B502CE56A24E8FFE5693454FEE434FFEF
:10428300FDE434FFFCC007900011E0FBE4FAF8D032
:1042930007125A76C3E56C9FF56CE56B9EF56BAE22
:1042A3006BAF6C22125950BF0106752C040245FEF8
:1042B3007887E6700F125DDE8E678F688567658588
:1042C300686676067880E6600302458D761012579D
:1042D300278E618F62E547B4012EE550B40129C3EF
:1042E300E5629529E5619528400EE5629529F56219
:1042F300E5619528F5618010C3E5299562F562E5CE
:10430300289561F561E4F550E547B40110E5507077
:104313000CE5292562F562E5283561F561E547700D
:1043230012E550B4010DC3E5629529F562E5619587
:1043330028F561E547702DE5507029C3E56295299D
:10434300E5619528400EE5629529F562E5619528BA
:10435300F5618010C3E5299562F562E5289561F55D
:1043630061755001E522AC54AD55AE61AF62B40145
:1043730010123828C3E5629FF562E5619EF56180FE
:104383000D123828EF2562F562EE3561F561E55BC4
:10439300B4010674FFF561F562E5307047D3E56655
:1043A3009524E5659523AF62AE614019121863C386
:1043B300E5669524FDE5659523FCC3EF9DF564EE65
:1043C3009CF5638015121863C3E5249566CDE52338
:1043D3009565CD2FF564ED3EF563E5576003024522
:1043E3008D024582E53064017047D3E5669524E587
:1043F300659523AF62AE614019123E0CC3E5669525
:1044030024FDE5659523FCC3EF9DF564EE9CF56300
:104413008015123E0CC3E5249566CDE5239565CD45
:104423002FF564ED3EF563E557600302458D0245C4
:1044330082E53064027047D3E5669524E5659523EC
:10444300AF62AE614019122ED0C3E5669524FDE537
:10445300659523FCC3EF9DF564EE9CF5638015120F
:104463002ED0C3E5249566CDE5239565CD2FF56460
:10447300ED3EF563E557600302458D024582E53065
:1044830064037047D3E5669524E5659523AF62AE73
:10449300614019121001C3E5669524FDE565952376
:1044A300FCC3EF9DF564EE9CF5638015121001C308
:1044B300E5249566CDE5239565CD2FF564ED3EF5B1
:1044C30063E557600302458D024582E5306404705D
:1044D3005D750901D3E5669524E5659523AF62AE65
:1044E300614024124952AA06AB07C3E5669524FF2F
:1044F300E5659523FE7C007D0A123828C3EB9FF502
:1045030064EA9EF5638021124952AA06AB07C3E50C
:10451300249566FFE5239565FE7C007D0A12382805
:10452300EB2FF564EA3EF563E557705E8051E530A5
:1045330064057056750901D3E5669524E5659523F1
:10454300AF62AE614013124603AA06AB07C3E5662A
:104553009524FFE56595238011124603AA06AB0750
:10456300C3E5249566FFE5239565FE7C007D0A126D
:104573003828C3EB9FF564EA9EF563E557700BAFEC
:1045830064AE6312566E8E638F647881E670071291
:1045930058DF78817608787FE670267610AD68ACB0
:1045A300677F0112205BD3E564954BE563954A4031
:1045B3000EE5649549E56395485004D2B48002C280
:1045C300B47884E67018208407AF64AE63125D4F3D
:1045D300208507AF64AE63125CA07884761078837D
:1045E300E67018200109856499D2017601800AE5F5
:1045F30063F599C2017883763BD299AE63AF6422A7
:104603008E698F6AE50864017049D3E56A9468E5A9
:104613006994005034AC69AD6AE412375C7B487A24
:10462300E1790A7840123641A804A905AA06AB0726
:10463300E4FFFEFD7C421234431237958E6B8F6C80
:10464300750A01E4F50802494DE4F50AF56BF56CCA
:1046530002494DAC69AD6AE412375C7BCD7ACC7903
:104663004C7840123641E4FBFAF97842123447128F
:104673003795AB07AA068A6B8B6CC3EB9432EA942B
:1046830000401DEB24CEFFEA34FFFE900031E0FD35
:104693007C00123828C3E56C9FF56CE56B9EF56BC7
:1046A300C3EB946DEA9400401DEB2493FFEA34FFBF
:1046B300FE900030E0FD7C00123828C3E56C9FF5C6
:1046C3006CE56B9EF56BC3EB94AEEA9400401DEB77
:1046D3002452FFEA34FFFE900032E0FD7C001238E2
:1046E30028C3E56C9FF56CE56B9EF56BC3EB94F803
:1046F300EA9400401DEB2408FFEA34FFFE900033E8
:10470300E0FD7C00123828C3E56C9FF56CE56B9ED9
:10471300F56BC3EB9471EA9401401DEB248FFFEA20
:1047230034FEFE900034E0FD7C00123828C3E56CB3
:104733009FF56CE56B9EF56BC3EB94C8EA9401405F
:104743001DEB2438FFEA34FEFE900035E0FD7C00CB
:10475300123828C3E56C9FF56CE56B9EF56BC3EBD4
:10476300944FEA9402401DEB24B1FFEA34FDFE901E
:104773000036E0FD7C00123828C3E56C9FF56CE53C
:104783006B9EF56BC3EB941CEA9403401DEB24E48E
:10479300FFEA34FCFE900036E0FD7C00123828C3AB
:1047A300E56C9FF56CE56B9EF56BC3EB94F2EA94B5
:1047B30003401DEB240EFFEA34FCFE900038E0FDBD
:1047C3007C00123828C3E56C9FF56CE56B9EF56B96
:1047D300C3EB9426EA9405401DEB24DAFFEA34FA8E
:1047E300FE900036E0FD7C00123828C3E56C9FF58F
:1047F3006CE56B9EF56BC3EB9484EA9406401DEB6A
:10480300247CFFEA34F9FE90003AE0FD7C00123884
:1048130028C3E56C9FF56CE56B9EF56BC3EB946D5C
:10482300EA9408401DEB2493FFEA34F7FE90003826
:10483300E0FD7C00123828C3E56C9FF56CE56B9EA8
:10484300F56BC3EB946DEA9409401DEB2493FFEAE7
:1048530034F6FE90003AE0FD7C00123828C3E56C84
:104863009FF56CE56B9EF56BC3EB9441EA940B40AB
:104873001DEB24BFFFEA34F4FE900039E0FD7C0019
:10488300123828C3E56C9FF56CE56B9EF56BC3EBA3
:1048930094C9EA940C401DEB2437FFEA34F3FE90ED
:1048A300003DE0FD7C00123828C3E56C9FF56CE504
:1048B3006B9EF56BC3EB9485EA940E401DEB247B52
:1048C300FFEA34F1FE90003EE0FD7C00123828C37D
:1048D300E56C9FF56CE56B9EF56BC3EB941CEA945A
:1048E30011401DEB24E4FFEA34EEFE90003EE0FDB0
:1048F3007C00123828C3E56C9FF56CE56B9EF56B65
:10490300C3EB94D6EA9413401CEB242AFFEA34EC5D
:10491300FE90003EE0FD7C00123828EF256CF56C1C
:10492300EE356BF56BC3EB94B2EA9414401CEB24A5
:104933004EFFEA34EBFE90003EE0FD7C0012382887
:10494300EF256CF56CEE356BF56BAE6BAF6C228EB1
:10495300698F6AE50864017049D3E56C9467E56B78
:1049630094005034AC69AD6AE412375C7B487AE159
:10497300790A7840123641A804A905AA06AB07E4D0
:10498300FFFEFD7C421234431237958E6B8F6C759C
:104993000A01E4F508024C9BE4F50AF56BF56C0299
:1049A3004C9BAC69AD6AE412375C7B717A3D794A02
:1049B3007840123641E4FBFAF97842123447123751
:1049C30095AB07AA068A6B8B6CC3EB9445EA9400FC
:1049D300401DEB24C5FFEA34FFFE900021E0FD7C7F
:1049E30000123828C3E56C9FF56CE56B9EF56BC32D
:1049F300EB946DEA9400401DEB2493FFEA34FFFE31
:104A0300900022E0FD7C00123828C3E56C9FF56C12
:104A1300E56B9EF56BC3EB9499EA9400401DEB2480
:104A230067FFEA34FFFE900023E0FD7C0012382884
:104A3300C3E56C9FF56CE56B9EF56BC3EB94C7EA1E
:104A43009400401DEB2439FFEA34FFFE900024E07C
:104A5300FD7C00123828C3E56C9FF56CE56B9EF571
:104A63006BC3EB9411EA9401401DEB24F0FFEA348D
:104A7300FEFE900025E0FD7C00123828C3E56C9F04
:104A8300F56CE56B9EF56BC3EB947BEA9401401DDB
:104A9300EB2486FFEA34FEFE900023E0FD7C001247
:104AA3003828C3E56C9FF56CE56B9EF56BC3EA9400
:104AB30002401DEB2401FFEA34FEFE900026E0FDD8
:104AC3007C00123828C3E56C9FF56CE56B9EF56B93
:104AD300C3EB94A1EA9402401DEB2460FFEA34FD8A
:104AE300FE900027E0FD7C00123828C3E56C9FF59B
:104AF3006CE56B9EF56BC3EB9460EA9403401DEB8E
:104B030024A1FFEA34FCFE900028E0FD7C0012386B
:104B130028C3E56C9FF56CE56B9EF56BC3EB944A7C
:104B2300EA9404401DEB24B7FFEA34FBFE9000290E
:104B3300E0FD7C00123828C3E56C9FF56CE56B9EA5
:104B4300F56BC3EB9462EA9405401DEB249FFFEAE7
:104B530034FAFE90002AE0FD7C00123828C3E56C8D
:104B63009FF56CE56B9EF56BC3EB94A9EA94064045
:104B73001DEB2458FFEA34F9FE90002BE0FD7C0086
:104B8300123828C3E56C9FF56CE56B9EF56BC3EBA0
:104B930094B0EA9407401DEB2451FFEA34F8FE90E9
:104BA300002DE0FD7C00123828C3E56C9FF56CE511
:104BB3006B9EF56BC3EB94E6EA9408401DEB241B54
:104BC300FFEA34F7FE90002CE0FD7C00123828C386
:104BD300E56C9FF56CE56B9EF56BC3EB9426EA944D
:104BE3000A401DEB24DBFFEA34F5FE90002DE0FDC7
:104BF3007C00123828C3E56C9FF56CE56B9EF56B62
:104C0300C3EB949BEA940B401DEB2466FFEA34F458
:104C1300FE90002EE0FD7C00123828C3E56C9FF562
:104C23006CE56B9EF56BC3EB9448EA940D401DEB6A
:104C3300241DFFEA34F3FE90002EE0FD7C001238C1
:104C430028C3E56C9FF56CE56B9EF56BC3EB940392
:104C5300EA940F401DEB24FEFFEA34F0FE90002E91
:104C6300E0FD7C00123828C3E56C9FF56CE56B9E74
:104C7300F56BC3EB9456EA9411401DEB24ABFFEAAA
:104C830034EEFE90002FE0FD7C00123828C3E56C63
:104C93009FF56CE56B9EF56BAE6BAF6C22C28CAF70
:104CA30089EF4401F589F589758CDCE4F58AC28DB9
:104CB30075E50775E64675E6B9AFE2EF4408F5E238
:104CC300F5E275E50675E64675E6B9D28CA28DB3B5
:104CD30040FBC28DC28C75E50775E64675E6B9AF34
:104CE300E2EF4403F5E2F5E275E50675E64675E69F
:104CF300B975E50775E64675E6B9AFE2EF54FBF51E
:104D0300E2F5E275E50675E64675E6B9125D77D21A
:104D130096D2A2125DFC125CFE125F78125F8812BB
:104D23005E56125EA9E4FFFE125CA0125EC3E4FFAE
:104D3300FE125D4FE4FF120006F53A125D9AEF642E
:104D43004E70227F01125D9ABF451A7F02125D9A4F
:104D5300BF57127F03125D9ABF5A0A7F04125D9AEE
:104D6300EF64A560297D4EE4FF125E1A7D457F0145
:104D7300125E1A7D577F02125E1A7D5A7F03125EFE
:104D83001A7DA57F04125E1A125A2112540C125E68
:104D9300C37F12125D9A8F397F13125D9A8F577FEB
:104DA30014125D9A8F307F16125E728E288F297FC0
:104DB30018125E728E5C8F5D7F1A125E728E4C8F3C
:104DC3004D7F1C125E728E458F467F1E125E728E61
:104DD3003C8F3D7F20125E728E358F367F22125EAE
:104DE300728E318F327F24125E728E2A8F2B7F2632
:104DF300125E728E4A8F4B7F28125E728E488F49E5
:104E03007F2A125D9A8F517F2B125D9A8F5E7F2CC2
:104E1300125D9A8F587F2E125D9A8F597F2F125DE4
:104E23009A8F5A7F30125D9A8F537F32125D9A8F19
:104E3300447F34125E728E548F557F36125E728EAB
:104E43003E8F3F7F38125E728E2E8F2F7F3A125E17
:104E5300728E258F267F3C125E728E238F247F40B5
:104E6300125D9A8F41E42551F538E43420F5371269
:104E73005A21D2A9D28CD2ABD28ED2AF753B0112BA
:104E8300585FE5397007E54430E0278022E539B4FF
:104E93000107E54430E11B8016E539B40207E54418
:104EA30030E20F800AE539B40308E54430E30375C3
:104EB3004701E52C14602614602814602A14602C22
:104EC300146031240570EBE539700DE54430E405D9
:104ED3007522018003E4F5221242A780D51251C83E
:104EE30080D0124EFC80CB12506280C67534011202
:104EF300002680BE12532A80B9125950BF0106758D
:104F03002C0402505D7880E66003024FEA761012AB
:104F130057278E618F62E547B40124E550B4011F22
:104F2300D3E562953DE561953C40028047C3E53D8D
:104F33009562F562E53C9561F561E4F5508053E5D2
:104F430047B40106E55070028009E5477013E55048
:104F5300B4010EE53D2562F562E53C3561F56180FE
:104F630031E547702DE5507029C3E562953DE56154
:104F7300953C400EE562953DF562E561953CF56132
:104F83008010C3E53D9562F562E53C9561F5617579
:104F93005001D3E5369480E535940CAC2EAD2FAE9D
:104FA30061AF62400F123828EF2562F562EE35617A
:104FB300F561800E123828C3E5629FF562E5619EB4
:104FC300F561AC61AD62E412375C7BCD7ACC794C90
:104FD30078401236411237958E618F62E55BB401DA
:104FE3000674FFF561F562787FE67028AD62AC6107
:104FF3007F0112205B787F7608D3E562954BE561EC
:10500300954A400EE5629549E56195485004D2B44E
:105013008002C2B47884E67018208407AF62AE6160
:10502300125D4F208507AF62AE61125CA078847673
:10503300027881E670071258DF788176087883E674
:105043007018200109856299D2017601800AE56111
:10505300F599C2017883763BD299AE61AF62221291
:105063005950BF0106752C040251C37880E66003D2
:1050730002515076101257278E618F62E547B401B3
:1050830024E550B4011FC3E5629532E561953140D3
:10509300028047C3E5329562F562E5319561F561BA
:1050A300E4F5508053E547B40106E55070028009EA
:1050B300E5477013E550B4010EE5322562F562E56C
:1050C300313561F5618031E547702DE5507029C3B5
:1050D300E5629532E5619531400EE5629532F56200
:1050E300E5619531F5618010C3E5329562F562E5BE
:1050F300319561F561755001D3E52B9400E52A9450
:1051030019AC25AD26AE61AF62400F123828EF25EA
:1051130062F562EE3561F561800E123828C3E562EF
:105123009FF562E5619EF561AC61AD62E412375CA7
:105133007BCD7ACC794C78401236411237958E610B
:105143008F62E55BB4010674FFF561F562787FE673
:105153007028AD62AC617F0112205B787F7610D33B
:10516300E562954BE561954A400EE5629549E56137
:1051730095485004D2B48002C2B47884E6701820F3
:105183008407AF62AE61125D4F208507AF62AE61E7
:10519300125CA0788476027881E670071258DF7873
:1051A3008176087883E67018200109856299D20117
:1051B3007601800AE561F599C2017883763BD2993D
:1051C300AE61AF6222125950BF0106752C0402531F
:1051D300257880E660030252B276101257278E615B
:1051E3008F62E547B40124E550B4011FC3E562951E
:1051F3004DE561954C40028047C3E54D9562F562EC
:10520300E54C9561F561E4F5508053E547B401063B
:10521300E55070028009E5477013E550B4010EE5CF
:105223004D2562F562E54C3561F5618031E54770E6
:105233002DE5507029C3E562954DE561954C400E0F
:10524300E562954DF562E561954CF5618010C3E526
:105253004D9562F562E54C9561F561755001D3E5B5
:105263004694E4E5459444AC3EAD3FAE61AF624045
:105273000F123828EF2562F562EE3561F561800E75
:10528300123828C3E5629FF562E5619EF561E55B2F
:10529300B4010674FFF561F562AF62AE6112396F56
:1052A3008E618F62E557700712566E8E618F62783A
:1052B3007FE67028AD62AC617F0112205B787F7658
:1052C30010D3E562954BE561954A400EE562954939
:1052D300E56195485004D2B48002C2B47884E67084
:1052E30018208407AF62AE61125D4F208507AF625D
:1052F300AE61125CA0788476027881E6700712585A
:10530300DF788176087883E6701820010985629931
:10531300D2017601800AE561F599C2017883763B73
:10532300D299AE61AF622212540C125EC37F121285
:105333005D9A8F397F13125D9A8F577F14125D9A8E
:105343008F307F16125E728E288F297F18125E723D
:105353008E5C8F5D7F1A125E728E4C8F4D7F1C1296
:105363005E728E458F467F22125E728E318F327F40
:1053730024125E728E2A8F2B7F1E125E728E3C8FDA
:105383003D7F20125E728E358F367F26125E728EBF
:105393004A8F4B7F28125E728E488F497F2A125E96
:1053A300728F517F2B125D9A8F5E7F2C125D9A8FC5
:1053B300587F2D125D9A8F4F7F2E125D9A8F597FE2
:1053C3002F125D9A8F5A7F30125D9A8F537F32125C
:1053D3005D9A8F447F34125E728E548F557F3612DE
:1053E3005E728E3E8F3F7F38125E728E2E8F2F7FBE
:1053F3003A125E728E258F267F3C125E728E238F49
:10540300247F40125D9A8F412212585FAD397F127B
:10541300125E1AE4FD7F13125E1AE4FD7F14125E1E
:105423001AE4FDFC7F16125F567D787C057F181207
:105433005F56E4FDFC7F1A125F567D527C037F1C8E
:10544300125F56E4FDFC7F1E125F567D887C137F3E
:1054530020125F567D287C007F22125F567DC87C18
:10546300007F24125F56E4FDFC7F26125F567D8881
:105473007C137F28125F567D157F2A125E1A7D01E9
:105483007F2B125E1A7D017F2C125E1A7D047F2D05
:10549300125E1A7D127F2E125E1A7D017F2F125E1D
:1054A3001A7D017F30125E1AE4FD7F32125E1A7D8F
:1054B300017C007F34125F567D017C007F36125FD2
:1054C300567D017C007F38125F567D017C007F3A58
:1054D300125F56E4FDFC7F3C125F567D407C007FEB
:1054E30040125F56025A21A9057D01AA7EED64018F
:1054F3007069C291FEC292C290E4FC126016D2920D
:10550300126016C2920CBC08F20EBE02E8E4FEC2A0
:1055130092C290E4FCEA30E702D290126016D29273
:10552300126016C292C290EA25E0FA0CBC08E6EEBD
:105533007004AA7D801ABE0104AA7C8013BE0204F3
:10554300AA7B800CBE0304AA038005BE0402AA0141
:105553000EBE06BBD291126016C291ED6402704D6D
:10556300C295FEC294E4FCEA30E702D293126016BD
:10557300D294126016C294C293EA25E0FA0CBC08D6
:10558300E6EE7004AA7D801ABE0104AA7C8013BED5
:105593000204AA7B800CBE0304AA038005BE040296
:1055A300AA010EBE06BDD295126016C29522014312
:1055B30000014E00015B00097F101004023B02143E
:1055C3001E0202540000023E0000022E00000225CB
:1055D300000002230000015114015E010158010182
:1055E3004F03015912015A010153010152000134C1
:1055F30001013A00C102C101C10301080001090010
:10560300010A004B001500243038404C586878C814
:10561300FA49000C002028303470A0C8FF4A00402B
:1056230007080A101820303840484C0000001020AA
:1056330028303840606C80B4E1500020000A0E131B
:1056430014161B23262A343C4046506A5000300A65
:105653000D10121C20283437393B40425A84FA4833
:10566300004A002C2E32363A3E4D008E698F6AE591
:1056730009703FC3E56A9440E5699401401AE55017
:10568300700BE56A24C0FDE56934FE8047E56A24B2
:1056930040FDE5693401803CE550B4010BE56A2423
:1056A30040FDE5693401803BC37440956AFD740194
:1056B3008051C3E56A9420E56994004019E5507070
:1056C3000BE56A24E0FDE56934FF8008E56A2420E0
:1056D300FDE43569800DE550B40121E56A2420FD20
:1056E300E43569FCE412375C7B667A6679E6783FD9
:1056F3001236411237958E6B8F6C8023C3742095BD
:105703006AFDE49569FCE412375C7B667A6679E6A8
:10571300783F1236411237958E6B8F6C755001AE00
:105723006BAF6C22125EDDEF60030257CE532D0385
:10573300E52DC39402404B755001E52D5403756C60
:1057430000F56D756D00F56CE521256DF56DE4359E
:105753006CF56CE56DAE6C7807C333CE33CED8F9F8
:10576300F56D8E6CE533C313F533256DF56DE435B7
:105773006CF56C636DFF636CFFC3E56C94F040489C
:105783008041E4F550E52D5403756C00F56D756D9E
:1057930000F56CE521256DF56DE4356CF56CE56D73
:1057A300AE6C7807C333CE33CED8F9F56D8E6CE586
:1057B30033C313F533256DF56DE4356CF56CC39484
:1057C300F04005755B018003E4F55BAE6CAF6D22C1
:1057D300787FE4F6D8FD75819E02581A024CA0E446
:1057E30093A3F8E493A34003F68001F208DFF48067
:1057F30029E493A3F85407240CC8C333C4540F44B7
:1058030020C8834004F456800146F6DFE4800B0190
:10581300020408102040809055B1E47E019360BCDF
:10582300A3FF543F30E509541FFEE493A360010E28
:10583300CF54C025E060A840B8E493A3FAE493A34F
:10584300F8E493A3C8C582C8CAC583CAF0A3C8C570
:1058530082C8CAC583CADFE9DEE780BE20801CE4B4
:10586300F539F52C75420120840375421120850317
:10587300754221E54464017062805D20811D7539A4
:1058830001752C01754202208403754212208503A1
:10589300754222E54464027042803D20821D7539C1
:1058A30002752C027542042084037542142085037B
:1058B300754224E54464047022801D20831D7539DC
:1058C30003752C0375420820840375421820850351
:1058D300754228E544B4080375470122E4FF125DCD
:1058E300BCEF547FF5537F01125DBC8F5A7F0212C8
:1058F3005DBC8F597F03125DBCEF5407F54F7F04E6
:10590300125DBC8F587F05125DBC8F5E7F06125DF2
:10591300BC8F51E55E540364017031AD517F2A128F
:105923005E1AAD5E7F2B125E1AAD587F2C125E1A83
:10593300AD4F7F2D125E1AAD597F2E125E1AAD5AEE
:105943007F2F125E1AAD537F30125E1A2230B210CF
:1059530030B30D30860A308707E4F54EF54380589F
:1059630020B213E54E7009754E01E54344018044AE
:10597300E54354FE803E20B310E54E7006E54344F4
:10598300028024E54354FD802B208610E54E7006EB
:10599300E54344048011E54354FB8018208719E54F
:1059A3004E700DE5434408F543F543754E018008F9
:1059B300E54354F7F543F543AF4322C0E0C0D07548
:1059C300D000C000C007C28E788806787FE66001E9
:1059D300167880E66001167888E6FF540770087829
:1059E30081E6600116D200EF640F70217888F678A3
:1059F30083E66001167884E66001167885E6600127
:105A0300167886E66001167887E6600116758D0BB9
:105A1300758BDCD28ED007D000D0D0D0E0327F039C
:105A2300125DBC8F4F7D407F07125E38E54F4408FF
:105A3300FD7F03125E38E54F20E737AD517F061235
:105A43005E38AD5E7F05125E38AD587F04125E3856
:105A5300E54F4408FD7F03125E38AD597F02125EA5
:105A630038AD5A7F01125E38E5534480FDE4FF12DE
:105A73005E3822C2D5E830E70FB2D5E4C39BFBE41E
:105A83009AFAE499F9E498F8EC30E717B2D5125A88
:105A9300AC1238DDE4C39BFBE49AFAE499F9E49889
:105AA300F880031238DD30D50DE4C39FFFE49EFE7A
:105AB300E49DFDE49CFC22AE07125F20AF06AE0717
:105AC300750B01E47811F6EE30E704D2A08002C230
:105AD300A0D2A112601DC2A112601DEE25E0FE78C6
