:0700000002599402000632D0
:10000B00025E9312618AC2A2126191C29602619141
:03001B00025B7F06
:1000230002614DE4F561F562F563F56AF56BAD6B5D
:10003300AC6AAF631227E7E5347003020FFA7887DF
:10004300E6700B124EE38E688F6978877604125B35
:10005300118F61E56130E0057564018003E4F564A7
:10006300E56130E1057565018003E4F565E561301F
:10007300E2057566018003E4F566E56130E3057525
:1000830067018003E4F567E564B401050563E4F5FE
:1000930062E563D394134005E4F563F534E566B490
:1000A3000108056BE56B7002056AE567B40108E5B5
:1000B3006B156B7002156AE563C394045003020168
:1000C30053E563D3940B40030201537880E6706DCC
:1000D30076041258E8E55225E0248BF8A60608A614
:1000E30007E552C39408500405528064799AE7786F
:1000F3009826FF19E71836FEEF1826FFEE1836FE8E
:10010300EF1826FFEE1836FEEF1826FFEE1836FE20
:10011300EF1826FFEE1836FEEF1826FFEE1836FE10
:10012300EF1826FFEE1836FEEF7803CEC313CE1377
:10013300D8F9799EF7EE19F7E4F5528013E55225C5
:10014300E0248BF8E6FE08E6FF789DA60608A607DE
:10015300E56364017047E539FD7C00AF631227E76F
:10016300E56B2539F539E4F56AF56BE539C3940494
:100173004007E4F539F56AF56BE565640160030250
:10018300003AAD397F12125FBDE4FDFC7F161227E2
:10019300E77FC47E09126035056202003AE56364B5
:1001A30002703FE539C394024005056302003AE556
:1001B30057FD7C00AF631227E7E56B2557F557E43E
:1001C300F56AF56BE557C394024007E4F557F56A02
:1001D300F56BE5656401600302003AAD577F1302D6
:1001E3000CCCE5636403703CE539600505630200EC
:1001F3003AE56B2530F530E4F56AF56BE530C394E9
:10020300064007E4F530F56AF56BE530FD7C00AF99
:10021300631227E7E5656401600302003AAD307FAE
:1002230014020CCCE563640460030202BFE5396089
:1002330005056302003AE550B401057547018003E3
:10024300E4F547789DE6FC08E6FDAF631227E7E592
:10025300656401600302003A789DE6F52808E6F537
:1002630029AC68AD69E41237587BA47A70791578A4
:1002730040123534C004C005C006C007AC28AD2900
:10028300E4123758D003D002D001D00012343F1209
:100293003791AD07AC067F1612610B126031E5474B
:1002A300B40106E54444018004E54454FEFD7F3275
:1002B300125FBDAD69AC687F3C020B84E5636405E6
:1002C3006003020859E5396005056302003A789D29
:1002D300E6FC08E6FDAF631227E7E565640160030A
:1002E30002003A789DE6F55C08E6F55DAC68AD6919
:1002F300E41237587BA47A7079157840123534C0EC
:1003030004C005C006C007AC5CAD5DE4123758D02D
:1003130003D002D001D00012343F123791AD07ACA5
:10032300067F1812610BE547640160030205B4AC54
:1003330068AD691237587BA47A7079157840123505
:1003430034C004C005C006C007AC28AD29E4123789
:1003530058D003D002D001D00012343FC004C005EE
:10036300C006C007AC68AD69E41237587BA47A7045
:1003730079157840123534C004C005C006C007ACF7
:100383005CAD5DE4123758D003D002D001D0001227
:10039300343FD003D002D001D0001234437B007A23
:1003A300CA794878471236DAAC68AD69400302046B
:1003B300ACE41237587BA47A70791578401235343F
:1003C300C004C005C006C007AC28AD29E4123758E5
:1003D300D003D002D001D00012343FC004C005C006
:1003E30006C007AC68AD69E41237587BA47A70790C
:1003F300157840123534C004C005C006C007AC5C94
:10040300AD5DE4123758D003D002D001D0001234CE
:100413003FD003D002D001D0001234437B007ACA0C
:10042300794878C7123443C004C005C006C007AC7E
:1004330068AD69E41237587BA47A70791578401255
:100443003534C004C005C006C007AC28AD29E4128A
:100453003758D003D002D001D00012343FC004C0BB
:1004630005C006C007AC68AD69E41237587BA47AAF
:100473007079157840123534C004C005C006C00732
:10048300AC5CAD5DE4123758D003D002D001D0008C
:1004930012343FA804A905AA06AB07D007D006D09B
:1004A30005D004123443020724E41237587BA47A9C
:1004B3007079157840123534C004C005C006C007F2
:1004C300AC5CAD5DE4123758D003D002D001D0004C
:1004D30012343FC004C005C006C007AC28AD29E4F0
:1004E300123758D003D002D001D000123443C004D5
:1004F300C005C006C007AC68AD69E41237587BA4D9
:100503007A7079157840123534A804A905AA06AB88
:1005130007D007D006D005D00412343FA804A9059C
:10052300AA06AB077F007ECA7D487C4712343FC0D2
:1005330004C005C006C007AC68AD69E41237587B38
:10054300A47A7079157840123534C004C005C0060A
:10055300C007AC28AD29E4123758D003D002D0012C
:10056300D00012343FC004C005C006C007AC68AD5C
:1005730069E41237587BA47A7079157840123534C0
:10058300C004C005C006C007AC5CAD5DE4123758BB
:10059300D003D002D001D00012343FA804A905AA89
:1005A30006AB07D007D006D005D0041234430208A7
:1005B30031AC68AD69E41237587BA47A7079157849
:1005C30040123534C004C005C006C007AC28AD29AD
:1005D300E4123758D003D002D001D00012343FC008
:1005E30004C005C006C007AC68AD69E41237587B88
:1005F300A47A7079157840123534C004C005C0065A
:10060300C007AC5CAD5DE4123758D003D002D00113
:10061300D00012343FD003D002D001D00012343FB7
:100623007B007ACA794878471236DAAC68AD6940FC
:100633000302073CE41237587BA47A70791578409B
:10064300123534C004C005C006C007AC28AD29E488
:10065300123758D003D002D001D00012343FC00467
:10066300C005C006C007AC68AD69E41237587BA467
:100673007A7079157840123534C004C005C006C0BD
:1006830007AC5CAD5DE4123758D003D002D001D083
:100693000012343FD003D002D001D00012343F7B8C
:1006A300007ACA794878C7123443C004C005C0062B
:1006B300C007AC68AD69E41237587BA47A7079152A
:1006C3007840123534C004C005C006C007AC28AD5D
:1006D30029E4123758D003D002D001D00012343F9E
:1006E300C004C005C006C007AC68AD69E412375842
:1006F3007BA47A7079157840123534C004C005C0E4
:1007030006C007AC5CAD5DE4123758D003D002D00D
:1007130001D00012343FD003D002D001D0001234F4
:100723003FD003D002D001D00012363D1237918E54
:10073300548F55434410020846E41237587BA47A79
:100743007079157840123534C004C005C006C0075F
:10075300AC28AD29E4123758D003D002D001D00021
:1007630012343FC004C005C006C007AC68AD69E4DD
:100773001237587BA47A7079157840123534C00447
:10078300C005C006C007AC5CAD5DE4123758D003AA
:10079300D002D001D00012343FD003D002D001D018
:1007A3000012343FA804A905AA06AB077F007ECA3E
:1007B3007D487C4712343FC004C005C006C007AC67
:1007C30068AD69E41237587BA47A707915784012C2
:1007D3003534C004C005C006C007AC28AD29E412F7
:1007E3003758D003D002D001D00012343FC004C028
:1007F30005C006C007AC68AD69E41237587BA47A1C
:100803007079157840123534C004C005C006C0079E
:10081300AC5CAD5DE4123758D003D002D001D000F8
:1008230012343FD003D002D001D00012343FD003A2
:10083300D002D001D00012363D1237918E548F551D
:100843005344EFAD55AC547F3412610B126031AD9C
:10085300447F32020CCCE56364067059E5396401C8
:100863006005056302003AE550B401057547018050
:1008730003E4F547789DE6FC08E6FDAF631227E73E
:10088300E5656401600302003A789DE6F54C08E6ED
:10089300F54DFDAC4C7F1A12610B126031E547B484
:1008A3000106E54444028004E54454FDFD7F321211
:1008B3005FBD020FD4E56364076003020968E5398D
:1008C30064016005056302003A789DE6FC08E6FDD5
:1008D300AF631227E7E5656401600302003A789D80
:1008E300E6F54508E6F546FDAC457F1C12610BE5D0
:1008F30047B40130E546254DFFE545354CFED3EFC2
:1009030094E4EE94444009EF241CFDEE34BB804490
:10091300E546254DFFE545354CFEC374E49FFD7464
:10092300449E8030C3E546954DFFE545954CFED387
:10093300EF94E4EE94444009EF241CFDEE34BB80B5
:1009430013C3E546954DFFE545954CFEC374E49FFF
:10095300FD74449EFC1238248E3E8F3FAD3FAC3E67
:100963007F36020B84E56364087059E539640260DD
:1009730005056302003AE550B4010575470180039C
:10098300E4F547789DE6FC08E6FDAF631227E7E54B
:10099300656401600302003A789DE6F53C08E6F5DC
:1009A3003DFDAC3C7F1E12610B126031E547B40183
:1009B30006E54444048004E54454FBFD7F32125FA2
:1009C300BD020FD4E56364096003020A73E5396469
:1009D300026005056302003A789DE6FC08E6FDAF78
:1009E300631227E7E5656401600302003A789DE638
:1009F300F53508E6F536FDAC357F2012610BE5478A
:100A0300B4012EE536253DFFE535353CFED3EF94A5
:100A130000EE947D4008E42FFDEE34838041E536FB
:100A2300253DFFE535353CFEC3E49FFD747D9E8087
:100A33002EC3E536953DFFE535953CFED3EF940097
:100A4300EE947D4008E42FFDEE34838012C3E53637
:100A5300953DFFE535953CFEC3E49FFD747D9EFC0B
:100A63001238248E2E8F2FAD2FAC2E7F38020B849D
:100A7300E563640A705FE53964036005056302009A
:100A83003AE550B401057547018003E4F547789DC5
:100A9300E6FC08E6FDAF631227E7E5656401600342
:100AA30002003A7F32FE126035789DE6F53108E6A2
:100AB300F532FDAC317F2212610B126031E547B490
:100AC3000106E54444088004E54454F7FD7F3212EF
:100AD3005FBD020FD4E563640B6003020B8AE53943
:100AE30064036005056302003A789DE6FC08E6FDB1
:100AF300AF631227E7E5656401600302003A789D5E
:100B0300E6F52A08E6F52BFDAC2A7F2412610B12C9
:100B13006031E547B4012EE52B2532FFE52A353157
:100B2300FED3EF9400EE94194008E42FFDEE34E772
:100B33008041E52B2532FFE52A3531FEC3E49FFDD5
:100B430074199E802EC3E52B9532FFE52A9531FE5D
:100B5300D3EF9400EE94194008E42FFDEE34E780C0
:100B630012C3E52B9532FFE52A9531FEC3E49FFDC1
:100B730074199EFC1238248E258F26AD26AC257F52
:100B83003A12610B020FD4E563640C705AAE6AAF7C
:100B93006BFC7D0A123812EF254BF54BEE354AF507
:100BA3004AE4F56AF56BAD4BAC4AAF631227E7E550
:100BB3006664016009E5676401600302003AD3E5F6
:100BC3004B940FE54A94274009E4F56AF56BF54A1F
:100BD300F54BE5656401600302003AAD4BAC4A7F17
:100BE3002612610B020FD4E563640D705AAE6AAF2F
:100BF3006BFC7D0A123812EF2549F549EE3548F5AD
:100C030048E4F56AF56BAD49AC48AF631227E7E5F5
:100C13006664016009E5676401600302003AD3E595
:100C230049940FE54894274009E4F56AF56BF548C4
:100C3300F549E5656401600302003AAD49AC487FBC
:100C43002812610B020FD4E563640E6003020CD219
:100C5300C3E56B94C8E56A94004020E551700575BF
:100C630051998040E551540F700CE55124F054F034
:100C73004409F55180021551E48029E56B6401456F
:100C83006A7025E551C3949A4005E4F5518015E552
:100C930051540FFFBF090AE551241054F0F5518058
:100CA300020551E4F56AF56BE42551FDE43420FCBB
:100CB300AF631227E7E5656401600302003AAD51B3
:100CC3007F06125FDBAD517F2A125FBD020FD4E5B1
:100CD30063640F707CC3E56B94C8E56A940040229B
:100CE300E55ED394015005755E12803CE55E540FBA
:100CF300700CE55E24F054F04409F55E8002155E45
:100D03008026E56B6401456A7023E55EB4120575C0
:100D13005E018014E55E540FFFBF090AE55E2410EF
:100D230054F0F55E8002055EE4F56AF56BE55EFD61
:100D33007C00AF631227E7E5656401600302003AB4
:100D4300AD5E7F05125FDBAD5E7F2B125FBD020FD1
:100D5300D4E56364106003020ED4C3E56B94C8E565
:100D63006A94005003020E09E558B40111E55EB41C
:100D7300020CE55154037006755829020EACE55870
:100D8300B40112E55EB4020DE551540360077558D2
:100D930028E4020EACE55864017030E55E6401603E
:100DA30023E55E6403601DE55E64056017E55E642C
:100DB300076011E55E6408600BE55E64106005E59D
:100DC3005EB41207755831E4020EACE558B4011E47
:100DD300E55E64046011E55E6406600BE55E64092C
:100DE3006005E55EB41107755830E4020EACE558B2
:100DF300540F700CE55824F054F04409F558800260
:100E03001558E4020EACE56B6401456A6003020EFB
:100E1300B0E55EB40212E5515403700CE558B429F1
:100E230007755801E4020EACE55EB40211E55154B6
:100E330003600BE558B42806755801E4806BE55E42
:100E430064016023E55E6403601DE55E640560176D
:100E5300E55E64076011E55E6408600BE55E64109F
:100E63006005E55EB4120BE558B43106755801E42C
:100E73008037E55E64046011E55E6406600BE55E41
:100E830064096005E55EB4110BE558B43006755886
:100E930001E48015E558540FFFBF090AE5582410F3
:100EA30054F0F55880020558E4F56AF56BE558FDF2
:100EB3007C00AF631227E7E5656401600302003A33
:100EC300AD587F04125FDBAD587F2C125FBD020F5C
:100ED300D4E5636411707AC3E56B94C8E56A940042
:100EE3004020E5597005755923803EE559540F702C
:100EF3000CE55924F054F04409F55980021559E4DE
:100F03008027E56B6401456A7023E559B42305E442
:100F1300F5598015E559540FFFBF090AE559241007
:100F230054F0F55980020559E4F56AF56BE559FD6E
:100F33007C00AF631227E7E5656401600302003AB2
:100F4300AD597F02125FDBAD597F2E125FBD020FD9
:100F5300D4E56364126003020FE8C3E56B94C8E54C
:100F63006A94004020E55A7005755A59803EE55A47
:100F7300540F700CE55A24F054F04409F55A8002DA
:100F8300155AE48027E56B6401456A7023E55AB47A
:100F93005905E4F55A8015E55A540FFFBF090AE5D0
:100FA3005A241054F0F55A8002055AE4F56AF56B99
:100FB300E55AFD7C00AF631227E7E5656401600332
:100FC30002003AAD5A7F01125FDBAD5A7F2F125FE9
:100FD300BD0562E4FDFC7F161227E77FC47E09127C
:100FE300603502003AE563C39414500302003AE407
:100FF300F563F53402003A025A208E678F688567DD
:101003006985686AE4F509E50864017066D3E56AF1
:101013009455E5699404AC67AD685031E4123758D0
:101023007BA47A70795D784012363DA804A905AA9D
:1010330006AB07E4FFFE7DA07C4312343F123791D9
:101043008E698F6A750A01E4F50802185AE41237AB
:10105300587BA47A70795D784012363DE4FBFA79C7
:10106300A078C31234431237918E698F6AE4F50A6C
:1010730002185AAC67AD68E41237587BA47A7079CA
:101083005D784012363DE4FBFA79A078431234438D
:101093001237918E698F6AD3E5689486E567940465
:1010A300401FE56824B4FFE56734FBFE900007E0CA
:1010B300FD7C00123824C3E56A9FF56AE5699EF555
:1010C30069D3E56894C4E5679409401FE568246E15
:1010D300FFE56734F6FE900008E0FD7C001238243B
:1010E300C3E56A9FF56AE5699EF569D3E56894846B
:1010F300E5679412401FE56824A4FFE56734EDFE1D
:10110300900007E0FD7C00123824C3E56A9FF56A6E
:10111300E5699EF569D3E5689402E5679417401F76
:10112300E568241CFFE56734E9FE900009E0FD7CD7
:1011330000123824C3E56A9FF56AE5699EF569D311
:10114300E5689472E567941F401FE56824ACFFE5EA
:101153006734E0FE900009E0FD7C00123824C3E50B
:101163006A9FF56AE5699EF569D3E5689430E5679A
:10117300942A401FE5682402FFE56734D6FE9000F9
:1011830009E0FD7C00123824C3E56A9FF56AE5692E
:101193009EF569D3E5689426E5679434401FE568B6
:1011A300240CFFE56734CCFE90000AE0FD7C0012BE
:1011B3003824C3E56A9FF56AE5699EF569D3E56856
:1011C300948CE567943C401FE568247EFFE5673413
:1011D300C3FE90000AE0FD7C00123824C3E56A9F39
:1011E300F56AE5699EF569D3E56894ACE567943FD4
:1011F300401EE5682486FFE56734C0FE90000AE0E0
:10120300FD7C00123824EF256AF56AEE3569F5692D
:10121300D3E5689430E5679443401FE5682402FFF3
:10122300E56734BDFE900009E0FD7C00123824C35D
:10123300E56A9FF56AE5699EF569D3E5689450E52B
:1012430067944B401EE56824BAFFE56734B4FE900B
:10125300000AE0FD7C00123824EF256AF56AEE35BA
:1012630069F569D3E56894E8E567944E401FE5683E
:10127300244AFFE56734B1FE900009E0FD7C0012CB
:101283003824C3E56A9FF56AE5699EF569D3E56885
:10129300948CE567945A401FE56824B0FFE56734F2
:1012A300A5FE90000AE0FD7C00123824C3E56A9F86
:1012B300F56AE5699EF569D3E5689404E56794608A
:1012C300401EE5682424FFE56734A0FE90000BE090
:1012D300FD7C00123824EF256AF56AEE3569F5695D
:1012E300D3E5689470E5679467401FE56824B8FF09
:1012F300E5673498FE90000AE0FD7C00123824C3B1
:10130300E56A9FF56AE5699EF569D3E5689478E532
:1013130067946E401EE56824B0FFE5673491FE9044
:10132300000BE0FD7C00123824EF256AF56AEE35E8
:1013330069F569D3E5689436E5679474401FE568F9
:1013430024FCFFE567348BFE90000AE0FD7C00126D
:101353003824C3E56A9FF56AE5699EF569AE67AF10
:1013630068E4FCFD7B907A83F9F8C3123887502B2D
:10137300E5682498FFE567347CFEE434FFFDE4343C
:10138300FFFCC00790000AE0FBE4FAF8D007125C08
:1013930037EF256AF56AEE3569F569AE67AF68E43C
:1013A300FCFD7BB07A86F9F8C3123887502CE568C8
:1013B3002478FFE5673479FEE434FFFDE434FFFC71
:1013C300C007900009E0FBE4FAF8D007125C37C3CA
:1013D300E56A9FF56AE5699EF569AE67AF68E4FC67
:1013E300FD7B807A8EF9F8C3123887502BE5682489
:1013F300A8FFE5673471FEE434FFFDE434FFFCC06D
:101403000790000BE0FBE4FAF8D007125C37EF25F6
:101413006AF56AEE3569F569AE67AF68E4FCFD7B92
:10142300447A93F9F8C3123887502CE56824EEFF09
:10143300E567346CFEE434FFFDE434FFFCC0079041
:10144300000BE0FBE4FAF8D007125C37C3E56A9FB0
:10145300F56AE5699EF569AE67AF68E4FCFD7B98C4
:101463007A9EF9F8C3123887502BE568249AFFE572
:10147300673461FEE434FFFDE434FFFCC0079000F1
:101483000BE0FBE4FAF8D007125C37EF256AF56A44
:10149300EE3569F569AE67AF68E4FCFD7BF07AA0D1
:1014A300F9F8C3123887502CE5682442FFE5673406
:1014B3005FFEE434FFFDE434FFFCC00790000BE063
:1014C300FBE4FAF8D007125C37C3E56A9FF56AE5D7
:1014D300699EF569AE67AF68E4FCFD7B047AA6F903
:1014E300F8C3123887502BE568242EFFE567345A7A
:1014F300FEE434FFFDE434FFFCC00790000BE0FB87
:10150300E4FAF8D007125C37EF256AF56AEE35691D
:10151300F569AE67AF68E4FCFD7BD47AADF9F8C337
:10152300123887502CE568245EFFE5673452FEE4E9
:1015330034FFFDE434FFFCC00790000BE0FBE4FA4A
:10154300F8D007125C37C3E56A9FF56AE5699EF533
:1015530069AE67AF68E4FCFD7B547ABAF9F8C3124D
:101563003887502BE56824DEFFE5673445FEE43415
:10157300FFFDE434FFFCC00790000AE0FBE4FAF847
:10158300D007125C37EF256AF56AEE3569F569AE67
:1015930067AF68E4FCFD7B767AC0F9F8C31238873D
:1015A300502CE568249EFFE567343FFEE434FFFDDD
:1015B300E434FFFCC007900007E0FBE4FAF8D0072F
:1015C300125C37C3E56A9FF56AE5699EF569AE6704
:1015D300AF68E4FCFD7B507AC3F9F8C31238875037
:1015E3002BE56824C4FFE567343CFEE434FFFDE4E7
:1015F30034FFFCC007900007E0FBE4FAF8D00712C1
:101603005C37EF256AF56AEE3569F569AE67AF6851
:10161300E4FCFD7B947ACAF9F8C3123887502CE5B1
:10162300682494FFE5673435FEE434FFFDE434FFBA
:10163300FCC00790000BE0FBE4FAF8D007125C371C
:10164300C3E56A9FF56AE5699EF569AE67AF68E42D
:10165300FCFD7B507ACDF9F8C3123887502BE5682F
:1016630024D8FFE5673432FEE434FFFDE434FFFCA5
:10167300C00790000BE0FBE4FAF8D007125C37EFE9
:10168300256AF56AEE3569F569AE67AF68E4FCFD76
:101693007B387AD1F9F8C3123887502CE56824F0E7
:1016A300FFE567342EFEE434FFFDE434FFFCC0079E
:1016B30090000BE0FBE4FAF8D007125C37C3E56A4D
:1016C3009FF56AE5699EF569AE67AF68E4FCFD7B4B
:1016D300B07AD6F9F8C3123887502BE5682478FF1F
:1016E300E5673429FEE434FFFDE434FFFCC00790D2
:1016F300000BE0FBE4FAF8D007125C37EF256AF53C
:101703006AEE3569F569AE67AF68E4FCFD7B307A54
:10171300E3F9F8C3123887502BE56824F8FFE5672F
:10172300341CFEE434FFFDE434FFFCC00790000BDF
:10173300E0FBE4FAF8D007125C37EF256AF56AEEAE
:101743003569F569AE67AF68E4FCFD7B8C7AE6F931
:10175300F8C3123887502CE5682488FFE5673419ED
:10176300FEE434FFFDE434FFFCC007900009E0FB16
:10177300E4FAF8D007125C37C3E56A9FF56AE569B6
:101783009EF569AE67AF68E4FCFD7B9C7AEAF9F8E5
:10179300C3123887502BE568248CFFE5673415FEA8
:1017A300E434FFFDE434FFFCC00790000BE0FBE4EE
:1017B300FAF8D007125C37EF256AF56AEE3569F55A
:1017C30069AE67AF68E4FCFD7B347AF3F9F8C312C2
:1017D3003887502CE56824F4FFE567340CFEE434C5
:1017E300FFFDE434FFFCC00790000BE0FBE4FAF8D4
:1017F300D007125C37C3E56A9FF56AE5699EF56910
:10180300AE67AF68E4FCFD7BFC7AF3F9F8C31238EA
:1018130087502BE568242CFFE567340CFEE434FF86
:10182300FDE434FFFCC00790000AE0FBE4FAF8D0C3
:1018330007125C37EF256AF56AEE3569F569AE671D
:10184300AF68E4FCFD7BB07AFA7909F8C3123887F4
:101853005005E4F569F56AAE69AF6A228E678F6851
:10186300E4F509E50864016003021934D3E56894DB
:1018730017E5679403AC67AD685030E41237587BC3
:10188300E17A7A7914784012363DA804A905AA06AC
:10189300AB07E4FFFE7DA07C4312343F1237918EE9
:1018A300698F6A750A01E4F5088023E41237587BCF
:1018B300E17A7A7914784012363DE4FBFA79A0781C
:1018C300C31234431237918E698F6AE4F50AD3E564
:1018D3006894F8E56794024022E50A701EE56824DF
:1018E30026FFE56734FDFE90001BE0FD7C00123807
:1018F30024EF256AF56AEE3569F569D3E56894D076
:10190300E56794075003022052E50A600302205260
:10191300E5682462FFE56734F8FE90001DE0FD7C76
:1019230000123824EF256AF56AEE3569F56902205D
:1019330052AC67AD68E41237587BE17A7A79147850
:101943004012363DE4FBFA79A07843123443123750
:10195300918E698F6AD3E56894F8E5679402401F16
:10196300E5682426FFE56734FDFE90001BE0FD7C5F
:1019730000123824C3E56A9FF56AE5699EF569D3C9
:10198300E56894D0E5679407401FE5682462FFE5A6
:101993006734F8FE90001DE0FD7C00123824C3E597
:1019A3006A9FF56AE5699EF569D3E5689460E56722
:1019B300940C401EE56824B2FFE56734F3FE900003
:1019C3001DE0FD7C00123824EF256AF56AEE3569C7
:1019D300F569D3E56894DEE567940D401FE5682457
:1019E30054FFE56734F2FE90001DE0FD7C001238E1
:1019F30024C3E56A9FF56AE5699EF569D3E56894B2
:101A0300F2E5679412401EE5682440FFE56734ED74
:101A1300FE90001CE0FD7C00123824EF256AF56A75
:101A2300EE3569F569D3E5689444E567941B401E78
:101A3300E568240CFFE56734E5FE90001DE0FD7CBE
:101A430000123824EF256AF56AEE3569F569D3E5A6
:101A530068947FE5679424401FE56824FCFFE567ED
:101A630034DBFE90001EE0FD7C00123824C3E56ADF
:101A73009FF56AE5699EF569D3E56894B4E56794D3
:101A830028401FE5682488FFE56734D7FE90001DD2
:101A9300E0FD7C00123824C3E56A9FF56AE5699E80
:101AA300F569D3E56894FCE5679430401FE5682445
:101AB3002CFFE56734CFFE90001EE0FD7C0012385A
:101AC30024C3E56A9FF56AE5699EF569D3E56894E1
:101AD300AAE5679437401FE5682488FFE56734C8A3
:101AE300FE90001FE0FD7C00123824C3E56A9FF5D9
:101AF3006AE5699EF569D3E56894A0E5679441407A
:101B03001FE5682492FFE56734BEFE90001FE0FDE9
:101B13007C00123824C3E56A9FF56AE5699EF5697E
:101B2300D3E568944AE5679447401EE56824E8FFD7
:101B3300E56734B8FE90001FE0FD7C00123824EF07
:101B4300256AF56AEE3569F569D3E56894FAE567C0
:101B5300944B401FE5682438FFE56734B4FE9000DA
:101B63001EE0FD7C00123824C3E56A9FF56AE5692F
:101B73009EF569D3E56894CAE5679453401FE56809
:101B83002468FFE56734ACFE90001FE0FD7C001283
:101B93003824C3E56A9FF56AE5699EF569D3E5686C
:101BA3009488E5679459401EE56824C8FFE56734C7
:101BB300A6FE90001EE0FD7C00123824EF256AF596
:101BC3006AEE3569F569D3E5689406E56794634081
:101BD3001FE568242CFFE567349DFE90001FE0FDA0
:101BE3007C00123824C3E56A9FF56AE5699EF569AE
:101BF300D3E56894ECE5679468401EE5682450FFDC
:101C0300E5673497FE90001EE0FD7C00123824EF58
:101C1300256AF56AEE3569F569D3E5689458E56791
:101C23009470401EE56824ACFFE5673490FE900095
:101C33001FE0FD7C00123824EF256AF56AEE356952
:101C4300F569D3E568945CE5679476401FE56824FD
:101C530008FFE567348AFE90001FE0FD7C00123820
:101C630024C3E56A9FF56AE5699EF569D3E568943F
:101C730076E567947A401EE56824EEFFE5673485D0
:101C8300FE90001DE0FD7C00123824EF256AF56A02
:101C9300EE3569F569AE67AF68E4FCFD7B9E7A8437
:101CA300F9F8C3123887502BE5682494FFE56734AD
:101CB3007BFEE434FFFDE434FFFCC00790001FE02B
:101CC300FBE4FAF8D007125C37EF256AF56AEE35C4
:101CD30069F569AE67AF68E4FCFD7B6E7A8CF9F851
:101CE300C3123887502BE56824C4FFE5673473FEBD
:101CF300E434FFFDE434FFFCC00790001EE0FBE486
:101D0300FAF8D007125C37EF256AF56AEE3569F504
:101D130069AE67AF68E4FCFD7BBA7A90F9F8C31249
:101D23003887502BE5682478FFE567346FFEE43489
:101D3300FFFDE434FFFCC00790001FE0FBE4FAF86A
:101D4300D007125C37EF256AF56AEE3569F569AE9F
:101D530067AF68E4FCFD7BEE7A98F9F8C312388725
:101D6300502BE5682444FFE5673467FEE434FFFD48
:101D7300E434FFFCC00790001FE0FBE4FAF8D0074F
:101D8300125C37EF256AF56AEE3569F569AE67AF20
:101D930068E4FCFD7B667A9EF9F8C3123887502B02
:101DA300E56824CCFFE5673461FEE434FFFDE434E9
:101DB300FFFCC00790001FE0FBE4FAF8D007125CB9
:101DC30037EF256AF56AEE3569F569AE67AF68E402
:101DD300FCFD7BA67AA4F9F8C3123887502BE5687B
:101DE30024F0FFE567345BFEE434FFFDE434FFFCDD
:101DF300C00790001FE0FBE4FAF8D007125C37EF4E
:101E0300256AF56AEE3569F569AE67AF68E4FCFDEE
:101E13007BBA7AA9F9F8C3123887502BE56824787E
:101E2300FFE5673456FEE434FFFDE434FFFCC007EE
:101E330090001FE0FBE4FAF8D007125C37EF256A45
:101E4300F56AEE3569F569AE67AF68E4FCFD7B962C
:101E53007AAFF9F8C3123887502AE42568FFE5679B
:101E63003451FEE434FFFDE434FFFCC00790001E50
:101E7300E0FBE4FAF8D007125C37EF256AF56AEE67
:101E83003569F569AE67AF68E4FCFD7B3A7AB6F96C
:101E9300F8C3123887502BE56824F8FFE567344907
:101EA300FEE434FFFDE434FFFCC00790001EE0FBBA
:101EB300E4FAF8D007125C37EF256AF56AEE356964
:101EC300F569AE67AF68E4FCFD7B7A7ABCF9F8C3C9
:101ED300123887502BE56824B8FFE5673443FEE4E6
:101EE30034FFFDE434FFFCC00790001DE0FBE4FA7F
:101EF300F8D007125C37EF256AF56AEE3569F569A4
:101F0300AE67AF68E4FCFD7BDA7AC5F9F8C3123833
:101F130087502BE5682458FFE567343AFEE434FF25
:101F2300FDE434FFFCC00790001CE0FBE4FAF8D0AA
:101F330007125C37EF256AF56AEE3569F569AE6716
:101F4300AF68E4FCFD7B467ACDF9F8C312388750BD
:101F53002BE56824ECFFE5673432FEE434FFFDE44F
:101F630034FFFCC00790001CE0FBE4FAF8D0071232
:101F73005C37EF256AF56AEE3569F569AE67AF68D8
:101F8300E4FCFD7B2E7AD1F9F8C3123887502BE598
:101F9300682404FFE567342FFEE434FFFDE434FFD7
:101FA300FCC00790001EE0FBE4FAF8D007125C3790
:101FB300EF256AF56AEE3569F569AE67AF68E4FC4B
:101FC300FD7B0A7AD7F9F8C3123887502BE56824CA
:101FD30028FFE5673429FEE434FFFDE434FFFCC049
:101FE3000790001CE0FBE4FAF8D007125C37EF25FA
:101FF3006AF56AEE3569F569AE67AF68E4FCFD7BA7
:102003001E7ADCF9F8C3123887502BE5682414FFD5
:10201300E5673424FEE434FFFDE434FFFCC007909D
:10202300001DE0FBE4FAF8D007125C37EF256AF5F0
:102033006AEE3569F569AE67AF68E4FCFD7B487A03
:10204300EEF9F8C3123887500674FFF569F56AAEE6
:1020530069AF6A22E4F567F568F569F56AF56BF52A
:102063006C8C6D8D6EE55064016003022228C3E51C
:102073006E940AE56D9400503F906200E493F56717
:10208300F568F569E539B4030A906203E493F569E9
:10209300022243E50964016005E539B4020D90624B
:1020A30000E493F56A90620302227C906203E49356
:1020B300F56A90620A02227CC3E56E940AE56D9488
:1020C30000403FE56E9464E56D94005035906200E6
:1020D300E493F567F568F569E5396403700C90627C
:1020E3000393F56990620A0222FBE5096401600625
:1020F300E539640270069062030222FB90620302D8
:102103002334C3E56E9464E56D94004038E56E9422
:10211300E8E56D9403502E906200E493F567F5684B
:10212300906203E493F569E539640370030223962F
:10213300E509640170030223F9E5396402600302CF
:1021430024510223F9C3E56E94E8E56D9403404FEF
:10215300E56E9410E56D94275045906200E493F585
:1021630067906203E493F568AE6DAF6E7C037DE820
:1021730012382474EE2FF58274613EF583E493F5EF
:1021830069E539640370030224ECE5096401700313
:1021930002255DE539640260030225C202255DC3A1
:1021A300E56E9410E56D942750030227D2AE6DAF10
:1021B3006EE4FCFD7BA07A867901F8D31238875050
:1021C300030227D2906203E493F567AE6DAF6E7C92
:1021D300277D1012382474EE2FF58274613EF58347
:1021E300E493F568AE6DAF6E7C277D101238247EC4
:1021F300037FE8CFCDCFCECCCE12382474EE2FF5AB
:102203008274613EF583E493F569E53964037003F1
:102213000224ECE50964016006E5396402700302F7
:10222300255D0225C2C3E56E940AE56D9400505501
:10223300906200E493F567F568F569E539B4031333
:1022430090620AE493F56A9061EEE493F56BE56EB0
:102253000227CFE50964016005E539B402119062F4
:1022630000E493F56AF56BE56E9061EE0227CF907B
:102273006200E493F56A90620AE493F56BE56E906D
:1022830061EE0227CFC3E56E940AE56D9400500317
:1022930002236AE56E9464E56D9400400302236AA9
:1022A300906200E493F567F568F569E539640370B6
:1022B3003890620A93F56AAE6DAF6E7C007D0A12A8
:1022C300382474EE2FF58274613EF583E493F56B45
:1022D300AE6DAF6E7C007D0A12382474EE2DF5824C
:1022E30074613CF583E40227CFE50964016006E5E8
:1022F3003964027039906200E493F56AAE6DAF6E93
:102303007C007D0A12382474EE2FF58274613EF549
:1023130083E493F56BAE6DAF6E7C007D0A123824B7
:1023230074EE2DF58274613CF583E40227CF90624D
:1023330000E493F56AAE6DAF6E7C007D0A1238241B
:10234300740A2FF58274623EF583E493F56BAE6DE8
:10235300AF6E7C007D0A12382474EE2DF582746111
:102363003CF583E40227CFC3E56E9464E56D9400E6
:1023730050030224A9E56E94E8E56D94034003023B
:1023830024A9906200E493F567F568F569E539647B
:10239300037057AE6DAF6EFC7D64123824740A2F40
:1023A300F58274623EF583E493F56AAE6DAF6E7C9D
:1023B300007D641238247E007F0ACFCDCFCECCCEF1
:1023C30012382474EE2FF58274613EF583E493F59D
:1023D3006BAE6DAF6E7C007D0A12382474EE2DF562
:1023E3008274613CF583E40227CFE509640160064A
:1023F300E53964027058AE6DAF6E7C007D641238AF
:102403002474EE2FF58274613EF583E493F56AAE8E
:102413006DAF6E7C007D641238247E007F0ACFCDC1
:10242300CFCECCCE12382474EE2FF58274613EF5F4
:1024330083E493F56BAE6DAF6E7C007D0A12382496
:1024430074EE2DF58274613CF583E40227CFAE6D03
:10245300AF6E7C007D6412382474EE2FF5827461B4
:102463003EF583E493F56AAE6DAF6E7C007D641236
:1024730038247E007F0ACFCDCFCECCCE1238247441
:102483000A2FF58274623EF583E493F56BAE6DAF6C
:102493006E7C007D0A12382474EE2DF58274613C43
:1024A300F583E40227CFC3E56E94E8E56D9403500A
:1024B30003022627E56E9410E56D94274003022658
:1024C30027906200E493F567F568AE6DAF6E7C0309
:1024D3007DE812382474EE2FF58274613EF583E4AF
:1024E30093F569E53964037065AE6DAF6E7C037D6A
:1024F300E81238247E007F64CFCDCFCECCCE123805
:1025030024740A2FF58274623EF583E493F56AAE70
:102513006DAF6E7C007D641238247E007F0ACFCDC0
:10252300CFCECCCE12382474EE2FF58274613EF5F3
:1025330083E493F56BAE6DAF6E7C007D0A12382495
:1025430074EE2DF58274613CF583E40227CFE5092F
:1025530064016006E53964027065AE6DAF6E7C039D
:102563007DE81238247E007F64CFCDCFCECCCE124F
:10257300382474EE2FF58274613EF583E493F56A93
:10258300AE6DAF6E7C007D641238247E007F0ACF6F
:10259300CDCFCECCCE12382474EE2FF58274613EAB
:1025A300F583E493F56BAE6DAF6E7C007D0A123854
:1025B3002474EE2DF58274613CF583E40227CFAEDB
:1025C3006DAF6E7C037DE81238247E007F64CFCD2F
:1025D300CFCECCCE12382474EE2FF58274613EF543
:1025E30083E493F56AAE6DAF6E7C007D641238248C
:1025F3007E007F0ACFCDCFCECCCE123824740A2FE3
:10260300F58274623EF583E493F56BAE6DAF6E7C39
:10261300007D0A12382474EE2DF58274613CF58333
:10262300E40227CFC3E56E9410E56D9427500302AF
:1026330027D2AE6DAF6EE4FCFD7BA07A867901F8FC
:10264300D312388750030227D2906200E493F567D0
:10265300AE6DAF6E7C277D1012382474EE2FF58299
:1026630074613EF583E493F568AE6DAF6E7C277DB0
:10267300101238247E037FE8CFCDCFCECCCE1238D4
:102683002474EE2FF58274613EF583E493F569E5D6
:102693003964037065AE6DAF6E7C037DE812382438
:1026A3007E007F64CFCDCFCECCCE123824740A2FD8
:1026B300F58274623EF583E493F56AAE6DAF6E7C8A
:1026C300007D641238247E007F0ACFCDCFCECCCEDE
:1026D30012382474EE2FF58274613EF583E493F58A
:1026E3006BAE6DAF6E7C007D0A12382474EE2DF54F
:1026F3008274613CF583E40227CFE5096401600637
:10270300E53964027064AE6DAF6E7C037DE8123808
:10271300247E007F64CFCDCFCECCCE12382474EE8E
:102723002FF58274613EF583E493F56AAE6DAF6E67
:102733007C007D641238247E007F0ACFCDCFCECCBF
:10274300CE12382474EE2FF58274613EF583E49340
:10275300F56BAE6DAF6E7C007D0A12382474EE2DDE
:10276300F58274613CF583E48062AE6DAF6E7C03E9
:102773007DE81238247E007F64CFCDCFCECCCE123D
:10278300382474EE2FF58274613EF583E493F56A81
:10279300AE6DAF6E7C007D641238247E007F0ACF5D
:1027A300CDCFCECCCE123824740A2FF58274623E7C
:1027B300F583E493F56BAE6DAF6E7C007D0A123842
:1027C3002474EE2DF58274613CF583E493F56C85F6
:1027D3006A7B85697C85687D85677EAB6BAD6C7F25
:1027E300010256AB8C6C8D6D8F6EAF6DAE6CE56E6A
:1027F30070289061FF93FFF56F9061EEE493F5709D
:10280300906200E493F5719061F3E493F572906143
:10281300FCE493F5738F74022EB7E56E64016003D5
:102823000228C7EF4E70229061FF93F56F9061EF1E
:10283300E493F570906200E493F571F5729062058C
:10284300E493F573A3E493F574EF64014E70299058
:1028530061FF93F56F9061EFE493F570906200E48C
:1028630093F571906207E493F572906205E493F532
:10287300739061FBE493F574EF64024E701F9061F3
:10288300FF93F56F9061EFE493F570906200E4932A
:10289300F571F572F573906204E493F574EF6403D4
:1028A3004E6003022EB79061FF93F56F9061EFE4E2
:1028B30093F570906200E493F571F572F57390618E
:1028C300F8022DB2E56E64027049EF4E701E9061FE
:1028D300FF93F56F9061F0E493F570906200E493D9
:1028E300F571F572F5739061FA022DB2EF64014E42
:1028F3006003022EB79061FF93F56F9061F0E4934C
:10290300F570906200E493F571F572F5739061FDD3
:10291300022DB2E56E64036003022A0DEF4E701BB5
:102923009061FF93F56F9061F1E493F5709062000D
:10293300E493F571F572757374F574EF64014E7079
:10294300249061FF93F56F9061F1E493F5709062C9
:1029530000E493F571F572906209E493F573906264
:1029630000E493F574EF64024E70249061FF93F5D5
:102973006F9061F1E493F570906200E493F571F563
:1029830072906205E493F573906200E493F574EF3B
:1029930064034E70249061FF93F56F9061F1E493AB
:1029A300F570906200E493F571F5729061FCE49325
:1029B300F573906200E493F574EF64044E70249011
:1029C30061FF93F56F9061F1E493F570906200E419
:1029D30093F571F572906207E493F573906200E4E6
:1029E30093F574EF64054E6003022EB79061FF9375
:1029F300F56F9061F1E493F570906200E493F571E3
:102A0300F57275736DF574022EB7E56EC3940450B9
:102A130003022DB6E56ED3940D4003022DB6856CEB
:102A230076856D77E56EB40405906205803AE56EB0
:102A3300B405059062058041E56EB4060590620712
:102A43008026E56EB40705906207802DE56EB40815
:102A5300059062048012E56EB40905906204801942
:102A6300E56EB40A0C9061F8E493F56F75705C80C1
:102A730039E56EB40B0C9061F8E493F56F75706DE6
:102A83008028E56EB40C109061F8E493F56F9062C2
:102A930002E493F5708013E56EB40D119061F8E4D0
:102AA30093F56F9061FEE493F570E4F575C3E576F5
:102AB30094004040E577940AE5769400503690629E
:102AC30000E493F571F572E5757009E509700590F9
:102AD300620A80049061EEE493F573AE76AF777C7F
:102AE300007D0A12382474EE2DF58274613CF5835F
:102AF300E493F574C3E577940AE57694004060E5C2
:102B0300779464E57694005056906200E493F571EF
:102B1300F572E5757017E5097013AE76AF77FC7D36
:102B23000A123824740A2FF58274628012AE76AFCB
:102B3300777C007D0A12382474EE2FF58274613E8F
:102B4300F583E493F573AE76AF777C007D0A123894
:102B53002474EE2DF58274613CF583E493F574C31C
:102B6300E5779464E57694005003022C04E57794AA
:102B7300E8E57694034003022C04906200E493F5A5
:102B830071AE76AF777C007D6412382474EE2FF536
:102B93008274613EF583E493F572E5757024E5096B
:102BA3007020AE76AF77FC7D641238247E007F0AF6
:102BB300CFCDCFCECCCE123824740A2FF5827462D7
:102BC300801FAE76AF777C007D641238247E007F51
:102BD3000ACFCDCFCECCCE12382474EE2FF582742B
:102BE300613EF583E493F573AE76AF777C007D0A9F
:102BF30012382474EE2DF58274613CF583E493F569
:102C030074C3E57794E8E57694035003022CC5E595
:102C1300779410E57694274003022CC5AE76AF7700
:102C23007C037DE812382474EE2FF58274613EF53F
:102C330083E493F571AE76AF777C037DE812382495
:102C43007E007F64CFCDCFCECCCE12382474EE2F4E
:102C5300F58274613EF583E493F572E5757024E5BE
:102C6300097020AE76AF77FC7D641238247E007F36
:102C73000ACFCDCFCECCCE123824740A2FF582746E
:102C830062801FAE76AF777C007D641238247E00AD
:102C93007F0ACFCDCFCECCCE12382474EE2FF5825F
:102CA30074613EF583E493F573AE76AF777C007D74
:102CB3000A12382474EE2DF58274613CF583E49393
:102CC300F574C3E5779410E57694275003022EB785
:102CD300AE76AF77E4FCFD7BA07A867901F8D31258
:102CE30038875003022EB7AE76AF777C277D10125C
:102CF300382474EE2FF58274613EF583E493F57006
:102D0300AE76AF777C277D101238247E037FE8CF21
:102D1300CDCFCECCCE12382474EE2FF58274613E23
:102D2300F583E493F571AE76AF777C037DE81238D3
:102D3300247E007F64CFCDCFCECCCE12382474EE68
:102D43002FF58274613EF583E493F572E575702483
:102D5300E5097020AE76AF77FC7D641238247E00DF
:102D63007F0ACFCDCFCECCCE123824740A2FF58272
:102D73007462801FAE76AF777C007D641238247E48
:102D8300007F0ACFCDCFCECCCE12382474EE2FF5F0
:102D93008274613EF583E493F573AE76AF777C007E
:102DA3007D0A12382474EE2DF58274613CF583E4B8
:102DB300022E9BE56EC3940E5009E56E94144003F6
:102DC300022EA0E56EB40E05756F6E802EE56EB40F
:102DD3000F0C906201E493F56F9061EE8031E56E24
:102DE300B4100C9061FBE493F56F75706E8024E56D
:102DF3006EB4110C9061FEE493F56F906207800F3F
:102E0300E56EB4120E906201E493F56F9061EFE406
:102E130093F570856C76856D77E577540FFDE576D0
:102E2300C4F854F0C868F576E577C4540F48F577CD
:102E3300540FFCE576C4F854F0C868F576E577C41A
:102E4300540F48F577540FFBE576C4F854F0C8687F
:102E5300F576E577C4540F48F577540FFF75750180
:102E6300702390620093FEF571EB70088E72EC9004
:102E730061EE8008EB9061EE93F572EC93F573EDE0
:102E830093F574800FEF9061EE93F571EB93F57208
:102E9300EC93F573ED9061EE93F5748017E56EC3D3
:102EA30094164010E4F56FF570F57175726E7573D5
:102EB3007975746B85727B85717C85707D856F7E7A
:102EC300AB73AD747F010256AB8E678F6885676BFA
:102ED30085686CE4F509E5086401600302325BD39D
:102EE300E56894C2E5679402AC67AD685030E412BC
:102EF30037587B7B7A14790E784012363DA804A9A3
:102F030005AA06AB07E4FFFE7DA07C4312343F1203
:102F130037918E698F6A750A01E4F5088026E412F9
:102F230037587BCD7ACC790C784012363DE4FBFAE6
:102F330079A078C31234431237918E698F6AE4F50E
:102F43000A750801D3E56A946EE56994004022E5A9
:102F53000A701EE56A249CFFE56934FFFE90004376
:102F6300E0FD7C00123824EF256AF56AEE3569F539
:102F730069D3E56A94B5E56994014022E50A701EB8
:102F8300E56A245CFFE56934FEFE900046E0FD7CC3
:102F930000123824EF256AF56AEE3569F569D3E541
:102FA3006A9458E56994024022E50A701EE56A2492
:102FB300DAFFE56934FDFE900045E0FD7C00123840
:102FC30024EF256AF56AEE3569F569D3E56A94DE7F
:102FD300E56994024022E50A701EE56A243AFFE59A
:102FE3006934FDFE900044E0FD7C00123824EF2597
:102FF3006AF56AEE3569F569D3E56A94C0E56994C3
:10300300034022E50A701EE56A244AFFE56934FCA1
:10301300FE900045E0FD7C00123824EF256AF56A36
:10302300EE3569F569D3E56A947EE5699404402237
:10303300E50A701EE56A24B4FFE56934FBFE9000DF
:1030430044E0FD7C00123824EF256AF56AEE356909
:10305300F569D3E56A9446E56994054022E50A706B
:103063001EE56A24ECFFE56934FAFE900044E0FDB6
:103073007C00123824EF256AF56AEE3569F569D3C9
:10308300E56A9404E56994064022E50A701EE56A40
:103093002410FFE56934FAFE900043E0FD7C001242
:1030A3003824EF256AF56AEE3569F569D3E56A9444
:1030B300F4E56994064022E50A701EE56A242AFFB6
:1030C300E56934F9FE900044E0FD7C00123824EFFA
:1030D300256AF56AEE3569F569D3E56A9476E5699B
:1030E30094074022E50A701EE56A2494FFE56934DB
:1030F300F8FE900044E0FD7C00123824EF256AF5C9
:103103006AEE3569F569D3E56A9448E56994084040
:1031130022E50A701EE56A24C2FFE56934F7FE90D2
:103123000043E0FD7C00123824EF256AF56AEE3592
:1031330069F569D3E56A94DEE56994084022E50AF6
:10314300701EE56A242CFFE56934F7FE900043E026
:10315300FD7C00123824EF256AF56AEE3569F569BE
:10316300D3E56A94F6E56994094022E50A701EE501
:103173006A2428FFE56934F6FE900043E0FD7C00F5
:10318300123824EF256AF56AEE3569F569D3E56AE5
:1031930094A0E569940A4022E50A701EE56A248832
:1031A300FFE56934F5FE900043E0FD7C001238240E
:1031B300EF256AF56AEE3569F569D3E56A944AE560
:1031C30069940B4022E50A701EE56A24DEFFE56977
:1031D30034F4FE900043E0FD7C00123824EF256AAE
:1031E300F56AEE3569F569D3E56A949AE569940B56
:1031F3004022E50A701EE56A2484FFE56934F4FE83
:10320300900043E0FD7C00123824EF256AF56AEE56
:103213003569F569D3E56A9426E569940C4022E59E
:103223000A701EE56A24E4FFE56934F3FE90004367
:10323300E0FD7C00123824EF256AF56AEE3569F566
:1032430069D3E56A94A0E569940F50030234377596
:103253006913756A7E023437856B69856C6AAC6B5A
:10326300AD6CE41237587BCD7ACC790C78401236AA
:103273003DE4FBFA79A078431234431237918E6907
:103283008F6AD3E56A9454E5699401401FE56A2483
:10329300B6FFE56934FEFE900045E0FD7C00123880
:1032A30024C3E56A9FF56AE5699EF569D3E56A94E7
:1032B3003AE5699402401FE56A24D0FFE56934FDCD
:1032C300FE900044E0FD7C00123824C3E56A9FF5BC
:1032D3006AE5699EF569D3E56A94ACE569940340B0
:1032E3001FE56A2472FFE56934FCFE900044E0FDAB
:1032F3007C00123824C3E56A9FF56AE5699EF56987
:10330300D3E56A9414E5699405401FE56A240AFF2E
:10331300E56934FBFE900044E0FD7C00123824C3D1
:10332300E56A9FF56AE5699EF569D3E56A94B8E5B0
:10333300699406401FE56A245CFFE56934F9FE9051
:103343000044E0FD7C00123824C3E56A9FF56AE57A
:10335300699EF569D3E56A947AE5699408401CE5AA
:103363006A249AFFE56934F7FE7C007D1C12382439
:10337300C3E56A9FF56AE5699EF569D3E56A943208
:10338300E569940A401FE56A24ECFFE56934F5FE1C
:10339300900045E0FD7C00123824C3E56A9FF56A7E
:1033A300E5699EF569D3E56A94A4E569940B401F2A
:1033B300E56A2470FFE56934F4FE900045E0FD7C86
:1033C30000123824C3E56A9FF56AE5699EF569D35F
:1033D300E56A94B7E569940D401FE56A24AEFFE5FD
:1033E3006934F2FE900045E0FD7C00123824C3E509
:1033F3006A9FF56AE5699EF569D3E56A9490E56984
:10340300940F401FE56A24E2FFE56934F0FE900063
:1034130046E0FD7C00123824C3E56A9FF56AE5693E
:103423009EF569D3E56A9488E56994134006756946
:1034330017756A6FAE69AF6A220237FDE86480F8D8
:10344300E933E83360110460F0ED33EC337009E8DD
:10345300FCE9FDEAFEEBFF220460DED3EB9FEA9E6C
:10346300E99DE8C2E78CF0C2F795F0400CE8CCF890
:10347300E9CDF9EACEFAEBCFFB1237C885D0F05885
:1034830004700320D5B3E80470075002B2D50238A4
:103493000792D5EC0460F7E4CCC0E0C398F8603B36
:1034A30094186008400DD0E0FB0237DFE4FBFAC953
:1034B300FC8028E830E406E4C9FBE4CAFCE830E316
:1034C30005E4C9CACBFCE854076010F8C3E913F953
:1034D300EA13FAEB13FBEC13FCD8F130F52FC3E43A
:1034E3009CFCEF9BFFEE9AFEED99FDD0E0FBEF4EC7
:1034F3004D4C701222DB03023804EC2CFCEF33FF3B
:10350300EE33FEED33FDED30E7EB0237DFEF2BFF5C
:10351300EE3AFEED39FDD0E0FB50130BBB00030286
:103523003807ED13FDEE13FEEF13FFEC13FC023728
:10353300DFEC4D6011E8497017ED33EC3304600D97
:10354300E4FCFFFEFD22E933E8330470F80237FDA3
:103553001237C858046009E4CC2481500628500966
:10356300023807284003023804C0E0EB4A7044B92C
:103573008006D0E0FB0237F3EF4E701CBD8008EBF2
:10358300FFEAFEE9FD80EBE98DF0A4FEE5F00236EB
:103593001DE9CDF9EAFEEBFFEF89F0A4FCE5F0CEDF
:1035A30089F0A42EFFE435F0CD89F0A42DFEE43597
:1035B300F08067EF4E7005BD80D780C3EF8BF0A41A
:1035C300ACF0EE8BF0A42CFCE435F0F8EF8AF0A419
:1035D3002CE5F038FCE433CB8DF0A42CFCE5F03B78
:1035E300F8EE8AF0A42CFCE5F038F8E433CF89F048
:1035F300A42CFCE5F038CF3400CE89F0A42FFFE5EE
:10360300F03EFEE433C98DF0A42EFEE5F039CD8AF9
:10361300F0A42FFFE5F03EFEE43DFD33D0E0FB5088
:10362300070BBB000F023807EC2CFCEF33FFEE3324
:10363300FEED33FD0237DF023807EC5D046005E879
:10364300590470030237FD1237C8580460F6EC487A
:1036530060F2EC7004FDFEFF22C860DB2481C850D9
:1036630009C398600250060238049850CAF582E9EB
:10367300294B4A7005AB820237F375F0007C1A7848
:1036830080C3EF9BEE9AED99400DC3EF9BFFEE9A3B
:10369300FEED99FDE842F0DC23ACF0D0E0FFD0E092
:1036A300FED0E0FDAB8220E7101BEB60BAEC2CFCF4
:1036B300EF33FFEE33FEED33FD0237DFE803F8307F
:1036C300E705C0F075F000EF2FFFEE33FEED33FD9D
:1036D30040B830E7C280AA74F8CC6480CCC8648058
:1036E300C8F58204604FC3EB9FF5F0EA9E42F0E910
:1036F3009D42F0E89C45F0603C501DE5825FFFE58C
:1037030082D313CB5BCBF42B5582FB50280ABA0030
:103713002409B9002008801DE5825BFBE582D313F1
:10372300CF5FCFF4C3132F5582FF50090EBE0005A0
:103733000DBD00010CC3EB9FF5F0EA9E42F0E99D3D
:1037430042F0E89C45F06007CC4820E701B3EC2247
:1037530075F020800E75F010800575F0087D007EF1
:10376300007F003392D530D503123879EC33401003
:10377300EF33FFEE33FEED33FDEC33FCD5F0ED22FA
:10378300E5F0247EA2D513CC92E7CDCEFF22EDD275
:10379300E7CD33EC3392D524814006E4FFFEFDFCF4
:1037A30022FCE4CFCECDCC24E0501174FF80EDC3D6
:1037B300CC13CCCD13CDCE13CECF13CF0470F030BA
:1037C300D5DE023879E9D2E7C933E833F892D5ED8B
:1037D300D2E7CD33EC33FC5002B2D522EC30E71004
:1037E3000FBF000C0EBE00080DBD00040BEB6014F0
:1037F300A2D5EB13FCED92E7FD2274FFFCFDFEFF67
:1038030022E480F8A2D574FF13FC7D80E480EFEFFF
:103813008DF0A4A8F0CF8CF0A428CE8DF0A42EFEBA
:1038230022BC000BBE0029EF8DF084FFADF022E433
:10383300CCF875F008EF2FFFEE33FEEC33FCEE9D72
:10384300EC984005FCEE9DFE0FD5F0E9E4CEFD2299
:10385300EDF8F5F0EE8420D21CFEADF075F008EF24
:103863002FFFED33FD4007985006D5F0F222C398A1
:10387300FD0FD5F0EA22C3E49FFFE49EFEE49DFD25
:10388300E49CFC22EB9FF5F0EA9E42F0E99D42F0B6
:10389300EC6480C864809845F02275F00875820056
:1038A300EF2FFFEE33FECD33CDCC33CCC58233C502
:1038B300829BED9AEC99E58298400CF582EE9BFE93
:1038C300ED9AFDEC99FC0FD5F0D6E4CEFBE4CDFAEE
:1038D300E4CCF9A88222B800C1B90059BA002DEC92
:1038E3008BF084CFCECDFCE5F0CBF97818EF2FFF2A
:1038F300EE33FEED33FDEC33FCEB33FB10D70399D2
:103903004004EB99FB0FD8E5E4F9FA227818EF2F7E
:10391300FFEE33FEED33FDEC33FCC933C910D7059D
:103923009BE99A4007EC9BFCE99AF90FD8E0E4C9BC
:10393300FAE4CCFB2275F010EF2FFFEE33FEED33EC
:10394300FDCC33CCC833C810D7079BEC9AE8994019
:103953000AED9BFDEC9AFCE899F80FD5F0DAE4CD7B
:10396300FBE4CCFAE4C8F9228E638F64E4F509E53D
:103973000864016003023AD4D3E564948AE563944E
:1039830001AC63AD645030E41237587BD77AA37926
:10399300B0783F12363DA804A905AA06AB07E4FF99
:1039A300FE7DA07C4312343F1237918E658F66757E
:1039B3000A01E4F5088026E41237587BD77AA37905
:1039C300B0783F12363DE4FBFA79A078C312344352
:1039D3001237918E658F66E4F50A75080185656770
:1039E300856668D3E5669428E56594004022E50A78
:1039F300701EE5662428FFE43565FE90004DE0FD6A
:103A03007C00123824C3E5689FF568E5679EF56777
:103A1300D3E56694B6E56594034023E50A701FE594
:103A230066244AFFE56534FCFE90004CE0FD7C0013
:103A3300123824C3E5689FF568E5679EF567D3E50B
:103A430066949EE56594074023E50A701FE56624A6
:103A530062FFE56534F8FE90004CE0FD7C0012380F
:103A630024C3E5689FF568E5679EF567D3E566942B
:103A730028E565940A4023E50A701FE56624D8FF0C
:103A8300E56534F5FE90004CE0FD7C00123824C35C
:103A9300E5689FF568E5679EF567D3E5669480E57D
:103AA30065940C5003023E03E50A6003023E03E5FE
:103AB300662480FFE56534F3FE90004CE0FD7C0056
:103AC300123824C3E5689FF568E5679EF567023EF3
:103AD30003AC63AD64E41237587BD77AA379B0782B
:103AE3003F12363DE4FBFA79A07843123443123790
:103AF300918E658F66856567856668C3E5669414F0
:103B0300E5659405401DE42566FFE56534FBFE90FD
:103B1300004EE0FD7C00123824EF2568F568EE3591
:103B230067F567C3E5669498E5659408401EE56606
:103B33002468FFE56534F7FE900050E0FD7C001239
:103B43003824EF2568F568EE3567F567C3E56694B5
:103B5300B2E565940C401EE566244EFFE56534F33B
:103B6300FE90004EE0FD7C00123824EF2568F568D6
:103B7300EE3567F567C3E5669404E5659410401E6A
:103B8300E56624FCFFE56534EFFE90004EE0FD7C26
:103B930000123824EF2568F568EE3567F567C3E54D
:103BA300669488E5659413401EE5662478FFE56511
:103BB30034ECFE900050E0FD7C00123824EF2568C1
:103BC300F568EE3567F567C3E56694A8E565941671
:103BD300401EE5662458FFE56534E9FE900050E099
:103BE300FD7C00123824EF2568F568EE3567F5672C
:103BF300C3E5659419401DE42566FFE56534E7FEDA
:103C030090004FE0FD7C00123824EF2568F568EE44
:103C13003567F567C3E56694A2E565941C401EE528
:103C230066245EFFE56534E3FE90004EE0FD7C0014
:103C3300123824EF2568F568EE3567F567C3E56646
:103C4300940EE565941F401EE56624F2FFE5653496
:103C5300E0FE90004EE0FD7C00123824EF2568F56D
:103C630068EE3567F567C3E56694FCE56594214026
:103C73001EE5662404FFE56534DEFE90004EE0FD9C
:103C83007C00123824EF2568F568EE3567F567C3C5
:103C9300E56694EAE5659424401EE5662416FFE58F
:103CA3006534DBFE90004FE0FD7C00123824EF25E5
:103CB30068F568EE3567F567C3E56694ACE565942A
:103CC30026401EE5662454FFE56534D9FE90005175
:103CD300E0FD7C00123824EF2568F568EE3567F5C2
:103CE30067C3E5669404E5659429401EE56624FCF4
:103CF300FFE56534D6FE900050E0FD7C00123824C9
:103D0300EF2568F568EE3567F567C3E56694F4E576
:103D1300659429401EE566240CFFE56534D6FE90C4
:103D23000051E0FD7C00123824EF2568F568EE357C
:103D330067F567C3E5669488E565942C401EE566E0
:103D43002478FFE56534D3FE90004FE0FD7C00123C
:103D53003824EF2568F568EE3567F567C3E56694A3
:103D630018E565942E401EE56624E8FFE56534D129
:103D7300FE900051E0FD7C00123824EF2568F568C1
:103D8300EE3567F567C3E56694DAE565942F401E63
:103D9300E5662426FFE56534D0FE900051E0FD7C06
:103DA30000123824EF2568F568EE3567F567C3E53B
:103DB3006694CEE5659431401EE5662432FFE565E1
:103DC30034CEFE90004CE0FD7C00123824EF2568D1
:103DD300F568EE3567F567C3E5669458E565943491
:103DE300401EE56624A8FFE56534CBFE90004CE059
:103DF300FD7C00123824EF2568F568EE3567F5671A
:103E0300AE67AF68228E678F68E4F509E508640141
:103E13007066D3E56894B5E5679403AC67AD685005
:103E230031E41237587BA47A70793D784012363DDD
:103E3300A804A905AA06AB07E4FFFE7DA07C4312F4
:103E4300343F1237918E698F6A750A01E4F50802CF
:103E5300429EE41237587BA47A70793D784012363B
:103E63003DE4FBFA79A078C31234431237918E698B
:103E73008F6AE4F50A02429EAC67AD68E4123758D4
:103E83007BA47A70793D784012363DE4FBFA79A041
:103E930078431234431237918E698F6AD3E568945D
:103EA3001AE5679404401FE5682418FFE56734FCAE
:103EB300FE900011E0FD7C00123824C3E56A9FF5F3
:103EC3006AE5699EF569D3E56894F1E5679409406D
:103ED3001FE568241EFFE56734F6FE900011E0FD40
:103EE3007C00123824C3E56A9FF56AE5699EF5698B
:103EF300D3E5689406E5679411401FE5682402FF43
:103F0300E56734EFFE900012E0FD7C00123824C315
:103F1300E56A9FF56AE5699EF569D3E5689446E528
:103F230067941E401EE42568FFE56734E2FE9000B7
:103F330013E0FD7C00123824C3E56A9FF56AE56946
:103F43009EF569D3E568949AE5679429401FE5686F
:103F53002452FFE56734D6FE900013E0FD7C001287
:103F63003824C3E56A9FF56AE5699EF569D3E56878
:103F730094F2E567942B401EE5682440FFE567341F
:103F8300D4FE900013E0FD7C00123824EF256AF57F
:103F93006AEE3569F569D3E5689448E567943A4074
:103FA3001FE5682462FFE56734C6FE900013E0FD59
:103FB3007C00123824C3E56A9FF56AE5699EF569BA
:103FC300D3E568943CE567943C401EE56824D8FF3C
:103FD300E56734C3FE900012E0FD7C00123824EF45
:103FE300256AF56AEE3569F569D3E56894D4E56722
:103FF3009444401FE5682440FFE56734BBFE90000E
:1040030014E0FD7C00123824C3E56A9FF56AE56974
:104013009EF569D3E56894BCE5679448401EE5685E
:104023002458FFE56734B7FE900012E0FD7C0012D0
:104033003824EF256AF56AEE3569F569D3E56894A6
:104043008CE5679450401FE5682488FFE56734AF2B
:10405300FE900013E0FD7C00123824C3E56A9FF54F
:104063006AE5699EF569D3E568945CE56794584011
:104073001EE56824B8FFE56734A7FE900012E0FD53
:104083007C00123824EF256AF56AEE3569F569D3A9
:10409300E5689438E567945E401FE56824DCFFE536
:1040A3006734A1FE900012E0FD7C00123824C3E5C2
:1040B3006A9FF56AE5699EF569D3E56894D0E5677B
:1040C3009466401EE5682444FFE5673499FE90003A
:1040D30014E0FD7C00123824EF256AF56AEE356999
:1040E300F569D3E5689454E567946A401FE568244D
:1040F30024FFE5673496FE900013E0FD7C00123840
:1041030024C3E56A9FF56AE5699EF569D3E568947A
:10411300B4E5679473401FE5682460FFE567348C5A
:10412300FE900013E0FD7C00123824C3E56A9FF57E
:104133006AE5699EF569D3E56894DCE567947D409B
:104143001FE5682438FFE5673482FE900013E0FD25
:104153007C00123824C3E56A9FF56AE5699EF56918
:10416300AE67AF68E4FCFD7BA07A87F9F8C3123829
:1041730087502CE5682474FFE5673478FEE434FF48
:10418300FDE434FFFCC007900012E0FBE4FAF8D032
:1041930007125C37C3E56A9FF56AE5699EF569AE68
:1041A30067AF68E4FCFD7BB47A8CF9F8C3123887F7
:1041B300502CE5682460FFE5673473FEE434FFFDAB
:1041C300E434FFFCC007900013E0FBE4FAF8D007E7
:1041D300125C37C3E56A9FF56AE5699EF569AE67C8
:1041E300AF68E4FCFD7BDC7A96F9F8C3123887509C
:1041F3002CE5682438FFE5673469FEE434FFFDE409
:1042030034FFFCC007900013E0FBE4FAF8D0071278
:104213005C37C3E56A9FF56AE5699EF569AE67AFEA
:1042230068E4FCFD7B8C7A9BF9F8C3123887502C29
:10423300E5682488FFE5673464FEE434FFFDE43475
:10424300FFFCC007900012E0FBE4FAF8D007125C11
:1042530037C3E56A9FF56AE5699EF569AE67AF689E
:10426300E4FCFD7B2C7AABF9F8C3123887502CE5BC
:104273006824E8FFE5673454FEE434FFFDE434FFCB
:10428300FCC007900011E0FBE4FAF8D007125C379A
:10429300C3E56A9FF56AE5699EF569AE69AF6A226F
:1042A3008E678F68E50864017049D3E5689468E513
:1042B3006794005034AC67AD68E41237587B487A92
:1042C300E1790A784012363DA804A905AA06AB078E
:1042D300E4FFFEFD7C4212343F1237918E698F6AF0
:1042E300750A01E4F5080245EDE4F50AF569F56A96
:1042F3000245EDAC67AD68E41237587BCD7ACC79D3
:104303004C784012363DE4FBFAF9784212344312FA
:104313003791AB07AA068A698B6AC3EB9432EA9496
:1043230000401DEB24CEFFEA34FFFE900031E0FD98
:104333007C00123824C3E56A9FF56AE5699EF56936
:10434300C3EB946DEA9400401DEB2493FFEA34FF22
:10435300FE900030E0FD7C00123824C3E56A9FF52F
:104363006AE5699EF569C3EB94AEEA9400401DEBE0
:104373002452FFEA34FFFE900032E0FD7C00123845
:1043830024C3E56A9FF56AE5699EF569C3EB94F872
:10439300EA9400401DEB2408FFEA34FFFE9000334B
:1043A300E0FD7C00123824C3E56A9FF56AE5699E47
:1043B300F569C3EB9471EA9401401DEB248FFFEA86
:1043C30034FEFE900034E0FD7C00123824C3E56A1D
:1043D3009FF56AE5699EF569C3EB94C8EA940140C9
:1043E3001DEB2438FFEA34FEFE900035E0FD7C002F
:1043F300123824C3E56A9FF56AE5699EF569C3EB44
:10440300944FEA9402401DEB24B1FFEA34FDFE9081
:104413000036E0FD7C00123824C3E56A9FF56AE5A7
:10442300699EF569C3EB941CEA9403401DEB24E4F5
:10443300FFEA34FCFE900036E0FD7C00123824C312
:10444300E56A9FF56AE5699EF569C3EB94F2EA9420
:1044530003401DEB240EFFEA34FCFE900038E0FD20
:104463007C00123824C3E56A9FF56AE5699EF56905
:10447300C3EB9426EA9405401DEB24DAFFEA34FAF1
:10448300FE900036E0FD7C00123824C3E56A9FF5F8
:104493006AE5699EF569C3EB9484EA9406401DEBD3
:1044A300247CFFEA34F9FE90003AE0FD7C001238E8
:1044B30024C3E56A9FF56AE5699EF569C3EB946DCC
:1044C300EA9408401DEB2493FFEA34F7FE9000388A
:1044D300E0FD7C00123824C3E56A9FF56AE5699E16
:1044E300F569C3EB946DEA9409401DEB2493FFEA4D
:1044F30034F6FE90003AE0FD7C00123824C3E56AEE
:104503009FF56AE5699EF569C3EB9441EA940B4014
:104513001DEB24BFFFEA34F4FE900039E0FD7C007C
:10452300123824C3E56A9FF56AE5699EF569C3EB12
:1045330094C9EA940C401DEB2437FFEA34F3FE9050
:10454300003DE0FD7C00123824C3E56A9FF56AE56F
:10455300699EF569C3EB9485EA940E401DEB247BB9
:10456300FFEA34F1FE90003EE0FD7C00123824C3E4
:10457300E56A9FF56AE5699EF569C3EB941CEA94C5
:1045830011401DEB24E4FFEA34EEFE90003EE0FD13
:104593007C00123824C3E56A9FF56AE5699EF569D4
:1045A300C3EB94D6EA9413401CEB242AFFEA34ECC1
:1045B300FE90003EE0FD7C00123824EF256AF56A88
:1045C300EE3569F569C3EB94B2EA9414401CEB240D
:1045D3004EFFEA34EBFE90003EE0FD7C00123824EF
:1045E300EF256AF56AEE3569F569AE69AF6A228E21
:1045F300678F68E50864017049D3E56A9467E569E4
:1046030094005034AC67AD68E41237587B487AE1C4
:10461300790A784012363DA804A905AA06AB07E437
:10462300FFFEFD7C4212343F1237918E698F6A750B
:104633000A01E4F50802493BE4F50AF569F56A0263
:10464300493BAC67AD68E41237587B717A3D794AD0
:10465300784012363DE4FBFAF978421234431237BC
:1046630091AB07AA068A698B6AC3EB9445EA940067
:10467300401DEB24C5FFEA34FFFE900021E0FD7CE2
:1046830000123824C3E56A9FF56AE5699EF569C39C
:10469300EB946DEA9400401DEB2493FFEA34FFFE94
:1046A300900022E0FD7C00123824C3E56A9FF56A7E
:1046B300E5699EF569C3EB9499EA9400401DEB24E8
:1046C30067FFEA34FFFE900023E0FD7C00123824EC
:1046D300C3E56A9FF56AE5699EF569C3EB94C7EA8A
:1046E3009400401DEB2439FFEA34FFFE900024E0E0
:1046F300FD7C00123824C3E56A9FF56AE5699EF5DF
:1047030069C3EB9411EA9401401DEB24F0FFEA34F2
:10471300FEFE900025E0FD7C00123824C3E56A9F6D
:10472300F56AE5699EF569C3EB947BEA9401401D44
:10473300EB2486FFEA34FEFE900023E0FD7C0012AA
:104743003824C3E56A9FF56AE5699EF569C3EA946F
:1047530002401DEB2401FFEA34FEFE900026E0FD3B
:104763007C00123824C3E56A9FF56AE5699EF56902
:10477300C3EB94A1EA9402401DEB2460FFEA34FDED
:10478300FE900027E0FD7C00123824C3E56A9FF504
:104793006AE5699EF569C3EB9460EA9403401DEBF7
:1047A30024A1FFEA34FCFE900028E0FD7C001238CF
:1047B30024C3E56A9FF56AE5699EF569C3EB944AEC
:1047C300EA9404401DEB24B7FFEA34FBFE90002972
:1047D300E0FD7C00123824C3E56A9FF56AE5699E13
:1047E300F569C3EB9462EA9405401DEB249FFFEA4D
:1047F30034FAFE90002AE0FD7C00123824C3E56AF7
:104803009FF56AE5699EF569C3EB94A9EA940640AE
:104813001DEB2458FFEA34F9FE90002BE0FD7C00E9
:10482300123824C3E56A9FF56AE5699EF569C3EB0F
:1048330094B0EA9407401DEB2451FFEA34F8FE904C
:10484300002DE0FD7C00123824C3E56A9FF56AE57C
:10485300699EF569C3EB94E6EA9408401DEB241BBB
:10486300FFEA34F7FE90002CE0FD7C00123824C3ED
:10487300E56A9FF56AE5699EF569C3EB9426EA94B8
:104883000A401DEB24DBFFEA34F5FE90002DE0FD2A
:104893007C00123824C3E56A9FF56AE5699EF569D1
:1048A300C3EB949BEA940B401DEB2466FFEA34F4BC
:1048B300FE90002EE0FD7C00123824C3E56A9FF5CC
:1048C3006AE5699EF569C3EB9448EA940D401DEBD4
:1048D300241DFFEA34F3FE90002EE0FD7C00123825
:1048E30024C3E56A9FF56AE5699EF569C3EB940302
:1048F300EA940F401DEB24FEFFEA34F0FE90002EF5
:10490300E0FD7C00123824C3E56A9FF56AE5699EE1
:10491300F569C3EB9456EA9411401DEB24ABFFEA0F
:1049230034EEFE90002FE0FD7C00123824C3E56ACC
:104933009FF56AE5699EF569AE69AF6A22125B115C
:10494300BF0106752C04024C807887E6700B124E6B
:10495300E38E658F66788776027880E66003024C83
:104963000F76101258E88E618F62E547B40124E593
:1049730050B4011FC3E5629529E561952840028083
:1049830047C3E5299562F562E5289561F561E4F58C
:10499300508053E547B40106E55070028009E547AE
:1049A3007013E550B4010EE5292562F562E528355B
:1049B30061F5618031E547702DE5507029C3E562EB
:1049C3009529E5619528400EE5629529F562E56133
:1049D3009528F5618010C3E5299562F562E5289570
:1049E30061F561755001E522AC54AD55AE61AF621E
:1049F300B40110123824C3E5629FF562E5619EF5A8
:104A030061800D123824EF2562F562EE3561F561A0
:104A1300E55BB4010674FFF561F562E5307047D3D9
:104A2300E5669524E5659523AF62AE6140191218DA
:104A33005FC3E5669524FDE5659523FCC3EF9DF50E
:104A430064EE9CF563801512185FC3E5249566CD6B
:104A5300E5239565CD2FF564ED3EF563E5576003DA
:104A6300024C0F024C04E53064017047D3E56695B0
:104A730024E5659523AF62AE614019123E08C3E594
:104A8300669524FDE5659523FCC3EF9DF564EE9CD7
:104A9300F5638015123E08C3E5249566CDE523959D
:104AA30065CD2FF564ED3EF563E5576003024C0FCA
:104AB300024C04E53064027047D3E5669524E5654E
:104AC3009523AF62AE614019122ECCC3E5669524DF
:104AD300FDE5659523FCC3EF9DF564EE9CF56380CE
:104AE30015122ECCC3E5249566CDE5239565CD2F10
:104AF300F564ED3EF563E5576003024C0F024C0489
:104B0300E53064037047D3E5669524E5659523AFE7
:104B130062AE614019120FFDC3E5669524FDE5659C
:104B23009523FCC3EF9DF564EE9CF5638015120F8E
:104B3300FDC3E5249566CDE5239565CD2FF564ED9D
:104B43003EF563E5576003024C0F024C04E5306405
:104B530004705D750901D3E5669524E5659523AF7A
:104B630062AE6140241245F2AA06AB07C3E566951F
:104B730024FFE5659523FE7C007D0A123824C3EBF0
:104B83009FF564EA9EF56380211245F2AA06AB07FE
:104B9300C3E5249566FFE5239565FE7C007D0A1237
:104BA3003824EB2FF564EA3EF563E557705E8051D8
:104BB300E53064057056750901D3E5669524E5650E
:104BC3009523AF62AE6140131242A3AA06AB07C39B
:104BD300E5669524FFE565952380111242A3AA0695
:104BE300AB07C3E5249566FFE5239565FE7C007D51
:104BF3000A123824C3EB9FF564EA9EF563E5577008
:104C03000BAF64AE6312582F8E638F647881E670A6
:104C130007125AA078817608787FE670267610AD61
:104C230066AC657F01122057D3E564954BE5639528
:104C33004A400EE5649549E56395485004D2B48033
:104C430002C2B47884E67018208407AF64AE63129E
:104C53005F10208507AF64AE63125E6178847610BF
:104C63007883E67018200109856499D20176018062
:104C73000AE563F599C2017883763BD299AE63AFB7
:104C83006422C28CAF89EF4401F589F589758CDC08
:104C9300E4F58AC28D75E50775E64675E6B9AFE2B8
:104CA300EF4408F5E2F5E275E50675E64675E6B903
:104CB300D28CA28DB340FBC28DC28C75E50775E61D
:104CC3004675E6B9AFE2EF4403F5E2F5E275E506B2
:104CD30075E64675E6B975E50775E64675E6B9AF57
:104CE300E2EF54FBF5E2F5E275E50675E64675E697
:104CF300B9125F38D296D2A2125F9F125EBF1261C1
:104D03002D12613D125FF912604CE4FFFE125E61E9
:104D1300126066E4FFFE125F10E4FF1260C3E4F565
:104D23003AFF125F5BEF644E70227F01125F5BBF3D
:104D3300451A7F02125F5BBF57127F03125F5BBF8F
:104D43005A0A7F04125F5BEF64A560297D4EE4FF7E
:104D5300125FBD7D457F01125FBD7D577F02125FEC
:104D6300BD7D5A7F03125FBD7DA57F04125FBD1217
:104D73005BE21255CD1260667F12125F5B8F397F43
:104D830013125F5B8F577F14125F5B8F307F161296
:104D930060158E288F297F181260158E5C8F5D7FBA
:104DA3001A1260158E4C8F4D7F1C1260158E458F25
:104DB300467F1E1260158E3C8F3D7F201260158E3C
:104DC300358F367F221260158E318F327F24126029
:104DD300158E2A8F2B7F261260158E4A8F4B7F28C4
:104DE3001260158E488F497F2A125F5B8F517F2B8C
:104DF300125F5B8F5E7F2C125F5B8F587F2E125F7B
:104E03005B8F597F2F125F5B8F5A7F30125F5B8FEF
:104E1300537F32125F5B8F447F341260158E548F41
:104E2300557F361260158E3E8F3F7F381260158E88
:104E33002E8F2F7F3A1260158E258F267F3C1260AE
:104E4300158E238F247F40125F5B8F41E42551F53C
:104E530038E43420F537125BE2D2A9D28CD2ABD23C
:104E63008ED2AF753B01125A20E5397007E5443005
:104E7300E0278022E539B40107E54430E11B8016C1
:104E8300E539B40207E54430E20F800AE539B4039B
:104E930008E54430E303754701E52C1460261460EC
:104EA3002814602A14602C146031240570EBE53952
:104EB300700DE54430E4057522018003E4F5221208
:104EC300494080D512538980D01250BD80CB1252F5
:104ED3002380C675340112002680BE1254EB80B9BC
:104EE30030A5030250B820A505E4FAFB80F830A5ED
:104EF300070BBB00010A80F67C007D0CAF03AE02FA
:104F0300123824EF2474FBEE34F6FAD3EB9464EAFC
:104F1300940050030250B8EB249CFFEA34FFFE7C5C
:104F2300007D0C123824C3EB9FFBEA9EFAD3EB946B
:104F3300C9EA940050030250B8EB2442FFEA34FF5D
:104F4300FE7C007D0C123824C3EB9FFBEA9EFAD350
:104F5300EB942DEA940150030250B8EB24DEFFEAF0
:104F630034FEFE7C007D0C123824C3EB9FFBEA9ECB
:104F7300FAD3EB94D7EA940150030250B8EB242AF6
:104F8300FFEA34FEFE7C007D0E123824C3EB9FFB48
:104F9300EA9EFAD3EB9403EA940350030250B8EB6E
:104FA3002408FFEA34FDC4F854F0C868FEEFC45483
:104FB3000F482BFBEE3AFAD3EB94C1EA9403500368
:104FC3000250B8EB2454FFEA34FCFE7C007D0E1241
:104FD3003824EF2BFBEE3AFAD3EB9443EA940450D4
:104FE300030250B8EB24DCFFEA34FBFE7C007D0BAC
:104FF300123824EF2BFBEE3AFAD3EB94A7EA94048E
:1050030050030250B8EB246EFFEA34FBFE7C007DB4
:105013000E123824EF2BFBEE3AFAD3EB9409EA9401
:105023000550030250B8EB2414FFEA34FBFEEF787B
:1050330003CEC313CE13D8F92BFBEE3AFAD3EB947A
:1050430075EA9405406FEB249CFFEA34FAFE7C007A
:105053007D0A123824EF2BFBEE3AFAD3EB94D1EA14
:1050630094054051EB2442FFEA34FAFE7C007D0AAA
:10507300123824EF2BFBEE3AFAD3EB9426EA94068C
:105083004033EB24E8FFEA34F9FE7C007D06123856
:1050930024EF2BFBEE3AFAD3EB94B6EA94064015D1
:1050A300EB2470FFEA34F9FE7C007D0C123824EF08
:1050B3002BFBEE3AFAAF03AE0222125B11BF0106DD
:1050C300752C0402521E7880E660030251AB761001
:1050D3001258E88E618F62E547B40124E550B401AC
:1050E3001FD3E562953DE561953C40028047C3E5EA
:1050F3003D9562F562E53C9561F561E4F5508053B9
:10510300E547B40106E55070028009E5477013E5F1
:1051130050B4010EE53D2562F562E53C3561F5616C
:105123008031E547702DE5507029C3E562953DE573
:1051330061953C400EE562953DF562E561953CF570
:10514300618010C3E53D9562F562E53C9561F561CB
:10515300755001D3E5369480E535940CAC2EAD2F14
:10516300AE61AF62400F123824EF2562F562EE356F
:1051730061F561800E123824C3E5629FF562E56133
:105183009EF561AC61AD62E41237587BCD7ACC7980
:105193004C784012363D1237918E618F62E55BB4D5
:1051A300010674FFF561F562787FE67028AD62ACA5
:1051B300617F01122057787F7608D3E562954BE52E
:1051C30061954A400EE5629549E56195485004D2E0
:1051D300B48002C2B47884E67018208407AF62AE4C
:1051E30061125F10208507AF62AE61125E61788441
:1051F30076027881E67007125AA078817608788360
:10520300E67018200109856299D2017601800AE5CA
:1052130061F599C2017883763BD299AE61AF622280
:10522300125B11BF0106752C040253847880E6607B
:105233000302531176101258E88E618F62E547B46A
:105243000124E550B4011FC3E5629532E561953150
:1052530040028047C3E5329562F562E5319561F519
:1052630061E4F5508053E547B40106E550700280D0
:1052730009E5477013E550B4010EE5322562F56286
:10528300E5313561F5618031E547702DE5507029D1
:10529300C3E5629532E5619531400EE5629532F5DD
:1052A30062E5619531F5618010C3E5329562F5627F
:1052B300E5319561F561755001D3E52B9400E52A3D
:1052C3009419AC25AD26AE61AF62400F123824EFBE
:1052D3002562F562EE3561F561800E123824C3E56F
:1052E300629FF562E5619EF561AC61AD62E41237E0
:1052F300587BCD7ACC794C784012363D1237918E5B
:10530300618F62E55BB4010674FFF561F562787F36
:10531300E67028AD62AC617F01122057787F76106A
:10532300D3E562954BE561954A400EE5629549E503
:105333006195485004D2B48002C2B47884E67018F0
:10534300208407AF62AE61125F10208507AF62AEA3
:1053530061125E61788476027881E67007125AA042
:10536300788176087883E67018200109856299D2DE
:10537300017601800AE561F599C2017883763BD213
:1053830099AE61AF6222125B11BF0106752C040254
:1053930054E67880E6600302547376101258E88E60
:1053A300618F62E547B40124E550B4011FC3E56290
:1053B300954DE561954C40028047C3E54D9562F5F7
:1053C30062E54C9561F561E4F5508053E547B4011E
:1053D30006E55070028009E5477013E550B4010EED
:1053E300E54D2562F562E54C3561F5618031E547B0
:1053F300702DE5507029C3E562954DE561954C40EC
:105403000EE562954DF562E561954CF5618010C33B
:10541300E54D9562F562E54C9561F561755001D3F3
:10542300E54694E4E5459444AC3EAD3FAE61AF62DE
:10543300400F123824EF2562F562EE3561F5618085
:105443000E123824C3E5629FF562E5619EF561E5BE
:105453005BB4010674FFF561F562AF62AE611239A8
:105463006B8E618F62E557700712582F8E618F62C2
:10547300787FE67028AD62AC617F01122057787F98
:105483007610D3E562954BE561954A400EE562954A
:1054930049E56195485004D2B48002C2B47884E6E9
:1054A3007018208407AF62AE61125F10208507AFCA
:1054B30062AE61125E61788476027881E6700712CB
:1054C3005AA0788176087883E670182001098562EE
:1054D30099D2017601800AE561F599C20178837654
:1054E3003BD299AE61AF62221255CD1260667F1234
:1054F300125F5B8F397F13125F5B8F577F14125FCD
:105503005B8F307F161260158E288F297F181260EB
:10551300158E5C8F5D7F1A1260158E4C8F4D7F1C2C
:105523001260158E458F467F221260158E318F32A1
:105533007F241260158E2A8F2B7F1E1260158E3CDE
:105543008F3D7F201260158E358F367F26126015B2
:105553008E4A8F4B7F281260158E488F497F2A12FF
:1055630060158F517F2B125F5B8F5E7F2C125F5B09
:105573008F587F2D125F5B8F4F7F2E125F5B8F598A
:105583007F2F125F5B8F5A7F30125F5B8F537F32A7
:10559300125F5B8F447F341260158E548F557F36B4
:1055A3001260158E3E8F3F7F381260158E2E8F2F1F
:1055B3007F3A1260158E258F267F3C1260158E234D
:1055C3008F247F40125F5B8F4122125A20AD397FB7
:1055D30012125FBDE4FD7F13125FBDE4FD7F141261
:1055E3005FBDE4FDFC7F1612610B7D787C057F189F
:1055F30012610BE4FDFC7F1A12610B7D527C037F69
:105603001C12610BE4FDFC7F1E12610B7D887C1371
:105613007F2012610B7D287C007F2212610B7DC8E5
:105623007C007F2412610BE4FDFC7F2612610B7D5D
:10563300887C137F2812610B7D157F2A125FBD7D45
:10564300017F2B125FBD7D017F2C125FBD7D047F27
:105653002D125FBD7D127F2E125FBD7D017F2F1244
:105663005FBD7D017F30125FBDE4FD7F32125FBD00
:105673007D017C007F3412610B7D017C007F36123B
:10568300610B7D017C007F3812610B7D017C007F03
:105693003A12610BE4FDFC7F3C12610B7D407C0000
:1056A3007F4012610B025BE2A9057D01AA7EED64D6
:1056B300017069C291FEC292C290E4FC1261CBD226
:1056C300921261CBC2920CBC08F20EBE02E8E4FE59
:1056D300C292C290E4FCEA30E702D2901261CBD2CC
:1056E300921261CBC292C290EA25E0FA0CBC08E6A2
:1056F300EE7004AA7D801ABE0104AA7C8013BE0248
:1057030004AA7B800CBE0304AA038005BE0402AA7C
:10571300010EBE06BBD2911261CBC291ED64027041
:105723004DC295FEC294E4FCEA30E702D2931261C3
:10573300CBD2941261CBC294C293EA25E0FA0CBC9B
:1057430008E6EE7004AA7D801ABE0104AA7C8013C9
:10575300BE0204AA7B800CBE0304AA038005BE0418
:1057630002AA010EBE06BDD2951261CBC2952201DB
:105773004300014E00015B00097F101004023B024D
:10578300141E0202540000023E0000022E0000021A
:1057930025000002230000015114015E010158019C
:1057A300014F03015912015A010153010152000132
:1057B3003401013A00C102C101C10301080001091A
:1057C30000010A004B001500243038404C5868781B
:1057D300C8FA49000C002028303470A0C8FF4A00E2
:1057E3004007080A101820303840484C00000010C9
:1057F3002028303840606C80B4E1500020000A0E4D
:105803001314161B23262A343C4046506A5000309A
:105813000A0D10121C20283437393B40425A84FAAF
:1058230048004A002C2E32363A3E4D008E678F6870
:10583300E509703FC3E5689440E5679401401AE5C4
:1058430050700BE56824C0FDE56734FE8047E568CA
:105853002440FDE5673401803CE550B4010BE56865
:105863002440FDE5673401803BC374409568FD74B3
:10587300018051C3E5689420E56794004019E55021
:10588300700BE56824E0FDE56734FF8008E56824D4
:1058930020FDE43567800DE550B40121E56824203F
:1058A300FDE43567FCE41237587B667A6679E6785F
:1058B3003F12363D1237918E698F6A8023C374205D
:1058C3009568FDE49567FCE41237587B667A667940
:1058D300E6783F12363D1237918E698F6A75500113
:1058E300AE69AF6A22126080EF600302598F532DB5
:1058F30003E52DC39402404B755001E52D54037508
:105903006C00F56D756D00F56CE521256DF56DE4A5
:10591300356CF56CE56DAE6C7807C333CE33CED8FA
:10592300F9F56D8E6CE533C313F533256DF56DE431
:10593300356CF56C636DFF636CFFC3E56C94F040ED
:10594300488041E4F550E52D5403756C00F56D7501
:105953006D00F56CE521256DF56DE4356CF56CE5B1
:105963006DAE6C7807C333CE33CED8F9F56D8E6C3C
:10597300E533C313F533256DF56DE4356CF56CC371
:1059830094F04005755B018003E4F55BAE6CAF6D8D
:1059930022787FE4F6D8FD75819E0259DB024C859F
:1059A300E493A3F8E493A34003F68001F208DFF441
:1059B3008029E493A3F85407240CC8C333C4540FB9
:1059C3004420C8834004F456800146F6DFE4800B8C
:1059D3000102040810204080905772E47E01936016
:1059E300BCA3FF543F30E509541FFEE493A36001B9
:1059F3000ECF54C025E060A840B8E493A3FAE49323
:105A0300A3F8E493A3C8C582C8CAC583CAF0A3C8D0
:105A1300C582C8CAC583CADFE9DEE780BE20801C11
:105A2300E4F539F52C754201208403754211208574
:105A330003754221E54464017062805D20811D7518
:105A43003901752C017542022084037542122085A9
:105A530003754222E54464027042803D20821D7535
:105A63003902752C02754204208403754214208583
:105A730003754224E54464047022801D20831D7550
:105A83003903752C03754208208403754218208559
:105A930003754228E544B4080375470122E4FF1265
:105AA3005F7DEF547FF5537F01125F7D8F5A7F0235
:105AB300125F7D8F597F03125F7DEF5407F54F7F90
:105AC30004125F7D8F587F05125F7D8F5E7F061204
:105AD3005F7D8F51E55E540364017031AD517F2AC0
