:0700000002686B02000632EA
:10000B00026E06127108C2A212710FC29602710F14
:03001B000269EA8D
:10002300026ED2E4F55D755E05F55FF560F561F589
:100033006285616BF56AF569F568FF021742E52E83
:1000430070030217481267C18F5DE55D5460FFBFFF
:100053006005E4F52E80E7E55D5481FFBF811175EE
:100063006301E561700575610180087561028003B4
:10007300E4F563E55D5482FFBF8205756401800387
:10008300E4F564E55D548464847034E561C39401EC
:100093004005756501802BE560B4010EE55FC394EF
:1000A3001F4005755F018002055FE560B40213E53B
:1000B3005FC3941F4005755F0A8007055F8003E4F3
:1000C300F565E55D5488FFBF88057566018003E427
:1000D300F566E565640160030202A7E55E70317BA6
:1000E3000AFAF9F8AF37AE36AD35AC341248B2ACD4
:1000F30000AD01AE02AF03E47B09FAF9F8C312497C
:10010300687006E53724F7803EE537240102019D38
:10011300E55E640170407B64FAF9F8AF37AE36AD43
:1001230035AC341248B2AC00AD01AE02AF03E47B90
:100133000AFAF9F81248B2E47B09FAF9F8C312494A
:1001430068700DE53724A6F537E53634FF0201E480
:10015300E537240A8044E55E640270467BE87A034F
:10016300F9F8AF37AE36AD35AC341248B2AC00ADAA
:1001730001AE02AF03E47B64FAF9F81248B2E47B00
:1001830009FAF9F8C3124968700CE537247CF5378E
:10019300E53634FC804BE5372464F537E435360225
:1001A300024BE55E6403704E7B107A27F9F8AF3794
:1001B300AE36AD35AC341248B2AC00AD01AE02AFD1
:1001C30003E47BE87A03F9F81248B2E47B09FAF90D
:1001D300F8C31249687013E53724D8F537E5363488
:1001E300DCF536E53534FF020286E53724E8F537DA
:1001F300E53634038052E55E640470537BA07A864F
:100203007901F8AF37AE36AD35AC341248B2AC0035
:10021300AD01AE02AF03E47B107A27F9F81248B2BE
:10022300E47B09FAF9F8C31249687012E5372470C0
:10023300F537E53634A0F536E53534FE8045E53748
:100243002410F537E5363427F536E43535804EE5A9
:100253005EB405507BA07A8679017800AF37AE365D
:10026300AD35AC341248B2E47B09FAF9F8C312494C
:1002730068701AE5372460F537E5363444F536E51A
:100283003534F2F535E53434FFF5348017E537249A
:10029300A0F537E5363486F536E5353401F535E432
:1002A3003534F534E55F6003020332E564B4010CD1
:1002B300155EE55EC394064003755E05E561B40112
:1002C3001385376B85366A8535698534687F0412F3
:1002D300174B805BE561640270557F3F7E427D0F63
:1002E300FCAB37AA36A935A834C3124968700A751E
:1002F3005F01F561756001801E7F387E907D0D7C06
:1003030000AB37AA36A935A834C3124968701275F1
:100313005F05756002F561F537F536F535F534801F
:1003230007E4F55FF561F52EAD4F7F3C126F1AE5DB
:1003330031700CE55F64036040E55F6404603AE597
:1003430031B4010CE55F6403602FE55F6404602949
:10035300E531B4020CE55F6401601EE55F64026091
:1003630018E53164036003020421E55F6401600959
:10037300E55F640260030204217884E660030204FB
:100383000D760412671578CBE6FD25E024ABF8A6BD
:100393000608A607EDC3940C500578CB06807F783A
:1003A300C1E6FE08E6FF7C007D05124821AA06ABE4
:1003B3000778C3E6FE08E6FF7C007D05124821EFBF
:1003C3002BFBEE3AFA78BFE6FE08E6FF7C007D05DC
:1003D300124821EF2BFBEE3AFA78BDE6FE08E6FF62
:1003E3007C007D05124821EF2BFBEE3AFA78BBE641
:1003F300FE08E6FF7C007D05124821EF2B78C8F646
:10040300EE3A18F678CB7608801478CBE625E0240C
:10041300ABF8E6FE08E6FF78C7A60608A607E531AF
:100423006003020663E55F64017030F55E7F02FEE0
:10043300FDFCAB37AA36A935A834C3124968400975
:10044300E4F537F536F535F534E561B40103020615
:10045300DAE561B402030206AB8042E55F64027031
:100463004BF55E7F06FEFDFCAB37AA36A935A834F3
:10047300C31249684009E4F537F536F535F534E537
:1004830061B4011185376B85366A853569853468B2
:100493007F03020AB2E561B402030206F0E4855F5A
:1004A3006BF56AF569F5687F01020AB2E55F6403DB
:1004B3006003020585E561B4011578C7E6FE08E629
:1004C300FFE48F6B8E6AF569F5687F06020AB2E571
:1004D3006164026003020576F56178CE7603854E8A
:1004E30025854F26AE4EAF4FFC7D0D12480F7D0A7A
:1004F30012482178C7E6FC08E6FDC39FEC9E402323
:10050300E511B40111C3ED9FF528EC9EF52775465F
:1005130001434501804D78C7E6FC08E62FF528EE38
:100523003C8038E511AE4EAF4F7C007D0DB4011811
:1005330012480F7D0A12482178C7E6FC08E6FDC37E
:10054300EF9DF528EE9C801312480F7D0A12482177
:1005530078C7E6FC08E62FF528EE3CF527E4F546D8
:100563005345FEAD457F36126F1AAD28AC277F0881
:10057300020AA1E4855F6BF56AF569F5687F0102FC
:100583000AB2E55F64046003020AB5E561B40115CC
:1005930078C7E6FE08E6FFE48F6B8E6AF569F568B7
:1005A3007F06020AB2E56164026003020654F56144
:1005B300E546AE4EAF4F7C007D0DB4011412480FDB
:1005C3007D0A12482178C8E62528FD18E6352780DC
:1005D3001312480F7D0A124821C378C8E69528FDF7
:1005E30018E69527CD2FF522ED3EF521AD22AC215E
:1005F3007F0A127099C3E52294CAE52194C840206A
:10060300E5229528FFE5219527FEE5222436FDE521
:10061300213437FC1248218E578F584345108020D0
:10062300C3E5229528FFE5219527FEC374CA9522C9
:10063300FD74C89521FC1248218E578F585345EFFE
:10064300AD58AC577F0C127099126FF3AD4502078A
:1006530064E4855F6BF56AF569F5687F01020AB2A8
:10066300E5316401600302083EE55F64017052F501
:100673005E7F01FEFDFCAB37AA36A935A834C31251
:1006830049684009E4F537F536F535F534E561B4E5
:10069300011185376B85366A8535698534687F0135
:1006A300020AB2E561B4020AE4F561AD377F0602DE
:1006B30009DBE4855F6BF56AF569F5687F01020A7A
:1006C300B2E55F6402703FF55E753707F536F535C1
:1006D300F534E561B4011185376B85366A85356973
:1006E3008534687F02020AB2E561B4020AE4F56167
:1006F300AD377F070209DBE4855F6BF56AF569F5C2
:10070300687F01020AB2E55F64037069F55EE56123
:10071300B40122E511B401057546018003E4F546F1
:1007230078C7E6FE08E6FFE48F6B8E6AF569F56825
:100733007F06020AB2E5616402702BF56178C7E6B1
:10074300F52708E6F528FDAC277F08127099126F8C
:10075300F3E546B40106E54544028004E54554FD4E
:10076300FD7F360209DBE4855F6BF56AF569F568A1
:100773007F01020AB2E55F64046003020AB5F55E15
:10078300E561B4011578C7E6FE08E6FFE48F6B8EDA
:100793006AF569F5687F06020AB2E56164026003DF
:1007A30002082FF56178C7E6F52108E6F522FDACCE
:1007B300217F0A127099E546B40130E5222528FF0E
:1007C300E5213527FED3EF94E4EE94444009EF246A
:1007D3001CFDEE34BB8044E5222528FFE5213527A7
:1007E300FEC374E49FFD74449E8030C3E5229528C4
:1007F300FFE5219527FED3EF94E4EE94444009EFFF
:10080300241CFDEE34BB8013C3E5229528FFE521AC
:100813009527FEC374E49FFD74449EFC1248218E09
:10082300578F58AD58AC577F0C020AA1E4855F6B14
:10083300F56AF569F5687F01020AB2E53164026081
:1008430003020977E55F64017067E561B40122E59E
:1008530011B401057546018003E4F54678C7E6FE49
:1008630008E6FFE48F6B8E6AF569F5687F06020A76
:10087300B2E5616402702BF56178C7E6F52708E6F7
:10088300F528FDAC277F08127099126FF3E546B483
:100893000106E54544048004E54554FBFD7F36022B
:1008A30009DBE4855F6BF56AF569F5687F01020A88
:1008B300B2E55F64026003020AB5E561B40115782D
:1008C300C7E6FE08E6FFE48F6B8E6AF569F5687F7D
:1008D30006020AB2E56164026003020968F5617504
:1008E3005F0478C7E6F52108E6F522FDAC217F0A0F
:1008F300127099E546B4012EE5222528FFE521353E
:1009030027FED3EF9400EE947D4008E42FFDEE34F0
:10091300838041E5222528FFE5213527FEC3E49F97
:10092300FD747D9E802EC3E5229528FFE521952742
:10093300FED3EF9400EE947D4008E42FFDEE348364
:100943008012C3E5229528FFE5219527FEC3E49F86
:10095300FD747D9EFC1248218E578F58AD58AC57BD
:100963007F0C020AA1E4855F6BF56AF569F5687F80
:1009730001020AB2E53164036003020AB5E55F646C
:1009830001706AE561B40122E511B4010575460100
:100993008003E4F54678C7E6FE08E6FFE48F6B8E36
:1009A3006AF569F5687F06020AB2E5616402702E92
:1009B300F56178C7E6F52708E6F528FDAC277F083B
:1009C300127099126FF3E546B40106E545440880B9
:1009D30004E54554F7FD7F36126F1A020AB5E48524
:1009E3005F6BF56AF569F5687F01020AB2E55F643A
:1009F300026003020AB5E561B4011578C7E6FE0893
:100A0300E6FFE48F6B8E6AF569F5687F06020AB22A
:100A1300E56164026003020AA6F561755F0478C7A5
:100A2300E6F52108E6F522FDAC217F0A127099E56F
:100A330046B4012EE5222528FFE5213527FED3EF15
:100A43009400EE94194008E42FFDEE34E78041E56D
:100A5300222528FFE5213527FEC3E49FFD74199E57
:100A6300802EC3E5229528FFE5219527FED3EF9439
:100A730000EE94194008E42FFDEE34E78012C3E53D
:100A8300229528FFE5219527FEC3E49FFD74199E57
:100A9300FC1248218E578F58AD58AC577F0C1270FB
:100AA30099800FE4855F6BF56AF569F5687F01123C
:100AB300174BE55F64057074E564B4010C155EE5DE
:100AC3005EC394024003755E01E561640170387F83
:100AD30063FEFDFCAB37AA36A935A834D3124968A7
:100AE300500585374D8009E4F537F536F535F5348E
:100AF300E54D24D0FFE43407FEE48F6B8E6AF5697D
:100B0300F5687F06021742E561B40211E4F561ADB1
:100B13004D7F06126F9DAD4D7F0E021730E4855F4A
:100B23006BF56AF569F5687F01021742E55F6406B4
:100B33007068F55EE5616401703B7F01FEFDFCAB0F
:100B430037AA36A935A834C3124968400B055AE4BD
:100B5300F537F536F535F534E55AD3940C5004E5FD
:100B63005A7003755A01E4855A6BF56AF569F5689D
:100B73007F06021742E561B40211E4F561AD5A7FC5
:100B830005126F9DAD5A7F0F021730E4855F6BF539
:100B93006AF569F5687F01021742E55F6407600340
:100BA300020C91F55EE56164016003020C6C7F0148
:100BB300FEFDFCAB37AA36A935A834C312496840F9
:100BC3000B0554E4F537F536F535F534E55AB4023B
:100BD3000FE54D54037009E554D3941D4002801270
:100BE300E55AB40219E54D54036013E554D3941C3C
:100BF300400C755401E4F537F536F535F534E55A0F
:100C030064016023E55A6403601DE55A64056017B7
:100C1300E55A64076011E55A6408600BE55A640AF3
:100C23006005E55AB40C09E554D3941F4002801EB5
:100C3300E55A64046011E55A6406600BE55A6409D9
:100C43006005E55AB41113E554D3941E400C755452
:100C530001E4F537F536F535F534E485546BF56A7B
:100C6300F569F5687F06021742E561B40211E4F500
:100C730061AD547F04126F9DAD547F10021730E4B1
:100C8300855F6BF56AF569F5687F01021742E55FD9
:100C93006408706CF55EE5616401703F7F01FEFDE1
:100CA300FCAB37AA36A935A834C3124968400B05F3
:100CB30055E4F537F536F535F534E555D394174056
:100CC3000BE4F555F537F536F535F534E485556B15
:100CD300F56AF569F5687F06021742E561B402110A
:100CE300E4F561AD557F02126F9DAD557F1102177B
:100CF30030E4855F6BF56AF569F5687F0102174299
:100D0300E55F6409706CF55EE5616401703F7F0126
:100D1300FEFDFCAB37AA36A935A834C31249684097
:100D23000B0556E4F537F536F535F534E556D3942A
:100D33003B400BE4F556F537F536F535F534E485E8
:100D4300566BF56AF569F5687F06021742E561B4EB
:100D53000211E4F561AD567F01126F9DAD567F120E
:100D6300021730E4855F6BF56AF569F5687F010268
:100D73001742E55F640A7071E564B4010C155EE522
:100D83005EC394054003755E04E561B4012FE47FFF
:100D9300FF7EFFFDFCAB37AA36A935A834D3124931
:100DA300684009E4F537F536F535F53485376B8555
:100DB300366A8535698534687F06021742E561B472
:100DC300020CE4F561AC36AD377F14020EBBE4854B
:100DD3005F6BF56AF569F5687F0112174BE5626091
:100DE300030200417F14020F5DE55F640B7070E541
:100DF30064B4010C155EE55EC394054003755E049F
:100E0300E561B4012FE47FFF7EFFFDFCAB37AA361B
:100E1300A935A834D31249684009E4F537F536F506
:100E230035F53485376B85366A8535698534687F52
:100E330006021742E561B4020BE4F561AC36AD3747
:100E43007F168074E4855F6BF56AF569F5687F0149
:100E530012174BE56260030200417F16020F5DE546
:100E63005F640C707EE564B4010C155EE55EC394AB
:100E7300054003755E04E561B4012FE47FFF7EFF47
:100E8300FDFCAB37AA36A935A834D312496840090B
:100E9300E4F537F536F535F53485376B85366A85F0
:100EA30035698534687F06021742E561B4021AE4A6
:100EB300F561AC36AD377F18127099E4F562F537FA
:100EC300F536F535F534020041E4855F6BF56AF5D7
:100ED30069F5687F0112174BE56260030200417FE9
:100EE300188077E55F640D6003020F6FE564B4015A
:100EF3000C155EE55EC394054003755E04E561B4BD
:100F0300012FE47FFF7EFFFDFCAB37AA36A935A88E
:100F130034D31249684009E4F537F536F535F5342D
:100F230085376B85366A8535698534687F06021790
:100F330042E561B4020CE4F561AC36AD377F1A02C9
:100F43001557E4855F6BF56AF569F5687F0112173C
:100F53004BE56260030200417F1A126FD7E48F37BB
:100F63008E36F535F534756201020041E55F640E96
:100F73007065E564B4010C155EE55EC3940540033A
:100F8300755E04E561B4012FE47FFF7EFFFDFCABDA
:100F930037AA36A935A834D31249684009E4F5378E
:100FA300F536F535F53485376B85366A85356985CC
:100FB30034687F06021742E561B4020CE4F561ACC4
:100FC30036AD377F1C021557E4855F6BF56AF5690B
:100FD300F5687F01021742E55F640F7065E564B44D
:100FE300010C155EE55EC394054003755E04E5617F
:100FF300B4012FE47FFF7EFFFDFCAB37AA36A93592
:10100300A834D31249684009E4F537F536F535F5C8
:101013003485376B85366A8535698534687F060282
:101023001742E561B4020CE4F561AC36AD377F1EBF
:10103300021557E4855F6BF56AF569F5687F010270
:101043001742E55F64107065E564B4010C155EE555
:101053005EC394054003755E04E561B4012FE47F2C
:10106300FF7EFFFDFCAB37AA36A935A834D312495E
:10107300684009E4F537F536F535F53485376B8582
:10108300366A8535698534687F06021742E561B49F
:10109300020CE4F561AC36AD377F20021557E485C9
:1010A3005F6BF56AF569F5687F01021742E55F64D6
:1010B300117065E564B4010C155EE55EC3940540EB
:1010C30003755E04E561B4012FE47FFF7EFFFDFC41
:1010D300AB37AA36A935A834D31249684009E4F5D9
:1010E30037F536F535F53485376B85366A853569D9
:1010F3008534687F06021742E561B4020CE4F561AA
:10110300AC36AD377F22021557E4855F6BF56AF580
:1011130069F5687F01021742E55F64127053F55E5B
:10112300E561B4012EE47F05FEFDFCAB37AA36A9C9
:1011330035A834C31249684009E4F537F536F53567
:10114300F53485376B85366A8535698534687F065E
:10115300021742E561B4020AE4F561AD377F240268
:101163001730E4855F6BF56AF569F5687F0102174F
:1011730042E55F64137053F55EE561B4012EE47FCD
:1011830009FEFDFCAB37AA36A935A834D31249684A
:101193004009E4F537F536F535F53485376B853693
:1011A3006A8535698534687F06021742E561B402B2
:1011B3000AE4F561AD377F25021730E4855F6BF5EF
:1011C3006AF569F5687F01021742E55F641470658B
:1011D300E564B4010C155EE55EC394054003755EDA
:1011E30004E561B4012FE47FFF7EFFFDFCAB37AA6A
:1011F30036A935A834D31249684009E4F537F536E2
:10120300F535F53485376B85366A853569853468F8
:101213007F06021742E561B4020CE4F561AC36AD1A
:10122300377F26021557E4855F6BF56AF569F56824
:101233007F01021742E55F64156003021320F55E28
:10124300E561640160030213027F05FEFDFCAB3719
:10125300AA36A935A834C31249684009E4F537F51D
:1012630036F535F534E4FFFEFDFCAB37AA36A93578
:10127300A834C31249687007787D76040876B0E411
:101283007F01FEFDFCAB37AA36A935A834C312494A
:10129300687007787D7609087660E47F02FEFDFCBE
:1012A300AB37AA36A935A834C31249687007787DCD
:1012B30076120876C0E47F03FEFDFCAB37AA36A99D
:1012C30035A834C31249687007787D76250876807F
:1012D300E47F04FEFDFCAB37AA36A935A834C3125C
:1012E30049687006787D764B08F6787DE6FE08E659
:1012F300FFE48F6B8E6AF569F5687F06021742E596
:1013030061B4020AE4F561AD377F28021730E48542
:101313005F6BF56AF569F5687F01021742E55F6463
:10132300167062E564B4010C155EE55EC394024079
:1013330003755E01E561B4012EE47F63FEFDFCAB42
:1013430037AA36A935A834D31249684009E4F537DA
:10135300F536F535F53485376B85366A8535698518
:1013630034687F06021742E561B4020AE4F561AD11
:10137300377F29021730E4855F6BF56AF569F568F5
:101383007F01021742E55F64177065E564B4010CE1
:10139300155EE55EC394054003755E04E561B40123
:1013A3002FE47FFF7EFFFDFCAB37AA36A935A834B7
:1013B300D31249684009E4F537F536F535F5348538
:1013C300376B85366A8535698534687F060217422F
:1013D300E561B4020CE4F561AC36AD377F2A021542
:1013E30057E4855F6BF56AF569F5687F010217427B
:1013F300E55F64187053F55EE561B4012EE47F097F
:10140300FEFDFCAB37AA36A935A834D31249684090
:1014130009E4F537F536F535F53485376B85366AE6
:101423008535698534687F06021742E561B4020A8F
:10143300E4F561AD377F2C021730E4855F6BF56A05
:10144300F569F5687F01021742E55F64197053F58A
:101453005EE561B4012EE47F09FEFDFCAB37AA36DD
:10146300A935A834D31249684009E4F537F536F5B0
:1014730035F53485376B85366A8535698534687FFC
:1014830006021742E561B4020AE4F561AD377F2D28
:10149300021730E4855F6BF56AF569F5687F010231
:1014A3001742E55F641A7053F55EE561B4012EE4FB
:1014B3007F03FEFDFCAB37AA36A935A834D3124906
:1014C300684009E4F537F536F535F53485376B852E
:1014D300366A8535698534687F06021742E561B44B
:1014E300020AE4F561AD377F2E021730E4855F6BA6
:1014F300F56AF569F5687F01021742E55F641B70C1
:1015030068E564B4010C155EE55EC394054003759C
:101513005E04E561B4012FE47FFF7EFFFDFCAB3782
:10152300AA36A935A834D31249684009E4F537F53A
:1015330036F535F53485376B85366A8535698534F7
:10154300687F06021742E561B4020FE4F561AC3629
:10155300AD377F30127099020041E4855F6BF56A05
:10156300F569F5687F01021742E55F641C7053F566
:101573005EE561B4012EE47F02FEFDFCAB37AA36C3
:10158300A935A834C31249684009E4F537F536F59F
:1015930035F53485376B85366A8535698534687FDB
:1015A30006021742E561B4020AE4F561AD377F3202
:1015B300021730E4855F6BF56AF569F5687F010210
:1015C3001742E55F641D7072F55EE5616401704C5E
:1015D3007F02FEFDFCAB37AA36A935A834C31249F6
:1015E30068500AE4753702F536F535F534E47F06BD
:1015F300FEFDFCAB37AA36A935A834C312496840AF
:101603000AE4753702F536F535F53485376B8536DB
:101613006A8535698534687F06021742E561B4023D
:101623000AE4F561AD377F33021730E4855F6BF56C
:101633006AF569F5687F01021742E55F641E70531E
:10164300F55EE561B4012EE47F02FEFDFCAB37AA33
:1016530036A935A834C31249684009E4F537F5368D
:10166300F535F53485376B85366A85356985346894
:101673007F06021742E561B4020AE4F561AD377FE4
:1016830034021730E4855F6BF56AF569F5687F010D
:10169300021742E55F641F6003020041F55EE561E6
:1016A3006401707D7F03FEFDFCAB37AA36A935A824
:1016B30034C31249684009E4F537F536F535F53496
:1016C300E4FFFEFDFCAB37AA36A935A834C31249A3
:1016D300687006787DF608760CE47F01FEFDFCABAE
:1016E30037AA36A935A834C31249687006787DF63F
:1016F30008760EE47F02FEFDFCAB37AA36A935A8B7
:1017030034C31249687006787DF6087610787DE652
:10171300FE08E6FFE48F6B8E6AF569F5687F068045
:101723001EE561B4020DE4F561AD377F35126F1A22
:10173300020041E4855F6BF56AF569F5687F011284
:10174300174B0200410268F7E4F56DF56EF56FF58E
:1017530070F571F5728F6C856B76856A7585697422
:10176300856873E56C702490717D93F56D9071714C
:10177300E493FFF56E90717EE493F56F8F70907133
:101783007AE493F57190717802181BE56C6401603B
:101793000302181F7F09FEFDFCAB76AA75A974A886
:1017A30073D312496890717B5020E493F56D907167
:1017B30078E493F56E90717EE493F56FF570907114
:1017C3006CE493F571E57602205CE493F56D90711A
:1017D30078E493F56E90717EE493F56FF570E47B96
:1017E3000AFAF9F8AF76AE75AD74AC731248B274F9
:1017F3006C2FF58274713EF583E493F571E47B0AF3
:10180300FAF9F8AF76AE75AD74AC731248B2746C76
:101813002BF58274713AF583E402205CE56C640273
:101823007038FFFEFDFCAB76AA75A974A873C312CA
:10183300496890717E701093F56DF56EF56FF570D4
:10184300F571907178800FE493F56DF56EF56FF592
:1018530070F57190717BE402205CE56C64036003B6
:10186300021A15FFFEFDFCAB76AA75A974A873C313
:10187300124968701B90717D93F56D90716FE493BD
:10188300F56E90717EE493F56FF570757174F57272
:10189300E47F01FEFDFCAB76AA75A974A873C3129D
:1018A3004968702490717D93F56D90716FE493F5A1
:1018B3006E90717EE493F56FF570907187E493F504
:1018C3007190717EE493F572E47F02FEFDFCAB76CA
:1018D300AA75A974A873C3124968702490717D9383
:1018E300F56D90716FE493F56E90717EE493F56FEF
:1018F300F570907183E493F57190717EE493F572C2
:10190300E47F03FEFDFCAB76AA75A974A873C3122A
:101913004968702490717D93F56D90716FE493F530
:101923006E90717EE493F56FF57090717AE493F5A0
:101933007190717EE493F572E47F04FEFDFCAB7657
:10194300AA75A974A873C3124968702490717D9312
:10195300F56D90716FE493F56E90717EE493F56F7E
:10196300F570907185E493F57190717EE493F5724F
:10197300E47F05FEFDFCAB76AA75A974A873C312B8
:101983004968701B90717D93F56D90716FE493F5C9
:101993006E90717EE493F56FF57075716DF572E479
:1019A3007F06FEFDFCAB76AA75A974A873C3124922
:1019B30068702490717D93F56D90716FE493F56E6B
:1019C30090717EE493F56FF570907178E493F571FF
:1019D30090717EE493F572E47F07FEFDFCAB76AA7B
:1019E30075A974A873C312496860030221E9907151
:1019F3007D93F56D90716FE493F56E90717EE49332
:101A0300F56FF570907178E493F57190717EE4024F
:101A1300205CE56C64046003021CC2E51164016090
:101A230003021B7690717E93F56DF56EF56F9071E1
:101A330081E493F570E47B64FAF9F8AF76AE75ADA3
:101A430074AC731248B2AC00AD01AE02AF03E47BD9
:101A53000AFAF9F81248B2746C2FF58274713EF5E4
:101A630083E493F571E47B0AFAF9F8AF76AE75ADCA
:101A730074AC731248B2746C2BF58274713AF583AB
:101A8300E493F572E47F64FEFDFCAB76AA75A9745A
:101A9300A873C31249684038907181E493F56FE4E9
:101AA3007BE87A03F9F8AF76AE75AD74AC73124880
:101AB300B2AC00AD01AE02AF03E47B64FAF9F812F5
:101AC30048B2746C2FF58274713EF583E493F5701C
:101AD300E47FE87E03FDFCAB76AA75A974A873C303
:101AE3001249684039907181E493F56EE47B107A72
:101AF30027F9F8AF76AE75AD74AC731248B2AC008B
:101B0300AD01AE02AF03E47BE87A03F9F81248B201
:101B1300746C2FF58274713EF583E493F56FE47F63
:101B2300107E27FDFCAB76AA75A974A873C312496E
:101B33006850030221E9907181E493F56D7BA07AEB
:101B43008679017800AF76AE75AD74AC731248B286
:101B5300AC00AD01AE02AF03E47B107A27F9F812B3
:101B630048B2746C2FF58274713EF583E493F56E7D
:101B73000221E990716CE493F56DF56EF56FF570E4
:101B8300E47B64FAF9F8AF76AE75AD74AC731248C2
:101B9300B2AC00AD01AE02AF03E47B0AFAF9F8126E
:101BA30048B2746C2FF58274713EF583E493F5713A
:101BB300E47B0AFAF9F8AF76AE75AD74AC731248EC
:101BC300B2746C2BF58274713AF583E493F572E485
:101BD3007F64FEFDFCAB76AA75A974A873C3124992
:101BE300684031E47BE87A03F9F8AF76AE75AD74FB
:101BF300AC731248B2AC00AD01AE02AF03E47B6438
:101C0300FAF9F81248B2746C2FF58274713EF583B9
:101C1300E493F570E47FE87E03FDFCAB76AA75A937
:101C230074A873C31249684032E47B107A27F9F829
:101C3300AF76AE75AD74AC731248B2AC00AD01AE05
:101C430002AF03E47BE87A03F9F81248B2746C2F0D
:101C5300F58274713EF583E493F56FE47F107E277C
:101C6300FDFCAB76AA75A974A873C3124968403307
:101C73007BA07A8679017800AF76AE75AD74AC73CC
:101C83001248B2AC00AD01AE02AF03E47B107A2779
:101C9300F9F81248B2746C2FF58274713EF583E43F
:101CA30093F56E7FA07E867D017C00AB76AA75A935
:101CB30074A873C312496850030221E90221C8E5DD
:101CC3006C640560030220627F0AFEFDFCAB76AA0A
:101CD30075A974A873C3124968407AE47F64FEFD52
:101CE300FCA873124968506D90717EE493F56FF50B
:101CF30070E51270227B0AFAF9F8AF76AE75AD740F
:101D0300AC731248B2746C2FF58274713EF583E4A0
:101D1300932480F571801FE47B0AFAF9F8AF76AE5D
:101D230075AD74AC731248B2746C2FF58274713E46
:101D3300F583E493F571E47B0AFAF9F8AF76AE75AF
:101D4300AD74AC731248B2746C2BF58274713AF5AE
:101D530083E493F572E47F64FEFDFCAB76AA75A978
:101D630074A873C31249685003021E2CE47FE87EF3
:101D730003FDFCA8731249684003021E2C90717E78
:101D8300E493F56FE47B64FAF9F8AF76AE75AD745E
:101D9300AC731248B2746C2FF58274713EF583E410
:101DA30093F570E51270337B64FAF9F8AF76AE758C
:101DB300AD74AC731248B2AC00AD01AE02AF03E434
:101DC3007B0AFAF9F81248B2746C2FF58274713EEB
:101DD300F583E4932480F5718030E47B64FAF9F8A9
:101DE300AF76AE75AD74AC731248B2AC00AD01AE54
:101DF30002AF03E47B0AFAF9F81248B2746C2FF5C8
:101E03008274713EF583E493F571E47B0AFAF9F881
:101E1300AF76AE75AD74AC731248B2746C2BF582A9
:101E230074713AF583E493F572E47FE87E03FDFC75
:101E3300AB76AA75A974A873C31249685003021F2D
:101E43002CE47F107E27FDFCA8731249684003022F
:101E53001F2CE47BE87A03F9F8AF76AE75AD74AC6A
:101E6300731248B2746C2FF58274713EF583E49358
:101E7300F56FE47BE87A03F9F8AF76AE75AD74AC31
:101E8300731248B2AC00AD01AE02AF03E47B64FA57
:101E9300F9F81248B2746C2FF58274713EF583E43D
:101EA30093F570E51270337B64FAF9F8AF76AE758B
:101EB300AD74AC731248B2AC00AD01AE02AF03E433
:101EC3007B0AFAF9F81248B2746C2FF58274713EEA
:101ED300F583E4932480F5718030E47B64FAF9F8A8
:101EE300AF76AE75AD74AC731248B2AC00AD01AE53
:101EF30002AF03E47B0AFAF9F81248B2746C2FF5C7
:101F03008274713EF583E493F571E47B0AFAF9F880
:101F1300AF76AE75AD74AC731248B2746C2BF582A8
:101F230074713AF583E493F572E47F107E27FDFC28
:101F3300AB76AA75A974A873C3124968500302212A
:101F4300E97FA07E867D017C00A873124968400367
:101F53000221E9E47B107A27F9F8AF76AE75AD7408
:101F6300AC731248B2746C2FF58274713EF583E43E
:101F730093F56EE47B107A27F9F8AF76AE75AD74FE
:101F8300AC731248B2AC00AD01AE02AF03E47BE820
:101F93007A03F9F81248B2746C2FF58274713EF526
:101FA30083E493F56FE47BE87A03F9F8AF76AE75D3
:101FB300AD74AC731248B2AC00AD01AE02AF03E432
:101FC3007B64FAF9F81248B2746C2FF58274713E8F
:101FD300F583E493F570E51270337B64FAF9F8AF97
:101FE30076AE75AD74AC731248B2AC00AD01AE02FF
:101FF300AF03E47B0AFAF9F81248B2746C2FF58246
:1020030074713EF583E4932480F5718030E47B643E
:10201300FAF9F8AF76AE75AD74AC731248B2AC0092
:10202300AD01AE02AF03E47B0AFAF9F81248B274C9
:102033006C2FF58274713EF583E493F571E47B0AAA
:10204300FAF9F8AF76AE75AD74AC731248B2746C2E
:102053002BF58274713AF583E493F5720221E9E575
:102063006CC3940650030221E990717EE493F56DED
:10207300F56EF56FF570F571E47B0AFAF9F8AF7652
:10208300AE75AD74AC731248B2746C2BF582747177
:102093003AF583E493F572E47F0AFEFDFCAB76AA7E
:1020A30075A974A873C31249684030E47B64FAF9D4
:1020B300F8AF76AE75AD74AC731248B2AC00AD0137
:1020C300AE02AF03E47B0AFAF9F81248B2746C2F3C
:1020D300F58274713EF583E493F571E47F64FEFD4C
:1020E300FCAB76AA75A974A873C31249684031E49E
:1020F3007BE87A03F9F8AF76AE75AD74AC7312482A
:10210300B2AC00AD01AE02AF03E47B64FAF9F8129E
:1021130048B2746C2FF58274713EF583E493F570C5
:10212300E47FE87E03FDFCAB76AA75A974A873C3AC
:102133001249684032E47B107A27F9F8AF76AE751E
:10214300AD74AC731248B2AC00AD01AE02AF03E4A0
:102153007BE87A03F9F81248B2746C2FF582747134
:102163003EF583E493F56FE47F107E27FDFCAB76A9
:10217300AA75A974A873C312496840337BA07A86F1
:1021830079017800AF76AE75AD74AC731248B2AC1A
:1021930000AD01AE02AF03E47B107A27F9F81248D1
:1021A300B2746C2FF58274713EF583E493F56E7F00
:1021B300A07E867D017C00AB76AA75A974A873C343
:1021C30012496840217BA07A8679017800AF76AE08
:1021D30075AD74AC731248B2746C2FF58274713E92
:1021E300F583E493F56D856F7A856E7B856D7CABA6
:1021F30070AD71AF720269778E658F66856567858D
:102203006668E4F512E51164017066D3E5689455D8
:10221300E5679404AC65AD665031E41247557BA481
:102223007A70795D78401246B3A804A905AA06AB73
:1022330007E4FFFE7DA07C431245BB12478E8E67E9
:102243008F68751301E4F511022A58E41247557B90
:10225300A47A70795D78401246B3E4FBFA79A078EA
:10226300C31245BF12478E8E678F68E4F513022AA7
:1022730058AC65AD66E41247557BA47A70795D78F6
:10228300401246B3E4FBFA79A078431245BF1247E4
:102293008E8E678F68D3E5669486E5659404401F48
:1022A300E56624B4FFE56534FBFE900007E0FD7CA2
:1022B30000124821C3E5689FF568E5679EF567D37B
:1022C300E56694C4E5659409401FE566246EFFE561
:1022D3006534F6FE900008E0FD7C00124821C3E55A
:1022E300689FF568E5679EF567D3E5669484E565C1
:1022F3009412401FE56624A4FFE56534EDFE9000CB
:1023030007E0FD7C00124821C3E5689FF568E56797
:102313009EF567D3E5669402E5659417401FE5666D
:10232300241CFFE56534E9FE900009E0FD7C001202
:102333004821C3E5689FF568E5679EF567D3E566C1
:102343009472E565941F401FE56624ACFFE5653490
:10235300E0FE900009E0FD7C00124821C3E5689F80
:10236300F568E5679EF567D3E5669430E565942ADD
:10237300401FE5662402FFE56534D6FE900009E0C0
:10238300FD7C00124821C3E5689FF568E5679EF56B
:1023930067D3E5669426E5659434401FE566240C0F
:1023A300FFE56534CCFE90000AE0FD7C0012482175
:1023B300C3E5689FF568E5679EF567D3E566948C8A
:1023C300E565943C401FE566247EFFE56534C3FE66
:1023D30090000AE0FD7C00124821C3E5689FF56880
:1023E300E5679EF567D3E56694ACE565943F401ECB
:1023F300E5662486FFE56534C0FE90000AE0FD7CB7
:1024030000124821EF2568F568EE3567F567D3E5D7
:10241300669430E5659443401FE5662402FFE56555
:1024230034BDFE900009E0FD7C00124821C3E5683D
:102433009FF568E5679EF567D3E5669450E5659477
:102443004B401EE56624BAFFE56534B4FE90000AEE
:10245300E0FD7C00124821EF2568F568EE3567F54D
:1024630067D3E56694E8E565944E401FE566244A24
:10247300FFE56534B1FE900009E0FD7C00124821C0
:10248300C3E5689FF568E5679EF567D3E566948CB9
:10249300E565945A401FE56624B0FFE56534A5FE63
:1024A30090000AE0FD7C00124821C3E5689FF568AF
:1024B300E5679EF567D3E5669404E5659460401E81
:1024C300E5662424FFE56534A0FE90000BE0FD7C67
:1024D30000124821EF2568F568EE3567F567D3E507
:1024E300669470E5659467401FE56624B8FFE5656B
:1024F3003498FE90000AE0FD7C00124821C3E56891
:102503009FF568E5679EF567D3E5669478E565947E
:102513006E401EE56624B0FFE5653491FE90000B26
:10252300E0FD7C00124821EF2568F568EE3567F57C
:1025330067D3E5669436E5659474401FE56624FC2D
:10254300FFE565348BFE90000AE0FD7C0012482114
:10255300C3E5689FF568E5679EF567AE65AF66E41A
:10256300FCFD7B907A83F9F8C3124952502BE56640
:102573002498FFE565347CFEE434FFFDE434FFFC7E
:10258300C00790000AE0FBE4FAF8D007126B69EF8A
:102593002568F568EE3567F567AE65AF66E4FCFD63
:1025A3007BB07A86F9F8C3124952502CE566247839
:1025B300FFE5653479FEE434FFFDE434FFFCC00736
:1025C300900009E0FBE4FAF8D007126B69C3E568F1
:1025D3009FF568E5679EF567AE65AF66E4FCFD7B36
:1025E300807A8EF9F8C3124952502BE56624A8FF6E
:1025F300E5653471FEE434FFFDE434FFFCC007906D
:10260300000BE0FBE4FAF8D007126B69EF2568F5DD
:1026130068EE3567F567AE65AF66E4FCFD7B447A2B
:1026230093F9F8C3124952502CE56624EEFFE56591
:10263300346CFEE434FFFDE434FFFCC00790000B70
:10264300E0FBE4FAF8D007126B69C3E5689FF5680D
:10265300E5679EF567AE65AF66E4FCFD7B987A9E01
:10266300F9F8C3124952502BE566249AFFE5653405
:1026730061FEE434FFFDE434FFFCC00790000BE08F
:10268300FBE4FAF8D007126B69EF2568F568EE35BD
:1026930067F567AE65AF66E4FCFD7BF07AA0F9F8F9
:1026A300C3124952502CE5662442FFE565345FFEB0
:1026B300E434FFFDE434FFFCC00790000BE0FBE4CF
:1026C300FAF8D007126B69C3E5689FF568E5679E62
:1026D300F567AE65AF66E4FCFD7B047AA6F9F8C343
:1026E300124952502BE566242EFFE565345AFEE469
:1026F30034FFFDE434FFFCC00790000BE0FBE4FA79
:10270300F8D007126B69EF2568F568EE3567F56752
:10271300AE65AF66E4FCFD7BD47AADF9F8C312492C
:1027230052502CE566245EFFE5653452FEE434FF27
:10273300FDE434FFFCC00790000BE0FBE4FAF8D0A3
:1027430007126B69C3E5689FF568E5679EF567AE99
:1027530065AF66E4FCFD7B547ABAF9F8C3124952BB
:10276300502BE56624DEFFE5653445FEE434FFFDCA
:10277300E434FFFCC00790000AE0FBE4FAF8D0075A
:10278300126B69EF2568F568EE3567F567AE65AFDF
:1027930066E4FCFD7B767AC0F9F8C3124952502CEB
:1027A300E566249EFFE565343FFEE434FFFDE43433
:1027B300FFFCC007900007E0FBE4FAF8D007126BB8
:1027C30069C3E5689FF568E5679EF567AE65AF6623
:1027D300E4FCFD7B507AC3F9F8C3124952502BE550
:1027E3006624C4FFE565343CFEE434FFFDE434FFB6
:1027F300FCC007900007E0FBE4FAF8D007126B690E
:10280300EF2568F568EE3567F567AE65AF66E4FCFE
:10281300FD7B947ACAF9F8C3124952502CE5662419
:1028230094FFE5653435FEE434FFFDE434FFFCC07A
:102833000790000BE0FBE4FAF8D007126B69C3E5DD
:10284300689FF568E5679EF567AE65AF66E4FCFDD6
:102853007B507ACDF9F8C3124952502BE56624D840
:10286300FFE5653432FEE434FFFDE434FFFCC007CA
:1028730090000BE0FBE4FAF8D007126B69EF2568D0
:10288300F568EE3567F567AE65AF66E4FCFD7B384A
:102893007AD1F9F8C3124952502CE56624F0FFE5CA
:1028A30065342EFEE434FFFDE434FFFCC0079000E2
:1028B3000BE0FBE4FAF8D007126B69C3E5689FF5F8
:1028C30068E5679EF567AE65AF66E4FCFD7BB07AAD
:1028D300D6F9F8C3124952502BE5662478FFE56513
:1028E3003429FEE434FFFDE434FFFCC00790000B01
:1028F300E0FBE4FAF8D007126B69EF2568F568EEA0
:102903003567F567AE65AF66E4FCFD7B307AE3F9C6
:10291300F8C3124952502BE56624F8FFE565341CD1
:10292300FEE434FFFDE434FFFCC00790000BE0FB42
:10293300E4FAF8D007126B69EF2568F568EE35679E
:10294300F567AE65AF66E4FCFD7B8C7AE6F9F8C308
:10295300124952502CE5662488FFE5653419FEE4DC
:1029630034FFFDE434FFFCC007900009E0FBE4FA08
:10297300F8D007126B69C3E5689FF568E5679EF5B4
:1029830067AE65AF66E4FCFD7B9C7AEAF9F8C31297
:102993004952502BE566248CFFE5653415FEE4347B
:1029A300FFFDE434FFFCC00790000BE0FBE4FAF802
:1029B300D007126B69EF2568F568EE3567F567AEEA
:1029C30065AF66E4FCFD7B347AF3F9F8C312495230
:1029D300502CE56624F4FFE565340CFEE434FFFD7A
:1029E300E434FFFCC00790000BE0FBE4FAF8D007E7
:1029F300126B69C3E5689FF568E5679EF567AE6589
:102A0300AF66E4FCFD7BFC7AF3F9F8C3124952503C
:102A13002BE566242CFFE565340CFEE434FFFDE46E
:102A230034FFFCC00790000AE0FBE4FAF8D0071279
:102A33006B69EF2568F568EE3567F567AE65AF66D8
:102A4300E4FCFD7BB07AFA7909F8C31249525005C8
:102A5300E4F567F568AE67AF68228E658F66E4F5C7
:102A630012E51164016003022B08D3E56694E0E5E7
:102A7300659402501F7C007D0A12480F7D1712488F
:102A830021C374409FF56874019EF567751301E4D3
:102A9300F511801DAE65AF667C007D0A12480F7D7F
:102AA30017124821EF24C0F568EE34FEF567E4F50C
:102AB30013D3E56694F8E56594024013E513700FAC
:102AC300E5662458FFE56534FDFE9000188022D3A7
:102AD300E56694D0E56594075003023226E513605A
:102AE30003023226E566249EFFE56534F8FE900076
:102AF30019E0FD7C00124821EF2568F568EE356783
:102B0300F567023226AC65AD66E41247557BE17A80
:102B13007A791478401246B3E4FBFA79A078431229
:102B230045BF12478E8E678F68D3E56694F8E565D7
:102B33009402401FE5662426FFE56534FDFE900000
:102B43001BE0FD7C00124821C3E5689FF568E5673B
:102B53009EF567D3E56694D0E5659407401FE56667
:102B63002462FFE56534F8FE90001DE0FD7C001251
:102B73004821C3E5689FF568E5679EF567D3E56679
:102B83009460E565940C401EE56624B2FFE5653468
:102B9300F3FE90001DE0FD7C00124821EF2568F54F
:102BA30068EE3567F567D3E56694DEE565940D4019
:102BB3001FE5662454FFE56534F2FE90001DE0FD39
:102BC3007C00124821C3E5689FF568E5679EF567B9
:102BD300D3E56694F2E5659412401EE5662440FF52
:102BE300E56534EDFE90001CE0FD7C00124821EF0A
:102BF3002568F568EE3567F567D3E5669444E565C2
:102C0300941B401EE566240CFFE56534E5FE900049
:102C13001DE0FD7C00124821EF2568F568EE35675D
:102C2300F567D3E566947FE5659424401FE5662444
:102C3300FCFFE56534DBFE90001EE0FD7C001248DE
:102C430021C3E5689FF568E5679EF567D3E566945C
:102C5300B4E5659428401FE5662488FFE56534D70D
:102C6300FE90001DE0FD7C00124821C3E5689FF53E
:102C730068E5679EF567D3E56694FCE565943040A7
:102C83001FE566242CFFE56534CFFE90001EE0FDB2
:102C93007C00124821C3E5689FF568E5679EF567E8
:102CA300D3E56694AAE5659437401FE5662488FF5B
:102CB300E56534C8FE90001FE0FD7C00124821C387
:102CC300E5689FF568E5679EF567D3E56694A0E53B
:102CD300659441401FE5662492FFE56534BEFE908E
:102CE300001FE0FD7C00124821C3E5689FF568E5FD
:102CF300679EF567D3E566944AE5659447401EE50C
:102D03006624E8FFE56534B8FE90001FE0FD7C0013
:102D1300124821EF2568F568EE3567F567D3E56658
:102D230094FAE565944B401FE5662438FFE5653466
:102D3300B4FE90001EE0FD7C00124821C3E5689FAD
:102D4300F568E5679EF567D3E56694CAE565945330
:102D5300401FE5662468FFE56534ACFE90001FE084
:102D6300FD7C00124821C3E5689FF568E5679EF581
:102D730067D3E5669488E5659459401EE56624C8E3
:102D8300FFE56534A6FE90001EE0FD7C001248219D
:102D9300EF2568F568EE3567F567D3E5669406E5D4
:102DA300659463401FE566242CFFE565349DFE9022
:102DB300001FE0FD7C00124821C3E5689FF568E52C
:102DC300679EF567D3E56694ECE5659468401EE578
:102DD300662450FFE5653497FE90001EE0FD7C00FD
:102DE300124821EF2568F568EE3567F567D3E56688
:102DF3009458E5659470401EE56624ACFFE56534A0
:102E030090FE90001FE0FD7C00124821EF2568F53D
:102E130068EE3567F567D3E566945CE565947640BF
:102E23001FE5662408FFE565348AFE90001FE0FD78
:102E33007C00124821C3E5689FF568E5679EF56746
:102E4300D3E5669476E565947A401EE56624EEFF45
:102E5300E5653485FE90001DE0FD7C00124821EFFE
:102E63002568F568EE3567F567AE65AF66E4FCFD8A
:102E73007B9E7A84F9F8C3124952502BE566249459
:102E8300FFE565347BFEE434FFFDE434FFFCC0075B
:102E930090001FE0FBE4FAF8D007126B69EF256896
:102EA300F568EE3567F567AE65AF66E4FCFD7B6EEE
:102EB3007A8CF9F8C3124952502BE56624C4FFE516
:102EC300653473FEE434FFFDE434FFFCC007900077
:102ED3001EE0FBE4FAF8D007126B69EF2568F5688A
:102EE300EE3567F567AE65AF66E4FCFD7BBA7A90B5
:102EF300F9F8C3124952502BE5662478FFE565348F
:102F03006FFEE434FFFDE434FFFCC00790001FE0D4
:102F1300FBE4FAF8D007126B69EF2568F568EE3524
:102F230067F567AE65AF66E4FCFD7BEE7A98F9F86A
:102F3300C3124952502BE5662444FFE5653467FE0E
:102F4300E434FFFDE434FFFCC00790001FE0FBE422
:102F5300FAF8D007126B69EF2568F568EE3567F567
:102F630067AE65AF66E4FCFD7B667A9EF9F8C31233
:102F73004952502BE56624CCFFE5653461FEE43409
:102F8300FFFDE434FFFCC00790001FE0FBE4FAF808
:102F9300D007126B69EF2568F568EE3567F567AE04
:102FA30065AF66E4FCFD7BA67AA4F9F8C312495227
:102FB300502BE56624F0FFE565345BFEE434FFFD4A
:102FC300E434FFFCC00790001FE0FBE4FAF8D007ED
:102FD300126B69EF2568F568EE3567F567AE65AF87
:102FE30066E4FCFD7BBA7AA9F9F8C3124952502B67
:102FF300E5662478FFE5653456FEE434FFFDE434EA
:10300300FFFCC00790001FE0FBE4FAF8D007126B47
:1030130069EF2568F568EE3567F567AE65AF66E479
:10302300FCFD7B967AAFF9F8C3124952502AE42586
:1030330066FFE5653451FEE434FFFDE434FFFCC074
:103043000790001EE0FBE4FAF8D007126B69EF2546
:1030530068F568EE3567F567AE65AF66E4FCFD7B42
:103063003A7AB6F9F8C3124952502BE56624F8FFB1
:10307300E5653449FEE434FFFDE434FFFCC007900A
:10308300001EE0FBE4FAF8D007126B69EF2568F540
:1030930068EE3567F567AE65AF66E4FCFD7B7A7A6B
:1030A300BCF9F8C3124952502BE56624B8FFE56515
:1030B3003443FEE434FFFDE434FFFCC00790001DFD
:1030C300E0FBE4FAF8D007126B69EF2568F568EEC8
:1030D3003567F567AE65AF66E4FCFD7BDA7AC5F963
:1030E300F8C3124952502BE5662458FFE565343A7C
:1030F300FEE434FFFDE434FFFCC00790001CE0FB5A
:10310300E4FAF8D007126B69EF2568F568EE3567C6
:10311300F567AE65AF66E4FCFD7B467ACDF9F8C38F
:10312300124952502BE56624ECFFE5653432FEE488
:1031330034FFFDE434FFFCC00790001CE0FBE4FA1D
:10314300F8D007126B69EF2568F568EE3567F56708
:10315300AE65AF66E4FCFD7B2E7AD1F9F8C3124964
:1031630052502BE5662404FFE565342FFEE434FF5B
:10317300FDE434FFFCC00790001EE0FBE4FAF8D046
:1031830007126B69EF2568F568EE3567F567AE657D
:10319300AF66E4FCFD7B0A7AD7F9F8C312495250B3
:1031A3002BE5662428FFE5653429FEE434FFFDE4BE
:1031B30034FFFCC00790001CE0FBE4FAF8D00712D0
:1031C3006B69EF2568F568EE3567F567AE65AF6641
:1031D300E4FCFD7B1E7ADCF9F8C3124952502BE55F
:1031E300662414FFE5653424FEE434FFFDE434FF74
:1031F300FCC00790001DE0FBE4FAF8D007126B69EE
:10320300EF2568F568EE3567F567AE65AF66E4FCF4
:10321300FD7B487AEEF9F8C3124952500674FFF564
:1032230067F568AE67AF68228E658F6685656985C9
:10323300666AE4F512E511640160030235BAD3E569
:103243006694C2E5659402AC65AD665030E41247FE
:10325300557B7B7A14790E78401246B3A804A905EE
:10326300AA06AB07E4FFFE7DA07C431245BB1247D1
:103273008E8E678F68751301E4F5118026E412477B
:10328300557BCD7ACC790C78401246B3E4FBFA79BE
:10329300A078C31245BF12478E8E678F68E4F5137B
:1032A300751101D3E568946EE56794004022E51338
:1032B300701EE568249CFFE56734FFFE900043E041
:1032C300FD7C00124821EF2568F568EE3567F56748
:1032D300D3E56894B5E56794014022E513701EE5D4
:1032E30068245CFFE56734FEFE900046E0FD7C0049
:1032F300124821EF2568F568EE3567F567D3E56871
:103303009458E56794024022E513701EE56824DAB9
:10331300FFE56734FDFE900045E0FD7C0012482187
:10332300EF2568F568EE3567F567D3E56894DEE564
:103333006794024022E513701EE568243AFFE567AF
:1033430034FDFE900044E0FD7C00124821EF256827
:10335300F568EE3567F567D3E56894C0E5679403D0
:103363004022E513701EE568244AFFE56734FCFE3E
:10337300900045E0FD7C00124821EF2568F568EEDA
:103383003567F567D3E568947EE56794044022E5E5
:1033930013701EE56824B4FFE56734FBFE90004418
:1033A300E0FD7C00124821EF2568F568EE3567F5EE
:1033B30067D3E5689446E56794054022E513701EDC
:1033C300E56824ECFFE56734FAFE900044E0FD7CF9
:1033D30000124821EF2568F568EE3567F567D3E5F8
:1033E300689404E56794064022E513701EE568249B
:1033F30010FFE56734FAFE900043E0FD7C001248BD
:1034030021EF2568F568EE3567F567D3E56894F431
:10341300E56794064022E513701EE568242AFFE55C
:103423006734F9FE900044E0FD7C00124821EF254B
:1034330068F568EE3567F567D3E5689476E56794D4
:10344300074022E513701EE5682494FFE56734F80E
:10345300FE900044E0FD7C00124821EF2568F568EA
:10346300EE3567F567D3E5689448E567940840222D
:10347300E513701EE56824C2FFE56734F7FE90008C
:1034830043E0FD7C00124821EF2568F568EE3567BF
:10349300F567D3E56894DEE56794084022E5137089
:1034A3001EE568242CFFE56734F7FE900043E0FD3A
:1034B3007C00124821EF2568F568EE3567F567D380
:1034C300E56894F6E56794094022E513701EE56804
:1034D3002428FFE56734F6FE900043E0FD7C0012EC
:1034E3004821EF2568F568EE3567F567D3E56894FD
:1034F300A0E567940A4022E513701EE5682488FF5F
:10350300E56734F5FE900043E0FD7C00124821EFAF
:103513002568F568EE3567F567D3E568944AE5678E
:10352300940B4022E513701EE56824DEFFE5673443
:10353300F4FE900043E0FD7C00124821EF2568F57E
:1035430068EE3567F567D3E568949AE567940B40B1
:1035530022E513701EE5682484FFE56734F4FE90CA
:103563000043E0FD7C00124821EF2568F568EE3545
:1035730067F567D3E5689426E567940C4022E51365
:10358300701EE56824E4FFE56734F3FE900043E032
:10359300FD7C00124821EF2568F568EE3567F56775
:1035A300D3E56894A0E567940F50030237967567D7
:1035B3001375687E023796856967856A68AC69AD5D
:1035C3006AE41247557BCD7ACC790C78401246B326
:1035D300E4FBFA79A078431245BF12478E8E678FBA
:1035E30068D3E5689454E5679401401FE56824B601
:1035F300FFE56734FEFE900045E0FD7C00124821A4
:10360300C3E5689FF568E5679EF567D3E568943A77
:10361300E5679402401FE56824D0FFE56734FDFEAB
:10362300900044E0FD7C00124821C3E5689FF568E3
:10363300E5679EF567D3E56894ACE5679403401F9F
:10364300E5682472FFE56734FCFE900044E0FD7CEE
:1036530000124821C3E5689FF568E5679EF567D3C7
:10366300E5689414E5679405401FE568240AFFE5BF
:103673006734FBFE900044E0FD7C00124821C3E563
:10368300689FF568E5679EF567D3E56894B8E567D5
:103693009406401FE568245CFFE56734F9FE90005B
:1036A30044E0FD7C00124821C3E5689FF568E567A7
:1036B3009EF567D3E568947AE5679408401CE5684E
:1036C300249AFFE56734F7FE7C007D1C124821C372
:1036D300E5689FF568E5679EF567D3E5689432E58D
:1036E30067940A401FE56824ECFFE56734F5FE9014
:1036F3000045E0FD7C00124821C3E5689FF568E5BD
:10370300679EF567D3E56894A4E567940B401FE5CE
:10371300682470FFE56734F4FE900045E0FD7C000B
:10372300124821C3E5689FF568E5679EF567D3E511
:103733006894B7E567940D401FE56824AEFFE5671D
:1037430034F2FE900045E0FD7C00124821C3E56899
:103753009FF568E5679EF567D3E5689490E5679400
:103763000F401FE56824E2FFE56734F0FE90004652
:10377300E0FD7C00124821C3E5689FF568E5679E7C
:10378300F567D3E5689488E5679413400675671772
:1037930075686FAE67AF68221267C1BFC003752A31
:1037A30004BF1006752A04023C7B78CEE6600EE562
:1037B3005025E024ABF8E6F54E08E6F54F788BE6A6
:1037C30070757604125F71E55025E024ABF8A60608
:1037D30008A607E550C3940450040550805978AFF8
:1037E300E6FE08E67802CEC313CE13D8F9FDAC0685
:1037F30078B1E6FE08E67802CEC313CE13D8F92DCE
:10380300FDEE3CFC78ADE6FE08E67802CEC313CEAF
:1038130013D8F92DFDEC3EFC78ABE6FE08E6780202
:10382300CEC313CE13D8F92DF54FEC3EF54EE4F588
:103833005078CEE66001167884E66003023A8B7610
:103843001012671578CBE6FD25E024ABF8A6060831
:10385300A607EDC3940D500E78CB0678C5E6F55D4B
:1038630008E6F55E806978C1E6FE08E6FF7C007D28
:1038730005124821AA06AB0778C3E6FE08E6FF7CDB
:10388300007D05124821EF2BFBEE3AFA78BFE6FEE6
:1038930008E6FF7C007D05124821EF2BFBEE3AFA88
:1038A30078BDE6FE08E6FF7C007D05124821EF2B7C
:1038B300FBEE3AFA78BBE6FE08E6FF7C007D0512D4
:1038C3004821EF2B78C6F6EE3A18F678CB7608E562
:1038D3002C70337D0D12637B8E618F62122A5D8E95
:1038E3005F8F60AC5FAD60E4124755E4FBFA79F09B
:1038F30078401246B312478E8E618F62AE5FAF601F
:103903007C007D26807CE52C6401703A7D1C12636B
:103913007B8E618F6212411D8E5F8F60AC5FAD60E5
:10392300E4124755E4FBFA79F078401246B31247A4
:103933008E8E618F62AC5FAD60E41247557B337A44
:103943003379AB0239D5E52C64027045AE4EAF4FE7
:10395300FC7D0C1263808E618F6212322B8E5F8F1F
:1039630060AC5FAD60E4124755E4FBFA79F0784050
:103973001246B312478E8E618F62AE5FAF607C00DA
:103983007D06124821EF24A3F564E43EF563023A71
:103993007CE52C64037040AE4EAF4FFC7D28126370
:1039A300808E618F621221FB8E5F8F60AC5FAD6092
:1039B300E4124755E4FBFA79F078401246B3124714
:1039C3008E8E618F62AC5FAD60E4124755E4FBFA03
:1039D30079B47841023A68E52C64047042751201A7
:1039E300AE4EAF4FFC7D061263858E618F6212501F
:1039F300848E5F8F60AC5FAD60E4124755E4FBFAE1
:103A030079F078401246B312478E8E618F62AC5FB5
:103A1300AD60E4124755E4FBFA793278428046E51B
:103A23002C64057054751201AE4EAF4FFC7D061227
:103A330063858E618F62124D358E5F8F60AC5FAD93
:103A430060E4124755E4FBFA79F078401246B3126A
:103A5300478E8E618F62AC5FAD60E4124755E4FB25
:103A6300FA793278421246B3E4FBFA7923784312A7
:103A730045BF12478E8E638F64E553700BAF60AE04
:103A83005F1265AA8E5F8F607885E67007126ABB46
:103A9300788576087883E66003023B9DC3E560780A
:103AA3009296F560E55F1896F55F78CCE6FFD394C0
:103AB30001400D7E00AC5FAD6012480F8E5F8F60DA
:103AC3007896E6FE08E6FFD3E5609FE55F9E400437
:103AD3008E5F8F607899E6FE08E6FFC3E5609FE599
:103AE3005F9E50048E5F8F607881E6FE08E6FFD309
:103AF300E5609FE55F9E40048E5F8F607893E6FEEE
:103B030008E6FFC3E5609FE55F9E50048E5F8F600C
:103B1300787FE6FE08E6FFD3E5609FE55F9E4004FD
:103B23008E5F8F60788EE6FE08E6FFC3E5609FE553
:103B33005F9E50048E5F8F6078C9E67883F6E50A4E
:103B4300700E856069855F68F567F5667F01800D96
:103B5300E4856069855F68F567F566AF08124979A2
:103B630078A3E6B4011BC3E5601896E55F18964099
:103B73000CD3E560789F96E55F1896401DC2B4802C
:103B830019D3E56078A896E55F1896500BC3E560F6
:103B93001896E55F18965002D2B47888E67018201C
:103BA3008407AF62AE61126E83208507AF64AE6394
:103BB300126DD5788876107887E66003023C7B78AF
:103BC300A0E6FFD394015003023C778F39753A0680
:103BD300E4F53B788DE6F53C85603DE55FF53E1207
:103BE3006BF078A9A60608A60718E6FE08E678CDC6
:103BF300F6FDEE78CAF68D3FF540E538700A788D0C
:103C0300E6F5997538018051E538B40108759906D0
:103C13007538028044E538B40208E4F59975380331
:103C23008037E538B4030A788DE6F5997538048052
:103C330028E538B40408856099753805801BE53894
:103C4300B40509E55FF599753806800DE538B406C6
:103C53000E78CDE6F599753807788776018011E5FA
:103C630038B4070C78CAE6F599E4F5387887763BDB
:103C7300D29980047887763BAE5FAF60228E5F8FE8
:103C830060E4F512E51164016003023DE9D3E560E8
:103C9300948AE55F9401AC5FAD605030E412475500
:103CA3007BD77AA379B0783F1246B3A804A905AAB3
:103CB30006AB07E4FFFE7DA07C431245BB12478E93
:103CC3008E618F62751301E4F5118026E412475566
:103CD3007BD77AA379B0783F1246B3E4FBFA79A095
:103CE30078C31245BF12478E8E618F62E4F5137558
:103CF3001101856163856264D3E5629428E561946B
:103D0300004022E513701EE5622428FFE43561FEBE
:103D130090004DE0FD7C00124821C3E5649FF564EB
:103D2300E5639EF563D3E56294B6E56194034023AE
:103D3300E513701FE562244AFFE56134FCFE900041
:103D43004CE0FD7C00124821C3E5649FF564E56304
:103D53009EF563D3E562949EE56194074023E513E2
:103D6300701FE5622462FFE56134F8FE90004CE0C9
:103D7300FD7C00124821C3E5649FF564E5639EF56D
:103D830063D3E5629428E561940A4023E513701F29
:103D9300E56224D8FFE56134F5FE90004CE0FD7C3C
:103DA30000124821C3E5649FF564E5639EF563D380
:103DB300E5629480E561940C5003024118E51360B9
:103DC30003024118E5622480FFE56134F3FE9000AD
:103DD3004CE0FD7C00124821C3E5649FF564E56374
:103DE3009EF563024118AC5FAD60E41247557BD783
:103DF3007AA379B0783F1246B3E4FBFA79A078430B
:103E03001245BF12478E8E618F628561638562643E
:103E1300C3E5629414E5619405401DE42562FFE562
:103E23006134FBFE90004EE0FD7C00124821EF253B
:103E330064F564EE3563F563C3E5629498E56194D4
:103E430008401EE5622468FFE56134F7FE900050E8
:103E5300E0FD7C00124821EF2564F564EE3563F53F
:103E630063C3E56294B2E561940C401EE562244E9F
:103E7300FFE56134F3FE90004EE0FD7C0012482123
:103E8300EF2564F564EE3563F563C3E5629404E5F9
:103E9300619410401EE56224FCFFE56134EFFE905F
:103EA300004EE0FD7C00124821EF2564F564EE35F9
:103EB30063F563C3E5629488E5619413401EE5628C
:103EC3002478FFE56134ECFE900050E0FD7C0012A5
:103ED3004821EF2564F564EE3563F563C3E5629429
:103EE300A8E5619416401EE5622458FFE56134E9B4
:103EF300FE900050E0FD7C00124821EF2564F5643C
:103F0300EE3563F563C3E5619419401DE42562FF53
:103F1300E56134E7FE90004FE0FD7C00124821EF9D
:103F23002564F564EE3563F563C3E56294A2E56148
:103F3300941C401EE562245EFFE56134E3FE9000BD
:103F43004EE0FD7C00124821EF2564F564EE3563F5
:103F5300F563C3E562940EE561941F401EE5622498
:103F6300F2FFE56134E0FE90004EE0FD7C00124874
:103F730021EF2564F564EE3563F563C3E56294FCD4
:103F8300E5619421401EE5622404FFE56134DEFE11
:103F930090004EE0FD7C00124821EF2564F564EEAD
:103FA3003563F563C3E56294EAE5619424401EE555
:103FB300622416FFE56134DBFE90004FE0FD7C00D8
:103FC300124821EF2564F564EE3563F563C3E562BA
:103FD30094ACE5619426401EE5622454FFE5613408
:103FE300D9FE900051E0FD7C00124821EF2564F5D5
:103FF30064EE3563F563C3E5629404E56194294097
:104003001EE56224FCFFE56134D6FE900050E0FD1E
:104013007C00124821EF2564F564EE3563F563C334
:10402300E56294F4E5619429401EE562240CFFE502
:104033006134D6FE900051E0FD7C00124821EF254B
:1040430064F564EE3563F563C3E5629488E56194D2
:104053002C401EE5622478FFE56134D3FE90004FC7
:10406300E0FD7C00124821EF2564F564EE3563F52D
:1040730063C3E5629418E561942E401EE56224E86B
:10408300FFE56134D1FE900051E0FD7C0012482130
:10409300EF2564F564EE3563F563C3E56294DAE511
:1040A30061942F401EE5622426FFE56134D0FE9023
:1040B3000051E0FD7C00124821EF2564F564EE35E4
:1040C30063F563C3E56294CEE5619431401EE56216
:1040D3002432FFE56134CEFE90004CE0FD7C0012FB
:1040E3004821EF2564F564EE3563F563C3E5629417
:1040F30058E5619434401EE56224A8FFE56134CBA2
:10410300FE90004CE0FD7C00124821EF2564F5642D
:10411300EE3563F563AE63AF64228E658F66E4F5B7
:1041230012E51164017066D3E56694B5E565940301
:10413300AC65AD665031E41247557BA47A70793D86
:1041430078401246B3A804A905AA06AB07E4FFFE0C
:104153007DA07C431245BB12478E8E678F68751313
:1041630001E4F5110245B3E41247557BA47A707953
:104173003D78401246B3E4FBFA79A078C31245BFF9
:1041830012478E8E678F68E4F5130245B3AC65ADB5
:1041930066E41247557BA47A70793D78401246B3A2
:1041A300E4FBFA79A078431245BF12478E8E678FDE
:1041B30068D3E566941AE5659404401FE566241800
:1041C300FFE56534FCFE900011E0FD7C0012482100
:1041D300C3E5689FF568E5679EF567D3E56694F1E7
:1041E300E5659409401FE566241EFFE56534F6FE88
:1041F300900011E0FD7C00124821C3E5689FF5683B
:10420300E5679EF567D3E5669406E5659411401F5F
:10421300E5662402FFE56534EFFE900012E0FD7CC5
:1042230000124821C3E5689FF568E5679EF567D3EB
:10423300E5669446E565941E401EE42566FFE56544
:1042430034E2FE900013E0FD7C00124821C3E568D0
:104253009FF568E5679EF567D3E566949AE56594EF
:1042630029401FE5662452FFE56534D6FE9000130E
:10427300E0FD7C00124821C3E5689FF568E5679E71
:10428300F567D3E56694F2E565942B401EE5662455
:1042930040FFE56534D4FE900013E0FD7C00124836
:1042A30021EF2568F568EE3567F567D3E566944831
:1042B300E565943A401FE5662462FFE56534C6FE72
:1042C300900013E0FD7C00124821C3E5689FF56868
:1042D300E5679EF567D3E566943CE565943C401E2F
:1042E300E56624D8FFE56534C3FE900012E0FD7C4B
:1042F30000124821EF2568F568EE3567F567D3E5C9
:104303006694D4E5659444401FE5662440FFE56563
:1043130034BBFE900014E0FD7C00124821C3E56825
:104323009FF568E5679EF567D3E56694BCE56594FC
:1043330048401EE5662458FFE56534B7FE90001239
:10434300E0FD7C00124821EF2568F568EE3567F53E
:1043530067D3E566948CE5659450401FE566248831
:10436300FFE56534AFFE900013E0FD7C00124821A9
:10437300C3E5689FF568E5679EF567D3E566945CDA
:10438300E5659458401EE56624B8FFE56534A7FE4D
:10439300900012E0FD7C00124821EF2568F568EEDD
:1043A3003567F567D3E5669438E565945E401FE5A8
:1043B3006624DCFFE56534A1FE900012E0FD7C007D
:1043C300124821C3E5689FF568E5679EF567D3E565
:1043D3006694D0E5659466401EE5662444FFE56572
:1043E3003499FE900014E0FD7C00124821EF25680B
:1043F300F568EE3567F567D3E5669454E565946A29
:10440300401FE5662424FFE5653496FE900013E023
:10441300FD7C00124821C3E5689FF568E5679EF5BA
:1044230067D3E56694B4E5659473401FE56624603D
:10443300FFE565348CFE900013E0FD7C00124821FB
:10444300C3E5689FF568E5679EF567D3E56694DC89
:10445300E565947D401FE5662438FFE5653482FEFB
:10446300900013E0FD7C00124821C3E5689FF568C6
:10447300E5679EF567AE65AF66E4FCFD7BA07A87D2
:10448300F9F8C3124952502CE5662474FFE56534EC
:1044930078FEE434FFFDE434FFFCC007900012E033
:1044A300FBE4FAF8D007126B69C3E5689FF568E58A
:1044B300679EF567AE65AF66E4FCFD7BB47A8CF965
:1044C300F8C3124952502CE5662460FFE565347346
:1044D300FEE434FFFDE434FFFCC007900013E0FB6F
:1044E300E4FAF8D007126B69C3E5689FF568E567DE
:1044F3009EF567AE65AF66E4FCFD7BDC7A96F9F862
:10450300C3124952502CE5662438FFE5653469FE31
:10451300E434FFFDE434FFFCC007900013E0FBE448
:10452300FAF8D007126B69C3E5689FF568E5679EE3
:10453300F567AE65AF66E4FCFD7B8C7A9BF9F8C347
:10454300124952502CE5662488FFE5653464FEE485
:1045530034FFFDE434FFFCC007900012E0FBE4FAF3
:10456300F8D007126B69C3E5689FF568E5679EF5A8
:1045730067AE65AF66E4FCFD7B2C7AABF9F8C3123A
:104583004952502CE56624E8FFE5653454FEE434D3
:10459300FFFDE434FFFCC007900011E0FBE4FAF8F0
:1045A300D007126B69C3E5689FF568E5679EF567F9
:1045B300AE67AF68220247FAE86480F8E933E8336C
:1045C30060110460F0ED33EC337009E8FCE9FDEAB7
:1045D300FEEBFF220460DED3EB9FEA9EE99DE8C277
:1045E300E78CF0C2F795F0400CE8CCF8E9CDF9EA96
:1045F300CEFAEBCFFB1247C585D0F05804700320E9
:10460300D5B3E80470075002B2D502480492D5EC42
:104613000460F7E4CCC0E0C398F8603B94186008EA
:10462300400DD0E0FB0247DCE4FBFAC9FC8028E83C
:1046330030E406E4C9FBE4CAFCE830E305E4C9CA94
:10464300CBFCE854076010F8C3E913F9EA13FAEB5B
:1046530013FBEC13FCD8F130F52FC3E49CFCEF9B68
:10466300FFEE9AFEED99FDD0E0FBEF4E4D4C70123C
:1046730022DB03024801EC2CFCEF33FFEE33FEEDAB
:1046830033FDED30E7EB0247DCEF2BFFEE3AFEEDB7
:1046930039FDD0E0FB50130BBB0003024804ED13BC
:1046A300FDEE13FEEF13FFEC13FC0247DC0248049C
:1046B300EC5D046005E8590470030247FA1247C52C
:1046C300580460F6EC4860F2EC7004FDFEFF22C86B
:1046D30060DB2481C85009C3986002500602480178
:1046E3009850CAF582E9294B4A7005AB820247F01C
:1046F30075F0007C1A7880C3EF9BEE9AED99400D1C
:10470300C3EF9BFFEE9AFEED99FDE842F0DC23AC8C
:10471300F0D0E0FFD0E0FED0E0FDAB8220E7101B3D
:10472300EB60BAEC2CFCEF33FFEE33FEED33FD020E
:1047330047DCE803F830E705C0F075F000EF2FFF22
:10474300EE33FEED33FD40B830E7C280AA75F020AA
:10475300800E75F010800575F0087D007E007F00E7
:104763003392D530D503124944EC334010EF33FF75
:10477300EE33FEED33FDEC33FCD5F0ED22E5F02412
:104783007EA2D513CC92E7CDCEFF22EDD2E7CD3377
:10479300EC3392D524814006E4FFFEFDFC22FCE4C9
:1047A300CFCECDCC24E0501174FF80EDC3CC13CC1D
:1047B300CD13CDCE13CECF13CF0470F030D5DE02A0
:1047C3004944E9D2E7C933E833F892D5EDD2E7CDCE
:1047D30033EC33FC5002B2D522EC30E7100FBF00AC
:1047E3000C0EBE00080DBD00040BEB6014A2D5EB4C
:1047F30013FCED92E7FD2274FFFCFDFEFF22E48033
:10480300F8A2D574FF13FC7D80E480EFEF8DF0A454
:10481300A8F0CF8CF0A428CE8DF0A42EFE22BC00ED
:104823000BBE0029EF8DF084FFADF022E4CCF875C8
:10483300F008EF2FFFEE33FEEC33FCEE9DEC9840D7
:1048430005FCEE9DFE0FD5F0E9E4CEFD22EDF8F573
:10485300F0EE8420D21CFEADF075F008EF2FFFEDD3
:1048630033FD4007985006D5F0F222C398FD0FD5CB
:10487300F0EA2275F008758200EF2FFFEE33FECDCC
:1048830033CDCC33CCC58233C5829BED9AEC99E50D
:104893008298400CF582EE9BFEED9AFDEC99FC0F9D
:1048A300D5F0D6E4CEFBE4CDFAE4CCF9A88222B865
:1048B30000C1B90059BA002DEC8BF084CFCECDFCEA
:1048C300E5F0CBF97818EF2FFFEE33FEED33FDEC77
:1048D30033FCEB33FB10D703994004EB99FB0FD860
:1048E300E5E4F9FA227818EF2FFFEE33FEED33FDFE
:1048F300EC33FCC933C910D7059BE99A4007EC9BFD
:10490300FCE99AF90FD8E0E4C9FAE4CCFB2275F08C
:1049130010EF2FFFEE33FEED33FDCC33CCC833C89D
:1049230010D7079BEC9AE899400AED9BFDEC9AFCA3
:10493300E899F80FD5F0DAE4CDFBE4CCFAE4C8F952
:1049430022C3E49FFFE49EFEE49DFDE49CFC22EB76
:104953009FF5F0EA9E42F0E99D42F0EC6480C86462
:10496300809845F022EB9FF5F0EA9E42F0E99D42E4
:10497300F0E89C45F0228F6AE4F56BF56CF56DF574
:104983006EF56FF5708569748568738567728566E2
:1049930071E509B40419AF74AE73AD72AC71E47B05
:1049A3000AFAF9F81248B28F748E738D728C71E51E
:1049B30009B40319AF74AE73AD72AC71E47B64FADE
:1049C300F9F81248B28F748E738D728C71E509D326
:1049D3009402501AAF74AE73AD72AC71E47BE87A93
:1049E30003F9F81248B28F748E738D728C71E511CE
:1049F30064016003024B7090717E93F56BF56CF567
:104A03006D907181E493F56EE47B64FAF9F8AF7409
:104A1300AE73AD72AC711248B2AC00AD01AE02AF71
:104A230003E47B0AFAF9F81248B2746C2FF5827426
:104A3300713EF583E493F56FE47B0AFAF9F8AF74FA
:104A4300AE73AD72AC711248B2746C2BF582747193
:104A53003AF583E493F570E47F64FEFDFCAB74AA3E
:104A630073A972A871C31249684038907181E493A5
:104A7300F56DE47BE87A03F9F8AF74AE73AD72AC0D
:104A8300711248B2AC00AD01AE02AF03E47B64FA2D
:104A9300F9F81248B2746C2FF58274713EF583E411
:104AA30093F56EE47FE87E03FDFCAB74AA73A972F1
:104AB300A871C31249684039907181E493F56CE49D
:104AC3007B107A27F9F8AF74AE73AD72AC711248EC
:104AD300B2AC00AD01AE02AF03E47BE87A03F9F8B0
:104AE3001248B2746C2FF58274713EF583E493F52A
:104AF3006DE47F107E27FDFCAB74AA73A972A871C5
:104B0300C3124968403A907181E493F56B7BA07AB4
:104B13008679017800AF74AE73AD72AC711248B28E
:104B2300AC00AD01AE02AF03E47B107A27F9F812B3
:104B330048B2746C2FF58274713EF583E493F56C7F
:104B4300E56AB40603024CE7E56AB40503024CF4D4
:104B5300E56AB40403024D01E56AB40303024D0E92
:104B6300E56AD394024003024D23024D1DE50A6416
:104B730001700590716C800490717EE493F56BF580
:104B83006CF56DF56EE47B64FAF9F8AF74AE73AD52
:104B930072AC711248B2AC00AD01AE02AF03E47B5C
:104BA3000AFAF9F81248B2746C2FF58274713EF563
:104BB30083E493F56FE47B0AFAF9F8AF74AE73AD4F
:104BC30072AC711248B2746C2BF58274713AF5832E
:104BD300E493F570E47F64FEFDFCAB74AA73A972E1
:104BE300A871C31249684031E47BE87A03F9F8AF4E
:104BF30074AE73AD72AC711248B2AC00AD01AE02CB
:104C0300AF03E47B64FAF9F81248B2746C2FF582AF
:104C130074713EF583E493F56EE47FE87E03FDFC57
:104C2300AB74AA73A972A871C31249684032E47BBA
:104C3300107A27F9F8AF74AE73AD72AC711248B243
:104C4300AC00AD01AE02AF03E47BE87A03F9F812DE
:104C530048B2746C2FF58274713EF583E493F56D5D
:104C6300E47F107E27FDFCAB74AA73A972A871C3FD
:104C730012496840337BA07A8679017800AF74AE1D
:104C830073AD72AC711248B2AC00AD01AE02AF03AA
:104C9300E47B107A27F9F81248B2746C2FF582740A
:104CA300713EF583E493F56C7FA07E867D017C00E5
:104CB300AB74AA73A972A871C312496840217BA07F
:104CC3007A8679017800AF74AE73AD72AC71124815
:104CD300B2746C2FF58274713EF583E493F56BE542
:104CE3006AB406087480256BF56B8034E56AB405F5
:104CF300087480256CF56C8027E56AB40408748019
:104D0300256DF56D801AE56AB403087480256EF588
:104D13006E800DE56AD3940250067480256FF56F9B
:104D2300856D7A856C7B856B7CAB6EAD6FAF7002E6
:104D330069778E658F66E51164017049D3E56694E2
:104D430046E56594005034AC65AD66E41247557B87
:104D5300487AE1790A78401246B3A804A905AA065D
:104D6300AB07E4FFFEFD7C421245BB12478E8E6704
:104D73008F68751301E4F51102507FE4F513F567AD
:104D8300F56802507FAC65AD66E41247557BCD7A7A
:104D9300CC794C78401246B3E4FBFAF978421245D9
:104DA300BF12478EAB07AA068A678B68C3EB9432A0
:104DB300EA9400401DEB24CEFFEA34FFFE9000315D
:104DC300E0FD7C00124821C3E5689FF568E5679E16
:104DD300F567C3EB946DEA9400401DEB2493FFEA5F
:104DE30034FFFE900030E0FD7C00124821C3E568EB
:104DF3009FF568E5679EF567C3EB94AEEA940040C0
:104E03001DEB2452FFEA34FFFE900032E0FD7C00EC
:104E1300124821C3E5689FF568E5679EF567C3EB14
:104E230094F8EA9400401DEB2408FFEA34FFFE9057
:104E33000033E0FD7C00124821C3E5689FF568E577
:104E4300679EF567C3EB9471EA9401401DEB248FD1
:104E5300FFEA34FEFE900034E0FD7C00124821C3DB
:104E6300E5689FF568E5679EF567C3EB94C8EA9428
:104E730001401DEB2438FFEA34FEFE900035E0FDCF
:104E83007C00124821C3E5689FF568E5679EF567D6
:104E9300C3EB944FEA9402401DEB24B1FFEA34FDC7
:104EA300FE900036E0FD7C00124821C3E5689FF5C3
:104EB30068E5679EF567C3EB941CEA9403401DEB1A
:104EC30024E4FFEA34FCFE900036E0FD7C00124847
:104ED30021C3E5689FF568E5679EF567C3EB94F228
:104EE300EA9403401DEB240EFFEA34FCFE900038E5
:104EF300E0FD7C00124821C3E5689FF568E5679EE5
:104F0300F567C3EB9426EA9405401DEB24DAFFEA28
:104F130034FAFE900036E0FD7C00124821C3E568B8
:104F23009FF568E5679EF567C3EB9484EA940640B2
:104F33001DEB247CFFEA34F9FE90003AE0FD7C008F
:104F4300124821C3E5689FF568E5679EF567C3EBE3
:104F5300946DEA9408401DEB2493FFEA34F7FE9026
:104F63000038E0FD7C00124821C3E5689FF568E541
:104F7300679EF567C3EB946DEA9409401DEB249398
:104F8300FFEA34F6FE90003AE0FD7C00124821C3AC
:104F9300E5689FF568E5679EF567C3EB9441EA947E
:104FA3000B401DEB24BFFFEA34F4FE900039E0FD13
:104FB3007C00124821C3E5689FF568E5679EF567A5
:104FC300C3EB94C9EA940C401DEB2437FFEA34F396
:104FD300FE90003DE0FD7C00124821C3E5689FF58B
:104FE30068E5679EF567C3EB9485EA940E401DEB75
:104FF300247BFFEA34F1FE90003EE0FD7C00124882
:1050030021C3E5689FF568E5679EF567C3EB941CCC
:10501300EA9411401DEB24E4FFEA34EEFE90003ED7
:10502300E0FD7C00124821C3E5689FF568E5679EB3
:10503300F567C3EB94D6EA9413401CEB242AFFEAEA
:1050430034ECFE90003EE0FD7C00124821EF256821
:10505300F568EE3567F567C3EB94B2EA9414401C28
:10506300EB244EFFEA34EBFE90003EE0FD7C0012A1
:105073004821EF2568F568EE3567F567AE67AF68D9
:10508300228E658F66E51164017049D3E568944605
:10509300E56794005034AC65AD66E41247557B4830
:1050A3007AE1790A78401246B3A804A905AA06ABA7
:1050B30007E4FFFEFD7C421245BB12478E8E678FCD
:1050C30068751301E4F5110253CDE4F513F567F5A3
:1050D300680253CDAC65AD66E41247557B717A3DEA
:1050E300794A78401246B3E4FBFAF978421245BF95
:1050F30012478EAB07AA068A678B68C3EB9445EA0F
:105103009400401DEB24C5FFEA34FFFE900021E02C
:10511300FD7C00124821C3E5689FF568E5679EF5AD
:1051230067C3EB946DEA9400401DEB2493FFEA34CC
:10513300FFFE900022E0FD7C00124821C3E5689F3A
:10514300F568E5679EF567C3EB9499EA9400401D03
:10515300EB2467FFEA34FFFE900023E0FD7C00129E
:105163004821C3E5689FF568E5679EF567C3EB943F
:10517300C7EA9400401DEB2439FFEA34FFFE900098
:1051830024E0FD7C00124821C3E5689FF568E567CC
:105193009EF567C3EB9411EA9401401DEB24F0FFE5
:1051A300EA34FEFE900025E0FD7C00124821C3E5B1
:1051B300689FF568E5679EF567C3EB947BEA940106
:1051C300401DEB2486FFEA34FEFE900023E0FD7CC5
:1051D30000124821C3E5689FF568E5679EF567C33C
:1051E300EA9402401DEB2401FFEA34FEFE90002600
:1051F300E0FD7C00124821C3E5689FF568E5679EE2
:10520300F567C3EB94A1EA9402401DEB2460FFEA27
:1052130034FDFE900027E0FD7C00124821C3E568C1
:105223009FF568E5679EF567C3EB9460EA940340D6
:105233001DEB24A1FFEA34FCFE900028E0FD7C0076
:10524300124821C3E5689FF568E5679EF567C3EBE0
:10525300944AEA9404401DEB24B7FFEA34FBFE9022
:105263000029E0FD7C00124821C3E5689FF568E54D
:10527300679EF567C3EB9462EA9405401DEB249F98
:10528300FFEA34FAFE90002AE0FD7C00124821C3B5
:10529300E5689FF568E5679EF567C3EB94A9EA9413
:1052A30006401DEB2458FFEA34F9FE90002BE0FD85
:1052B3007C00124821C3E5689FF568E5679EF567A2
:1052C300C3EB94B0EA9407401DEB2451FFEA34F892
:1052D300FE90002DE0FD7C00124821C3E5689FF598
:1052E30068E5679EF567C3EB94E6EA9408401DEB17
:1052F300241BFFEA34F7FE90002CE0FD7C001248EB
:1053030021C3E5689FF568E5679EF567C3EB9426BF
:10531300EA940A401DEB24DBFFEA34F5FE90002DEE
:10532300E0FD7C00124821C3E5689FF568E5679EB0
:10533300F567C3EB949BEA940B401DEB2466FFEAED
:1053430034F4FE90002EE0FD7C00124821C3E56892
:105353009FF568E5679EF567C3EB9448EA940D40B3
:105363001DEB241DFFEA34F3FE90002EE0FD7C00CC
:10537300124821C3E5689FF568E5679EF567C3EBAF
:105383009403EA940F401DEB24FEFFEA34F0FE90F1
:10539300002EE0FD7C00124821C3E5689FF568E517
:1053A300679EF567C3EB9456EA9411401DEB24AB5B
:1053B300FFEA34EEFE90002FE0FD7C00124821C38B
:1053C300E5689FF568E5679EF567AE67AF682212EB
:1053D30067C1BFC003752A04BF1006752A040256AD
:1053E300B67884E660030254C676101267158E5DA4
:1053F3008F5EE546B40124E511B4011FD3E55E9544
:1054030028E55D952740028047C3E528955EF55E54
:10541300E527955DF55DE4F5118053E546B4010696
:10542300E51170028009E5467013E511B4010EE53C
:1054330028255EF55EE527355DF55D8031E546702F
:105443002DE5117029C3E55E9528E55D9527400E8E
:10545300E55E9528F55EE55D9527F55D8010C3E56E
:1054630028955EF55EE527955DF55D751101D3E53C
:10547300229480E521940CAC57AD58AE5DAF5E40ED
:105483000F124821EF255EF55EEE355DF55D800E6A
:10549300124821C3E55E9FF55EE55D9EF55DAC5D5B
:1054A300AD5EE41247557BCD7ACC794C78401246F9
:1054B300B312478E8E5D8F5EE559B4010674FFF516
:1054C3005DF55E7883E660030255CCC3E55E7892B2
:1054D30096F55EE55D1896F55D78CCE6FFD394010D
:1054E300400D7E00AC5DAD5E12480F8E5D8F5E7821
:1054F30096E6FE08E6FFD3E55E9FE55D9E40048EDB
:105503005D8F5E7899E6FE08E6FFC3E55E9FE55D85
:105513009E50048E5D8F5E7881E6FE08E6FFD3E53C
:105523005E9FE55D9E40048E5D8F5E7893E6FE0888
:10553300E6FFC3E55E9FE55D9E50048E5D8F5E785A
:105543007FE6FE08E6FFD3E55E9FE55D9E40048EA1
:105553005D8F5E788EE6FE08E6FFC3E55E9FE55D40
:105563009E50048E5D8F5EE50A700E855E69855DD3
:1055730068F567F5667F01800DE4855E69855D6882
:10558300F567F566AF0812497978C9E67883F67846
:10559300A3E6B4011BC3E55E1896E55D1896400CBF
:1055A300D3E55E789F96E55D1896401DC2B48019D9
:1055B300D3E55E78A896E55D1896500BC3E55E18B3
:1055C30096E55D18965002D2B47888E67018208468
:1055D30007AF5EAE5D126E83208507AF5EAE5D12D0
:1055E3006DD5788876027885E67007126ABB788570
:1055F30076087887E660030256B678A0E6FFD39470
:105603000150030256B28F39753A06E4F53B788DA3
:10561300E6F53C855E3DE55DF53E126BF078A9A6A7
:105623000608A60718E6FE08E678CDF6FDEE78CA6A
:10563300F68D3FF540E538700A788DE6F5997538B3
:10564300018051E538B40108759906753802804424
:10565300E538B40208E4F5997538038037E538B4C2
:10566300030A788DE6F5997538048028E538B40483
:1056730008855E99753805801BE538B40509E55D35
:10568300F599753806800DE538B4060E78CDE6F544
:1056930099753807788776018011E538B4070C7857
:1056A300CAE6F599E4F5387887763BD29980047891
:1056B30087763BAE5DAF5E221267C1BFC003752A1A
:1056C30004BF1006752A0402599F7884E66003021A
:1056D30057AF76101267158E5D8F5EE546B40124D1
:1056E300E511B4011FC3E55E9528E55D95274002EA
:1056F3008047C3E528955EF55EE527955DF55DE496
:10570300F5118053E546B40106E51170028009E501
:10571300467013E511B4010EE528255EF55EE52715
:10572300355DF55D8031E546702DE5117029C3E5E2
:105733005E9528E55D9527400EE55E9528F55EE5C7
:105743005D9527F55D8010C3E528955EF55EE52739
:10575300955DF55D751101D3E5229400E52194195A
:10576300AC57AD58AE5DAF5E400F124821EF255EDA
:10577300F55EEE355DF55D800E124821C3E55E9F53
:10578300F55EE55D9EF55DAC5DAD5EE41247557B70
:10579300CD7ACC794C78401246B312478E8E5D8F0A
:1057A3005EE559B4010674FFF55DF55E7883E66046
:1057B300030258B5C3E55E789296F55EE55D1896EB
:1057C300F55D78CCE6FFD39401400D7E00AC5DAD72
:1057D3005E12480F8E5D8F5E7896E6FE08E6FFD375
:1057E300E55E9FE55D9E40048E5D8F5E7899E6FEE3
:1057F30008E6FFC3E55E9FE55D9E50048E5D8F5E08
:105803007881E6FE08E6FFD3E55E9FE55D9E4004F2
:105813008E5D8F5E7893E6FE08E6FFC3E55E9FE547
:105823005D9E50048E5D8F5E787FE6FE08E6FFD3B3
:10583300E55E9FE55D9E40048E5D8F5E788EE6FE9D
:1058430008E6FFC3E55E9FE55D9E50048E5D8F5EB7
:10585300E50A700E855E69855D68F567F5667F020A
:10586300800DE4855E69855D68F567F566AF0812AE
:10587300497978C9E67883F678A3E6B4011BC3E5D2
:105883005E1896E55D1896400CD3E55E789F96E525
:105893005D1896401DC2B48019D3E55E78A896E5DD
:1058A3005D1896500BC3E55E1896E55D1896500299
:1058B300D2B47888E67018208407AF5EAE5D126EAE
:1058C30083208507AF5EAE5D126DD578887602784A
:1058D30085E67007126ABB788576087887E66003E9
:1058E30002599F78A0E6FFD39401500302599B8F7E
:1058F30039753A06E4F53B788DE6F53C855E3DE582
:105903005DF53E126BF078A9A60608A60718E6FE19
:1059130008E678CDF6FDEE78CAF68D3FF540E5381A
:10592300700A788DE6F5997538018051E538B40130
:10593300087599067538028044E538B40208E4F521
:10594300997538038037E538B4030A788DE6F599FD
:105953007538048028E538B40408855E99753805E0
:10596300801BE538B40509E55DF599753806800DAA
:10597300E538B4060E78CDE6F5997538077887765D
:10598300018011E538B4070C78CAE6F599E4F538D7
:105993007887763BD29980047887763BAE5DAF5E9D
:1059A30022C28CAF89EF4401F589F589758CDCE45B
:1059B300F58AC28D75E50775E64675E6B9AFE2EF80
:1059C3004408F5E2F5E275E50675E64675E6B9D2F3
:1059D3008CA28DB340FBC28DC28C75E50775E6467C
:1059E30075E6B9AFE2EF4403F5E2F5E275E5067556
:1059F300E64675E6B975E50775E64675E6B9AFE2BD
:105A0300EF54FBF5E2F5E275E50675E64675E6B992
:105A13007593FFE4F5947580FFF5917592FFF5900A
:105A23007595247596FFF5A075B1ED75B21375B034
:105A33002C126EF7D296D2A2126F7F126E321270B0
:105A4300BB1270CB126FBB126A53E4FFFE126DD50B
:105A5300126F5FE4FFFE126E83E4FF127051E4F5F0
:105A630032FF126EABEF644E70227F01126EABBF3A
:105A7300451A7F02126EABBF57127F03126EABBF84
:105A83005A0A7F04126EABEF64A560297D4EE4FFD2
:105A9300126F1A7D457F01126F1A7D577F02126FB5
:105AA3001A7D5A7F03126F1A7DA57F04126F1A1293
:105AB3006B1E12649B126F5F7F06126EAB8F537F58
:105AC30007126EAB8F2C7F08126FD78E278F287F1C
:105AD3000A126FD78E218F227F0C126FD78E578FAA
