:07000000024F1D0200063251
:10000B0002541612570CC2A2125713C29602571360
:03001B0002510887
:100023000256CFE4F55EF55FF560F561F562F567BD
:10003300F568AD68AC67AF6012226BE532700302FE
:100043000ABE12509A8F5EE55E30E005756301804B
:1000530003E4F563E55E30E1057564018003E4F5CF
:1000630064E55E30E2057565018003E4F565E55EF0
:1000730030E3057566018003E4F566E563B40105C5
:100083000560E4F55FE560D394134005E4F560F59E
:1000930032E565B401080568E56870020567E56641
:1000A300B40108E568156870021567E560640170BE
:1000B30047E537FD7C00AF6012226BE5682537F515
:1000C30037E4F567F568E537C394044007E4F5378B
:1000D300F567F568E5646401600302003EAD377FB0
:1000E3001212553FE4FDFC7F1612226B7FC47E097A
:1000F3001255B7055F02003EE5606402703FE537C5
:10010300C394024005056002003EE554FD7C00AF48
:100113006012226BE5682554F554E4F567F568E54C
:1001230054C394024007E4F554F567F568E5646445
:1001330001600302003EAD547F13020790E5606443
:1001430003703CE5376005056002003EE568252E37
:10015300F52EE4F567F568E52EC394064007E4F54C
:100163002EF567F568E52EFD7C00AF6012226BE586
:10017300646401600302003EAD2E7F14020790E524
:1001830060C394045003020652E560D3940B40030A
:10019300020652787DE670737604124E71E54F25A0
:1001A300E02487F8A60608A607E54FC39408500481
:1001B300054F806A7998E7789626FF19E71836FE87
:1001C300EF1826FFEE1836FEEF1826FFEE1836FE60
:1001D300EF1826FFEE1836FEEF1826FFEE1836FE50
:1001E300EF1826FFEE1836FEEF1826FFEE1836FE40
:1001F300EF1826FFEE1836FE7C007D07123A617871
:1002030099A60608A607E4F54F8013E54F25E024D9
:1002130087F8E6FE08E6FF7899A60608A607E560D4
:1002230064047055E5376005056002003EE508B4D7
:1002330001057545018003E4F5457899E6FC08E678
:10024300FDAF6012226BE5646401600302003E7837
:1002530099E6F52608E6F527E545B40106E54244A7
:10026300018004E54254FEFD7F3212553F1255B31F
:10027300AD27AC267F16020708E56064056003021C
:100283000333E5376005056002003E7899E6FC0814
:10029300E6FDAF6012226BE5646401600302003E79
:1002A3007899E6F55908E6F55AFDAC597F181256C8
:1002B3008DE54564017020E55A2527FFE55935266C
:1002C300FED3EF94CAEE94C84002801FE55A252757
:1002D300FFE55935268032C3E55A9527FFE5599541
:1002E30026FED3EF94CAEE94C84014EF2436FDEEF5
:1002F3003437FC123A618E518F52434210801EC331
:10030300E55A9527FFE5599526FEC374CA9FFD74E8
:10031300C89EFC123A618E518F525342EFAD52ACDC
:10032300517F3412568D1255B3AD427F320207907E
:10033300E56064067057E5376401600505600200F7
:100343003EE508B401057545018003E4F545789958
:10035300E6FC08E6FDAF6012226BE564640160030E
:1003630002003E7899E6F54A08E6F54BE545B40107
:1003730006E54244028004E54254FDFD7F321255F6
:100383003F1255B3AD4BAC4A7F1A020708E56064D0
:10039300076003020440E53764016005056002005D
:1003A3003E7899E6FC08E6FDAF6012226BE56464D3
:1003B30001600302003E7899E6F54308E6F544FD43
:1003C300AC437F1C12568DE545B40130E544254B03
:1003D300FFE543354AFED3EF94E4EE94444009EF3E
:1003E300241CFDEE34BB8044E544254BFFE5433537
:1003F3004AFEC374E49FFD74449E8030C3E5449574
:100403004BFFE543954AFED3EF94E4EE9444400951
:10041300EF241CFDEE34BB8013C3E544954BFFE58D
:1004230043954AFEC374E49FFD74449EFC123A61F3
:100433008E3C8F3DAD3DAC3C7F36020708E56064E2
:10044300087057E53764026005056002003EE50861
:10045300B401057545018003E4F5457899E6FC0888
:10046300E6FDAF6012226BE5646401600302003EA7
:100473007899E6F53A08E6F53BE545B40106E54229
:1004830044048004E54254FBFD7F3212553F12556C
:10049300B3AD3BAC3A7F1E020708E5606409600315
:1004A300020549E53764026005056002003E78995C
:1004B300E6FC08E6FDAF6012226BE56464016003AD
:1004C30002003E7899E6F53308E6F534FDAC337F58
:1004D3002012568DE545B4012EE534253BFFE53367
:1004E300353AFED3EF9400EE947D4008E42FFDEE01
:1004F30034838041E534253BFFE533353AFEC3E4DD
:100503009FFD747D9E802EC3E534953BFFE53395B7
:100513003AFED3EF9400EE947D4008E42FFDEE34D1
:10052300838012C3E534953BFFE533953AFEC3E47C
:100533009FFD747D9EFC123A618E2C8F2DAD2DACE8
:100543002C7F38020708E560640A7057E5376403B7
:100553006005056002003EE508B4010575450180AC
:1005630003E4F5457899E6FC08E6FDAF6012226BDB
:10057300E5646401600302003E7899E6F52F08E61E
:10058300F530E545B40106E54244088004E54254EC
:10059300F7FD7F3212553F1255B3AD30AC2F7F229A
:1005A300020708E560640B600302003EE53764035D
:1005B3006005056002003E7899E6FC08E6FDAF6041
:1005C30012226BE5646401600302003E7899E6F54C
:1005D3002808E6F529FDAC287F2312568DE545B49E
:1005E300012EE5292530FFE528352FFED3EF9400B2
:1005F300EE94194008E42FFDEE34E78041E5292508
:1006030030FFE528352FFEC3E49FFD74199E802E2D
:10061300C3E5299530FFE528952FFED3EF9400EE2F
:1006230094194008E42FFDEE34E78012C3E52995C1
:1006330030FFE528952FFEC3E49FFD74199EFC123D
:100643003A618E238F24AD24AC237F3A020708E559
:1006530060640C7056AE67AF68FC7D0A123A4FEFC8
:100663002549F549EE3548F548E4F567F568AD49A0
:10067300AC48AF6012226BE56564016009E566640E
:1006830001600302003ED3E549940FE548942740F7
:1006930009E4F567F568F548F549E5646401600325
:1006A30002003EAD49AC487F26805AE560640D7078
:1006B3005AAE67AF68FC7D0A123A4FEF2547F547FC
:1006C300EE3546F546E4F567F568AD47AC46AF60F1
:1006D30012226BE56564016009E56664016003024B
:1006E300003ED3E547940FE54694274009E4F567B8
:1006F300F568F546F547E5646401600302003EAD25
:1007030047AC467F2812568D020A98E560640E6056
:1007130003020796C3E56894C8E56794004020E5A3
:100723004E7005754E998040E54E540F700CE54EA2
:1007330024F054F04409F54E8002154EE48029E577
:1007430068640145677025E54EC3949A4005E4F556
:100753004E8015E54E540FFFBF090AE54E24105491
:10076300F0F54E8002054EE4F567F568E4254EFD8D
:10077300E43420FCAF6012226BE564640160030281
:10078300003EAD4E7F0612555DAD4E7F2A12553F9A
:10079300020A98E560640F707CC3E56894C8E56756
:1007A30094004022E55BD394015005755B12803CB5
:1007B300E55B540F700CE55B24F054F04409F55BE2
:1007C3008002155B8026E568640145677023E55B5D
:1007D300B41205755B018014E55B540FFFBF090A72
:1007E300E55B241054F0F55B8002055BE4F567F5E7
:1007F30068E55BFD7C00AF6012226BE56464016019
:100803000302003EAD5B7F0512555DAD5B7F2B128E
:10081300553F020A98E56064106003020998C3E536
:100823006894C8E567940050030208CDE555B40108
:1008330011E55BB4020CE54E5403700675552902AD
:100843000970E555B40112E55BB4020DE54E54039E
:100853006007755528E4020970E55564017030E5B9
:100863005B64016023E55B6403601DE55B64056015
:1008730017E55B64076011E55B6408600BE55B6487
:10088300106005E55BB41207755531E4020970E5A4
:1008930055B4011EE55B64046011E55B6406600BFF
:1008A300E55B64096005E55BB41107755530E40247
:1008B3000970E555540F700CE55524F054F04409C4
:1008C300F55580021555E4020970E5686401456732
:1008D3006003020974E55BB40212E54E5403700C25
:1008E300E555B42907755501E4020970E55BB402C7
:1008F30011E54E5403600BE555B42806755501E424
:10090300806BE55B64016023E55B6403601DE55B6D
:1009130064056017E55B64076011E55B6408600BC1
:10092300E55B64106005E55BB4120BE555B4310675
:10093300755501E48037E55B64046011E55B64068B
:10094300600BE55B64096005E55BB4110BE555B429
:100953003006755501E48015E555540FFFBF090AAC
:10096300E555241054F0F55580020555E4F567F577
:1009730068E555FD7C00AF6012226BE5646401609D
:100983000302003EAD557F0412555DAD557F2C1219
:10099300553F020A98E5606411707AC3E56894C80C
:1009A300E56794004020E5567005755623803EE5C3
:1009B30056540F700CE55624F054F04409F5568054
:1009C300021556E48027E568640145677023E55600
:1009D300B42305E4F5568015E556540FFFBF090A05
:1009E300E556241054F0F55680020556E4F567F5F4
:1009F30068E556FD7C00AF6012226BE5646401601C
:100A03000302003EAD567F0212555DAD567F2E1296
:100A1300553F020A98E56064126003020AACC3E51D
:100A23006894C8E56794004020E5577005755759E9
:100A3300803EE557540F700CE55724F054F04409F9
:100A4300F55780021557E48027E568640145677010
:100A530023E557B45905E4F5578015E557540FFFBF
:100A6300BF090AE557241054F0F55780020557E4EF
:100A7300F567F568E557FD7C00AF6012226BE5640E
:100A83006401600302003EAD577F0112555DAD570F
:100A93007F2F12553F055FE4FDFC7F1612226B7F0B
:100AA300C47E091255B702003EE560C39414500397
:100AB30002003EE4F560F53202003E024FA98E6269
:100AC3008F63856264856365E4F509E508640170F5
:100AD30055D3E5659455E5649404AC62AD63502346
:100AE300E41239957BA47A70795D78401238F3A8C3
:100AF30004A905AA06AB07E4FFFE7DA07C431237D9
:100B0300FB8019E41239957BA47A70795D784012E1
:100B130038F3E4FBFA79A078C31237FF1239CE8E8B
:100B2300648F6502130DAC62AD63E41239957BA447
:100B33007A70795D78401238F3E4FBFA79A0784350
:100B43001237FF1239CE8E648F65D3E5639486E541
:100B5300629404401FE56324B4FFE56234FBFE9016
:100B63000007E0FD7C00123A61C3E5659FF565E58A
:100B7300649EF564D3E56394C4E5629409401FE57C
:100B830063246EFFE56234F6FE900008E0FD7C000E
:100B9300123A61C3E5659FF565E5649EF564D3E5A7
:100BA300639484E5629412401FE56324A4FFE56225
:100BB30034EDFE900007E0FD7C00123A61C3E56569
:100BC3009FF565E5649EF564D3E5639402E562945D
:100BD30017401FE563241CFFE56234E9FE9000091A
:100BE300E0FD7C00123A61C3E5659FF565E5649E0F
:100BF300F564D3E5639472E562941F401FE56324B3
:100C0300ACFFE56234E0FE900009E0FD7C00123A9F
:100C130061C3E5659FF565E5649EF564D3E563947B
:100C230030E562942A401FE5632402FFE56234D66F
:100C3300FE900009E0FD7C00123A61C3E5659FF573
:100C430065E5649EF564D3E5639426E562943440D8
:100C53001FE563240CFFE56234CCFE90000AE0FD3F
:100C63007C00123A61C3E5659FF565E5649EF56412
:100C7300D3E563948CE562943C401FE563247EFFD7
:100C8300E56234C3FE90000AE0FD7C00123A61C3C2
:100C9300E5659FF565E5649EF564D3E56394ACE58E
:100CA30062943F401EE5632486FFE56234C0FE90F4
:100CB300000AE0FD7C00123A61EF2565F565EE352B
:100CC30064F564D3E5639430E5629443401FE563C0
:100CD3002402FFE56234BDFE900009E0FD7C0012B2
:100CE3003A61C3E5659FF565E5649EF564D3E56305
:100CF3009450E562944B401EE56324BAFFE56234E9
:100D0300B4FE90000AE0FD7C00123A61EF2565F520
:100D130065EE3564F564D3E56394E8E562944E408B
:100D23001FE563244AFFE56234B1FE900009E0FD4C
:100D33007C00123A61C3E5659FF565E5649EF56441
:100D4300D3E563948CE562945A401FE56324B0FFB6
:100D5300E56234A5FE90000AE0FD7C00123A61C30F
:100D6300E5659FF565E5649EF564D3E5639404E565
:100D7300629460401EE5632424FFE56234A0FE9084
:100D8300000BE0FD7C00123A61EF2565F565EE3559
:100D930064F564D3E5639470E5629467401FE5638B
:100DA30024B8FFE5623498FE90000AE0FD7C00124F
:100DB3003A61C3E5659FF565E5649EF564D3E56334
:100DC3009478E562946E401EE56324B0FFE56234D7
:100DD30091FE90000BE0FD7C00123A61EF2565F572
:100DE30065EE3564F564D3E5639436E56294744047
:100DF3001FE56324FCFFE562348BFE90000AE0FDEF
:100E03007C00123A61C3E5659FF565E5649EF56470
:100E1300AE62AF63E4FCFD7B907A83F9F8C3123AC8
:100E2300C4502BE5632498FFE562347CFEE434FF71
:100E3300FDE434FFFCC00790000AE0FBE4FAF8D0BD
:100E4300071251BAEF2565F565EE3564F564AE62B8
:100E5300AF63E4FCFD7BB07A86F9F8C3123AC45061
:100E63002CE5632478FFE5623479FEE434FFFDE486
:100E730034FFFCC007900009E0FBE4FAF8D0071246
:100E830051BAC3E5659FF565E5649EF564AE62AF4F
:100E930063E4FCFD7B807A8EF9F8C3123AC4502BCD
:100EA300E56324A8FFE5623471FEE434FFFDE43416
:100EB300FFFCC00790000BE0FBE4FAF8D0071251E7
:100EC300BAEF2565F565EE3564F564AE62AF63E4AC
:100ED300FCFD7B447A93F9F8C3123AC4502CE563C2
:100EE30024EEFFE562346CFEE434FFFDE434FFFCE2
:100EF300C00790000BE0FBE4FAF8D0071251BAC325
:100F0300E5659FF565E5649EF564AE62AF63E4FC59
:100F1300FD7B987A9EF9F8C3123AC4502BE56324FB
:100F23009AFFE5623461FEE434FFFDE434FFFCC064
:100F33000790000BE0FBE4FAF8D0071251BAEF2553
:100F430065F565EE3564F564AE62AF63E4FCFD7B85
:100F5300F07AA0F9F8C3123AC4502CE5632442FF97
:100F6300E562345FFEE434FFFDE434FFFCC0079028
:100F7300000BE0FBE4FAF8D0071251BAC3E5659F12
:100F8300F565E5649EF564AE62AF63E4FCFD7B0446
:100F93007AA6F9F8C3123AC4502BE563242EFFE571
:100FA30062345AFEE434FFFDE434FFFCC0079000D2
:100FB3000BE0FBE4FAF8D0071251BAEF2565F565AB
:100FC300EE3564F564AE62AF63E4FCFD7BD47AADC9
:100FD300F9F8C3123AC4502CE563245EFFE562348A
:100FE30052FEE434FFFDE434FFFCC00790000BE045
:100FF300FBE4FAF8D0071251BAC3E5659FF565E53E
:10100300649EF564AE62AF63E4FCFD7B547ABAF987
:10101300F8C3123AC4502BE56324DEFFE56234457E
:10102300FEE434FFFDE434FFFCC00790000AE0FB5C
:10103300E4FAF8D0071251BAEF2565F565EE356489
:10104300F564AE62AF63E4FCFD7B767AC0F9F8C366
:10105300123AC4502CE563249EFFE562343FFEE45C
:1010630034FFFDE434FFFCC007900007E0FBE4FA23
:10107300F8D0071251BAC3E5659FF565E5649EF59F
:1010830064AE62AF63E4FCFD7B507AC3F9F8C3122C
:101093003AC4502BE56324C4FFE562343CFEE434D8
:1010A300FFFDE434FFFCC007900007E0FBE4FAF81F
:1010B300D0071251BAEF2565F565EE3564F564AED8
:1010C30062AF63E4FCFD7B947ACAF9F8C3123AC4B5
:1010D300502CE5632494FFE5623435FEE434FFFDD0
:1010E300E434FFFCC00790000BE0FBE4FAF8D00700
:1010F3001251BAC3E5659FF565E5649EF564AE627A
:10110300AF63E4FCFD7B507ACDF9F8C3123AC450C7
:101113002BE56324D8FFE5623432FEE434FFFDE4BB
:1011230034FFFCC00790000BE0FBE4FAF8D0071291
:1011330051BAEF2565F565EE3564F564AE62AF63CC
:10114300E4FCFD7B387AD1F9F8C3123AC4502CE59C
:101153006324F0FFE562342EFEE434FFFDE434FF44
:10116300FCC00790000BE0FBE4FAF8D0071251BA79
:10117300C3E5659FF565E5649EF564AE62AF63E420
:10118300FCFD7BB07AD6F9F8C3123AC4502BE56361
:101193002478FFE5623429FEE434FFFDE434FFFCE8
:1011A300C00790000BE0FBE4FAF8D0071251BAEF46
:1011B3002565F565EE3564F564AE62AF63E4FCFD69
:1011C3007B307AE3F9F8C3123AC4502BE56324F871
:1011D300FFE562341CFEE434FFFDE434FFFCC0078A
:1011E30090000BE0FBE4FAF8D0071251BAEF256543
:1011F300F565EE3564F564AE62AF63E4FCFD7B8CAC
:101203007AE6F9F8C3123AC4502CE5632488FFE563
:10121300623419FEE434FFFDE434FFFCC0079000A0
:1012230009E0FBE4FAF8D0071251BAC3E5659FF56C
:1012330065E5649EF564AE62AF63E4FCFD7B9C7A76
:10124300EAF9F8C3123AC4502BE563248CFFE56234
:101253003415FEE434FFFDE434FFFCC00790000BBB
:10126300E0FBE4FAF8D0071251BAEF2565F565EE15
:101273003564F564AE62AF63E4FCFD7B347AF3F965
:10128300F8C3123AC4502CE56324F4FFE562340C2E
:10129300FEE434FFFDE434FFFCC00790000BE0FBE9
:1012A300E4FAF8D0071251BAC3E5659FF565E56422
:1012B3009EF564AE62AF63E4FCFD7BFC7AF3F9F860
:1012C300C3123AC4502BE563242CFFE562340CFEB1
:1012D300E434FFFDE434FFFCC00790000AE0FBE4C4
:1012E300FAF8D0071251BAEF2565F565EE3564F5C6
:1012F30064AE62AF63E4FCFD7BB07AFA7909F8C3AC
:10130300123AC45005E4F564F565AE64AF65228E08
:10131300628F63E4F509E508640160030213B8D33F
:10132300E5639417E5629403AC62AD63504AE4123B
:1013330039957BE17A7A791478401238F3A804A9B5
:1013430005AA06AB07E4FFFE7DA07C431237FB1220
:1013530039CE8E648F65C374E79563FFE49562FEAF
:101363007C007D18123A61C3E5659FF565E5649ECF
:10137300F564E4F508021AD6E41239957BE17A7A2A
:10138300791478401238F3E4FBFA79A078C3123762
:10139300FF1239CE8E648F65E56324E7FFE435627F
:1013A300FE7C007D18123A61EF2565F565EE356424
:1013B300F564021AD6AC62AD63E41239957BE17A27
:1013C3007A791478401238F3E4FBFA79A07843125F
:1013D30037FF1239CE8E648F65D3E56394F8E562E7
:1013E3009402401FE5632426FFE56234FDFE90006E
:1013F3001BE0FD7C00123A61C3E5659FF565E5647A
:101403009EF564D3E56394D0E5629407401FE563DA
:101413002462FFE56234F8FE90001DE0FD7C0012BB
:101423003A61C3E5659FF565E5649EF564D3E563BD
:101433009460E562940C401EE56324B2FFE56234D8
:10144300F3FE90001DE0FD7C00123A61EF2565F587
:1014530065EE3564F564D3E56394DEE562940D408F
:101463001FE5632454FFE56234F2FE90001DE0FDA6
:101473007C00123A61C3E5659FF565E5649EF564FA
:10148300D3E56394F2E5629412401EE5632440FFC2
:10149300E56234EDFE90001CE0FD7C00123A61EF42
:1014A3002565F565EE3564F564D3E5639444E5623B
:1014B300941B401EE563240CFFE56234E5FE9000B7
:1014C3001DE0FD7C00123A61EF2565F565EE35649C
:1014D300F564D3E563947FE5629424401FE56324B8
:1014E300FCFFE56234DBFE90001EE0FD7C00123A57
:1014F30061C3E5659FF565E5649EF564D3E5639493
:10150300B4E5629428401FE5632488FFE56234D77D
:10151300FE90001DE0FD7C00123A61C3E5659FF576
:1015230065E5649EF564D3E56394FCE5629430401D
:101533001FE563242CFFE56234CFFE90001EE0FD1F
:101543007C00123A61C3E5659FF565E5649EF56429
:10155300D3E56394AAE5629437401FE5632488FFCB
:10156300E56234C8FE90001FE0FD7C00123A61C3BF
:10157300E5659FF565E5649EF564D3E56394A0E5B1
:10158300629441401FE5632492FFE56234BEFE90FE
:10159300001FE0FD7C00123A61C3E5659FF565E538
:1015A300649EF564D3E563944AE5629447401EE57F
:1015B3006324E8FFE56234B8FE90001FE0FD7C0081
:1015C300123A61EF2565F565EE3564F564D3E5639D
:1015D30094FAE562944B401FE5632438FFE56234D7
:1015E300B4FE90001EE0FD7C00123A61C3E5659FE6
:1015F300F565E5649EF564D3E56394CAE5629453A7
:10160300401FE5632468FFE56234ACFE90001FE0F1
:10161300FD7C00123A61C3E5659FF565E5649EF5BF
:1016230064D3E5639488E5629459401EE56324C856
:10163300FFE56234A6FE90001EE0FD7C00123A61D5
:10164300EF2565F565EE3564F564D3E5639406E54A
:10165300629463401FE563242CFFE562349DFE9092
:10166300001FE0FD7C00123A61C3E5659FF565E567
:10167300649EF564D3E56394ECE5629468401EE5EB
:10168300632450FFE5623497FE90001EE0FD7C006A
:10169300123A61EF2565F565EE3564F564D3E563CC
:1016A3009458E5629470401EE56324ACFFE5623410
:1016B30090FE90001FE0FD7C00123A61EF2565F576
:1016C30065EE3564F564D3E563945CE56294764036
:1016D3001FE5632408FFE562348AFE90001FE0FDE6
:1016E3007C00123A61C3E5659FF565E5649EF56488
:1016F300D3E5639476E562947A401EE56324EEFFB6
:10170300E5623485FE90001DE0FD7C00123A61EF36
:101713002565F565EE3564F564AE62AF63E4FCFD03
:101723007B9E7A84F9F8C3123AC4502BE563249460
:10173300FFE562347BFEE434FFFDE434FFFCC007C5
:1017430090001FE0FBE4FAF8D0071251BAEF2565C9
:10175300F565EE3564F564AE62AF63E4FCFD7B6E64
:101763007A8CF9F8C3123AC4502BE56324C4FFE51D
:10177300623473FEE434FFFDE434FFFCC0079000E1
:101783001EE0FBE4FAF8D0071251BAEF2565F565C0
:10179300EE3564F564AE62AF63E4FCFD7BBA7A9028
:1017A300F9F8C3123AC4502BE5632478FFE5623499
:1017B3006FFEE434FFFDE434FFFCC00790001FE03C
:1017C300FBE4FAF8D0071251BAEF2565F565EE355B
:1017D30064F564AE62AF63E4FCFD7BEE7A98F9F8DE
:1017E300C3123AC4502BE5632444FFE5623467FE19
:1017F300E434FFFDE434FFFCC00790001FE0FBE48A
:10180300FAF8D0071251BAEF2565F565EE3564F5A0
:1018130064AE62AF63E4FCFD7B667A9EF9F8C312A3
:101823003AC4502BE56324CCFFE5623461FEE43413
:10183300FFFDE434FFFCC00790001FE0FBE4FAF86F
:10184300D0071251BAEF2565F565EE3564F564AE40
:1018530062AF63E4FCFD7BA67AA4F9F8C3123AC431
:10186300502BE56324F0FFE562345BFEE434FFFDB7
:10187300E434FFFCC00790001FE0FBE4FAF8D00754
:101883001251BAEF2565F565EE3564F564AE62AFC6
:1018930063E4FCFD7BBA7AA9F9F8C3123AC4502B6E
:1018A300E5632478FFE5623456FEE434FFFDE43457
:1018B300FFFCC00790001FE0FBE4FAF8D0071251C9
:1018C300BAEF2565F565EE3564F564AE62AF63E4A2
:1018D300FCFD7B967AAFF9F8C3123AC4502AE4258B
:1018E30063FFE5623451FEE434FFFDE434FFFCC0E2
:1018F3000790001EE0FBE4FAF8D0071251BAEF2577
:1019030065F565EE3564F564AE62AF63E4FCFD7BBB
:101913003A7AB6F9F8C3123AC4502BE56324F8FFB8
:10192300E5623449FEE434FFFDE434FFFCC0079074
:10193300001EE0FBE4FAF8D0071251BAEF2565F573
:1019430065EE3564F564AE62AF63E4FCFD7B7A7AE1
:10195300BCF9F8C3123AC4502BE56324B8FFE5621F
:101963003443FEE434FFFDE434FFFCC00790001D64
:10197300E0FBE4FAF8D0071251BAEF2565F565EEFE
:101983003564F564AE62AF63E4FCFD7BDA7AC5F9D6
:10199300F8C3123AC4502BE5632458FFE562343A86
:1019A300FEE434FFFDE434FFFCC00790001CE0FBC1
:1019B300E4FAF8D0071251BAEF2565F565EE356400
:1019C300F564AE62AF63E4FCFD7B467ACDF9F8C300
:1019D300123AC4502BE56324ECFFE5623432FEE493
:1019E30034FFFDE434FFFCC00790001CE0FBE4FA85
:1019F300F8D0071251BAEF2565F565EE3564F56445
:101A0300AE62AF63E4FCFD7B2E7AD1F9F8C3123AE0
:101A1300C4502BE5632404FFE562342FFEE434FF56
:101A2300FDE434FFFCC00790001EE0FBE4FAF8D0AD
:101A3300071251BAEF2565F565EE3564F564AE62BC
:101A4300AF63E4FCFD7B0A7AD7F9F8C3123AC450BA
:101A53002BE5632428FFE5623429FEE434FFFDE42B
:101A630034FFFCC00790001CE0FBE4FAF8D0071237
:101A730051BAEF2565F565EE3564F564AE62AF6383
:101A8300E4FCFD7B1E7ADCF9F8C3123AC4502BE563
:101A9300632414FFE5623424FEE434FFFDE434FFE1
:101AA300FCC00790001DE0FBE4FAF8D0071251BA1E
:101AB300EF2565F565EE3564F564AE62AF63E4FC6E
:101AC300FD7B487AEEF9F8C3123AC4500674FFF569
:101AD30064F565AE64AF6522E4F562F563F564F51C
:101AE30065F566F5678C688D69E508640160030236
:101AF3001CACC3E569940AE5689400503F90578293
:101B0300E493F562F563F564E537B4030A9057850A
:101B1300E493F564021CC7E50964016005E537B485
:101B2300020D905782E493F565905785021D00904E
:101B33005785E493F56590578C021D00C3E56994BE
:101B43000AE5689400403FE5699464E568940050B1
:101B530035905782E493F562F563F564E5376403E2
:101B6300700C90578593F56490578C021D7FE5099F
:101B730064016006E53764027006905785021D7F95
:101B8300905785021DB8C3E5699464E568940040E5
:101B930038E56994E8E5689403502E905782E493FE
:101BA300F562F563905785E493F564E53764037054
:101BB30003021E1AE50964017003021E7DE5376402
:101BC300026003021ED5021E7DC3E56994E8E56841
:101BD3009403404FE5699410E56894275045905766
:101BE30082E493F562905785E493F563AE68AF6939
:101BF3007C037DE8123A6174702FF58274573EF5C9
:101C030083E493F564E53764037003021F70E50909
:101C130064017003021FE1E537640260030220469A
:101C2300021FE1C3E5699410E5689427500302227B
:101C330056AE68AF69E4FCFD7BA07A867901F8D3E0
:101C4300123AC45003022256905785E493F562AECC
:101C530068AF697C277D10123A6174702FF5827426
:101C6300573EF583E493F563AE68AF697C277D1037
:101C7300123A617E037FE8CFCDCFCECCCE123A614C
:101C830074702FF58274573EF583E493F564E5375A
:101C930064037003021F70E50964016006E537649D
:101CA300027003021FE1022046C3E569940AE56856
:101CB30094005055905782E493F562F563F564E51B
:101CC30037B4031390578CE493F565905770E493FE
:101CD300F566E569022253E50964016005E537B459
:101CE3000211905782E493F565F566E569905770A4
:101CF300022253905782E493F56590578CE493F551
:101D030066E569905770022253C3E569940AE56852
:101D130094005003021DEEE5699464E56894004065
:101D230003021DEE905782E493F562F563F564E5D3
:101D3300376403703890578C93F565AE68AF697C50
:101D4300007D0A123A6174702FF58274573EF58351
:101D5300E493F566AE68AF697C007D0A123A61745C
:101D6300702DF58274573CF583E4022253E5096430
:101D7300016006E53764027039905782E493F56594
:101D8300AE68AF697C007D0A123A6174702FF582E8
:101D930074573EF583E493F566AE68AF697C007DC6
:101DA3000A123A6174702DF58274573CF583E4028C
:101DB3002253905782E493F565AE68AF697C007D4A
:101DC3000A123A61748C2FF58274573EF583E493BB
:101DD300F566AE68AF697C007D0A123A6174702DB6
:101DE300F58274573CF583E4022253C3E569946496
:101DF300E56894005003021F2DE56994E8E56894B3
:101E0300034003021F2D905782E493F562F563F5B7
:101E130064E53764037057AE68AF69FC7D64123ABA
:101E230061748C2FF58274573EF583E493F565AEA8
:101E330068AF697C007D64123A617E007F0ACFCD72
:101E4300CFCECCCE123A6174702FF58274573EF523
:101E530083E493F566AE68AF697C007D0A123A614C
:101E630074702DF58274573CF583E4022253E5091F
:101E730064016006E53764027058AE68AF697C00A0
:101E83007D64123A6174702FF58274573EF583E4D2
:101E930093F565AE68AF697C007D64123A617E009C
:101EA3007F0ACFCDCFCECCCE123A6174702FF5829C
:101EB30074573EF583E493F566AE68AF697C007DA5
:101EC3000A123A6174702DF58274573CF583E4026B
:101ED3002253AE68AF697C007D64123A6174702F3F
:101EE300F58274573EF583E493F565AE68AF697C7C
:101EF300007D64123A617E007F0ACFCDCFCECCCE77
:101F0300123A61748C2FF58274573EF583E493F58E
:101F130066AE68AF697C007D0A123A6174702DF574
:101F23008274573CF583E4022253C3E56994E8E5E0
:101F330068940350030220ABE5699410E568942785
:101F430040030220AB905782E493F562F563AE68D9
:101F5300AF697C037DE8123A6174702FF582745780
:101F63003EF583E493F564E53764037065AE68AFCB
:101F7300697C037DE8123A617E007F64CFCDCFCECA
:101F8300CCCE123A61748C2FF58274573EF583E4FC
:101F930093F565AE68AF697C007D64123A617E009B
:101FA3007F0ACFCDCFCECCCE123A6174702FF5829B
:101FB30074573EF583E493F566AE68AF697C007DA4
:101FC3000A123A6174702DF58274573CF583E4026A
:101FD3002253E50964016006E53764027065AE6863
:101FE300AF697C037DE8123A617E007F64CFCDCF79
:101FF300CECCCE123A6174702FF58274573EF583BE
:10200300E493F565AE68AF697C007D64123A617E46
:10201300007F0ACFCDCFCECCCE123A6174702FF5AC
:102023008274573EF583E493F566AE68AF697C002E
:102033007D0A123A6174702DF58274573CF583E47E
:10204300022253AE68AF697C037DE8123A617E00D9
:102053007F64CFCDCFCECCCE123A6174702FF58290
:1020630074573EF583E493F565AE68AF697C007DF4
:1020730064123A617E007F0ACFCDCFCECCCE123A26
:1020830061748C2FF58274573EF583E493F566AE45
:1020930068AF697C007D0A123A6174702DF5827411
:1020A300573CF583E4022253C3E5699410E5689431
:1020B300275003022256AE68AF69E4FCFD7BA07A89
:1020C300867901F8D3123AC45003022256905782FC
:1020D300E493F562AE68AF697C277D10123A6174B0
:1020E300702FF58274573EF583E493F563AE68AFC2
:1020F300697C277D10123A617E037FE8CFCDCFCE76
:10210300CCCE123A6174702FF58274573EF583E496
:1021130093F564E53764037065AE68AF697C037D4E
:10212300E8123A617E007F64CFCDCFCECCCE123A97
:1021330061748C2FF58274573EF583E493F565AE95
:1021430068AF697C007D64123A617E007F0ACFCD5F
:10215300CFCECCCE123A6174702FF58274573EF510
:1021630083E493F566AE68AF697C007D0A123A6139
:1021730074702DF58274573CF583E4022253E5090C
:1021830064016006E53764027064AE68AF697C037E
:102193007DE8123A617E007F64CFCDCFCECCCE12E4
:1021A3003A6174702FF58274573EF583E493F565B5
:1021B300AE68AF697C007D64123A617E007F0ACF0E
:1021C300CDCFCECCCE123A6174702FF58274573EC8
:1021D300F583E493F566AE68AF697C007D0A123A35
:1021E3006174702DF58274573CF583E48062AE68A8
:1021F300AF697C037DE8123A617E007F64CFCDCF67
:10220300CECCCE123A6174702FF58274573EF583AB
:10221300E493F565AE68AF697C007D64123A617E34
:10222300007F0ACFCDCFCECCCE123A61748C2FF57E
:102233008274573EF583E493F566AE68AF697C001C
:102243007D0A123A6174702DF58274573CF583E46C
:1022530093F56785657885647985637A85627BAB59
:1022630066AD677F01024C3B8C698D6A8F6BAF6AE9
:10227300AE69E56B702890578193FFF56C905770AA
:10228300E493F56D905782E493F56E905775E4935C
:10229300F56F90577EE493F5708F7102293BE56BE0
:1022A3006401600302234BEF4E702290578193F534
:1022B3006C905771E493F56D905782E493F56EF546
:1022C3006F905787E493F570A3E493F571EF64017E
:1022D3004E702990578193F56C905771E493F56D87
:1022E300905782E493F56E905789E493F56F905776
:1022F30087E493F57090577DE493F571EF64024E94
:10230300701F90578193F56C905771E493F56D901E
:102313005782E493F56EF56FF570905786E493F565
:1023230071EF64034E600302293B90578193F56C70
:10233300905771E493F56D905782E493F56EF56FC2
:10234300F57090577A022836E56B64027049EF4EB8
:10235300701E90578193F56C905772E493F56D90CE
:102363005782E493F56EF56FF57090577C0228362B
:10237300EF64014E600302293B90578193F56C9003
:102383005772E493F56D905782E493F56EF56FF50C
:102393007090577F022836E56B6403600302249133
:1023A300EF4E701B90578193F56C905773E493F540
:1023B3006D905782E493F56EF56F757074F571EF58
:1023C30064014E702490578193F56C905773E49396
:1023D300F56D905782E493F56EF56F90578BE49308
:1023E300F570905782E493F571EF64024E70249078
:1023F300578193F56C905773E493F56D905782E48E
:1024030093F56EF56F905787E493F570905782E4D8
:1024130093F571EF64034E702490578193F56C909C
:102423005773E493F56D905782E493F56EF56F90CF
:10243300577EE493F570905782E493F571EF64044B
:102443004E702490578193F56C905773E493F56D18
:10245300905782E493F56EF56F905789E493F57086
:10246300905782E493F571EF64054E600302293BB4
:1024730090578193F56C905773E493F56D90578261
:10248300E493F56EF56F75706DF57102293BE56B9D
:10249300C39404500302283AE56BD3940D4003021E
:1024A300283A856973856A74E56BB4040590578788
:1024B300803AE56BB405059057878041E56BB40618
:1024C300059057898026E56BB40705905789802DC1
:1024D300E56BB408059057868012E56BB409059047
:1024E30057868019E56BB40A0C90577AE493F56C20
:1024F300756D5C8039E56BB40B0C90577AE493F5FA
:102503006C756D6D8028E56BB40C1090577AE4936D
:10251300F56C905784E493F56D8013E56BB40D115E
:1025230090577AE493F56C905780E493F56DE4F556
:1025330072C3E57394004040E574940AE573940014
:102543005036905782E493F56EF56FE5727009E5A6
:1025530009700590578C8004905770E493F570AE22
:1025630073AF747C007D0A123A6174702DF5827426
:10257300573CF583E493F571C3E574940AE57394CA
:10258300004060E5749464E573940050569057825C
:10259300E493F56EF56FE5727017E5097013AE738A
:1025A300AF74FC7D0A123A61748C2FF582745780E4
:1025B30012AE73AF747C007D0A123A6174702FF50A
:1025C3008274573EF583E493F570AE73AF747C0069
:1025D3007D0A123A6174702DF58274573CF583E4D9
:1025E30093F571C3E5749464E57394005003022674
:1025F30088E57494E8E573940340030226889057B2
:1026030082E493F56EAE73AF747C007D64123A611D
:1026130074702FF58274573EF583E493F56FE5727A
:102623007024E5097020AE73AF74FC7D64123A61C7
:102633007E007F0ACFCDCFCECCCE123A61748C2FE1
:10264300F5827457801FAE73AF747C007D64123AB9
:10265300617E007F0ACFCDCFCECCCE123A617470AB
:102663002FF58274573EF583E493F570AE73AF7420
:102673007C007D0A123A6174702DF58274573CF523
:1026830083E493F571C3E57494E8E573940350030D
:10269300022749E5749410E5739427400302274900
:1026A300AE73AF747C037DE8123A6174702FF582C8
:1026B30074573EF583E493F56EAE73AF747C037D7C
:1026C300E8123A617E007F64CFCDCFCECCCE123AF2
:1026D3006174702FF58274573EF583E493F56FE5CB
:1026E300727024E5097020AE73AF74FC7D64123AF6
:1026F300617E007F0ACFCDCFCECCCE123A61748CEF
:102703002FF5827457801FAE73AF747C007D641203
:102713003A617E007F0ACFCDCFCECCCE123A617420
:10272300702FF58274573EF583E493F570AE73AF63
:10273300747C007D0A123A6174702DF58274573CE3
:10274300F583E493F571C3E5749410E5739427500E
:102753000302293BAE73AF74E4FCFD7BA07A867958
:1027630001F8D3123AC4500302293BAE73AF747C11
:10277300277D10123A6174702FF58274573EF583EA
:10278300E493F56DAE73AF747C277D10123A617ECE
:10279300037FE8CFCDCFCECCCE123A6174702FF544
:1027A3008274573EF583E493F56EAE73AF747C0386
:1027B3007DE8123A617E007F64CFCDCFCECCCE12BE
:1027C3003A6174702FF58274573EF583E493F56F85
:1027D300E5727024E5097020AE73AF74FC7D64125A
:1027E3003A617E007F0ACFCDCFCECCCE123A617450
:1027F3008C2FF5827457801FAE73AF747C007D6499
:10280300123A617E007F0ACFCDCFCECCCE123A6191
:1028130074702FF58274573EF583E493F570AE73AD
:10282300AF747C007D0A123A6174702DF58274577F
:102833003CF583E402291FE56BC3940E5009E56B55
:1028430094144003022924E56BB40E05756C6E8065
:102853002EE56BB40F0C905783E493F56C9057708F
:102863008031E56BB4100C90577DE493F56C756D76
:102873006E8024E56BB4110C905780E493F56C9053
:102883005789800FE56BB4120E905783E493F56C70
:10289300905771E493F56D856973856A74E5745493
:1028A3000FFDE573C4F854F0C868F573E574C454B8
:1028B3000F48F574540FFCE573C4F854F0C868F579
:1028C30073E574C4540F48F574540FFBE573C4F8EF
:1028D30054F0C868F573E574C4540F48F574540F85
:1028E300FF757201702390578293FEF56EEB7008AB
:1028F3008E6FEC9057708008EB90577093F56FECE8
:1029030093F570ED93F571800FEF90577093F56E1B
:10291300EB93F56FEC93F570ED90577093F5718031
:1029230017E56BC394164010E4F56CF56DF56E7501
:102933006F6E75707975716B856F78856E79856D3E
:102943007A856C7BAB70AD717F01024C3B8E628FDD
:1029530063856266856367E4F509E50864016003DE
:10296300022CDFD3E56394C2E5629402AC62AD63EB
:102973005030E41239957B7B7A14790E7840123803
:10298300F3A804A905AA06AB07E4FFFE7DA07C43D8
:102993001237FB1239CE8E648F65750A01E4F50890
:1029A3008026E41239957BCD7ACC790C78401238A5
:1029B300F3E4FBFA79A078C31237FF1239CE8E64A1
:1029C3008F65E4F50A750801D3E565946EE56494B3
:1029D300004022E50A701EE565249CFFE56434FF90
:1029E300FE900043E0FD7C00123A61EF2565F5653A
:1029F300EE3564F564D3E56594B5E564940140224E
:102A0300E50A701EE565245CFFE56434FEFE900074
:102A130046E0FD7C00123A61EF2565F565EE35640D
:102A2300F564D3E5659458E56494024022E50A70A1
:102A33001EE56524DAFFE56434FDFE900045E0FD04
:102A43007C00123A61EF2565F565EE3564F564D3D4
:102A5300E56594DEE56494024022E50A701EE565AF
:102A6300243AFFE56434FDFE900044E0FD7C00124F
:102A73003A61EF2565F565EE3564F564D3E5659454
:102A8300C0E56494034022E50A701EE565244AFF0D
:102A9300E56434FCFE900045E0FD7C00123A61EFF2
:102AA3002565F565EE3564F564D3E565947EE564E7
:102AB30094044022E50A701EE56524B4FFE56434FE
:102AC300FBFE900044E0FD7C00123A61EF2565F5C2
:102AD30065EE3564F564D3E5659446E56494054095
:102AE30022E50A701EE56524ECFFE56434FAFE90E6
:102AF3000044E0FD7C00123A61EF2565F565EE3593
:102B030064F564D3E5659404E56494064022E50A1C
:102B1300701EE5652410FFE56434FAFE900043E07F
:102B2300FD7C00123A61EF2565F565EE3564F564C9
:102B3300D3E56594F4E56494064022E50A701EE546
:102B430065242AFFE56434F9FE900044E0FD7C002F
:102B5300123A61EF2565F565EE3564F564D3E565F5
:102B63009476E56494074022E50A701EE565249493
:102B7300FFE56434F8FE900044E0FD7C00123A6106
:102B8300EF2565F565EE3564F564D3E5659448E5B1
:102B93006494084022E50A701EE56524C2FFE564DB
:102BA30034F7FE900043E0FD7C00123A61EF2565A7
:102BB300F565EE3564F564D3E56594DEE564940864
:102BC3004022E50A701EE565242CFFE56434F7FE18
:102BD300900043E0FD7C00123A61EF2565F565EE58
:102BE3003564F564D3E56594F6E56494094022E51C
:102BF3000A701EE5652428FFE56434F6FE90004361
:102C0300E0FD7C00123A61EF2565F565EE3564F56C
:102C130064D3E56594A0E564940A4022E50A701E36
:102C2300E5652488FFE56434F5FE900043E0FD7C10
:102C330000123A61EF2565F565EE3564F564D3E579
:102C430065944AE564940B4022E50A701EE5652409
:102C5300DEFFE56434F4FE900043E0FD7C00123AAD
:102C630061EF2565F565EE3564F564D3E565949A02
:102C7300E564940B4022E50A701EE5652484FFE5B4
:102C83006434F4FE900043E0FD7C00123A61EF25CA
:102C930065F565EE3564F564D3E5659426E56494DE
:102CA3000C4022E50A701EE56524E4FFE56434F375
:102CB300FE900043E0FD7C00123A61EF2565F56567
:102CC300EE3564F564D3E56594A0E564940F500391
:102CD300022EBB75641375657E022EBB8566648503
:102CE3006765AC66AD67E41239957BCD7ACC790C18
:102CF30078401238F3E4FBFA79A078431237FF12D5
:102D030039CE8E648F65D3E5659454E564940140B0
:102D13001FE56524B6FFE56434FEFE900045E0FD43
:102D23007C00123A61C3E5659FF565E5649EF56431
:102D3300D3E565943AE5649402401FE56524D0FF2A
:102D4300E56434FDFE900044E0FD7C00123A61C36B
:102D5300E5659FF565E5649EF564D3E56594ACE5AB
:102D6300649403401FE5652472FFE56434FCFE9020
:102D73000044E0FD7C00123A61C3E5659FF565E51B
:102D8300649EF564D3E5659414E5649405401FE5FA
:102D930065240AFFE56434FBFE900044E0FD7C00FB
:102DA300123A61C3E5659FF565E5649EF564D3E575
:102DB3006594B8E5649406401FE565245CFFE5640B
:102DC30034F9FE900044E0FD7C00123A61C3E565EE
:102DD3009FF565E5649EF564D3E565947AE56494AF
:102DE30008401CE565249AFFE56434F7FE7C007D0A
:102DF3001C123A61C3E5659FF565E5649EF564D3EE
:102E0300E5659432E564940A401FE56524ECFFE52B
:102E13006434F5FE900045E0FD7C00123A61C3E5A1
:102E2300659FF565E5649EF564D3E56594A4E56463
:102E3300940B401FE5652470FFE56434F4FE9000B5
:102E430045E0FD7C00123A61C3E5659FF565E564E5
:102E53009EF564D3E56594B7E564940D401FE5657D
:102E630024AEFFE56434F2FE900045E0FD7C0012E1
:102E73003A61C3E5659FF565E5649EF564D3E56551
:102E83009490E564940F401FE56524E2FFE5643404
:102E9300F0FE900046E0FD7C00123A61C3E5659FB9
:102EA300F565E5649EF564D3E5659488E56494135C
:102EB300400675641775656FAE64AF65228E608FCB
:102EC30061E4F509E50864016003023029D3E56193
:102ED300948AE5609401AC60AD615030E412399599
:102EE3007BD77AA379B0783F1238F3A804A905AA4F
:102EF30006AB07E4FFFE7DA07C431237FB1239CEFD
:102F03008E628F63750A01E4F5088026E412399511
:102F13007BD77AA379B0783F1238F3E4FBFA79A030
:102F230078C31237FF1239CE8E628F63E4F50A75C8
:102F33000801856264856365D3E5639428E562943B
:102F4300004022E50A701EE5632428FFE43562FE93
:102F530090004DE0FD7C00123A61C3E5659FF56585
:102F6300E5649EF564D3E56394B6E5629403402378
:102F7300E50A701FE563244AFFE56234FCFE900016
:102F83004CE0FD7C00123A61C3E5659FF565E5649D
:102F93009EF564D3E563949EE56294074023E50AB6
:102FA300701FE5632462FFE56234F8FE90004CE095
:102FB300FD7C00123A61C3E5659FF565E5649EF506
:102FC30064D3E5639428E562940A4023E50A701FFD
:102FD300E56324D8FFE56234F5FE90004CE0FD7C08
:102FE30000123A61C3E5659FF565E5649EF564D318
:102FF300E5639480E562940C5003023358E50A605C
:1030030003023358E5632480FFE56234F3FE900046
:103013004CE0FD7C00123A61C3E5659FF565E5640C
:103023009EF564023358AC60AD61E41239957BD7E9
:103033007AA379B0783F1238F3E4FBFA79A07843A6
:103043001237FF1239CE8E628F63856264856365A2
:10305300C3E5639414E5629405401DE42563FFE52D
:103063006234FBFE90004EE0FD7C00123A61EF25D6
:1030730065F565EE3564F564C3E5639498E562949C
:1030830008401EE5632468FFE56234F7FE900050B4
:10309300E0FD7C00123A61EF2565F565EE3564F5D8
:1030A30064C3E56394B2E562940C401EE563244E69
:1030B300FFE56234F3FE90004EE0FD7C00123A61BE
:1030C300EF2565F565EE3564F564C3E5639404E5C2
:1030D300629410401EE56324FCFFE56234EFFE902A
:1030E300004EE0FD7C00123A61EF2565F565EE3593
:1030F30064F564C3E5639488E5629413401EE56355
:103103002478FFE56234ECFE900050E0FD7C001271
:103113003A61EF2565F565EE3564F564C3E56394BF
:10312300A8E5629416401EE5632458FFE56234E97E
:10313300FE900050E0FD7C00123A61EF2565F565D5
:10314300EE3564F564C3E5629419401DE42563FF1D
:10315300E56234E7FE90004FE0FD7C00123A61EF38
:103163002565F565EE3564F564C3E56394A2E56210
:10317300941C401EE563245EFFE56234E3FE900089
:103183004EE0FD7C00123A61EF2565F565EE35648E
:10319300F564C3E563940EE562941F401EE5632462
:1031A300F2FFE56234E0FE90004EE0FD7C00123A4F
:1031B30061EF2565F565EE3564F564C3E56394FC5D
:1031C300E5629421401EE5632404FFE56234DEFEDC
:1031D30090004EE0FD7C00123A61EF2565F565EE47
:1031E3003564F564C3E56394EAE5629424401EE51F
:1031F300632416FFE56234DBFE90004FE0FD7C00A4
:10320300123A61EF2565F565EE3564F564C3E56350
:1032130094ACE5629426401EE5632454FFE56234D2
:10322300D9FE900051E0FD7C00123A61EF2565F56F
:1032330065EE3564F564C3E5639404E5629429405F
:103243001EE56324FCFFE56234D6FE900050E0FDEA
:103253007C00123A61EF2565F565EE3564F564C3CC
:10326300E56394F4E5629429401EE563240CFFE5CD
:103273006234D6FE900051E0FD7C00123A61EF25E6
:1032830065F565EE3564F564C3E5639488E562949A
:103293002C401EE5632478FFE56234D3FE90004F93
:1032A300E0FD7C00123A61EF2565F565EE3564F5C6
:1032B30064C3E5639418E562942E401EE56324E835
:1032C300FFE56234D1FE900051E0FD7C00123A61CB
:1032D300EF2565F565EE3564F564C3E56394DAE5DA
:1032E30062942F401EE5632426FFE56234D0FE90EE
:1032F3000051E0FD7C00123A61EF2565F565EE357E
:1033030064F564C3E56394CEE5629431401EE563DE
:103313002432FFE56234CEFE90004CE0FD7C0012C7
:103323003A61EF2565F565EE3564F564C3E56394AD
:1033330058E5629434401EE56324A8FFE56234CB6C
:10334300FE90004CE0FD7C00123A61EF2565F565C7
:10335300EE3564F564AE64AF65228E628F63E4F587
:1033630009E50864017066D3E56394B5E5629403E7
:10337300AC62AD635031E41239957BA47A70793D28
:1033830078401238F3A804A905AA06AB07E4FFFEA8
:103393007DA07C431237FB1239CE8E648F65750A8C
:1033A30001E4F5080237F3E41239957BA47A7079C6
:1033B3003D78401238F3E4FBFA79A078C31237FF63
:1033C3001239CE8E648F65750A010237F3AC62AD94
:1033D30063E41239957BA47A70793D78401238F30F
:1033E300E4FBFA79A078431237FF1239CE8E648F4B
:1033F30065D3E563941AE5629404401FE5632418DA
:10340300FFE56234FCFE900011E0FD7C00123A619E
:10341300C3E5659FF565E5649EF564D3E56394F1C3
:10342300E5629409401FE563241EFFE56234F6FE5E
:10343300900011E0FD7C00123A61C3E5659FF565DC
:10344300E5649EF564D3E5639406E5629411401F39
:10345300E5632402FFE56234EFFE900012E0FD7C99
:1034630000123A61C3E5659FF565E5649EF564D393
:10347300E5639446E562941E401EE42563FFE5621E
:1034830034E2FE900013E0FD7C00123A61C3E5656F
:103493009FF565E5649EF564D3E563949AE56294CC
:1034A30029401FE5632452FFE56234D6FE900013E2
:1034B300E0FD7C00123A61C3E5659FF565E5649E16
:1034C300F564D3E56394F2E562942B401EE563242F
:1034D30040FFE56234D4FE900013E0FD7C00123A15
:1034E30061EF2565F565EE3564F564D3E5639448CE
:1034F300E562943A401FE5632462FFE56234C6FE49
:10350300900013E0FD7C00123A61C3E5659FF56509
:10351300E5649EF564D3E563943CE562943C401E08
:10352300E56324D8FFE56234C3FE900012E0FD7C1E
:1035330000123A61EF2565F565EE3564F564D3E570
:103543006394D4E5629444401FE5632440FFE5623D
:1035530034BBFE900014E0FD7C00123A61C3E565C4
:103563009FF565E5649EF564D3E56394BCE56294D9
:1035730048401EE5632458FFE56234B7FE9000120D
:10358300E0FD7C00123A61EF2565F565EE3564F5E3
:1035930064D3E563948CE5629450401FE56324880B
:1035A300FFE56234AFFE900013E0FD7C00123A6148
:1035B300C3E5659FF565E5649EF564D3E563945CB7
:1035C300E5629458401EE56324B8FFE56234A7FE24
:1035D300900012E0FD7C00123A61EF2565F565EE7F
:1035E3003564F564D3E5639438E562945E401FE582
:1035F3006324DCFFE56234A1FE900012E0FD7C0051
:10360300123A61C3E5659FF565E5649EF564D3E50C
:103613006394D0E5629466401EE5632444FFE5624B
:103623003499FE900014E0FD7C00123A61EF2565A9
:10363300F565EE3564F564D3E5639454E562946A05
:10364300401FE5632424FFE5623496FE900013E0F7
:10365300FD7C00123A61C3E5659FF565E5649EF55F
:1036630064D3E56394B4E5629473401FE563246017
:10367300FFE562348CFE900013E0FD7C00123A619A
:10368300C3E5659FF565E5649EF564D3E56394DC66
:10369300E562947D401FE5632438FFE5623482FED2
:1036A300900013E0FD7C00123A61C3E5659FF56568
:1036B300E5649EF564AE62AF63E4FCFD7BA07A87AC
:1036C300F9F8C3123AC4502CE5632474FFE562345D
:1036D30078FEE434FFFDE434FFFCC007900012E001
:1036E300FBE4FAF8D0071251BAC3E5659FF565E527
:1036F300649EF564AE62AF63E4FCFD7BB47A8CF93F
:10370300F8C3123AC4502CE5632460FFE5623473B6
:10371300FEE434FFFDE434FFFCC007900013E0FB3C
:10372300E4FAF8D0071251BAC3E5659FF565E5647D
:103733009EF564AE62AF63E4FCFD7BDC7A96F9F838
:10374300C3123AC4502CE5632438FFE5623469FEA2
:10375300E434FFFDE434FFFCC007900013E0FBE416
:10376300FAF8D0071251BAC3E5659FF565E5649E83
:10377300F564AE62AF63E4FCFD7B8C7A9BF9F8C31E
:10378300123AC4502CE5632488FFE5623464FEE4F6
:1037930034FFFDE434FFFCC007900012E0FBE4FAC1
:1037A300F8D0071251BAC3E5659FF565E5649EF548
:1037B30064AE62AF63E4FCFD7B2C7AABF9F8C31211
:1037C3003AC4502CE56324E8FFE5623454FEE43444
:1037D300FFFDE434FFFCC007900011E0FBE4FAF8BE
:1037E300D0071251BAC3E5659FF565E5649EF5649C
:1037F300AE64AF6522023A3AE86480F8E933E8330D
:1038030060110460F0ED33EC337009E8FCE9FDEA84
:10381300FEEBFF220460DED3EB9FEA9EE99DE8C244
:10382300E78CF0C2F795F0400CE8CCF8E9CDF9EA63
:10383300CEFAEBCFFB123A0585D0F0580470032083
:10384300D5B3E80470075002B2D5023A4492D5ECDE
:103853000460F7E4CCC0E0C398F8603B94186008B8
:10386300400DD0E0FB023A1CE4FBFAC9FC8028E8D7
:1038730030E406E4C9FBE4CAFCE830E305E4C9CA62
:10388300CBFCE854076010F8C3E913F9EA13FAEB29
:1038930013FBEC13FCD8F130F52FC3E49CFCEF9B36
:1038A300FFEE9AFEED99FDD0E0FBEF4E4D4C70120A
:1038B30022DB03023A41EC2CFCEF33FFEE33FEED47
:1038C30033FDED30E7EB023A1CEF2BFFEE3AFEED52
:1038D30039FDD0E0FB50130BBB0003023A44ED1358
:1038E300FDEE13FEEF13FFEC13FC023A1C023A4405
:1038F300EC5D046005E859047003023A3A123A0594
:10390300580460F6EC4860F2EC7004FDFEFF22C838
:1039130060DB2481C85009C39860025006023A4113
:103923009850CAF582E9294B4A7005AB82023A30B6
:1039330075F0007C1A7880C3EF9BEE9AED99400DE9
:10394300C3EF9BFFEE9AFEED99FDE842F0DC23AC5A
:10395300F0D0E0FFD0E0FED0E0FDAB8220E7101B0B
:10396300EB60BAEC2CFCEF33FFEE33FEED33FD02DC
:103973003A1CE803F830E705C0F075F000EF2FFFBD
:10398300EE33FEED33FD40B830E7C280AA75F02078
:10399300800E75F010800575F0087D007E007F00B5
:1039A3003392D530D503123AB6EC334010EF33FFE0
:1039B300EE33FEED33FDEC33FCD5F0ED22E5F024E0
:1039C3007EA2D513CC92E7CDCEFF22EDD2E7CD3345
:1039D300EC3392D524814006E4FFFEFDFC22FCE497
:1039E300CFCECDCC24E0501174FF80EDC3CC13CCEB
:1039F300CD13CDCE13CECF13CF0470F030D5DE026E
:103A03003AB6E9D2E7C933E833F892D5EDD2E7CD38
:103A130033EC33FC5002B2D522EC30E7100FBF0079
:103A23000C0EBE00080DBD00040BEB6014A2D5EB19
:103A330013FCED92E7FD2274FFFCFDFEFF22E48000
:103A4300F8A2D574FF13FC7D80E480EFEF8DF0A422
:103A5300A8F0CF8CF0A428CE8DF0A42EFE22BC00BB
:103A63000BBE0029EF8DF084FFADF022E4CCF87596
:103A7300F008EF2FFFEE33FEEC33FCEE9DEC9840A5
:103A830005FCEE9DFE0FD5F0E9E4CEFD22EDF8F541
:103A9300F0EE8420D21CFEADF075F008EF2FFFEDA1
:103AA30033FD4007985006D5F0F222C398FD0FD599
:103AB300F0EA22C3E49FFFE49EFEE49DFDE49CFC48
:103AC30022EB9FF5F0EA9E42F0E99D42F0EC648020
:103AD300C864809845F02275F008758200EF2FFFC7
:103AE300EE33FECD33CDCC33CCC58233C5829BEDD3
:103AF3009AEC99E58298400CF582EE9BFEED9AFDD7
:103B0300EC99FC0FD5F0D6E4CEFBE4CDFAE4CCF986
:103B1300A88222B800C1B90059BA002DEC8BF084F9
:103B2300CFCECDFCE5F0CBF97818EF2FFFEE33FEC7
:103B3300ED33FDEC33FCEB33FB10D703994004EB7F
:103B430099FB0FD8E5E4F9FA227818EF2FFFEE334B
:103B5300FEED33FDEC33FCC933C910D7059BE99A5D
:103B63004007EC9BFCE99AF90FD8E0E4C9FAE4CCEE
:103B7300FB2275F010EF2FFFEE33FEED33FDCC3358
:103B8300CCC833C810D7079BEC9AE899400AED9B41
:103B9300FDEC9AFCE899F80FD5F0DAE4CDFBE4CC20
:103BA300FAE4C8F9228E628F63E50864017044D396
:103BB300E5659467E56494005031AC62AD63E4124B
:103BC30039957B487AE1790A78401238F3A804A939
:103BD30005AA06AB07E4FFFEFD7C421237FB123950
:103BE300CE8E648F65E4F508023EECE4F564F5657A
:103BF300023EECAC62AD63E41239957B717A3D7998
:103C03004A78401238F3E4FBFAF978421237FF128C
:103C130039CEAB07AA068A648B65C3EB9445EA9455
:103C230000401DEB24C5FFEA34FFFE900021E0FDB8
:103C33007C00123A61C3E5659FF565E5649EF56412
:103C4300C3EB946DEA9400401DEB2493FFEA34FF29
:103C5300FE900022E0FD7C00123A61C3E5659FF50A
:103C630065E5649EF564C3EB9499EA9400401DEB0B
:103C73002467FFEA34FFFE900023E0FD7C00123A44
:103C830061C3E5659FF565E5649EF564C3EB94C781
:103C9300EA9400401DEB2439FFEA34FFFE90002430
:103CA300E0FD7C00123A61C3E5659FF565E5649E1E
:103CB300F564C3EB9411EA9401401DEB24F0FFEA91
:103CC30034FEFE900025E0FD7C00123A61C3E565F9
:103CD3009FF565E5649EF564C3EB947BEA9401402C
:103CE3001DEB2486FFEA34FEFE900023E0FD7C00FA
:103CF300123A61C3E5659FF565E5649EF564C3EA21
:103D03009402401DEB2401FFEA34FEFE900026E0FE
:103D1300FD7C00123A61C3E5659FF565E5649EF598
:103D230064C3EB94A1EA9402401DEB2460FFEA34E0
:103D3300FDFE900027E0FD7C00123A61C3E5659F1C
:103D4300F565E5649EF564C3EB9460EA9403401D56
:103D5300EB24A1FFEA34FCFE900028E0FD7C001276
:103D63003A61C3E5659FF565E5649EF564C3EB942D
:103D73004AEA9404401DEB24B7FFEA34FBFE9000AB
:103D830029E0FD7C00123A61C3E5659FF565E564B2
:103D93009EF564C3EB9462EA9405401DEB249FFFF8
:103DA300EA34FAFE90002AE0FD7C00123A61C3E592
:103DB300659FF565E5649EF564C3EB94A9EA9406F3
:103DC300401DEB2458FFEA34F9FE90002BE0FD7C04
:103DD30000123A61C3E5659FF565E5649EF564C32A
:103DE300EB94B0EA9407401DEB2451FFEA34F8FE4C
:103DF30090002DE0FD7C00123A61C3E5659FF565F7
:103E0300E5649EF564C3EB94E6EA9408401DEB2455
:103E13001BFFEA34F7FE90002CE0FD7C00123A61B0
:103E2300C3E5659FF565E5649EF564C3EB9426EAF7
:103E3300940A401DEB24DBFFEA34F5FE90002DE0ED
:103E4300FD7C00123A61C3E5659FF565E5649EF567
:103E530064C3EB949BEA940B401DEB2466FFEA34A6
:103E6300F4FE90002EE0FD7C00123A61C3E5659FED
:103E7300F565E5649EF564C3EB9448EA940D401D33
:103E8300EB241DFFEA34F3FE90002EE0FD7C0012CC
:103E93003A61C3E5659FF565E5649EF564C3EB94FC
:103EA30003EA940F401DEB24FEFFEA34F0FE90007A
:103EB3002EE0FD7C00123A61C3E5659FF565E5647C
:103EC3009EF564C3EB9456EA9411401DEB24ABFFBB
:103ED300EA34EEFE90002FE0FD7C00123A61C3E568
:103EE300659FF565E5649EF564AE64AF65228E62F9
:103EF3008F63E508B40141D3E5639468E5629400F8
:103F0300502EAC62AD63E41239957B487AE1790AAD
:103F130078401238F3A804A905AA06AB07E4FFFE0C
:103F2300FD7C421237FB1239CE8E648F650242321A
:103F3300E4F564F565024232AC62AD63E41239958F
:103F43007BCD7ACC794C78401238F3E4FBFAF978DC
:103F5300421237FF1239CEAB07AA068A648B65C3B8
:103F6300EB9432EA9400401DEB24CEFFEA34FFFECB
:103F7300900031E0FD7C00123A61C3E5659FF56571
:103F8300E5649EF564C3EB946DEA9400401DEB2455
:103F930093FFEA34FFFE900030E0FD7C00123A61AB
:103FA300C3E5659FF565E5649EF564C3EB94AEEAEE
:103FB3009400401DEB2452FFEA34FFFE900032E0F0
:103FC300FD7C00123A61C3E5659FF565E5649EF5E6
:103FD30064C3EB94F8EA9400401DEB2408FFEA3431
:103FE300FFFE900033E0FD7C00123A61C3E5659F5C
:103FF300F565E5649EF564C3EB9471EA9401401D95
:10400300EB248FFFEA34FEFE900034E0FD7C0012C7
:104013003A61C3E5659FF565E5649EF564C3EB947A
:10402300C8EA9401401DEB2438FFEA34FEFE9000F9
:1040330035E0FD7C00123A61C3E5659FF565E564F3
:104043009EF564C3EB944FEA9402401DEB24B1FF49
:10405300EA34FDFE900036E0FD7C00123A61C3E5D0
:10406300659FF565E5649EF564C3EB941CEA9403D0
:10407300401DEB24E4FFEA34FCFE900036E0FD7CB7
:1040830000123A61C3E5659FF565E5649EF564C377
:10409300EB94F2EA9403401DEB240EFFEA34FCFE9A
:1040A300900038E0FD7C00123A61C3E5659FF56539
:1040B300E5649EF564C3EB9426EA9405401DEB2466
:1040C300DAFFEA34FAFE900036E0FD7C00123A6132
:1040D300C3E5659FF565E5649EF564C3EB9484EAE7
:1040E3009406401DEB247CFFEA34F9FE90003AE08D
:1040F300FD7C00123A61C3E5659FF565E5649EF5B5
:1041030064C3EB946DEA9408401DEB2493FFEA34F7
:10411300F7FE900038E0FD7C00123A61C3E5659F2D
:10412300F565E5649EF564C3EB946DEA9409401D5F
:10413300EB2493FFEA34F6FE90003AE0FD7C001294
:104143003A61C3E5659FF565E5649EF564C3EB9449
:1041530041EA940B401DEB24BFFFEA34F4FE9000C8
:1041630039E0FD7C00123A61C3E5659FF565E564BE
:104173009EF564C3EB94C9EA940C401DEB2437FF0E
:10418300EA34F3FE90003DE0FD7C00123A61C3E5A2
:10419300659FF565E5649EF564C3EB9485EA940E2B
:1041A300401DEB247BFFEA34F1FE90003EE0FD7CF2
:1041B30000123A61C3E5659FF565E5649EF564C346
:1041C300EB941CEA9411401DEB24E4FFEA34EEFE69
:1041D30090003EE0FD7C00123A61C3E5659FF56502
:1041E300E5649EF564C3EB94D6EA9413401CEB2478
:1041F3002AFFEA34ECFE90003EE0FD7C00123A61B7
:10420300EF2565F565EE3564F564C3EB94B2EA9486
:1042130014401CEB244EFFEA34EBFE90003EE0FD1D
:104223007C00123A61EF2565F565EE3564F564AE01
:1042330064AF6522C28CAF89EF4401F589F58975B6
:104243008CDCE4F58AC28D75E50775E64675E6B93B
:10425300AFE2EF4408F5E2F5E275E50675E646756B
:10426300E6B9D28CA28DB340FBC28DC28C75E50733
:1042730075E64675E6B9AFE2EF4403F5E2F5E2759C
:10428300E50675E64675E6B975E50775E64675E62E
:10429300B9AFE2EF54FBF5E2F5E275E50675E646E4
:1042A30075E6B91254BBD296D2A2125521125442CA
:1042B3001256AF1256BF12557B1255CEE4FFFE12B3
:1042C30053E41255E8E4FFFE125493E4FF125645FB
:1042D300E4F538FF1254DDEF644E70227F0112546F
:1042E300DDBF451A7F021254DDBF57127F031254FC
:1042F300DDBF5A0A7F041254DDEF64A560297D4EA9
:10430300E4FF12553F7D457F0112553F7D577F02E4
:1043130012553F7D5A7F0312553F7DA57F041255E9
:104323003F125165124B651255E87F121254DD8F0F
:10433300377F131254DD8F547F141254DD8F2E7F79
:10434300161255978E268F277F181255978E598FE1
:104353005A7F1A1255978E4A8F4B7F1C1255978E90
:10436300438F447F1E1255978E3A8F3B7F20125501
:10437300978E338F347F221255978E2F8F307F2362
:104383001255978E288F297F261255978E488F496D
:104393007F281255978E468F477F2A1254DD8F4E02
:1043A3007F2B1254DD8F5B7F2C1254DD8F557F2EB4
:1043B3001254DD8F567F2F1254DD8F577F301254E6
:1043C300DD8F507F321254DD8F427F341255978E2A
:1043D300518F527F361255978E3C8F3D7F38125541
:1043E300978E2C8F2D7F3A1255978E238F247F3CE7
:1043F3001254DD8F3FE4254EF536E43420F53512B3
:104403005165D2A9D28CD2ABD28ED2AF75390112FB
:104413004FA9E5377012E54230E003754501E542E7
:1044230030E42A7522018025E537B40107E54230DF
:10443300E11B8016E537B40207E54230E20F800A3C
:10444300E537B40308E54230E303754501E52A1473
:10445300601514601714601914601B146020240580
:1044630070EB12448680E612492A80E112465E8090
:10447300DC1247C480D775320112002680CF124A5E
:104483008C80CA12509ABF0106752A0402465978D5
:104493007DE660030245E87610124E718E5E8F5FF3
:1044A300E545B40124E508B4011FC3E55F9527E59D
:1044B3005E952640028047C3E527955FF55FE526B5
:1044C300955EF55EE4F5088053E545B40106E5081D
:1044D30070028009E5457013E508B4010EE5272550
:1044E3005FF55FE526355EF55E8031E545702DE5C8
:1044F300087029C3E55F9527E55E9526400EE55FC5
:104503009527F55FE55E9526F55E8010C3E5279553
:104513005FF55FE526955EF55E750801C3E55F947B
:10452300CAE55E94C8AC51AD52AE5EAF5F50101297
:104533003A61C3E55F9FF55FE55E9EF55E800D1210
:104543003A61EF255FF55FEE355EF55EE558B40140
:104553000674FFF55EF55FE52E7011AF5FAE5E1278
:1045630013128E608F61E554707B8072E52EB40167
:1045730011AF5FAE5E12335D8E608F61E55470657F
:10458300805CE52EB40211AF5FAE5E1229508E60DF
:104593008F61E554704F8046E52EB40311AF5FAED3
:1045A3005E120AC18E608F61E55470398030E52E4A
:1045B300B40414750901AF5FAE5E123BA88E608F21
:1045C30061E55470208017E52EB40519750901AF14
:1045D3005FAE5E123EF18E608F61E5547007124D3F
:1045E300028E608F61787EE67007125029787E769E
:1045F30008787CE670267610AD61AC607F01121AF4
:10460300DBD3E5619549E5609548400EE561954743
:10461300E56095465004D2B48002C2B47881E67056
:1046230018208407AF61AE60125493208507AF61F1
:10463300AE601253E4788176107880E6701820011A
:1046430009856199D2017601800AE560F599C20175
:104653007880763BD299AE60AF612212509ABF0147
:1046630006752A040247BF787DE6600302474C764D
:1046730010124E718E5E8F5FE545B40124E508B4D8
:10468300011FD3E55F953BE55E953A40028047C342
:10469300E53B955FF55FE53A955EF55EE4F50880E9
:1046A30053E545B40106E50870028009E54570133A
:1046B300E508B4010EE53B255FF55FE53A355EF5A8
:1046C3005E8031E545702DE5087029C3E55F953BB4
:1046D300E55E953A400EE55F953BF55FE55E953AFD
:1046E300F55E8010C3E53B955FF55FE53A955EF5B2
:1046F3005E750801D3E5349400E533947DAC2CADAD
:104703002DAE5EAF5F400F123A61EF255FF55FEEAE
:10471300355EF55E800E123A61C3E55F9FF55FE596
:104723005E9EF55EAC5EAD5FE41239957BCD7ACCCF
:10473300794C78401238F31239CE8E5E8F5FE5588C
:10474300B4010674FFF55EF55F787CE67028AD5F13
:10475300AC5E7F01121ADB787C7608D3E55F95495E
:10476300E55E9548400EE55F9547E55E9546500446
:10477300D2B48002C2B47881E67018208407AF5F98
:10478300AE5E125493208507AF5FAE5E1253E4789A
:10479300817602787EE67007125029787E76087853
:1047A30080E67018200109855F99D2017601800A9D
:1047B300E55EF599C2017880763BD299AE5EAF5F34
:1047C3002212509ABF0106752A04024925787DE614
:1047D30060030248B27610124E718E5E8F5FE5451C
:1047E300B40124E508B4011FC3E55F9530E55E9588
:1047F3002F40028047C3E530955FF55FE52F955E57
:10480300F55EE4F5088053E545B40106E50870025A
:104813008009E5457013E508B4010EE530255FF521
:104823005FE52F355EF55E8031E545702DE5087057
:1048330029C3E55F9530E55E952F400EE55F953022
:10484300F55FE55E952FF55E8010C3E530955FF566
:104853005FE52F955EF55E750801D3E5299400E5C4
:10486300289419AC23AD24AE5EAF5F400F123A61BA
:10487300EF255FF55FEE355EF55E800E123A61C39C
:10488300E55F9FF55FE55E9EF55EAC5EAD5FE412AE
:1048930039957BCD7ACC794C78401238F31239CEE6
:1048A3008E5E8F5FE558B4010674FFF55EF55F78A1
:1048B3007CE67028AD5FAC5E7F01121ADB787C76F4
:1048C30010D3E55F9549E55E9548400EE55F954752
:1048D300E55E95465004D2B48002C2B47881E67096
:1048E30018208407AF5FAE5E125493208507AF5F35
:1048F300AE5E1253E478817602787EE6700712503A
:1049030029787E76087880E67018200109855F99FA
:10491300D2017601800AE55EF599C2017880763B83
:10492300D299AE5EAF5F2212509ABF0106752A0478
:10493300024A87787DE66003024A147610124E71AC
:104943008E5E8F5FE545B40124E508B4011FC3E51E
:104953005F954BE55E954A40028047C3E54B955F03
:10496300F55FE54A955EF55EE4F5088053E545B4E9
:104973000106E50870028009E5457013E508B401F6
:104983000EE54B255FF55FE54A355EF55E8031E563
:1049930045702DE5087029C3E55F954BE55E954AA3
:1049A300400EE55F954BF55FE55E954AF55E801039
:1049B300C3E54B955FF55FE54A955EF55E750801C6
:1049C300D3E54494E4E5439444AC3CAD3DAE5EAFE3
:1049D3005F400F123A61EF255FF55FEE355EF55EDE
:1049E300800E123A61C3E55F9FF55FE55E9EF55E5B
:1049F300E558B4010674FFF55EF55FAF5FAE5E1276
:104A03002EC08E5E8F5FE5547007124D028E5E8F4F
:104A13005F787CE67028AD5FAC5E7F01121ADB78AD
:104A23007C7610D3E55F9549E55E9548400EE55FDA
:104A33009547E55E95465004D2B48002C2B47881AE
:104A4300E67018208407AF5FAE5E1254932085078B
:104A5300AF5FAE5E1253E478817602787EE670072C
:104A6300125029787E76087880E67018200109852F
:104A73005F99D2017601800AE55EF599C2017880DB
:104A8300763BD299AE5EAF5F22124B651255E87F3B
:104A9300121254DD8F377F131254DD8F547F14129B
:104AA30054DD8F2E7F161255978E268F277F18126F
:104AB30055978E598F5A7F1A1255978E4A8F4B7F6F
:104AC3001C1255978E438F447F221255978E2F8F3A
:104AD300307F231255978E288F297F1E1255978E6C
:104AE3003A8F3B7F201255978E338F347F26125592
:104AF300978E488F497F281255978E468F477F2A76
:104B03001255978F4E7F2B1254DD8F5B7F2C1254DF
:104B1300DD8F557F2D1254DD8F4D7F2E1254DD8F87
:104B2300567F2F1254DD8F577F301254DD8F507F05
:104B3300321254DD8F427F341255978E518F527F3C
:104B4300361255978E3C8F3D7F381255978E2C8F9A
:104B53002D7F3A1255978E238F247F3C1254DD8F7D
:104B63003F22124FA9AD377F1212553FE4FD7F1349
:104B730012553FE4FD7F1412553FE4FDFC7F1612EE
:104B8300568D7D787C057F1812568DE4FDFC7F1AC7
:104B930012568D7D527C037F1C12568DE4FDFC7FE3
:104BA3001E12568D7D887C137F2012568D7D287CA6
:104BB300007F2212568D7DC87C007F2312568DE420
:104BC300FDFC7F2612568D7D887C137F2812568D1F
:104BD3007D147F2A12553F7D017F2B12553F7D01A6
:104BE3007F2C12553F7D037F2D12553F7D127F2E63
:104BF30012553F7D017F2F12553F7D017F301255A6
:104C03003FE4FD7F3212553F7D017C007F34125615
:104C13008D7D017C007F3612568D7D017C007F38AF
:104C230012568D7D017C007F3A12568D7D3C7C00AF
:104C33007F3C12568D025165A9057D01AA7BED6467
:104C4300017069C291FEC292C290E4FC12574DD228
:104C53009212574DC2920CBC08F20EBE02E8E4FE5B
:104C6300C292C290E4FCEA30E702D29012574DD2CE
:104C73009212574DC292C290EA25E0FA0CBC08E6A4
:104C8300EE7004AA7A801ABE0104AA798013BE02C8
:104C930004AA78800CBE0304AA038005BE0402AAFA
:104CA300010EBE06BBD29112574DC291ED64027044
:104CB3004DC295FEC294E4FCEA30E702D293125748
:104CC3004DD29412574DC294C293EA25E0FA0CBC1C
:104CD30008E6EE7004AA7A801ABE0104AA7980134A
:104CE300BE0204AA78800CBE0304AA038005BE0496
:104CF30002AA010EBE06BDD29512574DC295228E51
:104D0300628F63E509703FC3E5639440E5629401F4
:104D1300401AE508700BE56324C0FDE56234FE80AC
:104D230047E5632440FDE5623401803CE508B401B6
:104D33000BE5632440FDE5623401803BC374409579
:104D430063FD74018051C3E5639420E562940040E0
:104D530019E508700BE56324E0FDE56234FF800884
:104D6300E5632420FDE43562800DE508B40121E507
:104D7300632420FDE43562FCE41239957B667A6690
:104D830079E6783F1238F31239CE8E648F6580232B
:104D9300C374209563FDE49562FCE41239957B6648
:104DA3007A6679E6783F1238F31239CE8E648F65CE
:104DB300750801AE64AF6522014100014C00015842
:104DC30000087C101004023B02141E025100000272
:104DD3003C0000022C000002230000014E14015B82
:104DE30001015501014D0301561201570101500103
:104DF300014F00013201013800C102C10101080065
:104E0300010900010A004B001500243038404C58BA
:104E13006878C8FA49000C002028303470A0C8FF15
:104E23004A004007080A101820303840484C000058
:104E330000102028303840606C80B4E1500020001E
:104E43000A0E1314161B23262A343C4046506A507C
:104E530000300A0D10121C20283437393B40425AC7
:104E630084FA48004A002C2E32363A3E4D00125640
:104E730002EF6003024F18532B03E52BC394024048
:104E83004B750801E52B5403756900F56A756A00D3
:104E9300F569E521256AF56AE43569F569E56AAEE0
:104EA300697807C333CE33CED8F9F56A8E69E53115
:104EB300C313F531256AF56AE43569F569636AFF59
:104EC3006369FFC3E56994F040488041E4F508E570
:104ED3002B5403756900F56A756A00F569E52125A8
:104EE3006AF56AE43569F569E56AAE697807C3333B
:104EF300CE33CED8F9F56A8E69E531C313F5312582
:104F03006AF56AE43569F569C394F040057558019B
:104F13008003E4F558AE69AF6A22787FE4F6D8FDE2
:104F230075819A024F64024237E493A3F8E493A392
:104F33004003F68001F208DFF48029E493A3F854D8
:104F430007240CC8C333C4540F4420C8834004F45B
:104F530056800146F6DFE4800B010204081020406E
:104F630080904DBBE47E019360BCA3FF543F30E5CA
:104F730009541FFEE493A360010ECF54C025E060E3
:104F8300A840B8E493A3FAE493A3F8E493A3C8C5B1
:104F930082C8CAC583CAF0A3C8C582C8CAC583CAA2
:104FA300DFE9DEE780BE20801CE4F537F52A754093
:104FB30001208403754011208503754021E5426477
:104FC300017062805D20811D753701752A0175406E
:104FD30002208403754012208503754022E5426454
:104FE300027042803D20821D753702752A0275408A
:104FF30004208403754014208503754024E542642E
:10500300047022801D20831D753703752A037540A4
:1050130008208403754018208503754028E542B4B1
:10502300080375450122E4FF1254FFEF547FF55046
:105033007F011254FF8F577F021254FF8F567F0355
:105043001254FFEF5407F54D7F041254FF8F557F21
:10505300051254FF8F5B7F061254FF8F4EE55B549E
:105063000364017031AD4E7F2A12553FAD5B7F2B38
:1050730012553FAD557F2C12553FAD4D7F2D125527
:105083003FAD567F2E12553FAD577F2F12553FAD83
:10509300507F3012553F2230B21030B30D30860AA4
:1050A300308707E4F54CF541805820B213E54C7086
:1050B30009754C01E54144018044E54154FE803EBD
:1050C30020B310E54C7006E54144028024E54154C9
:1050D300FD802B208610E54C7006E54144048011C9
:1050E300E54154FB8018208719E54C700DE54144D8
:1050F30008F541F541754C018008E54154F7F54148
:10510300F541AF4122C0E0C0D075D000C000C00758
:10511300C28E788406787CE6600116787DE66001AD
:10512300167884E6FF54077008787EE6600116D28D
:1051330000EF640F701B7884F67880E660011678C0
:1051430081E66001167882E66001167883E66001E5
:1051530016758D0B758BDCD28ED007D000D0D0D0D6
:10516300E0327F031254FF8F4D7D407F0712555D60
:10517300E54D4408FD7F0312555DE54D20E737AD4E
:105183004E7F0612555DAD5B7F0512555DAD557FB4
:105193000412555DE54D4408FD7F0312555DAD5680
:1051A3007F0212555DAD577F0112555DE550448076
:1051B300FDE4FF12555D22C2D5E830E70FB2D5E416
:1051C300C39BFBE49AFAE499F9E498F8EC30E71707
:1051D300B2D51251F0123B16E4C39BFBE49AFAE4F6
:1051E30099F9E498F88003123B1630D50DE4C39F78
:1051F300FFE49EFEE49DFDE49CFC22AE071256579D
:10520300AF06AE07750B01E47811F6EE30E704D272
:10521300A08002C2A0D2A1125754C2A1125754EEC9
:1052230025E0FE781106E6C3940840DFD2A0D2A1A0
:1052330012575430A003E4F50BC2A1025754AE0732
:10524300E47812F6D2A018F6D2A11257547812E6D7
:10525300FF25E0F630A004E64401F6C2A11257543C
:10526300781106E6C3940840DFEE24FF92A0D2A192
:10527300125754C2A1D2A01257547812E6FF22AE9D
:1052830007750C01E47810F6EE30E704D2A2800231
:10529300C2A2D2A312575BC2A312575BEE25E0FE54
:1052A300781006E6C3940840DFD2A2D2A312575B5C
:1052B30030A203E4F50CC2A302575BE47811F6D2E3
:1052C300A218F6D2A312575B7811E6FF25E0F63059
:1052D300A204E64401F6C2A312575B781006E6C3A4
:1052E300940840DFD2A2D2A312575BC2A3D2A21268
:1052F300575B7811E6FF22AE07750D01E47810F6CF
:10530300EE30E704D2A28002C2A2D2A4125762C234
:10531300A4125762EE25E0FE781006E6C394084017
:10532300DFD2A2D2A412576230A203E4F50DC2A4C5
:10533300025762AE07750E01E47810F6EE30E7040B
:10534300D2A28002C2A2D2A4125769C2A412576980
:10535300EE25E0FE781006E6C3940840DFD2A2D221
:10536300A412576930A203E4F50EC2A4025769E4FC
:105373007811F6D2A218F6D2961257137811E6FFD7
:1053830025E0F630A204E64401F6C29612571378DC
:105393001006E6C3940840DFD2A2D296125713C276
:1053A30096D2A21257137811E6FF22AE07750F01AA
:1053B300E47810F6EE30E704D2A28002C2A21257BC
:1053C3000EC296125713EE25E0FE781006E6C3943C
:1053D3000840E112570C30A203E4F50FC2960257BE
:1053E30013AB07AA06E509700AFC7D0A123A61AA03
:1053F30006AB07AF03AD07AF02AC0753040F12565A
:105403007B7F98125336AF04125336AF05125336CF
:10541300025739C0E0C0D075D000C000C007C28CAD
:10542300788506E654077006AF99F55C8F5D758C39
:105433000B758ADCD28CD007D000D0D0D0E032C23A
:1054430091C295C292C290C294C29312574D125701
:105453004D12574D12574DE4FFFE0FBF00010EE4EE
:10546300B507F7EEB401F3221251FEE4FF125241E5
:105473008F2BE4FF1252418F21E4FF1252418F31EF
:105483007F011252418F53125725E5535480FF2257
:10549300E5097006FC7D0A123A61AA07AB06EB54D4
:1054A3000F52031256697F9A1252FAAF031252FA3D
:1054B300AF021252FA02572F7593FFE4F5947580E9
:1054C300FFF5917592FFF5907595047596FFF5A01C
:1054D30075B1ED75B21375B02C22AD071256DF7F8F
:1054E300A0125282AF051252821256317FA112527C
:1054F300821252BEAE071256EEAF0622AD07125607
:10550300FD7FDE1253AEAF051253AE12000E7FDFE6
:105513001253AE125372AE07125743AF0622D2A3F1
:1055230012575B12575B12575BC2A2E4FFFE0FBF19
:1055330000010EE4B507F7EEB401F322AC071256EF
:10554300DF7FA0125282AF04125282AF0512528241
:105553001256EE7F647E0002561AAC071256FD7F88
:10556300DE1253AEAF041253AEAF051253AE125751
:10557300437F647E0002569ED2A1125754D2A012DA
:105583005754125754125754125754C2A0E4FF0FE2
:10559300BFFEFC22AC07EC04FF1254DDAB07EB7B30
:1055A30000FAAF041254DDEB2FFBE43AFEAF032203
:1055B3007F327E00D3EF9400EE9400400DE4FD0DA6
:1055C300BDFFFCEF1F70ED1E80EA2243985053C8C5
:1055D300F043C83075CDFF75CCD075CBFF75CADCF1
:1055E300D2ACD2CA22905794E493F55EF55FFBFDEB
:1055F300F578F579855F7A855E7B7F01024C3BE424
:105603007810F612557B7D9C7FD012571A7FD112EA
:10561300546B7810E6FF22D3EF9400EE9400400D14
:10562300E4FD0DBDFFFCEF1F70ED1E80EA22D2A248
:1056330012575BD2A312575BC2A212575BC2A302DB
:10564300575BEFAFA06005EF44208003EF54DFF515
:10565300A0F5A022D2A0125754D2A1125754C2A02F
:10566300125754C2A122D2A2125762D2A412576275
:10567300C2A2125762C2A422D2A2125769D2A412A2
:105683005769C2A2125769C2A422AB05AA04A9078B
:105693000912553FAF01AD0202553FD3EF9400EE1F
:1056A30094004001EFE4FF0FBFFAFC22D28C75890E
:1056B30011758C0B758ADCE47884F622C28E7589A9
:1056C30011758D0B758BDCE47885F622309902C257
:1056D30099309807C29885993ED20232D2A21257C6
:1056E3005BC2A212575BC2A302575BC2A212575BF3
:1056F300D2A312575BD2A202575BD2A2125713C294
:10570300A2125713C296025713D2A2125713D2965C
:10571300E4FF0FBF12FC221251FEAF051252050225
:105723005725D2A1125754D2A0025754D2A41257CC
:1057330062D2A2025762D2A4125769D2A202576957
:10574300C2A212570ED2A2025713E4FF0FBF12FCDC
:1057530022E4FF0FBF12FC22E4FF0FBF12FC22E47E
:10576300FF0FBF12FC22E4FF0FBF12FC223F065BB8
:105773004F666D7D277F6F777C395E797176730015
:105783003738403E785870541EBF86DBCFE6EDFDB8
:10579300A7FFEFF7FCB9DEF9F1F6F380C7B8C0BE97
:00000001FF
