:07000000025D21020006323F
:10000B00026220126516C2A212651DC29602651D00
:03001B00025F0C75
:100023000264D9E4F564F565F566F56BF56CAD6CC2
:10003300AC6BAF66122BA2E5347003020BE5125EC4
:100043009E8F64E56430E0057567018003E4F5671E
:10005300E56430E1057568018003E4F568E5643023
:10006300E2057569018003E4F569E56430E305752C
:100073006A018003E4F56AE567B401050566E4F502
:1000830065E566D394134005E4F566F534E569B494
:100093000108056CE56C7002056BE56AB40108E5BF
:1000A3006C156C7002156BE566C394045003020172
:1000B30043E566D3940B40030201437881E6706DF8
:1000C3007604125BD9E55525E0248EF8A60608A62A
:1000D30007E555C39408500405558064799DE77876
:1000E3009B26FF19E71836FEEF1826FFEE1836FE9B
:1000F300EF1826FFEE1836FEEF1826FFEE1836FE31
:10010300EF1826FFEE1836FEEF1826FFEE1836FE20
:10011300EF1826FFEE1836FEEF7803CEC313CE1387
:10012300D8F979A1F7EE19F7E4F5558013E55525CC
:10013300E0248EF8E6FE08E6FF78A0A60608A607E8
:10014300E56664017047E539FD7C00AF66122BA2BA
:10015300E56C2539F539E4F56BF56CE539C39404A1
:100163004007E4F539F56BF56CE56864016003025B
:10017300003AAD397F12126349E4FDFC7F16122B5E
:10018300A27FC47E091263C1056502003AE5666475
:10019300027050E539C394024005056602003AE552
:1001A3005AFD7C00AF66122BA2E56C255AF55AE482
:1001B300F56BF56CE55AC394024007E4F55AF56B09
:1001C300F56CE5686401600302003AAD5A7F1312CF
:1001D30063490565E4FDFC7F16122BA27FC47E09EB
:1001E300020BCDE5666403703EE5396005056602E2
:1001F300003AE56C2530F530E4F56BF56CE530C37A
:1002030094064007E4F530F56BF56CE530FD7C00B2
:10021300AF66122BA2E5686401600302003AAD30B9
:100223007F141263498069E56664047079E5396077
:1002330005056602003AE508B40105754701800328
:10024300E4F54778A0E6FC08E6FDAF66122BA2E5CD
:10025300686401600302003A85532385542478A01F
:10026300E6F52808E6F529FDAC287F1612649712F7
:1002730063BDE547B40106E54444018004E5445405
:10028300FEFD7F32126349AD54AC537F3C12649739
:100293000565E4FDFC7F16122BA27FFA7E00126334
:1002A300C1C20102003AE56664056003020371E519
:1002B300396005056602003A78A0E6FC08E6FDAF62
:1002C30066122BA2E5686401600302003A78A0E697
:1002D300F55F08E6F560FDAC5F7F18126497E547AC
:1002E30064017020E5602529FFE55F3528FED3EF23
:1002F30094CAEE94C84002801FE5602529FFE55F9C
:1003030035288032C3E5609529FFE55F9528FED344
:10031300EF94CAEE94C84014EF2436FDEE3437FC54
:10032300123B668E578F58434410801EC3E5609579
:1003330029FFE55F9528FEC374CA9FFD74C89EFC20
:10034300123B668E578F585344EFAD58AC577F34EA
:100353001264971263BDAD447F321263490565E4AD
:10036300FDFC7F16122BA27FFA7E00020BCDE56601
:1003730064067067E53964016005056602003AE5C5
:1003830008B401057547018003E4F54778A0E6FC4E
:1003930008E6FDAF66122BA2E56864016003020064
:1003A3003A78A0E6F54C08E6F54DFDAC4C7F1A1201
:1003B30064971263BDE547B40106E5444402800433
:1003C300E54454FDFD7F321263490565E4FDFC7F7E
:1003D30016122BA27FFA7E00020BCDE5666407603E
:1003E300030204A8E53964016005056602003A7852
:1003F300A0E6FC08E6FDAF66122BA2E56864016087
:100403000302003A78A0E6F54508E6F546FDAC455B
:100413007F1C126497E54764017020E546254DFF74
:10042300E545354CFED3EF94E4EE94444002801F3F
:10043300E546254DFFE545354C8032C3E546954DF0
:10044300FFE545954CFED3EF94E4EE94444014EF5E
:10045300241CFDEE34BBFC123B668E3E8F3F4344AF
:1004630010801EC3E546954DFFE545954CFEC374CC
:10047300E49FFD74449EFC123B668E3E8F3F5344C3
:10048300EFAD3FAC3E7F361264971263BDAD447F40
:10049300321263490565E4FDFC7F16122BA27FFA35
:1004A3007E00020BCDE56664087067E5396402607F
:1004B30005056602003AE508B401057547018003A6
:1004C300E4F54778A0E6FC08E6FDAF66122BA2E54B
:1004D300686401600302003A78A0E6F53C08E6F59B
:1004E3003DFDAC3C7F1E1264971263BDE547B4012A
:1004F30006E54444048004E54454FBFD7F32126363
:10050300490565E4FDFC7F16122BA27FFA7E0002EB
:100513000BCDE566640960030205DDE5396402601D
:1005230005056602003A78A0E6FC08E6FDAF661210
:100533002BA2E5686401600302003A78A0E6F53572
:1005430008E6F536FDAC357F20126497E547640174
:100553007020E536253DFFE535353CFED3EF9400AD
:10056300EE947D4002801FE536253DFFE535353CA1
:100573008031C3E536953DFFE535953CFED3EF94D9
:1005830000EE947D4013E42FFDEE3483FC123B66B2
:100593008E2E8F2F434410801DC3E536953DFFE516
:1005A30035953CFEC3E49FFD747D9EFC123B668E35
:1005B3002E8F2F5344EFAD2FAC2E7F38126497123A
:1005C30063BDAD447F321263490565E4FDFC7F16CC
:1005D300122BA27FFA7E00020BCDE566640A706DD2
:1005E300E53964036005056602003AE508B40105D0
:1005F3007547018003E4F54778A0E6FC08E6FDAF04
:1006030066122BA2E5686401600302003A7F32FEA2
:100613001263C178A0E6F53108E6F532FDAC317F0F
:10062300221264971263BDE547B40106E54444080A
:100633008004E54454F7FD7F321263490565E4FD08
:10064300FC7F16122BA27FFA7E00020BCDE56664B7
:100653000B600302071BE5396403600505660200AE
:100663003A78A0E6FC08E6FDAF66122BA2E56864C3
:1006730001600302003A78A0E6F52A08E6F52BFDAF
:10068300AC2A7F241264971263BDE547640170208E
:10069300E52B2532FFE52A3531FED3EF9400EE94A6
:1006A300194002801FE52B2532FFE52A35318031C1
:1006B300C3E52B9532FFE52A9531FED3EF9400EE87
:1006C30094194013E42FFDEE34E7FC123B668E25AC
:1006D3008F26434410801DC3E52B9532FFE52A95F1
:1006E30031FEC3E49FFD74199EFC123B668E258F79
:1006F300265344EFAD26AC257F3A1264971263BDAF
:10070300AD447F321263490565E4FDFC7F16122B6D
:10071300A27FFA7E00020BCDE566640C7068AE6BB7
:10072300AF6CFC7D0A123B54EF254BF54BEE354A7B
:10073300F54AE4F56BF56CAD4BAC4AAF66122BA2F0
:10074300E56964016009E56A6401600302003AD364
:10075300E54B940FE54A94274009E4F56BF56CF5F6
:100763004AF54BE5686401600302003AAD4BAC4ABD
:100773007F261264970565E4FDFC7F16122BA27F8A
:10078300FA7E00020BCDE566640D7068AE6BAF6C4C
:10079300FC7D0A123B54EF2549F549EE3548F548EF
:1007A300E4F56BF56CAD49AC48AF66122BA2E56975
:1007B30064016009E56A6401600302003AD3E54914
:1007C300940FE54894274009E4F56BF56CF548F57B
:1007D30049E5686401600302003AAD49AC487F28EB
:1007E3001264970565E4FDFC7F16122BA27FFA7E47
:1007F30000020BCDE566640E600302088DC3E56C51
:1008030094C8E56B94004020E552700575529980B9
:1008130040E552540F700CE55224F054F04409F5AE
:100823005280021552E48029E56C6401456B702502
:10083300E552C3949A4005E4F5528015E552540FEE
:10084300FFBF090AE552241054F0F5528002055205
:10085300E4F56BF56CE42552FDE43420FCAF66123D
:100863002BA2E5686401600302003AAD527F0612D1
:100873006367AD527F2A1263490565E4FDFC7F1669
:10088300122BA27FFA7E00020BCDE566640F600394
:10089300020920C3E56C94C8E56B94004022E5612E
:1008A300D394015005756112803CE561540F700CBF
:1008B300E56124F054F04409F56180021561802656
:1008C300E56C6401456B7023E561B4120575610144
:1008D3008014E561540FFFBF090AE561241054F049
:1008E300F56180020561E4F56BF56CE561FD7C0063
:1008F300AF66122BA2E5686401600302003AAD61A2
:100903007F05126367AD617F2B1263490565E4FDC3
:10091300FC7F16122BA27FFA7E00020BCDE56664E4
:10092300106003020AAEC3E56C94C8E56B940050F3
:10093300030209D5E55BB40111E561B4020CE5528C
:1009430054037006755B29020A78E55BB40112E56E
:1009530061B4020DE55254036007755B28E4020A93
:1009630078E55B64017030E56164016023E56164EF
:1009730003601DE56164056017E56164076011E5C7
:10098300616408600BE56164106005E561B41207FA
:10099300755B31E4020A78E55BB4011EE56164042A
:1009A3006011E5616406600BE56164096005E5615A
:1009B300B41107755B30E4020A78E55B540F700CE1
:1009C300E55B24F054F04409F55B8002155BE40217
:1009D3000A78E56C6401456B6003020A7CE561B447
:1009E3000212E5525403700CE55BB42907755B01F1
:1009F300E4020A78E561B40211E5525403600BE5A1
:100A03005BB42806755B01E4806BE56164016023D8
:100A1300E5616403601DE56164056017E5616407D2
:100A23006011E5616408600BE56164106005E561D0
:100A3300B4120BE55BB43106755B01E48037E56105
:100A430064046011E5616406600BE5616409600597
:100A5300E561B4110BE55BB43006755B01E4801509
:100A6300E55B540FFFBF090AE55B241054F0F55B07
:100A73008002055BE4F56BF56CE55BFD7C00AF661E
:100A8300122BA2E5686401600302003AAD5B7F04A8
:100A9300126367AD5B7F2C1263490565E4FDFC7F40
:100AA30016122BA27FFA7E00020BCDE5666411605D
:100AB30003020B3FC3E56C94C8E56B94004020E54B
:100AC3005C7005755C23803EE55C540F700CE55C3F
:100AD30024F054F04409F55C8002155CE48027E5BA
:100AE3006C6401456B7023E55CB42305E4F55C801D
:100AF30015E55C540FFFBF090AE55C241054F0F5BB
:100B03005C8002055CE4F56BF56CE55CFD7C00AF95
:100B130066122BA2E5686401600302003AAD5C7FB4
:100B230002126367AD5C7F2E1263490565E4FDFC29
:100B33007F16122BA27FFA7E00020BCDE5666412AC
:100B43006003020BD3C3E56C94C8E56B94004020AB
:100B5300E55D7005755D59803EE55D540F700CE5EC
:100B63005D24F054F04409F55D8002155DE48027AF
:100B7300E56C6401456B7023E55DB45905E4F55DEF
:100B83008015E55D540FFFBF090AE55D241054F09D
:100B9300F55D8002055DE4F56BF56CE55DFD7C00BC
:100BA300AF66122BA2E5686401600302003AAD5DF3
:100BB3007F01126367AD5D7F2F1263490565E4FD15
:100BC300FC7F16122BA27FFA7E001263C102003A49
:100BD300E566C39413500302003AE4F566F5340264
:100BE300003A025DAD8E6C8F6D856C6E856D6FE422
:100BF300F509E50864017066D3E56F9455E56E94D5
:100C030004AC6CAD6D5031E4123A9A7BA47A7079DE
:100C13005D78401239F8A804A905AA06AB07E4FFDA
:100C2300FE7DA07C431237FA123AD38E6E8F6F7516
:100C33000A01E4F508021445E4123A9A7BA47A7097
:100C4300795D78401239F8E4FBFA79A078C312375A
:100C5300FE123AD38E6E8F6FE4F50A021445AC6C24
:100C6300AD6DE4123A9A7BA47A70795D78401239BB
:100C7300F8E4FBFA79A078431237FE123AD38E6E6A
:100C83008F6FD3E56D9486E56C9404401FE56D2466
:100C9300B4FFE56C34FBFE9000D3E0FD7C00123B17
:100CA30066C3E56F9FF56FE56E9EF56ED3E56D94B4
:100CB300C4E56C9409401FE56D246EFFE56C34F6C2
:100CC300FE9000D4E0FD7C00123B66C3E56F9FF508
:100CD3006FE56E9EF56ED3E56D9484E56C941240DA
:100CE3001FE56D24A4FFE56C34EDFE9000D3E0FD19
:100CF3007C00123B66C3E56F9FF56FE56E9EF56E54
:100D0300D3E56D9402E56C9417401FE56D241CFF39
:100D1300E56C34E9FE9000D5E0FD7C00123B66C330
:100D2300E56F9FF56FE56E9EF56ED3E56D9472E505
:100D33006C941F401FE56D24ACFFE56C34E0FE901E
:100D430000D5E0FD7C00123B66C3E56F9FF56FE5C0
:100D53006E9EF56ED3E56D9430E56C942A401FE5E5
:100D63006D2402FFE56C34D6FE9000D5E0FD7C00D7
:100D7300123B66C3E56F9FF56FE56E9EF56ED3E597
:100D83006D9426E56C9434401FE56D240CFFE56CEF
:100D930034CCFE9000D6E0FD7C00123B66C3E56FC9
:100DA3009FF56FE56E9EF56ED3E56D948CE56C94BF
:100DB3003C401FE56D247EFFE56C34C3FE9000D6F6
:100DC300E0FD7C00123B66C3E56F9FF56FE56E9E09
:100DD300F56ED3E56D94ACE56C943F401EE56D2450
:100DE30086FFE56C34C0FE9000D6E0FD7C00123B2C
:100DF30066EF256FF56FEE356EF56ED3E56D9430C6
:100E0300E56C9443401FE56D2402FFE56C34BDFEA1
:100E13009000D5E0FD7C00123B66C3E56F9FF56F44
:100E2300E56E9EF56ED3E56D9450E56C944B401ED4
:100E3300E56D24BAFFE56C34B4FE9000D6E0FD7C8A
:100E430000123B66EF256FF56FEE356EF56ED3E559
:100E53006D94E8E56C944E401FE56D244AFFE56C04
:100E630034B1FE9000D5E0FD7C00123B66C3E56F14
:100E73009FF56FE56E9EF56ED3E56D948CE56C94EE
:100E83005A401FE56D24B0FFE56C34A5FE9000D6F3
:100E9300E0FD7C00123B66C3E56F9FF56FE56E9E38
:100EA300F56ED3E56D9404E56C9460401EE56D2406
:100EB30024FFE56C34A0FE9000D7E0FD7C00123BDC
:100EC30066EF256FF56FEE356EF56ED3E56D9470B5
:100ED300E56C9467401FE56D24B8FFE56C3498FE1C
:100EE3009000D6E0FD7C00123B66C3E56F9FF56F73
:100EF300E56E9EF56ED3E56D9478E56C946E401EB9
:100F0300E56D24B0FFE56C3491FE9000D7E0FD7CE5
:100F130000123B66EF256FF56FEE356EF56ED3E588
:100F23006D9436E56C9474401FE56D24FCFFE56C0D
:100F3300348BFE9000D6E0FD7C00123B66C3E56F68
:100F43009FF56FE56E9EF56EAE6CAF6DE4FCFD7BB9
:100F5300907A83F9F8C3123BC9502BE56D2498FFAF
:100F6300E56C347CFEE434FFFDE434FFFCC0079001
:100F730000D6E0FBE4FAF8D007125FC4EF256FF563
:100F83006FEE356EF56EAE6CAF6DE4FCFD7BB07A43
:100F930086F9F8C3123BC9502CE56D2478FFE56C44
:100FA3003479FEE434FFFDE434FFFCC0079000D540
:100FB300E0FBE4FAF8D007125FC4C3E56F9FF56F57
:100FC300E56E9EF56EAE6CAF6DE4FCFD7B807A8EB4
:100FD300F9F8C3123BC9502BE56D24A8FFE56C3427
:100FE30071FEE434FFFDE434FFFCC0079000D7E05A
:100FF300FBE4FAF8D007125FC4EF256FF56FEE3507
:101003006EF56EAE6CAF6DE4FCFD7B447A93F9F83C
:10101300C3123BC9502CE56D24EEFFE56C346CFE26
:10102300E434FFFDE434FFFCC0079000D7E0FBE4A9
:10103300FAF8D007125FC4C3E56F9FF56FE56E9EA4
:10104300F56EAE6CAF6DE4FCFD7B987A9EF9F8C348
:10105300123BC9502BE56D249AFFE56C3461FEE425
:1010630034FFFDE434FFFCC0079000D7E0FBE4FA53
:10107300F8D007125FC4EF256FF56FEE356EF56E8E
:10108300AE6CAF6DE4FCFD7BF07AA0F9F8C3123BC4
:10109300C9502CE56D2442FFE56C345FFEE434FF58
:1010A300FDE434FFFCC0079000D7E0FBE4FAF8D07E
:1010B30007125FC4C3E56F9FF56FE56E9EF56EAED5
:1010C3006CAF6DE4FCFD7B047AA6F9F8C3123BC94F
:1010D300502BE56D242EFFE56C345AFEE434FFFDFE
:1010E300E434FFFCC0079000D7E0FBE4FAF8D00734
:1010F300125FC4EF256FF56FEE356EF56EAE6CAF14
:101103006DE4FCFD7BD47AADF9F8C3123BC9502CD6
:10111300E56D245EFFE56C3452FEE434FFFDE434F8
:10112300FFFCC0079000D7E0FBE4FAF8D007125F9A
:10113300C4C3E56F9FF56FE56E9EF56EAE6CAF6D44
:10114300E4FCFD7B547ABAF9F8C3123BC9502BE592
:101153006D24DEFFE56C3445FEE434FFFDE434FF2B
:10116300FCC0079000D6E0FBE4FAF8D007125FC496
:10117300EF256FF56FEE356EF56EAE6CAF6DE4FC7B
:10118300FD7B767AC0F9F8C3123BC9502CE56D2478
:101193009EFFE56C343FFEE434FFFDE434FFFCC006
:1011A300079000D3E0FBE4FAF8D007125FC4C3E56D
:1011B3006F9FF56FE56E9EF56EAE6CAF6DE4FCFD53
:1011C3007B507AC3F9F8C3123BC9502BE56D24C495
:1011D300FFE56C343CFEE434FFFDE434FFFCC00760
:1011E3009000D3E0FBE4FAF8D007125FC4EF256F59
:1011F300F56FEE356EF56EAE6CAF6DE4FCFD7B9472
:101203007ACAF9F8C3123BC9502CE56D2494FFE563
:101213006C3435FEE434FFFDE434FFFCC00790007A
:10122300D7E0FBE4FAF8D007125FC4C3E56F9FF57C
:101233006FE56E9EF56EAE6CAF6DE4FCFD7B507A90
:10124300CDF9F8C3123BC9502BE56D24D8FFE56CEB
:101253003432FEE434FFFDE434FFFCC0079000D7D2
:10126300E0FBE4FAF8D007125FC4EF256FF56FEEE9
:10127300356EF56EAE6CAF6DE4FCFD7B387AD1F95B
:10128300F8C3123BC9502CE56D24F0FFE56C342EF6
:10129300FEE434FFFDE434FFFCC0079000D7E0FB1D
:1012A300E4FAF8D007125FC4C3E56F9FF56FE56EEC
:1012B3009EF56EAE6CAF6DE4FCFD7BB07AD6F9F8AB
:1012C300C3123BC9502BE56D2478FFE56C3429FE2E
:1012D300E434FFFDE434FFFCC0079000D7E0FBE4F7
:1012E300FAF8D007125FC4EF256FF56FEE356EF590
:1012F3006EAE6CAF6DE4FCFD7B307AE3F9F8C3129C
:101303003BC9502BE56D24F8FFE56C341CFEE43437
:10131300FFFDE434FFFCC0079000D7E0FBE4FAF8DC
:10132300D007125FC4EF256FF56FEE356EF56EAE25
:101333006CAF6DE4FCFD7B8C7AE6F9F8C3123BC914
:10134300502CE56D2488FFE56C3419FEE434FFFD71
:10135300E434FFFCC0079000D5E0FBE4FAF8D007C3
:10136300125FC4C3E56F9FF56FE56E9EF56EAE6CBD
:10137300AF6DE4FCFD7B9C7AEAF9F8C3123BC950DC
:101383002BE56D248CFFE56C3415FEE434FFFDE49E
:1013930034FFFCC0079000D7E0FBE4FAF8D0071253
:1013A3005FC4EF256FF56FEE356EF56EAE6CAF6D06
:1013B300E4FCFD7B347AF3F9F8C3123BC9502CE506
:1013C3006D24F4FFE56C340CFEE434FFFDE434FFDC
:1013D300FCC0079000D7E0FBE4FAF8D007125FC423
:1013E300C3E56F9FF56FE56E9EF56EAE6CAF6DE472
:1013F300FCFD7BFC7AF3F9F8C3123BC9502BE56D76
:10140300242CFFE56C340CFEE434FFFDE434FFFCD4
:10141300C0079000D6E0FBE4FAF8D007125FC4EFF0
:10142300256FF56FEE356EF56EAE6CAF6DE4FCFDBA
:101433007BB07AFA7909F8C3123BC95005E4F56E1B
:10144300F56FAE6EAF6F228E6C8F6DE4F509E50814
:101453006401600302151FD3E56D9417E56C9403D3
:10146300AC6CAD6D5030E4123A9A7BE17A7A791420
:1014730078401239F8A804A905AA06AB07E4FFFED1
:101483007DA07C431237FA123AD38E6E8F6F750AA2
:1014930001E4F5088023E4123A9A7BE17A7A79141D
:1014A30078401239F8E4FBFA79A078C31237FE12B8
:1014B3003AD38E6E8F6FE4F50AD3E56D94F8E56C3D
:1014C30094024022E50A701EE56D2426FFE56C3484
:1014D300FDFE9000E7E0FD7C00123B66EF256FF513
:1014E3006FEE356EF56ED3E56D94D0E56C940750D1
:1014F30003021C3DE50A6003021C3DE56D2462FF07
:10150300E56C34F8FE9000E9E0FD7C00123B66EFE9
:10151300256FF56FEE356EF56E021C3DAC6CAD6D4F
:10152300E4123A9A7BE17A7A791478401239F8E432
:10153300FBFA79A078431237FE123AD38E6E8F6F7F
:10154300D3E56D94F8E56C9402401FE56D2426FF06
:10155300E56C34FDFE9000E7E0FD7C00123B66C3C2
:10156300E56F9FF56FE56E9EF56ED3E56D94D0E55F
:101573006C9407401FE56D2462FFE56C34F8FE9020
:1015830000E9E0FD7C00123B66C3E56F9FF56FE564
:101593006E9EF56ED3E56D9460E56C940C401EE58C
:1015A3006D24B2FFE56C34F3FE9000E9E0FD7C00AE
:1015B300123B66EF256FF56FEE356EF56ED3E56D75
:1015C30094DEE56C940D401FE56D2454FFE56C3407
:1015D300F2FE9000E9E0FD7C00123B66C3E56F9FDD
:1015E300F56FE56E9EF56ED3E56D94F2E56C94129E
:1015F300401EE56D2440FFE56C34EDFE9000E8E00D
:10160300FD7C00123B66EF256FF56FEE356EF56ED0
:10161300D3E56D9444E56C941B401EE56D240CFFEB
:10162300E56C34E5FE9000E9E0FD7C00123B66EFDB
:10163300256FF56FEE356EF56ED3E56D947FE56C32
:101643009424401FE56D24FCFFE56C34DBFE900021
:10165300EAE0FD7C00123B66C3E56F9FF56FE56E24
:101663009EF56ED3E56D94B4E56C9428401FE56D4B
:101673002488FFE56C34D7FE9000E9E0FD7C00127E
:101683003B66C3E56F9FF56FE56E9EF56ED3E56D23
:1016930094FCE56C9430401FE56D242CFFE56C341D
:1016A300CFFE9000EAE0FD7C00123B66C3E56F9F2E
:1016B300F56FE56E9EF56ED3E56D94AAE56C9437F0
:1016C300401FE56D2488FFE56C34C8FE9000EBE015
:1016D300FD7C00123B66C3E56F9FF56FE56E9EF5DB
:1016E3006ED3E56D94A0E56C9441401FE56D2492A3
:1016F300FFE56C34BEFE9000EBE0FD7C00123B6620
:10170300C3E56F9FF56FE56E9EF56ED3E56D944A65
:10171300E56C9447401EE56D24E8FFE56C34B8FEA4
:101723009000EBE0FD7C00123B66EF256FF56FEE5A
:10173300356EF56ED3E56D94FAE56C944B401FE579
:101743006D2438FFE56C34B4FE9000EAE0FD7C00C4
:10175300123B66C3E56F9FF56FE56E9EF56ED3E5AD
:101763006D94CAE56C9453401FE56D2468FFE56CE6
:1017730034ACFE9000EBE0FD7C00123B66C3E56FEA
:101783009FF56FE56E9EF56ED3E56D9488E56C94D9
:1017930059401EE56D24C8FFE56C34A6FE9000EAAF
:1017A300E0FD7C00123B66EF256FF56FEE356EF5BD
:1017B3006ED3E56D9406E56C9463401FE56D242CB0
:1017C300FFE56C349DFE9000EBE0FD7C00123B6670
:1017D300C3E56F9FF56FE56E9EF56ED3E56D94ECF3
:1017E300E56C9468401EE56D2450FFE56C3497FE6C
:1017F3009000EAE0FD7C00123B66EF256FF56FEE8B
:10180300356EF56ED3E56D9458E56C9470401EE526
:101813006D24ACFFE56C3490FE9000EBE0FD7C00A2
:10182300123B66EF256FF56FEE356EF56ED3E56D02
:10183300945CE56C9476401FE56D2408FFE56C34F9
:101843008AFE9000EBE0FD7C00123B66C3E56F9FD0
:10185300F56FE56E9EF56ED3E56D9476E56C947A3F
:10186300401EE56D24EEFFE56C3485FE9000E9E053
:10187300FD7C00123B66EF256FF56FEE356EF56E5E
:10188300AE6CAF6DE4FCFD7B9E7A84F9F8C3123B2A
:10189300C9502BE56D2494FFE56C347BFEE434FFE3
:1018A300FDE434FFFCC0079000EBE0FBE4FAF8D062
:1018B30007125FC4EF256FF56FEE356EF56EAE6CF4
:1018C300AF6DE4FCFD7B6E7A8CF9F8C3123BC95013
:1018D3002BE56D24C4FFE56C3473FEE434FFFDE4B3
:1018E30034FFFCC0079000EAE0FBE4FAF8D00712EB
:1018F3005FC4EF256FF56FEE356EF56EAE6CAF6DB1
:10190300E4FCFD7BBA7A90F9F8C3123BC9502BE58E
:101913006D2478FFE56C346FFEE434FFFDE434FF9F
:10192300FCC0079000EBE0FBE4FAF8D007125FC4B9
:10193300EF256FF56FEE356EF56EAE6CAF6DE4FCB3
:10194300FD7BEE7A98F9F8C3123BC9502BE56D2461
:1019530044FFE56C3467FEE434FFFDE434FFFCC070
:10196300079000EBE0FBE4FAF8D007125FC4EF2521
:101973006FF56FEE356EF56EAE6CAF6DE4FCFD7B0F
:10198300667A9EF9F8C3123BC9502BE56D24CCFF50
:10199300E56C3461FEE434FFFDE434FFFCC00790E2
:1019A30000EBE0FBE4FAF8D007125FC4EF256FF514
:1019B3006FEE356EF56EAE6CAF6DE4FCFD7BA67A13
:1019C300A4F9F8C3123BC9502BE56D24F0FFE56C75
:1019D300345BFEE434FFFDE434FFFCC0079000EB0E
:1019E300E0FBE4FAF8D007125FC4EF256FF56FEE62
:1019F300356EF56EAE6CAF6DE4FCFD7BBA7AA9F97A
:101A0300F8C3123BC9502BE56D2478FFE56C3456BF
:101A1300FEE434FFFDE434FFFCC0079000EBE0FB81
:101A2300E4FAF8D007125FC4EF256FF56FEE356E59
:101A3300F56EAE6CAF6DE4FCFD7B967AAFF9F8C33F
:101A4300123BC9502AE4256DFFE56C3451FEE434A2
:101A5300FFFDE434FFFCC0079000EAE0FBE4FAF882
:101A6300D007125FC4EF256FF56FEE356EF56EAEDE
:101A73006CAF6DE4FCFD7B3A7AB6F9F8C3123BC94F
:101A8300502BE56D24F8FFE56C3449FEE434FFFD8B
:101A9300E434FFFCC0079000EAE0FBE4FAF8D00767
:101AA300125FC4EF256FF56FEE356EF56EAE6CAF5A
:101AB3006DE4FCFD7B7A7ABCF9F8C3123BC9502B69
:101AC300E56D24B8FFE56C3443FEE434FFFDE434F4
:101AD300FFFCC0079000E9E0FBE4FAF8D007125FCF
:101AE300C4EF256FF56FEE356EF56EAE6CAF6DE43A
:101AF300FCFD7BDA7AC5F9F8C3123BC9502BE56DBF
:101B03002458FFE56C343AFEE434FFFDE434FFFC73
:101B1300C0079000E8E0FBE4FAF8D007125FC4EFD7
:101B2300256FF56FEE356EF56EAE6CAF6DE4FCFDB3
:101B33007B467ACDF9F8C3123BC9502BE56D24ECF3
:101B4300FFE56C3432FEE434FFFDE434FFFCC007F0
:101B53009000E8E0FBE4FAF8D007125FC4EF256FCA
:101B6300F56FEE356EF56EAE6CAF6DE4FCFD7B2E5E
:101B73007AD1F9F8C3123BC9502BE56D2404FFE574
:101B83006C342FFEE434FFFDE434FFFCC007900007
:101B9300EAE0FBE4FAF8D007125FC4EF256FF56FB4
:101BA300EE356EF56EAE6CAF6DE4FCFD7B0A7AD755
:101BB300F9F8C3123BC9502BE56D2428FFE56C34BB
:101BC30029FEE434FFFDE434FFFCC0079000E8E0A5
:101BD300FBE4FAF8D007125FC4EF256FF56FEE351B
:101BE3006EF56EAE6CAF6DE4FCFD7B1E7ADCF9F82E
:101BF300C3123BC9502BE56D2414FFE56C3424FE5E
:101C0300E434FFFDE434FFFCC0079000E9E0FBE4AB
:101C1300FAF8D007125FC4EF256FF56FEE356EF556
:101C23006EAE6CAF6DE4FCFD7B487AEEF9F8C3123F
:101C33003BC9500674FFF56EF56FAE6EAF6F22129F
:101C43005E9EBF0106752C0402240D200406852325
:101C5300538524547888E6704B7602124C82E555FE
:101C630025E0248EF8A60608A607E555C39404507C
:101C7300040555802F7995E7789326FF19E71836E1
:101C8300FEEF1826FFEE1836FEEF1826FFEE183685
:101C9300FEEF7802CEC313CE13D8F9F5548E53E476
:101CA300F555D2047881E6600302239C7608125B23
:101CB300D98E648F65E5306003021DA520010930CC
:101CC3000406852353852454AC53AD54E4123A9A45
:101CD3007B667A6679BA78411238EFE4FBFA7920A9
:101CE30078411239F8123AD38E4F8F50C3E554948A
:101CF3002CE5539401401BE55424D4FFE55334FEF3
:101D0300FE7C007D1A123B66EF2550F550EE354FF1
:101D1300F54FC3E5549458E5539402401DE554240C
:101D2300A8FFE55334FDFEEF7805CEC313CE13D8D9
:101D3300F92550F550EE354FF54FC3E55494E8E5DA
:101D4300539403401BE5542418FFE55334FCFE7CF5
:101D5300007D22123B66EF2550F550EE354FF54FCF
:101D630020010C3004097889A64F08A650D201122D
:101D730057EA8E668F6712144A8E688F69AC66AD18
:101D830067E4123A9A7B337A33794378421239F80B
:101D9300123AD38E688F69AE66AF677C007D2602E8
:101DA3001FE3E53064016003021EBE200109300415
:101DB30006852353852454AC53AD54E4123A9A7BDD
:101DC3009A7A9979ED78411238EFE4FBFA79207821
:101DD300411239F8123AD38E4F8F50C3E55494FA17
:101DE300E5539400401BE5542406FFE55334FFFEFE
:101DF3007C007D18123B66EF2550F550EE354FF50C
:101E03004FC3E55494F4E5539401401BE554240C6B
:101E1300FFE55334FEFE7C007D16123B66EF255032
:101E2300F550EE354FF54FC3E5549420E553940335
:101E3300401BE55424E0FFE55334FCFE7C007D1693
:101E4300123B66EF2550F550EE354FF54FC3E55481
:101E530094B0E5539404401BE5542450FFE55334F8
:101E6300FBFE7C007D15123B66EF2550F550EE35E9
:101E73004FF54F20010C3004097889A64F08A6506E
:101E8300D2011257EA8E668F6712414A8E688F69B4
:101E9300AC66AD67E4123A9A7B337A3379DB7841E7
:101EA3001239F8123AD38E688F69AC66AD67E412C3
:101EB3003A9A7B337A3379AB02217CE53064026052
:101EC30003021FF22001093004068523538524549D
:101ED300AE53AF547C007D17123B547D0A123B6610
:101EE3008E4F8F50C3E554942CE5539401401BE56A
:101EF3005424D4FFE55334FEFE7C007D0D123B6673
:101F0300EF2550F550EE354FF54FC3E5549458E5A2
:101F1300539402401BE55424A8FFE55334FDFE7C93
:101F2300007D0C123B66EF2550F550EE354FF54F13
:101F3300C3E5549484E5539403401BE554247CFF88
:101F4300E55334FCFE7C007D0C123B66EF2550F517
:101F530050EE354FF54FC3E55494B0E55394044028
:101F63001BE5542450FFE55334FBFE7C007D0C122B
:101F73003B66EF2550F550EE354FF54FC3E55494CE
:101F8300DCE5539405401BE5542424FFE55334FA60
:101F9300FE7C007D0E123B66EF2550F550EE354F6B
:101FA300F54F20010C3004097889A64F08A650D2BA
:101FB300011257EA8E668F671232878E688F69AC7B
:101FC30066AD67E4123A9AE4FBFA79F07840123985
:101FD300F8123AD38E688F69AE66AF677C007D06D0
:101FE300123B66EF24A3F56BE43EF56A02238DE50D
:101FF3003064036003022181200109300406852334
:1020030053852454AC53AD54E4123A9A7B667A66F2
:10201300790A78421238EFE4FBFA792078411239D1
:10202300F8123AD38E4F8F50C3E55494C8E55394B6
:1020330000401EE5542438FFE55334FFC4F854F040
:10204300C868FEEFC4540F482550F550EE354FF5E0
:102053004FC3E5549490E5539401401BE554247019
:10206300FFE55334FEFE7C007D12123B66EF2550E4
:10207300F550EE354FF54FC3E5549458E5539402AC
:10208300401BE55424A8FFE55334FDFE7C007D117D
:10209300123B66EF2550F550EE354FF54FC3E5542F
:1020A3009420E5539403401BE55424E0FFE55334A7
:1020B300FCFE7C007D11123B66EF2550F550EE359A
:1020C3004FF54FC3E55494E8E5539403401BE5549F
:1020D3002418FFE55334FCFE7C007D11123B66EFB0
:1020E3002550F550EE354FF54FC3E55494B0E55305
:1020F3009404401BE5542450FFE55334FBFE7C005D
:102103007D11123B66EF2550F550EE354FF54FC369
:10211300E5549478E5539405401BE5542488FFE582
:102123005334FAFE7C007D16123B66EF2550F550C2
:10213300EE354FF54F20010C3004097889A64F087E
:10214300A650D2011257EA8E668F67120BE88E688B
:102153008F69AC66AD67E4123A9A7B667A6679E278
:1021630078411239F8123AD38E688F69AC66AD673D
:10217300E4123A9AE4FBFA79B47841022379E53020
:1021830064046003022295750901200109300406E5
:10219300852353852454E554AE537805C333CE3396
:1021A300CED8F9FF7C007D64123B668E4F8F50C3FF
:1021B300E554940EE5539401401BE55424F2FFE5E6
:1021C3005334FEFE7C007D1A123B66EF2550F5501A
:1021D300EE354FF54FC3E5549458E5539402401D33
:1021E300E55424A8FFE55334FDFEEF7805CEC31371
:1021F300CE13D8F92550F550EE354FF54FC3E554BE
:1022030094E8E5539403401BE5542418FFE5533445
:10221300FCFE7C007D22123B66EF2550F550EE3527
:102223004FF54FC3E554940EE5539406401BE55414
:1022330024F2FFE55334F9FE7C007D22123B66EF66
:102243002550F550EE354FF54F20010C3004097839
:1022530089A64F08A650D2011257EA8E668F6712DD
:1022630049348E688F69AC66AD67E4123A9A7B3362
:102273007A33796378421239F8123AD38E688F69C8
:10228300AC66AD67E4123A9AE4FBFA79327842021B
:102293002379E5306405600302238D75090120016C
:1022A30009300406852353852454AE53AF547C0070
:1022B3007D21123B547D64123B668E4F8F50C3E5E4
:1022C300549490E5539401401BE5542470FFE55367
:1022D30034FEFE7C007D1E123B66EF2550F550EE6A
:1022E300354FF54FC3E5549452E5539403401BE532
:1022F3005424AEFFE55334FCFE7C007D28123B667C
:10230300EF2550F550EE354FF54FC3E5549414E5E2
:10231300539405401BE55424ECFFE55334FAFE7C4B
:10232300007D24123B66EF2550F550EE354FF54FF7
:1023330020010C3004097889A64F08A650D2011257
:1023430057EA8E668F671245E58E688F69AC66AD76
:1023530067E4123A9A7B337A33796378421239F815
:10236300123AD38E688F69AC66AD67E4123A9AE489
:10237300FBFA793278421239F8E4FBFA792378438D
:102383001237FE123AD38E6A8F6BE55A700BAF6722
:10239300AE66125C858E668F677882E67007125E82
:1023A3002D788276087880E670267610AD54AC538B
:1023B3007F01122412D3E567954BE566954A400EDB
:1023C300E5679549E56695485004D2B48002C2B4E6
:1023D3007885E67018208407AF69AE6812629D2085
:1023E3008507AF6BAE6A1261EE788576107884E666
:1023F3007018200209856799D2027601800AE56682
:10240300F599C2027884763BD299AE66AF6722E42F
:10241300F56CF56DF56EF56FF570F5718C728D7366
:10242300E508640160030225E3C3E573940AE572DA
:102433009400503F90658CE493F56CF56DF56EE573
:1024430039B4030A90658FE493F56E0225FEE5091E
:1024530064016005E539B4020D90658CE493F56F72
:1024630090658F02263790658FE493F56F9065969C
:10247300022637C3E573940AE5729400403FE5737F
:102483009464E5729400503590658CE493F56CF593
:102493006DF56EE5396403700C90658F93F56E905E
:1024A30065960226B6E50964016006E539640270A3
:1024B3000690658F0226B690658F0226EFC3E573FB
:1024C3009464E57294004038E57394E8E5729403EC
:1024D300502E90658CE493F56CF56D90658FE493C5
:1024E300F56EE53964037003022751E50964017051
:1024F300030227B4E5396402600302280C0227B4FF
:10250300C3E57394E8E5729403404FE5739410E5D3
:10251300729427504590658CE493F56C90658FE435
:1025230093F56DAE72AF737C037DE8123B66747AEC
:102533002FF58274653EF583E493F56EE539640304
:1025430070030228A7E50964017003022918E5391D
:102553006402600302297D022918C3E5739410E520
:102563007294275003022B8DAE72AF73E4FCFD7B94
:10257300A07A867901F8D3123BC95003022B8D90C0
:10258300658FE493F56CAE72AF737C277D10123BBD
:1025930066747A2FF58274653EF583E493F56DAE28
:1025A30072AF737C277D10123B667E037FE8CFCD2D
:1025B300CFCECCCE123B66747A2FF58274653EF58E
:1025C30083E493F56EE539640370030228A7E509F4
:1025D30064016006E5396402700302291802297D4B
:1025E300C3E573940AE5729400505590658CE493A7
:1025F300F56CF56DF56EE539B40313906596E493C8
:10260300F56F90657AE493F570E573022B8AE5091B
:1026130064016005E539B4021190658CE493F56FAC
:10262300F570E57390657A022B8A90658CE493F5D7
:102633006F906596E493F570E57390657A022B8A43
:10264300C3E573940AE57294005003022725E573EA
:102653009464E5729400400302272590658CE4930B
:10266300F56CF56DF56EE5396403703890659693F6
:10267300F56FAE72AF737C007D0A123B66747A2FDE
:10268300F58274653EF583E493F570AE72AF737CA7
:10269300007D0A123B66747A2DF58274653CF583DE
:1026A300E4022B8AE50964016006E53964027039A6
:1026B30090658CE493F56FAE72AF737C007D0A1264
:1026C3003B66747A2FF58274653EF583E493F57067
:1026D300AE72AF737C007D0A123B66747A2DF5826D
:1026E30074653CF583E4022B8A90658CE493F56F63
:1026F300AE72AF737C007D0A123B6674962FF5822F
:1027030074653EF583E493F570AE72AF737C007D20
:102713000A123B66747A2DF58274653CF583E402F4
:102723002B8AC3E5739464E5729400500302286412
:10273300E57394E8E5729403400302286490658C82
:10274300E493F56CF56DF56EE53964037057AE727D
:10275300AF73FC7D64123B6674962FF58274653EFD
:10276300F583E493F56FAE72AF737C007D64123B27
:10277300667E007F0ACFCDCFCECCCE123B66747A75
:102783002FF58274653EF583E493F570AE72AF73F3
:102793007C007D0A123B66747A2DF58274653CF5E4
:1027A30083E4022B8AE50964016006E5396402705B
:1027B30058AE72AF737C007D64123B66747A2FF55A
:1027C3008274653EF583E493F56FAE72AF737C005C
:1027D3007D64123B667E007F0ACFCDCFCECCCE1276
:1027E3003B66747A2FF58274653EF583E493F57046
:1027F300AE72AF737C007D0A123B66747A2DF5824C
:1028030074653CF583E4022B8AAE72AF737C007D62
:1028130064123B66747A2FF58274653EF583E49304
:10282300F56FAE72AF737C007D64123B667E007FF2
:102833000ACFCDCFCECCCE123B6674962FF58274E1
:10284300653EF583E493F570AE72AF737C007D0A49
:10285300123B66747A2DF58274653CF583E4022B92
:102863008AC3E57394E8E572940350030229E2E511
:10287300739410E572942740030229E290658CE477
:1028830093F56CF56DAE72AF737C037DE8123B6616
:10289300747A2FF58274653EF583E493F56EE5391A
:1028A30064037065AE72AF737C037DE8123B667E92
:1028B300007F64CFCDCFCECCCE123B6674962FF57E
:1028C3008274653EF583E493F56FAE72AF737C005B
:1028D3007D64123B667E007F0ACFCDCFCECCCE1275
:1028E3003B66747A2FF58274653EF583E493F57045
:1028F300AE72AF737C007D0A123B66747A2DF5824B
:1029030074653CF583E4022B8AE50964016006E5FE
:102913003964027065AE72AF737C037DE8123B6667
:102923007E007F64CFCDCFCECCCE123B66747A2FA0
:10293300F58274653EF583E493F56FAE72AF737CF5
:10294300007D64123B667E007F0ACFCDCFCECCCE16
:10295300123B66747A2FF58274653EF583E493F532
:1029630070AE72AF737C007D0A123B66747A2DF5EC
:102973008274653CF583E4022B8AAE72AF737C03E9
:102983007DE8123B667E007F64CFCDCFCECCCE12E6
:102993003B66747A2FF58274653EF583E493F56F95
:1029A300AE72AF737C007D64123B667E007F0ACFFC
:1029B300CDCFCECCCE123B6674962FF58274653E96
:1029C300F583E493F570AE72AF737C007D0A123B1E
:1029D30066747A2DF58274653CF583E4022B8AC311
:1029E300E5739410E57294275003022B8DAE72AFFA
:1029F30073E4FCFD7BA07A867901F8D3123BC950BE
:102A030003022B8D90658CE493F56CAE72AF737CEF
:102A1300277D10123B66747A2FF58274653EF58329
:102A2300E493F56DAE72AF737C277D10123B667E27
:102A3300037FE8CFCDCFCECCCE123B66747A2FF591
:102A43008274653EF583E493F56EE539640370653E
:102A5300AE72AF737C037DE8123B667E007F64CF6A
:102A6300CDCFCECCCE123B6674962FF58274653EE5
:102A7300F583E493F56FAE72AF737C007D64123B14
:102A8300667E007F0ACFCDCFCECCCE123B66747A62
:102A93002FF58274653EF583E493F570AE72AF73E0
:102AA3007C007D0A123B66747A2DF58274653CF5D1
:102AB30083E4022B8AE50964016006E53964027048
:102AC30064AE72AF737C037DE8123B667E007F6465
:102AD300CFCDCFCECCCE123B66747A2FF582746500
:102AE3003EF583E493F56FAE72AF737C007D6412A1
:102AF3003B667E007F0ACFCDCFCECCCE123B667431
:102B03007A2FF58274653EF583E493F570AE72AF68
:102B1300737C007D0A123B66747A2DF58274653CE2
:102B2300F583E48062AE72AF737C037DE8123B668B
:102B33007E007F64CFCDCFCECCCE123B66747A2F8E
:102B4300F58274653EF583E493F56FAE72AF737CE3
:102B5300007D64123B667E007F0ACFCDCFCECCCE04
:102B6300123B6674962FF58274653EF583E493F504
:102B730070AE72AF737C007D0A123B66747A2DF5DA
:102B83008274653CF583E493F571856F7C856E7D76
:102B9300856D7E856C7FAB70AD717F01025B128C9E
:102BA3006D8D6E8F6FAF6EAE6DE56F702890658B18
:102BB30093FFF57090657AE493F57190658CE493D7
:102BC300F57290657FE493F573906588E493F574EB
:102BD3008F75023272E56F64016003022C82EF4E3F
:102BE300702290658B93F57090657BE493F57190FB
:102BF300658CE493F572F573906591E493F574A392
:102C0300E493F575EF64014E702990658B93F5702D
:102C130090657BE493F57190658CE493F572906510
:102C230093E493F573906591E493F574906587E469
:102C330093F575EF64024E701F90658B93F570905A
:102C4300657BE493F57190658CE493F572F573F508
:102C530074906590E493F575EF64034E600302325C
:102C63007290658B93F57090657BE493F571906535
:102C73008CE493F572F573F57490658402316DE518
:102C83006F64027049EF4E701E90658B93F57090E0
:102C9300657CE493F57190658CE493F572F573F5B7
:102CA3007490658602316DEF64014E6003023272E7
:102CB30090658B93F57090657CE493F57190658CCA
:102CC300E493F572F573F57490658902316DE56FE0
:102CD30064036003022DC8EF4E701B90658B93F560
:102CE3007090657DE493F57190658CE493F572F5CE
:102CF30073757474F575EF64014E702490658B934E
:102D0300F57090657DE493F57190658CE493F572AD
:102D1300F573906595E493F57490658CE493F5757C
:102D2300EF64024E702490658B93F57090657DE49B
:102D330093F57190658CE493F572F573906591E466
:102D430093F57490658CE493F575EF64034E7024EA
:102D530090658B93F57090657DE493F57190658C28
:102D6300E493F572F573906588E493F57490658C3C
:102D7300E493F575EF64044E702490658B93F570BE
:102D830090657DE493F57190658CE493F572F5732A
:102D9300906593E493F57490658CE493F575EF6413
:102DA300054E600302327290658B93F57090657DDA
:102DB300E493F57190658CE493F572F57375746D16
:102DC300F575023272E56FC394045003023171E565
:102DD3006FD3940D4003023171856D77856E78E56D
:102DE3006FB40405906591803AE56FB4050590656D
:102DF300918041E56FB406059065938026E56FB435
:102E03000705906593802DE56FB408059065908064
:102E130012E56FB409059065908019E56FB40A0C4B
:102E2300906584E493F57075715C8039E56FB40B3C
:102E33000C906584E493F57075716D8028E56FB42B
:102E43000C10906584E493F57090658EE493F571AE
:102E53008013E56FB40D11906584E493F57090656C
:102E63008AE493F571E4F576C3E57794004040E591
:102E730078940AE5779400503690658CE493F57264
:102E8300F573E5767009E509700590659680049001
:102E9300657AE493F574AE77AF787C007D0A123BD4
:102EA30066747A2DF58274653CF583E493F575C3F6
:102EB300E578940AE57794004060E5789464E577D3
:102EC3009400505690658CE493F572F573E5767033
:102ED30017E5097013AE77AF78FC7D0A123B667471
:102EE300962FF58274658012AE77AF787C007D0AE9
:102EF300123B66747A2FF58274653EF583E493F58D
:102F030074AE77AF787C007D0A123B66747A2DF538
:102F13008274653CF583E493F575C3E5789464E5C1
:102F23007794005003022FBFE57894E8E577940384
:102F33004003022FBF90658CE493F572AE77AF78B0
:102F43007C007D64123B66747A2FF58274653EF5CE
:102F530083E493F573E5767024E5097020AE77AFCB
:102F630078FC7D64123B667E007F0ACFCDCFCECC4A
:102F7300CE123B6674962FF5827465801FAE77AFD1
:102F8300787C007D64123B667E007F0ACFCDCFCE76
:102F9300CCCE123B66747A2FF58274653EF583E4DA
:102FA30093F574AE77AF787C007D0A123B66747A32
:102FB3002DF58274653CF583E493F575C3E5789448
:102FC300E8E57794035003023080E5789410E577C1
:102FD30094274003023080AE77AF787C037DE812FC
:102FE3003B66747A2FF58274653EF583E493F5723C
:102FF300AE77AF787C037DE8123B667E007F64CFBB
:10300300CDCFCECCCE123B66747A2FF58274653E5B
:10301300F583E493F573E5767024E5097020AE77C4
:10302300AF78FC7D64123B667E007F0ACFCDCFCEA6
:10303300CCCE123B6674962FF5827465801FAE77F3
:10304300AF787C007D64123B667E007F0ACFCDCFD4
:10305300CECCCE123B66747A2FF58274653EF5832F
:10306300E493F574AE77AF787C007D0A123B667407
:103073007A2DF58274653CF583E493F575C3E578A1
:103083009410E57794275003023272AE77AF78E459
:10309300FCFD7BA07A867901F8D3123BC950030269
:1030A3003272AE77AF787C277D10123B66747A2F2D
:1030B300F58274653EF583E493F571AE77AF787C62
:1030C300277D10123B667E037FE8CFCDCFCECCCEDB
:1030D300123B66747A2FF58274653EF583E493F5AB
:1030E30072AE77AF787C037DE8123B667E007F6427
:1030F300CFCDCFCECCCE123B66747A2FF5827465DA
:103103003EF583E493F573E5767024E5097020AE0C
:1031130077AF78FC7D64123B667E007F0ACFCDCF0C
:10312300CECCCE123B6674962FF5827465801FAEAB
:1031330077AF787C007D64123B667E007F0ACFCD3B
:10314300CFCECCCE123B66747A2FF58274653EF5F2
:1031530083E493F574AE77AF787C007D0A123B6607
:10316300747A2DF58274653CF583E4023256E56F7B
:10317300C3940E5009E56F9414400302325BE56F6C
:10318300B40E0575706E802EE56FB40F0C90658DCF
:10319300E493F57090657A8031E56FB4100C906517
:1031A30087E493F57075716E8024E56FB4110C900C
:1031B300658AE493F570906593800FE56FB4120E02
:1031C30090658DE493F57090657BE493F571856D5F
:1031D30077856E78E578540FFDE577C4F854F0C829
:1031E30068F577E578C4540F48F578540FFCE57714
:1031F300C4F854F0C868F577E578C4540F48F578F7
:10320300540FFBE577C4F854F0C868F577E578C444
:10321300540F48F578540FFF757601702390658C31
:1032230093FEF572EB70088E73EC90657A8008EB71
:1032330090657A93F573EC93F574ED93F575800FC0
:10324300EF90657A93F572EB93F573EC93F574ED68
:1032530090657A93F5758017E56FC394164010E473
:10326300F570F571F57275736E75747975756B8597
:10327300737C85727D85717E85707FAB74AD757F40
:1032830001025B128E6C8F6D856C70856D71E4F538
:1032930009E50864016003023616D3E56D94C2E5BF
:1032A3006C9402AC6CAD6D5030E4123A9A7B7B7A2D
:1032B30014790E78401239F8A804A905AA06AB07B9
:1032C300E4FFFE7DA07C431237FA123AD38E6E8F51
:1032D3006F750A01E4F5088026E4123A9A7BCD7AE9
:1032E300CC790C78401239F8E4FBFA79A078C31250
:1032F30037FE123AD38E6E8F6FE4F50A750801D349
:10330300E56F946EE56E94004022E50A701EE56F4A
:10331300249CFFE56E34FFFE90010FE0FD7C00125C
:103323003B66EF256FF56FEE356EF56ED3E56F9463
:10333300B5E56E94014022E50A701EE56F245CFF3B
:10334300E56E34FEFE900112E0FD7C00123B66EF59
:10335300256FF56FEE356EF56ED3E56F9458E56E18
:1033630094024022E50A701EE56F24DAFFE56E340D
:10337300FDFE900111E0FD7C00123B66EF256FF529
:103383006FEE356EF56ED3E56F94DEE56E94024015
:1033930022E50A701EE56F243AFFE56E34FDFE90C8
:1033A3000110E0FD7C00123B66EF256FF56FEE35F3
:1033B3006EF56ED3E56F94C0E56E94034022E50A83
:1033C300701EE56F244AFFE56E34FCFE900111E0A8
:1033D300FD7C00123B66EF256FF56FEE356EF56EE3
:1033E300D3E56F947EE56E94044022E50A701EE5F2
:1033F3006F24B4FFE56E34FBFE900110E0FD7C000A
:10340300123B66EF256FF56FEE356EF56ED3E56F04
:103413009446E56E94054022E50A701EE56F24ECA0
:10342300FFE56E34FAFE900110E0FD7C00123B666E
:10343300EF256FF56FEE356EF56ED3E56F9404E50A
:103443006E94064022E50A701EE56F2410FFE56EB8
:1034530034FAFE90010FE0FD7C00123B66EF256F0E
:10346300F56FEE356EF56ED3E56F94F4E56E940665
:103473004022E50A701EE56F242AFFE56E34F9FE4B
:10348300900110E0FD7C00123B66EF256FF56FEEB7
:10349300356EF56ED3E56F9476E56E94074022E5BD
:1034A3000A701EE56F2494FFE56E34F8FE90011058
:1034B300E0FD7C00123B66EF256FF56FEE356EF590
:1034C3006ED3E56F9448E56E94084022E50A701EBA
:1034D300E56F24C2FFE56E34F7FE90010FE0FD7C3B
:1034E30000123B66EF256FF56FEE356EF56ED3E593
:1034F3006F94DEE56E94084022E50A701EE56F24A2
:103503002CFFE56E34F7FE90010FE0FD7C00123BCB
:1035130066EF256FF56FEE356EF56ED3E56F94F6B6
:10352300E56E94094022E50A701EE56F2428FFE545
:103533006E34F6FE90010FE0FD7C00123B66EF2532
:103543006FF56FEE356EF56ED3E56F94A0E56E946F
:103553000A4022E50A701EE56F2488FFE56E34F504
:10356300FE90010FE0FD7C00123B66EF256FF56FC7
:10357300EE356EF56ED3E56F944AE56E940B4022FB
:10358300E50A701EE56F24DEFFE56E34F4FE90015C
:103593000FE0FD7C00123B66EF256FF56FEE356E95
:1035A300F56ED3E56F949AE56E940B4022E50A70AD
:1035B3001EE56F2484FFE56E34F4FE90010FE0FDF9
:1035C3007C00123B66EF256FF56FEE356EF56ED31B
:1035D300E56F9426E56E940C4022E50A701EE56FB4
:1035E30024E4FFE56E34F3FE90010FE0FD7C00124E
:1035F3003B66EF256FF56FEE356EF56ED3E56F9491
:10360300A0E56E940F50030237F2756E13756F7E4B
:103613000237F285706E85716FAC70AD71E4123A4A
:103623009A7BCD7ACC790C78401239F8E4FBFA799D
:10363300A078431237FE123AD38E6E8F6FD3E56FA5
:103643009454E56E9401401FE56F24B6FFE56E3494
:10365300FEFE900111E0FD7C00123B66C3E56F9F07
:10366300F56FE56E9EF56ED3E56F943AE56E9402C1
:10367300401FE56F24D0FFE56E34FDFE900110E09E
:10368300FD7C00123B66C3E56F9FF56FE56E9EF50B
:103693006ED3E56F94ACE56E9403401FE56F24721F
:1036A300FFE56E34FCFE900110E0FD7C00123B66EA
:1036B300C3E56F9FF56FE56E9EF56ED3E56F9414CA
:1036C300E56E9405401FE56F240AFFE56E34FBFEAB
:1036D300900110E0FD7C00123B66C3E56F9FF56F20
:1036E300E56E9EF56ED3E56F94B8E56E9406401FC4
:1036F300E56F245CFFE56E34F9FE900110E0FD7C7C
:1037030000123B66C3E56F9FF56FE56E9EF56ED3C2
:10371300E56F947AE56E9408401CE56F249AFFE503
:103723006E34F7FE7C007D1C123B66C3E56F9FF58C
:103733006FE56E9EF56ED3E56F9432E56E940A40A5
:103743001FE56F24ECFFE56E34F5FE900111E0FDFB
:103753007C00123B66C3E56F9FF56FE56E9EF56EC9
:10376300D3E56F94A4E56E940B401FE56F2470FFBF
:10377300E56E34F4FE900111E0FD7C00123B66C35C
:10378300E56F9FF56FE56E9EF56ED3E56F94B7E534
:103793006E940D401FE56F24AEFFE56E34F2FE908C
:1037A3000111E0FD7C00123B66C3E56F9FF56FE5F9
:1037B3006E9EF56ED3E56F9490E56E940F401FE512
:1037C3006F24E2FFE56E34F0FE900112E0FD7C0011
:1037D300123B66C3E56F9FF56FE56E9EF56ED3E50D
:1037E3006F9488E56E94134006756E17756F6FAE10
:1037F3006EAF6F22023B3FE86480F8E933E8336041
:10380300110460F0ED33EC337009E8FCE9FDEAFEE6
:10381300EBFF220460DED3EB9FEA9EE99DE8C2E75B
:103823008CF0C2F795F0400CE8CCF8E9CDF9EACE7C
:10383300FAEBCFFB123B0A85D0F05804700320D576
:10384300B3E80470075002B2D5023B4992D5EC04A9
:1038530060F7E4CCC0E0C398F8603B94186008407C
:103863000DD0E0FB023B21E4FBFAC9FC8028E830E1
:10387300E406E4C9FBE4CAFCE830E305E4C9CACBC7
:10388300FCE854076010F8C3E913F9EA13FAEB13E1
:10389300FBEC13FCD8F130F52FC3E49CFCEF9BFF4A
:1038A300EE9AFEED99FDD0E0FBEF4E4D4C701222E7
:1038B300DB03023B46EC2CFCEF33FFEE33FEED3330
:1038C300FDED30E7EB023B21EF2BFFEE3AFEED3946
:1038D300FDD0E0FB50130BBB0003023B49ED13FD8E
:1038E300EE13FEEF13FFEC13FC023B21EC4D6011D2
:1038F300E8497017ED33EC3304600DE4FCFFFEFD83
:1039030022E933E8330470F8023B3F123B0A5804C0
:103913006009E4CC24815006285009023B49284021
:1039230003023B46C0E0EB4A7044B98006D0E0FB9B
:10393300023B35EF4E701CBD8008EBFFEAFEE9FD4C
:1039430080EBE98DF0A4FEE5F00239D8E9CDF9EA80
:10395300FEEBFFEF89F0A4FCE5F0CE89F0A42EFF87
:10396300E435F0CD89F0A42DFEE435F08067EF4E09
:103973007005BD80D780C3EF8BF0A4ACF0EE8BF065
:10398300A42CFCE435F0F8EF8AF0A42CE5F038FC25
:10399300E433CB8DF0A42CFCE5F03BF8EE8AF0A4E5
:1039A3002CFCE5F038F8E433CF89F0A42CFCE5F0E7
:1039B30038CF3400CE89F0A42FFFE5F03EFEE43388
:1039C300C98DF0A42EFEE5F039CD8AF0A42FFFE5D2
:1039D300F03EFEE43DFD33D0E0FB50070BBB000F90
:1039E300023B49EC2CFCEF33FFEE33FEED33FD02DB
:1039F3003B21023B49EC5D046005E8590470030276
:103A03003B3F123B0A580460F6EC4860F2EC70044A
:103A1300FDFEFF22C860DB2481C85009C398600201
:103A23005006023B469850CAF582E9294B4A700575
:103A3300AB82023B3575F0007C1A7880C3EF9BEEB6
:103A43009AED99400DC3EF9BFFEE9AFEED99FDE8C9
:103A530042F0DC23ACF0D0E0FFD0E0FED0E0FDABE1
:103A63008220E7101BEB60BAEC2CFCEF33FFEE3344
:103A7300FEED33FD023B21E803F830E705C0F075A6
:103A8300F000EF2FFFEE33FEED33FD40B830E7C219
:103A930080AA75F020800E75F010800575F0087D02
:103AA300007E007F003392D530D503123BBBEC334D
:103AB3004010EF33FFEE33FEED33FDEC33FCD5F076
:103AC300ED22E5F0247EA2D513CC92E7CDCEFF22E2
:103AD300EDD2E7CD33EC3392D524814006E4FFFEEB
:103AE300FDFC22FCE4CFCECDCC24E0501174FF804A
:103AF300EDC3CC13CCCD13CDCE13CECF13CF0470E7
:103B0300F030D5DE023BBBE9D2E7C933E833F892A4
:103B1300D5EDD2E7CD33EC33FC5002B2D522EC30F5
:103B2300E7100FBF000C0EBE00080DBD00040BEB29
:103B33006014A2D5EB13FCED92E7FD2274FFFCFDAC
:103B4300FEFF22E480F8A2D574FF13FC7D80E4809D
:103B5300EFEF8DF0A4A8F0CF8CF0A428CE8DF0A4C5
:103B63002EFE22BC000BBE0029EF8DF084FFADF0CA
:103B730022E4CCF875F008EF2FFFEE33FEEC33FCB4
:103B8300EE9DEC984005FCEE9DFE0FD5F0E9E4CEEA
:103B9300FD22EDF8F5F0EE8420D21CFEADF075F0B9
:103BA30008EF2FFFED33FD4007985006D5F0F222C2
:103BB300C398FD0FD5F0EA22C3E49FFFE49EFEE421
:103BC3009DFDE49CFC22EB9FF5F0EA9E42F0E99D0B
:103BD30042F0EC6480C864809845F02275F0087563
:103BE3008200EF2FFFEE33FECD33CDCC33CCC58235
:103BF30033C5829BED9AEC99E58298400CF582EEF1
:103C03009BFEED9AFDEC99FC0FD5F0D6E4CEFBE4D8
:103C1300CDFAE4CCF9A88222B800C1B90059BA00A0
:103C23002DEC8BF084CFCECDFCE5F0CBF97818EFFB
:103C33002FFFEE33FEED33FDEC33FCEB33FB10D7FC
:103C430003994004EB99FB0FD8E5E4F9FA227818BD
:103C5300EF2FFFEE33FEED33FDEC33FCC933C91018
:103C6300D7059BE99A4007EC9BFCE99AF90FD8E04A
:103C7300E4C9FAE4CCFB2275F010EF2FFFEE33FE1C
:103C8300ED33FDCC33CCC833C810D7079BEC9AE88F
:103C930099400AED9BFDEC9AFCE899F80FD5F0DA10
:103CA300E4CDFBE4CCFAE4C8F9228E6A8F6BE4F529
:103CB30009E50864016003023E16D3E56B948AE5C7
:103CC3006A9401AC6AAD6B5030E4123A9A7BD77AAE
:103CD300A379B0783F1239F8A804A905AA06AB075F
:103CE300E4FFFE7DA07C431237FA123AD38E6C8F29
:103CF3006D750A01E4F5088026E4123A9A7BD77AB7
:103D0300A379B0783F1239F8E4FBFA79A078C312AB
:103D130037FE123AD38E6C8F6DE4F50A7508018570
:103D23006C6E856D6FD3E56D9428E56C940040222D
:103D3300E50A701EE56D2428FFE4356CFE90011939
:103D4300E0FD7C00123B66C3E56F9FF56FE56E9E59
:103D5300F56ED3E56D94B6E56C94034023E50A70E4
:103D63001FE56D244AFFE56C34FCFE900118E0FD6D
:103D73007C00123B66C3E56F9FF56FE56E9EF56EA3
:103D8300D3E56D949EE56C94074023E50A701FE527
:103D93006D2462FFE56C34F8FE900118E0FD7C00B1
:103DA300123B66C3E56F9FF56FE56E9EF56ED3E537
:103DB3006D9428E56C940A4023E50A701FE56D2491
:103DC300D8FFE56C34F5FE900118E0FD7C00123B52
:103DD30066C3E56F9FF56FE56E9EF56ED3E56D9453
:103DE30080E56C940C5003024145E50A60030241EF
:103DF30045E56D2480FFE56C34F3FE900118E0FD8A
:103E03007C00123B66C3E56F9FF56FE56E9EF56E12
:103E1300024145AC6AAD6BE4123A9A7BD77AA37937
:103E2300B0783F1239F8E4FBFA79A078431237FEF1
:103E3300123AD38E6C8F6D856C6E856D6FC3E56D95
:103E43009414E56C9405401DE4256DFFE56C34FB8B
:103E5300FE90011AE0FD7C00123B66EF256FF56FC3
:103E6300EE356EF56EC3E56D9498E56C9408401ECF
:103E7300E56D2468FFE56C34F7FE90011CE0FD7CE2
:103E830000123B66EF256FF56FEE356EF56EC3E5F9
:103E93006D94B2E56C940C401EE56D244EFFE56C09
:103EA30034F3FE90011AE0FD7C00123B66EF256FB0
:103EB300F56FEE356EF56EC3E56D9404E56C941005
:103EC300401EE56D24FCFFE56C34EFFE90011AE023
:103ED300FD7C00123B66EF256FF56FEE356EF56ED8
:103EE300C3E56D9488E56C9413401EE56D2478FF5B
:103EF300E56C34ECFE90011CE0FD7C00123B66EFA8
:103F0300256FF56FEE356EF56EC3E56D94A8E56C20
:103F13009416401EE56D2458FFE56C34E9FE9001CC
:103F23001CE0FD7C00123B66EF256FF56FEE356EEE
:103F3300F56EC3E56C9419401DE4256DFFE56C3403
:103F4300E7FE90011BE0FD7C00123B66EF256FF559
:103F53006FEE356EF56EC3E56D94A2E56C941C406F
:103F63001EE56D245EFFE56C34E3FE90011AE0FD6F
:103F73007C00123B66EF256FF56FEE356EF56EC371
:103F8300E56D940EE56C941F401EE56D24F2FFE58C
:103F93006C34E0FE90011AE0FD7C00123B66EF25D5
:103FA3006FF56FEE356EF56EC3E56D94FCE56C94BD
:103FB30021401EE56D2404FFE56C34DEFE90011AFA
:103FC300E0FD7C00123B66EF256FF56FEE356EF575
:103FD3006EC3E56D94EAE56C9424401EE56D2416EA
:103FE300FFE56C34DBFE90011BE0FD7C00123B66B9
:103FF300EF256FF56FEE356EF56EC3E56D94ACE5A9
:104003006C9426401EE56D2454FFE56C34D9FE9074
:10401300011DE0FD7C00123B66EF256FF56FEE3569
:104023006EF56EC3E56D9404E56C9429401EE56D51
:1040330024FCFFE56C34D6FE90011CE0FD7C0012ED
:104043003B66EF256FF56FEE356EF56EC3E56D9448
:10405300F4E56C9429401EE56D240CFFE56C34D621
:10406300FE90011DE0FD7C00123B66EF256FF56FAE
:10407300EE356EF56EC3E56D9488E56C942C401EA9
:10408300E56D2478FFE56C34D3FE90011BE0FD7CE5
:1040930000123B66EF256FF56FEE356EF56EC3E5E7
:1040A3006D9418E56C942E401EE56D24E8FFE56CD5
:1040B30034D1FE90011DE0FD7C00123B66EF256FBD
:1040C300F56FEE356EF56EC3E56D94DAE56C942FFE
:1040D300401EE56D2426FFE56C34D0FE90011DE003
:1040E300FD7C00123B66EF256FF56FEE356EF56EC6
:1040F300C3E56D94CEE56C9431401EE56D2432FF2B
:10410300E56C34CEFE900118E0FD7C00123B66EFB7
:10411300256FF56FEE356EF56EC3E56D9458E56C5E
:104123009434401EE56D24A8FFE56C34CBFE90016A
:1041330018E0FD7C00123B66EF256FF56FEE356EE0
:10414300F56EAE6EAF6F228E6C8F6DE4F509E508E8
:1041530064017066D3E56D94B5E56C9403AC6CAD06
:104163006D5031E4123A9A7BA47A70793D7840120B
:1041730039F8A804A905AA06AB07E4FFFE7DA07CD5
:10418300431237FA123AD38E6E8F6F750A01E4F534
:10419300080245E0E4123A9A7BA47A70793D7840AC
:1041A3001239F8E4FBFA79A078C31237FE123AD336
:1041B3008E6E8F6FE4F50A0245E0AC6CAD6DE412D0
:1041C3003A9A7BA47A70793D78401239F8E4FBFA85
:1041D30079A078431237FE123AD38E6E8F6FD3E5F0
:1041E3006D941AE56C9404401FE56D2418FFE56C8B
:1041F30034FCFE9000DDE0FD7C00123B66C3E56FFE
:104203009FF56FE56E9EF56ED3E56D94F1E56C94C5
:1042130009401FE56D241EFFE56C34F6FE9000DDBA
:10422300E0FD7C00123B66C3E56F9FF56FE56E9E74
:10423300F56ED3E56D9406E56C9411401FE56D248E
:1042430002FFE56C34EFFE9000DEE0FD7C00123BE4
:1042530066C3E56F9FF56FE56E9EF56ED3E56D94CE
:1042630046E56C941E401EE4256DFFE56C34E2FECA
:104273009000DFE0FD7C00123B66C3E56F9FF56FA6
:10428300E56E9EF56ED3E56D949AE56C9429401F17
:10429300E56D2452FFE56C34D6FE9000DFE0FD7C33
:1042A30000123B66C3E56F9FF56FE56E9EF56ED317
:1042B300E56D94F2E56C942B401EE56D2440FFE51B
:1042C3006C34D4FE9000DFE0FD7C00123B66EF25EA
:1042D3006FF56FEE356EF56ED3E56D9448E56C942E
:1042E3003A401FE56D2462FFE56C34C6FE9000DFA3
:1042F300E0FD7C00123B66C3E56F9FF56FE56E9EA4
:10430300F56ED3E56D943CE56C943C401EE56D245D
:10431300D8FFE56C34C3FE9000DEE0FD7C00123B69
:1043230066EF256FF56FEE356EF56ED3E56D94D4BC
:10433300E56C9444401FE56D2440FFE56C34BBFEFF
:104343009000E0E0FD7C00123B66C3E56F9FF56FD4
:10435300E56E9EF56ED3E56D94BCE56C9448401E06
:10436300E56D2458FFE56C34B7FE9000DEE0FD7C7C
:1043730000123B66EF256FF56FEE356EF56ED3E5F4
:104383006D948CE56C9450401FE56D2488FFE56CBB
:1043930034AFFE9000DFE0FD7C00123B66C3E56FA7
:1043A3009FF56FE56E9EF56ED3E56D945CE56C94B9
:1043B30058401EE56D24B8FFE56C34A7FE9000DE7F
:1043C300E0FD7C00123B66EF256FF56FEE356EF571
:1043D3006ED3E56D9438E56C945E401FE56D24DC87
:1043E300FFE56C34A1FE9000DEE0FD7C00123B662D
:1043F300C3E56F9FF56FE56E9EF56ED3E56D94D0C3
:10440300E56C9466401EE56D2444FFE56C3499FE2B
:104413009000E0E0FD7C00123B66EF256FF56FEE48
:10442300356EF56ED3E56D9454E56C946A401FE5E3
:104433006D2424FFE56C3496FE9000DFE0FD7C00E4
:10444300123B66C3E56F9FF56FE56E9EF56ED3E590
:104453006D94B4E56C9473401FE56D2460FFE56CC7
:10446300348CFE9000DFE0FD7C00123B66C3E56FF9
:104473009FF56FE56E9EF56ED3E56D94DCE56C9468
:104483007D401FE56D2438FFE56C3482FE9000DF2C
:10449300E0FD7C00123B66C3E56F9FF56FE56E9E02
:1044A300F56EAE6CAF6DE4FCFD7BA07A87F9F8C3C3
:1044B300123BC9502CE56D2474FFE56C3478FEE49F
:1044C30034FFFDE434FFFCC0079000DEE0FBE4FAB8
:1044D300F8D007125FC4C3E56F9FF56FE56E9EF5D5
:1044E3006EAE6CAF6DE4FCFD7BB47A8CF9F8C3124D
:1044F3003BC9502CE56D2460FFE56C3473FEE43456
:10450300FFFDE434FFFCC0079000DFE0FBE4FAF8B2
:10451300D007125FC4C3E56F9FF56FE56E9EF56E1E
:10452300AE6CAF6DE4FCFD7BDC7A96F9F8C3123B0D
:10453300C9502CE56D2438FFE56C3469FEE434FF83
:10454300FDE434FFFCC0079000DFE0FBE4FAF8D0A1
:1045530007125FC4C3E56F9FF56FE56E9EF56EAE00
:104563006CAF6DE4FCFD7B8C7A9BF9F8C3123BC9FD
:10457300502CE56D2488FFE56C3464FEE434FFFDC4
:10458300E434FFFCC0079000DEE0FBE4FAF8D00758
:10459300125FC4C3E56F9FF56FE56E9EF56EAE6C5B
:1045A300AF6DE4FCFD7B2C7AABF9F8C3123BC95029
:1045B3002CE56D24E8FFE56C3454FEE434FFFDE4A0
:1045C30034FFFCC0079000DDE0FBE4FAF8D00712EB
:1045D3005FC4C3E56F9FF56FE56E9EF56EAE6EAF7C
:1045E3006F228E6C8F6DE50864017049D3E56D947D
:1045F30068E56C94005034AC6CAD6DE4123A9A7B70
:10460300487AE1790A78401239F8A804A905AA067C
:10461300AB07E4FFFEFD7C421237FA123AD38E6EEB
:104623008F6F750A01E4F50802492FE4F50AF56E68
:10463300F56F02492FAC6CAD6DE4123A9A7BCD7ADB
:10464300CC794C78401239F8E4FBFAF97842123706
:10465300FE123AD3AB07AA068A6E8B6FC3EB943272
:10466300EA9400401DEB24CEFFEA34FFFE9000FDE8
:10467300E0FD7C00123B66C3E56F9FF56FE56E9E20
:10468300F56EC3EB946DEA9400401DEB2493FFEAAF
:1046930034FFFE9000FCE0FD7C00123B66C3E56F37
:1046A3009FF56FE56E9EF56EC3EB94AEEA94004002
:1046B3001DEB2452FFEA34FFFE9000FEE0FD7C0078
:1046C300123B66C3E56F9FF56FE56E9EF56EC3EB18
:1046D30094F8EA9400401DEB2408FFEA34FFFE90AF
:1046E30000FFE0FD7C00123B66C3E56F9FF56FE5BD
:1046F3006E9EF56EC3EB9471EA9401401DEB248F1B
:10470300FFEA34FEFE900100E0FD7C00123B66C32D
:10471300E56F9FF56FE56E9EF56EC3EB94C8EA9463
:1047230001401DEB2438FFEA34FEFE900101E0FD59
:104733007C00123B66C3E56F9FF56FE56E9EF56ED9
:10474300C3EB944FEA9402401DEB24B1FFEA34FD1E
:10475300FE900102E0FD7C00123B66C3E56F9FF50E
:104763006FE56E9EF56EC3EB941CEA9403401DEB5C
:1047730024E4FFEA34FCFE900102E0FD7C00123BDE
:1047830066C3E56F9FF56FE56E9EF56EC3EB94F21E
:10479300EA9403401DEB240EFFEA34FCFE9001046F
:1047A300E0FD7C00123B66C3E56F9FF56FE56E9EEF
:1047B300F56EC3EB9426EA9405401DEB24DAFFEA79
:1047C30034FAFE900102E0FD7C00123B66C3E56F04
:1047D3009FF56FE56E9EF56EC3EB9484EA940640F5
:1047E3001DEB247CFFEA34F9FE900106E0FD7C001A
:1047F300123B66C3E56F9FF56FE56E9EF56EC3EBE7
:10480300946DEA9408401DEB2493FFEA34F7FE907D
:104813000104E0FD7C00123B66C3E56F9FF56FE585
:104823006E9EF56EC3EB946DEA9409401DEB2493E1
:10483300FFEA34F6FE900106E0FD7C00123B66C3FE
:10484300E56F9FF56FE56E9EF56EC3EB9441EA94B9
:104853000B401DEB24BFFFEA34F4FE900105E0FD9D
:104863007C00123B66C3E56F9FF56FE56E9EF56EA8
:10487300C3EB94C9EA940C401DEB2437FFEA34F3ED
:10488300FE900109E0FD7C00123B66C3E56F9FF5D6
:104893006FE56E9EF56EC3EB9485EA940E401DEBB7
:1048A300247BFFEA34F1FE90010AE0FD7C00123B19
:1048B30066C3E56F9FF56FE56E9EF56EC3EB941CC3
:1048C300EA9411401DEB24E4FFEA34EEFE90010A62
:1048D300E0FD7C00123B66C3E56F9FF56FE56E9EBE
:1048E300F56EC3EB94D6EA9413401CEB242AFFEA3B
:1048F30034ECFE90010AE0FD7C00123B66EF256F6D
:10490300F56FEE356EF56EC3EB94B2EA9414401C6A
:10491300EB244EFFEA34EBFE90010AE0FD7C00122B
:104923003B66EF256FF56FEE356EF56EAE6EAF6FCE
:10493300228E6C8F6DE50864017049D3E56F94672F
:10494300E56E94005034AC6CAD6DE4123A9A7B483A
:104953007AE1790A78401239F8A804A905AA06ABC6
:1049630007E4FFFEFD7C421237FA123AD38E6E8FB4
:104973006F750A01E4F508024C7DE4F50AF56EF55E
:104983006F024C7DAC6CAD6DE4123A9A7B717A3D4B
:10499300794A78401239F8E4FBFAF978421237FE83
:1049A300123AD3AB07AA068A6E8B6FC3EB9445EA20
:1049B3009400401DEB24C5FFEA34FFFE9000EDE0B8
:1049C300FD7C00123B66C3E56F9FF56FE56E9EF5B8
:1049D3006EC3EB946DEA9400401DEB2493FFEA341D
:1049E300FFFE9000EEE0FD7C00123B66C3E56F9F87
:1049F300F56FE56E9EF56EC3EB9499EA9400401D46
:104A0300EB2467FFEA34FFFE9000EFE0FD7C001229
:104A13003B66C3E56F9FF56FE56E9EF56EC3EB9442
:104A2300C7EA9400401DEB2439FFEA34FFFE9000EF
:104A3300F0E0FD7C00123B66C3E56F9FF56FE56E0A
:104A43009EF56EC3EB9411EA9401401DEB24F0FF35
:104A5300EA34FEFE9000F1E0FD7C00123B66C3E504
:104A63006F9FF56FE56E9EF56EC3EB947BEA940141
:104A7300401DEB2486FFEA34FEFE9000EFE0FD7C50
:104A830000123B66C3E56F9FF56FE56E9EF56EC33F
:104A9300EA9402401DEB2401FFEA34FEFE9000F28B
:104AA300E0FD7C00123B66C3E56F9FF56FE56E9EEC
:104AB300F56EC3EB94A1EA9402401DEB2460FFEA78
:104AC30034FDFE9000F3E0FD7C00123B66C3E56F0E
:104AD3009FF56FE56E9EF56EC3EB9460EA94034019
:104AE3001DEB24A1FFEA34FCFE9000F4E0FD7C0002
:104AF300123B66C3E56F9FF56FE56E9EF56EC3EBE4
:104B0300944AEA9404401DEB24B7FFEA34FBFE9079
:104B130000F5E0FD7C00123B66C3E56F9FF56FE592
:104B23006E9EF56EC3EB9462EA9405401DEB249FE1
:104B3300FFEA34FAFE9000F6E0FD7C00123B66C308
:104B4300E56F9FF56FE56E9EF56EC3EB94A9EA944E
:104B530006401DEB2458FFEA34F9FE9000F7E0FD10
:104B63007C00123B66C3E56F9FF56FE56E9EF56EA5
:104B7300C3EB94B0EA9407401DEB2451FFEA34F8E9
:104B8300FE9000F9E0FD7C00123B66C3E56F9FF5E4
:104B93006FE56E9EF56EC3EB94E6EA9408401DEB59
:104BA300241BFFEA34F7FE9000F8E0FD7C00123B83
:104BB30066C3E56F9FF56FE56E9EF56EC3EB9426B6
:104BC300EA940A401DEB24DBFFEA34F5FE9000F97A
:104BD300E0FD7C00123B66C3E56F9FF56FE56E9EBB
:104BE300F56EC3EB949BEA940B401DEB2466FFEA3E
:104BF30034F4FE9000FAE0FD7C00123B66C3E56FDF
:104C03009FF56FE56E9EF56EC3EB9448EA940D40F5
:104C13001DEB241DFFEA34F3FE9000FAE0FD7C0057
:104C2300123B66C3E56F9FF56FE56E9EF56EC3EBB2
:104C33009403EA940F401DEB24FEFFEA34F0FE9048
:104C430000FAE0FD7C00123B66C3E56F9FF56FE55C
:104C53006E9EF56EC3EB9456EA9411401DEB24ABA4
:104C6300FFEA34EEFE9000FBE0FD7C00123B66C3DE
:104C7300E56F9FF56FE56E9EF56EAE6EAF6F22D258
:104C8300A59035007F017E001263C130A50AE5823D
:104C9300158270F7158380F3C2A5C3E58294E0E51E
:104CA3008394065006E4FAFB024F20E5822420FD9C
:104CB300E58334F9FCE4123A9A7B667A66791E78C6
:104CC300411239F8123AD3AA06AB07D3EB9479EA27
:104CD30094005003024F20EB2488FFEA34FFFE7C4C
:104CE300007D0C123B66C3EB9FFBEA9EFAD3EB9469
:104CF300FCEA94005003024F20EB2405FFEA34FF43
:104D0300FE7C007D14123B66EF2BFBEE3AFAD3EBED
:104D13009419EA94015003024F20EB24E8FFEA348C
:104D2300FEFE7C007D12123B66C3EB9FFBEA9EFAFC
:104D3300D3EB9491EA94015003024F20EB2470FFCC
:104D4300EA34FEFE7C007D1C123B66EF2BFBEE3A41
:104D5300FAD3EB941DEA94025003024F20EB24E4B0
:104D6300FFEA34FDFE7C007D0F123B66EF2BFBEE6A
:104D73003AFAD3EB9481EA94025003024F20EB24D6
:104D830080FFEA34FDC4F854F0C868FEEFC4540F42
:104D9300482BFBEE3AFAD3EB94DBEA94025003027E
:104DA3004F20EB2426FFEA34FDFE7C007D0B123BF3
:104DB30066EF2BFBEE3AFAD3EB945DEA94035003D0
:104DC300024F20EB24A4FFEA34FCFEEF7803CEC3AA
:104DD30013CE13D8F92BFBEE3AFAD3EB94ADEA9446
:104DE300035003024F20EB2454FFEA34FCFE7C0003
:104DF3007D0E123B66EF2BFBEE3AFAD3EB94F3EA0C
:104E030094035003024F20EB240EFFEA34FCFE7C94
:104E1300007D0A123B66EF2BFBEE3AFAD3EB9411BB
:104E2300EA94045003024F20EB24F0FFEA34FBFE24
:104E33007C007D0E123B66C3EB9FFBEA9EFAD3EB2D
:104E43009439EA94045003024F20EB24C8FFEA3458
:104E5300FBFE7C007D05123B66EF2BFBEE3AFAD39B
:104E6300EB949DEA94045003024F20EB2464FFEA81
:104E730034FBFE7C007D09123B66EF2BFBEE3AFA16
:104E8300D3EB94F7EA94045003024F20EB240AFF78
:104E9300EA34FBFE7C007D0A123B66EF2BFBEE3A05
:104EA300FAD3EB9451EA94054073EB24B0FFEA3450
:104EB300FAFE7C007D06123B66EF2BFBEE3AFAD33B
:104EC300EB94D3EA94054055EB242EFFEA34FAFE23
:104ED300EF7803CEC313CE13D8F92BFBEE3AFAD3F4
:104EE300EB9405EA94064035EB24FCFFEA34F9FE23
:104EF300EF7802CEC313CE13D8F92BFBEE3AFAD3D5
:104F0300EB94BEEA94064015EB2448FFEA34F9FE1D
:104F13007C007D0A123B66EF2BFBEE3AFAAF03AE41
:104F23000222C28CAF89EF4401F589F589758CDCC7
:104F3300E4F58AC28D75E50775E64675E6B9AFE215
:104F4300EF4408F5E2F5E275E50675E64675E6B960
:104F5300D28CA28DB340FBC28DC28C75E50775E67A
:104F63004675E6B9AFE2EF4403F5E2F5E275E5060F
:104F730075E64675E6B975E50775E64675E6B9AFB4
:104F8300E2EF54FBF5E2F5E275E50675E64675E6F4
:104F9300B91262C5D296D2A212632B12624C12646A
:104FA300B91264C91263851263F2E4FFFE1261EE63
:104FB3001263D8E4FFFE12629DE4FF12644FE4F52E
:104FC3003AFF1262E7EF644E70227F011262E7BF7D
:104FD300451A7F021262E7BF57127F031262E7BFCF
:104FE3005A0A7F041262E7EF64A560297D4EE4FF4D
:104FF3001263497D457F011263497D577F02126326
:10500300497D5A7F031263497DA57F0412634912C8
:105013005F6F125A341263D87F121262E78F397F9F
:10502300131262E78F5A7F141262E78F307F1612D2
:1050330063A18E288F297F181263A18E5F8F607FF3
:105043001A1263A18E4C8F4D7F1C1263A18E458F64
:10505300467F1E1263A18E3C8F3D7F201263A18E7B
:10506300358F367F221263A18E318F327F241263F4
:10507300A18E2A8F2B7F261263A18E4A8F4B7F2806
:105083001263A18E488F497F2A1262E78F527F2BCA
:105093001262E78F617F2C1262E78F5B7F2E1262B1
:1050A300E78F5C7F2F1262E78F5D7F301262E78F9D
:1050B300567F321262E78F447F341263A18E578F7B
:1050C300587F361263A18E3E8F3F7F381263A18EC5
:1050D3002E8F2F7F3A1263A18E258F267F3C12637A
:1050E300A18E238F247F401262E78F41E42552F57E
:1050F30038E43420F537125F6FD2A9D28CD2ABD209
:105103008ED2AF753B01125DADE5397007E54430D2
:10511300E0278022E539B40107E54430E11B80161E
:10512300E539B40207E54430E20F800AE539B403F8
:1051330008E54430E303754701E54430E40575228F
:10514300018003E4F5227E007F00E470F9EF146030
:105153001514601714601914601B14602024057063
:10516300E5121C4280E012518580DB1254C080D6C8
:1051730012565580D175340112002680C912595236
:1051830080C4125E9EBF0106752C040253247881ED
:10519300E660030252B17610125BD98E648F65E527
:1051A30047B40124E508B4011FC3E565954DE564E3
:1051B300954C40028047C3E54D9565F565E54C95F3
:1051C30064F564E4F5088053E547B40106E5087027
:1051D300028009E5477013E508B4010EE54D256526
:1051E300F565E54C3564F5648031E547702DE508D8
:1051F3007029C3E565954DE564954C400EE56595CD
:105203004DF565E564954CF5648010C3E54D9565F2
:10521300F565E54C9564F564750801D3E54694E4BA
:10522300E5459444AC3EAD3FAE64AF65400F123BE1
:1052330066EF2565F565EE3564F564800E123B6611
:10524300C3E5659FF565E5649EF564E55EB4010617
:1052530074FFF564F565AF65AE64123CAD8E648F83
:1052630065AC64AD65E4123A9A7B337A337963783B
:10527300421239F8123AD38E668F67AC64AD65E497
:10528300123A9A7B667A6679BE78411239F8E4FB62
:10529300FA792378431237FE123AD38E688F69E581
:1052A3005A700BAF65AE64125C858E648F6578802F
:1052B300E67028AD65AC647F011224127880761005
:1052C300D3E565954BE564954A400EE5659549E55B
:1052D3006495485004D2B48002C2B47885E670184D
:1052E300208407AF67AE6612629D208507AF69AE63
:1052F300681261EE788576027882E67007125E2D79
:10530300788276087884E67018200209856599D238
:10531300027601800AE564F599C2027884763BD26D
:1053230099AE64AF6522014300014E00015E00099E
:1053330080101004023B02141E0260CC000006E041
:105343000791084308F509A80A5C0B160BD00C8CCF
:105353000D480E050EC50F851047110911CC128D8E
:105363001350141314D6159B165B171B17DD189FC8
:1053730019621A1C1AD71B931C4F1D0D1DBF1E72D9
:105383001F251FDA208F213821E1228B233623E1C9
:10539300247D251A25B6265426F22782281228A210
:1053A300293329C52A472ACB2B4E2BD22C562CCE58
:1053B3002D452DBD2E362EAE2F192F832FEE3059AE
:1053C30030C43123318231E1324032A032F33346EB
:1053D300339A33EE3442348E34D93525357135BEA4
:1053E30036013643368636C9370D3745377E37B7EC
:1053F30037F03828385C389038C438F8392C395BA2
:10540300398A39B839E73A16000002570000023EDC
:105413000000022E000002250000022300000253B8
:105423000000024F0000015214016101015B010100
:105433005103015C12015D01015601015500013464
:1054430001013A00C103C102C104C1010108000105
:105453000900010A004B00E100243038404C586831
:1054630078C8FA4900D8002028303470A0C8FF4A11
:10547300010C07080A101820303840484C00CC00B3
:10548300102028303840606C80B4E15000EC000AF2
:105493000E1314161B23262A343C4046506A500030
:1054A300FC0A0D10121C20283437393B40425A8421
:1054B300FA480116002C2E32363A3E4D00125E9EFB
:1054C300BF0106752C040256507881E6600302552D
:1054D300DD7610125BD98E648F65E547B40124E550
:1054E30008B4011FD3E565953DE564953C40028012
:1054F30047C3E53D9565F565E53C9564F564E4F5DD
:10550300088053E547B40106E50870028009E547C2
:105513007013E508B4010EE53D2565F565E53C35F9
:1055230064F5648031E547702DE5087029C3E565AE
:10553300953DE564953C400EE565953DF565E5646F
:10554300953CF5648010C3E53D9565F565E53C95AF
:1055530064F564750801D3E5369480E535940CACA5
:105563002EAD2FAE64AF65400F123B66EF2565F598
:1055730065EE3564F564800E123B66C3E5659FF501
:1055830065E5649EF564AC64AD65E4123A9A7BCD3F
:105593007ACC794C78401239F8123AD38E648F65FD
:1055A3007C007D30123B668E668F67AC64AD65E42C
:1055B300123A9A7B337A33797378411239F8E4FBE0
:1055C300FA792378431237FE123AD38E688F69E54E
:1055D3005EB4010674FFF564F5657880E67028AD66
:1055E30065AC647F0112241278807608D3E5659553
:1055F3004BE564954A400EE5659549E56495485049
:1056030004D2B48002C2B47885E67018208407AF50
:1056130067AE6612629D208507AF69AE681261EEC0
:10562300788576027882E67007125E2D7882760896
:105633007884E67018200209856599D20276018084
:105643000AE564F599C2027884763BD299AE64AFD9
:105653006522125E9EBF0106752C040257E5788110
:10566300E660030257727610125BD98E648F65E58C
:1056730047B40124E508B4011FC3E5659532E56429
:10568300953140028047C3E5329565F565E531956F
:1056930064F564E4F5088053E547B40106E5087052
:1056A300028009E5477013E508B4010EE53225656C
:1056B300F565E5313564F5648031E547702DE5081E
:1056C3007029C3E5659532E5649531400EE565952E
:1056D30032F565E5649531F5648010C3E53295656F
:1056E300F565E5319564F564750801D3E52B940000
:1056F300E52A9419AC25AD26AE64AF65400F123B85
:1057030066EF2565F565EE3564F564800E123B663C
:10571300C3E5659FF565E5649EF564AC64AD65E43A
:10572300123A9A7BCD7ACC794C78401239F8123AF6
:10573300D38E648F657C007D30123B668E668F67E7
:10574300AC64AD65E4123A9A7B337A33794378409B
:105753001239F8E4FBFA792378431237FE123AD36D
:105763008E688F69E55EB4010674FFF564F56578AC
:1057730080E67028AD65AC647F01122412788076D0
:1057830010D3E565954BE564954A400EE56595496B
:10579300E56495485004D2B48002C2B47885E670BB
:1057A30018208407AF67AE6612629D208507AF6934
:1057B300AE681261EE788576027882E67007125E33
:1057C3002D788276087884E6701820020985659919
:1057D300D2027601800AE564F599C2027884763BA9
:1057E300D299AE64AF6522AF65AE64AB07AA067803
:1057F30089E6FE08E6FFC39550EE954F407BE547EB
:105803007021E508701DEF9550FFEE954FFEC3E53F
:10581300299FFFE5289EFEC3EB9FEA9E40030259A2
:1058230010807CE547B40106E50870028009E5476E
:105833007013E508B4010EC3788AE69550FF18E6A5
:10584300954F0258D8E54764016003025922E508E1
:1058530064016003025922C3788AE69550FF18E673
:10586300954FFEC3E5299FFFE5289EFEC3EB9FEA04
:105873009E5003025918025910E547702EE508702F
:105883002AC3E550788A96FFE54F1896FEC3E529AB
:105893009FFFE5289EFEC3EB9FEA9E4002806EC3F6
:1058A300EF9BFBEE9AFA7508018074E547B401118A
:1058B300E508700DC3E550788A96FFE54F1896808A
:1058C30014E5477022E508B4011DC3E550788A96B4
:1058D300FFE54F1896FEC3E5299FFFE5289EFEEFDF
:1058E3002BFBEE3AFA8038E547B40133E508B401FF
:1058F3002EC3E550788A96FFE54F1896FEC3E52937
:105903009FFFE5289EFEC3EB9FEA9E4008EB9FFBAB
:10591300EA9EFA800AC3EF9BFBEE9AFAE4F508E5E8
:1059230022AC57AD58AF03AE02B4010C123B66C3B1
:10593300EB9FFBEA9EFA8009123B66EF2BFBEE3AE4
:10594300FAE55EB4010474FFFAFBAE02AF03221260
:105953005A341263D87F121262E78F397F131262AF
:10596300E78F5A7F141262E78F307F161263A18E7E
:10597300288F297F181263A18E5F8F607F1A1263AD
:10598300A18E4C8F4D7F1C1263A18E458F467F22C3
:105993001263A18E318F327F241263A18E2A8F2B43
:1059A3007F1E1263A18E3C8F3D7F201263A18E3533
:1059B3008F367F261263A18E4A8F4B7F281263A1F5
:1059C3008E488F497F2A1263A18F527F2B1262E781
:1059D3008F617F2C1262E78F5B7F2D1262E78F51FD
:1059E3007F2E1262E78F5C7F2F1262E78F5D7F301D
:1059F3001262E78F567F321262E78F447F3412635D
:105A0300A18E578F587F361263A18E3E8F3F7F380A
:105A13001263A18E2E8F2F7F3A1263A18E258F26BC
:105A23007F3C1263A18E238F247F401262E78F4154
:105A330022125DADAD397F12126349E4FD7F13126B
:105A43006349E4FD7F14126349E4FDFC7F1612648D
:105A5300977D787C057F18126497E4FDFC7F1A120A
:105A630064977D527C037F1C126497E4FDFC7F1EC8
:105A73001264977D887C137F201264977D287C00B5
:105A83007F221264977DC87C007F24126497E4FD13
:105A9300FC7F261264977D887C137F281264977D90
:105AA300157F2A1263497D017F2B1263497D017F94
:105AB3002C1263497D047F2D1263497D127F2E12C0
:105AC30063497D017F2F1263497D017F3012634952
:105AD300E4FD7F321263497D017C007F34126497B9
