:0700000002507302000632FA
:10000B0002557212587FC2A2125886C296025886A7
:03001B0002525E30
:10002300025842E4F560F561F562F563F564F5693C
:10003300F56AAD6AAC69AF621222F2E5347003026D
:100043000B057886E6701C12578E8E238F247C0056
:100053007D0A123AE8EF248AF524EE34F4F5237886
:100063008676041251F08F60E56030E00575650116
:100073008003E4F565E56030E1057566018003E41E
:10008300F566E56030E2057567018003E4F567E531
:100093006030E3057568018003E4F568E565B40144
:1000A300050562E4F561E562D394134005E4F56266
:1000B300F534E567B40108056AE56A70020569E588
:1000C30068B40108E56A156A70021569E562C394AC
:1000D300045003020168E562D3940B4003020168F4
:1000E300787FE6706D7604124FC7E55125E0248AC8
:1000F300F8A60608A607E551C394085004055180E5
:10010300647999E7789726FF19E71836FEEF1826E2
:10011300FFEE1836FEEF1826FFEE1836FEEF182610
:10012300FFEE1836FEEF1826FFEE1836FEEF182600
:10013300FFEE1836FEEF1826FFEE1836FEEF7803B3
:10014300CEC313CE13D8F9799DF7EE19F7E4F55121
:100153008013E55125E0248AF8E6FE08E6FF789C43
:10016300A60608A607E56264017047E539FD7C0031
:10017300AF621222F2E56A2539F539E4F569F56AC9
:10018300E539C394044007E4F539F569F56AE56692
:100193006401600302003EAD397F1212569CE4FDF8
:1001A300FC7F161222F27FC47E09125714056102E6
:1001B300003EE5626402703FE539C39402400505E1
:1001C3006202003EE556FD7C00AF621222F2E56A50
:1001D3002556F556E4F569F56AE556C394024007DA
:1001E300E4F556F569F56AE5666401600302003ECD
:1001F300AD567F130207D7E5626403703CE53960AF
:1002030005056202003EE56A2530F530E4F569F53F
:100213006AE530C394064007E4F530F569F56AE50D
:1002230030FD7C00AF621222F2E5666401600302D6
:10023300003EAD307F140207D7E56264047061E5C8
:10024300396005056202003EE508B4010575470102
:100253008003E4F547C3789DE69524FD18E69523CE
:10026300FCAF621222F2E5666401600302003EC342
:10027300789DE69524F52918E69523F528AD29FC04
:100283007F16125800125710E547B40106E544449F
:10029300018004E54454FEFD7F3212569C020ADFBE
:1002A300E56264056003020364E5396005056202E3
:1002B300003EC3789DE69524FD18E69523FCAF62C6
:1002C3001222F2E5666401600302003EC3789DE6F4
:1002D3009524F55C18E69523F55BAD5CFC7F18125D
:1002E3005800E54764017020E55C2529FFE55B358F
:1002F30028FED3EF94CAEE94C84002801FE55C2524
:1003030029FFE55B35288032C3E55C9529FFE55B72
:100313009528FED3EF94CAEE94C84014EF2436FD1B
:10032300EE3437FC123AE88E538F54434410801E48
:10033300C3E55C9529FFE55B9528FEC374CA9FFD61
:1003430074C89EFC123AE88E538F545344EFAD5455
:10035300AC537F34125800125710AD447F3202075A
:10036300D7E56264067059E53964016005056202E8
:10037300003EE508B401057547018003E4F54778BD
:100383009CE6FC08E6FDAF621222F2E566640160BA
:100393000302003E789CE6F54C08E6F54DFDAC4CB7
:1003A3007F1A125800125710E547B40106E544447A
:1003B300028004E54454FDFD7F3212569C020ADF9D
:1003C300E56264076003020473E5396401600505AF
:1003D3006202003E789CE6FC08E6FDAF621222F260
:1003E300E5666401600302003E789CE6F54508E695
:1003F300F546FDAC457F1C125800E547B40130E5D6
:1004030046254DFFE545354CFED3EF94E4EE944489
:100413004009EF241CFDEE34BB8044E546254DFF27
:10042300E545354CFEC374E49FFD74449E8030C3A0
:10043300E546954DFFE545954CFED3EF94E4EE94E8
:10044300444009EF241CFDEE34BB8013C3E54695FD
:100453004DFFE545954CFEC374E49FFD74449EFC3B
:10046300123AE88E3E8F3FAD3FAC3E7F3602068F99
:10047300E56264087059E5396402600505620200AB
:100483003EE508B401057547018003E4F547789C10
:10049300E6FC08E6FDAF621222F2E5666401600342
:1004A30002003E789CE6F53C08E6F53DFDAC3C7F5A
:1004B3001E125800125710E547B40106E5444404E0
:1004C3008004E54454FBFD7F3212569C020ADFE5AB
:1004D300626409600302057EE53964026005056212
:1004E30002003E789CE6FC08E6FDAF621222F2E5CC
:1004F300666401600302003E789CE6F53508E6F584
:1005030036FDAC357F20125800E547B4012EE536A1
:10051300253DFFE535353CFED3EF9400EE947D4059
:1005230008E42FFDEE34838041E536253DFFE535B4
:10053300353CFEC3E49FFD747D9E802EC3E5369556
:100543003DFFE535953CFED3EF9400EE947D4008E6
:10055300E42FFDEE34838012C3E536953DFFE53588
:10056300953CFEC3E49FFD747D9EFC123AE88E2EFB
:100573008F2FAD2FAC2E7F3802068FE562640A7091
:100583005FE53964036005056202003EE508B401D6
:10059300057547018003E4F547789CE6FC08E6FD12
:1005A300AF621222F2E5666401600302003E7F320D
:1005B300FE125714789CE6F53108E6F532FDAC31AE
:1005C3007F22125800125710E547B40106E5444450
:1005D300088004E54454F7FD7F3212569C020ADF7B
:1005E300E562640B6003020695E539640360050563
:1005F3006202003E789CE6FC08E6FDAF621222F23E
:10060300E5666401600302003E789CE6F52A08E68D
:10061300F52BFDAC2A7F24125800125710E547B47E
:10062300012EE52B2532FFE52A3531FED3EF940069
:10063300EE94194008E42FFDEE34E78041E52B25C5
:1006430032FFE52A3531FEC3E49FFD74199E802EE7
:10065300C3E52B9532FFE52A9531FED3EF9400EEE7
:1006630094194008E42FFDEE34E78012C3E52B957F
:1006730032FFE52A9531FEC3E49FFD74199EFC12F7
:100683003AE88E258F26AD26AC257F3A1258000214
:100693000ADFE562640C705AAE69AF6AFC7D0A1228
:1006A3003AD6EF254BF54BEE354AF54AE4F569F5B5
:1006B3006AAD4BAC4AAF621222F2E567640160098E
:1006C300E5686401600302003ED3E54B940FE54AFD
:1006D30094274009E4F569F56AF54AF54BE5666444
:1006E30001600302003EAD4BAC4A7F261258000264
:1006F3000ADFE562640D705AAE69AF6AFC7D0A12C7
:100703003AD6EF2549F549EE3548F548E4F569F55C
:100713006AAD49AC48AF621222F2E5676401600931
:10072300E5686401600302003ED3E549940FE548A0
:1007330094274009E4F569F56AF548F549E56664E7
:1007430001600302003EAD49AC487F281258000205
:100753000ADFE562640E60030207DDC3E56A94C83D
:10076300E56994004020E55070057550998040E597
:1007730050540F700CE55024F054F04409F55080A8
:10078300021550E48029E56A640145697025E55046
:10079300C3949A4005E4F5508015E550540FFFBF0C
:1007A300090AE550241054F0F55080020550E4F591
:1007B30069F56AE42550FDE43420FCAF621222F2AD
:1007C300E5666401600302003EAD507F061256BA2F
:1007D300AD507F2A12569C020ADFE562640F707CDB
:1007E300C3E56A94C8E56994004022E55DD39401AA
:1007F3005005755D12803CE55D540F700CE55D247A
:10080300F054F04409F55D8002155D8026E56A64C5
:100813000145697023E55DB41205755D018014E53A
:100823005D540FFFBF090AE55D241054F0F55D80A8
:1008330002055DE4F569F56AE55DFD7C00AF6212D2
:1008430022F2E5666401600302003EAD5D7F05129E
:1008530056BAAD5D7F2B12569C020ADFE562641027
:1008630060030209DFC3E56A94C8E5699400500395
:10087300020914E557B40111E55DB4020CE55054C7
:100883000370067557290209B7E557B40112E55DF0
:10089300B4020DE55054036007755728E40209B705
:1008A300E55764017030E55D64016023E55D640331
:1008B300601DE55D64056017E55D64076011E55D36
:1008C3006408600BE55D64106005E55DB4120775AF
:1008D3005731E40209B7E557B4011EE55D640460CE
:1008E30011E55D6406600BE55D64096005E55DB4D3
:1008F3001107755730E40209B7E557540F700CE53B
:100903005724F054F04409F55780021557E40209BF
:10091300B7E56A6401456960030209BBE55DB4029A
:1009230012E5505403700CE557B42907755701E4D9
:100933000209B7E55DB40211E5505403600BE557B6
:10094300B42806755701E4806BE55D64016023E517
:100953005D6403601DE55D64056017E55D64076024
:1009630011E55D6408600BE55D64106005E55DB449
:10097300120BE557B43106755701E48037E55D6422
:10098300046011E55D6406600BE55D64096005E5DF
:100993005DB4110BE557B43006755701E48015E5D6
:1009A30057540FFFBF090AE557241054F0F5578039
:1009B300020557E4F569F56AE557FD7C00AF62125D
:1009C30022F2E5666401600302003EAD577F041224
:1009D30056BAAD577F2C12569C020ADFE5626411AA
:1009E300707AC3E56A94C8E56994004020E55870BD
:1009F30005755823803EE558540F700CE55824F0D4
:100A030054F04409F55880021558E48027E56A64D8
:100A13000145697023E558B42305E4F5588015E5CD
:100A230058540FFFBF090AE558241054F0F55880B5
:100A3300020558E4F569F56AE558FD7C00AF6212DA
:100A430022F2E5666401600302003EAD587F0212A4
:100A530056BAAD587F2E12569C020ADFE562641225
:100A63006003020AF3C3E56A94C8E5699400402071
:100A7300E5597005755959803EE559540F700CE5D9
:100A83005924F054F04409F55980021559E480279C
:100A9300E56A640145697023E559B45905E4F559DC
:100AA3008015E559540FFFBF090AE559241054F086
:100AB300F55980020559E4F569F56AE559FD7C00AD
:100AC300AF621222F2E5666401600302003EAD5993
:100AD3007F011256BAAD597F2F12569C0561E4FD72
:100AE300FC7F161222F27FC47E0912571402003EC5
:100AF300E562C39414500302003EE4F562F5340248
:100B0300003E0250FF8E648F65856466856567E4E9
:100B1300F509E50864017066D3E5679455E56694C5
:100B230004AC64AD655031E4123A1C7BA47A70794D
:100B33005D784012397AA804A905AA06AB07E4FF39
:100B4300FE7DA07C43123882123A558E668F6775FC
:100B53000A01E4F508021365E4123A1C7BA47A70D7
:100B6300795D784012397AE4FBFA79A078C31238B8
:100B730086123A558E668F67E4F50A021365AC64F4
:100B8300AD65E4123A1C7BA47A70795D7840123922
:100B93007AE4FBFA79A07843123886123A558E66C6
:100BA3008F67D3E5659486E5649404401FE5652467
:100BB300B4FFE56434FBFE900007E0FD7C00123ACD
:100BC300E8C3E5679FF567E5669EF566D3E565943B
:100BD300C4E5649409401FE565246EFFE56434F6BB
:100BE300FE900008E0FD7C00123AE8C3E5679FF53C
:100BF30067E5669EF566D3E5659484E564941240E3
:100C03001FE56524A4FFE56434EDFE900007E0FDD5
:100C13007C00123AE8C3E5679FF567E5669EF566D3
:100C2300D3E5659402E5649417401FE565241CFF32
:100C3300E56434E9FE900009E0FD7C00123AE8C364
:100C4300E5679FF567E5669EF566D3E5659472E50E
:100C530064941F401FE56524ACFFE56434E0FE9017
:100C63000009E0FD7C00123AE8C3E5679FF567E5FC
:100C7300669EF566D3E5659430E564942A401FE5E6
:100C8300652402FFE56434D6FE900009E0FD7C0094
:100C9300123AE8C3E5679FF567E5669EF566D3E517
:100CA300659426E5649434401FE565240CFFE564F0
:100CB30034CCFE90000AE0FD7C00123AE8C3E567FD
:100CC3009FF567E5669EF566D3E565948CE56494C8
:100CD3003C401FE565247EFFE56434C3FE90000AB3
:100CE300E0FD7C00123AE8C3E5679FF567E5669E81
:100CF300F566D3E56594ACE564943F401EE5652451
:100D030086FFE56434C0FE90000AE0FD7C00123AE1
:100D1300E8EF2567F567EE3566F566D3E56594304C
:100D2300E5649443401FE5652402FFE56434BDFE9A
:100D3300900009E0FD7C00123AE8C3E5679FF56780
:100D4300E5669EF566D3E5659450E564944B401ED5
:100D5300E56524BAFFE56434B4FE90000AE0FD7C47
:100D630000123AE8EF2567F567EE3566F566D3E5D9
:100D73006594E8E564944E401FE565244AFFE56405
:100D830034B1FE900009E0FD7C00123AE8C3E56748
:100D93009FF567E5669EF566D3E565948CE56494F7
:100DA3005A401FE56524B0FFE56434A5FE90000AB0
:100DB300E0FD7C00123AE8C3E5679FF567E5669EB0
:100DC300F566D3E5659404E5649460401EE5652407
:100DD30024FFE56434A0FE90000BE0FD7C00123A92
:100DE300E8EF2567F567EE3566F566D3E56594703C
:100DF300E5649467401FE56524B8FFE5643498FE15
:100E030090000AE0FD7C00123AE8C3E5679FF567AE
:100E1300E5669EF566D3E5659478E564946E401EB9
:100E2300E56524B0FFE5643491FE90000BE0FD7CA2
:100E330000123AE8EF2567F567EE3566F566D3E508
:100E4300659436E5649474401FE56524FCFFE5640E
:100E5300348BFE90000AE0FD7C00123AE8C3E5679C
:100E63009FF567E5669EF566AE64AF65E4FCFD7BC2
:100E7300907A83F9F8C3123B4B502BE5652498FF16
:100E8300E564347CFEE434FFFDE434FFFCC00790EA
:100E9300000AE0FBE4FAF8D007125316EF2567F5D2
:100EA30067EE3566F566AE64AF65E4FCFD7BB07A4C
:100EB30086F9F8C3123B4B502CE5652478FFE564B3
:100EC3003479FEE434FFFDE434FFFCC007900009ED
:100ED300E0FBE4FAF8D007125316C3E5679FF56702
:100EE300E5669EF566AE64AF65E4FCFD7B807A8EB5
:100EF300F9F8C3123B4B502BE56524A8FFE5643496
:100F030071FEE434FFFDE434FFFCC00790000BE006
:100F1300FBE4FAF8D007125316EF2567F567EE35B1
:100F230066F566AE64AF65E4FCFD7B447A93F9F83D
:100F3300C3123B4B502CE56524EEFFE564346CFE95
:100F4300E434FFFDE434FFFCC00790000BE0FBE456
:100F5300FAF8D007125316C3E5679FF567E5669E57
:100F6300F566AE64AF65E4FCFD7B987A9EF9F8C341
:100F7300123B4B502BE565249AFFE5643461FEE494
:100F830034FFFDE434FFFCC00790000BE0FBE4FA00
:100F9300F8D007125316EF2567F567EE3566F56649
:100FA300AE64AF65E4FCFD7BF07AA0F9F8C3123BB5
:100FB3004B502CE5652442FFE564345FFEE434FFC7
:100FC300FDE434FFFCC00790000BE0FBE4FAF8D02B
:100FD30007125316C3E5679FF567E5669EF566AE90
:100FE30064AF65E4FCFD7B047AA6F9F8C3123B4BBE
:100FF300502BE565242EFFE564345AFEE434FFFDEF
:10100300E434FFFCC00790000BE0FBE4FAF8D007E0
:10101300125316EF2567F567EE3566F566AE64AFD6
:1010230065E4FCFD7BD47AADF9F8C3123B4B502C3D
:10103300E565245EFFE5643452FEE434FFFDE434E9
:10104300FFFCC00790000BE0FBE4FAF8D007125353
:1010530016C3E5679FF567E5669EF566AE64AF6503
:10106300E4FCFD7B547ABAF9F8C3123B4B502BE5F1
:101073006524DEFFE5643445FEE434FFFDE434FF1C
:10108300FCC00790000AE0FBE4FAF8D007125316FD
:10109300EF2567F567EE3566F566AE64AF65E4FC8C
:1010A300FD7B767AC0F9F8C3123B4B502CE56524DF
:1010B3009EFFE564343FFEE434FFFDE434FFFCC0EF
:1010C30007900007E0FBE4FAF8D007125316C3E5D4
:1010D300679FF567E5669EF566AE64AF65E4FCFD64
:1010E3007B507AC3F9F8C3123B4B502BE56524C4FC
:1010F300FFE564343CFEE434FFFDE434FFFCC00749
:10110300900007E0FBE4FAF8D007125316EF2567C7
:10111300F567EE3566F566AE64AF65E4FCFD7B947A
:101123007ACAF9F8C3123B4B502CE5652494FFE5CA
:10113300643435FEE434FFFDE434FFFCC007900063
:101143000BE0FBE4FAF8D007125316C3E5679FF5EB
:1011530067E5669EF566AE64AF65E4FCFD7B507A99
:10116300CDF9F8C3123B4B502BE56524D8FFE5645A
:101173003432FEE434FFFDE434FFFCC00790000B7F
:10118300E0FBE4FAF8D007125316EF2567F567EE94
:101193003566F566AE64AF65E4FCFD7B387AD1F95C
:1011A300F8C3123B4B502CE56524F0FFE564342E65
:1011B300FEE434FFFDE434FFFCC00790000BE0FBCA
:1011C300E4FAF8D007125316C3E5679FF567E5669F
:1011D3009EF566AE64AF65E4FCFD7BB07AD6F9F8A4
:1011E300C3123B4B502BE5652478FFE5643429FE9D
:1011F300E434FFFDE434FFFCC00790000BE0FBE4A4
:10120300FAF8D007125316EF2567F567EE3566F542
:1012130066AE64AF65E4FCFD7B307AE3F9F8C31294
:101223003B4B502BE56524F8FFE564341CFEE434A6
:10123300FFFDE434FFFCC00790000BE0FBE4FAF889
:10124300D007125316EF2567F567EE3566F566AEE0
:1012530064AF65E4FCFD7B8C7AE6F9F8C3123B4B83
:10126300502CE5652488FFE5643419FEE434FFFD62
:10127300E434FFFCC007900009E0FBE4FAF8D00770
:10128300125316C3E5679FF567E5669EF566AE6480
:10129300AF65E4FCFD7B9C7AEAF9F8C3123B4B5043
:1012A3002BE565248CFFE5643415FEE434FFFDE48F
:1012B30034FFFCC00790000BE0FBE4FAF8D0071200
:1012C3005316EF2567F567EE3566F566AE64AF65D1
:1012D300E4FCFD7B347AF3F9F8C3123B4B502CE565
:1012E3006524F4FFE564340CFEE434FFFDE434FFCD
:1012F300FCC00790000BE0FBE4FAF8D0071253168A
:10130300C3E5679FF567E5669EF566AE64AF65E482
:10131300FCFD7BFC7AF3F9F8C3123B4B502BE565DC
:10132300242CFFE564340CFEE434FFFDE434FFFCBD
:10133300C00790000AE0FBE4FAF8D007125316EF57
:101343002567F567EE3566F566AE64AF65E4FCFDCB
:101353007BB07AFA7909F8C3123B4B5005E4F56682
:10136300F567AE66AF67228E648F65E4F509E5081D
:101373006401600302143FD3E5659417E5649403A5
:10138300AC64AD655030E4123A1C7BE17A7A79148F
:10139300784012397AA804A905AA06AB07E4FFFE30
:1013A3007DA07C43123882123A558E668F67750A88
:1013B30001E4F5088023E4123A1C7BE17A7A79147C
:1013C300784012397AE4FBFA79A078C3123886128E
:1013D3003A558E668F67E4F50AD3E56594F8E564BC
:1013E30094024022E50A701EE5652426FFE5643475
:1013F300FDFE90001BE0FD7C00123AE8EF2567F547
:1014030067EE3566F566D3E56594D0E564940750D9
:1014130003021B5DE50A6003021B5DE5652462FFB1
:10142300E56434F8FE90001DE0FD7C00123AE8EF1D
:101433002567F567EE3566F566021B5DAC64AD6541
:10144300E4123A1C7BE17A7A7914784012397AE40F
:10145300FBFA79A07843123886123A558E668F6765
:10146300D3E56594F8E5649402401FE5652426FFFF
:10147300E56434FDFE90001BE0FD7C00123AE8C3F6
:10148300E5679FF567E5669EF566D3E56594D0E568
:10149300649407401FE5652462FFE56434F8FE9019
:1014A300001DE0FD7C00123AE8C3E5679FF567E5A0
:1014B300669EF566D3E5659460E564940C401EE58D
:1014C3006524B2FFE56434F3FE90001DE0FD7C006B
:1014D300123AE8EF2567F567EE3566F566D3E565FD
:1014E30094DEE564940D401FE5652454FFE5643400
:1014F300F2FE90001DE0FD7C00123AE8C3E5679F11
:10150300F567E5669EF566D3E56594F2E5649412A6
:10151300401EE5652440FFE56434EDFE90001CE0C9
:10152300FD7C00123AE8EF2567F567EE3566F56650
:10153300D3E5659444E564941B401EE565240CFFE4
:10154300E56434E5FE90001DE0FD7C00123AE8EF0F
:101553002567F567EE3566F566D3E565947FE56443
:101563009424401FE56524FCFFE56434DBFE900012
:101573001EE0FD7C00123AE8C3E5679FF567E56668
:101583009EF566D3E56594B4E5649428401FE5654C
:101593002488FFE56434D7FE90001DE0FD7C001233
:1015A3003AE8C3E5679FF567E5669EF566D3E565AB
:1015B30094FCE5649430401FE565242CFFE5643416
:1015C300CFFE90001EE0FD7C00123AE8C3E5679F62
:1015D300F567E5669EF566D3E56594AAE5649437F9
:1015E300401FE5652488FFE56434C8FE90001FE0D2
:1015F300FD7C00123AE8C3E5679FF567E5669EF553
:1016030066D3E56594A0E5649441401FE5652492A3
:10161300FFE56434BEFE90001FE0FD7C00123AE853
:10162300C3E5679FF567E5669EF566D3E565944A6E
:10163300E5649447401EE56524E8FFE56434B8FE9D
:1016430090001FE0FD7C00123AE8EF2567F567EE96
:101653003566F566D3E56594FAE564944B401FE57A
:10166300652438FFE56434B4FE90001EE0FD7C0081
:10167300123AE8C3E5679FF567E5669EF566D3E52D
:101683006594CAE5649453401FE5652468FFE564E7
:1016930034ACFE90001FE0FD7C00123AE8C3E5671E
:1016A3009FF567E5669EF566D3E5659488E56494E2
:1016B30059401EE56524C8FFE56434A6FE90001E6C
:1016C300E0FD7C00123AE8EF2567F567EE3566F535
:1016D30066D3E5659406E5649463401FE565242CB1
:1016E300FFE564349DFE90001FE0FD7C00123AE8A4
:1016F300C3E5679FF567E5669EF566D3E56594ECFC
:10170300E5649468401EE5652450FFE5643497FE64
:1017130090001EE0FD7C00123AE8EF2567F567EEC6
:101723003566F566D3E5659458E5649470401EE527
:101733006524ACFFE5643490FE90001FE0FD7C005F
:10174300123AE8EF2567F567EE3566F566D3E5658A
:10175300945CE5649476401FE5652408FFE56434F2
:101763008AFE90001FE0FD7C00123AE8C3E5679F04
:10177300F567E5669EF566D3E5659476E564947A48
:10178300401EE56524EEFFE5643485FE90001DE010
:10179300FD7C00123AE8EF2567F567EE3566F566DE
:1017A300AE64AF65E4FCFD7B9E7A84F9F8C3123B1B
:1017B3004B502BE5652494FFE564347BFEE434FF52
:1017C300FDE434FFFCC00790001FE0FBE4FAF8D00F
:1017D30007125316EF2567F567EE3566F566AE64B7
:1017E300AF65E4FCFD7B6E7A8CF9F8C3123B4B507A
:1017F3002BE56524C4FFE5643473FEE434FFFDE4A4
:1018030034FFFCC00790001EE0FBE4FAF8D0071297
:101813005316EF2567F567EE3566F566AE64AF657B
:10182300E4FCFD7BBA7A90F9F8C3123B4B502BE5ED
:10183300652478FFE564346FFEE434FFFDE434FF90
:10184300FCC00790001FE0FBE4FAF8D00712531620
:10185300EF2567F567EE3566F566AE64AF65E4FCC4
:10186300FD7BEE7A98F9F8C3123B4B502BE56524C8
:1018730044FFE5643467FEE434FFFDE434FFFCC059
:101883000790001FE0FBE4FAF8D007125316EF2588
:1018930067F567EE3566F566AE64AF65E4FCFD7B20
:1018A300667A9EF9F8C3123B4B502BE56524CCFFB7
:1018B300E5643461FEE434FFFDE434FFFCC00790CB
:1018C300001FE0FBE4FAF8D007125316EF2567F583
:1018D30067EE3566F566AE64AF65E4FCFD7BA67A1C
:1018E300A4F9F8C3123B4B502BE56524F0FFE564E4
:1018F300345BFEE434FFFDE434FFFCC00790001FBB
:10190300E0FBE4FAF8D007125316EF2567F567EE0C
:101913003566F566AE64AF65E4FCFD7BBA7AA9F97A
:10192300F8C3123B4B502BE5652478FFE56434562E
:10193300FEE434FFFDE434FFFCC00790001FE0FB2E
:10194300E4FAF8D007125316EF2567F567EE35660C
:10195300F566AE64AF65E4FCFD7B967AAFF9F8C338
:10196300123B4B502AE42565FFE5643451FEE43411
:10197300FFFDE434FFFCC00790001EE0FBE4FAF82F
:10198300D007125316EF2567F567EE3566F566AE99
:1019930064AF65E4FCFD7B3A7AB6F9F8C3123B4BBE
:1019A300502BE56524F8FFE5643449FEE434FFFD7C
:1019B300E434FFFCC00790001EE0FBE4FAF8D00714
:1019C300125316EF2567F567EE3566F566AE64AF1D
:1019D30065E4FCFD7B7A7ABCF9F8C3123B4B502BD0
:1019E300E56524B8FFE5643443FEE434FFFDE434E5
:1019F300FFFCC00790001DE0FBE4FAF8D007125388
:101A030016EF2567F567EE3566F566AE64AF65E4F8
:101A1300FCFD7BDA7AC5F9F8C3123B4B502BE56525
:101A23002458FFE564343AFEE434FFFDE434FFFC5C
:101A3300C00790001CE0FBE4FAF8D007125316EF3E
:101A43002567F567EE3566F566AE64AF65E4FCFDC4
:101A53007B467ACDF9F8C3123B4B502BE56524EC5A
:101A6300FFE5643432FEE434FFFDE434FFFCC007D9
:101A730090001CE0FBE4FAF8D007125316EF256739
:101A8300F567EE3566F566AE64AF65E4FCFD7B2E67
:101A93007AD1F9F8C3123B4B502BE5652404FFE5DB
:101AA30064342FFEE434FFFDE434FFFCC0079000F0
:101AB3001EE0FBE4FAF8D007125316EF2567F5672B
:101AC300EE3566F566AE64AF65E4FCFD7B0A7AD756
:101AD300F9F8C3123B4B502BE5652428FFE564342A
:101AE30029FEE434FFFDE434FFFCC00790001CE052
:101AF300FBE4FAF8D007125316EF2567F567EE35C6
:101B030066F566AE64AF65E4FCFD7B1E7ADCF9F82E
:101B1300C3123B4B502BE5652414FFE5643424FECC
:101B2300E434FFFDE434FFFCC00790001DE0FBE458
:101B3300FAF8D007125316EF2567F567EE3566F509
:101B430066AE64AF65E4FCFD7B487AEEF9F8C31238
:101B53003B4B500674FFF566F567AE66AF6722E44C
:101B6300F564F565F566F567F568F5698C6A8D6B5F
:101B7300E50864016003021D33C3E56B940AE56A5B
:101B83009400503F9058F5E493F564F565F566E5E8
:101B930039B4030A9058F8E493F566021D4EE5093B
:101BA30064016005E539B4020D9058F5E493F567D7
:101BB3009058F8021D879058F8E493F5679058FF02
:101BC300021D87C3E56B940AE56A9400403FE56B09
:101BD3009464E56A940050359058F5E493F564F500
:101BE30065F566E5396403700C9058F893F56690D3
:101BF30058FF021E06E50964016006E539640270B8
:101C0300069058F8021E069058F8021E3FC3E56B73
:101C13009464E56A94004038E56B94E8E56A9403BC
:101C2300502E9058F5E493F564F5659058F8E493D5
:101C3300F566E53964037003021EA1E509640170CA
:101C430003021F04E53964026003021F5C021F04E0
:101C5300C3E56B94E8E56A9403404FE56B9410E5A4
:101C63006A942750459058F5E493F5649058F8E446
:101C730093F565AE6AAF6B7C037DE8123AE874E3D3
:101C83002FF58274583EF583E493F566E5396403D2
:101C93007003021FF7E50964017003022068E53948
:101CA300640260030220CD022068C3E56B9410E553
:101CB3006A942750030222DDAE6AAF6BE4FCFD7B1E
:101CC300A07A867901F8D3123B4B50030222DD90B0
:101CD30058F8E493F564AE6AAF6B7C277D10123A33
:101CE300E874E32FF58274583EF583E493F565AE0B
:101CF3006AAF6B7C277D10123AE87E037FE8CFCD75
:101D0300CFCECCCE123AE874E32FF58274583EF569
:101D130083E493F566E53964037003021FF7E5096D
:101D230064016006E539640270030220680220CD75
:101D3300C3E56B940AE56A940050559058F5E49313
:101D4300F564F565F566E539B403139058FFE4933C
:101D5300F5679058E3E493F568E56B0222DAE50949
:101D630064016005E539B402119058F5E493F56711
:101D7300F568E56B9058E30222DA9058F5E493F5A1
:101D8300679058FFE493F568E56B9058E30222DA15
:101D9300C3E56B940AE56A94005003021E75E56B74
:101DA3009464E56A94004003021E759058F5E49329
:101DB300F564F565F566E539640370389058FF936B
:101DC300F567AE6AAF6B7C007D0A123AE874E32FC5
:101DD300F58274583EF583E493F568AE6AAF6B7C85
:101DE300007D0A123AE874E32DF58274583CF583BA
:101DF300E40222DAE50964016006E5396402703918
:101E03009058F5E493F567AE6AAF6B7C007D0A12D8
:101E13003AE874E32FF58274583EF583E493F5684A
:101E2300AE6AAF6B7C007D0A123AE874E32DF5824B
:101E330074583CF583E40222DA9058F5E493F5678D
:101E4300AE6AAF6B7C007D0A123AE874FF2FF5820D
:101E530074583EF583E493F568AE6AAF6B7C007DFE
:101E63000A123AE874E32DF58274583CF583E402D0
:101E730022DAC3E56B9464E56A94005003021FB44D
:101E8300E56B94E8E56A94034003021FB49058F5A8
:101E9300E493F564F565F566E53964037057AE6A56
:101EA300AF6BFC7D64123AE874FF2FF58274583EE1
:101EB300F583E493F567AE6AAF6B7C007D64123AF9
:101EC300E87E007F0ACFCDCFCECCCE123AE874E3C2
:101ED3002FF58274583EF583E493F568AE6AAF6BD1
:101EE3007C007D0A123AE874E32DF58274583CF5C0
:101EF30083E40222DAE50964016006E539640270CD
:101F030058AE6AAF6B7C007D64123AE874E32FF538
:101F13008274583EF583E493F567AE6AAF6B7C0039
:101F23007D64123AE87E007F0ACFCDCFCECCCE12AD
:101F33003AE874E32FF58274583EF583E493F56829
:101F4300AE6AAF6B7C007D0A123AE874E32DF5822A
:101F530074583CF583E40222DAAE6AAF6B7C007DF1
:101F630064123AE874E32FF58274583EF583E493E0
:101F7300F567AE6AAF6B7C007D64123AE87E007F42
:101F83000ACFCDCFCECCCE123AE874FF2FF58274B0
:101F9300583EF583E493F568AE6AAF6B7C007D0A27
:101FA300123AE874E32DF58274583CF583E4022277
:101FB300DAC3E56B94E8E56A94035003022132E542
:101FC3006B9410E56A942740030221329058F5E49C
:101FD30093F564F565AE6AAF6B7C037DE8123AE86E
:101FE30074E32FF58274583EF583E493F566E5397F
:101FF30064037065AE6AAF6B7C037DE8123AE87EDA
:10200300007F64CFCDCFCECCCE123AE874FF2FF54C
:102013008274583EF583E493F567AE6AAF6B7C0038
:102023007D64123AE87E007F0ACFCDCFCECCCE12AC
:102033003AE874E32FF58274583EF583E493F56828
:10204300AE6AAF6B7C007D0A123AE874E32DF58229
:1020530074583CF583E40222DAE50964016006E57D
:102063003964027065AE6AAF6B7C037DE8123AE8AF
:102073007E007F64CFCDCFCECCCE123AE874E32F6F
:10208300F58274583EF583E493F567AE6AAF6B7CD3
:10209300007D64123AE87E007F0ACFCDCFCECCCE4E
:1020A300123AE874E32FF58274583EF583E493F50E
:1020B30068AE6AAF6B7C007D0A123AE874E32DF5D3
:1020C3008274583CF583E40222DAAE6AAF6B7C0378
:1020D3007DE8123AE87E007F64CFCDCFCECCCE121E
:1020E3003AE874E32FF58274583EF583E493F56779
:1020F300AE6AAF6B7C007D64123AE87E007F0ACF44
:10210300CDCFCECCCE123AE874FF2FF58274583E71
:10211300F583E493F568AE6AAF6B7C007D0A123AEF
:10212300E874E32DF58274583CF583E40222DAC3A4
:10213300E56B9410E56A942750030222DDAE6AAF83
:102143006BE4FCFD7BA07A867901F8D3123B4B50FC
:10215300030222DD9058F5E493F564AE6AAF6B7C1D
:10216300277D10123AE874E32FF58274583EF58305
:10217300E493F565AE6AAF6B7C277D10123AE87E77
:10218300037FE8CFCDCFCECCCE123AE874E32FF560
:102193008274583EF583E493F566E539640370650C
:1021A300AE6AAF6B7C037DE8123AE87E007F64CFB2
:1021B300CDCFCECCCE123AE874FF2FF58274583EC1
:1021C300F583E493F567AE6AAF6B7C007D64123AE6
:1021D300E87E007F0ACFCDCFCECCCE123AE874E3AF
:1021E3002FF58274583EF583E493F568AE6AAF6BBE
:1021F3007C007D0A123AE874E32DF58274583CF5AD
:1022030083E40222DAE50964016006E539640270B9
:1022130064AE6AAF6B7C037DE8123AE87E007F64AC
:10222300CFCDCFCECCCE123AE874E32FF5827458DB
:102233003EF583E493F567AE6AAF6B7C007D641271
:102243003AE87E007F0ACFCDCFCECCCE123AE874E7
:10225300E32FF58274583EF583E493F568AE6AAFD5
:102263006B7C007D0A123AE874E32DF58274583CC6
:10227300F583E48062AE6AAF6B7C037DE8123AE8D3
:102283007E007F64CFCDCFCECCCE123AE874E32F5D
:10229300F58274583EF583E493F567AE6AAF6B7CC1
:1022A300007D64123AE87E007F0ACFCDCFCECCCE3C
:1022B300123AE874FF2FF58274583EF583E493F5E0
:1022C30068AE6AAF6B7C007D0A123AE874E32DF5C1
:1022D3008274583CF583E493F56985677A85667B58
:1022E30085657C85647DAB68AD697F01024E478C53
:1022F3006B8D6C8F6DAF6CAE6BE56D70289058F481
:1023030093FFF56E9058E3E493F56F9058F5E493DB
:10231300F5709058E8E493F5719058F1E493F572F1
:102323008F730229C2E56D640160030223D2EF4E6D
:1023330070229058F493F56E9058E4E493F56F90FF
:1023430058F5E493F570F5719058FAE493F572A398
:10235300E493F573EF64014E70299058F493F56E8E
:102363009058E4E493F56F9058F5E493F570905822
:10237300FCE493F5719058FAE493F5729058F0E405
:1023830093F573EF64024E701F9058F493F56E90BB
:1023930058E4E493F56F9058F5E493F570F571F50F
:1023A300729058F9E493F573EF64034E60030229C6
:1023B300C29058F493F56E9058E4E493F56F9058F7
:1023C300F5E493F570F571F5729058ED0228BDE5CB
:1023D3006D64027049EF4E701E9058F493F56E9041
:1023E30058E5E493F56F9058F5E493F570F571F5BE
:1023F300729058EF0228BDEF64014E60030229C2B8
:102403009058F493F56E9058E5E493F56F9058F572
:10241300E493F570F571F5729058F20228BDE56DFD
:1024230064036003022518EF4E701B9058F493F574
:102433006E9058E6E493F56F9058F5E493F570F5D4
:1024430071757274F573EF64014E70249058F493B0
:10245300F56E9058E6E493F56F9058F5E493F570B4
:10246300F5719058FEE493F5729058F5E493F57383
:10247300EF64024E70249058F493F56E9058E6E49E
:1024830093F56F9058F5E493F570F5719058FAE46D
:1024930093F5729058F5E493F573EF64034E70244B
:1024A3009058F493F56E9058E6E493F56F9058F5D1
:1024B300E493F570F5719058F1E493F5729058F543
:1024C300E493F573EF64044E70249058F493F56E1F
:1024D3009058E6E493F56F9058F5E493F570F57131
:1024E3009058FCE493F5729058F5E493F573EF6418
:1024F300054E60030229C29058F493F56E9058E696
:10250300E493F56F9058F5E493F570F57175726D7A
:10251300F5730229C2E56DC3940450030228C1E593
:102523006DD3940D40030228C1856B75856C76E5E8
:102533006DB404059058FA803AE56DB405059058DA
:10254300FA8041E56DB406059058FC8026E56DB42C
:1025530007059058FC802DE56DB408059058F98067
:1025630012E56DB409059058F98019E56DB40A0CAC
:102573009058EDE493F56E756F5C8039E56DB40B9F
:102583000C9058EDE493F56E756F6D8028E56DB48E
:102593000C109058EDE493F56E9058F7E493F56FB3
:1025A3008013E56DB40D119058EDE493F56E9058DA
:1025B300F3E493F56FE4F574C3E57594004040E5E7
:1025C30076940AE575940050369058F5E493F570C7
:1025D300F571E5747009E50970059058FF80049062
:1025E30058E3E493F572AE75AF767C007D0A123A38
:1025F300E874E32DF58274583CF583E493F573C3D3
:10260300E576940AE57594004060E5769464E57593
:10261300940050569058F5E493F570F571E5747095
:1026230017E5097013AE75AF76FC7D0A123AE874AC
:10263300FF2FF58274588012AE75AF767C007D0A49
:10264300123AE874E32FF58274583EF583E493F568
:1026530072AE75AF767C007D0A123AE874E32DF50D
:102663008274583CF583E493F573C3E5769464E58B
:10267300759400500302270FE57694E8E5759403FB
:10268300400302270F9058F5E493F570AE75AF76CB
:102693007C007D64123AE874E32FF58274583EF5AA
:1026A30083E493F571E5747024E5097020AE75AF8A
:1026B30076FC7D64123AE87E007F0ACFCDCFCECC84
:1026C300CE123AE874FF2FF5827458801FAE75AFAF
:1026D300767C007D64123AE87E007F0ACFCDCFCEB0
:1026E300CCCE123AE874E32FF58274583EF583E4B6
:1026F30093F572AE75AF767C007D0A123AE874E307
:102703002DF58274583CF583E493F573C3E5769411
:10271300E8E575940350030227D0E5769410E57538
:10272300942740030227D0AE75AF767C037DE81271
:102733003AE874E32FF58274583EF583E493F57019
:10274300AE75AF767C037DE8123AE87E007F64CFF6
:10275300CDCFCECCCE123AE874E32FF58274583E37
:10276300F583E493F571E5747024E5097020AE7583
:10277300AF76FC7D64123AE87E007F0ACFCDCFCEE0
:10278300CCCE123AE874FF2FF5827458801FAE75D1
:10279300AF767C007D64123AE87E007F0ACFCDCF0E
:1027A300CECCCE123AE874E32FF58274583EF5830B
:1027B300E493F572AE75AF767C007D0A123AE87445
:1027C300E32DF58274583CF583E493F573C3E57602
:1027D3009410E575942750030229C2AE75AF76E4D1
:1027E300FCFD7BA07A867901F8D3123B4B500302A0
:1027F30029C2AE75AF767C277D10123AE874E32FB9
:10280300F58274583EF583E493F56FAE75AF767C2D
:10281300277D10123AE87E037FE8CFCDCFCECCCE12
:10282300123AE874E32FF58274583EF583E493F586
:1028330070AE75AF767C037DE8123AE87E007F6464
:10284300CFCDCFCECCCE123AE874E32FF5827458B5
:102853003EF583E493F571E5747024E5097020AEC9
:1028630075AF76FC7D64123AE87E007F0ACFCDCF48
:10287300CECCCE123AE874FF2FF5827458801FAE87
:1028830075AF767C007D64123AE87E007F0ACFCD77
:10289300CFCECCCE123AE874E32FF58274583EF5CE
:1028A30083E493F572AE75AF767C007D0A123AE845
:1028B30074E32DF58274583CF583E40229A6E56D93
:1028C300C3940E5009E56D941440030229ABE56DE2
:1028D300B40E05756E6E802EE56DB40F0C9058F630
:1028E300E493F56E9058E38031E56DB4100C905885
:1028F300F0E493F56E756F6E8024E56DB4110C9062
:1029030058F3E493F56E9058FC800FE56DB4120E06
:102913009058F6E493F56E9058E4E493F56F856B65
:1029230075856C76E576540FFDE575C4F854F0C8EB
:1029330068F575E576C4540F48F576540FFCE575D4
:10294300C4F854F0C868F575E576C4540F48F576B5
:10295300540FFBE575C4F854F0C868F575E576C403
:10296300540F48F576540FFF75740170239058F592
:1029730093FEF570EB70088E71EC9058E38008EBD2
:102983009058E393F571EC93F572ED93F573800F23
:10299300EF9058E393F570EB93F571EC93F572EDCB
:1029A3009058E393F5738017E56DC394164010E4D4
:1029B300F56EF56FF57075716E75727975736B855C
:1029C300717A85707B856F7C856E7DAB72AD737F0D
:1029D30001024E478E648F65856468856569E4F5F9
:1029E30009E50864016003022D66D3E56594C2E539
:1029F300649402AC64AD655030E4123A1C7B7B7A7C
:102A030014790E784012397AA804A905AA06AB07EF
:102A1300E4FFFE7DA07C43123882123A558E668F06
:102A230067750A01E4F5088026E4123A1C7BCD7A27
:102A3300CC790C784012397AE4FBFA79A078C31286
:102A43003886123A558E668F67E4F50A750801D306
:102A5300E567946EE56694004022E50A701EE5671B
:102A6300249CFFE56634FFFE900043E0FD7C0012EA
:102A73003AE8EF2567F567EE3566F566D3E56794C3
:102A8300B5E56694014022E50A701EE567245CFF04
:102A9300E56634FEFE900046E0FD7C00123AE8EF66
:102AA3002567F567EE3566F566D3E5679458E56601
:102AB30094024022E50A701EE56724DAFFE56634D6
:102AC300FDFE900045E0FD7C00123AE8EF2567F536
:102AD30067EE3566F566D3E56794DEE566940240F6
:102AE30022E50A701EE567243AFFE56634FDFE9091
:102AF3000044E0FD7C00123AE8EF2567F567EE3508
:102B030066F566D3E56794C0E56694034022E50A5B
:102B1300701EE567244AFFE56634FCFE900045E03D
:102B2300FD7C00123AE8EF2567F567EE3566F5663A
:102B3300D3E567947EE56694044022E50A701EE5BA
:102B43006724B4FFE56634FBFE900044E0FD7C009F
:102B5300123AE8EF2567F567EE3566F566D3E56764
:102B63009446E56694054022E50A701EE56724EC69
:102B7300FFE56634FAFE900044E0FD7C00123AE87B
:102B8300EF2567F567EE3566F566D3E5679404E5EB
:102B93006694064022E50A701EE5672410FFE56689
:102BA30034FAFE900043E0FD7C00123AE8EF25671B
:102BB300F567EE3566F566D3E56794F4E566940646
:102BC3004022E50A701EE567242AFFE56634F9FE14
:102BD300900044E0FD7C00123AE8EF2567F567EECC
:102BE3003566F566D3E5679476E56694074022E596
:102BF3000A701EE5672494FFE56634F8FE900044EE
:102C0300E0FD7C00123AE8EF2567F567EE3566F5DF
:102C130066D3E5679448E56694084022E50A701E8A
:102C2300E56724C2FFE56634F7FE900043E0FD7CD0
:102C330000123AE8EF2567F567EE3566F566D3E5EA
:102C43006794DEE56694084022E50A701EE5672472
:102C53002CFFE56634F7FE900043E0FD7C00123A5A
:102C6300E8EF2567F567EE3566F566D3E56794F615
:102C7300E56694094022E50A701EE5672428FFE50E
:102C83006634F6FE900043E0FD7C00123AE8EF253F
:102C930067F567EE3566F566D3E56794A0E5669458
:102CA3000A4022E50A701EE5672488FFE56634F5CD
:102CB300FE900043E0FD7C00123AE8EF2567F567DC
:102CC300EE3566F566D3E567944AE566940B4022D4
:102CD300E50A701EE56724DEFFE56634F4FE900026
:102CE30043E0FD7C00123AE8EF2567F567EE3566B1
:102CF300F566D3E567949AE566940B4022E50A707E
:102D03001EE5672484FFE56634F4FE900043E0FD8E
:102D13007C00123AE8EF2567F567EE3566F566D372
:102D2300E5679426E566940C4022E50A701EE56784
:102D330024E4FFE56634F3FE900043E0FD7C0012DB
:102D43003AE8EF2567F567EE3566F566D3E56794F0
:102D5300A0E566940F5003022F4275661375677ED4
:102D6300022F42856866856967AC68AD69E4123AEB
:102D73001C7BCD7ACC790C784012397AE4FBFA7952
:102D8300A07843123886123A558E668F67D3E5676B
:102D93009454E5669401401FE56724B6FFE5663465
:102DA300FEFE900045E0FD7C00123AE8C3E5679F14
:102DB300F567E5669EF566D3E567943AE5669402A2
:102DC300401FE56724D0FFE56634FDFE900044E034
:102DD300FD7C00123AE8C3E5679FF567E5669EF55B
:102DE30066D3E56794ACE5669403401FE5672472F8
:102DF300FFE56634FCFE900044E0FD7C00123AE8F7
:102E0300C3E5679FF567E5669EF566D3E5679414AA
:102E1300E5669405401FE567240AFFE56634FBFE7B
:102E2300900044E0FD7C00123AE8C3E5679FF56734
:102E3300E5669EF566D3E56794B8E5669406401F9C
:102E4300E567245CFFE56634F9FE900044E0FD7C11
:102E530000123AE8C3E5679FF567E5669EF566D31A
:102E6300E567947AE5669408401CE567249AFFE5D4
:102E73006634F7FE7C007D1C123AE8C3E5679FF5D4
:102E830067E5669EF566D3E5679432E566940A4086
:102E93001FE56724ECFFE56634F5FE900045E0FD91
:102EA3007C00123AE8C3E5679FF567E5669EF56621
:102EB300D3E56794A4E566940B401FE5672470FF90
:102EC300E56634F4FE900045E0FD7C00123AE8C369
:102ED300E5679FF567E5669EF566D3E56794B7E515
:102EE30066940D401FE56724AEFFE56634F2FE905D
:102EF3000045E0FD7C00123AE8C3E5679FF567E50E
:102F0300669EF566D3E5679490E566940F401FE5EA
:102F13006724E2FFE56634F0FE900046E0FD7C00A6
:102F2300123AE8C3E5679FF567E5669EF566D3E564
:102F3300679488E5669413400675661775676FAEE8
:102F430066AF67228E628F63E4F509E5086401606A
:102F5300030230B0D3E563948AE5629401AC62ADB9
:102F6300635030E4123A1C7BD77AA379B0783F12CE
:102F7300397AA804A905AA06AB07E4FFFE7DA07C65
:102F830043123882123A558E648F65750A01E4F54F
:102F9300088026E4123A1C7BD77AA379B0783F12D3
:102FA300397AE4FBFA79A078C3123886123A558E3F
:102FB300648F65E4F50A750801856466856567D3E2
:102FC300E5659428E56494004022E50A701EE565F2
:102FD3002428FFE43564FE90004DE0FD7C00123AA6
:102FE300E8C3E5679FF567E5669EF566D3E56594F7
:102FF300B6E56494034023E50A701FE565244AFFA0
:10300300E56434FCFE90004CE0FD7C00123AE8C31A
:10301300E5679FF567E5669EF566D3E565949EE5EE
:103023006494074023E50A701FE5652462FFE564A5
:1030330034F8FE90004CE0FD7C00123AE8C3E567EB
:103043009FF567E5669EF566D3E5659428E5649488
:103053000A4023E50A701FE56524D8FFE56434F5CB
:10306300FE90004CE0FD7C00123AE8C3E5679FF553
:1030730067E5669EF566D3E5659480E564940C5038
:10308300030233DFE50A60030233DFE5652480FFD3
:10309300E56434F3FE90004CE0FD7C00123AE8C393
:1030A300E5679FF567E5669EF5660233DFAC62ADC3
:1030B30063E4123A1C7BD77AA379B0783F12397A4A
:1030C300E4FBFA79A07843123886123A558E648F5E
:1030D30065856466856567C3E5659414E564940551
:1030E300401DE42565FFE56434FBFE90004EE0FDE2
:1030F3007C00123AE8EF2567F567EE3566F566C39F
:10310300E5659498E5649408401EE5652468FFE549
:103113006434F7FE900050E0FD7C00123AE8EF259E
:1031230067F567EE3566F566C3E56594B2E56494C5
:103133000C401EE565244EFFE56434F3FE90004E1B
:10314300E0FD7C00123AE8EF2567F567EE3566F59A
:1031530066C3E5659404E5649410401EE56524FCAC
:10316300FFE56434EFFE90004EE0FD7C00123AE888
:10317300EF2567F567EE3566F566C3E5659488E583
:10318300649413401EE5652478FFE56434ECFE90F7
:103193000050E0FD7C00123AE8EF2567F567EE3555
:1031A30066F566C3E56594A8E5649416401EE56577
:1031B3002458FFE56434E9FE900050E0FD7C0012E2
:1031C3003AE8EF2567F567EE3566F566C3E564947F
:1031D30019401DE42565FFE56434E7FE90004FE0E8
:1031E300FD7C00123AE8EF2567F567EE3566F56674
:1031F300C3E56594A2E564941C401EE565245EFF67
:10320300E56434E3FE90004EE0FD7C00123AE8EF03
:103213002567F567EE3566F566C3E565940EE564E7
:10322300941F401EE56524F2FFE56434E0FE900040
:103233004EE0FD7C00123AE8EF2567F567EE356650
:10324300F566C3E56594FCE5649421401EE56524B9
:1032530004FFE56434DEFE90004EE0FD7C00123A8C
:10326300E8EF2567F567EE3566F566C3E56594EA2D
:10327300E5649424401EE5652416FFE56434DBFE13
:1032830090004FE0FD7C00123AE8EF2567F567EE0A
:103293003566F566C3E56594ACE5649426401EE5A2
:1032A300652454FFE56434D9FE900051E0FD7C00B1
:1032B300123AE8EF2567F567EE3566F566C3E5650F
:1032C3009404E5649429401EE56524FCFFE5643419
:1032D300D6FE900050E0FD7C00123AE8EF2567F53A
:1032E30067EE3566F566C3E56594F4E564942940B5
:1032F3001EE565240CFFE56434D6FE900051E0FD25
:103303007C00123AE8EF2567F567EE3566F566C38C
:10331300E5659488E564942C401EE5652478FFE513
:103323006434D3FE90004FE0FD7C00123AE8EF25B1
:1033330067F567EE3566F566C3E5659418E564944D
:103343002E401EE56524E8FFE56434D1FE9000516C
:10335300E0FD7C00123AE8EF2567F567EE3566F588
:1033630066C3E56594DAE564942F401EE56524267B
:10337300FFE56434D0FE900051E0FD7C00123AE892
:10338300EF2567F567EE3566F566C3E56594CEE52B
:10339300649431401EE5652432FFE56434CEFE902B
:1033A300004CE0FD7C00123AE8EF2567F567EE3547
:1033B30066F566C3E5659458E5649434401EE56597
:1033C30024A8FFE56434CBFE90004CE0FD7C0012A2
:1033D3003AE8EF2567F567EE3566F566AE66AF67E3
:1033E300228E648F65E4F509E50864017066D3E510
:1033F3006594B5E5649403AC64AD655031E4123A69
:103403001C7BA47A70793D784012397AA804A90507
:10341300AA06AB07E4FFFE7DA07C43123882123A72
:10342300558E668F67750A01E4F50802387AE4124F
:103433003A1C7BA47A70793D784012397AE4FBFA1E
:1034430079A078C3123886123A558E668F67E4F5F1
:103453000A02387AAC64AD65E4123A1C7BA47A7034
:10346300793D784012397AE4FBFA79A0784312382F
:1034730086123A558E668F67D3E565941AE5649490
:1034830004401FE5652418FFE56434FCFE90001139
:10349300E0FD7C00123AE8C3E5679FF567E5669EA9
:1034A300F566D3E56594F1E5649409401FE5652469
:1034B3001EFFE56434F6FE900011E0FD7C00123A35
:1034C300E8C3E5679FF567E5669EF566D3E5659412
:1034D30006E5649411401FE5652402FFE56434EFBB
:1034E300FE900012E0FD7C00123AE8C3E5679FF509
:1034F30067E5669EF566D3E5659446E564941E40EC
:103503001EE42565FFE56434E2FE900013E0FD7CD4
:1035130000123AE8C3E5679FF567E5669EF566D353
:10352300E565949AE5649429401FE5652452FFE517
:103533006434D6FE900013E0FD7C00123AE8C3E544
:10354300679FF567E5669EF566D3E56594F2E564E6
:10355300942B401EE5652440FFE56434D4FE9000BF
:1035630013E0FD7C00123AE8EF2567F567EE356658
:10357300F566D3E5659448E564943A401FE5652410
:1035830062FFE56434C6FE900013E0FD7C00123A4E
:10359300E8C3E5679FF567E5669EF566D3E5659441
:1035A3003CE564943C401EE56524D8FFE56434C3E0
:1035B300FE900012E0FD7C00123AE8EF2567F56704
:1035C300EE3566F566D3E56594D4E5649444401F0F
:1035D300E5652440FFE56434BBFE900014E0FD7C08
:1035E30000123AE8C3E5679FF567E5669EF566D383
:1035F300E56594BCE5649448401EE5652458FFE501
:103603006434B7FE900012E0FD7C00123AE8EF2527
:1036130067F567EE3566F566D3E565948CE56494E6
:1036230050401FE5652488FFE56434AFFE90001326
:10363300E0FD7C00123AE8C3E5679FF567E5669E07
:10364300F566D3E565945CE5649458401EE565240E
:10365300B8FFE56434A7FE900012E0FD7C00123A47
:10366300E8EF2567F567EE3566F566D3E5659438CB
:10367300E564945E401FE56524DCFFE56434A1FE48
:10368300900012E0FD7C00123AE8C3E5679FF567FE
:10369300E5669EF566D3E56594D0E5649466401EC1
:1036A300E5652444FFE5643499FE900014E0FD7C55
:1036B30000123AE8EF2567F567EE3566F566D3E560
:1036C300659454E564946A401FE5652424FFE5642A
:1036D3003496FE900013E0FD7C00123AE8C3E567E0
:1036E3009FF567E5669EF566D3E56594B4E5649456
:1036F30073401FE5652460FFE564348CFE9000137E
:10370300E0FD7C00123AE8C3E5679FF567E5669E36
:10371300F566D3E56594DCE564947D401FE5652497
:1037230038FFE5643482FE900013E0FD7C00123A1A
:10373300E8C3E5679FF567E5669EF566AE64AF652A
:10374300E4FCFD7BA07A87F9F8C3123B4B502CE5D0
:10375300652474FFE5643478FEE434FFFDE434FF4C
:10376300FCC007900012E0FBE4FAF8D007125316EE
:10377300C3E5679FF567E5669EF566AE64AF65E4EE
:10378300FCFD7BB47A8CF9F8C3123B4B502CE565F6
:103793002460FFE5643473FEE434FFFDE434FFFC8E
:1037A300C007900013E0FBE4FAF8D007125316C3E6
:1037B300E5679FF567E5669EF566AE64AF65E4FC75
:1037C300FD7BDC7A96F9F8C3123B4B502CE565245C
:1037D30038FFE5643469FEE434FFFDE434FFFCC0E4
:1037E30007900013E0FBE4FAF8D007125316C3E581
:1037F300679FF567E5669EF566AE64AF65E4FCFD1D
:103803007B8C7A9BF9F8C3123B4B502CE5652488DB
:10381300FFE5643464FEE434FFFDE434FFFCC007D9
:10382300900012E0FBE4FAF8D007125316C3E567E1
:103833009FF567E5669EF566AE64AF65E4FCFD7BC8
:103843002C7AABF9F8C3123B4B502CE56524E8FF07
:10385300E5643454FEE434FFFDE434FFFCC0079018
:103863000011E0FBE4FAF8D007125316C3E5679F93
:10387300F567E5669EF566AE66AF6722023AC1E874
:103883006480F8E933E83360110460F0ED33EC331E
:103893007009E8FCE9FDEAFEEBFF220460DED3EBEE
:1038A3009FEA9EE99DE8C2E78CF0C2F795F0400CD1
:1038B300E8CCF8E9CDF9EACEFAEBCFFB123A8C85E6
:1038C300D0F05804700320D5B3E80470075002B257
:1038D300D5023ACB92D5EC0460F7E4CCC0E0C398B0
:1038E300F8603B94186008400DD0E0FB023AA3E473
:1038F300FBFAC9FC8028E830E406E4C9FBE4CAFC0F
:10390300E830E305E4C9CACBFCE854076010F8C308
:10391300E913F9EA13FAEB13FBEC13FCD8F130F5D6
:103923002FC3E49CFCEF9BFFEE9AFEED99FDD0E0E4
:10393300FBEF4E4D4C701222DB03023AC8EC2CFC19
:10394300EF33FFEE33FEED33FDED30E7EB023AA349
:10395300EF2BFFEE3AFEED39FDD0E0FB50130BBB2E
:103963000003023ACBED13FDEE13FEEF13FFEC134E
:10397300FC023AA3023ACBEC5D046005E8590470FB
:1039830003023AC1123A8C580460F6EC4860F2EC38
:103993007004FDFEFF22C860DB2481C85009C39870
:1039A30060025006023AC89850CAF582E9294B4A88
:1039B3007005AB82023AB775F0007C1A7880C3EFCA
:1039C3009BEE9AED99400DC3EF9BFFEE9AFEED99A6
:1039D300FDE842F0DC23ACF0D0E0FFD0E0FED0E025
:1039E300FDAB8220E7101BEB60BAEC2CFCEF33FF3E
:1039F300EE33FEED33FD023AA3E803F830E705C0EA
:103A0300F075F000EF2FFFEE33FEED33FD40B830DD
:103A1300E7C280AA75F020800E75F010800575F05E
:103A2300087D007E007F003392D530D503123B3DE5
:103A3300EC334010EF33FFEE33FEED33FDEC33FC9C
:103A4300D5F0ED22E5F0247EA2D513CC92E7CDCEBE
:103A5300FF22EDD2E7CD33EC3392D524814006E447
:103A6300FFFEFDFC22FCE4CFCECDCC24E05011744C
:103A7300FF80EDC3CC13CCCD13CDCE13CECF13CF5C
:103A83000470F030D5DE023B3DE9D2E7C933E833B9
:103A9300F892D5EDD2E7CD33EC33FC5002B2D52208
:103AA300EC30E7100FBF000C0EBE00080DBD000484
:103AB3000BEB6014A2D5EB13FCED92E7FD2274FF30
:103AC300FCFDFEFF22E480F8A2D574FF13FC7D8089
:103AD300E480EFEF8DF0A4A8F0CF8CF0A428CE8D76
:103AE300F0A42EFE22BC000BBE0029EF8DF084FF54
:103AF300ADF022E4CCF875F008EF2FFFEE33FEECC7
:103B030033FCEE9DEC984005FCEE9DFE0FD5F0E9ED
:103B1300E4CEFD22EDF8F5F0EE8420D21CFEADF0EC
:103B230075F008EF2FFFED33FD4007985006D5F0F1
:103B3300F222C398FD0FD5F0EA22C3E49FFFE49E6F
:103B4300FEE49DFDE49CFC22EB9FF5F0EA9E42F02F
:103B5300E99D42F0EC6480C864809845F02275F0DA
:103B630008758200EF2FFFEE33FECD33CDCC33CC7F
:103B7300C58233C5829BED9AEC99E58298400CF59A
:103B830082EE9BFEED9AFDEC99FC0FD5F0D6E4CEC8
:103B9300FBE4CDFAE4CCF9A88222B800C1B90059FC
:103BA300BA002DEC8BF084CFCECDFCE5F0CBF978C9
:103BB30018EF2FFFEE33FEED33FDEC33FCEB33FB5D
:103BC30010D703994004EB99FB0FD8E5E4F9FA22E7
:103BD3007818EF2FFFEE33FEED33FDEC33FCC933E2
:103BE300C910D7059BE99A4007EC9BFCE99AF90FAA
:103BF300D8E0E4C9FAE4CCFB2275F010EF2FFFEE16
:103C030033FEED33FDCC33CCC833C810D7079BEC60
:103C13009AE899400AED9BFDEC9AFCE899F80FD5D8
:103C2300F0DAE4CDFBE4CCFAE4C8F9228E648F65C4
:103C3300E50864017049D3E5659468E56494005030
:103C430034AC64AD65E4123A1C7B487AE1790A78B6
:103C53004012397AA804A905AA06AB07E4FFFEFDC2
:103C63007C42123882123A558E668F67750A01E4D8
:103C7300F508023F79E4F50AF566F567023F79AC8A
:103C830064AD65E4123A1C7BCD7ACC794C78401252
:103C9300397AE4FBFAF97842123886123A55AB07BF
:103CA300AA068A668B67C3EB9432EA9400401DEB45
:103CB30024CEFFEA34FFFE900031E0FD7C00123A8F
:103CC300E8C3E5679FF567E5669EF566C3EB946D0C
:103CD300EA9400401DEB2493FFEA34FFFE9000308A
:103CE300E0FD7C00123AE8C3E5679FF567E5669E51
:103CF300F566C3EB94AEEA9400401DEB2452FFEA51
:103D030034FFFE900032E0FD7C00123AE8C3E56721
:103D13009FF567E5669EF566C3EB94F8EA94004069
:103D23001DEB2408FFEA34FFFE900033E0FD7C0026
:103D3300123AE8C3E5679FF567E5669EF566C3EB50
:103D43009471EA9401401DEB248FFFEA34FEFE9048
:103D53000034E0FD7C00123AE8C3E5679FF567E5B0
:103D6300669EF566C3EB94C8EA9401401DEB2438C4
:103D7300FFEA34FEFE900035E0FD7C00123AE8C312
:103D8300E5679FF567E5669EF566C3EB944FEA9496
:103D930002401DEB24B1FFEA34FDFE900036E0FD46
:103DA3007C00123AE8C3E5679FF567E5669EF56612
:103DB300C3EB941CEA9403401DEB24E4FFEA34FCB8
:103DC300FE900036E0FD7C00123AE8C3E5679FF5FC
:103DD30067E5669EF566C3EB94F2EA9403401DEB38
:103DE300240EFFEA34FCFE900038E0FD7C00123A1A
:103DF300E8C3E5679FF567E5669EF566C3EB942622
:103E0300EA9405401DEB24DAFFEA34FAFE9000360B
:103E1300E0FD7C00123AE8C3E5679FF567E5669E1F
:103E2300F566C3EB9484EA9406401DEB247CFFEA19
:103E330034F9FE90003AE0FD7C00123AE8C3E567EE
:103E43009FF567E5669EF566C3EB946DEA940840BB
:103E53001DEB2493FFEA34F7FE900038E0FD7C006D
:103E6300123AE8C3E5679FF567E5669EF566C3EB1F
:103E7300946DEA9409401DEB2493FFEA34F6FE9017
:103E8300003AE0FD7C00123AE8C3E5679FF567E579
:103E9300669EF566C3EB9441EA940B401DEB24BF89
:103EA300FFEA34F4FE900039E0FD7C00123AE8C3E7
:103EB300E5679FF567E5669EF566C3EB94C9EA94EB
:103EC3000C401DEB2437FFEA34F3FE90003DE0FD88
:103ED3007C00123AE8C3E5679FF567E5669EF566E1
:103EE300C3EB9485EA940E401DEB247BFFEA34F187
:103EF300FE90003EE0FD7C00123AE8C3E5679FF5C3
:103F030067E5669EF566C3EB941CEA9411401DEBCE
:103F130024E4FFEA34EEFE90003EE0FD7C00123A1A
:103F2300E8C3E5679FF567E5669EF566C3EB94D640
:103F3300EA9413401CEB242AFFEA34ECFE90003E83
:103F4300E0FD7C00123AE8EF2567F567EE3566F58C
:103F530066C3EB94B2EA9414401CEB244EFFEA349C
:103F6300EBFE90003EE0FD7C00123AE8EF2567F59A
:103F730067EE3566F566AE66AF67228E648F65E5DC
:103F83000864017049D3E5679467E566940050348B
:103F9300AC64AD65E4123A1C7B487AE1790A784057
:103FA30012397AA804A905AA06AB07E4FFFEFD7C33
:103FB30042123882123A558E668F67750A01E4F50C
:103FC300080242C7E4F50AF566F5670242C7AC6426
:103FD300AD65E4123A1C7B717A3D794A7840123917
:103FE3007AE4FBFAF97842123886123A55AB07AAFB
:103FF300068A668B67C3EB9445EA9400401DEB2465
:10400300C5FFEA34FFFE900021E0FD7C00123AE890
:10401300C3E5679FF567E5669EF566C3EB946DEAB6
:104023009400401DEB2493FFEA34FFFE900022E04E
:10403300FD7C00123AE8C3E5679FF567E5669EF5E8
:1040430066C3EB9499EA9400401DEB2467FFEA34BE
:10405300FFFE900023E0FD7C00123AE8C3E5679F72
:10406300F567E5669EF566C3EB94C7EA9400401DC9
:10407300EB2439FFEA34FFFE900024E0FD7C0012BC
:104083003AE8C3E5679FF567E5669EF566C3EB947B
:1040930011EA9401401DEB24F0FFEA34FEFE900088
:1040A30025E0FD7C00123AE8C3E5679FF567E56606
:1040B3009EF566C3EB947BEA9401401DEB2486FFD7
:1040C300EA34FEFE900023E0FD7C00123AE8C3E5EB
:1040D300679FF567E5669EF566C3EA9402401DEBAC
:1040E3002401FFEA34FEFE900026E0FD7C00123A34
:1040F300E8C3E5679FF567E5669EF566C3EB94A1A4
:10410300EA9402401DEB2460FFEA34FDFE90002791
:10411300E0FD7C00123AE8C3E5679FF567E5669E1C
:10412300F566C3EB9460EA9403401DEB24A1FFEA18
:1041330034FCFE900028E0FD7C00123AE8C3E567FA
:104143009FF567E5669EF566C3EB944AEA940440DF
:104153001DEB24B7FFEA34FBFE900029E0FD7C0051
:10416300123AE8C3E5679FF567E5669EF566C3EB1C
:104173009462EA9405401DEB249FFFEA34FAFE9013
:10418300002AE0FD7C00123AE8C3E5679FF567E586
:10419300669EF566C3EB94A9EA9406401DEB24588A
:1041A300FFEA34F9FE90002BE0FD7C00123AE8C3ED
:1041B300E5679FF567E5669EF566C3EB94B0EA9401
:1041C30007401DEB2451FFEA34F8FE90002DE0FD7B
:1041D3007C00123AE8C3E5679FF567E5669EF566DE
:1041E300C3EB94E6EA9408401DEB241BFFEA34F783
:1041F300FE90002CE0FD7C00123AE8C3E5679FF5D2
:1042030067E5669EF566C3EB9426EA940A401DEBC8
:1042130024DBFFEA34F5FE90002DE0FD7C00123A2A
:10422300E8C3E5679FF567E5669EF566C3EB949B78
:10423300EA940B401DEB2466FFEA34F4FE90002E53
:10424300E0FD7C00123AE8C3E5679FF567E5669EEB
:10425300F566C3EB9448EA940D401DEB241DFFEA79
:1042630034F3FE90002EE0FD7C00123AE8C3E567CC
:104273009FF567E5669EF566C3EB9403EA940F40EA
:104283001DEB24FEFFEA34F0FE90002EE0FD7C00DF
:10429300123AE8C3E5679FF567E5669EF566C3EBEB
:1042A3009456EA9411401DEB24ABFFEA34EEFE90E2
:1042B300002FE0FD7C00123AE8C3E5679FF567E550
:1042C300669EF566AE66AF67221251F0BF010675B2
:1042D3002C040245317886E6705212578EAB07AA3A
:1042E30006D3EB949CEA9472403E7C007D0A123A1A
:1042F300E8AA06AB07748A2BFB74F43AFA7C007DB8
:1043030064AF03FE123AE88E3C8F3D74522FF58260
:10431300E43400F583E0FD7C00AF03AE02123AE81B
:10432300EF2BF524EE3AF52378867602787FE66064
:10433300030244C07610124FC78E608F61E547B405
:104343000143E508B4013EC3E5619529E56095287D
:104353004018E5292524FFE5283523FEC3E5619FA1
:10436300F561E5609EF5600243FDC3E5299524FFF1
:10437300E5289523FEC3EF9561F561EE9560F56041
:10438300E4F5088075E547B4011AE5087016E561A0
:104393002529FFE5603528FEE5242FF561E5233E59
:1043A300F5608056E5477010E508B4010BE561251B
:1043B30029FFE5603528801CE547703EE508703A23
:1043C300C3E5619529E56095284017E5619529FFC7
:1043D300E5609528FEC3EF9524F561EE9523F5601E
:1043E3008018C3E5299561FFE5289560FEE5242F34
:1043F300F561E5233EF560750801E522AC53AD5444
:10440300AE60AF61B40110123AE8C3E5619FF56194
:10441300E5609EF560800D123AE8EF2561F561EEE7
:104423003560F560E55AB4010674FFF560F561E5A2
:10443300307011AF61AE6012136A8E628F63E556FE
:10444300707B8072E530B40111AF61AE601233E46A
:104453008E628F63E5567065805CE530B40211AF00
:1044630061AE601229D78E628F63E556704F804626
:10447300E530B40311AF61AE60120B088E628F6337
:10448300E55670398030E530B40414750901AF6125
:10449300AE60123F7E8E628F63E55670208017E513
:1044A30030B40519750901AF61AE60123C2F8E62FD
:1044B3008F63E5567007124F0E8E628F637880E626
:1044C300700712517F78807608787EE67026761022
:1044D300AD63AC627F01121B62D3E563954BE5626A
:1044E300954A400EE5639549E56295485004D2B478
:1044F3008002C2B47883E67018208407AF63AE628B
:104503001255EF208507AF63AE621255407883766C
:10451300107882E67018200109856399D20176012B
:10452300800AE562F599C2017882763BD299AE6240
:10453300AF6322C28CAF89EF4401F589F589758C8D
:10454300DCE4F58AC28D75E50775E64675E6B9AF15
:10455300E2EF4408F5E2F5E275E50675E64675E631
:10456300B9D28CA28DB340FBC28DC28C75E50775A1
:10457300E64675E6B9AFE2EF4403F5E2F5E275E529
:104583000675E64675E6B975E50775E64675E6B957
:10459300AFE2EF54FBF5E2F5E275E50675E6467525
:1045A300E6B9125617D296D2A212567E12559E1211
:1045B30058221258321256D812572BE4FFFE1255C6
:1045C30040125745E4FFFE1255EFE4FF1257B8E4DB
:1045D300F53AFF12563AEF644E70227F0112563AB3
:1045E300BF451A7F0212563ABF57127F0312563A3B
:1045F300BF5A0A7F0412563AEF64A560297D4EE440
:10460300FF12569C7D457F0112569C7D577F0212F7
:10461300569C7D5A7F0312569C7DA57F0412569C9F
:104623001252C1124D711257457F1212563A8F39E9
:104633007F1312563A8F567F1412563A8F307F16D5
:104643001256F48E288F297F181256F48E5B8F5CD6
:104653007F1A1256F48E4C8F4D7F1C1256F48E45E2
:104663008F467F1E1256F48E3C8F3D7F201256F4E8
:104673008E358F367F221256F48E318F327F24127D
:1046830056F48E2A8F2B7F261256F48E4A8F4B7F39
:10469300281256F48E488F497F2A12563A8F507F3C
:1046A3002B12563A8F5D7F2C12563A8F577F2E125C
:1046B300563A8F587F2F12563A8F597F3012563AF7
:1046C3008F527F3212563A8F447F341256F48E53F0
:1046D3008F547F361256F48E3E8F3F7F381256F436
:1046E3008E2E8F2F7F3A1256F48E258F267F3C1203
:1046F300563A8F41E42550F538E43420F537125209
:10470300C1D2A9D28CD2ABD28ED2AF753B0112509B
:10471300FFE4F539F52CE5397007E54430E02780EF
:1047230022E539B40107E54430E11B8016E539B4CD
:104733000207E54430E20F800AE539B40308E54493
:1047430030E303754701E52C1460261460281460D8
:104753002A14602C146031240570EBE539700DE5E3
:104763004430E4057522018003E4F5221242CC8033
:10477300D5124A5C80D012479080CB1248F680C68F
:1047830075340112002680BE124C9880B91251F084
:10479300BF0106752C040248F1787FE660030248E6
:1047A3007E7610124FC78E608F61E547B40124E512
:1047B30008B4011FD3E561953DE560953C40028057
:1047C30047C3E53D9561F561E53C9560F560E4F52A
:1047D300088053E547B40106E50870028009E54700
:1047E3007013E508B4010EE53D2561F561E53C353F
:1047F30060F5608031E547702DE5087029C3E561F8
:10480300953DE560953C400EE561953DF561E560BC
:10481300953CF5608010C3E53D9561F561E53C95F8
:1048230060F560750801D3E5369480E535940CACEA
:104833002EAD2FAE60AF61400F123AE8EF2561F560
:1048430061EE3560F560800E123AE8C3E5619FF5CD
:1048530061E5609EF560AC60AD61E4123A1C7BCD0E
:104863007ACC794C784012397A123A558E608F613E
:10487300E55AB4010674FFF560F561787EE67028A9
:10488300AD61AC607F01121B62787E7608D3E5616F
:10489300954BE560954A400EE5619549E56095487D
:1048A3005004D2B48002C2B47883E670182084071F
:1048B300AF61AE601255EF208507AF61AE60125550
:1048C30040788376027880E6700712517F7880768D
:1048D300087882E67018200109856199D201760172
:1048E300800AE560F599C2017882763BD299AE6081
:1048F300AF61221251F0BF0106752C04024A5778AA
:104903007FE660030249E47610124FC78E608F6121
:10491300E547B40124E508B4011FC3E5619532E519
:1049230060953140028047C3E5329561F561E53119
:104933009560F560E4F5088053E547B40106E508A2
:1049430070028009E5477013E508B4010EE53225CE
:1049530061F561E5313560F5608031E547702DE53E
:10496300087029C3E5619532E5609531400EE56134
:104973009532F561E5609531F5608010C3E53295B8
:1049830061F561E5319560F560750801D3E52B9418
:1049930000E52A9419AC25AD26AE60AF61400F1235
:1049A3003AE8EF2561F561EE3560F560800E123A65
:1049B300E8C3E5619FF561E5609EF560AC60AD61BC
:1049C300E4123A1C7BCD7ACC794C784012397A12B6
:1049D3003A558E608F61E55AB4010674FFF560F5B0
:1049E30061787EE67028AD61AC607F01121B62784E
:1049F3007E7610D3E561954BE560954A400EE561FF
:104A03009549E56095485004D2B48002C2B47883D6
:104A1300E67018208407AF61AE601255EF2085075A
:104A2300AF61AE60125540788376027880E67007F6
:104A330012517F788076087882E670182001098504
:104A43006199D2017601800AE560F599C201788205
:104A5300763BD299AE60AF61221251F0BF01067569
:104A63002C04024BB9787FE66003024B46761012A2
:104A73004FC78E608F61E547B40124E508B4011F79
:104A8300C3E561954DE560954C40028047C3E54D14
:104A93009561F561E54C9560F560E4F5088053E5B3
:104AA30047B40106E50870028009E5477013E5087D
:104AB300B4010EE54D2561F561E54C3560F5608087
:104AC30031E547702DE5087029C3E561954DE56033
:104AD300954C400EE561954DF561E560954CF560AB
:104AE3008010C3E54D9561F561E54C9560F5607502
:104AF3000801D3E54694E4E5459444AC3EAD3FAEAE
:104B030060AF61400F123AE8EF2561F561EE356061
:104B1300F560800E123AE8C3E5619FF561E5609E9A
:104B2300F560E55AB4010674FFF560F561AF61AE57
:104B330060122F478E608F61E5567007124F0E8EFD
:104B4300608F61787EE67028AD61AC607F01121BD7
:104B530062787E7610D3E561954BE560954A400E09
:104B6300E5619549E56095485004D2B48002C2B42A
:104B73007883E67018208407AF61AE601255EF208A
:104B83008507AF61AE60125540788376027880E680
:104B9300700712517F788076087882E670182001BA
:104BA30009856199D2017601800AE560F599C20110
:104BB3007882763BD299AE60AF6122014300014E09
:104BC30000015A005A005264656464646464646456
:104BD3006464646464646464646464646464646492
:104BE30064097E101004023B02141E0202530000EB
:104BF300023E0000022E00000225000002230000F6
:104C0300015014015D01015701014F0301581201C5
:104C13005901015201015100013401013A00C1025D
:104C2300C101C103010800010900010A004B00157D
:104C330000243038404C586878C8FA49000C0020EA
:104C430028303470A0C8FF4A004007080A10182013
:104C5300303840484C000000102028303840606C49
:104C630080B4E1500020000A0E1314161B23262AD9
:104C7300343C4046506A5000300A0D10121C202864
:104C83003437393B40425A84FA48004A002C2E32CA
:104C9300363A3E4D00124D711257457F1212563A65
:104CA3008F397F1312563A8F567F1412563A8F302C
:104CB3007F161256F48E288F297F181256F48E5BB6
:104CC3008F5C7F1A1256F48E4C8F4D7F1C1256F454
:104CD3008E458F467F221256F48E318F327F2412F7
:104CE30056F48E2A8F2B7F1E1256F48E3C8F3D7FF7
:104CF300201256F48E358F367F261256F48E4A8F45
:104D03004B7F281256F48E488F497F2A1256F48F10
:104D1300507F2B12563A8F5D7F2C12563A8F577F56
:104D23002D12563A8F4F7F2E12563A8F587F2F12DD
:104D3300563A8F597F3012563A8F527F3212563A73
:104D43008F447F341256F48E538F547F361256F4A9
:104D53008E3E8F3F7F381256F48E2E8F2F7F3A125E
:104D630056F48E258F267F3C12563A8F41221250DD
:104D7300FFAD397F1212569CE4FD7F1312569CE45B
:104D8300FD7F1412569CE4FDFC7F161258007D78BB
:104D93007C057F18125800E4FDFC7F1A1258007D31
:104DA300527C037F1C125800E4FDFC7F1E12580046
:104DB3007D887C137F201258007D287C007F22127F
:104DC30058007DC87C007F24125800E4FDFC7F2638
:104DD3001258007D887C137F281258007D147F2A87
:104DE30012569C7D017F2B12569C7D017F2C1256FF
:104DF3009C7D037F2D12569C7D127F2E12569C7D27
:104E0300017F2F12569C7D017F3012569CE4FD7F5B
:104E13003212569C7D017C007F341258007D017C48
:104E2300007F361258007D017C007F381258007DC8
:104E3300017C007F3A1258007D3C7C007F3C125875
:104E4300000252C1A9057D01AA7DED64017069C20A
:104E530091FEC292C290E4FC1258C0D2921258C082
:104E6300C2920CBC08F20EBE02E8E4FEC292C290EB
:104E7300E4FCEA30E702D2901258C0D2921258C032
:104E8300C292C290EA25E0FA0CBC08E6EE7004AACE
:104E93007C801ABE0104AA7B8013BE0204AA7A8016
:104EA3000CBE0304AA038005BE0402AA010EBE06BB
:104EB300BBD2911258C0C291ED6402704DC295FEEF
:104EC300C294E4FCEA30E702D2931258C0D294129F
:104ED30058C0C294C293EA25E0FA0CBC08E6EE700F
:104EE30004AA7C801ABE0104AA7B8013BE0204AA12
:104EF3007A800CBE0304AA038005BE0402AA010E35
:104F0300BE06BDD2951258C0C295228E648F65E548
:104F130009703FC3E5659440E5649401401AE508D0
:104F2300700BE56524C0FDE56434FE8047E5652428
:104F330040FDE5643401803CE508B4010BE56524DC
:104F430040FDE5643401803BC374409565FD740105
:104F53008051C3E5659420E56494004019E5087029
:104F63000BE56524E0FDE56434FF8008E565242056
:104F7300FDE43564800DE508B40121E5652420FDD9
:104F8300E43564FCE4123A1C7B667A6679E6783F82
:104F930012397A123A558E668F678023C37420952F
:104FA30065FDE49564FCE4123A1C7B667A6679E657
:104FB300783F12397A123A558E668F67750801AEBB
:104FC30066AF672212575FEF600302506E532D03E3
:104FD300E52DC39402404B750801E52D5403756B11
:104FE30000F56C756C00F56BE521256CF56CE4350B
:104FF3006BF56BE56CAE6B7807C333CE33CED8F964
:10500300F56C8E6BE533C313F533256CF56CE43522
:105013006BF56B636CFF636BFFC3E56B94F0404808
:105023008041E4F508E52D5403756B00F56C756C50
:1050330000F56BE521256CF56CE4356BF56BE56CE0
:10504300AE6B7807C333CE33CED8F9F56C8E6BE5F0
:1050530033C313F533256CF56CE4356BF56BC394EF
:10506300F04005755A018003E4F55AAE6BAF6C222C
:10507300787FE4F6D8FD75819D0250BA024536E487
:1050830093A3F8E493A34003F68001F208DFF480CE
:1050930029E493A3F85407240CC8C333C4540F441E
:1050A30020C8834004F456800146F6DFE4800B01F8
:1050B30002040810204080904BBEE47E019360BC44
:1050C300A3FF543F30E509541FFEE493A360010E90
:1050D300CF54C025E060A840B8E493A3FAE493A3B7
:1050E300F8E493A3C8C582C8CAC583CAF0A3C8C5D8
:1050F30082C8CAC583CADFE9DEE780BE20801CE41C
:10510300F539F52C7542012084037542112085037E
:10511300754221E54464017062805D20811D75390B
:1051230001752C0175420220840375421220850308
:10513300754222E54464027042803D20821D753928
:1051430002752C02754204208403754214208503E2
:10515300754224E54464047022801D20831D753943
:1051630003752C03754208208403754218208503B8
:10517300754228E544B4080375470122E4FF12563B
:105183005CEF547FF5527F0112565C8F597F0212F8
:10519300565C8F587F0312565CEF5407F54F7F041C
:1051A30012565C8F577F0512565C8F5D7F06125631
:1051B3005C8F50E55D540364017031AD507F2A125A
:1051C300569CAD5D7F2B12569CAD577F2C12569C7F
:1051D300AD4F7F2D12569CAD587F2E12569CAD5964
:1051E3007F2F12569CAD527F3012569C2230B21044
:1051F30030B30D30860A308707E4F54EF543805807
:1052030020B213E54E7009754E01E5434401804415
:10521300E54354FE803E20B310E54E7006E543445B
:10522300028024E54354FD802B208610E54E700652
:10523300E54344048011E54354FB8018208719E5B6
:105243004E700DE5434408F543F543754E01800860
:10525300E54354F7F543F543AF4322C0E0C0D075AF
:10526300D000C000C007C28E788706787EE6600152
:1052730016787FE66001167887E6FF540770087892
:1052830080E6600116D200EF640F70217887F6780C
:1052930082E66001167883E66001167884E6600191
:1052A300167885E66001167886E6600116758D0B23
:1052B300758BDCD28ED007D000D0D0D0E0327F0304
:1052C30012565C8F4F7D407F071256BAE54F440854
:1052D300FD7F031256BAE54F20E737AD507F061224
:1052E30056BAAD5D7F051256BAAD577F041256BA52
:1052F300E54F4408FD7F031256BAAD587F0212569C
:10530300BAAD597F011256BAE5524480FDE4FF124B
:1053130056BA22C2D5E830E70FB2D5E4C39BFBE40B
:105323009AFAE499F9E498F8EC30E717B2D51253F6
:105333004C123B9DE4C39BFBE49AFAE499F9E4988D
:10534300F88003123B9D30D50DE4C39FFFE49EFE1E
:10535300E49DFDE49CFC22AE071257CAAF06AE07DC
:10536300750B01E47811F6EE30E704D2A08002C297
:10537300A0D2A11258C7C2A11258C7EE25E0FE78E9
:105383001106E6C3940840DFD2A0D2A11258C73059
:10539300A003E4F50BC2A10258C7AE07E47812F6E6
:1053A300D2A018F6D2A11258C77812E6FF25E0F66C
:1053B30030A004E64401F6C2A11258C7781106E6EC
:1053C300C3940840DFEE24FF92A0D2A11258C7C2B3
:1053D300A1D2A01258C77812E6FF22AE07750C01BE
:1053E300E47810F6EE30E704D2A28002C2A2D2A380
:1053F3001258CEC2A31258CEEE25E0FE781006E670
:10540300C3940840DFD2A2D2A31258CE30A203E441
:10541300F50CC2A30258CEE47811F6D2A218F6D244
:10542300A31258CE7811E6FF25E0F630A204E64435
:1054330001F6C2A31258CE781006E6C3940840DFE3
:10544300D2A2D2A31258CEC2A3D2A21258CE78119E
:10545300E6FF22AE07750D01E47810F6EE30E7049F
:10546300D2A28002C2A2D2A41258D5C2A41258D585
:10547300EE25E0FE781006E6C3940840DFD2A2D200
:10548300A41258D530A203E4F50DC2A40258D5AE38
:1054930007750E01E47810F6EE30E704D2A280021D
:1054A300C2A2D2A41258DCC2A41258DCEE25E0FE3C
:1054B300781006E6C3940840DFD2A2D2A41258DCC7
:1054C30030A203E4F50EC2A40258DCE47811F6D24C
:1054D300A218F6D2961258867811E6FF25E0F63028
:1054E300A204E64401F6C296125886781006E6C373
:1054F300940840DFD2A2D296125886C296D2A21244
:1055030058867811E6FF22AE07750F01E47810F68E
:10551300EE30E704D2A28002C2A2125881C29612D0
:105523005886EE25E0FE781006E6C3940840E112A3
:10553300587F30A203E4F50FC296025886AB07AA40
:1055430006E509700AFC7D0A123AE8AA06AB07AF22
:1055530003AD07AF02AC0753040F1257EE7F981247
:105563005492AF04125492AF051254920258ACC035
:10557300E0C0D075D000C000C007C28C788806E6B2
:1055830054077006AF99F55E8F5F758C0B758ADCD7
:10559300D28CD007D000D0D0D0E032C291C295C215
:1055A30092C290C294C2931258C01258C01258C0EB
:1055B3001258C0E4FFFE0FBF00010EE4B507F7EE7B
:1055C300B401F32212535AE4FF12539D8F2DE4FFCB
:1055D30012539D8F21E4FF12539D8F337F0112538A
:1055E3009D8F55125898E5555480FF22E5097006A2
:1055F300FC7D0A123AE8AA07AB06EB540F520312DA
:1056030057DC7F9A125456AF03125456AF0212540A
:10561300560258A27593FFE4F5947580FFF59175D2
:1056230092FFF5907595247596DF75A02075B1ED01
:1056330075B21375B02C22AD071258527FA01253C6
:10564300DEAF051253DE1257A47FA11253DE1254AC
:105653001AAE07125861AF0622AD071258707FDEEB
:1056630012550AAF0512550A12000E7FDF12550AB2
:105673001254CEAE071258B6AF0622D2A31258CE9A
:105683001258CE1258CEC2A2E4FFFE0FBF00010E85
:10569300E4B507F7EEB401F322AC071258527FA02A
:1056A3001253DEAF041253DEAF051253DE125861FC
:1056B3007F647E00025777AC071258707FDE125565
:1056C3000AAF0412550AAF0512550A1258B67F6481
:1056D3007E00025811D2A11258C7D2A01258C71285
:1056E30058C71258C71258C7C2A0E4FF0FBFFEFC29
:1056F30022AC07EC04FF12563AAB07EB7B00FAAF80
:105703000412563AEB2FFBE43AFEAF03227F327EBC
:1057130000D3EF9400EE9400400DE4FD0DBDFFFCBB
:10572300EF1F70ED1E80EA2243985053C8F043C820
:105733003075CDFF75CCD075CBFF75CADCD2ACD23A
:10574300CA22905907E493F560F561FBFDF57AF5FC
:105753007B85617C85607D7F01024E47E47810F68E
:105763001256D87D9C7FD012588D7FD11255C778A1
:1057730010E6FF22D3EF9400EE9400400DE4FD0DFC
:10578300BDFFFCEF1F70ED1E80EA2220A51220A5AD
:1057930005E4FEFF80F830A5070FBF00010E80F679
:1057A30022D2A21258CED2A31258CEC2A21258CEDF
:1057B300C2A30258CEEFAFA06005EF44208003EFF1
:1057C30054DFF5A0F5A022D2A01258C7D2A11258D7
:1057D300C7C2A01258C7C2A122D2A21258D5D2A4BE
:1057E3001258D5C2A21258D5C2A422D2A21258DC92
:1057F300D2A41258DCC2A21258DCC2A422AB05AA5E
:1058030004A9070912569CAF01AD0202569CD3EFBF
:105813009400EE94004001EFE4FF0FBFFAFC22D2A4
:105823008C758911758C0B758ADCE47887F622C236
:105833008E758911758D0B758BDCE47888F62230B3
:105843009902C299309807C298859940D20232D200
:10585300A21258CEC2A21258CEC2A30258CEC2A2DE
:105863001258CED2A31258CED2A20258CED2A2122E
:105873005886C2A2125886C296025886D2A21258DD
:1058830086D296E4FF0FBF12FC2212535AAF0512C1
:105893005361025898D2A11258C7D2A00258C7D256
:1058A300A41258D5D2A20258D5D2A41258DCD2A23F
:1058B3000258DCC2A2125881D2A2025886E4FF0F1A
:1058C300BF12FC22E4FF0FBF12FC22E4FF0FBF1242
:1058D300FC22E4FF0FBF12FC22E4FF0FBF12FC22E5
:1058E3003F065B4F666D7D277F6F777C395E7971ED
:1058F3007673003738403E785870541EBF86DBCF2E
:10590300E6EDFDA7FFEFF7FCB9DEF9F1F6F380C78B
:03591300B8C0BE5B
:00000001FF
